{
	"Payfpritself.sol": {
		"PayForItself": {
			"abi": [
				{
					"anonymous": false,
					"inputs": [
						{
							"indexed": true,
							"internalType": "address",
							"name": "_user",
							"type": "address"
						},
						{
							"indexed": false,
							"internalType": "uint256",
							"name": "_amount",
							"type": "uint256"
						}
					],
					"name": "Paid",
					"type": "event"
				},
				{
					"inputs": [],
					"name": "payUser",
					"outputs": [],
					"stateMutability": "nonpayable",
					"type": "function"
				},
				{
					"stateMutability": "payable",
					"type": "receive"
				}
			],
			"devdoc": {
				"kind": "dev",
				"methods": {},
				"version": 1
			},
			"evm": {
				"assembly": "    /* \"Payfpritself.sol\":69:698  contract PayForItself {... */\n  mstore(0x40, 0x80)\n  callvalue\n  dup1\n  iszero\n  tag_1\n  jumpi\n  0x00\n  dup1\n  revert\ntag_1:\n  pop\n  dataSize(sub_0)\n  dup1\n  dataOffset(sub_0)\n  0x00\n  codecopy\n  0x00\n  return\nstop\n\nsub_0: assembly {\n        /* \"Payfpritself.sol\":69:698  contract PayForItself {... */\n      mstore(0x40, 0x80)\n      jumpi(tag_1, lt(calldatasize, 0x04))\n      shr(0xe0, calldataload(0x00))\n      dup1\n      0x33f2537a\n      eq\n      tag_3\n      jumpi\n      jump(tag_2)\n    tag_1:\n      jumpi(tag_2, calldatasize)\n      stop\n    tag_2:\n      0x00\n      dup1\n      revert\n        /* \"Payfpritself.sol\":163:618  function payUser() public {... */\n    tag_3:\n      callvalue\n      dup1\n      iszero\n      tag_6\n      jumpi\n      0x00\n      dup1\n      revert\n    tag_6:\n      pop\n      tag_7\n      tag_8\n      jump\t// in\n    tag_7:\n      stop\n    tag_8:\n        /* \"Payfpritself.sol\":232:233  0 */\n      0x00\n        /* \"Payfpritself.sol\":208:229  address(this).balance */\n      selfbalance\n        /* \"Payfpritself.sol\":208:233  address(this).balance > 0 */\n      gt\n        /* \"Payfpritself.sol\":200:269  require(address(this).balance > 0, \"Contract has insufficient funds\") */\n      tag_10\n      jumpi\n      mload(0x40)\n      0x08c379a000000000000000000000000000000000000000000000000000000000\n      dup2\n      mstore\n      0x04\n      add\n      tag_11\n      swap1\n      tag_12\n      jump\t// in\n    tag_11:\n      mload(0x40)\n      dup1\n      swap2\n      sub\n      swap1\n      revert\n    tag_10:\n        /* \"Payfpritself.sol\":282:296  uint256 amount */\n      0x00\n        /* \"Payfpritself.sol\":299:306  1 ether */\n      0x0de0b6b3a7640000\n        /* \"Payfpritself.sol\":282:306  uint256 amount = 1 ether */\n      swap1\n      pop\n        /* \"Payfpritself.sol\":380:386  amount */\n      dup1\n        /* \"Payfpritself.sol\":355:376  address(this).balance */\n      selfbalance\n        /* \"Payfpritself.sol\":355:386  address(this).balance >= amount */\n      lt\n      iszero\n        /* \"Payfpritself.sol\":347:443  require(address(this).balance >= amount, \"Contract has insufficient funds for this transaction\") */\n      tag_13\n      jumpi\n      mload(0x40)\n      0x08c379a000000000000000000000000000000000000000000000000000000000\n      dup2\n      mstore\n      0x04\n      add\n      tag_14\n      swap1\n      tag_15\n      jump\t// in\n    tag_14:\n      mload(0x40)\n      dup1\n      swap2\n      sub\n      swap1\n      revert\n    tag_13:\n        /* \"Payfpritself.sol\":465:477  bool success */\n      0x00\n        /* \"Payfpritself.sol\":483:493  msg.sender */\n      caller\n        /* \"Payfpritself.sol\":483:498  msg.sender.call */\n      0xffffffffffffffffffffffffffffffffffffffff\n      and\n        /* \"Payfpritself.sol\":506:512  amount */\n      dup3\n        /* \"Payfpritself.sol\":483:517  msg.sender.call{value: amount}(\"\") */\n      mload(0x40)\n      tag_16\n      swap1\n      tag_17\n      jump\t// in\n    tag_16:\n      0x00\n      mload(0x40)\n      dup1\n      dup4\n      sub\n      dup2\n      dup6\n      dup8\n      gas\n      call\n      swap3\n      pop\n      pop\n      pop\n      returndatasize\n      dup1\n      0x00\n      dup2\n      eq\n      tag_20\n      jumpi\n      mload(0x40)\n      swap2\n      pop\n      and(add(returndatasize, 0x3f), not(0x1f))\n      dup3\n      add\n      0x40\n      mstore\n      returndatasize\n      dup3\n      mstore\n      returndatasize\n      0x00\n      0x20\n      dup5\n      add\n      returndatacopy\n      jump(tag_19)\n    tag_20:\n      0x60\n      swap2\n      pop\n    tag_19:\n      pop\n        /* \"Payfpritself.sol\":464:517  (bool success, ) = msg.sender.call{value: amount}(\"\") */\n      pop\n      swap1\n      pop\n        /* \"Payfpritself.sol\":536:543  success */\n      dup1\n        /* \"Payfpritself.sol\":528:568  require(success, \"Failed to send Ether\") */\n      tag_21\n      jumpi\n      mload(0x40)\n      0x08c379a000000000000000000000000000000000000000000000000000000000\n      dup2\n      mstore\n      0x04\n      add\n      tag_22\n      swap1\n      tag_23\n      jump\t// in\n    tag_22:\n      mload(0x40)\n      dup1\n      swap2\n      sub\n      swap1\n      revert\n    tag_21:\n        /* \"Payfpritself.sol\":591:601  msg.sender */\n      caller\n        /* \"Payfpritself.sol\":586:610  Paid(msg.sender, amount) */\n      0xffffffffffffffffffffffffffffffffffffffff\n      and\n      0x737c69225d647e5994eab1a6c301bf6d9232beb2759ae1e27a8966b4732bc489\n        /* \"Payfpritself.sol\":603:609  amount */\n      dup4\n        /* \"Payfpritself.sol\":586:610  Paid(msg.sender, amount) */\n      mload(0x40)\n      tag_24\n      swap2\n      swap1\n      tag_25\n      jump\t// in\n    tag_24:\n      mload(0x40)\n      dup1\n      swap2\n      sub\n      swap1\n      log2\n        /* \"Payfpritself.sol\":189:618  {... */\n      pop\n      pop\n        /* \"Payfpritself.sol\":163:618  function payUser() public {... */\n      jump\t// out\n        /* \"#utility.yul\":7:176   */\n    tag_26:\n        /* \"#utility.yul\":91:102   */\n      0x00\n        /* \"#utility.yul\":125:131   */\n      dup3\n        /* \"#utility.yul\":120:123   */\n      dup3\n        /* \"#utility.yul\":113:132   */\n      mstore\n        /* \"#utility.yul\":165:169   */\n      0x20\n        /* \"#utility.yul\":160:163   */\n      dup3\n        /* \"#utility.yul\":156:170   */\n      add\n        /* \"#utility.yul\":141:170   */\n      swap1\n      pop\n        /* \"#utility.yul\":7:176   */\n      swap3\n      swap2\n      pop\n      pop\n      jump\t// out\n        /* \"#utility.yul\":182:363   */\n    tag_27:\n        /* \"#utility.yul\":322:355   */\n      0x436f6e74726163742068617320696e73756666696369656e742066756e647300\n        /* \"#utility.yul\":318:319   */\n      0x00\n        /* \"#utility.yul\":310:316   */\n      dup3\n        /* \"#utility.yul\":306:320   */\n      add\n        /* \"#utility.yul\":299:356   */\n      mstore\n        /* \"#utility.yul\":182:363   */\n      pop\n      jump\t// out\n        /* \"#utility.yul\":369:735   */\n    tag_28:\n        /* \"#utility.yul\":511:514   */\n      0x00\n        /* \"#utility.yul\":532:599   */\n      tag_42\n        /* \"#utility.yul\":596:598   */\n      0x1f\n        /* \"#utility.yul\":591:594   */\n      dup4\n        /* \"#utility.yul\":532:599   */\n      tag_26\n      jump\t// in\n    tag_42:\n        /* \"#utility.yul\":525:599   */\n      swap2\n      pop\n        /* \"#utility.yul\":608:701   */\n      tag_43\n        /* \"#utility.yul\":697:700   */\n      dup3\n        /* \"#utility.yul\":608:701   */\n      tag_27\n      jump\t// in\n    tag_43:\n        /* \"#utility.yul\":726:728   */\n      0x20\n        /* \"#utility.yul\":721:724   */\n      dup3\n        /* \"#utility.yul\":717:729   */\n      add\n        /* \"#utility.yul\":710:729   */\n      swap1\n      pop\n        /* \"#utility.yul\":369:735   */\n      swap2\n      swap1\n      pop\n      jump\t// out\n        /* \"#utility.yul\":741:1160   */\n    tag_12:\n        /* \"#utility.yul\":907:911   */\n      0x00\n        /* \"#utility.yul\":945:947   */\n      0x20\n        /* \"#utility.yul\":934:943   */\n      dup3\n        /* \"#utility.yul\":930:948   */\n      add\n        /* \"#utility.yul\":922:948   */\n      swap1\n      pop\n        /* \"#utility.yul\":994:1003   */\n      dup2\n        /* \"#utility.yul\":988:992   */\n      dup2\n        /* \"#utility.yul\":984:1004   */\n      sub\n        /* \"#utility.yul\":980:981   */\n      0x00\n        /* \"#utility.yul\":969:978   */\n      dup4\n        /* \"#utility.yul\":965:982   */\n      add\n        /* \"#utility.yul\":958:1005   */\n      mstore\n        /* \"#utility.yul\":1022:1153   */\n      tag_45\n        /* \"#utility.yul\":1148:1152   */\n      dup2\n        /* \"#utility.yul\":1022:1153   */\n      tag_28\n      jump\t// in\n    tag_45:\n        /* \"#utility.yul\":1014:1153   */\n      swap1\n      pop\n        /* \"#utility.yul\":741:1160   */\n      swap2\n      swap1\n      pop\n      jump\t// out\n        /* \"#utility.yul\":1166:1405   */\n    tag_29:\n        /* \"#utility.yul\":1306:1340   */\n      0x436f6e74726163742068617320696e73756666696369656e742066756e647320\n        /* \"#utility.yul\":1302:1303   */\n      0x00\n        /* \"#utility.yul\":1294:1300   */\n      dup3\n        /* \"#utility.yul\":1290:1304   */\n      add\n        /* \"#utility.yul\":1283:1341   */\n      mstore\n        /* \"#utility.yul\":1375:1397   */\n      0x666f722074686973207472616e73616374696f6e000000000000000000000000\n        /* \"#utility.yul\":1370:1372   */\n      0x20\n        /* \"#utility.yul\":1362:1368   */\n      dup3\n        /* \"#utility.yul\":1358:1373   */\n      add\n        /* \"#utility.yul\":1351:1398   */\n      mstore\n        /* \"#utility.yul\":1166:1405   */\n      pop\n      jump\t// out\n        /* \"#utility.yul\":1411:1777   */\n    tag_30:\n        /* \"#utility.yul\":1553:1556   */\n      0x00\n        /* \"#utility.yul\":1574:1641   */\n      tag_48\n        /* \"#utility.yul\":1638:1640   */\n      0x34\n        /* \"#utility.yul\":1633:1636   */\n      dup4\n        /* \"#utility.yul\":1574:1641   */\n      tag_26\n      jump\t// in\n    tag_48:\n        /* \"#utility.yul\":1567:1641   */\n      swap2\n      pop\n        /* \"#utility.yul\":1650:1743   */\n      tag_49\n        /* \"#utility.yul\":1739:1742   */\n      dup3\n        /* \"#utility.yul\":1650:1743   */\n      tag_29\n      jump\t// in\n    tag_49:\n        /* \"#utility.yul\":1768:1770   */\n      0x40\n        /* \"#utility.yul\":1763:1766   */\n      dup3\n        /* \"#utility.yul\":1759:1771   */\n      add\n        /* \"#utility.yul\":1752:1771   */\n      swap1\n      pop\n        /* \"#utility.yul\":1411:1777   */\n      swap2\n      swap1\n      pop\n      jump\t// out\n        /* \"#utility.yul\":1783:2202   */\n    tag_15:\n        /* \"#utility.yul\":1949:1953   */\n      0x00\n        /* \"#utility.yul\":1987:1989   */\n      0x20\n        /* \"#utility.yul\":1976:1985   */\n      dup3\n        /* \"#utility.yul\":1972:1990   */\n      add\n        /* \"#utility.yul\":1964:1990   */\n      swap1\n      pop\n        /* \"#utility.yul\":2036:2045   */\n      dup2\n        /* \"#utility.yul\":2030:2034   */\n      dup2\n        /* \"#utility.yul\":2026:2046   */\n      sub\n        /* \"#utility.yul\":2022:2023   */\n      0x00\n        /* \"#utility.yul\":2011:2020   */\n      dup4\n        /* \"#utility.yul\":2007:2024   */\n      add\n        /* \"#utility.yul\":2000:2047   */\n      mstore\n        /* \"#utility.yul\":2064:2195   */\n      tag_51\n        /* \"#utility.yul\":2190:2194   */\n      dup2\n        /* \"#utility.yul\":2064:2195   */\n      tag_30\n      jump\t// in\n    tag_51:\n        /* \"#utility.yul\":2056:2195   */\n      swap1\n      pop\n        /* \"#utility.yul\":1783:2202   */\n      swap2\n      swap1\n      pop\n      jump\t// out\n        /* \"#utility.yul\":2208:2355   */\n    tag_31:\n        /* \"#utility.yul\":2309:2320   */\n      0x00\n        /* \"#utility.yul\":2346:2349   */\n      dup2\n        /* \"#utility.yul\":2331:2349   */\n      swap1\n      pop\n        /* \"#utility.yul\":2208:2355   */\n      swap3\n      swap2\n      pop\n      pop\n      jump\t// out\n        /* \"#utility.yul\":2361:2475   */\n    tag_32:\n      pop\n      jump\t// out\n        /* \"#utility.yul\":2481:2879   */\n    tag_33:\n        /* \"#utility.yul\":2640:2643   */\n      0x00\n        /* \"#utility.yul\":2661:2744   */\n      tag_55\n        /* \"#utility.yul\":2742:2743   */\n      0x00\n        /* \"#utility.yul\":2737:2740   */\n      dup4\n        /* \"#utility.yul\":2661:2744   */\n      tag_31\n      jump\t// in\n    tag_55:\n        /* \"#utility.yul\":2654:2744   */\n      swap2\n      pop\n        /* \"#utility.yul\":2753:2846   */\n      tag_56\n        /* \"#utility.yul\":2842:2845   */\n      dup3\n        /* \"#utility.yul\":2753:2846   */\n      tag_32\n      jump\t// in\n    tag_56:\n        /* \"#utility.yul\":2871:2872   */\n      0x00\n        /* \"#utility.yul\":2866:2869   */\n      dup3\n        /* \"#utility.yul\":2862:2873   */\n      add\n        /* \"#utility.yul\":2855:2873   */\n      swap1\n      pop\n        /* \"#utility.yul\":2481:2879   */\n      swap2\n      swap1\n      pop\n      jump\t// out\n        /* \"#utility.yul\":2885:3264   */\n    tag_17:\n        /* \"#utility.yul\":3069:3072   */\n      0x00\n        /* \"#utility.yul\":3091:3238   */\n      tag_58\n        /* \"#utility.yul\":3234:3237   */\n      dup3\n        /* \"#utility.yul\":3091:3238   */\n      tag_33\n      jump\t// in\n    tag_58:\n        /* \"#utility.yul\":3084:3238   */\n      swap2\n      pop\n        /* \"#utility.yul\":3255:3258   */\n      dup2\n        /* \"#utility.yul\":3248:3258   */\n      swap1\n      pop\n        /* \"#utility.yul\":2885:3264   */\n      swap2\n      swap1\n      pop\n      jump\t// out\n        /* \"#utility.yul\":3270:3440   */\n    tag_34:\n        /* \"#utility.yul\":3410:3432   */\n      0x4661696c656420746f2073656e64204574686572000000000000000000000000\n        /* \"#utility.yul\":3406:3407   */\n      0x00\n        /* \"#utility.yul\":3398:3404   */\n      dup3\n        /* \"#utility.yul\":3394:3408   */\n      add\n        /* \"#utility.yul\":3387:3433   */\n      mstore\n        /* \"#utility.yul\":3270:3440   */\n      pop\n      jump\t// out\n        /* \"#utility.yul\":3446:3812   */\n    tag_35:\n        /* \"#utility.yul\":3588:3591   */\n      0x00\n        /* \"#utility.yul\":3609:3676   */\n      tag_61\n        /* \"#utility.yul\":3673:3675   */\n      0x14\n        /* \"#utility.yul\":3668:3671   */\n      dup4\n        /* \"#utility.yul\":3609:3676   */\n      tag_26\n      jump\t// in\n    tag_61:\n        /* \"#utility.yul\":3602:3676   */\n      swap2\n      pop\n        /* \"#utility.yul\":3685:3778   */\n      tag_62\n        /* \"#utility.yul\":3774:3777   */\n      dup3\n        /* \"#utility.yul\":3685:3778   */\n      tag_34\n      jump\t// in\n    tag_62:\n        /* \"#utility.yul\":3803:3805   */\n      0x20\n        /* \"#utility.yul\":3798:3801   */\n      dup3\n        /* \"#utility.yul\":3794:3806   */\n      add\n        /* \"#utility.yul\":3787:3806   */\n      swap1\n      pop\n        /* \"#utility.yul\":3446:3812   */\n      swap2\n      swap1\n      pop\n      jump\t// out\n        /* \"#utility.yul\":3818:4237   */\n    tag_23:\n        /* \"#utility.yul\":3984:3988   */\n      0x00\n        /* \"#utility.yul\":4022:4024   */\n      0x20\n        /* \"#utility.yul\":4011:4020   */\n      dup3\n        /* \"#utility.yul\":4007:4025   */\n      add\n        /* \"#utility.yul\":3999:4025   */\n      swap1\n      pop\n        /* \"#utility.yul\":4071:4080   */\n      dup2\n        /* \"#utility.yul\":4065:4069   */\n      dup2\n        /* \"#utility.yul\":4061:4081   */\n      sub\n        /* \"#utility.yul\":4057:4058   */\n      0x00\n        /* \"#utility.yul\":4046:4055   */\n      dup4\n        /* \"#utility.yul\":4042:4059   */\n      add\n        /* \"#utility.yul\":4035:4082   */\n      mstore\n        /* \"#utility.yul\":4099:4230   */\n      tag_64\n        /* \"#utility.yul\":4225:4229   */\n      dup2\n        /* \"#utility.yul\":4099:4230   */\n      tag_35\n      jump\t// in\n    tag_64:\n        /* \"#utility.yul\":4091:4230   */\n      swap1\n      pop\n        /* \"#utility.yul\":3818:4237   */\n      swap2\n      swap1\n      pop\n      jump\t// out\n        /* \"#utility.yul\":4243:4320   */\n    tag_36:\n        /* \"#utility.yul\":4280:4287   */\n      0x00\n        /* \"#utility.yul\":4309:4314   */\n      dup2\n        /* \"#utility.yul\":4298:4314   */\n      swap1\n      pop\n        /* \"#utility.yul\":4243:4320   */\n      swap2\n      swap1\n      pop\n      jump\t// out\n        /* \"#utility.yul\":4326:4444   */\n    tag_37:\n        /* \"#utility.yul\":4413:4437   */\n      tag_67\n        /* \"#utility.yul\":4431:4436   */\n      dup2\n        /* \"#utility.yul\":4413:4437   */\n      tag_36\n      jump\t// in\n    tag_67:\n        /* \"#utility.yul\":4408:4411   */\n      dup3\n        /* \"#utility.yul\":4401:4438   */\n      mstore\n        /* \"#utility.yul\":4326:4444   */\n      pop\n      pop\n      jump\t// out\n        /* \"#utility.yul\":4450:4672   */\n    tag_25:\n        /* \"#utility.yul\":4543:4547   */\n      0x00\n        /* \"#utility.yul\":4581:4583   */\n      0x20\n        /* \"#utility.yul\":4570:4579   */\n      dup3\n        /* \"#utility.yul\":4566:4584   */\n      add\n        /* \"#utility.yul\":4558:4584   */\n      swap1\n      pop\n        /* \"#utility.yul\":4594:4665   */\n      tag_69\n        /* \"#utility.yul\":4662:4663   */\n      0x00\n        /* \"#utility.yul\":4651:4660   */\n      dup4\n        /* \"#utility.yul\":4647:4664   */\n      add\n        /* \"#utility.yul\":4638:4644   */\n      dup5\n        /* \"#utility.yul\":4594:4665   */\n      tag_37\n      jump\t// in\n    tag_69:\n        /* \"#utility.yul\":4450:4672   */\n      swap3\n      swap2\n      pop\n      pop\n      jump\t// out\n\n    auxdata: 0xa2646970667358221220b7ef50d966ef17d5d0ccfa4488acde23aa299f08a6c6a4028d24479dab949c9064736f6c63430008190033\n}\n",
				"bytecode": {
					"linkReferences": {},
					"object": "6080604052348015600e575f80fd5b506103e38061001c5f395ff3fe608060405260043610610021575f3560e01c806333f2537a1461002c57610028565b3661002857005b5f80fd5b348015610037575f80fd5b50610040610042565b005b5f4711610084576040517f08c379a000000000000000000000000000000000000000000000000000000000815260040161007b90610227565b60405180910390fd5b5f670de0b6b3a76400009050804710156100d3576040517f08c379a00000000000000000000000000000000000000000000000000000000081526004016100ca906102b5565b60405180910390fd5b5f3373ffffffffffffffffffffffffffffffffffffffff16826040516100f890610300565b5f6040518083038185875af1925050503d805f8114610132576040519150601f19603f3d011682016040523d82523d5f602084013e610137565b606091505b505090508061017b576040517f08c379a00000000000000000000000000000000000000000000000000000000081526004016101729061035e565b60405180910390fd5b3373ffffffffffffffffffffffffffffffffffffffff167f737c69225d647e5994eab1a6c301bf6d9232beb2759ae1e27a8966b4732bc489836040516101c19190610394565b60405180910390a25050565b5f82825260208201905092915050565b7f436f6e74726163742068617320696e73756666696369656e742066756e6473005f82015250565b5f610211601f836101cd565b915061021c826101dd565b602082019050919050565b5f6020820190508181035f83015261023e81610205565b9050919050565b7f436f6e74726163742068617320696e73756666696369656e742066756e6473205f8201527f666f722074686973207472616e73616374696f6e000000000000000000000000602082015250565b5f61029f6034836101cd565b91506102aa82610245565b604082019050919050565b5f6020820190508181035f8301526102cc81610293565b9050919050565b5f81905092915050565b50565b5f6102eb5f836102d3565b91506102f6826102dd565b5f82019050919050565b5f61030a826102e0565b9150819050919050565b7f4661696c656420746f2073656e642045746865720000000000000000000000005f82015250565b5f6103486014836101cd565b915061035382610314565b602082019050919050565b5f6020820190508181035f8301526103758161033c565b9050919050565b5f819050919050565b61038e8161037c565b82525050565b5f6020820190506103a75f830184610385565b9291505056fea2646970667358221220b7ef50d966ef17d5d0ccfa4488acde23aa299f08a6c6a4028d24479dab949c9064736f6c63430008190033",
					"opcodes": "PUSH1 0x80 PUSH1 0x40 MSTORE CALLVALUE DUP1 ISZERO PUSH1 0xE JUMPI PUSH0 DUP1 REVERT JUMPDEST POP PUSH2 0x3E3 DUP1 PUSH2 0x1C PUSH0 CODECOPY PUSH0 RETURN INVALID PUSH1 0x80 PUSH1 0x40 MSTORE PUSH1 0x4 CALLDATASIZE LT PUSH2 0x21 JUMPI PUSH0 CALLDATALOAD PUSH1 0xE0 SHR DUP1 PUSH4 0x33F2537A EQ PUSH2 0x2C JUMPI PUSH2 0x28 JUMP JUMPDEST CALLDATASIZE PUSH2 0x28 JUMPI STOP JUMPDEST PUSH0 DUP1 REVERT JUMPDEST CALLVALUE DUP1 ISZERO PUSH2 0x37 JUMPI PUSH0 DUP1 REVERT JUMPDEST POP PUSH2 0x40 PUSH2 0x42 JUMP JUMPDEST STOP JUMPDEST PUSH0 SELFBALANCE GT PUSH2 0x84 JUMPI PUSH1 0x40 MLOAD PUSH32 0x8C379A000000000000000000000000000000000000000000000000000000000 DUP2 MSTORE PUSH1 0x4 ADD PUSH2 0x7B SWAP1 PUSH2 0x227 JUMP JUMPDEST PUSH1 0x40 MLOAD DUP1 SWAP2 SUB SWAP1 REVERT JUMPDEST PUSH0 PUSH8 0xDE0B6B3A7640000 SWAP1 POP DUP1 SELFBALANCE LT ISZERO PUSH2 0xD3 JUMPI PUSH1 0x40 MLOAD PUSH32 0x8C379A000000000000000000000000000000000000000000000000000000000 DUP2 MSTORE PUSH1 0x4 ADD PUSH2 0xCA SWAP1 PUSH2 0x2B5 JUMP JUMPDEST PUSH1 0x40 MLOAD DUP1 SWAP2 SUB SWAP1 REVERT JUMPDEST PUSH0 CALLER PUSH20 0xFFFFFFFFFFFFFFFFFFFFFFFFFFFFFFFFFFFFFFFF AND DUP3 PUSH1 0x40 MLOAD PUSH2 0xF8 SWAP1 PUSH2 0x300 JUMP JUMPDEST PUSH0 PUSH1 0x40 MLOAD DUP1 DUP4 SUB DUP2 DUP6 DUP8 GAS CALL SWAP3 POP POP POP RETURNDATASIZE DUP1 PUSH0 DUP2 EQ PUSH2 0x132 JUMPI PUSH1 0x40 MLOAD SWAP2 POP PUSH1 0x1F NOT PUSH1 0x3F RETURNDATASIZE ADD AND DUP3 ADD PUSH1 0x40 MSTORE RETURNDATASIZE DUP3 MSTORE RETURNDATASIZE PUSH0 PUSH1 0x20 DUP5 ADD RETURNDATACOPY PUSH2 0x137 JUMP JUMPDEST PUSH1 0x60 SWAP2 POP JUMPDEST POP POP SWAP1 POP DUP1 PUSH2 0x17B JUMPI PUSH1 0x40 MLOAD PUSH32 0x8C379A000000000000000000000000000000000000000000000000000000000 DUP2 MSTORE PUSH1 0x4 ADD PUSH2 0x172 SWAP1 PUSH2 0x35E JUMP JUMPDEST PUSH1 0x40 MLOAD DUP1 SWAP2 SUB SWAP1 REVERT JUMPDEST CALLER PUSH20 0xFFFFFFFFFFFFFFFFFFFFFFFFFFFFFFFFFFFFFFFF AND PUSH32 0x737C69225D647E5994EAB1A6C301BF6D9232BEB2759AE1E27A8966B4732BC489 DUP4 PUSH1 0x40 MLOAD PUSH2 0x1C1 SWAP2 SWAP1 PUSH2 0x394 JUMP JUMPDEST PUSH1 0x40 MLOAD DUP1 SWAP2 SUB SWAP1 LOG2 POP POP JUMP JUMPDEST PUSH0 DUP3 DUP3 MSTORE PUSH1 0x20 DUP3 ADD SWAP1 POP SWAP3 SWAP2 POP POP JUMP JUMPDEST PUSH32 0x436F6E74726163742068617320696E73756666696369656E742066756E647300 PUSH0 DUP3 ADD MSTORE POP JUMP JUMPDEST PUSH0 PUSH2 0x211 PUSH1 0x1F DUP4 PUSH2 0x1CD JUMP JUMPDEST SWAP2 POP PUSH2 0x21C DUP3 PUSH2 0x1DD JUMP JUMPDEST PUSH1 0x20 DUP3 ADD SWAP1 POP SWAP2 SWAP1 POP JUMP JUMPDEST PUSH0 PUSH1 0x20 DUP3 ADD SWAP1 POP DUP2 DUP2 SUB PUSH0 DUP4 ADD MSTORE PUSH2 0x23E DUP2 PUSH2 0x205 JUMP JUMPDEST SWAP1 POP SWAP2 SWAP1 POP JUMP JUMPDEST PUSH32 0x436F6E74726163742068617320696E73756666696369656E742066756E647320 PUSH0 DUP3 ADD MSTORE PUSH32 0x666F722074686973207472616E73616374696F6E000000000000000000000000 PUSH1 0x20 DUP3 ADD MSTORE POP JUMP JUMPDEST PUSH0 PUSH2 0x29F PUSH1 0x34 DUP4 PUSH2 0x1CD JUMP JUMPDEST SWAP2 POP PUSH2 0x2AA DUP3 PUSH2 0x245 JUMP JUMPDEST PUSH1 0x40 DUP3 ADD SWAP1 POP SWAP2 SWAP1 POP JUMP JUMPDEST PUSH0 PUSH1 0x20 DUP3 ADD SWAP1 POP DUP2 DUP2 SUB PUSH0 DUP4 ADD MSTORE PUSH2 0x2CC DUP2 PUSH2 0x293 JUMP JUMPDEST SWAP1 POP SWAP2 SWAP1 POP JUMP JUMPDEST PUSH0 DUP2 SWAP1 POP SWAP3 SWAP2 POP POP JUMP JUMPDEST POP JUMP JUMPDEST PUSH0 PUSH2 0x2EB PUSH0 DUP4 PUSH2 0x2D3 JUMP JUMPDEST SWAP2 POP PUSH2 0x2F6 DUP3 PUSH2 0x2DD JUMP JUMPDEST PUSH0 DUP3 ADD SWAP1 POP SWAP2 SWAP1 POP JUMP JUMPDEST PUSH0 PUSH2 0x30A DUP3 PUSH2 0x2E0 JUMP JUMPDEST SWAP2 POP DUP2 SWAP1 POP SWAP2 SWAP1 POP JUMP JUMPDEST PUSH32 0x4661696C656420746F2073656E64204574686572000000000000000000000000 PUSH0 DUP3 ADD MSTORE POP JUMP JUMPDEST PUSH0 PUSH2 0x348 PUSH1 0x14 DUP4 PUSH2 0x1CD JUMP JUMPDEST SWAP2 POP PUSH2 0x353 DUP3 PUSH2 0x314 JUMP JUMPDEST PUSH1 0x20 DUP3 ADD SWAP1 POP SWAP2 SWAP1 POP JUMP JUMPDEST PUSH0 PUSH1 0x20 DUP3 ADD SWAP1 POP DUP2 DUP2 SUB PUSH0 DUP4 ADD MSTORE PUSH2 0x375 DUP2 PUSH2 0x33C JUMP JUMPDEST SWAP1 POP SWAP2 SWAP1 POP JUMP JUMPDEST PUSH0 DUP2 SWAP1 POP SWAP2 SWAP1 POP JUMP JUMPDEST PUSH2 0x38E DUP2 PUSH2 0x37C JUMP JUMPDEST DUP3 MSTORE POP POP JUMP JUMPDEST PUSH0 PUSH1 0x20 DUP3 ADD SWAP1 POP PUSH2 0x3A7 PUSH0 DUP4 ADD DUP5 PUSH2 0x385 JUMP JUMPDEST SWAP3 SWAP2 POP POP JUMP INVALID LOG2 PUSH5 0x6970667358 0x22 SLT KECCAK256 0xB7 0xEF POP 0xD9 PUSH7 0xEF17D5D0CCFA44 DUP9 0xAC 0xDE 0x23 0xAA 0x29 SWAP16 ADDMOD 0xA6 0xC6 LOG4 MUL DUP14 0x24 SELFBALANCE SWAP14 0xAB SWAP5 SWAP13 SWAP1 PUSH5 0x736F6C6343 STOP ADDMOD NOT STOP CALLER "
				},
				"gasEstimates": {
					"creation": {
						"codeDepositCost": "199000",
						"executionCost": "243",
						"totalCost": "199243"
					},
					"external": {
						"payUser()": "infinite"
					}
				},
				"methodIdentifiers": {
					"payUser()": "33f2537a"
				}
			},
			"storageLayout": {
				"storage": [],
				"types": null
			},
			"userdoc": {
				"kind": "user",
				"methods": {},
				"version": 1
			}
		}
	}
}