{
	"Deed.sol": {
		"Deed": {
			"abi": [
				{
					"constant": true,
					"inputs": [],
					"name": "creationDate",
					"outputs": [
						{
							"name": "",
							"type": "uint256"
						}
					],
					"payable": false,
					"stateMutability": "view",
					"type": "function"
				},
				{
					"constant": false,
					"inputs": [],
					"name": "destroyDeed",
					"outputs": [],
					"payable": false,
					"stateMutability": "nonpayable",
					"type": "function"
				},
				{
					"constant": false,
					"inputs": [
						{
							"name": "newOwner",
							"type": "address"
						}
					],
					"name": "setOwner",
					"outputs": [],
					"payable": false,
					"stateMutability": "nonpayable",
					"type": "function"
				},
				{
					"constant": true,
					"inputs": [],
					"name": "registrar",
					"outputs": [
						{
							"name": "",
							"type": "address"
						}
					],
					"payable": false,
					"stateMutability": "view",
					"type": "function"
				},
				{
					"constant": true,
					"inputs": [],
					"name": "value",
					"outputs": [
						{
							"name": "",
							"type": "uint256"
						}
					],
					"payable": false,
					"stateMutability": "view",
					"type": "function"
				},
				{
					"constant": true,
					"inputs": [],
					"name": "previousOwner",
					"outputs": [
						{
							"name": "",
							"type": "address"
						}
					],
					"payable": false,
					"stateMutability": "view",
					"type": "function"
				},
				{
					"constant": true,
					"inputs": [],
					"name": "owner",
					"outputs": [
						{
							"name": "",
							"type": "address"
						}
					],
					"payable": false,
					"stateMutability": "view",
					"type": "function"
				},
				{
					"constant": false,
					"inputs": [
						{
							"name": "newValue",
							"type": "uint256"
						},
						{
							"name": "throwOnFailure",
							"type": "bool"
						}
					],
					"name": "setBalance",
					"outputs": [],
					"payable": false,
					"stateMutability": "nonpayable",
					"type": "function"
				},
				{
					"constant": false,
					"inputs": [
						{
							"name": "refundRatio",
							"type": "uint256"
						}
					],
					"name": "closeDeed",
					"outputs": [],
					"payable": false,
					"stateMutability": "nonpayable",
					"type": "function"
				},
				{
					"constant": false,
					"inputs": [
						{
							"name": "newRegistrar",
							"type": "address"
						}
					],
					"name": "setRegistrar",
					"outputs": [],
					"payable": false,
					"stateMutability": "nonpayable",
					"type": "function"
				},
				{
					"inputs": [
						{
							"name": "_owner",
							"type": "address"
						}
					],
					"payable": true,
					"stateMutability": "payable",
					"type": "constructor"
				},
				{
					"anonymous": false,
					"inputs": [
						{
							"indexed": false,
							"name": "newOwner",
							"type": "address"
						}
					],
					"name": "OwnerChanged",
					"type": "event"
				},
				{
					"anonymous": false,
					"inputs": [],
					"name": "DeedClosed",
					"type": "event"
				}
			],
			"devdoc": {
				"methods": {
					"closeDeed(uint256)": {
						"details": "Close a deed and refund a specified fraction of the bid value\r ",
						"params": {
							"refundRatio": "The amount*1/1000 to refund\r"
						}
					},
					"destroyDeed()": {
						"details": "Close a deed and refund a specified fraction of the bid value\r"
					}
				},
				"title": "Deed to hold ether in exchange for ownership of a node\r"
			},
			"evm": {
				"assembly": "    /* \"Deed.sol\":177:2441  contract Deed {\r... */\n  mstore(0x40, 0x60)\n    /* \"Deed.sol\":649:841  function Deed(address _owner) public payable {\r... */\n  mload(0x40)\n  0x20\n  dup1\n  bytecodeSize\n  dup4\n  codecopy\n  dup2\n  add\n  0x40\n  mstore\n  dup1\n  dup1\n  mload\n  swap1\n  0x20\n  add\n  swap1\n  swap2\n  swap1\n  pop\n  pop\n    /* \"Deed.sol\":713:719  _owner */\n  dup1\n    /* \"Deed.sol\":705:710  owner */\n  0x1\n  0x0\n    /* \"Deed.sol\":705:719  owner = _owner */\n  0x100\n  exp\n  dup2\n  sload\n  dup2\n  0xffffffffffffffffffffffffffffffffffffffff\n  mul\n  not\n  and\n  swap1\n  dup4\n  0xffffffffffffffffffffffffffffffffffffffff\n  and\n  mul\n  or\n  swap1\n  sstore\n  pop\n    /* \"Deed.sol\":742:752  msg.sender */\n  caller\n    /* \"Deed.sol\":730:739  registrar */\n  0x0\n  dup1\n    /* \"Deed.sol\":730:752  registrar = msg.sender */\n  0x100\n  exp\n  dup2\n  sload\n  dup2\n  0xffffffffffffffffffffffffffffffffffffffff\n  mul\n  not\n  and\n  swap1\n  dup4\n  0xffffffffffffffffffffffffffffffffffffffff\n  and\n  mul\n  or\n  swap1\n  sstore\n  pop\n    /* \"Deed.sol\":778:781  now */\n  timestamp\n    /* \"Deed.sol\":763:775  creationDate */\n  0x3\n    /* \"Deed.sol\":763:781  creationDate = now */\n  dup2\n  swap1\n  sstore\n  pop\n    /* \"Deed.sol\":801:805  true */\n  0x1\n    /* \"Deed.sol\":792:798  active */\n  0x5\n  0x0\n    /* \"Deed.sol\":792:805  active = true */\n  0x100\n  exp\n  dup2\n  sload\n  dup2\n  0xff\n  mul\n  not\n  and\n  swap1\n  dup4\n  iszero\n  iszero\n  mul\n  or\n  swap1\n  sstore\n  pop\n    /* \"Deed.sol\":824:833  msg.value */\n  callvalue\n    /* \"Deed.sol\":816:821  value */\n  0x4\n    /* \"Deed.sol\":816:833  value = msg.value */\n  dup2\n  swap1\n  sstore\n  pop\n    /* \"Deed.sol\":649:841  function Deed(address _owner) public payable {\r... */\n  pop\n    /* \"Deed.sol\":177:2441  contract Deed {\r... */\n  dataSize(sub_0)\n  dup1\n  dataOffset(sub_0)\n  0x0\n  codecopy\n  0x0\n  return\nstop\n\nsub_0: assembly {\n        /* \"Deed.sol\":177:2441  contract Deed {\r... */\n      mstore(0x40, 0x60)\n      jumpi(tag_1, lt(calldatasize, 0x4))\n      calldataload(0x0)\n      0x100000000000000000000000000000000000000000000000000000000\n      swap1\n      div\n      0xffffffff\n      and\n      dup1\n      0x5b34410\n      eq\n      tag_2\n      jumpi\n      dup1\n      0xb5ab3d5\n      eq\n      tag_3\n      jumpi\n      dup1\n      0x13af4035\n      eq\n      tag_4\n      jumpi\n      dup1\n      0x2b20e397\n      eq\n      tag_5\n      jumpi\n      dup1\n      0x3fa4f245\n      eq\n      tag_6\n      jumpi\n      dup1\n      0x674f220f\n      eq\n      tag_7\n      jumpi\n      dup1\n      0x8da5cb5b\n      eq\n      tag_8\n      jumpi\n      dup1\n      0xb0c80972\n      eq\n      tag_9\n      jumpi\n      dup1\n      0xbbe42771\n      eq\n      tag_10\n      jumpi\n      dup1\n      0xfaab9d39\n      eq\n      tag_11\n      jumpi\n    tag_1:\n      0x0\n      dup1\n      revert\n        /* \"Deed.sol\":334:358  uint public creationDate */\n    tag_2:\n      jumpi(tag_12, iszero(callvalue))\n      0x0\n      dup1\n      revert\n    tag_12:\n      tag_13\n      jump(tag_14)\n    tag_13:\n      mload(0x40)\n      dup1\n      dup3\n      dup2\n      mstore\n      0x20\n      add\n      swap2\n      pop\n      pop\n      mload(0x40)\n      dup1\n      swap2\n      sub\n      swap1\n      return\n        /* \"Deed.sol\":2052:2438  function destroyDeed() public {\r... */\n    tag_3:\n      jumpi(tag_15, iszero(callvalue))\n      0x0\n      dup1\n      revert\n    tag_15:\n      tag_16\n      jump(tag_17)\n    tag_16:\n      stop\n        /* \"Deed.sol\":849:1102  function setOwner(address newOwner) public onlyRegistrar {\r... */\n    tag_4:\n      jumpi(tag_18, iszero(callvalue))\n      0x0\n      dup1\n      revert\n    tag_18:\n      tag_19\n      0x4\n      dup1\n      dup1\n      calldataload\n      0xffffffffffffffffffffffffffffffffffffffff\n      and\n      swap1\n      0x20\n      add\n      swap1\n      swap2\n      swap1\n      pop\n      pop\n      jump(tag_20)\n    tag_19:\n      stop\n        /* \"Deed.sol\":239:263  address public registrar */\n    tag_5:\n      jumpi(tag_21, iszero(callvalue))\n      0x0\n      dup1\n      revert\n    tag_21:\n      tag_22\n      jump(tag_23)\n    tag_22:\n      mload(0x40)\n      dup1\n      dup3\n      0xffffffffffffffffffffffffffffffffffffffff\n      and\n      0xffffffffffffffffffffffffffffffffffffffff\n      and\n      dup2\n      mstore\n      0x20\n      add\n      swap2\n      pop\n      pop\n      mload(0x40)\n      dup1\n      swap2\n      sub\n      swap1\n      return\n        /* \"Deed.sol\":365:382  uint public value */\n    tag_6:\n      jumpi(tag_24, iszero(callvalue))\n      0x0\n      dup1\n      revert\n    tag_24:\n      tag_25\n      jump(tag_26)\n    tag_25:\n      mload(0x40)\n      dup1\n      dup3\n      dup2\n      mstore\n      0x20\n      add\n      swap2\n      pop\n      pop\n      mload(0x40)\n      dup1\n      swap2\n      sub\n      swap1\n      return\n        /* \"Deed.sol\":297:325  address public previousOwner */\n    tag_7:\n      jumpi(tag_27, iszero(callvalue))\n      0x0\n      dup1\n      revert\n    tag_27:\n      tag_28\n      jump(tag_29)\n    tag_28:\n      mload(0x40)\n      dup1\n      dup3\n      0xffffffffffffffffffffffffffffffffffffffff\n      and\n      0xffffffffffffffffffffffffffffffffffffffff\n      and\n      dup2\n      mstore\n      0x20\n      add\n      swap2\n      pop\n      pop\n      mload(0x40)\n      dup1\n      swap2\n      sub\n      swap1\n      return\n        /* \"Deed.sol\":270:290  address public owner */\n    tag_8:\n      jumpi(tag_30, iszero(callvalue))\n      0x0\n      dup1\n      revert\n    tag_30:\n      tag_31\n      jump(tag_32)\n    tag_31:\n      mload(0x40)\n      dup1\n      dup3\n      0xffffffffffffffffffffffffffffffffffffffff\n      and\n      0xffffffffffffffffffffffffffffffffffffffff\n      and\n      dup2\n      mstore\n      0x20\n      add\n      swap2\n      pop\n      pop\n      mload(0x40)\n      dup1\n      swap2\n      sub\n      swap1\n      return\n        /* \"Deed.sol\":1226:1565  function setBalance(uint newValue, bool throwOnFailure) public onlyRegistrar onlyActive {\r... */\n    tag_9:\n      jumpi(tag_33, iszero(callvalue))\n      0x0\n      dup1\n      revert\n    tag_33:\n      tag_34\n      0x4\n      dup1\n      dup1\n      calldataload\n      swap1\n      0x20\n      add\n      swap1\n      swap2\n      swap1\n      dup1\n      calldataload\n      iszero\n      iszero\n      swap1\n      0x20\n      add\n      swap1\n      swap2\n      swap1\n      pop\n      pop\n      jump(tag_35)\n    tag_34:\n      stop\n        /* \"Deed.sol\":1729:1951  function closeDeed(uint refundRatio) public onlyRegistrar onlyActive {\r... */\n    tag_10:\n      jumpi(tag_36, iszero(callvalue))\n      0x0\n      dup1\n      revert\n    tag_36:\n      tag_37\n      0x4\n      dup1\n      dup1\n      calldataload\n      swap1\n      0x20\n      add\n      swap1\n      swap2\n      swap1\n      pop\n      pop\n      jump(tag_38)\n    tag_37:\n      stop\n        /* \"Deed.sol\":1110:1218  function setRegistrar(address newRegistrar) public onlyRegistrar {\r... */\n    tag_11:\n      jumpi(tag_39, iszero(callvalue))\n      0x0\n      dup1\n      revert\n    tag_39:\n      tag_40\n      0x4\n      dup1\n      dup1\n      calldataload\n      0xffffffffffffffffffffffffffffffffffffffff\n      and\n      swap1\n      0x20\n      add\n      swap1\n      swap2\n      swap1\n      pop\n      pop\n      jump(tag_41)\n    tag_40:\n      stop\n        /* \"Deed.sol\":334:358  uint public creationDate */\n    tag_14:\n      sload(0x3)\n      dup2\n      jump\t// out\n        /* \"Deed.sol\":2052:2438  function destroyDeed() public {\r... */\n    tag_17:\n        /* \"Deed.sol\":2102:2108  active */\n      0x5\n      0x0\n      swap1\n      sload\n      swap1\n      0x100\n      exp\n      swap1\n      div\n      0xff\n      and\n        /* \"Deed.sol\":2101:2108  !active */\n      iszero\n        /* \"Deed.sol\":2093:2109  require(!active) */\n      iszero\n      iszero\n      tag_43\n      jumpi\n      0x0\n      dup1\n      revert\n    tag_43:\n        /* \"Deed.sol\":2360:2365  owner */\n      0x1\n      0x0\n      swap1\n      sload\n      swap1\n      0x100\n      exp\n      swap1\n      div\n      0xffffffffffffffffffffffffffffffffffffffff\n      and\n        /* \"Deed.sol\":2360:2370  owner.send */\n      0xffffffffffffffffffffffffffffffffffffffff\n      and\n        /* \"Deed.sol\":2360:2384  owner.send(this.balance) */\n      0x8fc\n        /* \"Deed.sol\":2371:2375  this */\n      address\n        /* \"Deed.sol\":2371:2383  this.balance */\n      0xffffffffffffffffffffffffffffffffffffffff\n      and\n      balance\n        /* \"Deed.sol\":2360:2384  owner.send(this.balance) */\n      swap1\n      dup2\n      iszero\n      mul\n      swap1\n      mload(0x40)\n      0x0\n      mload(0x40)\n      dup1\n      dup4\n      sub\n      dup2\n      dup6\n      dup9\n      dup9\n      call\n      swap4\n      pop\n      pop\n      pop\n      pop\n        /* \"Deed.sol\":2356:2431  if (owner.send(this.balance)) {\r... */\n      iszero\n      tag_44\n      jumpi\n        /* \"Deed.sol\":224:230  0xdead */\n      0xdead\n        /* \"Deed.sol\":2401:2419  selfdestruct(burn) */\n      0xffffffffffffffffffffffffffffffffffffffff\n      and\n      selfdestruct\n        /* \"Deed.sol\":2356:2431  if (owner.send(this.balance)) {\r... */\n    tag_44:\n        /* \"Deed.sol\":2052:2438  function destroyDeed() public {\r... */\n      jump\t// out\n        /* \"Deed.sol\":849:1102  function setOwner(address newOwner) public onlyRegistrar {\r... */\n    tag_20:\n        /* \"Deed.sol\":537:546  registrar */\n      0x0\n      dup1\n      swap1\n      sload\n      swap1\n      0x100\n      exp\n      swap1\n      div\n      0xffffffffffffffffffffffffffffffffffffffff\n      and\n        /* \"Deed.sol\":523:546  msg.sender == registrar */\n      0xffffffffffffffffffffffffffffffffffffffff\n      and\n        /* \"Deed.sol\":523:533  msg.sender */\n      caller\n        /* \"Deed.sol\":523:546  msg.sender == registrar */\n      0xffffffffffffffffffffffffffffffffffffffff\n      and\n      eq\n        /* \"Deed.sol\":515:547  require(msg.sender == registrar) */\n      iszero\n      iszero\n      tag_46\n      jumpi\n      0x0\n      dup1\n      revert\n    tag_46:\n        /* \"Deed.sol\":937:938  0 */\n      0x0\n        /* \"Deed.sol\":925:933  newOwner */\n      dup2\n        /* \"Deed.sol\":925:938  newOwner != 0 */\n      0xffffffffffffffffffffffffffffffffffffffff\n      and\n      eq\n      iszero\n        /* \"Deed.sol\":917:939  require(newOwner != 0) */\n      iszero\n      iszero\n      tag_48\n      jumpi\n      0x0\n      dup1\n      revert\n    tag_48:\n        /* \"Deed.sol\":966:971  owner */\n      0x1\n      0x0\n      swap1\n      sload\n      swap1\n      0x100\n      exp\n      swap1\n      div\n      0xffffffffffffffffffffffffffffffffffffffff\n      and\n        /* \"Deed.sol\":950:963  previousOwner */\n      0x2\n      0x0\n        /* \"Deed.sol\":950:971  previousOwner = owner */\n      0x100\n      exp\n      dup2\n      sload\n      dup2\n      0xffffffffffffffffffffffffffffffffffffffff\n      mul\n      not\n      and\n      swap1\n      dup4\n      0xffffffffffffffffffffffffffffffffffffffff\n      and\n      mul\n      or\n      swap1\n      sstore\n      pop\n        /* \"Deed.sol\":1053:1061  newOwner */\n      dup1\n        /* \"Deed.sol\":1045:1050  owner */\n      0x1\n      0x0\n        /* \"Deed.sol\":1045:1061  owner = newOwner */\n      0x100\n      exp\n      dup2\n      sload\n      dup2\n      0xffffffffffffffffffffffffffffffffffffffff\n      mul\n      not\n      and\n      swap1\n      dup4\n      0xffffffffffffffffffffffffffffffffffffffff\n      and\n      mul\n      or\n      swap1\n      sstore\n      pop\n        /* \"Deed.sol\":1072:1094  OwnerChanged(newOwner) */\n      0xa2ea9883a321a3e97b8266c2b078bfeec6d50c711ed71f874a90d500ae2eaf36\n        /* \"Deed.sol\":1085:1093  newOwner */\n      dup2\n        /* \"Deed.sol\":1072:1094  OwnerChanged(newOwner) */\n      mload(0x40)\n      dup1\n      dup3\n      0xffffffffffffffffffffffffffffffffffffffff\n      and\n      0xffffffffffffffffffffffffffffffffffffffff\n      and\n      dup2\n      mstore\n      0x20\n      add\n      swap2\n      pop\n      pop\n      mload(0x40)\n      dup1\n      swap2\n      sub\n      swap1\n      log1\n        /* \"Deed.sol\":849:1102  function setOwner(address newOwner) public onlyRegistrar {\r... */\n      pop\n      jump\t// out\n        /* \"Deed.sol\":239:263  address public registrar */\n    tag_23:\n      0x0\n      dup1\n      swap1\n      sload\n      swap1\n      0x100\n      exp\n      swap1\n      div\n      0xffffffffffffffffffffffffffffffffffffffff\n      and\n      dup2\n      jump\t// out\n        /* \"Deed.sol\":365:382  uint public value */\n    tag_26:\n      sload(0x4)\n      dup2\n      jump\t// out\n        /* \"Deed.sol\":297:325  address public previousOwner */\n    tag_29:\n      0x2\n      0x0\n      swap1\n      sload\n      swap1\n      0x100\n      exp\n      swap1\n      div\n      0xffffffffffffffffffffffffffffffffffffffff\n      and\n      dup2\n      jump\t// out\n        /* \"Deed.sol\":270:290  address public owner */\n    tag_32:\n      0x1\n      0x0\n      swap1\n      sload\n      swap1\n      0x100\n      exp\n      swap1\n      div\n      0xffffffffffffffffffffffffffffffffffffffff\n      and\n      dup2\n      jump\t// out\n        /* \"Deed.sol\":1226:1565  function setBalance(uint newValue, bool throwOnFailure) public onlyRegistrar onlyActive {\r... */\n    tag_35:\n        /* \"Deed.sol\":537:546  registrar */\n      0x0\n      dup1\n      swap1\n      sload\n      swap1\n      0x100\n      exp\n      swap1\n      div\n      0xffffffffffffffffffffffffffffffffffffffff\n      and\n        /* \"Deed.sol\":523:546  msg.sender == registrar */\n      0xffffffffffffffffffffffffffffffffffffffff\n      and\n        /* \"Deed.sol\":523:533  msg.sender */\n      caller\n        /* \"Deed.sol\":523:546  msg.sender == registrar */\n      0xffffffffffffffffffffffffffffffffffffffff\n      and\n      eq\n        /* \"Deed.sol\":515:547  require(msg.sender == registrar) */\n      iszero\n      iszero\n      tag_50\n      jumpi\n      0x0\n      dup1\n      revert\n    tag_50:\n        /* \"Deed.sol\":614:620  active */\n      0x5\n      0x0\n      swap1\n      sload\n      swap1\n      0x100\n      exp\n      swap1\n      div\n      0xff\n      and\n        /* \"Deed.sol\":606:621  require(active) */\n      iszero\n      iszero\n      tag_52\n      jumpi\n      0x0\n      dup1\n      revert\n    tag_52:\n        /* \"Deed.sol\":1402:1410  newValue */\n      dup2\n        /* \"Deed.sol\":1393:1398  value */\n      sload(0x4)\n        /* \"Deed.sol\":1393:1410  value >= newValue */\n      lt\n      iszero\n        /* \"Deed.sol\":1385:1411  require(value >= newValue) */\n      iszero\n      iszero\n      tag_54\n      jumpi\n      0x0\n      dup1\n      revert\n    tag_54:\n        /* \"Deed.sol\":1430:1438  newValue */\n      dup2\n        /* \"Deed.sol\":1422:1427  value */\n      0x4\n        /* \"Deed.sol\":1422:1438  value = newValue */\n      dup2\n      swap1\n      sstore\n      pop\n        /* \"Deed.sol\":1502:1507  owner */\n      0x1\n      0x0\n      swap1\n      sload\n      swap1\n      0x100\n      exp\n      swap1\n      div\n      0xffffffffffffffffffffffffffffffffffffffff\n      and\n        /* \"Deed.sol\":1502:1512  owner.send */\n      0xffffffffffffffffffffffffffffffffffffffff\n      and\n        /* \"Deed.sol\":1502:1537  owner.send(this.balance - newValue) */\n      0x8fc\n        /* \"Deed.sol\":1528:1536  newValue */\n      dup4\n        /* \"Deed.sol\":1513:1517  this */\n      address\n        /* \"Deed.sol\":1513:1525  this.balance */\n      0xffffffffffffffffffffffffffffffffffffffff\n      and\n      balance\n        /* \"Deed.sol\":1513:1536  this.balance - newValue */\n      sub\n        /* \"Deed.sol\":1502:1537  owner.send(this.balance - newValue) */\n      swap1\n      dup2\n      iszero\n      mul\n      swap1\n      mload(0x40)\n      0x0\n      mload(0x40)\n      dup1\n      dup4\n      sub\n      dup2\n      dup6\n      dup9\n      dup9\n      call\n      swap4\n      pop\n      pop\n      pop\n      pop\n        /* \"Deed.sol\":1502:1556  owner.send(this.balance - newValue) || !throwOnFailure */\n      dup1\n      tag_55\n      jumpi\n      pop\n        /* \"Deed.sol\":1542:1556  throwOnFailure */\n      dup1\n        /* \"Deed.sol\":1541:1556  !throwOnFailure */\n      iszero\n        /* \"Deed.sol\":1502:1556  owner.send(this.balance - newValue) || !throwOnFailure */\n    tag_55:\n        /* \"Deed.sol\":1494:1557  require(owner.send(this.balance - newValue) || !throwOnFailure) */\n      iszero\n      iszero\n      tag_56\n      jumpi\n      0x0\n      dup1\n      revert\n    tag_56:\n        /* \"Deed.sol\":1226:1565  function setBalance(uint newValue, bool throwOnFailure) public onlyRegistrar onlyActive {\r... */\n      pop\n      pop\n      jump\t// out\n        /* \"Deed.sol\":1729:1951  function closeDeed(uint refundRatio) public onlyRegistrar onlyActive {\r... */\n    tag_38:\n        /* \"Deed.sol\":537:546  registrar */\n      0x0\n      dup1\n      swap1\n      sload\n      swap1\n      0x100\n      exp\n      swap1\n      div\n      0xffffffffffffffffffffffffffffffffffffffff\n      and\n        /* \"Deed.sol\":523:546  msg.sender == registrar */\n      0xffffffffffffffffffffffffffffffffffffffff\n      and\n        /* \"Deed.sol\":523:533  msg.sender */\n      caller\n        /* \"Deed.sol\":523:546  msg.sender == registrar */\n      0xffffffffffffffffffffffffffffffffffffffff\n      and\n      eq\n        /* \"Deed.sol\":515:547  require(msg.sender == registrar) */\n      iszero\n      iszero\n      tag_58\n      jumpi\n      0x0\n      dup1\n      revert\n    tag_58:\n        /* \"Deed.sol\":614:620  active */\n      0x5\n      0x0\n      swap1\n      sload\n      swap1\n      0x100\n      exp\n      swap1\n      div\n      0xff\n      and\n        /* \"Deed.sol\":606:621  require(active) */\n      iszero\n      iszero\n      tag_60\n      jumpi\n      0x0\n      dup1\n      revert\n    tag_60:\n        /* \"Deed.sol\":1818:1823  false */\n      0x0\n        /* \"Deed.sol\":1809:1815  active */\n      0x5\n      0x0\n        /* \"Deed.sol\":1809:1823  active = false */\n      0x100\n      exp\n      dup2\n      sload\n      dup2\n      0xff\n      mul\n      not\n      and\n      swap1\n      dup4\n      iszero\n      iszero\n      mul\n      or\n      swap1\n      sstore\n      pop\n        /* \"Deed.sol\":224:230  0xdead */\n      0xdead\n        /* \"Deed.sol\":1842:1851  burn.send */\n      0xffffffffffffffffffffffffffffffffffffffff\n      and\n        /* \"Deed.sol\":1842:1895  burn.send(((1000 - refundRatio) * this.balance)/1000) */\n      0x8fc\n        /* \"Deed.sol\":1890:1894  1000 */\n      0x3e8\n        /* \"Deed.sol\":1876:1880  this */\n      address\n        /* \"Deed.sol\":1876:1888  this.balance */\n      0xffffffffffffffffffffffffffffffffffffffff\n      and\n      balance\n        /* \"Deed.sol\":1861:1872  refundRatio */\n      dup5\n        /* \"Deed.sol\":1854:1858  1000 */\n      0x3e8\n        /* \"Deed.sol\":1854:1872  1000 - refundRatio */\n      sub\n        /* \"Deed.sol\":1853:1888  (1000 - refundRatio) * this.balance */\n      mul\n        /* \"Deed.sol\":1852:1894  ((1000 - refundRatio) * this.balance)/1000 */\n      dup2\n      iszero\n      iszero\n      tag_62\n      jumpi\n      invalid\n    tag_62:\n      div\n        /* \"Deed.sol\":1842:1895  burn.send(((1000 - refundRatio) * this.balance)/1000) */\n      swap1\n      dup2\n      iszero\n      mul\n      swap1\n      mload(0x40)\n      0x0\n      mload(0x40)\n      dup1\n      dup4\n      sub\n      dup2\n      dup6\n      dup9\n      dup9\n      call\n      swap4\n      pop\n      pop\n      pop\n      pop\n        /* \"Deed.sol\":1834:1896  require(burn.send(((1000 - refundRatio) * this.balance)/1000)) */\n      iszero\n      iszero\n      tag_63\n      jumpi\n      0x0\n      dup1\n      revert\n    tag_63:\n        /* \"Deed.sol\":1907:1919  DeedClosed() */\n      0xbb2ce2f51803bba16bc85282b47deeea9a5c6223eabea1077be696b3f265cf13\n      mload(0x40)\n      mload(0x40)\n      dup1\n      swap2\n      sub\n      swap1\n      log1\n        /* \"Deed.sol\":1930:1943  destroyDeed() */\n      tag_64\n        /* \"Deed.sol\":1930:1941  destroyDeed */\n      tag_17\n        /* \"Deed.sol\":1930:1943  destroyDeed() */\n      jump\t// in\n    tag_64:\n        /* \"Deed.sol\":1729:1951  function closeDeed(uint refundRatio) public onlyRegistrar onlyActive {\r... */\n      pop\n      jump\t// out\n        /* \"Deed.sol\":1110:1218  function setRegistrar(address newRegistrar) public onlyRegistrar {\r... */\n    tag_41:\n        /* \"Deed.sol\":537:546  registrar */\n      0x0\n      dup1\n      swap1\n      sload\n      swap1\n      0x100\n      exp\n      swap1\n      div\n      0xffffffffffffffffffffffffffffffffffffffff\n      and\n        /* \"Deed.sol\":523:546  msg.sender == registrar */\n      0xffffffffffffffffffffffffffffffffffffffff\n      and\n        /* \"Deed.sol\":523:533  msg.sender */\n      caller\n        /* \"Deed.sol\":523:546  msg.sender == registrar */\n      0xffffffffffffffffffffffffffffffffffffffff\n      and\n      eq\n        /* \"Deed.sol\":515:547  require(msg.sender == registrar) */\n      iszero\n      iszero\n      tag_66\n      jumpi\n      0x0\n      dup1\n      revert\n    tag_66:\n        /* \"Deed.sol\":1198:1210  newRegistrar */\n      dup1\n        /* \"Deed.sol\":1186:1195  registrar */\n      0x0\n      dup1\n        /* \"Deed.sol\":1186:1210  registrar = newRegistrar */\n      0x100\n      exp\n      dup2\n      sload\n      dup2\n      0xffffffffffffffffffffffffffffffffffffffff\n      mul\n      not\n      and\n      swap1\n      dup4\n      0xffffffffffffffffffffffffffffffffffffffff\n      and\n      mul\n      or\n      swap1\n      sstore\n      pop\n        /* \"Deed.sol\":1110:1218  function setRegistrar(address newRegistrar) public onlyRegistrar {\r... */\n      pop\n      jump\t// out\n\n    auxdata: 0xa165627a7a7230582060cdc5b6293e075ec9579690c49180507c4a636e819f3ca31e7dd886433b2a510029\n}\n",
				"bytecode": {
					"linkReferences": {},
					"object": "60606040526040516020806109748339810160405280805190602001909190505080600160006101000a81548173ffffffffffffffffffffffffffffffffffffffff021916908373ffffffffffffffffffffffffffffffffffffffff160217905550336000806101000a81548173ffffffffffffffffffffffffffffffffffffffff021916908373ffffffffffffffffffffffffffffffffffffffff160217905550426003819055506001600560006101000a81548160ff021916908315150217905550346004819055505061089a806100da6000396000f3006060604052600436106100a4576000357c0100000000000000000000000000000000000000000000000000000000900463ffffffff16806305b34410146100a95780630b5ab3d5146100d257806313af4035146100e75780632b20e397146101205780633fa4f24514610175578063674f220f1461019e5780638da5cb5b146101f3578063b0c8097214610248578063bbe4277114610276578063faab9d3914610299575b600080fd5b34156100b457600080fd5b6100bc6102d2565b6040518082815260200191505060405180910390f35b34156100dd57600080fd5b6100e56102d8565b005b34156100f257600080fd5b61011e600480803573ffffffffffffffffffffffffffffffffffffffff16906020019091905050610384565b005b341561012b57600080fd5b61013361050f565b604051808273ffffffffffffffffffffffffffffffffffffffff1673ffffffffffffffffffffffffffffffffffffffff16815260200191505060405180910390f35b341561018057600080fd5b610188610534565b6040518082815260200191505060405180910390f35b34156101a957600080fd5b6101b161053a565b604051808273ffffffffffffffffffffffffffffffffffffffff1673ffffffffffffffffffffffffffffffffffffffff16815260200191505060405180910390f35b34156101fe57600080fd5b610206610560565b604051808273ffffffffffffffffffffffffffffffffffffffff1673ffffffffffffffffffffffffffffffffffffffff16815260200191505060405180910390f35b341561025357600080fd5b61027460048080359060200190919080351515906020019091905050610586565b005b341561028157600080fd5b610297600480803590602001909190505061069c565b005b34156102a457600080fd5b6102d0600480803573ffffffffffffffffffffffffffffffffffffffff169060200190919050506107d0565b005b60035481565b600560009054906101000a900460ff161515156102f457600080fd5b600160009054906101000a900473ffffffffffffffffffffffffffffffffffffffff1673ffffffffffffffffffffffffffffffffffffffff166108fc3073ffffffffffffffffffffffffffffffffffffffff16319081150290604051600060405180830381858888f19350505050156103825761dead73ffffffffffffffffffffffffffffffffffffffff16ff5b565b6000809054906101000a900473ffffffffffffffffffffffffffffffffffffffff1673ffffffffffffffffffffffffffffffffffffffff163373ffffffffffffffffffffffffffffffffffffffff161415156103df57600080fd5b60008173ffffffffffffffffffffffffffffffffffffffff161415151561040557600080fd5b600160009054906101000a900473ffffffffffffffffffffffffffffffffffffffff16600260006101000a81548173ffffffffffffffffffffffffffffffffffffffff021916908373ffffffffffffffffffffffffffffffffffffffff16021790555080600160006101000a81548173ffffffffffffffffffffffffffffffffffffffff021916908373ffffffffffffffffffffffffffffffffffffffff1602179055507fa2ea9883a321a3e97b8266c2b078bfeec6d50c711ed71f874a90d500ae2eaf3681604051808273ffffffffffffffffffffffffffffffffffffffff1673ffffffffffffffffffffffffffffffffffffffff16815260200191505060405180910390a150565b6000809054906101000a900473ffffffffffffffffffffffffffffffffffffffff1681565b60045481565b600260009054906101000a900473ffffffffffffffffffffffffffffffffffffffff1681565b600160009054906101000a900473ffffffffffffffffffffffffffffffffffffffff1681565b6000809054906101000a900473ffffffffffffffffffffffffffffffffffffffff1673ffffffffffffffffffffffffffffffffffffffff163373ffffffffffffffffffffffffffffffffffffffff161415156105e157600080fd5b600560009054906101000a900460ff1615156105fc57600080fd5b816004541015151561060d57600080fd5b81600481905550600160009054906101000a900473ffffffffffffffffffffffffffffffffffffffff1673ffffffffffffffffffffffffffffffffffffffff166108fc833073ffffffffffffffffffffffffffffffffffffffff1631039081150290604051600060405180830381858888f193505050508061068d575080155b151561069857600080fd5b5050565b6000809054906101000a900473ffffffffffffffffffffffffffffffffffffffff1673ffffffffffffffffffffffffffffffffffffffff163373ffffffffffffffffffffffffffffffffffffffff161415156106f757600080fd5b600560009054906101000a900460ff16151561071257600080fd5b6000600560006101000a81548160ff02191690831515021790555061dead73ffffffffffffffffffffffffffffffffffffffff166108fc6103e83073ffffffffffffffffffffffffffffffffffffffff1631846103e8030281151561077357fe5b049081150290604051600060405180830381858888f19350505050151561079957600080fd5b7fbb2ce2f51803bba16bc85282b47deeea9a5c6223eabea1077be696b3f265cf1360405160405180910390a16107cd6102d8565b50565b6000809054906101000a900473ffffffffffffffffffffffffffffffffffffffff1673ffffffffffffffffffffffffffffffffffffffff163373ffffffffffffffffffffffffffffffffffffffff1614151561082b57600080fd5b806000806101000a81548173ffffffffffffffffffffffffffffffffffffffff021916908373ffffffffffffffffffffffffffffffffffffffff160217905550505600a165627a7a7230582060cdc5b6293e075ec9579690c49180507c4a636e819f3ca31e7dd886433b2a510029",
					"opcodes": "PUSH1 0x60 PUSH1 0x40 MSTORE PUSH1 0x40 MLOAD PUSH1 0x20 DUP1 PUSH2 0x974 DUP4 CODECOPY DUP2 ADD PUSH1 0x40 MSTORE DUP1 DUP1 MLOAD SWAP1 PUSH1 0x20 ADD SWAP1 SWAP2 SWAP1 POP POP DUP1 PUSH1 0x1 PUSH1 0x0 PUSH2 0x100 EXP DUP2 SLOAD DUP2 PUSH20 0xFFFFFFFFFFFFFFFFFFFFFFFFFFFFFFFFFFFFFFFF MUL NOT AND SWAP1 DUP4 PUSH20 0xFFFFFFFFFFFFFFFFFFFFFFFFFFFFFFFFFFFFFFFF AND MUL OR SWAP1 SSTORE POP CALLER PUSH1 0x0 DUP1 PUSH2 0x100 EXP DUP2 SLOAD DUP2 PUSH20 0xFFFFFFFFFFFFFFFFFFFFFFFFFFFFFFFFFFFFFFFF MUL NOT AND SWAP1 DUP4 PUSH20 0xFFFFFFFFFFFFFFFFFFFFFFFFFFFFFFFFFFFFFFFF AND MUL OR SWAP1 SSTORE POP TIMESTAMP PUSH1 0x3 DUP2 SWAP1 SSTORE POP PUSH1 0x1 PUSH1 0x5 PUSH1 0x0 PUSH2 0x100 EXP DUP2 SLOAD DUP2 PUSH1 0xFF MUL NOT AND SWAP1 DUP4 ISZERO ISZERO MUL OR SWAP1 SSTORE POP CALLVALUE PUSH1 0x4 DUP2 SWAP1 SSTORE POP POP PUSH2 0x89A DUP1 PUSH2 0xDA PUSH1 0x0 CODECOPY PUSH1 0x0 RETURN STOP PUSH1 0x60 PUSH1 0x40 MSTORE PUSH1 0x4 CALLDATASIZE LT PUSH2 0xA4 JUMPI PUSH1 0x0 CALLDATALOAD PUSH29 0x100000000000000000000000000000000000000000000000000000000 SWAP1 DIV PUSH4 0xFFFFFFFF AND DUP1 PUSH4 0x5B34410 EQ PUSH2 0xA9 JUMPI DUP1 PUSH4 0xB5AB3D5 EQ PUSH2 0xD2 JUMPI DUP1 PUSH4 0x13AF4035 EQ PUSH2 0xE7 JUMPI DUP1 PUSH4 0x2B20E397 EQ PUSH2 0x120 JUMPI DUP1 PUSH4 0x3FA4F245 EQ PUSH2 0x175 JUMPI DUP1 PUSH4 0x674F220F EQ PUSH2 0x19E JUMPI DUP1 PUSH4 0x8DA5CB5B EQ PUSH2 0x1F3 JUMPI DUP1 PUSH4 0xB0C80972 EQ PUSH2 0x248 JUMPI DUP1 PUSH4 0xBBE42771 EQ PUSH2 0x276 JUMPI DUP1 PUSH4 0xFAAB9D39 EQ PUSH2 0x299 JUMPI JUMPDEST PUSH1 0x0 DUP1 REVERT JUMPDEST CALLVALUE ISZERO PUSH2 0xB4 JUMPI PUSH1 0x0 DUP1 REVERT JUMPDEST PUSH2 0xBC PUSH2 0x2D2 JUMP JUMPDEST PUSH1 0x40 MLOAD DUP1 DUP3 DUP2 MSTORE PUSH1 0x20 ADD SWAP2 POP POP PUSH1 0x40 MLOAD DUP1 SWAP2 SUB SWAP1 RETURN JUMPDEST CALLVALUE ISZERO PUSH2 0xDD JUMPI PUSH1 0x0 DUP1 REVERT JUMPDEST PUSH2 0xE5 PUSH2 0x2D8 JUMP JUMPDEST STOP JUMPDEST CALLVALUE ISZERO PUSH2 0xF2 JUMPI PUSH1 0x0 DUP1 REVERT JUMPDEST PUSH2 0x11E PUSH1 0x4 DUP1 DUP1 CALLDATALOAD PUSH20 0xFFFFFFFFFFFFFFFFFFFFFFFFFFFFFFFFFFFFFFFF AND SWAP1 PUSH1 0x20 ADD SWAP1 SWAP2 SWAP1 POP POP PUSH2 0x384 JUMP JUMPDEST STOP JUMPDEST CALLVALUE ISZERO PUSH2 0x12B JUMPI PUSH1 0x0 DUP1 REVERT JUMPDEST PUSH2 0x133 PUSH2 0x50F JUMP JUMPDEST PUSH1 0x40 MLOAD DUP1 DUP3 PUSH20 0xFFFFFFFFFFFFFFFFFFFFFFFFFFFFFFFFFFFFFFFF AND PUSH20 0xFFFFFFFFFFFFFFFFFFFFFFFFFFFFFFFFFFFFFFFF AND DUP2 MSTORE PUSH1 0x20 ADD SWAP2 POP POP PUSH1 0x40 MLOAD DUP1 SWAP2 SUB SWAP1 RETURN JUMPDEST CALLVALUE ISZERO PUSH2 0x180 JUMPI PUSH1 0x0 DUP1 REVERT JUMPDEST PUSH2 0x188 PUSH2 0x534 JUMP JUMPDEST PUSH1 0x40 MLOAD DUP1 DUP3 DUP2 MSTORE PUSH1 0x20 ADD SWAP2 POP POP PUSH1 0x40 MLOAD DUP1 SWAP2 SUB SWAP1 RETURN JUMPDEST CALLVALUE ISZERO PUSH2 0x1A9 JUMPI PUSH1 0x0 DUP1 REVERT JUMPDEST PUSH2 0x1B1 PUSH2 0x53A JUMP JUMPDEST PUSH1 0x40 MLOAD DUP1 DUP3 PUSH20 0xFFFFFFFFFFFFFFFFFFFFFFFFFFFFFFFFFFFFFFFF AND PUSH20 0xFFFFFFFFFFFFFFFFFFFFFFFFFFFFFFFFFFFFFFFF AND DUP2 MSTORE PUSH1 0x20 ADD SWAP2 POP POP PUSH1 0x40 MLOAD DUP1 SWAP2 SUB SWAP1 RETURN JUMPDEST CALLVALUE ISZERO PUSH2 0x1FE JUMPI PUSH1 0x0 DUP1 REVERT JUMPDEST PUSH2 0x206 PUSH2 0x560 JUMP JUMPDEST PUSH1 0x40 MLOAD DUP1 DUP3 PUSH20 0xFFFFFFFFFFFFFFFFFFFFFFFFFFFFFFFFFFFFFFFF AND PUSH20 0xFFFFFFFFFFFFFFFFFFFFFFFFFFFFFFFFFFFFFFFF AND DUP2 MSTORE PUSH1 0x20 ADD SWAP2 POP POP PUSH1 0x40 MLOAD DUP1 SWAP2 SUB SWAP1 RETURN JUMPDEST CALLVALUE ISZERO PUSH2 0x253 JUMPI PUSH1 0x0 DUP1 REVERT JUMPDEST PUSH2 0x274 PUSH1 0x4 DUP1 DUP1 CALLDATALOAD SWAP1 PUSH1 0x20 ADD SWAP1 SWAP2 SWAP1 DUP1 CALLDATALOAD ISZERO ISZERO SWAP1 PUSH1 0x20 ADD SWAP1 SWAP2 SWAP1 POP POP PUSH2 0x586 JUMP JUMPDEST STOP JUMPDEST CALLVALUE ISZERO PUSH2 0x281 JUMPI PUSH1 0x0 DUP1 REVERT JUMPDEST PUSH2 0x297 PUSH1 0x4 DUP1 DUP1 CALLDATALOAD SWAP1 PUSH1 0x20 ADD SWAP1 SWAP2 SWAP1 POP POP PUSH2 0x69C JUMP JUMPDEST STOP JUMPDEST CALLVALUE ISZERO PUSH2 0x2A4 JUMPI PUSH1 0x0 DUP1 REVERT JUMPDEST PUSH2 0x2D0 PUSH1 0x4 DUP1 DUP1 CALLDATALOAD PUSH20 0xFFFFFFFFFFFFFFFFFFFFFFFFFFFFFFFFFFFFFFFF AND SWAP1 PUSH1 0x20 ADD SWAP1 SWAP2 SWAP1 POP POP PUSH2 0x7D0 JUMP JUMPDEST STOP JUMPDEST PUSH1 0x3 SLOAD DUP2 JUMP JUMPDEST PUSH1 0x5 PUSH1 0x0 SWAP1 SLOAD SWAP1 PUSH2 0x100 EXP SWAP1 DIV PUSH1 0xFF AND ISZERO ISZERO ISZERO PUSH2 0x2F4 JUMPI PUSH1 0x0 DUP1 REVERT JUMPDEST PUSH1 0x1 PUSH1 0x0 SWAP1 SLOAD SWAP1 PUSH2 0x100 EXP SWAP1 DIV PUSH20 0xFFFFFFFFFFFFFFFFFFFFFFFFFFFFFFFFFFFFFFFF AND PUSH20 0xFFFFFFFFFFFFFFFFFFFFFFFFFFFFFFFFFFFFFFFF AND PUSH2 0x8FC ADDRESS PUSH20 0xFFFFFFFFFFFFFFFFFFFFFFFFFFFFFFFFFFFFFFFF AND BALANCE SWAP1 DUP2 ISZERO MUL SWAP1 PUSH1 0x40 MLOAD PUSH1 0x0 PUSH1 0x40 MLOAD DUP1 DUP4 SUB DUP2 DUP6 DUP9 DUP9 CALL SWAP4 POP POP POP POP ISZERO PUSH2 0x382 JUMPI PUSH2 0xDEAD PUSH20 0xFFFFFFFFFFFFFFFFFFFFFFFFFFFFFFFFFFFFFFFF AND SELFDESTRUCT JUMPDEST JUMP JUMPDEST PUSH1 0x0 DUP1 SWAP1 SLOAD SWAP1 PUSH2 0x100 EXP SWAP1 DIV PUSH20 0xFFFFFFFFFFFFFFFFFFFFFFFFFFFFFFFFFFFFFFFF AND PUSH20 0xFFFFFFFFFFFFFFFFFFFFFFFFFFFFFFFFFFFFFFFF AND CALLER PUSH20 0xFFFFFFFFFFFFFFFFFFFFFFFFFFFFFFFFFFFFFFFF AND EQ ISZERO ISZERO PUSH2 0x3DF JUMPI PUSH1 0x0 DUP1 REVERT JUMPDEST PUSH1 0x0 DUP2 PUSH20 0xFFFFFFFFFFFFFFFFFFFFFFFFFFFFFFFFFFFFFFFF AND EQ ISZERO ISZERO ISZERO PUSH2 0x405 JUMPI PUSH1 0x0 DUP1 REVERT JUMPDEST PUSH1 0x1 PUSH1 0x0 SWAP1 SLOAD SWAP1 PUSH2 0x100 EXP SWAP1 DIV PUSH20 0xFFFFFFFFFFFFFFFFFFFFFFFFFFFFFFFFFFFFFFFF AND PUSH1 0x2 PUSH1 0x0 PUSH2 0x100 EXP DUP2 SLOAD DUP2 PUSH20 0xFFFFFFFFFFFFFFFFFFFFFFFFFFFFFFFFFFFFFFFF MUL NOT AND SWAP1 DUP4 PUSH20 0xFFFFFFFFFFFFFFFFFFFFFFFFFFFFFFFFFFFFFFFF AND MUL OR SWAP1 SSTORE POP DUP1 PUSH1 0x1 PUSH1 0x0 PUSH2 0x100 EXP DUP2 SLOAD DUP2 PUSH20 0xFFFFFFFFFFFFFFFFFFFFFFFFFFFFFFFFFFFFFFFF MUL NOT AND SWAP1 DUP4 PUSH20 0xFFFFFFFFFFFFFFFFFFFFFFFFFFFFFFFFFFFFFFFF AND MUL OR SWAP1 SSTORE POP PUSH32 0xA2EA9883A321A3E97B8266C2B078BFEEC6D50C711ED71F874A90D500AE2EAF36 DUP2 PUSH1 0x40 MLOAD DUP1 DUP3 PUSH20 0xFFFFFFFFFFFFFFFFFFFFFFFFFFFFFFFFFFFFFFFF AND PUSH20 0xFFFFFFFFFFFFFFFFFFFFFFFFFFFFFFFFFFFFFFFF AND DUP2 MSTORE PUSH1 0x20 ADD SWAP2 POP POP PUSH1 0x40 MLOAD DUP1 SWAP2 SUB SWAP1 LOG1 POP JUMP JUMPDEST PUSH1 0x0 DUP1 SWAP1 SLOAD SWAP1 PUSH2 0x100 EXP SWAP1 DIV PUSH20 0xFFFFFFFFFFFFFFFFFFFFFFFFFFFFFFFFFFFFFFFF AND DUP2 JUMP JUMPDEST PUSH1 0x4 SLOAD DUP2 JUMP JUMPDEST PUSH1 0x2 PUSH1 0x0 SWAP1 SLOAD SWAP1 PUSH2 0x100 EXP SWAP1 DIV PUSH20 0xFFFFFFFFFFFFFFFFFFFFFFFFFFFFFFFFFFFFFFFF AND DUP2 JUMP JUMPDEST PUSH1 0x1 PUSH1 0x0 SWAP1 SLOAD SWAP1 PUSH2 0x100 EXP SWAP1 DIV PUSH20 0xFFFFFFFFFFFFFFFFFFFFFFFFFFFFFFFFFFFFFFFF AND DUP2 JUMP JUMPDEST PUSH1 0x0 DUP1 SWAP1 SLOAD SWAP1 PUSH2 0x100 EXP SWAP1 DIV PUSH20 0xFFFFFFFFFFFFFFFFFFFFFFFFFFFFFFFFFFFFFFFF AND PUSH20 0xFFFFFFFFFFFFFFFFFFFFFFFFFFFFFFFFFFFFFFFF AND CALLER PUSH20 0xFFFFFFFFFFFFFFFFFFFFFFFFFFFFFFFFFFFFFFFF AND EQ ISZERO ISZERO PUSH2 0x5E1 JUMPI PUSH1 0x0 DUP1 REVERT JUMPDEST PUSH1 0x5 PUSH1 0x0 SWAP1 SLOAD SWAP1 PUSH2 0x100 EXP SWAP1 DIV PUSH1 0xFF AND ISZERO ISZERO PUSH2 0x5FC JUMPI PUSH1 0x0 DUP1 REVERT JUMPDEST DUP2 PUSH1 0x4 SLOAD LT ISZERO ISZERO ISZERO PUSH2 0x60D JUMPI PUSH1 0x0 DUP1 REVERT JUMPDEST DUP2 PUSH1 0x4 DUP2 SWAP1 SSTORE POP PUSH1 0x1 PUSH1 0x0 SWAP1 SLOAD SWAP1 PUSH2 0x100 EXP SWAP1 DIV PUSH20 0xFFFFFFFFFFFFFFFFFFFFFFFFFFFFFFFFFFFFFFFF AND PUSH20 0xFFFFFFFFFFFFFFFFFFFFFFFFFFFFFFFFFFFFFFFF AND PUSH2 0x8FC DUP4 ADDRESS PUSH20 0xFFFFFFFFFFFFFFFFFFFFFFFFFFFFFFFFFFFFFFFF AND BALANCE SUB SWAP1 DUP2 ISZERO MUL SWAP1 PUSH1 0x40 MLOAD PUSH1 0x0 PUSH1 0x40 MLOAD DUP1 DUP4 SUB DUP2 DUP6 DUP9 DUP9 CALL SWAP4 POP POP POP POP DUP1 PUSH2 0x68D JUMPI POP DUP1 ISZERO JUMPDEST ISZERO ISZERO PUSH2 0x698 JUMPI PUSH1 0x0 DUP1 REVERT JUMPDEST POP POP JUMP JUMPDEST PUSH1 0x0 DUP1 SWAP1 SLOAD SWAP1 PUSH2 0x100 EXP SWAP1 DIV PUSH20 0xFFFFFFFFFFFFFFFFFFFFFFFFFFFFFFFFFFFFFFFF AND PUSH20 0xFFFFFFFFFFFFFFFFFFFFFFFFFFFFFFFFFFFFFFFF AND CALLER PUSH20 0xFFFFFFFFFFFFFFFFFFFFFFFFFFFFFFFFFFFFFFFF AND EQ ISZERO ISZERO PUSH2 0x6F7 JUMPI PUSH1 0x0 DUP1 REVERT JUMPDEST PUSH1 0x5 PUSH1 0x0 SWAP1 SLOAD SWAP1 PUSH2 0x100 EXP SWAP1 DIV PUSH1 0xFF AND ISZERO ISZERO PUSH2 0x712 JUMPI PUSH1 0x0 DUP1 REVERT JUMPDEST PUSH1 0x0 PUSH1 0x5 PUSH1 0x0 PUSH2 0x100 EXP DUP2 SLOAD DUP2 PUSH1 0xFF MUL NOT AND SWAP1 DUP4 ISZERO ISZERO MUL OR SWAP1 SSTORE POP PUSH2 0xDEAD PUSH20 0xFFFFFFFFFFFFFFFFFFFFFFFFFFFFFFFFFFFFFFFF AND PUSH2 0x8FC PUSH2 0x3E8 ADDRESS PUSH20 0xFFFFFFFFFFFFFFFFFFFFFFFFFFFFFFFFFFFFFFFF AND BALANCE DUP5 PUSH2 0x3E8 SUB MUL DUP2 ISZERO ISZERO PUSH2 0x773 JUMPI INVALID JUMPDEST DIV SWAP1 DUP2 ISZERO MUL SWAP1 PUSH1 0x40 MLOAD PUSH1 0x0 PUSH1 0x40 MLOAD DUP1 DUP4 SUB DUP2 DUP6 DUP9 DUP9 CALL SWAP4 POP POP POP POP ISZERO ISZERO PUSH2 0x799 JUMPI PUSH1 0x0 DUP1 REVERT JUMPDEST PUSH32 0xBB2CE2F51803BBA16BC85282B47DEEEA9A5C6223EABEA1077BE696B3F265CF13 PUSH1 0x40 MLOAD PUSH1 0x40 MLOAD DUP1 SWAP2 SUB SWAP1 LOG1 PUSH2 0x7CD PUSH2 0x2D8 JUMP JUMPDEST POP JUMP JUMPDEST PUSH1 0x0 DUP1 SWAP1 SLOAD SWAP1 PUSH2 0x100 EXP SWAP1 DIV PUSH20 0xFFFFFFFFFFFFFFFFFFFFFFFFFFFFFFFFFFFFFFFF AND PUSH20 0xFFFFFFFFFFFFFFFFFFFFFFFFFFFFFFFFFFFFFFFF AND CALLER PUSH20 0xFFFFFFFFFFFFFFFFFFFFFFFFFFFFFFFFFFFFFFFF AND EQ ISZERO ISZERO PUSH2 0x82B JUMPI PUSH1 0x0 DUP1 REVERT JUMPDEST DUP1 PUSH1 0x0 DUP1 PUSH2 0x100 EXP DUP2 SLOAD DUP2 PUSH20 0xFFFFFFFFFFFFFFFFFFFFFFFFFFFFFFFFFFFFFFFF MUL NOT AND SWAP1 DUP4 PUSH20 0xFFFFFFFFFFFFFFFFFFFFFFFFFFFFFFFFFFFFFFFF AND MUL OR SWAP1 SSTORE POP POP JUMP STOP LOG1 PUSH6 0x627A7A723058 KECCAK256 PUSH1 0xCD 0xc5 0xb6 0x29 RETURNDATACOPY SMOD 0x5e 0xc9 JUMPI SWAP7 SWAP1 0xc4 SWAP2 DUP1 POP PUSH29 0x4A636E819F3CA31E7DD886433B2A510029000000000000000000000000 "
				},
				"gasEstimates": {
					"creation": {
						"codeDepositCost": "440400",
						"executionCost": "101345",
						"totalCost": "541745"
					},
					"external": {
						"closeDeed(uint256)": "infinite",
						"creationDate()": "386",
						"destroyDeed()": "infinite",
						"owner()": "566",
						"previousOwner()": "544",
						"registrar()": "500",
						"setBalance(uint256,bool)": "infinite",
						"setOwner(address)": "42374",
						"setRegistrar(address)": "20911",
						"value()": "474"
					}
				},
				"methodIdentifiers": {
					"closeDeed(uint256)": "bbe42771",
					"creationDate()": "05b34410",
					"destroyDeed()": "0b5ab3d5",
					"owner()": "8da5cb5b",
					"previousOwner()": "674f220f",
					"registrar()": "2b20e397",
					"setBalance(uint256,bool)": "b0c80972",
					"setOwner(address)": "13af4035",
					"setRegistrar(address)": "faab9d39",
					"value()": "3fa4f245"
				}
			},
			"userdoc": {
				"methods": {}
			}
		}
	}
}