{
	"Citib.sol": {
		"GlobalDebtCancellationFund": {
			"abi": [
				{
					"inputs": [],
					"stateMutability": "nonpayable",
					"type": "constructor"
				},
				{
					"anonymous": false,
					"inputs": [
						{
							"indexed": true,
							"internalType": "address",
							"name": "contributor",
							"type": "address"
						},
						{
							"indexed": false,
							"internalType": "uint256",
							"name": "amount",
							"type": "uint256"
						}
					],
					"name": "ContributionReceived",
					"type": "event"
				},
				{
					"anonymous": false,
					"inputs": [
						{
							"indexed": false,
							"internalType": "uint256",
							"name": "amountCancelled",
							"type": "uint256"
						}
					],
					"name": "DebtCancelled",
					"type": "event"
				},
				{
					"anonymous": false,
					"inputs": [
						{
							"indexed": false,
							"internalType": "uint256",
							"name": "amount",
							"type": "uint256"
						}
					],
					"name": "FundTransferredToCitibankchain",
					"type": "event"
				},
				{
					"inputs": [
						{
							"internalType": "uint256",
							"name": "_amount",
							"type": "uint256"
						}
					],
					"name": "cancelGlobalDebt",
					"outputs": [],
					"stateMutability": "nonpayable",
					"type": "function"
				},
				{
					"inputs": [],
					"name": "fundBalance",
					"outputs": [
						{
							"internalType": "uint256",
							"name": "",
							"type": "uint256"
						}
					],
					"stateMutability": "view",
					"type": "function"
				},
				{
					"inputs": [],
					"name": "getFundBalance",
					"outputs": [
						{
							"internalType": "uint256",
							"name": "",
							"type": "uint256"
						}
					],
					"stateMutability": "view",
					"type": "function"
				},
				{
					"inputs": [],
					"name": "owner",
					"outputs": [
						{
							"internalType": "address",
							"name": "",
							"type": "address"
						}
					],
					"stateMutability": "view",
					"type": "function"
				},
				{
					"inputs": [
						{
							"internalType": "uint256",
							"name": "_amount",
							"type": "uint256"
						}
					],
					"name": "transferFundsToCitibankchain",
					"outputs": [],
					"stateMutability": "nonpayable",
					"type": "function"
				},
				{
					"stateMutability": "payable",
					"type": "receive"
				}
			],
			"devdoc": {
				"kind": "dev",
				"methods": {},
				"version": 1
			},
			"evm": {
				"assembly": "    /* \"Citib.sol\":60:1497  contract GlobalDebtCancellationFund {... */\n  mstore(0x40, 0x80)\n    /* \"Citib.sol\":159:160  0 */\n  0x00\n    /* \"Citib.sol\":130:160  uint256 public fundBalance = 0 */\n  0x01\n  sstore\n    /* \"Citib.sol\":588:639  constructor() {... */\n  callvalue\n  dup1\n  iszero\n  tag_1\n  jumpi\n  0x00\n  dup1\n  revert\ntag_1:\n  pop\n    /* \"Citib.sol\":621:631  msg.sender */\n  caller\n    /* \"Citib.sol\":613:618  owner */\n  0x00\n  dup1\n    /* \"Citib.sol\":613:631  owner = msg.sender */\n  0x0100\n  exp\n  dup2\n  sload\n  dup2\n  0xffffffffffffffffffffffffffffffffffffffff\n  mul\n  not\n  and\n  swap1\n  dup4\n  0xffffffffffffffffffffffffffffffffffffffff\n  and\n  mul\n  or\n  swap1\n  sstore\n  pop\n    /* \"Citib.sol\":60:1497  contract GlobalDebtCancellationFund {... */\n  dataSize(sub_0)\n  dup1\n  dataOffset(sub_0)\n  0x00\n  codecopy\n  0x00\n  return\nstop\n\nsub_0: assembly {\n        /* \"Citib.sol\":60:1497  contract GlobalDebtCancellationFund {... */\n      mstore(0x40, 0x80)\n      jumpi(tag_1, lt(calldatasize, 0x04))\n      shr(0xe0, calldataload(0x00))\n      dup1\n      0x3c067945\n      eq\n      tag_3\n      jumpi\n      dup1\n      0x61324da2\n      eq\n      tag_4\n      jumpi\n      dup1\n      0x8da5cb5b\n      eq\n      tag_5\n      jumpi\n      dup1\n      0xcdfbc5a9\n      eq\n      tag_6\n      jumpi\n      dup1\n      0xdae9e379\n      eq\n      tag_7\n      jumpi\n      jump(tag_2)\n    tag_1:\n      jumpi(tag_2, calldatasize)\n        /* \"Citib.sol\":700:709  msg.value */\n      callvalue\n        /* \"Citib.sol\":685:696  fundBalance */\n      0x01\n      0x00\n        /* \"Citib.sol\":685:709  fundBalance += msg.value */\n      dup3\n      dup3\n      sload\n      tag_10\n      swap2\n      swap1\n      tag_11\n      jump\t// in\n    tag_10:\n      swap3\n      pop\n      pop\n      dup2\n      swap1\n      sstore\n      pop\n        /* \"Citib.sol\":746:756  msg.sender */\n      caller\n        /* \"Citib.sol\":725:768  ContributionReceived(msg.sender, msg.value) */\n      0xffffffffffffffffffffffffffffffffffffffff\n      and\n      0x1bb460ccaaf70fbacfec17a376f8acbd278c1405590ffcc8ebe4b88daf4f64ad\n        /* \"Citib.sol\":758:767  msg.value */\n      callvalue\n        /* \"Citib.sol\":725:768  ContributionReceived(msg.sender, msg.value) */\n      mload(0x40)\n      tag_12\n      swap2\n      swap1\n      tag_13\n      jump\t// in\n    tag_12:\n      mload(0x40)\n      dup1\n      swap2\n      sub\n      swap1\n      log2\n        /* \"Citib.sol\":60:1497  contract GlobalDebtCancellationFund {... */\n      stop\n    tag_2:\n      0x00\n      dup1\n      revert\n        /* \"Citib.sol\":130:160  uint256 public fundBalance = 0 */\n    tag_3:\n      callvalue\n      dup1\n      iszero\n      tag_14\n      jumpi\n      0x00\n      dup1\n      revert\n    tag_14:\n      pop\n      tag_15\n      tag_16\n      jump\t// in\n    tag_15:\n      mload(0x40)\n      tag_17\n      swap2\n      swap1\n      tag_13\n      jump\t// in\n    tag_17:\n      mload(0x40)\n      dup1\n      swap2\n      sub\n      swap1\n      return\n        /* \"Citib.sol\":784:1009  function cancelGlobalDebt(uint256 _amount) external onlyOwner {... */\n    tag_4:\n      callvalue\n      dup1\n      iszero\n      tag_18\n      jumpi\n      0x00\n      dup1\n      revert\n    tag_18:\n      pop\n      tag_19\n      0x04\n      dup1\n      calldatasize\n      sub\n      dup2\n      add\n      swap1\n      tag_20\n      swap2\n      swap1\n      tag_21\n      jump\t// in\n    tag_20:\n      tag_22\n      jump\t// in\n    tag_19:\n      stop\n        /* \"Citib.sol\":103:123  address public owner */\n    tag_5:\n      callvalue\n      dup1\n      iszero\n      tag_23\n      jumpi\n      0x00\n      dup1\n      revert\n    tag_23:\n      pop\n      tag_24\n      tag_25\n      jump\t// in\n    tag_24:\n      mload(0x40)\n      tag_26\n      swap2\n      swap1\n      tag_27\n      jump\t// in\n    tag_26:\n      mload(0x40)\n      dup1\n      swap2\n      sub\n      swap1\n      return\n        /* \"Citib.sol\":1017:1393  function transferFundsToCitibankchain(uint256 _amount) external onlyOwner {... */\n    tag_6:\n      callvalue\n      dup1\n      iszero\n      tag_28\n      jumpi\n      0x00\n      dup1\n      revert\n    tag_28:\n      pop\n      tag_29\n      0x04\n      dup1\n      calldatasize\n      sub\n      dup2\n      add\n      swap1\n      tag_30\n      swap2\n      swap1\n      tag_21\n      jump\t// in\n    tag_30:\n      tag_31\n      jump\t// in\n    tag_29:\n      stop\n        /* \"Citib.sol\":1401:1494  function getFundBalance() public view returns (uint256) {... */\n    tag_7:\n      callvalue\n      dup1\n      iszero\n      tag_32\n      jumpi\n      0x00\n      dup1\n      revert\n    tag_32:\n      pop\n      tag_33\n      tag_34\n      jump\t// in\n    tag_33:\n      mload(0x40)\n      tag_35\n      swap2\n      swap1\n      tag_13\n      jump\t// in\n    tag_35:\n      mload(0x40)\n      dup1\n      swap2\n      sub\n      swap1\n      return\n        /* \"Citib.sol\":130:160  uint256 public fundBalance = 0 */\n    tag_16:\n      sload(0x01)\n      dup2\n      jump\t// out\n        /* \"Citib.sol\":784:1009  function cancelGlobalDebt(uint256 _amount) external onlyOwner {... */\n    tag_22:\n        /* \"Citib.sol\":511:516  owner */\n      0x00\n      dup1\n      sload\n      swap1\n      0x0100\n      exp\n      swap1\n      div\n      0xffffffffffffffffffffffffffffffffffffffff\n      and\n        /* \"Citib.sol\":497:516  msg.sender == owner */\n      0xffffffffffffffffffffffffffffffffffffffff\n      and\n        /* \"Citib.sol\":497:507  msg.sender */\n      caller\n        /* \"Citib.sol\":497:516  msg.sender == owner */\n      0xffffffffffffffffffffffffffffffffffffffff\n      and\n      eq\n        /* \"Citib.sol\":489:560  require(msg.sender == owner, \"Only the owner can perform this action.\") */\n      tag_37\n      jumpi\n      mload(0x40)\n      0x08c379a000000000000000000000000000000000000000000000000000000000\n      dup2\n      mstore\n      0x04\n      add\n      tag_38\n      swap1\n      tag_39\n      jump\t// in\n    tag_38:\n      mload(0x40)\n      dup1\n      swap2\n      sub\n      swap1\n      revert\n    tag_37:\n        /* \"Citib.sol\":876:887  fundBalance */\n      sload(0x01)\n        /* \"Citib.sol\":865:872  _amount */\n      dup2\n        /* \"Citib.sol\":865:887  _amount <= fundBalance */\n      gt\n      iszero\n        /* \"Citib.sol\":857:930  require(_amount <= fundBalance, \"Insufficient funds for this operation.\") */\n      tag_41\n      jumpi\n      mload(0x40)\n      0x08c379a000000000000000000000000000000000000000000000000000000000\n      dup2\n      mstore\n      0x04\n      add\n      tag_42\n      swap1\n      tag_43\n      jump\t// in\n    tag_42:\n      mload(0x40)\n      dup1\n      swap2\n      sub\n      swap1\n      revert\n    tag_41:\n        /* \"Citib.sol\":956:963  _amount */\n      dup1\n        /* \"Citib.sol\":941:952  fundBalance */\n      0x01\n      0x00\n        /* \"Citib.sol\":941:963  fundBalance -= _amount */\n      dup3\n      dup3\n      sload\n      tag_44\n      swap2\n      swap1\n      tag_45\n      jump\t// in\n    tag_44:\n      swap3\n      pop\n      pop\n      dup2\n      swap1\n      sstore\n      pop\n        /* \"Citib.sol\":979:1001  DebtCancelled(_amount) */\n      0x8b647e474fa90bb17f05e8986032c988bb1215b542fe2272c0917832bad3b06c\n        /* \"Citib.sol\":993:1000  _amount */\n      dup2\n        /* \"Citib.sol\":979:1001  DebtCancelled(_amount) */\n      mload(0x40)\n      tag_46\n      swap2\n      swap1\n      tag_13\n      jump\t// in\n    tag_46:\n      mload(0x40)\n      dup1\n      swap2\n      sub\n      swap1\n      log1\n        /* \"Citib.sol\":784:1009  function cancelGlobalDebt(uint256 _amount) external onlyOwner {... */\n      pop\n      jump\t// out\n        /* \"Citib.sol\":103:123  address public owner */\n    tag_25:\n      0x00\n      dup1\n      sload\n      swap1\n      0x0100\n      exp\n      swap1\n      div\n      0xffffffffffffffffffffffffffffffffffffffff\n      and\n      dup2\n      jump\t// out\n        /* \"Citib.sol\":1017:1393  function transferFundsToCitibankchain(uint256 _amount) external onlyOwner {... */\n    tag_31:\n        /* \"Citib.sol\":511:516  owner */\n      0x00\n      dup1\n      sload\n      swap1\n      0x0100\n      exp\n      swap1\n      div\n      0xffffffffffffffffffffffffffffffffffffffff\n      and\n        /* \"Citib.sol\":497:516  msg.sender == owner */\n      0xffffffffffffffffffffffffffffffffffffffff\n      and\n        /* \"Citib.sol\":497:507  msg.sender */\n      caller\n        /* \"Citib.sol\":497:516  msg.sender == owner */\n      0xffffffffffffffffffffffffffffffffffffffff\n      and\n      eq\n        /* \"Citib.sol\":489:560  require(msg.sender == owner, \"Only the owner can perform this action.\") */\n      tag_48\n      jumpi\n      mload(0x40)\n      0x08c379a000000000000000000000000000000000000000000000000000000000\n      dup2\n      mstore\n      0x04\n      add\n      tag_49\n      swap1\n      tag_39\n      jump\t// in\n    tag_49:\n      mload(0x40)\n      dup1\n      swap2\n      sub\n      swap1\n      revert\n    tag_48:\n        /* \"Citib.sol\":1121:1132  fundBalance */\n      sload(0x01)\n        /* \"Citib.sol\":1110:1117  _amount */\n      dup2\n        /* \"Citib.sol\":1110:1132  _amount <= fundBalance */\n      gt\n      iszero\n        /* \"Citib.sol\":1102:1174  require(_amount <= fundBalance, \"Insufficient funds for this transfer.\") */\n      tag_51\n      jumpi\n      mload(0x40)\n      0x08c379a000000000000000000000000000000000000000000000000000000000\n      dup2\n      mstore\n      0x04\n      add\n      tag_52\n      swap1\n      tag_53\n      jump\t// in\n    tag_52:\n      mload(0x40)\n      dup1\n      swap2\n      sub\n      swap1\n      revert\n    tag_51:\n        /* \"Citib.sol\":1200:1207  _amount */\n      dup1\n        /* \"Citib.sol\":1185:1196  fundBalance */\n      0x01\n      0x00\n        /* \"Citib.sol\":1185:1207  fundBalance -= _amount */\n      dup3\n      dup3\n      sload\n      tag_54\n      swap2\n      swap1\n      tag_45\n      jump\t// in\n    tag_54:\n      swap3\n      pop\n      pop\n      dup2\n      swap1\n      sstore\n      pop\n        /* \"Citib.sol\":1219:1231  bool success */\n      0x00\n        /* \"Citib.sol\":216:258  0x00000000219ab540356cBB839Cbe05303d7705Fa */\n      0x219ab540356cbb839cbe05303d7705fa\n        /* \"Citib.sol\":1237:1263  CITIBANKCHAIN_ADDRESS.call */\n      0xffffffffffffffffffffffffffffffffffffffff\n      and\n        /* \"Citib.sol\":1271:1278  _amount */\n      dup3\n        /* \"Citib.sol\":1237:1283  CITIBANKCHAIN_ADDRESS.call{value: _amount}(\"\") */\n      mload(0x40)\n      tag_55\n      swap1\n      tag_56\n      jump\t// in\n    tag_55:\n      0x00\n      mload(0x40)\n      dup1\n      dup4\n      sub\n      dup2\n      dup6\n      dup8\n      gas\n      call\n      swap3\n      pop\n      pop\n      pop\n      returndatasize\n      dup1\n      0x00\n      dup2\n      eq\n      tag_59\n      jumpi\n      mload(0x40)\n      swap2\n      pop\n      and(add(returndatasize, 0x3f), not(0x1f))\n      dup3\n      add\n      0x40\n      mstore\n      returndatasize\n      dup3\n      mstore\n      returndatasize\n      0x00\n      0x20\n      dup5\n      add\n      returndatacopy\n      jump(tag_58)\n    tag_59:\n      0x60\n      swap2\n      pop\n    tag_58:\n      pop\n        /* \"Citib.sol\":1218:1283  (bool success, ) = CITIBANKCHAIN_ADDRESS.call{value: _amount}(\"\") */\n      pop\n      swap1\n      pop\n        /* \"Citib.sol\":1302:1309  success */\n      dup1\n        /* \"Citib.sol\":1294:1330  require(success, \"Transfer failed.\") */\n      tag_60\n      jumpi\n      mload(0x40)\n      0x08c379a000000000000000000000000000000000000000000000000000000000\n      dup2\n      mstore\n      0x04\n      add\n      tag_61\n      swap1\n      tag_62\n      jump\t// in\n    tag_61:\n      mload(0x40)\n      dup1\n      swap2\n      sub\n      swap1\n      revert\n    tag_60:\n        /* \"Citib.sol\":1346:1385  FundTransferredToCitibankchain(_amount) */\n      0xfe1d7aa135ba43977883640bdb1ecc7bca346a58ccc4da3805e631bc3f25d74d\n        /* \"Citib.sol\":1377:1384  _amount */\n      dup3\n        /* \"Citib.sol\":1346:1385  FundTransferredToCitibankchain(_amount) */\n      mload(0x40)\n      tag_63\n      swap2\n      swap1\n      tag_13\n      jump\t// in\n    tag_63:\n      mload(0x40)\n      dup1\n      swap2\n      sub\n      swap1\n      log1\n        /* \"Citib.sol\":1091:1393  {... */\n      pop\n        /* \"Citib.sol\":1017:1393  function transferFundsToCitibankchain(uint256 _amount) external onlyOwner {... */\n      pop\n      jump\t// out\n        /* \"Citib.sol\":1401:1494  function getFundBalance() public view returns (uint256) {... */\n    tag_34:\n        /* \"Citib.sol\":1448:1455  uint256 */\n      0x00\n        /* \"Citib.sol\":1475:1486  fundBalance */\n      sload(0x01)\n        /* \"Citib.sol\":1468:1486  return fundBalance */\n      swap1\n      pop\n        /* \"Citib.sol\":1401:1494  function getFundBalance() public view returns (uint256) {... */\n      swap1\n      jump\t// out\n        /* \"#utility.yul\":7:84   */\n    tag_65:\n        /* \"#utility.yul\":44:51   */\n      0x00\n        /* \"#utility.yul\":73:78   */\n      dup2\n        /* \"#utility.yul\":62:78   */\n      swap1\n      pop\n        /* \"#utility.yul\":7:84   */\n      swap2\n      swap1\n      pop\n      jump\t// out\n        /* \"#utility.yul\":90:270   */\n    tag_66:\n        /* \"#utility.yul\":138:215   */\n      0x4e487b7100000000000000000000000000000000000000000000000000000000\n        /* \"#utility.yul\":135:136   */\n      0x00\n        /* \"#utility.yul\":128:216   */\n      mstore\n        /* \"#utility.yul\":235:239   */\n      0x11\n        /* \"#utility.yul\":232:233   */\n      0x04\n        /* \"#utility.yul\":225:240   */\n      mstore\n        /* \"#utility.yul\":259:263   */\n      0x24\n        /* \"#utility.yul\":256:257   */\n      0x00\n        /* \"#utility.yul\":249:264   */\n      revert\n        /* \"#utility.yul\":276:467   */\n    tag_11:\n        /* \"#utility.yul\":316:319   */\n      0x00\n        /* \"#utility.yul\":335:355   */\n      tag_92\n        /* \"#utility.yul\":353:354   */\n      dup3\n        /* \"#utility.yul\":335:355   */\n      tag_65\n      jump\t// in\n    tag_92:\n        /* \"#utility.yul\":330:355   */\n      swap2\n      pop\n        /* \"#utility.yul\":369:389   */\n      tag_93\n        /* \"#utility.yul\":387:388   */\n      dup4\n        /* \"#utility.yul\":369:389   */\n      tag_65\n      jump\t// in\n    tag_93:\n        /* \"#utility.yul\":364:389   */\n      swap3\n      pop\n        /* \"#utility.yul\":412:413   */\n      dup3\n        /* \"#utility.yul\":409:410   */\n      dup3\n        /* \"#utility.yul\":405:414   */\n      add\n        /* \"#utility.yul\":398:414   */\n      swap1\n      pop\n        /* \"#utility.yul\":433:436   */\n      dup1\n        /* \"#utility.yul\":430:431   */\n      dup3\n        /* \"#utility.yul\":427:437   */\n      gt\n        /* \"#utility.yul\":424:460   */\n      iszero\n      tag_94\n      jumpi\n        /* \"#utility.yul\":440:458   */\n      tag_95\n      tag_66\n      jump\t// in\n    tag_95:\n        /* \"#utility.yul\":424:460   */\n    tag_94:\n        /* \"#utility.yul\":276:467   */\n      swap3\n      swap2\n      pop\n      pop\n      jump\t// out\n        /* \"#utility.yul\":473:591   */\n    tag_67:\n        /* \"#utility.yul\":560:584   */\n      tag_97\n        /* \"#utility.yul\":578:583   */\n      dup2\n        /* \"#utility.yul\":560:584   */\n      tag_65\n      jump\t// in\n    tag_97:\n        /* \"#utility.yul\":555:558   */\n      dup3\n        /* \"#utility.yul\":548:585   */\n      mstore\n        /* \"#utility.yul\":473:591   */\n      pop\n      pop\n      jump\t// out\n        /* \"#utility.yul\":597:819   */\n    tag_13:\n        /* \"#utility.yul\":690:694   */\n      0x00\n        /* \"#utility.yul\":728:730   */\n      0x20\n        /* \"#utility.yul\":717:726   */\n      dup3\n        /* \"#utility.yul\":713:731   */\n      add\n        /* \"#utility.yul\":705:731   */\n      swap1\n      pop\n        /* \"#utility.yul\":741:812   */\n      tag_99\n        /* \"#utility.yul\":809:810   */\n      0x00\n        /* \"#utility.yul\":798:807   */\n      dup4\n        /* \"#utility.yul\":794:811   */\n      add\n        /* \"#utility.yul\":785:791   */\n      dup5\n        /* \"#utility.yul\":741:812   */\n      tag_67\n      jump\t// in\n    tag_99:\n        /* \"#utility.yul\":597:819   */\n      swap3\n      swap2\n      pop\n      pop\n      jump\t// out\n        /* \"#utility.yul\":906:1023   */\n    tag_69:\n        /* \"#utility.yul\":1015:1016   */\n      0x00\n        /* \"#utility.yul\":1012:1013   */\n      dup1\n        /* \"#utility.yul\":1005:1017   */\n      revert\n        /* \"#utility.yul\":1152:1274   */\n    tag_71:\n        /* \"#utility.yul\":1225:1249   */\n      tag_104\n        /* \"#utility.yul\":1243:1248   */\n      dup2\n        /* \"#utility.yul\":1225:1249   */\n      tag_65\n      jump\t// in\n    tag_104:\n        /* \"#utility.yul\":1218:1223   */\n      dup2\n        /* \"#utility.yul\":1215:1250   */\n      eq\n        /* \"#utility.yul\":1205:1268   */\n      tag_105\n      jumpi\n        /* \"#utility.yul\":1264:1265   */\n      0x00\n        /* \"#utility.yul\":1261:1262   */\n      dup1\n        /* \"#utility.yul\":1254:1266   */\n      revert\n        /* \"#utility.yul\":1205:1268   */\n    tag_105:\n        /* \"#utility.yul\":1152:1274   */\n      pop\n      jump\t// out\n        /* \"#utility.yul\":1280:1419   */\n    tag_72:\n        /* \"#utility.yul\":1326:1331   */\n      0x00\n        /* \"#utility.yul\":1364:1370   */\n      dup2\n        /* \"#utility.yul\":1351:1371   */\n      calldataload\n        /* \"#utility.yul\":1342:1371   */\n      swap1\n      pop\n        /* \"#utility.yul\":1380:1413   */\n      tag_107\n        /* \"#utility.yul\":1407:1412   */\n      dup2\n        /* \"#utility.yul\":1380:1413   */\n      tag_71\n      jump\t// in\n    tag_107:\n        /* \"#utility.yul\":1280:1419   */\n      swap3\n      swap2\n      pop\n      pop\n      jump\t// out\n        /* \"#utility.yul\":1425:1754   */\n    tag_21:\n        /* \"#utility.yul\":1484:1490   */\n      0x00\n        /* \"#utility.yul\":1533:1535   */\n      0x20\n        /* \"#utility.yul\":1521:1530   */\n      dup3\n        /* \"#utility.yul\":1512:1519   */\n      dup5\n        /* \"#utility.yul\":1508:1531   */\n      sub\n        /* \"#utility.yul\":1504:1536   */\n      slt\n        /* \"#utility.yul\":1501:1620   */\n      iszero\n      tag_109\n      jumpi\n        /* \"#utility.yul\":1539:1618   */\n      tag_110\n      tag_69\n      jump\t// in\n    tag_110:\n        /* \"#utility.yul\":1501:1620   */\n    tag_109:\n        /* \"#utility.yul\":1659:1660   */\n      0x00\n        /* \"#utility.yul\":1684:1737   */\n      tag_111\n        /* \"#utility.yul\":1729:1736   */\n      dup5\n        /* \"#utility.yul\":1720:1726   */\n      dup3\n        /* \"#utility.yul\":1709:1718   */\n      dup6\n        /* \"#utility.yul\":1705:1727   */\n      add\n        /* \"#utility.yul\":1684:1737   */\n      tag_72\n      jump\t// in\n    tag_111:\n        /* \"#utility.yul\":1674:1737   */\n      swap2\n      pop\n        /* \"#utility.yul\":1630:1747   */\n      pop\n        /* \"#utility.yul\":1425:1754   */\n      swap3\n      swap2\n      pop\n      pop\n      jump\t// out\n        /* \"#utility.yul\":1760:1886   */\n    tag_73:\n        /* \"#utility.yul\":1797:1804   */\n      0x00\n        /* \"#utility.yul\":1837:1879   */\n      0xffffffffffffffffffffffffffffffffffffffff\n        /* \"#utility.yul\":1830:1835   */\n      dup3\n        /* \"#utility.yul\":1826:1880   */\n      and\n        /* \"#utility.yul\":1815:1880   */\n      swap1\n      pop\n        /* \"#utility.yul\":1760:1886   */\n      swap2\n      swap1\n      pop\n      jump\t// out\n        /* \"#utility.yul\":1892:1988   */\n    tag_74:\n        /* \"#utility.yul\":1929:1936   */\n      0x00\n        /* \"#utility.yul\":1958:1982   */\n      tag_114\n        /* \"#utility.yul\":1976:1981   */\n      dup3\n        /* \"#utility.yul\":1958:1982   */\n      tag_73\n      jump\t// in\n    tag_114:\n        /* \"#utility.yul\":1947:1982   */\n      swap1\n      pop\n        /* \"#utility.yul\":1892:1988   */\n      swap2\n      swap1\n      pop\n      jump\t// out\n        /* \"#utility.yul\":1994:2112   */\n    tag_75:\n        /* \"#utility.yul\":2081:2105   */\n      tag_116\n        /* \"#utility.yul\":2099:2104   */\n      dup2\n        /* \"#utility.yul\":2081:2105   */\n      tag_74\n      jump\t// in\n    tag_116:\n        /* \"#utility.yul\":2076:2079   */\n      dup3\n        /* \"#utility.yul\":2069:2106   */\n      mstore\n        /* \"#utility.yul\":1994:2112   */\n      pop\n      pop\n      jump\t// out\n        /* \"#utility.yul\":2118:2340   */\n    tag_27:\n        /* \"#utility.yul\":2211:2215   */\n      0x00\n        /* \"#utility.yul\":2249:2251   */\n      0x20\n        /* \"#utility.yul\":2238:2247   */\n      dup3\n        /* \"#utility.yul\":2234:2252   */\n      add\n        /* \"#utility.yul\":2226:2252   */\n      swap1\n      pop\n        /* \"#utility.yul\":2262:2333   */\n      tag_118\n        /* \"#utility.yul\":2330:2331   */\n      0x00\n        /* \"#utility.yul\":2319:2328   */\n      dup4\n        /* \"#utility.yul\":2315:2332   */\n      add\n        /* \"#utility.yul\":2306:2312   */\n      dup5\n        /* \"#utility.yul\":2262:2333   */\n      tag_75\n      jump\t// in\n    tag_118:\n        /* \"#utility.yul\":2118:2340   */\n      swap3\n      swap2\n      pop\n      pop\n      jump\t// out\n        /* \"#utility.yul\":2346:2515   */\n    tag_76:\n        /* \"#utility.yul\":2430:2441   */\n      0x00\n        /* \"#utility.yul\":2464:2470   */\n      dup3\n        /* \"#utility.yul\":2459:2462   */\n      dup3\n        /* \"#utility.yul\":2452:2471   */\n      mstore\n        /* \"#utility.yul\":2504:2508   */\n      0x20\n        /* \"#utility.yul\":2499:2502   */\n      dup3\n        /* \"#utility.yul\":2495:2509   */\n      add\n        /* \"#utility.yul\":2480:2509   */\n      swap1\n      pop\n        /* \"#utility.yul\":2346:2515   */\n      swap3\n      swap2\n      pop\n      pop\n      jump\t// out\n        /* \"#utility.yul\":2521:2747   */\n    tag_77:\n        /* \"#utility.yul\":2661:2695   */\n      0x4f6e6c7920746865206f776e65722063616e20706572666f726d207468697320\n        /* \"#utility.yul\":2657:2658   */\n      0x00\n        /* \"#utility.yul\":2649:2655   */\n      dup3\n        /* \"#utility.yul\":2645:2659   */\n      add\n        /* \"#utility.yul\":2638:2696   */\n      mstore\n        /* \"#utility.yul\":2730:2739   */\n      0x616374696f6e2e00000000000000000000000000000000000000000000000000\n        /* \"#utility.yul\":2725:2727   */\n      0x20\n        /* \"#utility.yul\":2717:2723   */\n      dup3\n        /* \"#utility.yul\":2713:2728   */\n      add\n        /* \"#utility.yul\":2706:2740   */\n      mstore\n        /* \"#utility.yul\":2521:2747   */\n      pop\n      jump\t// out\n        /* \"#utility.yul\":2753:3119   */\n    tag_78:\n        /* \"#utility.yul\":2895:2898   */\n      0x00\n        /* \"#utility.yul\":2916:2983   */\n      tag_122\n        /* \"#utility.yul\":2980:2982   */\n      0x27\n        /* \"#utility.yul\":2975:2978   */\n      dup4\n        /* \"#utility.yul\":2916:2983   */\n      tag_76\n      jump\t// in\n    tag_122:\n        /* \"#utility.yul\":2909:2983   */\n      swap2\n      pop\n        /* \"#utility.yul\":2992:3085   */\n      tag_123\n        /* \"#utility.yul\":3081:3084   */\n      dup3\n        /* \"#utility.yul\":2992:3085   */\n      tag_77\n      jump\t// in\n    tag_123:\n        /* \"#utility.yul\":3110:3112   */\n      0x40\n        /* \"#utility.yul\":3105:3108   */\n      dup3\n        /* \"#utility.yul\":3101:3113   */\n      add\n        /* \"#utility.yul\":3094:3113   */\n      swap1\n      pop\n        /* \"#utility.yul\":2753:3119   */\n      swap2\n      swap1\n      pop\n      jump\t// out\n        /* \"#utility.yul\":3125:3544   */\n    tag_39:\n        /* \"#utility.yul\":3291:3295   */\n      0x00\n        /* \"#utility.yul\":3329:3331   */\n      0x20\n        /* \"#utility.yul\":3318:3327   */\n      dup3\n        /* \"#utility.yul\":3314:3332   */\n      add\n        /* \"#utility.yul\":3306:3332   */\n      swap1\n      pop\n        /* \"#utility.yul\":3378:3387   */\n      dup2\n        /* \"#utility.yul\":3372:3376   */\n      dup2\n        /* \"#utility.yul\":3368:3388   */\n      sub\n        /* \"#utility.yul\":3364:3365   */\n      0x00\n        /* \"#utility.yul\":3353:3362   */\n      dup4\n        /* \"#utility.yul\":3349:3366   */\n      add\n        /* \"#utility.yul\":3342:3389   */\n      mstore\n        /* \"#utility.yul\":3406:3537   */\n      tag_125\n        /* \"#utility.yul\":3532:3536   */\n      dup2\n        /* \"#utility.yul\":3406:3537   */\n      tag_78\n      jump\t// in\n    tag_125:\n        /* \"#utility.yul\":3398:3537   */\n      swap1\n      pop\n        /* \"#utility.yul\":3125:3544   */\n      swap2\n      swap1\n      pop\n      jump\t// out\n        /* \"#utility.yul\":3550:3775   */\n    tag_79:\n        /* \"#utility.yul\":3690:3724   */\n      0x496e73756666696369656e742066756e647320666f722074686973206f706572\n        /* \"#utility.yul\":3686:3687   */\n      0x00\n        /* \"#utility.yul\":3678:3684   */\n      dup3\n        /* \"#utility.yul\":3674:3688   */\n      add\n        /* \"#utility.yul\":3667:3725   */\n      mstore\n        /* \"#utility.yul\":3759:3767   */\n      0x6174696f6e2e0000000000000000000000000000000000000000000000000000\n        /* \"#utility.yul\":3754:3756   */\n      0x20\n        /* \"#utility.yul\":3746:3752   */\n      dup3\n        /* \"#utility.yul\":3742:3757   */\n      add\n        /* \"#utility.yul\":3735:3768   */\n      mstore\n        /* \"#utility.yul\":3550:3775   */\n      pop\n      jump\t// out\n        /* \"#utility.yul\":3781:4147   */\n    tag_80:\n        /* \"#utility.yul\":3923:3926   */\n      0x00\n        /* \"#utility.yul\":3944:4011   */\n      tag_128\n        /* \"#utility.yul\":4008:4010   */\n      0x26\n        /* \"#utility.yul\":4003:4006   */\n      dup4\n        /* \"#utility.yul\":3944:4011   */\n      tag_76\n      jump\t// in\n    tag_128:\n        /* \"#utility.yul\":3937:4011   */\n      swap2\n      pop\n        /* \"#utility.yul\":4020:4113   */\n      tag_129\n        /* \"#utility.yul\":4109:4112   */\n      dup3\n        /* \"#utility.yul\":4020:4113   */\n      tag_79\n      jump\t// in\n    tag_129:\n        /* \"#utility.yul\":4138:4140   */\n      0x40\n        /* \"#utility.yul\":4133:4136   */\n      dup3\n        /* \"#utility.yul\":4129:4141   */\n      add\n        /* \"#utility.yul\":4122:4141   */\n      swap1\n      pop\n        /* \"#utility.yul\":3781:4147   */\n      swap2\n      swap1\n      pop\n      jump\t// out\n        /* \"#utility.yul\":4153:4572   */\n    tag_43:\n        /* \"#utility.yul\":4319:4323   */\n      0x00\n        /* \"#utility.yul\":4357:4359   */\n      0x20\n        /* \"#utility.yul\":4346:4355   */\n      dup3\n        /* \"#utility.yul\":4342:4360   */\n      add\n        /* \"#utility.yul\":4334:4360   */\n      swap1\n      pop\n        /* \"#utility.yul\":4406:4415   */\n      dup2\n        /* \"#utility.yul\":4400:4404   */\n      dup2\n        /* \"#utility.yul\":4396:4416   */\n      sub\n        /* \"#utility.yul\":4392:4393   */\n      0x00\n        /* \"#utility.yul\":4381:4390   */\n      dup4\n        /* \"#utility.yul\":4377:4394   */\n      add\n        /* \"#utility.yul\":4370:4417   */\n      mstore\n        /* \"#utility.yul\":4434:4565   */\n      tag_131\n        /* \"#utility.yul\":4560:4564   */\n      dup2\n        /* \"#utility.yul\":4434:4565   */\n      tag_80\n      jump\t// in\n    tag_131:\n        /* \"#utility.yul\":4426:4565   */\n      swap1\n      pop\n        /* \"#utility.yul\":4153:4572   */\n      swap2\n      swap1\n      pop\n      jump\t// out\n        /* \"#utility.yul\":4578:4772   */\n    tag_45:\n        /* \"#utility.yul\":4618:4622   */\n      0x00\n        /* \"#utility.yul\":4638:4658   */\n      tag_133\n        /* \"#utility.yul\":4656:4657   */\n      dup3\n        /* \"#utility.yul\":4638:4658   */\n      tag_65\n      jump\t// in\n    tag_133:\n        /* \"#utility.yul\":4633:4658   */\n      swap2\n      pop\n        /* \"#utility.yul\":4672:4692   */\n      tag_134\n        /* \"#utility.yul\":4690:4691   */\n      dup4\n        /* \"#utility.yul\":4672:4692   */\n      tag_65\n      jump\t// in\n    tag_134:\n        /* \"#utility.yul\":4667:4692   */\n      swap3\n      pop\n        /* \"#utility.yul\":4716:4717   */\n      dup3\n        /* \"#utility.yul\":4713:4714   */\n      dup3\n        /* \"#utility.yul\":4709:4718   */\n      sub\n        /* \"#utility.yul\":4701:4718   */\n      swap1\n      pop\n        /* \"#utility.yul\":4740:4741   */\n      dup2\n        /* \"#utility.yul\":4734:4738   */\n      dup2\n        /* \"#utility.yul\":4731:4742   */\n      gt\n        /* \"#utility.yul\":4728:4765   */\n      iszero\n      tag_135\n      jumpi\n        /* \"#utility.yul\":4745:4763   */\n      tag_136\n      tag_66\n      jump\t// in\n    tag_136:\n        /* \"#utility.yul\":4728:4765   */\n    tag_135:\n        /* \"#utility.yul\":4578:4772   */\n      swap3\n      swap2\n      pop\n      pop\n      jump\t// out\n        /* \"#utility.yul\":4778:5002   */\n    tag_81:\n        /* \"#utility.yul\":4918:4952   */\n      0x496e73756666696369656e742066756e647320666f722074686973207472616e\n        /* \"#utility.yul\":4914:4915   */\n      0x00\n        /* \"#utility.yul\":4906:4912   */\n      dup3\n        /* \"#utility.yul\":4902:4916   */\n      add\n        /* \"#utility.yul\":4895:4953   */\n      mstore\n        /* \"#utility.yul\":4987:4994   */\n      0x736665722e000000000000000000000000000000000000000000000000000000\n        /* \"#utility.yul\":4982:4984   */\n      0x20\n        /* \"#utility.yul\":4974:4980   */\n      dup3\n        /* \"#utility.yul\":4970:4985   */\n      add\n        /* \"#utility.yul\":4963:4995   */\n      mstore\n        /* \"#utility.yul\":4778:5002   */\n      pop\n      jump\t// out\n        /* \"#utility.yul\":5008:5374   */\n    tag_82:\n        /* \"#utility.yul\":5150:5153   */\n      0x00\n        /* \"#utility.yul\":5171:5238   */\n      tag_139\n        /* \"#utility.yul\":5235:5237   */\n      0x25\n        /* \"#utility.yul\":5230:5233   */\n      dup4\n        /* \"#utility.yul\":5171:5238   */\n      tag_76\n      jump\t// in\n    tag_139:\n        /* \"#utility.yul\":5164:5238   */\n      swap2\n      pop\n        /* \"#utility.yul\":5247:5340   */\n      tag_140\n        /* \"#utility.yul\":5336:5339   */\n      dup3\n        /* \"#utility.yul\":5247:5340   */\n      tag_81\n      jump\t// in\n    tag_140:\n        /* \"#utility.yul\":5365:5367   */\n      0x40\n        /* \"#utility.yul\":5360:5363   */\n      dup3\n        /* \"#utility.yul\":5356:5368   */\n      add\n        /* \"#utility.yul\":5349:5368   */\n      swap1\n      pop\n        /* \"#utility.yul\":5008:5374   */\n      swap2\n      swap1\n      pop\n      jump\t// out\n        /* \"#utility.yul\":5380:5799   */\n    tag_53:\n        /* \"#utility.yul\":5546:5550   */\n      0x00\n        /* \"#utility.yul\":5584:5586   */\n      0x20\n        /* \"#utility.yul\":5573:5582   */\n      dup3\n        /* \"#utility.yul\":5569:5587   */\n      add\n        /* \"#utility.yul\":5561:5587   */\n      swap1\n      pop\n        /* \"#utility.yul\":5633:5642   */\n      dup2\n        /* \"#utility.yul\":5627:5631   */\n      dup2\n        /* \"#utility.yul\":5623:5643   */\n      sub\n        /* \"#utility.yul\":5619:5620   */\n      0x00\n        /* \"#utility.yul\":5608:5617   */\n      dup4\n        /* \"#utility.yul\":5604:5621   */\n      add\n        /* \"#utility.yul\":5597:5644   */\n      mstore\n        /* \"#utility.yul\":5661:5792   */\n      tag_142\n        /* \"#utility.yul\":5787:5791   */\n      dup2\n        /* \"#utility.yul\":5661:5792   */\n      tag_82\n      jump\t// in\n    tag_142:\n        /* \"#utility.yul\":5653:5792   */\n      swap1\n      pop\n        /* \"#utility.yul\":5380:5799   */\n      swap2\n      swap1\n      pop\n      jump\t// out\n        /* \"#utility.yul\":5805:5952   */\n    tag_83:\n        /* \"#utility.yul\":5906:5917   */\n      0x00\n        /* \"#utility.yul\":5943:5946   */\n      dup2\n        /* \"#utility.yul\":5928:5946   */\n      swap1\n      pop\n        /* \"#utility.yul\":5805:5952   */\n      swap3\n      swap2\n      pop\n      pop\n      jump\t// out\n        /* \"#utility.yul\":5958:6072   */\n    tag_84:\n      pop\n      jump\t// out\n        /* \"#utility.yul\":6078:6476   */\n    tag_85:\n        /* \"#utility.yul\":6237:6240   */\n      0x00\n        /* \"#utility.yul\":6258:6341   */\n      tag_146\n        /* \"#utility.yul\":6339:6340   */\n      0x00\n        /* \"#utility.yul\":6334:6337   */\n      dup4\n        /* \"#utility.yul\":6258:6341   */\n      tag_83\n      jump\t// in\n    tag_146:\n        /* \"#utility.yul\":6251:6341   */\n      swap2\n      pop\n        /* \"#utility.yul\":6350:6443   */\n      tag_147\n        /* \"#utility.yul\":6439:6442   */\n      dup3\n        /* \"#utility.yul\":6350:6443   */\n      tag_84\n      jump\t// in\n    tag_147:\n        /* \"#utility.yul\":6468:6469   */\n      0x00\n        /* \"#utility.yul\":6463:6466   */\n      dup3\n        /* \"#utility.yul\":6459:6470   */\n      add\n        /* \"#utility.yul\":6452:6470   */\n      swap1\n      pop\n        /* \"#utility.yul\":6078:6476   */\n      swap2\n      swap1\n      pop\n      jump\t// out\n        /* \"#utility.yul\":6482:6861   */\n    tag_56:\n        /* \"#utility.yul\":6666:6669   */\n      0x00\n        /* \"#utility.yul\":6688:6835   */\n      tag_149\n        /* \"#utility.yul\":6831:6834   */\n      dup3\n        /* \"#utility.yul\":6688:6835   */\n      tag_85\n      jump\t// in\n    tag_149:\n        /* \"#utility.yul\":6681:6835   */\n      swap2\n      pop\n        /* \"#utility.yul\":6852:6855   */\n      dup2\n        /* \"#utility.yul\":6845:6855   */\n      swap1\n      pop\n        /* \"#utility.yul\":6482:6861   */\n      swap2\n      swap1\n      pop\n      jump\t// out\n        /* \"#utility.yul\":6867:7033   */\n    tag_86:\n        /* \"#utility.yul\":7007:7025   */\n      0x5472616e73666572206661696c65642e00000000000000000000000000000000\n        /* \"#utility.yul\":7003:7004   */\n      0x00\n        /* \"#utility.yul\":6995:7001   */\n      dup3\n        /* \"#utility.yul\":6991:7005   */\n      add\n        /* \"#utility.yul\":6984:7026   */\n      mstore\n        /* \"#utility.yul\":6867:7033   */\n      pop\n      jump\t// out\n        /* \"#utility.yul\":7039:7405   */\n    tag_87:\n        /* \"#utility.yul\":7181:7184   */\n      0x00\n        /* \"#utility.yul\":7202:7269   */\n      tag_152\n        /* \"#utility.yul\":7266:7268   */\n      0x10\n        /* \"#utility.yul\":7261:7264   */\n      dup4\n        /* \"#utility.yul\":7202:7269   */\n      tag_76\n      jump\t// in\n    tag_152:\n        /* \"#utility.yul\":7195:7269   */\n      swap2\n      pop\n        /* \"#utility.yul\":7278:7371   */\n      tag_153\n        /* \"#utility.yul\":7367:7370   */\n      dup3\n        /* \"#utility.yul\":7278:7371   */\n      tag_86\n      jump\t// in\n    tag_153:\n        /* \"#utility.yul\":7396:7398   */\n      0x20\n        /* \"#utility.yul\":7391:7394   */\n      dup3\n        /* \"#utility.yul\":7387:7399   */\n      add\n        /* \"#utility.yul\":7380:7399   */\n      swap1\n      pop\n        /* \"#utility.yul\":7039:7405   */\n      swap2\n      swap1\n      pop\n      jump\t// out\n        /* \"#utility.yul\":7411:7830   */\n    tag_62:\n        /* \"#utility.yul\":7577:7581   */\n      0x00\n        /* \"#utility.yul\":7615:7617   */\n      0x20\n        /* \"#utility.yul\":7604:7613   */\n      dup3\n        /* \"#utility.yul\":7600:7618   */\n      add\n        /* \"#utility.yul\":7592:7618   */\n      swap1\n      pop\n        /* \"#utility.yul\":7664:7673   */\n      dup2\n        /* \"#utility.yul\":7658:7662   */\n      dup2\n        /* \"#utility.yul\":7654:7674   */\n      sub\n        /* \"#utility.yul\":7650:7651   */\n      0x00\n        /* \"#utility.yul\":7639:7648   */\n      dup4\n        /* \"#utility.yul\":7635:7652   */\n      add\n        /* \"#utility.yul\":7628:7675   */\n      mstore\n        /* \"#utility.yul\":7692:7823   */\n      tag_155\n        /* \"#utility.yul\":7818:7822   */\n      dup2\n        /* \"#utility.yul\":7692:7823   */\n      tag_87\n      jump\t// in\n    tag_155:\n        /* \"#utility.yul\":7684:7823   */\n      swap1\n      pop\n        /* \"#utility.yul\":7411:7830   */\n      swap2\n      swap1\n      pop\n      jump\t// out\n\n    auxdata: 0xa264697066735822122086e4305c9dcd5c66f57b21602774817d42aeecb6a853e7907d171c5ae04d4c5964736f6c63430008190033\n}\n",
				"bytecode": {
					"linkReferences": {},
					"object": "60806040525f6001553480156012575f80fd5b50335f806101000a81548173ffffffffffffffffffffffffffffffffffffffff021916908373ffffffffffffffffffffffffffffffffffffffff1602179055506108cd8061005f5f395ff3fe60806040526004361061004d575f3560e01c80633c067945146100be57806361324da2146100e85780638da5cb5b14610110578063cdfbc5a91461013a578063dae9e37914610162576100ba565b366100ba573460015f82825461006391906104f5565b925050819055503373ffffffffffffffffffffffffffffffffffffffff167f1bb460ccaaf70fbacfec17a376f8acbd278c1405590ffcc8ebe4b88daf4f64ad346040516100b09190610537565b60405180910390a2005b5f80fd5b3480156100c9575f80fd5b506100d261018c565b6040516100df9190610537565b60405180910390f35b3480156100f3575f80fd5b5061010e6004803603810190610109919061057e565b610192565b005b34801561011b575f80fd5b506101246102b6565b60405161013191906105e8565b60405180910390f35b348015610145575f80fd5b50610160600480360381019061015b919061057e565b6102d9565b005b34801561016d575f80fd5b506101766104b6565b6040516101839190610537565b60405180910390f35b60015481565b5f8054906101000a900473ffffffffffffffffffffffffffffffffffffffff1673ffffffffffffffffffffffffffffffffffffffff163373ffffffffffffffffffffffffffffffffffffffff161461021f576040517f08c379a000000000000000000000000000000000000000000000000000000000815260040161021690610681565b60405180910390fd5b600154811115610264576040517f08c379a000000000000000000000000000000000000000000000000000000000815260040161025b9061070f565b60405180910390fd5b8060015f828254610275919061072d565b925050819055507f8b647e474fa90bb17f05e8986032c988bb1215b542fe2272c0917832bad3b06c816040516102ab9190610537565b60405180910390a150565b5f8054906101000a900473ffffffffffffffffffffffffffffffffffffffff1681565b5f8054906101000a900473ffffffffffffffffffffffffffffffffffffffff1673ffffffffffffffffffffffffffffffffffffffff163373ffffffffffffffffffffffffffffffffffffffff1614610366576040517f08c379a000000000000000000000000000000000000000000000000000000000815260040161035d90610681565b60405180910390fd5b6001548111156103ab576040517f08c379a00000000000000000000000000000000000000000000000000000000081526004016103a2906107d0565b60405180910390fd5b8060015f8282546103bc919061072d565b925050819055505f6f219ab540356cbb839cbe05303d7705fa73ffffffffffffffffffffffffffffffffffffffff16826040516103f89061081b565b5f6040518083038185875af1925050503d805f8114610432576040519150601f19603f3d011682016040523d82523d5f602084013e610437565b606091505b505090508061047b576040517f08c379a000000000000000000000000000000000000000000000000000000000815260040161047290610879565b60405180910390fd5b7ffe1d7aa135ba43977883640bdb1ecc7bca346a58ccc4da3805e631bc3f25d74d826040516104aa9190610537565b60405180910390a15050565b5f600154905090565b5f819050919050565b7f4e487b71000000000000000000000000000000000000000000000000000000005f52601160045260245ffd5b5f6104ff826104bf565b915061050a836104bf565b9250828201905080821115610522576105216104c8565b5b92915050565b610531816104bf565b82525050565b5f60208201905061054a5f830184610528565b92915050565b5f80fd5b61055d816104bf565b8114610567575f80fd5b50565b5f8135905061057881610554565b92915050565b5f6020828403121561059357610592610550565b5b5f6105a08482850161056a565b91505092915050565b5f73ffffffffffffffffffffffffffffffffffffffff82169050919050565b5f6105d2826105a9565b9050919050565b6105e2816105c8565b82525050565b5f6020820190506105fb5f8301846105d9565b92915050565b5f82825260208201905092915050565b7f4f6e6c7920746865206f776e65722063616e20706572666f726d2074686973205f8201527f616374696f6e2e00000000000000000000000000000000000000000000000000602082015250565b5f61066b602783610601565b915061067682610611565b604082019050919050565b5f6020820190508181035f8301526106988161065f565b9050919050565b7f496e73756666696369656e742066756e647320666f722074686973206f7065725f8201527f6174696f6e2e0000000000000000000000000000000000000000000000000000602082015250565b5f6106f9602683610601565b91506107048261069f565b604082019050919050565b5f6020820190508181035f830152610726816106ed565b9050919050565b5f610737826104bf565b9150610742836104bf565b925082820390508181111561075a576107596104c8565b5b92915050565b7f496e73756666696369656e742066756e647320666f722074686973207472616e5f8201527f736665722e000000000000000000000000000000000000000000000000000000602082015250565b5f6107ba602583610601565b91506107c582610760565b604082019050919050565b5f6020820190508181035f8301526107e7816107ae565b9050919050565b5f81905092915050565b50565b5f6108065f836107ee565b9150610811826107f8565b5f82019050919050565b5f610825826107fb565b9150819050919050565b7f5472616e73666572206661696c65642e000000000000000000000000000000005f82015250565b5f610863601083610601565b915061086e8261082f565b602082019050919050565b5f6020820190508181035f83015261089081610857565b905091905056fea264697066735822122086e4305c9dcd5c66f57b21602774817d42aeecb6a853e7907d171c5ae04d4c5964736f6c63430008190033",
					"opcodes": "PUSH1 0x80 PUSH1 0x40 MSTORE PUSH0 PUSH1 0x1 SSTORE CALLVALUE DUP1 ISZERO PUSH1 0x12 JUMPI PUSH0 DUP1 REVERT JUMPDEST POP CALLER PUSH0 DUP1 PUSH2 0x100 EXP DUP2 SLOAD DUP2 PUSH20 0xFFFFFFFFFFFFFFFFFFFFFFFFFFFFFFFFFFFFFFFF MUL NOT AND SWAP1 DUP4 PUSH20 0xFFFFFFFFFFFFFFFFFFFFFFFFFFFFFFFFFFFFFFFF AND MUL OR SWAP1 SSTORE POP PUSH2 0x8CD DUP1 PUSH2 0x5F PUSH0 CODECOPY PUSH0 RETURN INVALID PUSH1 0x80 PUSH1 0x40 MSTORE PUSH1 0x4 CALLDATASIZE LT PUSH2 0x4D JUMPI PUSH0 CALLDATALOAD PUSH1 0xE0 SHR DUP1 PUSH4 0x3C067945 EQ PUSH2 0xBE JUMPI DUP1 PUSH4 0x61324DA2 EQ PUSH2 0xE8 JUMPI DUP1 PUSH4 0x8DA5CB5B EQ PUSH2 0x110 JUMPI DUP1 PUSH4 0xCDFBC5A9 EQ PUSH2 0x13A JUMPI DUP1 PUSH4 0xDAE9E379 EQ PUSH2 0x162 JUMPI PUSH2 0xBA JUMP JUMPDEST CALLDATASIZE PUSH2 0xBA JUMPI CALLVALUE PUSH1 0x1 PUSH0 DUP3 DUP3 SLOAD PUSH2 0x63 SWAP2 SWAP1 PUSH2 0x4F5 JUMP JUMPDEST SWAP3 POP POP DUP2 SWAP1 SSTORE POP CALLER PUSH20 0xFFFFFFFFFFFFFFFFFFFFFFFFFFFFFFFFFFFFFFFF AND PUSH32 0x1BB460CCAAF70FBACFEC17A376F8ACBD278C1405590FFCC8EBE4B88DAF4F64AD CALLVALUE PUSH1 0x40 MLOAD PUSH2 0xB0 SWAP2 SWAP1 PUSH2 0x537 JUMP JUMPDEST PUSH1 0x40 MLOAD DUP1 SWAP2 SUB SWAP1 LOG2 STOP JUMPDEST PUSH0 DUP1 REVERT JUMPDEST CALLVALUE DUP1 ISZERO PUSH2 0xC9 JUMPI PUSH0 DUP1 REVERT JUMPDEST POP PUSH2 0xD2 PUSH2 0x18C JUMP JUMPDEST PUSH1 0x40 MLOAD PUSH2 0xDF SWAP2 SWAP1 PUSH2 0x537 JUMP JUMPDEST PUSH1 0x40 MLOAD DUP1 SWAP2 SUB SWAP1 RETURN JUMPDEST CALLVALUE DUP1 ISZERO PUSH2 0xF3 JUMPI PUSH0 DUP1 REVERT JUMPDEST POP PUSH2 0x10E PUSH1 0x4 DUP1 CALLDATASIZE SUB DUP2 ADD SWAP1 PUSH2 0x109 SWAP2 SWAP1 PUSH2 0x57E JUMP JUMPDEST PUSH2 0x192 JUMP JUMPDEST STOP JUMPDEST CALLVALUE DUP1 ISZERO PUSH2 0x11B JUMPI PUSH0 DUP1 REVERT JUMPDEST POP PUSH2 0x124 PUSH2 0x2B6 JUMP JUMPDEST PUSH1 0x40 MLOAD PUSH2 0x131 SWAP2 SWAP1 PUSH2 0x5E8 JUMP JUMPDEST PUSH1 0x40 MLOAD DUP1 SWAP2 SUB SWAP1 RETURN JUMPDEST CALLVALUE DUP1 ISZERO PUSH2 0x145 JUMPI PUSH0 DUP1 REVERT JUMPDEST POP PUSH2 0x160 PUSH1 0x4 DUP1 CALLDATASIZE SUB DUP2 ADD SWAP1 PUSH2 0x15B SWAP2 SWAP1 PUSH2 0x57E JUMP JUMPDEST PUSH2 0x2D9 JUMP JUMPDEST STOP JUMPDEST CALLVALUE DUP1 ISZERO PUSH2 0x16D JUMPI PUSH0 DUP1 REVERT JUMPDEST POP PUSH2 0x176 PUSH2 0x4B6 JUMP JUMPDEST PUSH1 0x40 MLOAD PUSH2 0x183 SWAP2 SWAP1 PUSH2 0x537 JUMP JUMPDEST PUSH1 0x40 MLOAD DUP1 SWAP2 SUB SWAP1 RETURN JUMPDEST PUSH1 0x1 SLOAD DUP2 JUMP JUMPDEST PUSH0 DUP1 SLOAD SWAP1 PUSH2 0x100 EXP SWAP1 DIV PUSH20 0xFFFFFFFFFFFFFFFFFFFFFFFFFFFFFFFFFFFFFFFF AND PUSH20 0xFFFFFFFFFFFFFFFFFFFFFFFFFFFFFFFFFFFFFFFF AND CALLER PUSH20 0xFFFFFFFFFFFFFFFFFFFFFFFFFFFFFFFFFFFFFFFF AND EQ PUSH2 0x21F JUMPI PUSH1 0x40 MLOAD PUSH32 0x8C379A000000000000000000000000000000000000000000000000000000000 DUP2 MSTORE PUSH1 0x4 ADD PUSH2 0x216 SWAP1 PUSH2 0x681 JUMP JUMPDEST PUSH1 0x40 MLOAD DUP1 SWAP2 SUB SWAP1 REVERT JUMPDEST PUSH1 0x1 SLOAD DUP2 GT ISZERO PUSH2 0x264 JUMPI PUSH1 0x40 MLOAD PUSH32 0x8C379A000000000000000000000000000000000000000000000000000000000 DUP2 MSTORE PUSH1 0x4 ADD PUSH2 0x25B SWAP1 PUSH2 0x70F JUMP JUMPDEST PUSH1 0x40 MLOAD DUP1 SWAP2 SUB SWAP1 REVERT JUMPDEST DUP1 PUSH1 0x1 PUSH0 DUP3 DUP3 SLOAD PUSH2 0x275 SWAP2 SWAP1 PUSH2 0x72D JUMP JUMPDEST SWAP3 POP POP DUP2 SWAP1 SSTORE POP PUSH32 0x8B647E474FA90BB17F05E8986032C988BB1215B542FE2272C0917832BAD3B06C DUP2 PUSH1 0x40 MLOAD PUSH2 0x2AB SWAP2 SWAP1 PUSH2 0x537 JUMP JUMPDEST PUSH1 0x40 MLOAD DUP1 SWAP2 SUB SWAP1 LOG1 POP JUMP JUMPDEST PUSH0 DUP1 SLOAD SWAP1 PUSH2 0x100 EXP SWAP1 DIV PUSH20 0xFFFFFFFFFFFFFFFFFFFFFFFFFFFFFFFFFFFFFFFF AND DUP2 JUMP JUMPDEST PUSH0 DUP1 SLOAD SWAP1 PUSH2 0x100 EXP SWAP1 DIV PUSH20 0xFFFFFFFFFFFFFFFFFFFFFFFFFFFFFFFFFFFFFFFF AND PUSH20 0xFFFFFFFFFFFFFFFFFFFFFFFFFFFFFFFFFFFFFFFF AND CALLER PUSH20 0xFFFFFFFFFFFFFFFFFFFFFFFFFFFFFFFFFFFFFFFF AND EQ PUSH2 0x366 JUMPI PUSH1 0x40 MLOAD PUSH32 0x8C379A000000000000000000000000000000000000000000000000000000000 DUP2 MSTORE PUSH1 0x4 ADD PUSH2 0x35D SWAP1 PUSH2 0x681 JUMP JUMPDEST PUSH1 0x40 MLOAD DUP1 SWAP2 SUB SWAP1 REVERT JUMPDEST PUSH1 0x1 SLOAD DUP2 GT ISZERO PUSH2 0x3AB JUMPI PUSH1 0x40 MLOAD PUSH32 0x8C379A000000000000000000000000000000000000000000000000000000000 DUP2 MSTORE PUSH1 0x4 ADD PUSH2 0x3A2 SWAP1 PUSH2 0x7D0 JUMP JUMPDEST PUSH1 0x40 MLOAD DUP1 SWAP2 SUB SWAP1 REVERT JUMPDEST DUP1 PUSH1 0x1 PUSH0 DUP3 DUP3 SLOAD PUSH2 0x3BC SWAP2 SWAP1 PUSH2 0x72D JUMP JUMPDEST SWAP3 POP POP DUP2 SWAP1 SSTORE POP PUSH0 PUSH16 0x219AB540356CBB839CBE05303D7705FA PUSH20 0xFFFFFFFFFFFFFFFFFFFFFFFFFFFFFFFFFFFFFFFF AND DUP3 PUSH1 0x40 MLOAD PUSH2 0x3F8 SWAP1 PUSH2 0x81B JUMP JUMPDEST PUSH0 PUSH1 0x40 MLOAD DUP1 DUP4 SUB DUP2 DUP6 DUP8 GAS CALL SWAP3 POP POP POP RETURNDATASIZE DUP1 PUSH0 DUP2 EQ PUSH2 0x432 JUMPI PUSH1 0x40 MLOAD SWAP2 POP PUSH1 0x1F NOT PUSH1 0x3F RETURNDATASIZE ADD AND DUP3 ADD PUSH1 0x40 MSTORE RETURNDATASIZE DUP3 MSTORE RETURNDATASIZE PUSH0 PUSH1 0x20 DUP5 ADD RETURNDATACOPY PUSH2 0x437 JUMP JUMPDEST PUSH1 0x60 SWAP2 POP JUMPDEST POP POP SWAP1 POP DUP1 PUSH2 0x47B JUMPI PUSH1 0x40 MLOAD PUSH32 0x8C379A000000000000000000000000000000000000000000000000000000000 DUP2 MSTORE PUSH1 0x4 ADD PUSH2 0x472 SWAP1 PUSH2 0x879 JUMP JUMPDEST PUSH1 0x40 MLOAD DUP1 SWAP2 SUB SWAP1 REVERT JUMPDEST PUSH32 0xFE1D7AA135BA43977883640BDB1ECC7BCA346A58CCC4DA3805E631BC3F25D74D DUP3 PUSH1 0x40 MLOAD PUSH2 0x4AA SWAP2 SWAP1 PUSH2 0x537 JUMP JUMPDEST PUSH1 0x40 MLOAD DUP1 SWAP2 SUB SWAP1 LOG1 POP POP JUMP JUMPDEST PUSH0 PUSH1 0x1 SLOAD SWAP1 POP SWAP1 JUMP JUMPDEST PUSH0 DUP2 SWAP1 POP SWAP2 SWAP1 POP JUMP JUMPDEST PUSH32 0x4E487B7100000000000000000000000000000000000000000000000000000000 PUSH0 MSTORE PUSH1 0x11 PUSH1 0x4 MSTORE PUSH1 0x24 PUSH0 REVERT JUMPDEST PUSH0 PUSH2 0x4FF DUP3 PUSH2 0x4BF JUMP JUMPDEST SWAP2 POP PUSH2 0x50A DUP4 PUSH2 0x4BF JUMP JUMPDEST SWAP3 POP DUP3 DUP3 ADD SWAP1 POP DUP1 DUP3 GT ISZERO PUSH2 0x522 JUMPI PUSH2 0x521 PUSH2 0x4C8 JUMP JUMPDEST JUMPDEST SWAP3 SWAP2 POP POP JUMP JUMPDEST PUSH2 0x531 DUP2 PUSH2 0x4BF JUMP JUMPDEST DUP3 MSTORE POP POP JUMP JUMPDEST PUSH0 PUSH1 0x20 DUP3 ADD SWAP1 POP PUSH2 0x54A PUSH0 DUP4 ADD DUP5 PUSH2 0x528 JUMP JUMPDEST SWAP3 SWAP2 POP POP JUMP JUMPDEST PUSH0 DUP1 REVERT JUMPDEST PUSH2 0x55D DUP2 PUSH2 0x4BF JUMP JUMPDEST DUP2 EQ PUSH2 0x567 JUMPI PUSH0 DUP1 REVERT JUMPDEST POP JUMP JUMPDEST PUSH0 DUP2 CALLDATALOAD SWAP1 POP PUSH2 0x578 DUP2 PUSH2 0x554 JUMP JUMPDEST SWAP3 SWAP2 POP POP JUMP JUMPDEST PUSH0 PUSH1 0x20 DUP3 DUP5 SUB SLT ISZERO PUSH2 0x593 JUMPI PUSH2 0x592 PUSH2 0x550 JUMP JUMPDEST JUMPDEST PUSH0 PUSH2 0x5A0 DUP5 DUP3 DUP6 ADD PUSH2 0x56A JUMP JUMPDEST SWAP2 POP POP SWAP3 SWAP2 POP POP JUMP JUMPDEST PUSH0 PUSH20 0xFFFFFFFFFFFFFFFFFFFFFFFFFFFFFFFFFFFFFFFF DUP3 AND SWAP1 POP SWAP2 SWAP1 POP JUMP JUMPDEST PUSH0 PUSH2 0x5D2 DUP3 PUSH2 0x5A9 JUMP JUMPDEST SWAP1 POP SWAP2 SWAP1 POP JUMP JUMPDEST PUSH2 0x5E2 DUP2 PUSH2 0x5C8 JUMP JUMPDEST DUP3 MSTORE POP POP JUMP JUMPDEST PUSH0 PUSH1 0x20 DUP3 ADD SWAP1 POP PUSH2 0x5FB PUSH0 DUP4 ADD DUP5 PUSH2 0x5D9 JUMP JUMPDEST SWAP3 SWAP2 POP POP JUMP JUMPDEST PUSH0 DUP3 DUP3 MSTORE PUSH1 0x20 DUP3 ADD SWAP1 POP SWAP3 SWAP2 POP POP JUMP JUMPDEST PUSH32 0x4F6E6C7920746865206F776E65722063616E20706572666F726D207468697320 PUSH0 DUP3 ADD MSTORE PUSH32 0x616374696F6E2E00000000000000000000000000000000000000000000000000 PUSH1 0x20 DUP3 ADD MSTORE POP JUMP JUMPDEST PUSH0 PUSH2 0x66B PUSH1 0x27 DUP4 PUSH2 0x601 JUMP JUMPDEST SWAP2 POP PUSH2 0x676 DUP3 PUSH2 0x611 JUMP JUMPDEST PUSH1 0x40 DUP3 ADD SWAP1 POP SWAP2 SWAP1 POP JUMP JUMPDEST PUSH0 PUSH1 0x20 DUP3 ADD SWAP1 POP DUP2 DUP2 SUB PUSH0 DUP4 ADD MSTORE PUSH2 0x698 DUP2 PUSH2 0x65F JUMP JUMPDEST SWAP1 POP SWAP2 SWAP1 POP JUMP JUMPDEST PUSH32 0x496E73756666696369656E742066756E647320666F722074686973206F706572 PUSH0 DUP3 ADD MSTORE PUSH32 0x6174696F6E2E0000000000000000000000000000000000000000000000000000 PUSH1 0x20 DUP3 ADD MSTORE POP JUMP JUMPDEST PUSH0 PUSH2 0x6F9 PUSH1 0x26 DUP4 PUSH2 0x601 JUMP JUMPDEST SWAP2 POP PUSH2 0x704 DUP3 PUSH2 0x69F JUMP JUMPDEST PUSH1 0x40 DUP3 ADD SWAP1 POP SWAP2 SWAP1 POP JUMP JUMPDEST PUSH0 PUSH1 0x20 DUP3 ADD SWAP1 POP DUP2 DUP2 SUB PUSH0 DUP4 ADD MSTORE PUSH2 0x726 DUP2 PUSH2 0x6ED JUMP JUMPDEST SWAP1 POP SWAP2 SWAP1 POP JUMP JUMPDEST PUSH0 PUSH2 0x737 DUP3 PUSH2 0x4BF JUMP JUMPDEST SWAP2 POP PUSH2 0x742 DUP4 PUSH2 0x4BF JUMP JUMPDEST SWAP3 POP DUP3 DUP3 SUB SWAP1 POP DUP2 DUP2 GT ISZERO PUSH2 0x75A JUMPI PUSH2 0x759 PUSH2 0x4C8 JUMP JUMPDEST JUMPDEST SWAP3 SWAP2 POP POP JUMP JUMPDEST PUSH32 0x496E73756666696369656E742066756E647320666F722074686973207472616E PUSH0 DUP3 ADD MSTORE PUSH32 0x736665722E000000000000000000000000000000000000000000000000000000 PUSH1 0x20 DUP3 ADD MSTORE POP JUMP JUMPDEST PUSH0 PUSH2 0x7BA PUSH1 0x25 DUP4 PUSH2 0x601 JUMP JUMPDEST SWAP2 POP PUSH2 0x7C5 DUP3 PUSH2 0x760 JUMP JUMPDEST PUSH1 0x40 DUP3 ADD SWAP1 POP SWAP2 SWAP1 POP JUMP JUMPDEST PUSH0 PUSH1 0x20 DUP3 ADD SWAP1 POP DUP2 DUP2 SUB PUSH0 DUP4 ADD MSTORE PUSH2 0x7E7 DUP2 PUSH2 0x7AE JUMP JUMPDEST SWAP1 POP SWAP2 SWAP1 POP JUMP JUMPDEST PUSH0 DUP2 SWAP1 POP SWAP3 SWAP2 POP POP JUMP JUMPDEST POP JUMP JUMPDEST PUSH0 PUSH2 0x806 PUSH0 DUP4 PUSH2 0x7EE JUMP JUMPDEST SWAP2 POP PUSH2 0x811 DUP3 PUSH2 0x7F8 JUMP JUMPDEST PUSH0 DUP3 ADD SWAP1 POP SWAP2 SWAP1 POP JUMP JUMPDEST PUSH0 PUSH2 0x825 DUP3 PUSH2 0x7FB JUMP JUMPDEST SWAP2 POP DUP2 SWAP1 POP SWAP2 SWAP1 POP JUMP JUMPDEST PUSH32 0x5472616E73666572206661696C65642E00000000000000000000000000000000 PUSH0 DUP3 ADD MSTORE POP JUMP JUMPDEST PUSH0 PUSH2 0x863 PUSH1 0x10 DUP4 PUSH2 0x601 JUMP JUMPDEST SWAP2 POP PUSH2 0x86E DUP3 PUSH2 0x82F JUMP JUMPDEST PUSH1 0x20 DUP3 ADD SWAP1 POP SWAP2 SWAP1 POP JUMP JUMPDEST PUSH0 PUSH1 0x20 DUP3 ADD SWAP1 POP DUP2 DUP2 SUB PUSH0 DUP4 ADD MSTORE PUSH2 0x890 DUP2 PUSH2 0x857 JUMP JUMPDEST SWAP1 POP SWAP2 SWAP1 POP JUMP INVALID LOG2 PUSH5 0x6970667358 0x22 SLT KECCAK256 DUP7 0xE4 ADDRESS TLOAD SWAP14 0xCD TLOAD PUSH7 0xF57B2160277481 PUSH30 0x42AEECB6A853E7907D171C5AE04D4C5964736F6C63430008190033000000 "
				},
				"gasEstimates": {
					"creation": {
						"codeDepositCost": "450600",
						"executionCost": "29754",
						"totalCost": "480354"
					},
					"external": {
						"cancelGlobalDebt(uint256)": "infinite",
						"fundBalance()": "2403",
						"getFundBalance()": "2498",
						"owner()": "2527",
						"transferFundsToCitibankchain(uint256)": "infinite"
					}
				},
				"methodIdentifiers": {
					"cancelGlobalDebt(uint256)": "61324da2",
					"fundBalance()": "3c067945",
					"getFundBalance()": "dae9e379",
					"owner()": "8da5cb5b",
					"transferFundsToCitibankchain(uint256)": "cdfbc5a9"
				}
			},
			"storageLayout": {
				"storage": [
					{
						"astId": 3,
						"contract": "Citib.sol:GlobalDebtCancellationFund",
						"label": "owner",
						"offset": 0,
						"slot": "0",
						"type": "t_address"
					},
					{
						"astId": 6,
						"contract": "Citib.sol:GlobalDebtCancellationFund",
						"label": "fundBalance",
						"offset": 0,
						"slot": "1",
						"type": "t_uint256"
					}
				],
				"types": {
					"t_address": {
						"encoding": "inplace",
						"label": "address",
						"numberOfBytes": "20"
					},
					"t_uint256": {
						"encoding": "inplace",
						"label": "uint256",
						"numberOfBytes": "32"
					}
				}
			},
			"userdoc": {
				"kind": "user",
				"methods": {},
				"version": 1
			}
		}
	}
}