{
	"Watermanagment.sol": {
		"WaterResourceManagement": {
			"abi": [
				{
					"anonymous": false,
					"inputs": [
						{
							"indexed": true,
							"internalType": "address",
							"name": "to",
							"type": "address"
						},
						{
							"indexed": false,
							"internalType": "uint256",
							"name": "amount",
							"type": "uint256"
						}
					],
					"name": "WaterDistributed",
					"type": "event"
				},
				{
					"inputs": [
						{
							"internalType": "address",
							"name": "to",
							"type": "address"
						},
						{
							"internalType": "uint256",
							"name": "amount",
							"type": "uint256"
						}
					],
					"name": "distributeWater",
					"outputs": [],
					"stateMutability": "nonpayable",
					"type": "function"
				},
				{
					"inputs": [
						{
							"internalType": "address",
							"name": "",
							"type": "address"
						}
					],
					"name": "waterCredits",
					"outputs": [
						{
							"internalType": "uint256",
							"name": "",
							"type": "uint256"
						}
					],
					"stateMutability": "view",
					"type": "function"
				}
			],
			"devdoc": {
				"kind": "dev",
				"methods": {},
				"version": 1
			},
			"evm": {
				"assembly": "    /* \"Watermanagment.sol\":27:333  contract WaterResourceManagement {... */\n  mstore(0x40, 0x80)\n  callvalue\n  dup1\n  iszero\n  tag_1\n  jumpi\n  0x00\n  dup1\n  revert\ntag_1:\n  pop\n  dataSize(sub_0)\n  dup1\n  dataOffset(sub_0)\n  0x00\n  codecopy\n  0x00\n  return\nstop\n\nsub_0: assembly {\n        /* \"Watermanagment.sol\":27:333  contract WaterResourceManagement {... */\n      mstore(0x40, 0x80)\n      callvalue\n      dup1\n      iszero\n      tag_1\n      jumpi\n      0x00\n      dup1\n      revert\n    tag_1:\n      pop\n      jumpi(tag_2, lt(calldatasize, 0x04))\n      shr(0xe0, calldataload(0x00))\n      dup1\n      0x0121596e\n      eq\n      tag_3\n      jumpi\n      dup1\n      0xfe90c428\n      eq\n      tag_4\n      jumpi\n    tag_2:\n      0x00\n      dup1\n      revert\n        /* \"Watermanagment.sol\":67:111  mapping(address => uint) public waterCredits */\n    tag_3:\n      tag_5\n      tag_6\n      calldatasize\n      0x04\n      tag_7\n      jump\t// in\n    tag_6:\n      0x00\n      0x20\n      dup2\n      swap1\n      mstore\n      swap1\n      dup2\n      mstore\n      0x40\n      swap1\n      keccak256\n      sload\n      dup2\n      jump\n    tag_5:\n      mload(0x40)\n        /* \"#utility.yul\":529:554   */\n      swap1\n      dup2\n      mstore\n        /* \"#utility.yul\":517:519   */\n      0x20\n        /* \"#utility.yul\":502:520   */\n      add\n        /* \"Watermanagment.sol\":67:111  mapping(address => uint) public waterCredits */\n      mload(0x40)\n      dup1\n      swap2\n      sub\n      swap1\n      return\n        /* \"Watermanagment.sol\":184:330  function distributeWater(address to, uint amount) public {... */\n    tag_4:\n      tag_11\n      tag_12\n      calldatasize\n      0x04\n      tag_13\n      jump\t// in\n    tag_12:\n      tag_14\n      jump\t// in\n    tag_11:\n      stop\n    tag_14:\n      sub(shl(0xa0, 0x01), 0x01)\n        /* \"Watermanagment.sol\":252:268  waterCredits[to] */\n      dup3\n      and\n        /* \"Watermanagment.sol\":252:264  waterCredits */\n      0x00\n        /* \"Watermanagment.sol\":252:268  waterCredits[to] */\n      swap1\n      dup2\n      mstore\n      0x20\n      dup2\n      swap1\n      mstore\n      0x40\n      dup2\n      keccak256\n        /* \"Watermanagment.sol\":252:278  waterCredits[to] += amount */\n      dup1\n      sload\n        /* \"Watermanagment.sol\":272:278  amount */\n      dup4\n      swap3\n        /* \"Watermanagment.sol\":252:264  waterCredits */\n      swap1\n        /* \"Watermanagment.sol\":252:278  waterCredits[to] += amount */\n      tag_16\n      swap1\n        /* \"Watermanagment.sol\":272:278  amount */\n      dup5\n      swap1\n        /* \"Watermanagment.sol\":252:278  waterCredits[to] += amount */\n      tag_17\n      jump\t// in\n    tag_16:\n      swap1\n      swap2\n      sstore\n      pop\n      pop\n        /* \"Watermanagment.sol\":294:322  WaterDistributed(to, amount) */\n      mload(0x40)\n        /* \"#utility.yul\":529:554   */\n      dup2\n      dup2\n      mstore\n      sub(shl(0xa0, 0x01), 0x01)\n        /* \"Watermanagment.sol\":294:322  WaterDistributed(to, amount) */\n      dup4\n      and\n      swap1\n      0xf24c74db7467644a13909e8bce0fe9d5523191c8e26430c1a6536d9ade7891b7\n      swap1\n        /* \"#utility.yul\":517:519   */\n      0x20\n        /* \"#utility.yul\":502:520   */\n      add\n        /* \"Watermanagment.sol\":294:322  WaterDistributed(to, amount) */\n      mload(0x40)\n      dup1\n      swap2\n      sub\n      swap1\n      log2\n        /* \"Watermanagment.sol\":184:330  function distributeWater(address to, uint amount) public {... */\n      pop\n      pop\n      jump\t// out\n        /* \"#utility.yul\":14:187   */\n    tag_19:\n        /* \"#utility.yul\":82:102   */\n      dup1\n      calldataload\n      sub(shl(0xa0, 0x01), 0x01)\n        /* \"#utility.yul\":131:162   */\n      dup2\n      and\n        /* \"#utility.yul\":121:163   */\n      dup2\n      eq\n        /* \"#utility.yul\":111:181   */\n      tag_22\n      jumpi\n        /* \"#utility.yul\":177:178   */\n      0x00\n        /* \"#utility.yul\":174:175   */\n      dup1\n        /* \"#utility.yul\":167:179   */\n      revert\n        /* \"#utility.yul\":111:181   */\n    tag_22:\n        /* \"#utility.yul\":14:187   */\n      swap2\n      swap1\n      pop\n      jump\t// out\n        /* \"#utility.yul\":192:378   */\n    tag_7:\n        /* \"#utility.yul\":251:257   */\n      0x00\n        /* \"#utility.yul\":304:306   */\n      0x20\n        /* \"#utility.yul\":292:301   */\n      dup3\n        /* \"#utility.yul\":283:290   */\n      dup5\n        /* \"#utility.yul\":279:302   */\n      sub\n        /* \"#utility.yul\":275:307   */\n      slt\n        /* \"#utility.yul\":272:324   */\n      iszero\n      tag_24\n      jumpi\n        /* \"#utility.yul\":320:321   */\n      0x00\n        /* \"#utility.yul\":317:318   */\n      dup1\n        /* \"#utility.yul\":310:322   */\n      revert\n        /* \"#utility.yul\":272:324   */\n    tag_24:\n        /* \"#utility.yul\":343:372   */\n      tag_25\n        /* \"#utility.yul\":362:371   */\n      dup3\n        /* \"#utility.yul\":343:372   */\n      tag_19\n      jump\t// in\n    tag_25:\n        /* \"#utility.yul\":333:372   */\n      swap4\n        /* \"#utility.yul\":192:378   */\n      swap3\n      pop\n      pop\n      pop\n      jump\t// out\n        /* \"#utility.yul\":565:819   */\n    tag_13:\n        /* \"#utility.yul\":633:639   */\n      0x00\n        /* \"#utility.yul\":641:647   */\n      dup1\n        /* \"#utility.yul\":694:696   */\n      0x40\n        /* \"#utility.yul\":682:691   */\n      dup4\n        /* \"#utility.yul\":673:680   */\n      dup6\n        /* \"#utility.yul\":669:692   */\n      sub\n        /* \"#utility.yul\":665:697   */\n      slt\n        /* \"#utility.yul\":662:714   */\n      iszero\n      tag_28\n      jumpi\n        /* \"#utility.yul\":710:711   */\n      0x00\n        /* \"#utility.yul\":707:708   */\n      dup1\n        /* \"#utility.yul\":700:712   */\n      revert\n        /* \"#utility.yul\":662:714   */\n    tag_28:\n        /* \"#utility.yul\":733:762   */\n      tag_29\n        /* \"#utility.yul\":752:761   */\n      dup4\n        /* \"#utility.yul\":733:762   */\n      tag_19\n      jump\t// in\n    tag_29:\n        /* \"#utility.yul\":723:762   */\n      swap5\n        /* \"#utility.yul\":809:811   */\n      0x20\n        /* \"#utility.yul\":794:812   */\n      swap4\n      swap1\n      swap4\n      add\n        /* \"#utility.yul\":781:813   */\n      calldataload\n      swap4\n      pop\n      pop\n      pop\n        /* \"#utility.yul\":565:819   */\n      jump\t// out\n        /* \"#utility.yul\":824:1046   */\n    tag_17:\n        /* \"#utility.yul\":889:898   */\n      dup1\n      dup3\n      add\n        /* \"#utility.yul\":910:920   */\n      dup1\n      dup3\n      gt\n        /* \"#utility.yul\":907:1040   */\n      iszero\n      tag_31\n      jumpi\n        /* \"#utility.yul\":962:972   */\n      0x4e487b71\n        /* \"#utility.yul\":957:960   */\n      0xe0\n        /* \"#utility.yul\":953:973   */\n      shl\n        /* \"#utility.yul\":950:951   */\n      0x00\n        /* \"#utility.yul\":943:974   */\n      mstore\n        /* \"#utility.yul\":997:1001   */\n      0x11\n        /* \"#utility.yul\":994:995   */\n      0x04\n        /* \"#utility.yul\":987:1002   */\n      mstore\n        /* \"#utility.yul\":1025:1029   */\n      0x24\n        /* \"#utility.yul\":1022:1023   */\n      0x00\n        /* \"#utility.yul\":1015:1030   */\n      revert\n        /* \"#utility.yul\":907:1040   */\n    tag_31:\n        /* \"#utility.yul\":824:1046   */\n      swap3\n      swap2\n      pop\n      pop\n      jump\t// out\n\n    auxdata: 0xa26469706673582212205077298a8637d4bc23a1f362dbe47f7a6edf533b0084f30b291443625b2f705164736f6c63430008190033\n}\n",
				"bytecode": {
					"linkReferences": {},
					"object": "6080604052348015600e575f80fd5b506101aa8061001c5f395ff3fe608060405234801561000f575f80fd5b5060043610610034575f3560e01c80630121596e14610038578063fe90c42814610069575b5f80fd5b610057610046366004610107565b5f6020819052908152604090205481565b60405190815260200160405180910390f35b61007c610077366004610127565b61007e565b005b6001600160a01b0382165f90815260208190526040812080548392906100a590849061014f565b90915550506040518181526001600160a01b038316907ff24c74db7467644a13909e8bce0fe9d5523191c8e26430c1a6536d9ade7891b79060200160405180910390a25050565b80356001600160a01b0381168114610102575f80fd5b919050565b5f60208284031215610117575f80fd5b610120826100ec565b9392505050565b5f8060408385031215610138575f80fd5b610141836100ec565b946020939093013593505050565b8082018082111561016e57634e487b7160e01b5f52601160045260245ffd5b9291505056fea26469706673582212205077298a8637d4bc23a1f362dbe47f7a6edf533b0084f30b291443625b2f705164736f6c63430008190033",
					"opcodes": "PUSH1 0x80 PUSH1 0x40 MSTORE CALLVALUE DUP1 ISZERO PUSH1 0xE JUMPI PUSH0 DUP1 REVERT JUMPDEST POP PUSH2 0x1AA DUP1 PUSH2 0x1C PUSH0 CODECOPY PUSH0 RETURN INVALID PUSH1 0x80 PUSH1 0x40 MSTORE CALLVALUE DUP1 ISZERO PUSH2 0xF JUMPI PUSH0 DUP1 REVERT JUMPDEST POP PUSH1 0x4 CALLDATASIZE LT PUSH2 0x34 JUMPI PUSH0 CALLDATALOAD PUSH1 0xE0 SHR DUP1 PUSH4 0x121596E EQ PUSH2 0x38 JUMPI DUP1 PUSH4 0xFE90C428 EQ PUSH2 0x69 JUMPI JUMPDEST PUSH0 DUP1 REVERT JUMPDEST PUSH2 0x57 PUSH2 0x46 CALLDATASIZE PUSH1 0x4 PUSH2 0x107 JUMP JUMPDEST PUSH0 PUSH1 0x20 DUP2 SWAP1 MSTORE SWAP1 DUP2 MSTORE PUSH1 0x40 SWAP1 KECCAK256 SLOAD DUP2 JUMP JUMPDEST PUSH1 0x40 MLOAD SWAP1 DUP2 MSTORE PUSH1 0x20 ADD PUSH1 0x40 MLOAD DUP1 SWAP2 SUB SWAP1 RETURN JUMPDEST PUSH2 0x7C PUSH2 0x77 CALLDATASIZE PUSH1 0x4 PUSH2 0x127 JUMP JUMPDEST PUSH2 0x7E JUMP JUMPDEST STOP JUMPDEST PUSH1 0x1 PUSH1 0x1 PUSH1 0xA0 SHL SUB DUP3 AND PUSH0 SWAP1 DUP2 MSTORE PUSH1 0x20 DUP2 SWAP1 MSTORE PUSH1 0x40 DUP2 KECCAK256 DUP1 SLOAD DUP4 SWAP3 SWAP1 PUSH2 0xA5 SWAP1 DUP5 SWAP1 PUSH2 0x14F JUMP JUMPDEST SWAP1 SWAP2 SSTORE POP POP PUSH1 0x40 MLOAD DUP2 DUP2 MSTORE PUSH1 0x1 PUSH1 0x1 PUSH1 0xA0 SHL SUB DUP4 AND SWAP1 PUSH32 0xF24C74DB7467644A13909E8BCE0FE9D5523191C8E26430C1A6536D9ADE7891B7 SWAP1 PUSH1 0x20 ADD PUSH1 0x40 MLOAD DUP1 SWAP2 SUB SWAP1 LOG2 POP POP JUMP JUMPDEST DUP1 CALLDATALOAD PUSH1 0x1 PUSH1 0x1 PUSH1 0xA0 SHL SUB DUP2 AND DUP2 EQ PUSH2 0x102 JUMPI PUSH0 DUP1 REVERT JUMPDEST SWAP2 SWAP1 POP JUMP JUMPDEST PUSH0 PUSH1 0x20 DUP3 DUP5 SUB SLT ISZERO PUSH2 0x117 JUMPI PUSH0 DUP1 REVERT JUMPDEST PUSH2 0x120 DUP3 PUSH2 0xEC JUMP JUMPDEST SWAP4 SWAP3 POP POP POP JUMP JUMPDEST PUSH0 DUP1 PUSH1 0x40 DUP4 DUP6 SUB SLT ISZERO PUSH2 0x138 JUMPI PUSH0 DUP1 REVERT JUMPDEST PUSH2 0x141 DUP4 PUSH2 0xEC JUMP JUMPDEST SWAP5 PUSH1 0x20 SWAP4 SWAP1 SWAP4 ADD CALLDATALOAD SWAP4 POP POP POP JUMP JUMPDEST DUP1 DUP3 ADD DUP1 DUP3 GT ISZERO PUSH2 0x16E JUMPI PUSH4 0x4E487B71 PUSH1 0xE0 SHL PUSH0 MSTORE PUSH1 0x11 PUSH1 0x4 MSTORE PUSH1 0x24 PUSH0 REVERT JUMPDEST SWAP3 SWAP2 POP POP JUMP INVALID LOG2 PUSH5 0x6970667358 0x22 SLT KECCAK256 POP PUSH24 0x298A8637D4BC23A1F362DBE47F7A6EDF533B0084F30B2914 NUMBER PUSH3 0x5B2F70 MLOAD PUSH5 0x736F6C6343 STOP ADDMOD NOT STOP CALLER "
				},
				"gasEstimates": {
					"creation": {
						"codeDepositCost": "85200",
						"executionCost": "133",
						"totalCost": "85333"
					},
					"external": {
						"distributeWater(address,uint256)": "26173",
						"waterCredits(address)": "2485"
					}
				},
				"methodIdentifiers": {
					"distributeWater(address,uint256)": "fe90c428",
					"waterCredits(address)": "0121596e"
				}
			},
			"storageLayout": {
				"storage": [
					{
						"astId": 5,
						"contract": "Watermanagment.sol:WaterResourceManagement",
						"label": "waterCredits",
						"offset": 0,
						"slot": "0",
						"type": "t_mapping(t_address,t_uint256)"
					}
				],
				"types": {
					"t_address": {
						"encoding": "inplace",
						"label": "address",
						"numberOfBytes": "20"
					},
					"t_mapping(t_address,t_uint256)": {
						"encoding": "mapping",
						"key": "t_address",
						"label": "mapping(address => uint256)",
						"numberOfBytes": "32",
						"value": "t_uint256"
					},
					"t_uint256": {
						"encoding": "inplace",
						"label": "uint256",
						"numberOfBytes": "32"
					}
				}
			},
			"userdoc": {
				"kind": "user",
				"methods": {},
				"version": 1
			}
		}
	}
}