{
	"Citibank.sol": {
		"GlobalDebtCancellationFund": {
			"abi": [
				{
					"inputs": [],
					"stateMutability": "nonpayable",
					"type": "constructor"
				},
				{
					"anonymous": false,
					"inputs": [
						{
							"indexed": false,
							"internalType": "string",
							"name": "message",
							"type": "string"
						}
					],
					"name": "AuditLogGenerated",
					"type": "event"
				},
				{
					"anonymous": false,
					"inputs": [
						{
							"indexed": true,
							"internalType": "address",
							"name": "contributor",
							"type": "address"
						},
						{
							"indexed": false,
							"internalType": "uint256",
							"name": "amount",
							"type": "uint256"
						}
					],
					"name": "ContributionReceived",
					"type": "event"
				},
				{
					"anonymous": false,
					"inputs": [
						{
							"indexed": false,
							"internalType": "uint256",
							"name": "amountCancelled",
							"type": "uint256"
						}
					],
					"name": "DebtCancelled",
					"type": "event"
				},
				{
					"anonymous": false,
					"inputs": [
						{
							"indexed": false,
							"internalType": "uint256",
							"name": "amount",
							"type": "uint256"
						}
					],
					"name": "FundTransferredToCitibankchain",
					"type": "event"
				},
				{
					"inputs": [
						{
							"internalType": "uint256",
							"name": "_amount",
							"type": "uint256"
						}
					],
					"name": "cancelGlobalDebt",
					"outputs": [],
					"stateMutability": "nonpayable",
					"type": "function"
				},
				{
					"inputs": [],
					"name": "fundBalance",
					"outputs": [
						{
							"internalType": "uint256",
							"name": "",
							"type": "uint256"
						}
					],
					"stateMutability": "view",
					"type": "function"
				},
				{
					"inputs": [],
					"name": "owner",
					"outputs": [
						{
							"internalType": "address",
							"name": "",
							"type": "address"
						}
					],
					"stateMutability": "view",
					"type": "function"
				},
				{
					"inputs": [
						{
							"internalType": "uint256",
							"name": "_amount",
							"type": "uint256"
						}
					],
					"name": "transferFundsToCitibankchain",
					"outputs": [],
					"stateMutability": "nonpayable",
					"type": "function"
				},
				{
					"stateMutability": "payable",
					"type": "receive"
				}
			],
			"devdoc": {
				"kind": "dev",
				"methods": {},
				"version": 1
			},
			"evm": {
				"assembly": "    /* \"Citibank.sol\":60:1629  contract GlobalDebtCancellationFund {... */\n  mstore(0x40, 0x80)\n    /* \"Citibank.sol\":159:160  0 */\n  0x00\n    /* \"Citibank.sol\":130:160  uint256 public fundBalance = 0 */\n  0x01\n  sstore\n    /* \"Citibank.sol\":503:554  constructor() {... */\n  callvalue\n  dup1\n  iszero\n  tag_1\n  jumpi\n  0x00\n  dup1\n  revert\ntag_1:\n  pop\n    /* \"Citibank.sol\":536:546  msg.sender */\n  caller\n    /* \"Citibank.sol\":528:533  owner */\n  0x00\n  dup1\n    /* \"Citibank.sol\":528:546  owner = msg.sender */\n  0x0100\n  exp\n  dup2\n  sload\n  dup2\n  0xffffffffffffffffffffffffffffffffffffffff\n  mul\n  not\n  and\n  swap1\n  dup4\n  0xffffffffffffffffffffffffffffffffffffffff\n  and\n  mul\n  or\n  swap1\n  sstore\n  pop\n    /* \"Citibank.sol\":60:1629  contract GlobalDebtCancellationFund {... */\n  dataSize(sub_0)\n  dup1\n  dataOffset(sub_0)\n  0x00\n  codecopy\n  0x00\n  return\nstop\n\nsub_0: assembly {\n        /* \"Citibank.sol\":60:1629  contract GlobalDebtCancellationFund {... */\n      mstore(0x40, 0x80)\n      jumpi(tag_1, lt(calldatasize, 0x04))\n      shr(0xe0, calldataload(0x00))\n      dup1\n      0x3c067945\n      eq\n      tag_3\n      jumpi\n      dup1\n      0x61324da2\n      eq\n      tag_4\n      jumpi\n      dup1\n      0x8da5cb5b\n      eq\n      tag_5\n      jumpi\n      dup1\n      0xcdfbc5a9\n      eq\n      tag_6\n      jumpi\n      jump(tag_2)\n    tag_1:\n      jumpi(tag_2, calldatasize)\n        /* \"Citibank.sol\":746:755  msg.value */\n      callvalue\n        /* \"Citibank.sol\":731:742  fundBalance */\n      0x01\n      0x00\n        /* \"Citibank.sol\":731:755  fundBalance += msg.value */\n      dup3\n      dup3\n      sload\n      tag_9\n      swap2\n      swap1\n      tag_10\n      jump\t// in\n    tag_9:\n      swap3\n      pop\n      pop\n      dup2\n      swap1\n      sstore\n      pop\n        /* \"Citibank.sol\":792:802  msg.sender */\n      caller\n        /* \"Citibank.sol\":771:814  ContributionReceived(msg.sender, msg.value) */\n      0xffffffffffffffffffffffffffffffffffffffff\n      and\n      0x1bb460ccaaf70fbacfec17a376f8acbd278c1405590ffcc8ebe4b88daf4f64ad\n        /* \"Citibank.sol\":804:813  msg.value */\n      callvalue\n        /* \"Citibank.sol\":771:814  ContributionReceived(msg.sender, msg.value) */\n      mload(0x40)\n      tag_11\n      swap2\n      swap1\n      tag_12\n      jump\t// in\n    tag_11:\n      mload(0x40)\n      dup1\n      swap2\n      sub\n      swap1\n      log2\n        /* \"Citibank.sol\":830:872  AuditLogGenerated(\"Contribution received\") */\n      0xa8f68054527106a8a9d29e1b7662bdb1c0f63e585e2a2dd00b32a71d6eda8412\n      mload(0x40)\n      tag_13\n      swap1\n      tag_14\n      jump\t// in\n    tag_13:\n      mload(0x40)\n      dup1\n      swap2\n      sub\n      swap1\n      log1\n        /* \"Citibank.sol\":60:1629  contract GlobalDebtCancellationFund {... */\n      stop\n    tag_2:\n      0x00\n      dup1\n      revert\n        /* \"Citibank.sol\":130:160  uint256 public fundBalance = 0 */\n    tag_3:\n      callvalue\n      dup1\n      iszero\n      tag_15\n      jumpi\n      0x00\n      dup1\n      revert\n    tag_15:\n      pop\n      tag_16\n      tag_17\n      jump\t// in\n    tag_16:\n      mload(0x40)\n      tag_18\n      swap2\n      swap1\n      tag_12\n      jump\t// in\n    tag_18:\n      mload(0x40)\n      dup1\n      swap2\n      sub\n      swap1\n      return\n        /* \"Citibank.sol\":888:1171  function cancelGlobalDebt(uint256 _amount) external onlyOwner {... */\n    tag_4:\n      callvalue\n      dup1\n      iszero\n      tag_19\n      jumpi\n      0x00\n      dup1\n      revert\n    tag_19:\n      pop\n      tag_20\n      0x04\n      dup1\n      calldatasize\n      sub\n      dup2\n      add\n      swap1\n      tag_21\n      swap2\n      swap1\n      tag_22\n      jump\t// in\n    tag_21:\n      tag_23\n      jump\t// in\n    tag_20:\n      stop\n        /* \"Citibank.sol\":103:123  address public owner */\n    tag_5:\n      callvalue\n      dup1\n      iszero\n      tag_24\n      jumpi\n      0x00\n      dup1\n      revert\n    tag_24:\n      pop\n      tag_25\n      tag_26\n      jump\t// in\n    tag_25:\n      mload(0x40)\n      tag_27\n      swap2\n      swap1\n      tag_28\n      jump\t// in\n    tag_27:\n      mload(0x40)\n      dup1\n      swap2\n      sub\n      swap1\n      return\n        /* \"Citibank.sol\":1179:1626  function transferFundsToCitibankchain(uint256 _amount) external onlyOwner {... */\n    tag_6:\n      callvalue\n      dup1\n      iszero\n      tag_29\n      jumpi\n      0x00\n      dup1\n      revert\n    tag_29:\n      pop\n      tag_30\n      0x04\n      dup1\n      calldatasize\n      sub\n      dup2\n      add\n      swap1\n      tag_31\n      swap2\n      swap1\n      tag_22\n      jump\t// in\n    tag_31:\n      tag_32\n      jump\t// in\n    tag_30:\n      stop\n        /* \"Citibank.sol\":130:160  uint256 public fundBalance = 0 */\n    tag_17:\n      sload(0x01)\n      dup2\n      jump\t// out\n        /* \"Citibank.sol\":888:1171  function cancelGlobalDebt(uint256 _amount) external onlyOwner {... */\n    tag_23:\n        /* \"Citibank.sol\":616:621  owner */\n      0x00\n      dup1\n      sload\n      swap1\n      0x0100\n      exp\n      swap1\n      div\n      0xffffffffffffffffffffffffffffffffffffffff\n      and\n        /* \"Citibank.sol\":602:621  msg.sender == owner */\n      0xffffffffffffffffffffffffffffffffffffffff\n      and\n        /* \"Citibank.sol\":602:612  msg.sender */\n      caller\n        /* \"Citibank.sol\":602:621  msg.sender == owner */\n      0xffffffffffffffffffffffffffffffffffffffff\n      and\n      eq\n        /* \"Citibank.sol\":594:665  require(msg.sender == owner, \"Only the owner can perform this action.\") */\n      tag_34\n      jumpi\n      mload(0x40)\n      0x08c379a000000000000000000000000000000000000000000000000000000000\n      dup2\n      mstore\n      0x04\n      add\n      tag_35\n      swap1\n      tag_36\n      jump\t// in\n    tag_35:\n      mload(0x40)\n      dup1\n      swap2\n      sub\n      swap1\n      revert\n    tag_34:\n        /* \"Citibank.sol\":980:991  fundBalance */\n      sload(0x01)\n        /* \"Citibank.sol\":969:976  _amount */\n      dup2\n        /* \"Citibank.sol\":969:991  _amount <= fundBalance */\n      gt\n      iszero\n        /* \"Citibank.sol\":961:1034  require(_amount <= fundBalance, \"Insufficient funds for this operation.\") */\n      tag_38\n      jumpi\n      mload(0x40)\n      0x08c379a000000000000000000000000000000000000000000000000000000000\n      dup2\n      mstore\n      0x04\n      add\n      tag_39\n      swap1\n      tag_40\n      jump\t// in\n    tag_39:\n      mload(0x40)\n      dup1\n      swap2\n      sub\n      swap1\n      revert\n    tag_38:\n        /* \"Citibank.sol\":1060:1067  _amount */\n      dup1\n        /* \"Citibank.sol\":1045:1056  fundBalance */\n      0x01\n      0x00\n        /* \"Citibank.sol\":1045:1067  fundBalance -= _amount */\n      dup3\n      dup3\n      sload\n      tag_41\n      swap2\n      swap1\n      tag_42\n      jump\t// in\n    tag_41:\n      swap3\n      pop\n      pop\n      dup2\n      swap1\n      sstore\n      pop\n        /* \"Citibank.sol\":1083:1105  DebtCancelled(_amount) */\n      0x8b647e474fa90bb17f05e8986032c988bb1215b542fe2272c0917832bad3b06c\n        /* \"Citibank.sol\":1097:1104  _amount */\n      dup2\n        /* \"Citibank.sol\":1083:1105  DebtCancelled(_amount) */\n      mload(0x40)\n      tag_43\n      swap2\n      swap1\n      tag_12\n      jump\t// in\n    tag_43:\n      mload(0x40)\n      dup1\n      swap2\n      sub\n      swap1\n      log1\n        /* \"Citibank.sol\":1121:1163  AuditLogGenerated(\"Global debt cancelled\") */\n      0xa8f68054527106a8a9d29e1b7662bdb1c0f63e585e2a2dd00b32a71d6eda8412\n      mload(0x40)\n      tag_44\n      swap1\n      tag_45\n      jump\t// in\n    tag_44:\n      mload(0x40)\n      dup1\n      swap2\n      sub\n      swap1\n      log1\n        /* \"Citibank.sol\":888:1171  function cancelGlobalDebt(uint256 _amount) external onlyOwner {... */\n      pop\n      jump\t// out\n        /* \"Citibank.sol\":103:123  address public owner */\n    tag_26:\n      0x00\n      dup1\n      sload\n      swap1\n      0x0100\n      exp\n      swap1\n      div\n      0xffffffffffffffffffffffffffffffffffffffff\n      and\n      dup2\n      jump\t// out\n        /* \"Citibank.sol\":1179:1626  function transferFundsToCitibankchain(uint256 _amount) external onlyOwner {... */\n    tag_32:\n        /* \"Citibank.sol\":616:621  owner */\n      0x00\n      dup1\n      sload\n      swap1\n      0x0100\n      exp\n      swap1\n      div\n      0xffffffffffffffffffffffffffffffffffffffff\n      and\n        /* \"Citibank.sol\":602:621  msg.sender == owner */\n      0xffffffffffffffffffffffffffffffffffffffff\n      and\n        /* \"Citibank.sol\":602:612  msg.sender */\n      caller\n        /* \"Citibank.sol\":602:621  msg.sender == owner */\n      0xffffffffffffffffffffffffffffffffffffffff\n      and\n      eq\n        /* \"Citibank.sol\":594:665  require(msg.sender == owner, \"Only the owner can perform this action.\") */\n      tag_47\n      jumpi\n      mload(0x40)\n      0x08c379a000000000000000000000000000000000000000000000000000000000\n      dup2\n      mstore\n      0x04\n      add\n      tag_48\n      swap1\n      tag_36\n      jump\t// in\n    tag_48:\n      mload(0x40)\n      dup1\n      swap2\n      sub\n      swap1\n      revert\n    tag_47:\n        /* \"Citibank.sol\":1283:1294  fundBalance */\n      sload(0x01)\n        /* \"Citibank.sol\":1272:1279  _amount */\n      dup2\n        /* \"Citibank.sol\":1272:1294  _amount <= fundBalance */\n      gt\n      iszero\n        /* \"Citibank.sol\":1264:1336  require(_amount <= fundBalance, \"Insufficient funds for this transfer.\") */\n      tag_50\n      jumpi\n      mload(0x40)\n      0x08c379a000000000000000000000000000000000000000000000000000000000\n      dup2\n      mstore\n      0x04\n      add\n      tag_51\n      swap1\n      tag_52\n      jump\t// in\n    tag_51:\n      mload(0x40)\n      dup1\n      swap2\n      sub\n      swap1\n      revert\n    tag_50:\n        /* \"Citibank.sol\":1362:1369  _amount */\n      dup1\n        /* \"Citibank.sol\":1347:1358  fundBalance */\n      0x01\n      0x00\n        /* \"Citibank.sol\":1347:1369  fundBalance -= _amount */\n      dup3\n      dup3\n      sload\n      tag_53\n      swap2\n      swap1\n      tag_42\n      jump\t// in\n    tag_53:\n      swap3\n      pop\n      pop\n      dup2\n      swap1\n      sstore\n      pop\n        /* \"Citibank.sol\":1381:1393  bool success */\n      0x00\n        /* \"Citibank.sol\":216:258  0x00000000219ab540356cBB839Cbe05303d7705Fa */\n      0x219ab540356cbb839cbe05303d7705fa\n        /* \"Citibank.sol\":1399:1425  CITIBANKCHAIN_ADDRESS.call */\n      0xffffffffffffffffffffffffffffffffffffffff\n      and\n        /* \"Citibank.sol\":1433:1440  _amount */\n      dup3\n        /* \"Citibank.sol\":1399:1445  CITIBANKCHAIN_ADDRESS.call{value: _amount}(\"\") */\n      mload(0x40)\n      tag_54\n      swap1\n      tag_55\n      jump\t// in\n    tag_54:\n      0x00\n      mload(0x40)\n      dup1\n      dup4\n      sub\n      dup2\n      dup6\n      dup8\n      gas\n      call\n      swap3\n      pop\n      pop\n      pop\n      returndatasize\n      dup1\n      0x00\n      dup2\n      eq\n      tag_58\n      jumpi\n      mload(0x40)\n      swap2\n      pop\n      and(add(returndatasize, 0x3f), not(0x1f))\n      dup3\n      add\n      0x40\n      mstore\n      returndatasize\n      dup3\n      mstore\n      returndatasize\n      0x00\n      0x20\n      dup5\n      add\n      returndatacopy\n      jump(tag_57)\n    tag_58:\n      0x60\n      swap2\n      pop\n    tag_57:\n      pop\n        /* \"Citibank.sol\":1380:1445  (bool success, ) = CITIBANKCHAIN_ADDRESS.call{value: _amount}(\"\") */\n      pop\n      swap1\n      pop\n        /* \"Citibank.sol\":1464:1471  success */\n      dup1\n        /* \"Citibank.sol\":1456:1492  require(success, \"Transfer failed.\") */\n      tag_59\n      jumpi\n      mload(0x40)\n      0x08c379a000000000000000000000000000000000000000000000000000000000\n      dup2\n      mstore\n      0x04\n      add\n      tag_60\n      swap1\n      tag_61\n      jump\t// in\n    tag_60:\n      mload(0x40)\n      dup1\n      swap2\n      sub\n      swap1\n      revert\n    tag_59:\n        /* \"Citibank.sol\":1508:1547  FundTransferredToCitibankchain(_amount) */\n      0xfe1d7aa135ba43977883640bdb1ecc7bca346a58ccc4da3805e631bc3f25d74d\n        /* \"Citibank.sol\":1539:1546  _amount */\n      dup3\n        /* \"Citibank.sol\":1508:1547  FundTransferredToCitibankchain(_amount) */\n      mload(0x40)\n      tag_62\n      swap2\n      swap1\n      tag_12\n      jump\t// in\n    tag_62:\n      mload(0x40)\n      dup1\n      swap2\n      sub\n      swap1\n      log1\n        /* \"Citibank.sol\":1563:1618  AuditLogGenerated(\"Funds transferred to Citibankchain\") */\n      0xa8f68054527106a8a9d29e1b7662bdb1c0f63e585e2a2dd00b32a71d6eda8412\n      mload(0x40)\n      tag_63\n      swap1\n      tag_64\n      jump\t// in\n    tag_63:\n      mload(0x40)\n      dup1\n      swap2\n      sub\n      swap1\n      log1\n        /* \"Citibank.sol\":1253:1626  {... */\n      pop\n        /* \"Citibank.sol\":1179:1626  function transferFundsToCitibankchain(uint256 _amount) external onlyOwner {... */\n      pop\n      jump\t// out\n        /* \"#utility.yul\":7:84   */\n    tag_65:\n        /* \"#utility.yul\":44:51   */\n      0x00\n        /* \"#utility.yul\":73:78   */\n      dup2\n        /* \"#utility.yul\":62:78   */\n      swap1\n      pop\n        /* \"#utility.yul\":7:84   */\n      swap2\n      swap1\n      pop\n      jump\t// out\n        /* \"#utility.yul\":90:270   */\n    tag_66:\n        /* \"#utility.yul\":138:215   */\n      0x4e487b7100000000000000000000000000000000000000000000000000000000\n        /* \"#utility.yul\":135:136   */\n      0x00\n        /* \"#utility.yul\":128:216   */\n      mstore\n        /* \"#utility.yul\":235:239   */\n      0x11\n        /* \"#utility.yul\":232:233   */\n      0x04\n        /* \"#utility.yul\":225:240   */\n      mstore\n        /* \"#utility.yul\":259:263   */\n      0x24\n        /* \"#utility.yul\":256:257   */\n      0x00\n        /* \"#utility.yul\":249:264   */\n      revert\n        /* \"#utility.yul\":276:467   */\n    tag_10:\n        /* \"#utility.yul\":316:319   */\n      0x00\n        /* \"#utility.yul\":335:355   */\n      tag_98\n        /* \"#utility.yul\":353:354   */\n      dup3\n        /* \"#utility.yul\":335:355   */\n      tag_65\n      jump\t// in\n    tag_98:\n        /* \"#utility.yul\":330:355   */\n      swap2\n      pop\n        /* \"#utility.yul\":369:389   */\n      tag_99\n        /* \"#utility.yul\":387:388   */\n      dup4\n        /* \"#utility.yul\":369:389   */\n      tag_65\n      jump\t// in\n    tag_99:\n        /* \"#utility.yul\":364:389   */\n      swap3\n      pop\n        /* \"#utility.yul\":412:413   */\n      dup3\n        /* \"#utility.yul\":409:410   */\n      dup3\n        /* \"#utility.yul\":405:414   */\n      add\n        /* \"#utility.yul\":398:414   */\n      swap1\n      pop\n        /* \"#utility.yul\":433:436   */\n      dup1\n        /* \"#utility.yul\":430:431   */\n      dup3\n        /* \"#utility.yul\":427:437   */\n      gt\n        /* \"#utility.yul\":424:460   */\n      iszero\n      tag_100\n      jumpi\n        /* \"#utility.yul\":440:458   */\n      tag_101\n      tag_66\n      jump\t// in\n    tag_101:\n        /* \"#utility.yul\":424:460   */\n    tag_100:\n        /* \"#utility.yul\":276:467   */\n      swap3\n      swap2\n      pop\n      pop\n      jump\t// out\n        /* \"#utility.yul\":473:591   */\n    tag_67:\n        /* \"#utility.yul\":560:584   */\n      tag_103\n        /* \"#utility.yul\":578:583   */\n      dup2\n        /* \"#utility.yul\":560:584   */\n      tag_65\n      jump\t// in\n    tag_103:\n        /* \"#utility.yul\":555:558   */\n      dup3\n        /* \"#utility.yul\":548:585   */\n      mstore\n        /* \"#utility.yul\":473:591   */\n      pop\n      pop\n      jump\t// out\n        /* \"#utility.yul\":597:819   */\n    tag_12:\n        /* \"#utility.yul\":690:694   */\n      0x00\n        /* \"#utility.yul\":728:730   */\n      0x20\n        /* \"#utility.yul\":717:726   */\n      dup3\n        /* \"#utility.yul\":713:731   */\n      add\n        /* \"#utility.yul\":705:731   */\n      swap1\n      pop\n        /* \"#utility.yul\":741:812   */\n      tag_105\n        /* \"#utility.yul\":809:810   */\n      0x00\n        /* \"#utility.yul\":798:807   */\n      dup4\n        /* \"#utility.yul\":794:811   */\n      add\n        /* \"#utility.yul\":785:791   */\n      dup5\n        /* \"#utility.yul\":741:812   */\n      tag_67\n      jump\t// in\n    tag_105:\n        /* \"#utility.yul\":597:819   */\n      swap3\n      swap2\n      pop\n      pop\n      jump\t// out\n        /* \"#utility.yul\":825:994   */\n    tag_68:\n        /* \"#utility.yul\":909:920   */\n      0x00\n        /* \"#utility.yul\":943:949   */\n      dup3\n        /* \"#utility.yul\":938:941   */\n      dup3\n        /* \"#utility.yul\":931:950   */\n      mstore\n        /* \"#utility.yul\":983:987   */\n      0x20\n        /* \"#utility.yul\":978:981   */\n      dup3\n        /* \"#utility.yul\":974:988   */\n      add\n        /* \"#utility.yul\":959:988   */\n      swap1\n      pop\n        /* \"#utility.yul\":825:994   */\n      swap3\n      swap2\n      pop\n      pop\n      jump\t// out\n        /* \"#utility.yul\":1000:1171   */\n    tag_69:\n        /* \"#utility.yul\":1140:1163   */\n      0x436f6e747269627574696f6e2072656365697665640000000000000000000000\n        /* \"#utility.yul\":1136:1137   */\n      0x00\n        /* \"#utility.yul\":1128:1134   */\n      dup3\n        /* \"#utility.yul\":1124:1138   */\n      add\n        /* \"#utility.yul\":1117:1164   */\n      mstore\n        /* \"#utility.yul\":1000:1171   */\n      pop\n      jump\t// out\n        /* \"#utility.yul\":1177:1543   */\n    tag_70:\n        /* \"#utility.yul\":1319:1322   */\n      0x00\n        /* \"#utility.yul\":1340:1407   */\n      tag_109\n        /* \"#utility.yul\":1404:1406   */\n      0x15\n        /* \"#utility.yul\":1399:1402   */\n      dup4\n        /* \"#utility.yul\":1340:1407   */\n      tag_68\n      jump\t// in\n    tag_109:\n        /* \"#utility.yul\":1333:1407   */\n      swap2\n      pop\n        /* \"#utility.yul\":1416:1509   */\n      tag_110\n        /* \"#utility.yul\":1505:1508   */\n      dup3\n        /* \"#utility.yul\":1416:1509   */\n      tag_69\n      jump\t// in\n    tag_110:\n        /* \"#utility.yul\":1534:1536   */\n      0x20\n        /* \"#utility.yul\":1529:1532   */\n      dup3\n        /* \"#utility.yul\":1525:1537   */\n      add\n        /* \"#utility.yul\":1518:1537   */\n      swap1\n      pop\n        /* \"#utility.yul\":1177:1543   */\n      swap2\n      swap1\n      pop\n      jump\t// out\n        /* \"#utility.yul\":1549:1968   */\n    tag_14:\n        /* \"#utility.yul\":1715:1719   */\n      0x00\n        /* \"#utility.yul\":1753:1755   */\n      0x20\n        /* \"#utility.yul\":1742:1751   */\n      dup3\n        /* \"#utility.yul\":1738:1756   */\n      add\n        /* \"#utility.yul\":1730:1756   */\n      swap1\n      pop\n        /* \"#utility.yul\":1802:1811   */\n      dup2\n        /* \"#utility.yul\":1796:1800   */\n      dup2\n        /* \"#utility.yul\":1792:1812   */\n      sub\n        /* \"#utility.yul\":1788:1789   */\n      0x00\n        /* \"#utility.yul\":1777:1786   */\n      dup4\n        /* \"#utility.yul\":1773:1790   */\n      add\n        /* \"#utility.yul\":1766:1813   */\n      mstore\n        /* \"#utility.yul\":1830:1961   */\n      tag_112\n        /* \"#utility.yul\":1956:1960   */\n      dup2\n        /* \"#utility.yul\":1830:1961   */\n      tag_70\n      jump\t// in\n    tag_112:\n        /* \"#utility.yul\":1822:1961   */\n      swap1\n      pop\n        /* \"#utility.yul\":1549:1968   */\n      swap2\n      swap1\n      pop\n      jump\t// out\n        /* \"#utility.yul\":2055:2172   */\n    tag_72:\n        /* \"#utility.yul\":2164:2165   */\n      0x00\n        /* \"#utility.yul\":2161:2162   */\n      dup1\n        /* \"#utility.yul\":2154:2166   */\n      revert\n        /* \"#utility.yul\":2301:2423   */\n    tag_74:\n        /* \"#utility.yul\":2374:2398   */\n      tag_117\n        /* \"#utility.yul\":2392:2397   */\n      dup2\n        /* \"#utility.yul\":2374:2398   */\n      tag_65\n      jump\t// in\n    tag_117:\n        /* \"#utility.yul\":2367:2372   */\n      dup2\n        /* \"#utility.yul\":2364:2399   */\n      eq\n        /* \"#utility.yul\":2354:2417   */\n      tag_118\n      jumpi\n        /* \"#utility.yul\":2413:2414   */\n      0x00\n        /* \"#utility.yul\":2410:2411   */\n      dup1\n        /* \"#utility.yul\":2403:2415   */\n      revert\n        /* \"#utility.yul\":2354:2417   */\n    tag_118:\n        /* \"#utility.yul\":2301:2423   */\n      pop\n      jump\t// out\n        /* \"#utility.yul\":2429:2568   */\n    tag_75:\n        /* \"#utility.yul\":2475:2480   */\n      0x00\n        /* \"#utility.yul\":2513:2519   */\n      dup2\n        /* \"#utility.yul\":2500:2520   */\n      calldataload\n        /* \"#utility.yul\":2491:2520   */\n      swap1\n      pop\n        /* \"#utility.yul\":2529:2562   */\n      tag_120\n        /* \"#utility.yul\":2556:2561   */\n      dup2\n        /* \"#utility.yul\":2529:2562   */\n      tag_74\n      jump\t// in\n    tag_120:\n        /* \"#utility.yul\":2429:2568   */\n      swap3\n      swap2\n      pop\n      pop\n      jump\t// out\n        /* \"#utility.yul\":2574:2903   */\n    tag_22:\n        /* \"#utility.yul\":2633:2639   */\n      0x00\n        /* \"#utility.yul\":2682:2684   */\n      0x20\n        /* \"#utility.yul\":2670:2679   */\n      dup3\n        /* \"#utility.yul\":2661:2668   */\n      dup5\n        /* \"#utility.yul\":2657:2680   */\n      sub\n        /* \"#utility.yul\":2653:2685   */\n      slt\n        /* \"#utility.yul\":2650:2769   */\n      iszero\n      tag_122\n      jumpi\n        /* \"#utility.yul\":2688:2767   */\n      tag_123\n      tag_72\n      jump\t// in\n    tag_123:\n        /* \"#utility.yul\":2650:2769   */\n    tag_122:\n        /* \"#utility.yul\":2808:2809   */\n      0x00\n        /* \"#utility.yul\":2833:2886   */\n      tag_124\n        /* \"#utility.yul\":2878:2885   */\n      dup5\n        /* \"#utility.yul\":2869:2875   */\n      dup3\n        /* \"#utility.yul\":2858:2867   */\n      dup6\n        /* \"#utility.yul\":2854:2876   */\n      add\n        /* \"#utility.yul\":2833:2886   */\n      tag_75\n      jump\t// in\n    tag_124:\n        /* \"#utility.yul\":2823:2886   */\n      swap2\n      pop\n        /* \"#utility.yul\":2779:2896   */\n      pop\n        /* \"#utility.yul\":2574:2903   */\n      swap3\n      swap2\n      pop\n      pop\n      jump\t// out\n        /* \"#utility.yul\":2909:3035   */\n    tag_76:\n        /* \"#utility.yul\":2946:2953   */\n      0x00\n        /* \"#utility.yul\":2986:3028   */\n      0xffffffffffffffffffffffffffffffffffffffff\n        /* \"#utility.yul\":2979:2984   */\n      dup3\n        /* \"#utility.yul\":2975:3029   */\n      and\n        /* \"#utility.yul\":2964:3029   */\n      swap1\n      pop\n        /* \"#utility.yul\":2909:3035   */\n      swap2\n      swap1\n      pop\n      jump\t// out\n        /* \"#utility.yul\":3041:3137   */\n    tag_77:\n        /* \"#utility.yul\":3078:3085   */\n      0x00\n        /* \"#utility.yul\":3107:3131   */\n      tag_127\n        /* \"#utility.yul\":3125:3130   */\n      dup3\n        /* \"#utility.yul\":3107:3131   */\n      tag_76\n      jump\t// in\n    tag_127:\n        /* \"#utility.yul\":3096:3131   */\n      swap1\n      pop\n        /* \"#utility.yul\":3041:3137   */\n      swap2\n      swap1\n      pop\n      jump\t// out\n        /* \"#utility.yul\":3143:3261   */\n    tag_78:\n        /* \"#utility.yul\":3230:3254   */\n      tag_129\n        /* \"#utility.yul\":3248:3253   */\n      dup2\n        /* \"#utility.yul\":3230:3254   */\n      tag_77\n      jump\t// in\n    tag_129:\n        /* \"#utility.yul\":3225:3228   */\n      dup3\n        /* \"#utility.yul\":3218:3255   */\n      mstore\n        /* \"#utility.yul\":3143:3261   */\n      pop\n      pop\n      jump\t// out\n        /* \"#utility.yul\":3267:3489   */\n    tag_28:\n        /* \"#utility.yul\":3360:3364   */\n      0x00\n        /* \"#utility.yul\":3398:3400   */\n      0x20\n        /* \"#utility.yul\":3387:3396   */\n      dup3\n        /* \"#utility.yul\":3383:3401   */\n      add\n        /* \"#utility.yul\":3375:3401   */\n      swap1\n      pop\n        /* \"#utility.yul\":3411:3482   */\n      tag_131\n        /* \"#utility.yul\":3479:3480   */\n      0x00\n        /* \"#utility.yul\":3468:3477   */\n      dup4\n        /* \"#utility.yul\":3464:3481   */\n      add\n        /* \"#utility.yul\":3455:3461   */\n      dup5\n        /* \"#utility.yul\":3411:3482   */\n      tag_78\n      jump\t// in\n    tag_131:\n        /* \"#utility.yul\":3267:3489   */\n      swap3\n      swap2\n      pop\n      pop\n      jump\t// out\n        /* \"#utility.yul\":3495:3721   */\n    tag_79:\n        /* \"#utility.yul\":3635:3669   */\n      0x4f6e6c7920746865206f776e65722063616e20706572666f726d207468697320\n        /* \"#utility.yul\":3631:3632   */\n      0x00\n        /* \"#utility.yul\":3623:3629   */\n      dup3\n        /* \"#utility.yul\":3619:3633   */\n      add\n        /* \"#utility.yul\":3612:3670   */\n      mstore\n        /* \"#utility.yul\":3704:3713   */\n      0x616374696f6e2e00000000000000000000000000000000000000000000000000\n        /* \"#utility.yul\":3699:3701   */\n      0x20\n        /* \"#utility.yul\":3691:3697   */\n      dup3\n        /* \"#utility.yul\":3687:3702   */\n      add\n        /* \"#utility.yul\":3680:3714   */\n      mstore\n        /* \"#utility.yul\":3495:3721   */\n      pop\n      jump\t// out\n        /* \"#utility.yul\":3727:4093   */\n    tag_80:\n        /* \"#utility.yul\":3869:3872   */\n      0x00\n        /* \"#utility.yul\":3890:3957   */\n      tag_134\n        /* \"#utility.yul\":3954:3956   */\n      0x27\n        /* \"#utility.yul\":3949:3952   */\n      dup4\n        /* \"#utility.yul\":3890:3957   */\n      tag_68\n      jump\t// in\n    tag_134:\n        /* \"#utility.yul\":3883:3957   */\n      swap2\n      pop\n        /* \"#utility.yul\":3966:4059   */\n      tag_135\n        /* \"#utility.yul\":4055:4058   */\n      dup3\n        /* \"#utility.yul\":3966:4059   */\n      tag_79\n      jump\t// in\n    tag_135:\n        /* \"#utility.yul\":4084:4086   */\n      0x40\n        /* \"#utility.yul\":4079:4082   */\n      dup3\n        /* \"#utility.yul\":4075:4087   */\n      add\n        /* \"#utility.yul\":4068:4087   */\n      swap1\n      pop\n        /* \"#utility.yul\":3727:4093   */\n      swap2\n      swap1\n      pop\n      jump\t// out\n        /* \"#utility.yul\":4099:4518   */\n    tag_36:\n        /* \"#utility.yul\":4265:4269   */\n      0x00\n        /* \"#utility.yul\":4303:4305   */\n      0x20\n        /* \"#utility.yul\":4292:4301   */\n      dup3\n        /* \"#utility.yul\":4288:4306   */\n      add\n        /* \"#utility.yul\":4280:4306   */\n      swap1\n      pop\n        /* \"#utility.yul\":4352:4361   */\n      dup2\n        /* \"#utility.yul\":4346:4350   */\n      dup2\n        /* \"#utility.yul\":4342:4362   */\n      sub\n        /* \"#utility.yul\":4338:4339   */\n      0x00\n        /* \"#utility.yul\":4327:4336   */\n      dup4\n        /* \"#utility.yul\":4323:4340   */\n      add\n        /* \"#utility.yul\":4316:4363   */\n      mstore\n        /* \"#utility.yul\":4380:4511   */\n      tag_137\n        /* \"#utility.yul\":4506:4510   */\n      dup2\n        /* \"#utility.yul\":4380:4511   */\n      tag_80\n      jump\t// in\n    tag_137:\n        /* \"#utility.yul\":4372:4511   */\n      swap1\n      pop\n        /* \"#utility.yul\":4099:4518   */\n      swap2\n      swap1\n      pop\n      jump\t// out\n        /* \"#utility.yul\":4524:4749   */\n    tag_81:\n        /* \"#utility.yul\":4664:4698   */\n      0x496e73756666696369656e742066756e647320666f722074686973206f706572\n        /* \"#utility.yul\":4660:4661   */\n      0x00\n        /* \"#utility.yul\":4652:4658   */\n      dup3\n        /* \"#utility.yul\":4648:4662   */\n      add\n        /* \"#utility.yul\":4641:4699   */\n      mstore\n        /* \"#utility.yul\":4733:4741   */\n      0x6174696f6e2e0000000000000000000000000000000000000000000000000000\n        /* \"#utility.yul\":4728:4730   */\n      0x20\n        /* \"#utility.yul\":4720:4726   */\n      dup3\n        /* \"#utility.yul\":4716:4731   */\n      add\n        /* \"#utility.yul\":4709:4742   */\n      mstore\n        /* \"#utility.yul\":4524:4749   */\n      pop\n      jump\t// out\n        /* \"#utility.yul\":4755:5121   */\n    tag_82:\n        /* \"#utility.yul\":4897:4900   */\n      0x00\n        /* \"#utility.yul\":4918:4985   */\n      tag_140\n        /* \"#utility.yul\":4982:4984   */\n      0x26\n        /* \"#utility.yul\":4977:4980   */\n      dup4\n        /* \"#utility.yul\":4918:4985   */\n      tag_68\n      jump\t// in\n    tag_140:\n        /* \"#utility.yul\":4911:4985   */\n      swap2\n      pop\n        /* \"#utility.yul\":4994:5087   */\n      tag_141\n        /* \"#utility.yul\":5083:5086   */\n      dup3\n        /* \"#utility.yul\":4994:5087   */\n      tag_81\n      jump\t// in\n    tag_141:\n        /* \"#utility.yul\":5112:5114   */\n      0x40\n        /* \"#utility.yul\":5107:5110   */\n      dup3\n        /* \"#utility.yul\":5103:5115   */\n      add\n        /* \"#utility.yul\":5096:5115   */\n      swap1\n      pop\n        /* \"#utility.yul\":4755:5121   */\n      swap2\n      swap1\n      pop\n      jump\t// out\n        /* \"#utility.yul\":5127:5546   */\n    tag_40:\n        /* \"#utility.yul\":5293:5297   */\n      0x00\n        /* \"#utility.yul\":5331:5333   */\n      0x20\n        /* \"#utility.yul\":5320:5329   */\n      dup3\n        /* \"#utility.yul\":5316:5334   */\n      add\n        /* \"#utility.yul\":5308:5334   */\n      swap1\n      pop\n        /* \"#utility.yul\":5380:5389   */\n      dup2\n        /* \"#utility.yul\":5374:5378   */\n      dup2\n        /* \"#utility.yul\":5370:5390   */\n      sub\n        /* \"#utility.yul\":5366:5367   */\n      0x00\n        /* \"#utility.yul\":5355:5364   */\n      dup4\n        /* \"#utility.yul\":5351:5368   */\n      add\n        /* \"#utility.yul\":5344:5391   */\n      mstore\n        /* \"#utility.yul\":5408:5539   */\n      tag_143\n        /* \"#utility.yul\":5534:5538   */\n      dup2\n        /* \"#utility.yul\":5408:5539   */\n      tag_82\n      jump\t// in\n    tag_143:\n        /* \"#utility.yul\":5400:5539   */\n      swap1\n      pop\n        /* \"#utility.yul\":5127:5546   */\n      swap2\n      swap1\n      pop\n      jump\t// out\n        /* \"#utility.yul\":5552:5746   */\n    tag_42:\n        /* \"#utility.yul\":5592:5596   */\n      0x00\n        /* \"#utility.yul\":5612:5632   */\n      tag_145\n        /* \"#utility.yul\":5630:5631   */\n      dup3\n        /* \"#utility.yul\":5612:5632   */\n      tag_65\n      jump\t// in\n    tag_145:\n        /* \"#utility.yul\":5607:5632   */\n      swap2\n      pop\n        /* \"#utility.yul\":5646:5666   */\n      tag_146\n        /* \"#utility.yul\":5664:5665   */\n      dup4\n        /* \"#utility.yul\":5646:5666   */\n      tag_65\n      jump\t// in\n    tag_146:\n        /* \"#utility.yul\":5641:5666   */\n      swap3\n      pop\n        /* \"#utility.yul\":5690:5691   */\n      dup3\n        /* \"#utility.yul\":5687:5688   */\n      dup3\n        /* \"#utility.yul\":5683:5692   */\n      sub\n        /* \"#utility.yul\":5675:5692   */\n      swap1\n      pop\n        /* \"#utility.yul\":5714:5715   */\n      dup2\n        /* \"#utility.yul\":5708:5712   */\n      dup2\n        /* \"#utility.yul\":5705:5716   */\n      gt\n        /* \"#utility.yul\":5702:5739   */\n      iszero\n      tag_147\n      jumpi\n        /* \"#utility.yul\":5719:5737   */\n      tag_148\n      tag_66\n      jump\t// in\n    tag_148:\n        /* \"#utility.yul\":5702:5739   */\n    tag_147:\n        /* \"#utility.yul\":5552:5746   */\n      swap3\n      swap2\n      pop\n      pop\n      jump\t// out\n        /* \"#utility.yul\":5752:5923   */\n    tag_83:\n        /* \"#utility.yul\":5892:5915   */\n      0x476c6f62616c20646562742063616e63656c6c65640000000000000000000000\n        /* \"#utility.yul\":5888:5889   */\n      0x00\n        /* \"#utility.yul\":5880:5886   */\n      dup3\n        /* \"#utility.yul\":5876:5890   */\n      add\n        /* \"#utility.yul\":5869:5916   */\n      mstore\n        /* \"#utility.yul\":5752:5923   */\n      pop\n      jump\t// out\n        /* \"#utility.yul\":5929:6295   */\n    tag_84:\n        /* \"#utility.yul\":6071:6074   */\n      0x00\n        /* \"#utility.yul\":6092:6159   */\n      tag_151\n        /* \"#utility.yul\":6156:6158   */\n      0x15\n        /* \"#utility.yul\":6151:6154   */\n      dup4\n        /* \"#utility.yul\":6092:6159   */\n      tag_68\n      jump\t// in\n    tag_151:\n        /* \"#utility.yul\":6085:6159   */\n      swap2\n      pop\n        /* \"#utility.yul\":6168:6261   */\n      tag_152\n        /* \"#utility.yul\":6257:6260   */\n      dup3\n        /* \"#utility.yul\":6168:6261   */\n      tag_83\n      jump\t// in\n    tag_152:\n        /* \"#utility.yul\":6286:6288   */\n      0x20\n        /* \"#utility.yul\":6281:6284   */\n      dup3\n        /* \"#utility.yul\":6277:6289   */\n      add\n        /* \"#utility.yul\":6270:6289   */\n      swap1\n      pop\n        /* \"#utility.yul\":5929:6295   */\n      swap2\n      swap1\n      pop\n      jump\t// out\n        /* \"#utility.yul\":6301:6720   */\n    tag_45:\n        /* \"#utility.yul\":6467:6471   */\n      0x00\n        /* \"#utility.yul\":6505:6507   */\n      0x20\n        /* \"#utility.yul\":6494:6503   */\n      dup3\n        /* \"#utility.yul\":6490:6508   */\n      add\n        /* \"#utility.yul\":6482:6508   */\n      swap1\n      pop\n        /* \"#utility.yul\":6554:6563   */\n      dup2\n        /* \"#utility.yul\":6548:6552   */\n      dup2\n        /* \"#utility.yul\":6544:6564   */\n      sub\n        /* \"#utility.yul\":6540:6541   */\n      0x00\n        /* \"#utility.yul\":6529:6538   */\n      dup4\n        /* \"#utility.yul\":6525:6542   */\n      add\n        /* \"#utility.yul\":6518:6565   */\n      mstore\n        /* \"#utility.yul\":6582:6713   */\n      tag_154\n        /* \"#utility.yul\":6708:6712   */\n      dup2\n        /* \"#utility.yul\":6582:6713   */\n      tag_84\n      jump\t// in\n    tag_154:\n        /* \"#utility.yul\":6574:6713   */\n      swap1\n      pop\n        /* \"#utility.yul\":6301:6720   */\n      swap2\n      swap1\n      pop\n      jump\t// out\n        /* \"#utility.yul\":6726:6950   */\n    tag_85:\n        /* \"#utility.yul\":6866:6900   */\n      0x496e73756666696369656e742066756e647320666f722074686973207472616e\n        /* \"#utility.yul\":6862:6863   */\n      0x00\n        /* \"#utility.yul\":6854:6860   */\n      dup3\n        /* \"#utility.yul\":6850:6864   */\n      add\n        /* \"#utility.yul\":6843:6901   */\n      mstore\n        /* \"#utility.yul\":6935:6942   */\n      0x736665722e000000000000000000000000000000000000000000000000000000\n        /* \"#utility.yul\":6930:6932   */\n      0x20\n        /* \"#utility.yul\":6922:6928   */\n      dup3\n        /* \"#utility.yul\":6918:6933   */\n      add\n        /* \"#utility.yul\":6911:6943   */\n      mstore\n        /* \"#utility.yul\":6726:6950   */\n      pop\n      jump\t// out\n        /* \"#utility.yul\":6956:7322   */\n    tag_86:\n        /* \"#utility.yul\":7098:7101   */\n      0x00\n        /* \"#utility.yul\":7119:7186   */\n      tag_157\n        /* \"#utility.yul\":7183:7185   */\n      0x25\n        /* \"#utility.yul\":7178:7181   */\n      dup4\n        /* \"#utility.yul\":7119:7186   */\n      tag_68\n      jump\t// in\n    tag_157:\n        /* \"#utility.yul\":7112:7186   */\n      swap2\n      pop\n        /* \"#utility.yul\":7195:7288   */\n      tag_158\n        /* \"#utility.yul\":7284:7287   */\n      dup3\n        /* \"#utility.yul\":7195:7288   */\n      tag_85\n      jump\t// in\n    tag_158:\n        /* \"#utility.yul\":7313:7315   */\n      0x40\n        /* \"#utility.yul\":7308:7311   */\n      dup3\n        /* \"#utility.yul\":7304:7316   */\n      add\n        /* \"#utility.yul\":7297:7316   */\n      swap1\n      pop\n        /* \"#utility.yul\":6956:7322   */\n      swap2\n      swap1\n      pop\n      jump\t// out\n        /* \"#utility.yul\":7328:7747   */\n    tag_52:\n        /* \"#utility.yul\":7494:7498   */\n      0x00\n        /* \"#utility.yul\":7532:7534   */\n      0x20\n        /* \"#utility.yul\":7521:7530   */\n      dup3\n        /* \"#utility.yul\":7517:7535   */\n      add\n        /* \"#utility.yul\":7509:7535   */\n      swap1\n      pop\n        /* \"#utility.yul\":7581:7590   */\n      dup2\n        /* \"#utility.yul\":7575:7579   */\n      dup2\n        /* \"#utility.yul\":7571:7591   */\n      sub\n        /* \"#utility.yul\":7567:7568   */\n      0x00\n        /* \"#utility.yul\":7556:7565   */\n      dup4\n        /* \"#utility.yul\":7552:7569   */\n      add\n        /* \"#utility.yul\":7545:7592   */\n      mstore\n        /* \"#utility.yul\":7609:7740   */\n      tag_160\n        /* \"#utility.yul\":7735:7739   */\n      dup2\n        /* \"#utility.yul\":7609:7740   */\n      tag_86\n      jump\t// in\n    tag_160:\n        /* \"#utility.yul\":7601:7740   */\n      swap1\n      pop\n        /* \"#utility.yul\":7328:7747   */\n      swap2\n      swap1\n      pop\n      jump\t// out\n        /* \"#utility.yul\":7753:7900   */\n    tag_87:\n        /* \"#utility.yul\":7854:7865   */\n      0x00\n        /* \"#utility.yul\":7891:7894   */\n      dup2\n        /* \"#utility.yul\":7876:7894   */\n      swap1\n      pop\n        /* \"#utility.yul\":7753:7900   */\n      swap3\n      swap2\n      pop\n      pop\n      jump\t// out\n        /* \"#utility.yul\":7906:8020   */\n    tag_88:\n      pop\n      jump\t// out\n        /* \"#utility.yul\":8026:8424   */\n    tag_89:\n        /* \"#utility.yul\":8185:8188   */\n      0x00\n        /* \"#utility.yul\":8206:8289   */\n      tag_164\n        /* \"#utility.yul\":8287:8288   */\n      0x00\n        /* \"#utility.yul\":8282:8285   */\n      dup4\n        /* \"#utility.yul\":8206:8289   */\n      tag_87\n      jump\t// in\n    tag_164:\n        /* \"#utility.yul\":8199:8289   */\n      swap2\n      pop\n        /* \"#utility.yul\":8298:8391   */\n      tag_165\n        /* \"#utility.yul\":8387:8390   */\n      dup3\n        /* \"#utility.yul\":8298:8391   */\n      tag_88\n      jump\t// in\n    tag_165:\n        /* \"#utility.yul\":8416:8417   */\n      0x00\n        /* \"#utility.yul\":8411:8414   */\n      dup3\n        /* \"#utility.yul\":8407:8418   */\n      add\n        /* \"#utility.yul\":8400:8418   */\n      swap1\n      pop\n        /* \"#utility.yul\":8026:8424   */\n      swap2\n      swap1\n      pop\n      jump\t// out\n        /* \"#utility.yul\":8430:8809   */\n    tag_55:\n        /* \"#utility.yul\":8614:8617   */\n      0x00\n        /* \"#utility.yul\":8636:8783   */\n      tag_167\n        /* \"#utility.yul\":8779:8782   */\n      dup3\n        /* \"#utility.yul\":8636:8783   */\n      tag_89\n      jump\t// in\n    tag_167:\n        /* \"#utility.yul\":8629:8783   */\n      swap2\n      pop\n        /* \"#utility.yul\":8800:8803   */\n      dup2\n        /* \"#utility.yul\":8793:8803   */\n      swap1\n      pop\n        /* \"#utility.yul\":8430:8809   */\n      swap2\n      swap1\n      pop\n      jump\t// out\n        /* \"#utility.yul\":8815:8981   */\n    tag_90:\n        /* \"#utility.yul\":8955:8973   */\n      0x5472616e73666572206661696c65642e00000000000000000000000000000000\n        /* \"#utility.yul\":8951:8952   */\n      0x00\n        /* \"#utility.yul\":8943:8949   */\n      dup3\n        /* \"#utility.yul\":8939:8953   */\n      add\n        /* \"#utility.yul\":8932:8974   */\n      mstore\n        /* \"#utility.yul\":8815:8981   */\n      pop\n      jump\t// out\n        /* \"#utility.yul\":8987:9353   */\n    tag_91:\n        /* \"#utility.yul\":9129:9132   */\n      0x00\n        /* \"#utility.yul\":9150:9217   */\n      tag_170\n        /* \"#utility.yul\":9214:9216   */\n      0x10\n        /* \"#utility.yul\":9209:9212   */\n      dup4\n        /* \"#utility.yul\":9150:9217   */\n      tag_68\n      jump\t// in\n    tag_170:\n        /* \"#utility.yul\":9143:9217   */\n      swap2\n      pop\n        /* \"#utility.yul\":9226:9319   */\n      tag_171\n        /* \"#utility.yul\":9315:9318   */\n      dup3\n        /* \"#utility.yul\":9226:9319   */\n      tag_90\n      jump\t// in\n    tag_171:\n        /* \"#utility.yul\":9344:9346   */\n      0x20\n        /* \"#utility.yul\":9339:9342   */\n      dup3\n        /* \"#utility.yul\":9335:9347   */\n      add\n        /* \"#utility.yul\":9328:9347   */\n      swap1\n      pop\n        /* \"#utility.yul\":8987:9353   */\n      swap2\n      swap1\n      pop\n      jump\t// out\n        /* \"#utility.yul\":9359:9778   */\n    tag_61:\n        /* \"#utility.yul\":9525:9529   */\n      0x00\n        /* \"#utility.yul\":9563:9565   */\n      0x20\n        /* \"#utility.yul\":9552:9561   */\n      dup3\n        /* \"#utility.yul\":9548:9566   */\n      add\n        /* \"#utility.yul\":9540:9566   */\n      swap1\n      pop\n        /* \"#utility.yul\":9612:9621   */\n      dup2\n        /* \"#utility.yul\":9606:9610   */\n      dup2\n        /* \"#utility.yul\":9602:9622   */\n      sub\n        /* \"#utility.yul\":9598:9599   */\n      0x00\n        /* \"#utility.yul\":9587:9596   */\n      dup4\n        /* \"#utility.yul\":9583:9600   */\n      add\n        /* \"#utility.yul\":9576:9623   */\n      mstore\n        /* \"#utility.yul\":9640:9771   */\n      tag_173\n        /* \"#utility.yul\":9766:9770   */\n      dup2\n        /* \"#utility.yul\":9640:9771   */\n      tag_91\n      jump\t// in\n    tag_173:\n        /* \"#utility.yul\":9632:9771   */\n      swap1\n      pop\n        /* \"#utility.yul\":9359:9778   */\n      swap2\n      swap1\n      pop\n      jump\t// out\n        /* \"#utility.yul\":9784:10005   */\n    tag_92:\n        /* \"#utility.yul\":9924:9958   */\n      0x46756e6473207472616e7366657272656420746f204369746962616e6b636861\n        /* \"#utility.yul\":9920:9921   */\n      0x00\n        /* \"#utility.yul\":9912:9918   */\n      dup3\n        /* \"#utility.yul\":9908:9922   */\n      add\n        /* \"#utility.yul\":9901:9959   */\n      mstore\n        /* \"#utility.yul\":9993:9997   */\n      0x696e000000000000000000000000000000000000000000000000000000000000\n        /* \"#utility.yul\":9988:9990   */\n      0x20\n        /* \"#utility.yul\":9980:9986   */\n      dup3\n        /* \"#utility.yul\":9976:9991   */\n      add\n        /* \"#utility.yul\":9969:9998   */\n      mstore\n        /* \"#utility.yul\":9784:10005   */\n      pop\n      jump\t// out\n        /* \"#utility.yul\":10011:10377   */\n    tag_93:\n        /* \"#utility.yul\":10153:10156   */\n      0x00\n        /* \"#utility.yul\":10174:10241   */\n      tag_176\n        /* \"#utility.yul\":10238:10240   */\n      0x22\n        /* \"#utility.yul\":10233:10236   */\n      dup4\n        /* \"#utility.yul\":10174:10241   */\n      tag_68\n      jump\t// in\n    tag_176:\n        /* \"#utility.yul\":10167:10241   */\n      swap2\n      pop\n        /* \"#utility.yul\":10250:10343   */\n      tag_177\n        /* \"#utility.yul\":10339:10342   */\n      dup3\n        /* \"#utility.yul\":10250:10343   */\n      tag_92\n      jump\t// in\n    tag_177:\n        /* \"#utility.yul\":10368:10370   */\n      0x40\n        /* \"#utility.yul\":10363:10366   */\n      dup3\n        /* \"#utility.yul\":10359:10371   */\n      add\n        /* \"#utility.yul\":10352:10371   */\n      swap1\n      pop\n        /* \"#utility.yul\":10011:10377   */\n      swap2\n      swap1\n      pop\n      jump\t// out\n        /* \"#utility.yul\":10383:10802   */\n    tag_64:\n        /* \"#utility.yul\":10549:10553   */\n      0x00\n        /* \"#utility.yul\":10587:10589   */\n      0x20\n        /* \"#utility.yul\":10576:10585   */\n      dup3\n        /* \"#utility.yul\":10572:10590   */\n      add\n        /* \"#utility.yul\":10564:10590   */\n      swap1\n      pop\n        /* \"#utility.yul\":10636:10645   */\n      dup2\n        /* \"#utility.yul\":10630:10634   */\n      dup2\n        /* \"#utility.yul\":10626:10646   */\n      sub\n        /* \"#utility.yul\":10622:10623   */\n      0x00\n        /* \"#utility.yul\":10611:10620   */\n      dup4\n        /* \"#utility.yul\":10607:10624   */\n      add\n        /* \"#utility.yul\":10600:10647   */\n      mstore\n        /* \"#utility.yul\":10664:10795   */\n      tag_179\n        /* \"#utility.yul\":10790:10794   */\n      dup2\n        /* \"#utility.yul\":10664:10795   */\n      tag_93\n      jump\t// in\n    tag_179:\n        /* \"#utility.yul\":10656:10795   */\n      swap1\n      pop\n        /* \"#utility.yul\":10383:10802   */\n      swap2\n      swap1\n      pop\n      jump\t// out\n\n    auxdata: 0xa2646970667358221220c0eb3291c24d4d8dee31a8ab5ee52708c431fbf40f15dcf0b637dd82b7f131ab64736f6c63430008190033\n}\n",
				"bytecode": {
					"linkReferences": {},
					"object": "60806040525f6001553480156012575f80fd5b50335f806101000a81548173ffffffffffffffffffffffffffffffffffffffff021916908373ffffffffffffffffffffffffffffffffffffffff160217905550610a8c8061005f5f395ff3fe608060405260043610610042575f3560e01c80633c067945146100e857806361324da2146101125780638da5cb5b1461013a578063cdfbc5a914610164576100e4565b366100e4573460015f8282546100589190610556565b925050819055503373ffffffffffffffffffffffffffffffffffffffff167f1bb460ccaaf70fbacfec17a376f8acbd278c1405590ffcc8ebe4b88daf4f64ad346040516100a59190610598565b60405180910390a27fa8f68054527106a8a9d29e1b7662bdb1c0f63e585e2a2dd00b32a71d6eda84126040516100da9061060b565b60405180910390a1005b5f80fd5b3480156100f3575f80fd5b506100fc61018c565b6040516101099190610598565b60405180910390f35b34801561011d575f80fd5b5061013860048036038101906101339190610657565b610192565b005b348015610145575f80fd5b5061014e6102eb565b60405161015b91906106c1565b60405180910390f35b34801561016f575f80fd5b5061018a60048036038101906101859190610657565b61030e565b005b60015481565b5f8054906101000a900473ffffffffffffffffffffffffffffffffffffffff1673ffffffffffffffffffffffffffffffffffffffff163373ffffffffffffffffffffffffffffffffffffffff161461021f576040517f08c379a00000000000000000000000000000000000000000000000000000000081526004016102169061074a565b60405180910390fd5b600154811115610264576040517f08c379a000000000000000000000000000000000000000000000000000000000815260040161025b906107d8565b60405180910390fd5b8060015f82825461027591906107f6565b925050819055507f8b647e474fa90bb17f05e8986032c988bb1215b542fe2272c0917832bad3b06c816040516102ab9190610598565b60405180910390a17fa8f68054527106a8a9d29e1b7662bdb1c0f63e585e2a2dd00b32a71d6eda84126040516102e090610873565b60405180910390a150565b5f8054906101000a900473ffffffffffffffffffffffffffffffffffffffff1681565b5f8054906101000a900473ffffffffffffffffffffffffffffffffffffffff1673ffffffffffffffffffffffffffffffffffffffff163373ffffffffffffffffffffffffffffffffffffffff161461039b576040517f08c379a00000000000000000000000000000000000000000000000000000000081526004016103929061074a565b60405180910390fd5b6001548111156103e0576040517f08c379a00000000000000000000000000000000000000000000000000000000081526004016103d790610901565b60405180910390fd5b8060015f8282546103f191906107f6565b925050819055505f6f219ab540356cbb839cbe05303d7705fa73ffffffffffffffffffffffffffffffffffffffff168260405161042d9061094c565b5f6040518083038185875af1925050503d805f8114610467576040519150601f19603f3d011682016040523d82523d5f602084013e61046c565b606091505b50509050806104b0576040517f08c379a00000000000000000000000000000000000000000000000000000000081526004016104a7906109aa565b60405180910390fd5b7ffe1d7aa135ba43977883640bdb1ecc7bca346a58ccc4da3805e631bc3f25d74d826040516104df9190610598565b60405180910390a17fa8f68054527106a8a9d29e1b7662bdb1c0f63e585e2a2dd00b32a71d6eda841260405161051490610a38565b60405180910390a15050565b5f819050919050565b7f4e487b71000000000000000000000000000000000000000000000000000000005f52601160045260245ffd5b5f61056082610520565b915061056b83610520565b925082820190508082111561058357610582610529565b5b92915050565b61059281610520565b82525050565b5f6020820190506105ab5f830184610589565b92915050565b5f82825260208201905092915050565b7f436f6e747269627574696f6e20726563656976656400000000000000000000005f82015250565b5f6105f56015836105b1565b9150610600826105c1565b602082019050919050565b5f6020820190508181035f830152610622816105e9565b9050919050565b5f80fd5b61063681610520565b8114610640575f80fd5b50565b5f813590506106518161062d565b92915050565b5f6020828403121561066c5761066b610629565b5b5f61067984828501610643565b91505092915050565b5f73ffffffffffffffffffffffffffffffffffffffff82169050919050565b5f6106ab82610682565b9050919050565b6106bb816106a1565b82525050565b5f6020820190506106d45f8301846106b2565b92915050565b7f4f6e6c7920746865206f776e65722063616e20706572666f726d2074686973205f8201527f616374696f6e2e00000000000000000000000000000000000000000000000000602082015250565b5f6107346027836105b1565b915061073f826106da565b604082019050919050565b5f6020820190508181035f83015261076181610728565b9050919050565b7f496e73756666696369656e742066756e647320666f722074686973206f7065725f8201527f6174696f6e2e0000000000000000000000000000000000000000000000000000602082015250565b5f6107c26026836105b1565b91506107cd82610768565b604082019050919050565b5f6020820190508181035f8301526107ef816107b6565b9050919050565b5f61080082610520565b915061080b83610520565b925082820390508181111561082357610822610529565b5b92915050565b7f476c6f62616c20646562742063616e63656c6c656400000000000000000000005f82015250565b5f61085d6015836105b1565b915061086882610829565b602082019050919050565b5f6020820190508181035f83015261088a81610851565b9050919050565b7f496e73756666696369656e742066756e647320666f722074686973207472616e5f8201527f736665722e000000000000000000000000000000000000000000000000000000602082015250565b5f6108eb6025836105b1565b91506108f682610891565b604082019050919050565b5f6020820190508181035f830152610918816108df565b9050919050565b5f81905092915050565b50565b5f6109375f8361091f565b915061094282610929565b5f82019050919050565b5f6109568261092c565b9150819050919050565b7f5472616e73666572206661696c65642e000000000000000000000000000000005f82015250565b5f6109946010836105b1565b915061099f82610960565b602082019050919050565b5f6020820190508181035f8301526109c181610988565b9050919050565b7f46756e6473207472616e7366657272656420746f204369746962616e6b6368615f8201527f696e000000000000000000000000000000000000000000000000000000000000602082015250565b5f610a226022836105b1565b9150610a2d826109c8565b604082019050919050565b5f6020820190508181035f830152610a4f81610a16565b905091905056fea2646970667358221220c0eb3291c24d4d8dee31a8ab5ee52708c431fbf40f15dcf0b637dd82b7f131ab64736f6c63430008190033",
					"opcodes": "PUSH1 0x80 PUSH1 0x40 MSTORE PUSH0 PUSH1 0x1 SSTORE CALLVALUE DUP1 ISZERO PUSH1 0x12 JUMPI PUSH0 DUP1 REVERT JUMPDEST POP CALLER PUSH0 DUP1 PUSH2 0x100 EXP DUP2 SLOAD DUP2 PUSH20 0xFFFFFFFFFFFFFFFFFFFFFFFFFFFFFFFFFFFFFFFF MUL NOT AND SWAP1 DUP4 PUSH20 0xFFFFFFFFFFFFFFFFFFFFFFFFFFFFFFFFFFFFFFFF AND MUL OR SWAP1 SSTORE POP PUSH2 0xA8C DUP1 PUSH2 0x5F PUSH0 CODECOPY PUSH0 RETURN INVALID PUSH1 0x80 PUSH1 0x40 MSTORE PUSH1 0x4 CALLDATASIZE LT PUSH2 0x42 JUMPI PUSH0 CALLDATALOAD PUSH1 0xE0 SHR DUP1 PUSH4 0x3C067945 EQ PUSH2 0xE8 JUMPI DUP1 PUSH4 0x61324DA2 EQ PUSH2 0x112 JUMPI DUP1 PUSH4 0x8DA5CB5B EQ PUSH2 0x13A JUMPI DUP1 PUSH4 0xCDFBC5A9 EQ PUSH2 0x164 JUMPI PUSH2 0xE4 JUMP JUMPDEST CALLDATASIZE PUSH2 0xE4 JUMPI CALLVALUE PUSH1 0x1 PUSH0 DUP3 DUP3 SLOAD PUSH2 0x58 SWAP2 SWAP1 PUSH2 0x556 JUMP JUMPDEST SWAP3 POP POP DUP2 SWAP1 SSTORE POP CALLER PUSH20 0xFFFFFFFFFFFFFFFFFFFFFFFFFFFFFFFFFFFFFFFF AND PUSH32 0x1BB460CCAAF70FBACFEC17A376F8ACBD278C1405590FFCC8EBE4B88DAF4F64AD CALLVALUE PUSH1 0x40 MLOAD PUSH2 0xA5 SWAP2 SWAP1 PUSH2 0x598 JUMP JUMPDEST PUSH1 0x40 MLOAD DUP1 SWAP2 SUB SWAP1 LOG2 PUSH32 0xA8F68054527106A8A9D29E1B7662BDB1C0F63E585E2A2DD00B32A71D6EDA8412 PUSH1 0x40 MLOAD PUSH2 0xDA SWAP1 PUSH2 0x60B JUMP JUMPDEST PUSH1 0x40 MLOAD DUP1 SWAP2 SUB SWAP1 LOG1 STOP JUMPDEST PUSH0 DUP1 REVERT JUMPDEST CALLVALUE DUP1 ISZERO PUSH2 0xF3 JUMPI PUSH0 DUP1 REVERT JUMPDEST POP PUSH2 0xFC PUSH2 0x18C JUMP JUMPDEST PUSH1 0x40 MLOAD PUSH2 0x109 SWAP2 SWAP1 PUSH2 0x598 JUMP JUMPDEST PUSH1 0x40 MLOAD DUP1 SWAP2 SUB SWAP1 RETURN JUMPDEST CALLVALUE DUP1 ISZERO PUSH2 0x11D JUMPI PUSH0 DUP1 REVERT JUMPDEST POP PUSH2 0x138 PUSH1 0x4 DUP1 CALLDATASIZE SUB DUP2 ADD SWAP1 PUSH2 0x133 SWAP2 SWAP1 PUSH2 0x657 JUMP JUMPDEST PUSH2 0x192 JUMP JUMPDEST STOP JUMPDEST CALLVALUE DUP1 ISZERO PUSH2 0x145 JUMPI PUSH0 DUP1 REVERT JUMPDEST POP PUSH2 0x14E PUSH2 0x2EB JUMP JUMPDEST PUSH1 0x40 MLOAD PUSH2 0x15B SWAP2 SWAP1 PUSH2 0x6C1 JUMP JUMPDEST PUSH1 0x40 MLOAD DUP1 SWAP2 SUB SWAP1 RETURN JUMPDEST CALLVALUE DUP1 ISZERO PUSH2 0x16F JUMPI PUSH0 DUP1 REVERT JUMPDEST POP PUSH2 0x18A PUSH1 0x4 DUP1 CALLDATASIZE SUB DUP2 ADD SWAP1 PUSH2 0x185 SWAP2 SWAP1 PUSH2 0x657 JUMP JUMPDEST PUSH2 0x30E JUMP JUMPDEST STOP JUMPDEST PUSH1 0x1 SLOAD DUP2 JUMP JUMPDEST PUSH0 DUP1 SLOAD SWAP1 PUSH2 0x100 EXP SWAP1 DIV PUSH20 0xFFFFFFFFFFFFFFFFFFFFFFFFFFFFFFFFFFFFFFFF AND PUSH20 0xFFFFFFFFFFFFFFFFFFFFFFFFFFFFFFFFFFFFFFFF AND CALLER PUSH20 0xFFFFFFFFFFFFFFFFFFFFFFFFFFFFFFFFFFFFFFFF AND EQ PUSH2 0x21F JUMPI PUSH1 0x40 MLOAD PUSH32 0x8C379A000000000000000000000000000000000000000000000000000000000 DUP2 MSTORE PUSH1 0x4 ADD PUSH2 0x216 SWAP1 PUSH2 0x74A JUMP JUMPDEST PUSH1 0x40 MLOAD DUP1 SWAP2 SUB SWAP1 REVERT JUMPDEST PUSH1 0x1 SLOAD DUP2 GT ISZERO PUSH2 0x264 JUMPI PUSH1 0x40 MLOAD PUSH32 0x8C379A000000000000000000000000000000000000000000000000000000000 DUP2 MSTORE PUSH1 0x4 ADD PUSH2 0x25B SWAP1 PUSH2 0x7D8 JUMP JUMPDEST PUSH1 0x40 MLOAD DUP1 SWAP2 SUB SWAP1 REVERT JUMPDEST DUP1 PUSH1 0x1 PUSH0 DUP3 DUP3 SLOAD PUSH2 0x275 SWAP2 SWAP1 PUSH2 0x7F6 JUMP JUMPDEST SWAP3 POP POP DUP2 SWAP1 SSTORE POP PUSH32 0x8B647E474FA90BB17F05E8986032C988BB1215B542FE2272C0917832BAD3B06C DUP2 PUSH1 0x40 MLOAD PUSH2 0x2AB SWAP2 SWAP1 PUSH2 0x598 JUMP JUMPDEST PUSH1 0x40 MLOAD DUP1 SWAP2 SUB SWAP1 LOG1 PUSH32 0xA8F68054527106A8A9D29E1B7662BDB1C0F63E585E2A2DD00B32A71D6EDA8412 PUSH1 0x40 MLOAD PUSH2 0x2E0 SWAP1 PUSH2 0x873 JUMP JUMPDEST PUSH1 0x40 MLOAD DUP1 SWAP2 SUB SWAP1 LOG1 POP JUMP JUMPDEST PUSH0 DUP1 SLOAD SWAP1 PUSH2 0x100 EXP SWAP1 DIV PUSH20 0xFFFFFFFFFFFFFFFFFFFFFFFFFFFFFFFFFFFFFFFF AND DUP2 JUMP JUMPDEST PUSH0 DUP1 SLOAD SWAP1 PUSH2 0x100 EXP SWAP1 DIV PUSH20 0xFFFFFFFFFFFFFFFFFFFFFFFFFFFFFFFFFFFFFFFF AND PUSH20 0xFFFFFFFFFFFFFFFFFFFFFFFFFFFFFFFFFFFFFFFF AND CALLER PUSH20 0xFFFFFFFFFFFFFFFFFFFFFFFFFFFFFFFFFFFFFFFF AND EQ PUSH2 0x39B JUMPI PUSH1 0x40 MLOAD PUSH32 0x8C379A000000000000000000000000000000000000000000000000000000000 DUP2 MSTORE PUSH1 0x4 ADD PUSH2 0x392 SWAP1 PUSH2 0x74A JUMP JUMPDEST PUSH1 0x40 MLOAD DUP1 SWAP2 SUB SWAP1 REVERT JUMPDEST PUSH1 0x1 SLOAD DUP2 GT ISZERO PUSH2 0x3E0 JUMPI PUSH1 0x40 MLOAD PUSH32 0x8C379A000000000000000000000000000000000000000000000000000000000 DUP2 MSTORE PUSH1 0x4 ADD PUSH2 0x3D7 SWAP1 PUSH2 0x901 JUMP JUMPDEST PUSH1 0x40 MLOAD DUP1 SWAP2 SUB SWAP1 REVERT JUMPDEST DUP1 PUSH1 0x1 PUSH0 DUP3 DUP3 SLOAD PUSH2 0x3F1 SWAP2 SWAP1 PUSH2 0x7F6 JUMP JUMPDEST SWAP3 POP POP DUP2 SWAP1 SSTORE POP PUSH0 PUSH16 0x219AB540356CBB839CBE05303D7705FA PUSH20 0xFFFFFFFFFFFFFFFFFFFFFFFFFFFFFFFFFFFFFFFF AND DUP3 PUSH1 0x40 MLOAD PUSH2 0x42D SWAP1 PUSH2 0x94C JUMP JUMPDEST PUSH0 PUSH1 0x40 MLOAD DUP1 DUP4 SUB DUP2 DUP6 DUP8 GAS CALL SWAP3 POP POP POP RETURNDATASIZE DUP1 PUSH0 DUP2 EQ PUSH2 0x467 JUMPI PUSH1 0x40 MLOAD SWAP2 POP PUSH1 0x1F NOT PUSH1 0x3F RETURNDATASIZE ADD AND DUP3 ADD PUSH1 0x40 MSTORE RETURNDATASIZE DUP3 MSTORE RETURNDATASIZE PUSH0 PUSH1 0x20 DUP5 ADD RETURNDATACOPY PUSH2 0x46C JUMP JUMPDEST PUSH1 0x60 SWAP2 POP JUMPDEST POP POP SWAP1 POP DUP1 PUSH2 0x4B0 JUMPI PUSH1 0x40 MLOAD PUSH32 0x8C379A000000000000000000000000000000000000000000000000000000000 DUP2 MSTORE PUSH1 0x4 ADD PUSH2 0x4A7 SWAP1 PUSH2 0x9AA JUMP JUMPDEST PUSH1 0x40 MLOAD DUP1 SWAP2 SUB SWAP1 REVERT JUMPDEST PUSH32 0xFE1D7AA135BA43977883640BDB1ECC7BCA346A58CCC4DA3805E631BC3F25D74D DUP3 PUSH1 0x40 MLOAD PUSH2 0x4DF SWAP2 SWAP1 PUSH2 0x598 JUMP JUMPDEST PUSH1 0x40 MLOAD DUP1 SWAP2 SUB SWAP1 LOG1 PUSH32 0xA8F68054527106A8A9D29E1B7662BDB1C0F63E585E2A2DD00B32A71D6EDA8412 PUSH1 0x40 MLOAD PUSH2 0x514 SWAP1 PUSH2 0xA38 JUMP JUMPDEST PUSH1 0x40 MLOAD DUP1 SWAP2 SUB SWAP1 LOG1 POP POP JUMP JUMPDEST PUSH0 DUP2 SWAP1 POP SWAP2 SWAP1 POP JUMP JUMPDEST PUSH32 0x4E487B7100000000000000000000000000000000000000000000000000000000 PUSH0 MSTORE PUSH1 0x11 PUSH1 0x4 MSTORE PUSH1 0x24 PUSH0 REVERT JUMPDEST PUSH0 PUSH2 0x560 DUP3 PUSH2 0x520 JUMP JUMPDEST SWAP2 POP PUSH2 0x56B DUP4 PUSH2 0x520 JUMP JUMPDEST SWAP3 POP DUP3 DUP3 ADD SWAP1 POP DUP1 DUP3 GT ISZERO PUSH2 0x583 JUMPI PUSH2 0x582 PUSH2 0x529 JUMP JUMPDEST JUMPDEST SWAP3 SWAP2 POP POP JUMP JUMPDEST PUSH2 0x592 DUP2 PUSH2 0x520 JUMP JUMPDEST DUP3 MSTORE POP POP JUMP JUMPDEST PUSH0 PUSH1 0x20 DUP3 ADD SWAP1 POP PUSH2 0x5AB PUSH0 DUP4 ADD DUP5 PUSH2 0x589 JUMP JUMPDEST SWAP3 SWAP2 POP POP JUMP JUMPDEST PUSH0 DUP3 DUP3 MSTORE PUSH1 0x20 DUP3 ADD SWAP1 POP SWAP3 SWAP2 POP POP JUMP JUMPDEST PUSH32 0x436F6E747269627574696F6E2072656365697665640000000000000000000000 PUSH0 DUP3 ADD MSTORE POP JUMP JUMPDEST PUSH0 PUSH2 0x5F5 PUSH1 0x15 DUP4 PUSH2 0x5B1 JUMP JUMPDEST SWAP2 POP PUSH2 0x600 DUP3 PUSH2 0x5C1 JUMP JUMPDEST PUSH1 0x20 DUP3 ADD SWAP1 POP SWAP2 SWAP1 POP JUMP JUMPDEST PUSH0 PUSH1 0x20 DUP3 ADD SWAP1 POP DUP2 DUP2 SUB PUSH0 DUP4 ADD MSTORE PUSH2 0x622 DUP2 PUSH2 0x5E9 JUMP JUMPDEST SWAP1 POP SWAP2 SWAP1 POP JUMP JUMPDEST PUSH0 DUP1 REVERT JUMPDEST PUSH2 0x636 DUP2 PUSH2 0x520 JUMP JUMPDEST DUP2 EQ PUSH2 0x640 JUMPI PUSH0 DUP1 REVERT JUMPDEST POP JUMP JUMPDEST PUSH0 DUP2 CALLDATALOAD SWAP1 POP PUSH2 0x651 DUP2 PUSH2 0x62D JUMP JUMPDEST SWAP3 SWAP2 POP POP JUMP JUMPDEST PUSH0 PUSH1 0x20 DUP3 DUP5 SUB SLT ISZERO PUSH2 0x66C JUMPI PUSH2 0x66B PUSH2 0x629 JUMP JUMPDEST JUMPDEST PUSH0 PUSH2 0x679 DUP5 DUP3 DUP6 ADD PUSH2 0x643 JUMP JUMPDEST SWAP2 POP POP SWAP3 SWAP2 POP POP JUMP JUMPDEST PUSH0 PUSH20 0xFFFFFFFFFFFFFFFFFFFFFFFFFFFFFFFFFFFFFFFF DUP3 AND SWAP1 POP SWAP2 SWAP1 POP JUMP JUMPDEST PUSH0 PUSH2 0x6AB DUP3 PUSH2 0x682 JUMP JUMPDEST SWAP1 POP SWAP2 SWAP1 POP JUMP JUMPDEST PUSH2 0x6BB DUP2 PUSH2 0x6A1 JUMP JUMPDEST DUP3 MSTORE POP POP JUMP JUMPDEST PUSH0 PUSH1 0x20 DUP3 ADD SWAP1 POP PUSH2 0x6D4 PUSH0 DUP4 ADD DUP5 PUSH2 0x6B2 JUMP JUMPDEST SWAP3 SWAP2 POP POP JUMP JUMPDEST PUSH32 0x4F6E6C7920746865206F776E65722063616E20706572666F726D207468697320 PUSH0 DUP3 ADD MSTORE PUSH32 0x616374696F6E2E00000000000000000000000000000000000000000000000000 PUSH1 0x20 DUP3 ADD MSTORE POP JUMP JUMPDEST PUSH0 PUSH2 0x734 PUSH1 0x27 DUP4 PUSH2 0x5B1 JUMP JUMPDEST SWAP2 POP PUSH2 0x73F DUP3 PUSH2 0x6DA JUMP JUMPDEST PUSH1 0x40 DUP3 ADD SWAP1 POP SWAP2 SWAP1 POP JUMP JUMPDEST PUSH0 PUSH1 0x20 DUP3 ADD SWAP1 POP DUP2 DUP2 SUB PUSH0 DUP4 ADD MSTORE PUSH2 0x761 DUP2 PUSH2 0x728 JUMP JUMPDEST SWAP1 POP SWAP2 SWAP1 POP JUMP JUMPDEST PUSH32 0x496E73756666696369656E742066756E647320666F722074686973206F706572 PUSH0 DUP3 ADD MSTORE PUSH32 0x6174696F6E2E0000000000000000000000000000000000000000000000000000 PUSH1 0x20 DUP3 ADD MSTORE POP JUMP JUMPDEST PUSH0 PUSH2 0x7C2 PUSH1 0x26 DUP4 PUSH2 0x5B1 JUMP JUMPDEST SWAP2 POP PUSH2 0x7CD DUP3 PUSH2 0x768 JUMP JUMPDEST PUSH1 0x40 DUP3 ADD SWAP1 POP SWAP2 SWAP1 POP JUMP JUMPDEST PUSH0 PUSH1 0x20 DUP3 ADD SWAP1 POP DUP2 DUP2 SUB PUSH0 DUP4 ADD MSTORE PUSH2 0x7EF DUP2 PUSH2 0x7B6 JUMP JUMPDEST SWAP1 POP SWAP2 SWAP1 POP JUMP JUMPDEST PUSH0 PUSH2 0x800 DUP3 PUSH2 0x520 JUMP JUMPDEST SWAP2 POP PUSH2 0x80B DUP4 PUSH2 0x520 JUMP JUMPDEST SWAP3 POP DUP3 DUP3 SUB SWAP1 POP DUP2 DUP2 GT ISZERO PUSH2 0x823 JUMPI PUSH2 0x822 PUSH2 0x529 JUMP JUMPDEST JUMPDEST SWAP3 SWAP2 POP POP JUMP JUMPDEST PUSH32 0x476C6F62616C20646562742063616E63656C6C65640000000000000000000000 PUSH0 DUP3 ADD MSTORE POP JUMP JUMPDEST PUSH0 PUSH2 0x85D PUSH1 0x15 DUP4 PUSH2 0x5B1 JUMP JUMPDEST SWAP2 POP PUSH2 0x868 DUP3 PUSH2 0x829 JUMP JUMPDEST PUSH1 0x20 DUP3 ADD SWAP1 POP SWAP2 SWAP1 POP JUMP JUMPDEST PUSH0 PUSH1 0x20 DUP3 ADD SWAP1 POP DUP2 DUP2 SUB PUSH0 DUP4 ADD MSTORE PUSH2 0x88A DUP2 PUSH2 0x851 JUMP JUMPDEST SWAP1 POP SWAP2 SWAP1 POP JUMP JUMPDEST PUSH32 0x496E73756666696369656E742066756E647320666F722074686973207472616E PUSH0 DUP3 ADD MSTORE PUSH32 0x736665722E000000000000000000000000000000000000000000000000000000 PUSH1 0x20 DUP3 ADD MSTORE POP JUMP JUMPDEST PUSH0 PUSH2 0x8EB PUSH1 0x25 DUP4 PUSH2 0x5B1 JUMP JUMPDEST SWAP2 POP PUSH2 0x8F6 DUP3 PUSH2 0x891 JUMP JUMPDEST PUSH1 0x40 DUP3 ADD SWAP1 POP SWAP2 SWAP1 POP JUMP JUMPDEST PUSH0 PUSH1 0x20 DUP3 ADD SWAP1 POP DUP2 DUP2 SUB PUSH0 DUP4 ADD MSTORE PUSH2 0x918 DUP2 PUSH2 0x8DF JUMP JUMPDEST SWAP1 POP SWAP2 SWAP1 POP JUMP JUMPDEST PUSH0 DUP2 SWAP1 POP SWAP3 SWAP2 POP POP JUMP JUMPDEST POP JUMP JUMPDEST PUSH0 PUSH2 0x937 PUSH0 DUP4 PUSH2 0x91F JUMP JUMPDEST SWAP2 POP PUSH2 0x942 DUP3 PUSH2 0x929 JUMP JUMPDEST PUSH0 DUP3 ADD SWAP1 POP SWAP2 SWAP1 POP JUMP JUMPDEST PUSH0 PUSH2 0x956 DUP3 PUSH2 0x92C JUMP JUMPDEST SWAP2 POP DUP2 SWAP1 POP SWAP2 SWAP1 POP JUMP JUMPDEST PUSH32 0x5472616E73666572206661696C65642E00000000000000000000000000000000 PUSH0 DUP3 ADD MSTORE POP JUMP JUMPDEST PUSH0 PUSH2 0x994 PUSH1 0x10 DUP4 PUSH2 0x5B1 JUMP JUMPDEST SWAP2 POP PUSH2 0x99F DUP3 PUSH2 0x960 JUMP JUMPDEST PUSH1 0x20 DUP3 ADD SWAP1 POP SWAP2 SWAP1 POP JUMP JUMPDEST PUSH0 PUSH1 0x20 DUP3 ADD SWAP1 POP DUP2 DUP2 SUB PUSH0 DUP4 ADD MSTORE PUSH2 0x9C1 DUP2 PUSH2 0x988 JUMP JUMPDEST SWAP1 POP SWAP2 SWAP1 POP JUMP JUMPDEST PUSH32 0x46756E6473207472616E7366657272656420746F204369746962616E6B636861 PUSH0 DUP3 ADD MSTORE PUSH32 0x696E000000000000000000000000000000000000000000000000000000000000 PUSH1 0x20 DUP3 ADD MSTORE POP JUMP JUMPDEST PUSH0 PUSH2 0xA22 PUSH1 0x22 DUP4 PUSH2 0x5B1 JUMP JUMPDEST SWAP2 POP PUSH2 0xA2D DUP3 PUSH2 0x9C8 JUMP JUMPDEST PUSH1 0x40 DUP3 ADD SWAP1 POP SWAP2 SWAP1 POP JUMP JUMPDEST PUSH0 PUSH1 0x20 DUP3 ADD SWAP1 POP DUP2 DUP2 SUB PUSH0 DUP4 ADD MSTORE PUSH2 0xA4F DUP2 PUSH2 0xA16 JUMP JUMPDEST SWAP1 POP SWAP2 SWAP1 POP JUMP INVALID LOG2 PUSH5 0x6970667358 0x22 SLT KECCAK256 0xC0 0xEB ORIGIN SWAP2 0xC2 0x4D 0x4D DUP14 0xEE BALANCE 0xA8 0xAB MCOPY 0xE5 0x27 ADDMOD 0xC4 BALANCE 0xFB DELEGATECALL 0xF ISZERO 0xDC CREATE 0xB6 CALLDATACOPY 0xDD DUP3 0xB7 CALL BALANCE 0xAB PUSH5 0x736F6C6343 STOP ADDMOD NOT STOP CALLER "
				},
				"gasEstimates": {
					"creation": {
						"codeDepositCost": "540000",
						"executionCost": "29843",
						"totalCost": "569843"
					},
					"external": {
						"cancelGlobalDebt(uint256)": "infinite",
						"fundBalance()": "2403",
						"owner()": "2527",
						"transferFundsToCitibankchain(uint256)": "infinite"
					}
				},
				"methodIdentifiers": {
					"cancelGlobalDebt(uint256)": "61324da2",
					"fundBalance()": "3c067945",
					"owner()": "8da5cb5b",
					"transferFundsToCitibankchain(uint256)": "cdfbc5a9"
				}
			},
			"storageLayout": {
				"storage": [
					{
						"astId": 3,
						"contract": "Citibank.sol:GlobalDebtCancellationFund",
						"label": "owner",
						"offset": 0,
						"slot": "0",
						"type": "t_address"
					},
					{
						"astId": 6,
						"contract": "Citibank.sol:GlobalDebtCancellationFund",
						"label": "fundBalance",
						"offset": 0,
						"slot": "1",
						"type": "t_uint256"
					}
				],
				"types": {
					"t_address": {
						"encoding": "inplace",
						"label": "address",
						"numberOfBytes": "20"
					},
					"t_uint256": {
						"encoding": "inplace",
						"label": "uint256",
						"numberOfBytes": "32"
					}
				}
			},
			"userdoc": {
				"kind": "user",
				"methods": {},
				"version": 1
			}
		}
	}
}