{
	"Citichain.sol": {
		"DepositContract": {
			"abi": [
				{
					"inputs": [],
					"stateMutability": "nonpayable",
					"type": "constructor"
				},
				{
					"anonymous": false,
					"inputs": [
						{
							"indexed": false,
							"internalType": "bytes",
							"name": "pubkey",
							"type": "bytes"
						},
						{
							"indexed": false,
							"internalType": "bytes",
							"name": "withdrawal_credentials",
							"type": "bytes"
						},
						{
							"indexed": false,
							"internalType": "bytes",
							"name": "amount",
							"type": "bytes"
						},
						{
							"indexed": false,
							"internalType": "bytes",
							"name": "signature",
							"type": "bytes"
						},
						{
							"indexed": false,
							"internalType": "bytes",
							"name": "index",
							"type": "bytes"
						}
					],
					"name": "DepositEvent",
					"type": "event"
				},
				{
					"inputs": [
						{
							"internalType": "bytes",
							"name": "pubkey",
							"type": "bytes"
						},
						{
							"internalType": "bytes",
							"name": "withdrawal_credentials",
							"type": "bytes"
						},
						{
							"internalType": "bytes",
							"name": "signature",
							"type": "bytes"
						},
						{
							"internalType": "bytes32",
							"name": "deposit_data_root",
							"type": "bytes32"
						}
					],
					"name": "deposit",
					"outputs": [],
					"stateMutability": "payable",
					"type": "function"
				},
				{
					"inputs": [],
					"name": "get_deposit_count",
					"outputs": [
						{
							"internalType": "bytes",
							"name": "",
							"type": "bytes"
						}
					],
					"stateMutability": "view",
					"type": "function"
				},
				{
					"inputs": [],
					"name": "get_deposit_root",
					"outputs": [
						{
							"internalType": "bytes32",
							"name": "",
							"type": "bytes32"
						}
					],
					"stateMutability": "view",
					"type": "function"
				},
				{
					"inputs": [
						{
							"internalType": "bytes4",
							"name": "interfaceId",
							"type": "bytes4"
						}
					],
					"name": "supportsInterface",
					"outputs": [
						{
							"internalType": "bool",
							"name": "",
							"type": "bool"
						}
					],
					"stateMutability": "pure",
					"type": "function"
				}
			],
			"devdoc": {
				"kind": "dev",
				"methods": {
					"deposit(bytes,bytes,bytes,bytes32)": {
						"params": {
							"deposit_data_root": "The SHA-256 hash of the SSZ-encoded DepositData object. Used as a protection against malformed input.",
							"pubkey": "A BLS12-381 public key.",
							"signature": "A BLS12-381 signature.",
							"withdrawal_credentials": "Commitment to a public key for withdrawals."
						}
					},
					"get_deposit_count()": {
						"returns": {
							"_0": "The deposit count encoded as a little endian 64-bit number."
						}
					},
					"get_deposit_root()": {
						"returns": {
							"_0": "The deposit root hash."
						}
					},
					"supportsInterface(bytes4)": {
						"details": "Interface identification is specified in ERC-165. This function  uses less than 30,000 gas.",
						"params": {
							"interfaceId": "The interface identifier, as specified in ERC-165"
						},
						"returns": {
							"_0": "`true` if the contract implements `interfaceId` and  `interfaceId` is not 0xffffffff, `false` otherwise"
						}
					}
				},
				"version": 1
			},
			"evm": {
				"assembly": "    /* \"Citichain.sol\":2373:7327  contract DepositContract is IDepositContract, ERC165 {\r... */\n  mstore(0x40, 0x80)\n    /* \"Citichain.sol\":2770:3044  constructor() public {\r... */\n  callvalue\n  dup1\n  iszero\n  tag_1\n  jumpi\n  0x00\n  dup1\n  revert\ntag_1:\n  pop\n    /* \"Citichain.sol\":2862:2873  uint height */\n  0x00\n    /* \"Citichain.sol\":2876:2877  0 */\n  dup1\n    /* \"Citichain.sol\":2862:2877  uint height = 0 */\n  swap1\n  pop\n    /* \"Citichain.sol\":2857:3036  for (uint height = 0; height < DEPOSIT_CONTRACT_TREE_DEPTH - 1; height++)\r... */\ntag_4:\n    /* \"Citichain.sol\":2918:2919  1 */\n  0x01\n    /* \"Citichain.sol\":2477:2479  32 */\n  0x20\n    /* \"Citichain.sol\":2888:2919  DEPOSIT_CONTRACT_TREE_DEPTH - 1 */\n  sub\n    /* \"Citichain.sol\":2879:2885  height */\n  dup2\n    /* \"Citichain.sol\":2879:2919  height < DEPOSIT_CONTRACT_TREE_DEPTH - 1 */\n  lt\n    /* \"Citichain.sol\":2857:3036  for (uint height = 0; height < DEPOSIT_CONTRACT_TREE_DEPTH - 1; height++)\r... */\n  iszero\n  tag_5\n  jumpi\n    /* \"Citichain.sol\":2970:3036  sha256(abi.encodePacked(zero_hashes[height], zero_hashes[height])) */\n  0x02\n    /* \"Citichain.sol\":2994:3005  zero_hashes */\n  0x21\n    /* \"Citichain.sol\":3006:3012  height */\n  dup3\n    /* \"Citichain.sol\":2994:3013  zero_hashes[height] */\n  0x20\n  dup2\n  lt\n  tag_7\n  jumpi\n  invalid\ntag_7:\n  add\n  sload\n    /* \"Citichain.sol\":3015:3026  zero_hashes */\n  0x21\n    /* \"Citichain.sol\":3027:3033  height */\n  dup4\n    /* \"Citichain.sol\":3015:3034  zero_hashes[height] */\n  0x20\n  dup2\n  lt\n  tag_9\n  jumpi\n  invalid\ntag_9:\n  add\n  sload\n    /* \"Citichain.sol\":2977:3035  abi.encodePacked(zero_hashes[height], zero_hashes[height]) */\n  add(0x20, mload(0x40))\n  dup1\n  dup4\n  dup2\n  mstore\n  0x20\n  add\n  dup3\n  dup2\n  mstore\n  0x20\n  add\n  swap3\n  pop\n  pop\n  pop\n  mload(0x40)\n  0x20\n  dup2\n  dup4\n  sub\n  sub\n  dup2\n  mstore\n  swap1\n  0x40\n  mstore\n    /* \"Citichain.sol\":2970:3036  sha256(abi.encodePacked(zero_hashes[height], zero_hashes[height])) */\n  mload(0x40)\n  dup1\n  dup3\n  dup1\n  mload\n  swap1\n  0x20\n  add\n  swap1\n  dup1\n  dup4\n  dup4\ntag_11:\n  0x20\n  dup4\n  lt\n  tag_13\n  jumpi\n  dup1\n  mload\n  dup3\n  mstore\n  0x20\n  dup3\n  add\n  swap2\n  pop\n  0x20\n  dup2\n  add\n  swap1\n  pop\n  0x20\n  dup4\n  sub\n  swap3\n  pop\n  jump(tag_11)\ntag_13:\n  0x01\n  dup4\n  0x20\n  sub\n  0x0100\n  exp\n  sub\n  dup1\n  not\n  dup3\n  mload\n  and\n  dup2\n  dup5\n  mload\n  and\n  dup1\n  dup3\n  or\n  dup6\n  mstore\n  pop\n  pop\n  pop\n  pop\n  pop\n  pop\n  swap1\n  pop\n  add\n  swap2\n  pop\n  pop\n  0x20\n  mload(0x40)\n  dup1\n  dup4\n  sub\n  dup2\n  dup6\n  gas\n  staticcall\n  iszero\n  dup1\n  iszero\n  tag_15\n  jumpi\n  returndatasize\n  0x00\n  dup1\n  returndatacopy\n  revert(0x00, returndatasize)\ntag_15:\n  pop\n  pop\n  pop\n  mload(0x40)\n  returndatasize\n  0x20\n  dup2\n  lt\n  iszero\n  tag_16\n  jumpi\n  0x00\n  dup1\n  revert\ntag_16:\n  dup2\n  add\n  swap1\n  dup1\n  dup1\n  mload\n  swap1\n  0x20\n  add\n  swap1\n  swap3\n  swap2\n  swap1\n  pop\n  pop\n  pop\n    /* \"Citichain.sol\":2944:2955  zero_hashes */\n  0x21\n    /* \"Citichain.sol\":2965:2966  1 */\n  0x01\n    /* \"Citichain.sol\":2956:2962  height */\n  dup4\n    /* \"Citichain.sol\":2956:2966  height + 1 */\n  add\n    /* \"Citichain.sol\":2944:2967  zero_hashes[height + 1] */\n  0x20\n  dup2\n  lt\n  tag_17\n  jumpi\n  invalid\ntag_17:\n  add\n    /* \"Citichain.sol\":2944:3036  zero_hashes[height + 1] = sha256(abi.encodePacked(zero_hashes[height], zero_hashes[height])) */\n  dup2\n  swap1\n  sstore\n  pop\n    /* \"Citichain.sol\":2921:2929  height++ */\n  dup1\n  dup1\n  0x01\n  add\n  swap2\n  pop\n  pop\n    /* \"Citichain.sol\":2857:3036  for (uint height = 0; height < DEPOSIT_CONTRACT_TREE_DEPTH - 1; height++)\r... */\n  jump(tag_4)\ntag_5:\n  pop\n    /* \"Citichain.sol\":2373:7327  contract DepositContract is IDepositContract, ERC165 {\r... */\n  dataSize(sub_0)\n  dup1\n  dataOffset(sub_0)\n  0x00\n  codecopy\n  0x00\n  return\nstop\n\nsub_0: assembly {\n        /* \"Citichain.sol\":2373:7327  contract DepositContract is IDepositContract, ERC165 {\r... */\n      mstore(0x40, 0x80)\n      jumpi(tag_1, lt(calldatasize, 0x04))\n      shr(0xe0, calldataload(0x00))\n      dup1\n      0x01ffc9a7\n      eq\n      tag_2\n      jumpi\n      dup1\n      0x22895118\n      eq\n      tag_3\n      jumpi\n      dup1\n      0x621fd130\n      eq\n      tag_4\n      jumpi\n      dup1\n      0xc5f2892f\n      eq\n      tag_5\n      jumpi\n    tag_1:\n      0x00\n      dup1\n      revert\n        /* \"Citichain.sol\":6634:6837  function supportsInterface(bytes4 interfaceId) override external pure returns (bool) {\r... */\n    tag_2:\n      callvalue\n      dup1\n      iszero\n      tag_6\n      jumpi\n      0x00\n      dup1\n      revert\n    tag_6:\n      pop\n      tag_7\n      0x04\n      dup1\n      calldatasize\n      sub\n      0x20\n      dup2\n      lt\n      iszero\n      tag_8\n      jumpi\n      0x00\n      dup1\n      revert\n    tag_8:\n      dup2\n      add\n      swap1\n      dup1\n      dup1\n      calldataload\n      not(0xffffffffffffffffffffffffffffffffffffffffffffffffffffffff)\n      and\n      swap1\n      0x20\n      add\n      swap1\n      swap3\n      swap2\n      swap1\n      pop\n      pop\n      pop\n      tag_9\n      jump\t// in\n    tag_7:\n      mload(0x40)\n      dup1\n      dup3\n      iszero\n      iszero\n      iszero\n      iszero\n      dup2\n      mstore\n      0x20\n      add\n      swap2\n      pop\n      pop\n      mload(0x40)\n      dup1\n      swap2\n      sub\n      swap1\n      return\n        /* \"Citichain.sol\":3818:6626  function deposit(\r... */\n    tag_3:\n      tag_10\n      0x04\n      dup1\n      calldatasize\n      sub\n      0x80\n      dup2\n      lt\n      iszero\n      tag_11\n      jumpi\n      0x00\n      dup1\n      revert\n    tag_11:\n      dup2\n      add\n      swap1\n      dup1\n      dup1\n      calldataload\n      swap1\n      0x20\n      add\n      swap1\n      0x0100000000\n      dup2\n      gt\n      iszero\n      tag_12\n      jumpi\n      0x00\n      dup1\n      revert\n    tag_12:\n      dup3\n      add\n      dup4\n      0x20\n      dup3\n      add\n      gt\n      iszero\n      tag_13\n      jumpi\n      0x00\n      dup1\n      revert\n    tag_13:\n      dup1\n      calldataload\n      swap1\n      0x20\n      add\n      swap2\n      dup5\n      0x01\n      dup4\n      mul\n      dup5\n      add\n      gt\n      0x0100000000\n      dup4\n      gt\n      or\n      iszero\n      tag_14\n      jumpi\n      0x00\n      dup1\n      revert\n    tag_14:\n      swap1\n      swap2\n      swap3\n      swap4\n      swap2\n      swap3\n      swap4\n      swap1\n      dup1\n      calldataload\n      swap1\n      0x20\n      add\n      swap1\n      0x0100000000\n      dup2\n      gt\n      iszero\n      tag_15\n      jumpi\n      0x00\n      dup1\n      revert\n    tag_15:\n      dup3\n      add\n      dup4\n      0x20\n      dup3\n      add\n      gt\n      iszero\n      tag_16\n      jumpi\n      0x00\n      dup1\n      revert\n    tag_16:\n      dup1\n      calldataload\n      swap1\n      0x20\n      add\n      swap2\n      dup5\n      0x01\n      dup4\n      mul\n      dup5\n      add\n      gt\n      0x0100000000\n      dup4\n      gt\n      or\n      iszero\n      tag_17\n      jumpi\n      0x00\n      dup1\n      revert\n    tag_17:\n      swap1\n      swap2\n      swap3\n      swap4\n      swap2\n      swap3\n      swap4\n      swap1\n      dup1\n      calldataload\n      swap1\n      0x20\n      add\n      swap1\n      0x0100000000\n      dup2\n      gt\n      iszero\n      tag_18\n      jumpi\n      0x00\n      dup1\n      revert\n    tag_18:\n      dup3\n      add\n      dup4\n      0x20\n      dup3\n      add\n      gt\n      iszero\n      tag_19\n      jumpi\n      0x00\n      dup1\n      revert\n    tag_19:\n      dup1\n      calldataload\n      swap1\n      0x20\n      add\n      swap2\n      dup5\n      0x01\n      dup4\n      mul\n      dup5\n      add\n      gt\n      0x0100000000\n      dup4\n      gt\n      or\n      iszero\n      tag_20\n      jumpi\n      0x00\n      dup1\n      revert\n    tag_20:\n      swap1\n      swap2\n      swap3\n      swap4\n      swap2\n      swap3\n      swap4\n      swap1\n      dup1\n      calldataload\n      swap1\n      0x20\n      add\n      swap1\n      swap3\n      swap2\n      swap1\n      pop\n      pop\n      pop\n      tag_21\n      jump\t// in\n    tag_10:\n      stop\n        /* \"Citichain.sol\":3667:3810  function get_deposit_count() override external view returns (bytes memory) {\r... */\n    tag_4:\n      callvalue\n      dup1\n      iszero\n      tag_22\n      jumpi\n      0x00\n      dup1\n      revert\n    tag_22:\n      pop\n      tag_23\n      tag_24\n      jump\t// in\n    tag_23:\n      mload(0x40)\n      dup1\n      dup1\n      0x20\n      add\n      dup3\n      dup2\n      sub\n      dup3\n      mstore\n      dup4\n      dup2\n      dup2\n      mload\n      dup2\n      mstore\n      0x20\n      add\n      swap2\n      pop\n      dup1\n      mload\n      swap1\n      0x20\n      add\n      swap1\n      dup1\n      dup4\n      dup4\n      0x00\n    tag_25:\n      dup4\n      dup2\n      lt\n      iszero\n      tag_27\n      jumpi\n      dup1\n      dup3\n      add\n      mload\n      dup2\n      dup5\n      add\n      mstore\n      0x20\n      dup2\n      add\n      swap1\n      pop\n      jump(tag_25)\n    tag_27:\n      pop\n      pop\n      pop\n      pop\n      swap1\n      pop\n      swap1\n      dup2\n      add\n      swap1\n      0x1f\n      and\n      dup1\n      iszero\n      tag_28\n      jumpi\n      dup1\n      dup3\n      sub\n      dup1\n      mload\n      0x01\n      dup4\n      0x20\n      sub\n      0x0100\n      exp\n      sub\n      not\n      and\n      dup2\n      mstore\n      0x20\n      add\n      swap2\n      pop\n    tag_28:\n      pop\n      swap3\n      pop\n      pop\n      pop\n      mload(0x40)\n      dup1\n      swap2\n      sub\n      swap1\n      return\n        /* \"Citichain.sol\":3052:3659  function get_deposit_root() override external view returns (bytes32) {\r... */\n    tag_5:\n      callvalue\n      dup1\n      iszero\n      tag_29\n      jumpi\n      0x00\n      dup1\n      revert\n    tag_29:\n      pop\n      tag_30\n      tag_31\n      jump\t// in\n    tag_30:\n      mload(0x40)\n      dup1\n      dup3\n      dup2\n      mstore\n      0x20\n      add\n      swap2\n      pop\n      pop\n      mload(0x40)\n      dup1\n      swap2\n      sub\n      swap1\n      return\n        /* \"Citichain.sol\":6634:6837  function supportsInterface(bytes4 interfaceId) override external pure returns (bool) {\r... */\n    tag_9:\n        /* \"Citichain.sol\":6713:6717  bool */\n      0x00\n        /* \"Citichain.sol\":6752:6776  type(ERC165).interfaceId */\n      0x01ffc9a700000000000000000000000000000000000000000000000000000000\n        /* \"Citichain.sol\":6737:6776  interfaceId == type(ERC165).interfaceId */\n      not(0xffffffffffffffffffffffffffffffffffffffffffffffffffffffff)\n      and\n        /* \"Citichain.sol\":6737:6748  interfaceId */\n      dup3\n        /* \"Citichain.sol\":6737:6776  interfaceId == type(ERC165).interfaceId */\n      not(0xffffffffffffffffffffffffffffffffffffffffffffffffffffffff)\n      and\n      eq\n        /* \"Citichain.sol\":6737:6829  interfaceId == type(ERC165).interfaceId || interfaceId == type(IDepositContract).interfaceId */\n      dup1\n      tag_33\n      jumpi\n      pop\n        /* \"Citichain.sol\":6795:6829  type(IDepositContract).interfaceId */\n      0x8564090700000000000000000000000000000000000000000000000000000000\n        /* \"Citichain.sol\":6780:6829  interfaceId == type(IDepositContract).interfaceId */\n      not(0xffffffffffffffffffffffffffffffffffffffffffffffffffffffff)\n      and\n        /* \"Citichain.sol\":6780:6791  interfaceId */\n      dup3\n        /* \"Citichain.sol\":6780:6829  interfaceId == type(IDepositContract).interfaceId */\n      not(0xffffffffffffffffffffffffffffffffffffffffffffffffffffffff)\n      and\n      eq\n        /* \"Citichain.sol\":6737:6829  interfaceId == type(ERC165).interfaceId || interfaceId == type(IDepositContract).interfaceId */\n    tag_33:\n        /* \"Citichain.sol\":6730:6829  return interfaceId == type(ERC165).interfaceId || interfaceId == type(IDepositContract).interfaceId */\n      swap1\n      pop\n        /* \"Citichain.sol\":6634:6837  function supportsInterface(bytes4 interfaceId) override external pure returns (bool) {\r... */\n      swap2\n      swap1\n      pop\n      jump\t// out\n        /* \"Citichain.sol\":3818:6626  function deposit(\r... */\n    tag_21:\n        /* \"Citichain.sol\":4124:4126  48 */\n      0x30\n        /* \"Citichain.sol\":4107:4113  pubkey */\n      dup8\n      dup8\n        /* \"Citichain.sol\":4107:4120  pubkey.length */\n      swap1\n      pop\n        /* \"Citichain.sol\":4107:4126  pubkey.length == 48 */\n      eq\n        /* \"Citichain.sol\":4099:4169  require(pubkey.length == 48, \"DepositContract: invalid pubkey length\") */\n      tag_35\n      jumpi\n      mload(0x40)\n      0x08c379a000000000000000000000000000000000000000000000000000000000\n      dup2\n      mstore\n      0x04\n      add\n      dup1\n      dup1\n      0x20\n      add\n      dup3\n      dup2\n      sub\n      dup3\n      mstore\n      0x26\n      dup2\n      mstore\n      0x20\n      add\n      dup1\n      data_c3b50b094eada99b5a9dfa8cfadfa82355edd40e0591c544071d0112172c4c5e\n      0x26\n      swap2\n      codecopy\n      0x40\n      add\n      swap2\n      pop\n      pop\n      mload(0x40)\n      dup1\n      swap2\n      sub\n      swap1\n      revert\n    tag_35:\n        /* \"Citichain.sol\":4221:4223  32 */\n      0x20\n        /* \"Citichain.sol\":4188:4210  withdrawal_credentials */\n      dup6\n      dup6\n        /* \"Citichain.sol\":4188:4217  withdrawal_credentials.length */\n      swap1\n      pop\n        /* \"Citichain.sol\":4188:4223  withdrawal_credentials.length == 32 */\n      eq\n        /* \"Citichain.sol\":4180:4282  require(withdrawal_credentials.length == 32, \"DepositContract: invalid withdrawal_credentials length\") */\n      tag_36\n      jumpi\n      mload(0x40)\n      0x08c379a000000000000000000000000000000000000000000000000000000000\n      dup2\n      mstore\n      0x04\n      add\n      dup1\n      dup1\n      0x20\n      add\n      dup3\n      dup2\n      sub\n      dup3\n      mstore\n      0x36\n      dup2\n      mstore\n      0x20\n      add\n      dup1\n      data_747182c86d19950fc1e3554e7b3e3a1972fcfdcf01419aa5598a57f4869840e0\n      0x36\n      swap2\n      codecopy\n      0x40\n      add\n      swap2\n      pop\n      pop\n      mload(0x40)\n      dup1\n      swap2\n      sub\n      swap1\n      revert\n    tag_36:\n        /* \"Citichain.sol\":4321:4323  96 */\n      0x60\n        /* \"Citichain.sol\":4301:4310  signature */\n      dup4\n      dup4\n        /* \"Citichain.sol\":4301:4317  signature.length */\n      swap1\n      pop\n        /* \"Citichain.sol\":4301:4323  signature.length == 96 */\n      eq\n        /* \"Citichain.sol\":4293:4369  require(signature.length == 96, \"DepositContract: invalid signature length\") */\n      tag_37\n      jumpi\n      mload(0x40)\n      0x08c379a000000000000000000000000000000000000000000000000000000000\n      dup2\n      mstore\n      0x04\n      add\n      dup1\n      dup1\n      0x20\n      add\n      dup3\n      dup2\n      sub\n      dup3\n      mstore\n      0x29\n      dup2\n      mstore\n      0x20\n      add\n      dup1\n      data_e15de1a983e2181dc403952307f19cbe1ac366f85accb46ba7ec34e71736287b\n      0x29\n      swap2\n      codecopy\n      0x40\n      add\n      swap2\n      pop\n      pop\n      mload(0x40)\n      dup1\n      swap2\n      sub\n      swap1\n      revert\n    tag_37:\n        /* \"Citichain.sol\":4436:4443  1 ether */\n      0x0de0b6b3a7640000\n        /* \"Citichain.sol\":4423:4432  msg.value */\n      callvalue\n        /* \"Citichain.sol\":4423:4443  msg.value >= 1 ether */\n      lt\n      iszero\n        /* \"Citichain.sol\":4415:4486  require(msg.value >= 1 ether, \"DepositContract: deposit value too low\") */\n      tag_38\n      jumpi\n      mload(0x40)\n      0x08c379a000000000000000000000000000000000000000000000000000000000\n      dup2\n      mstore\n      0x04\n      add\n      dup1\n      dup1\n      0x20\n      add\n      dup3\n      dup2\n      sub\n      dup3\n      mstore\n      0x26\n      dup2\n      mstore\n      0x20\n      add\n      dup1\n      data_d4d9a14975cc31a7dc18afc82ee6e59efa15377b990098eeaab4cc403f9d1217\n      0x26\n      swap2\n      codecopy\n      0x40\n      add\n      swap2\n      pop\n      pop\n      mload(0x40)\n      dup1\n      swap2\n      sub\n      swap1\n      revert\n    tag_38:\n        /* \"Citichain.sol\":4527:4528  0 */\n      0x00\n        /* \"Citichain.sol\":4517:4523  1 gwei */\n      0x3b9aca00\n        /* \"Citichain.sol\":4505:4514  msg.value */\n      callvalue\n        /* \"Citichain.sol\":4505:4523  msg.value % 1 gwei */\n      dup2\n      tag_39\n      jumpi\n      invalid\n    tag_39:\n      mod\n        /* \"Citichain.sol\":4505:4528  msg.value % 1 gwei == 0 */\n      eq\n        /* \"Citichain.sol\":4497:4584  require(msg.value % 1 gwei == 0, \"DepositContract: deposit value not multiple of gwei\") */\n      tag_40\n      jumpi\n      mload(0x40)\n      0x08c379a000000000000000000000000000000000000000000000000000000000\n      dup2\n      mstore\n      0x04\n      add\n      dup1\n      dup1\n      0x20\n      add\n      dup3\n      dup2\n      sub\n      dup3\n      mstore\n      0x33\n      dup2\n      mstore\n      0x20\n      add\n      dup1\n      data_7db03c60fbfd1382397614fc537e65f67f687dbb18307bed297bda7f864590e0\n      0x33\n      swap2\n      codecopy\n      0x40\n      add\n      swap2\n      pop\n      pop\n      mload(0x40)\n      dup1\n      swap2\n      sub\n      swap1\n      revert\n    tag_40:\n        /* \"Citichain.sol\":4595:4614  uint deposit_amount */\n      0x00\n        /* \"Citichain.sol\":4629:4635  1 gwei */\n      0x3b9aca00\n        /* \"Citichain.sol\":4617:4626  msg.value */\n      callvalue\n        /* \"Citichain.sol\":4617:4635  msg.value / 1 gwei */\n      dup2\n      tag_41\n      jumpi\n      invalid\n    tag_41:\n      div\n        /* \"Citichain.sol\":4595:4635  uint deposit_amount = msg.value / 1 gwei */\n      swap1\n      pop\n        /* \"Citichain.sol\":4672:4688  type(uint64).max */\n      0xffffffffffffffff\n        /* \"Citichain.sol\":4654:4688  deposit_amount <= type(uint64).max */\n      dup1\n      and\n        /* \"Citichain.sol\":4654:4668  deposit_amount */\n      dup2\n        /* \"Citichain.sol\":4654:4688  deposit_amount <= type(uint64).max */\n      gt\n      iszero\n        /* \"Citichain.sol\":4646:4732  require(deposit_amount <= type(uint64).max, \"DepositContract: deposit value too high\") */\n      tag_42\n      jumpi\n      mload(0x40)\n      0x08c379a000000000000000000000000000000000000000000000000000000000\n      dup2\n      mstore\n      0x04\n      add\n      dup1\n      dup1\n      0x20\n      add\n      dup3\n      dup2\n      sub\n      dup3\n      mstore\n      0x27\n      dup2\n      mstore\n      0x20\n      add\n      dup1\n      data_c445cee017c8884423c583c4e1697a8e774197f1748cc887aa73775ef891882f\n      0x27\n      swap2\n      codecopy\n      0x40\n      add\n      swap2\n      pop\n      pop\n      mload(0x40)\n      dup1\n      swap2\n      sub\n      swap1\n      revert\n    tag_42:\n        /* \"Citichain.sol\":4781:4800  bytes memory amount */\n      0x60\n        /* \"Citichain.sol\":4803:4846  to_little_endian_64(uint64(deposit_amount)) */\n      tag_43\n        /* \"Citichain.sol\":4830:4844  deposit_amount */\n      dup3\n        /* \"Citichain.sol\":4803:4822  to_little_endian_64 */\n      tag_44\n        /* \"Citichain.sol\":4803:4846  to_little_endian_64(uint64(deposit_amount)) */\n      jump\t// in\n    tag_43:\n        /* \"Citichain.sol\":4781:4846  bytes memory amount = to_little_endian_64(uint64(deposit_amount)) */\n      swap1\n      pop\n        /* \"Citichain.sol\":4862:5045  DepositEvent(\r... */\n      0x649bbc62d0e31342afea4e5cd82d4049e7e1ee912fc0889aa790803be39038c5\n        /* \"Citichain.sol\":4889:4895  pubkey */\n      dup10\n      dup10\n        /* \"Citichain.sol\":4910:4932  withdrawal_credentials */\n      dup10\n      dup10\n        /* \"Citichain.sol\":4947:4953  amount */\n      dup6\n        /* \"Citichain.sol\":4968:4977  signature */\n      dup11\n      dup11\n        /* \"Citichain.sol\":4992:5034  to_little_endian_64(uint64(deposit_count)) */\n      tag_45\n        /* \"Citichain.sol\":5019:5032  deposit_count */\n      sload(0x20)\n        /* \"Citichain.sol\":4992:5011  to_little_endian_64 */\n      tag_44\n        /* \"Citichain.sol\":4992:5034  to_little_endian_64(uint64(deposit_count)) */\n      jump\t// in\n    tag_45:\n        /* \"Citichain.sol\":4862:5045  DepositEvent(\r... */\n      mload(0x40)\n      dup1\n      dup1\n      0x20\n      add\n      dup1\n      0x20\n      add\n      dup1\n      0x20\n      add\n      dup1\n      0x20\n      add\n      dup1\n      0x20\n      add\n      dup7\n      dup2\n      sub\n      dup7\n      mstore\n      dup15\n      dup15\n      dup3\n      dup2\n      dup2\n      mstore\n      0x20\n      add\n      swap3\n      pop\n      dup1\n      dup3\n      dup5\n      calldatacopy\n      0x00\n      dup2\n      dup5\n      add\n      mstore\n      not(0x1f)\n      0x1f\n      dup3\n      add\n      and\n      swap1\n      pop\n      dup1\n      dup4\n      add\n      swap3\n      pop\n      pop\n      pop\n      dup7\n      dup2\n      sub\n      dup6\n      mstore\n      dup13\n      dup13\n      dup3\n      dup2\n      dup2\n      mstore\n      0x20\n      add\n      swap3\n      pop\n      dup1\n      dup3\n      dup5\n      calldatacopy\n      0x00\n      dup2\n      dup5\n      add\n      mstore\n      not(0x1f)\n      0x1f\n      dup3\n      add\n      and\n      swap1\n      pop\n      dup1\n      dup4\n      add\n      swap3\n      pop\n      pop\n      pop\n      dup7\n      dup2\n      sub\n      dup5\n      mstore\n      dup11\n      dup2\n      dup2\n      mload\n      dup2\n      mstore\n      0x20\n      add\n      swap2\n      pop\n      dup1\n      mload\n      swap1\n      0x20\n      add\n      swap1\n      dup1\n      dup4\n      dup4\n      0x00\n    tag_46:\n      dup4\n      dup2\n      lt\n      iszero\n      tag_48\n      jumpi\n      dup1\n      dup3\n      add\n      mload\n      dup2\n      dup5\n      add\n      mstore\n      0x20\n      dup2\n      add\n      swap1\n      pop\n      jump(tag_46)\n    tag_48:\n      pop\n      pop\n      pop\n      pop\n      swap1\n      pop\n      swap1\n      dup2\n      add\n      swap1\n      0x1f\n      and\n      dup1\n      iszero\n      tag_49\n      jumpi\n      dup1\n      dup3\n      sub\n      dup1\n      mload\n      0x01\n      dup4\n      0x20\n      sub\n      0x0100\n      exp\n      sub\n      not\n      and\n      dup2\n      mstore\n      0x20\n      add\n      swap2\n      pop\n    tag_49:\n      pop\n      dup7\n      dup2\n      sub\n      dup4\n      mstore\n      dup10\n      dup10\n      dup3\n      dup2\n      dup2\n      mstore\n      0x20\n      add\n      swap3\n      pop\n      dup1\n      dup3\n      dup5\n      calldatacopy\n      0x00\n      dup2\n      dup5\n      add\n      mstore\n      not(0x1f)\n      0x1f\n      dup3\n      add\n      and\n      swap1\n      pop\n      dup1\n      dup4\n      add\n      swap3\n      pop\n      pop\n      pop\n      dup7\n      dup2\n      sub\n      dup3\n      mstore\n      dup8\n      dup2\n      dup2\n      mload\n      dup2\n      mstore\n      0x20\n      add\n      swap2\n      pop\n      dup1\n      mload\n      swap1\n      0x20\n      add\n      swap1\n      dup1\n      dup4\n      dup4\n      0x00\n    tag_50:\n      dup4\n      dup2\n      lt\n      iszero\n      tag_52\n      jumpi\n      dup1\n      dup3\n      add\n      mload\n      dup2\n      dup5\n      add\n      mstore\n      0x20\n      dup2\n      add\n      swap1\n      pop\n      jump(tag_50)\n    tag_52:\n      pop\n      pop\n      pop\n      pop\n      swap1\n      pop\n      swap1\n      dup2\n      add\n      swap1\n      0x1f\n      and\n      dup1\n      iszero\n      tag_53\n      jumpi\n      dup1\n      dup3\n      sub\n      dup1\n      mload\n      0x01\n      dup4\n      0x20\n      sub\n      0x0100\n      exp\n      sub\n      not\n      and\n      dup2\n      mstore\n      0x20\n      add\n      swap2\n      pop\n    tag_53:\n      pop\n      swap14\n      pop\n      pop\n      pop\n      pop\n      pop\n      pop\n      pop\n      pop\n      pop\n      pop\n      pop\n      pop\n      pop\n      pop\n      mload(0x40)\n      dup1\n      swap2\n      sub\n      swap1\n      log1\n        /* \"Citichain.sol\":5127:5146  bytes32 pubkey_root */\n      0x00\n        /* \"Citichain.sol\":5149:5193  sha256(abi.encodePacked(pubkey, bytes16(0))) */\n      0x02\n        /* \"Citichain.sol\":5173:5179  pubkey */\n      dup11\n      dup11\n        /* \"Citichain.sol\":5189:5190  0 */\n      0x00\n        /* \"Citichain.sol\":5181:5191  bytes16(0) */\n      0x80\n      shl\n        /* \"Citichain.sol\":5156:5192  abi.encodePacked(pubkey, bytes16(0)) */\n      add(0x20, mload(0x40))\n      dup1\n      dup5\n      dup5\n      dup1\n      dup3\n      dup5\n      calldatacopy\n      dup1\n      dup4\n      add\n      swap3\n      pop\n      pop\n      pop\n      dup3\n      not(0xffffffffffffffffffffffffffffffff)\n      and\n      not(0xffffffffffffffffffffffffffffffff)\n      and\n      dup2\n      mstore\n      0x10\n      add\n      swap4\n      pop\n      pop\n      pop\n      pop\n      mload(0x40)\n      0x20\n      dup2\n      dup4\n      sub\n      sub\n      dup2\n      mstore\n      swap1\n      0x40\n      mstore\n        /* \"Citichain.sol\":5149:5193  sha256(abi.encodePacked(pubkey, bytes16(0))) */\n      mload(0x40)\n      dup1\n      dup3\n      dup1\n      mload\n      swap1\n      0x20\n      add\n      swap1\n      dup1\n      dup4\n      dup4\n    tag_54:\n      0x20\n      dup4\n      lt\n      tag_56\n      jumpi\n      dup1\n      mload\n      dup3\n      mstore\n      0x20\n      dup3\n      add\n      swap2\n      pop\n      0x20\n      dup2\n      add\n      swap1\n      pop\n      0x20\n      dup4\n      sub\n      swap3\n      pop\n      jump(tag_54)\n    tag_56:\n      0x01\n      dup4\n      0x20\n      sub\n      0x0100\n      exp\n      sub\n      dup1\n      not\n      dup3\n      mload\n      and\n      dup2\n      dup5\n      mload\n      and\n      dup1\n      dup3\n      or\n      dup6\n      mstore\n      pop\n      pop\n      pop\n      pop\n      pop\n      pop\n      swap1\n      pop\n      add\n      swap2\n      pop\n      pop\n      0x20\n      mload(0x40)\n      dup1\n      dup4\n      sub\n      dup2\n      dup6\n      gas\n      staticcall\n      iszero\n      dup1\n      iszero\n      tag_58\n      jumpi\n      returndatasize\n      0x00\n      dup1\n      returndatacopy\n      revert(0x00, returndatasize)\n    tag_58:\n      pop\n      pop\n      pop\n      mload(0x40)\n      returndatasize\n      0x20\n      dup2\n      lt\n      iszero\n      tag_59\n      jumpi\n      0x00\n      dup1\n      revert\n    tag_59:\n      dup2\n      add\n      swap1\n      dup1\n      dup1\n      mload\n      swap1\n      0x20\n      add\n      swap1\n      swap3\n      swap2\n      swap1\n      pop\n      pop\n      pop\n        /* \"Citichain.sol\":5127:5193  bytes32 pubkey_root = sha256(abi.encodePacked(pubkey, bytes16(0))) */\n      swap1\n      pop\n        /* \"Citichain.sol\":5204:5226  bytes32 signature_root */\n      0x00\n        /* \"Citichain.sol\":5229:5386  sha256(abi.encodePacked(\r... */\n      0x02\n        /* \"Citichain.sol\":5267:5307  sha256(abi.encodePacked(signature[:64])) */\n      dup1\n        /* \"Citichain.sol\":5291:5300  signature */\n      dup9\n      dup9\n        /* \"Citichain.sol\":5291:5305  signature[:64] */\n      0x00\n      swap1\n        /* \"Citichain.sol\":5302:5304  64 */\n      0x40\n        /* \"Citichain.sol\":5291:5305  signature[:64] */\n      swap3\n      tag_60\n      swap4\n      swap3\n      swap2\n      swap1\n      tag_61\n      jump\t// in\n    tag_60:\n        /* \"Citichain.sol\":5274:5306  abi.encodePacked(signature[:64]) */\n      add(0x20, mload(0x40))\n      dup1\n      dup4\n      dup4\n      dup1\n      dup3\n      dup5\n      calldatacopy\n      dup1\n      dup4\n      add\n      swap3\n      pop\n      pop\n      pop\n      swap3\n      pop\n      pop\n      pop\n      mload(0x40)\n      0x20\n      dup2\n      dup4\n      sub\n      sub\n      dup2\n      mstore\n      swap1\n      0x40\n      mstore\n        /* \"Citichain.sol\":5267:5307  sha256(abi.encodePacked(signature[:64])) */\n      mload(0x40)\n      dup1\n      dup3\n      dup1\n      mload\n      swap1\n      0x20\n      add\n      swap1\n      dup1\n      dup4\n      dup4\n    tag_62:\n      0x20\n      dup4\n      lt\n      tag_64\n      jumpi\n      dup1\n      mload\n      dup3\n      mstore\n      0x20\n      dup3\n      add\n      swap2\n      pop\n      0x20\n      dup2\n      add\n      swap1\n      pop\n      0x20\n      dup4\n      sub\n      swap3\n      pop\n      jump(tag_62)\n    tag_64:\n      0x01\n      dup4\n      0x20\n      sub\n      0x0100\n      exp\n      sub\n      dup1\n      not\n      dup3\n      mload\n      and\n      dup2\n      dup5\n      mload\n      and\n      dup1\n      dup3\n      or\n      dup6\n      mstore\n      pop\n      pop\n      pop\n      pop\n      pop\n      pop\n      swap1\n      pop\n      add\n      swap2\n      pop\n      pop\n      0x20\n      mload(0x40)\n      dup1\n      dup4\n      sub\n      dup2\n      dup6\n      gas\n      staticcall\n      iszero\n      dup1\n      iszero\n      tag_66\n      jumpi\n      returndatasize\n      0x00\n      dup1\n      returndatacopy\n      revert(0x00, returndatasize)\n    tag_66:\n      pop\n      pop\n      pop\n      mload(0x40)\n      returndatasize\n      0x20\n      dup2\n      lt\n      iszero\n      tag_67\n      jumpi\n      0x00\n      dup1\n      revert\n    tag_67:\n      dup2\n      add\n      swap1\n      dup1\n      dup1\n      mload\n      swap1\n      0x20\n      add\n      swap1\n      swap3\n      swap2\n      swap1\n      pop\n      pop\n      pop\n        /* \"Citichain.sol\":5322:5374  sha256(abi.encodePacked(signature[64:], bytes32(0))) */\n      0x02\n        /* \"Citichain.sol\":5346:5355  signature */\n      dup10\n      dup10\n        /* \"Citichain.sol\":5356:5358  64 */\n      0x40\n        /* \"Citichain.sol\":5346:5360  signature[64:] */\n      swap1\n      dup1\n      swap3\n      tag_68\n      swap4\n      swap3\n      swap2\n      swap1\n      tag_61\n      jump\t// in\n    tag_68:\n        /* \"Citichain.sol\":5370:5371  0 */\n      0x00\n        /* \"Citichain.sol\":5362:5372  bytes32(0) */\n      dup1\n      shl\n        /* \"Citichain.sol\":5329:5373  abi.encodePacked(signature[64:], bytes32(0)) */\n      add(0x20, mload(0x40))\n      dup1\n      dup5\n      dup5\n      dup1\n      dup3\n      dup5\n      calldatacopy\n      dup1\n      dup4\n      add\n      swap3\n      pop\n      pop\n      pop\n      dup3\n      dup2\n      mstore\n      0x20\n      add\n      swap4\n      pop\n      pop\n      pop\n      pop\n      mload(0x40)\n      0x20\n      dup2\n      dup4\n      sub\n      sub\n      dup2\n      mstore\n      swap1\n      0x40\n      mstore\n        /* \"Citichain.sol\":5322:5374  sha256(abi.encodePacked(signature[64:], bytes32(0))) */\n      mload(0x40)\n      dup1\n      dup3\n      dup1\n      mload\n      swap1\n      0x20\n      add\n      swap1\n      dup1\n      dup4\n      dup4\n    tag_69:\n      0x20\n      dup4\n      lt\n      tag_71\n      jumpi\n      dup1\n      mload\n      dup3\n      mstore\n      0x20\n      dup3\n      add\n      swap2\n      pop\n      0x20\n      dup2\n      add\n      swap1\n      pop\n      0x20\n      dup4\n      sub\n      swap3\n      pop\n      jump(tag_69)\n    tag_71:\n      0x01\n      dup4\n      0x20\n      sub\n      0x0100\n      exp\n      sub\n      dup1\n      not\n      dup3\n      mload\n      and\n      dup2\n      dup5\n      mload\n      and\n      dup1\n      dup3\n      or\n      dup6\n      mstore\n      pop\n      pop\n      pop\n      pop\n      pop\n      pop\n      swap1\n      pop\n      add\n      swap2\n      pop\n      pop\n      0x20\n      mload(0x40)\n      dup1\n      dup4\n      sub\n      dup2\n      dup6\n      gas\n      staticcall\n      iszero\n      dup1\n      iszero\n      tag_73\n      jumpi\n      returndatasize\n      0x00\n      dup1\n      returndatacopy\n      revert(0x00, returndatasize)\n    tag_73:\n      pop\n      pop\n      pop\n      mload(0x40)\n      returndatasize\n      0x20\n      dup2\n      lt\n      iszero\n      tag_74\n      jumpi\n      0x00\n      dup1\n      revert\n    tag_74:\n      dup2\n      add\n      swap1\n      dup1\n      dup1\n      mload\n      swap1\n      0x20\n      add\n      swap1\n      swap3\n      swap2\n      swap1\n      pop\n      pop\n      pop\n        /* \"Citichain.sol\":5236:5385  abi.encodePacked(\r... */\n      add(0x20, mload(0x40))\n      dup1\n      dup4\n      dup2\n      mstore\n      0x20\n      add\n      dup3\n      dup2\n      mstore\n      0x20\n      add\n      swap3\n      pop\n      pop\n      pop\n      mload(0x40)\n      0x20\n      dup2\n      dup4\n      sub\n      sub\n      dup2\n      mstore\n      swap1\n      0x40\n      mstore\n        /* \"Citichain.sol\":5229:5386  sha256(abi.encodePacked(\r... */\n      mload(0x40)\n      dup1\n      dup3\n      dup1\n      mload\n      swap1\n      0x20\n      add\n      swap1\n      dup1\n      dup4\n      dup4\n    tag_75:\n      0x20\n      dup4\n      lt\n      tag_77\n      jumpi\n      dup1\n      mload\n      dup3\n      mstore\n      0x20\n      dup3\n      add\n      swap2\n      pop\n      0x20\n      dup2\n      add\n      swap1\n      pop\n      0x20\n      dup4\n      sub\n      swap3\n      pop\n      jump(tag_75)\n    tag_77:\n      0x01\n      dup4\n      0x20\n      sub\n      0x0100\n      exp\n      sub\n      dup1\n      not\n      dup3\n      mload\n      and\n      dup2\n      dup5\n      mload\n      and\n      dup1\n      dup3\n      or\n      dup6\n      mstore\n      pop\n      pop\n      pop\n      pop\n      pop\n      pop\n      swap1\n      pop\n      add\n      swap2\n      pop\n      pop\n      0x20\n      mload(0x40)\n      dup1\n      dup4\n      sub\n      dup2\n      dup6\n      gas\n      staticcall\n      iszero\n      dup1\n      iszero\n      tag_79\n      jumpi\n      returndatasize\n      0x00\n      dup1\n      returndatacopy\n      revert(0x00, returndatasize)\n    tag_79:\n      pop\n      pop\n      pop\n      mload(0x40)\n      returndatasize\n      0x20\n      dup2\n      lt\n      iszero\n      tag_80\n      jumpi\n      0x00\n      dup1\n      revert\n    tag_80:\n      dup2\n      add\n      swap1\n      dup1\n      dup1\n      mload\n      swap1\n      0x20\n      add\n      swap1\n      swap3\n      swap2\n      swap1\n      pop\n      pop\n      pop\n        /* \"Citichain.sol\":5204:5386  bytes32 signature_root = sha256(abi.encodePacked(\r... */\n      swap1\n      pop\n        /* \"Citichain.sol\":5397:5409  bytes32 node */\n      0x00\n        /* \"Citichain.sol\":5412:5598  sha256(abi.encodePacked(\r... */\n      0x02\n        /* \"Citichain.sol\":5450:5511  sha256(abi.encodePacked(pubkey_root, withdrawal_credentials)) */\n      dup1\n        /* \"Citichain.sol\":5474:5485  pubkey_root */\n      dup5\n        /* \"Citichain.sol\":5487:5509  withdrawal_credentials */\n      dup13\n      dup13\n        /* \"Citichain.sol\":5457:5510  abi.encodePacked(pubkey_root, withdrawal_credentials) */\n      add(0x20, mload(0x40))\n      dup1\n      dup5\n      dup2\n      mstore\n      0x20\n      add\n      dup4\n      dup4\n      dup1\n      dup3\n      dup5\n      calldatacopy\n      dup1\n      dup4\n      add\n      swap3\n      pop\n      pop\n      pop\n      swap4\n      pop\n      pop\n      pop\n      pop\n      mload(0x40)\n      0x20\n      dup2\n      dup4\n      sub\n      sub\n      dup2\n      mstore\n      swap1\n      0x40\n      mstore\n        /* \"Citichain.sol\":5450:5511  sha256(abi.encodePacked(pubkey_root, withdrawal_credentials)) */\n      mload(0x40)\n      dup1\n      dup3\n      dup1\n      mload\n      swap1\n      0x20\n      add\n      swap1\n      dup1\n      dup4\n      dup4\n    tag_81:\n      0x20\n      dup4\n      lt\n      tag_83\n      jumpi\n      dup1\n      mload\n      dup3\n      mstore\n      0x20\n      dup3\n      add\n      swap2\n      pop\n      0x20\n      dup2\n      add\n      swap1\n      pop\n      0x20\n      dup4\n      sub\n      swap3\n      pop\n      jump(tag_81)\n    tag_83:\n      0x01\n      dup4\n      0x20\n      sub\n      0x0100\n      exp\n      sub\n      dup1\n      not\n      dup3\n      mload\n      and\n      dup2\n      dup5\n      mload\n      and\n      dup1\n      dup3\n      or\n      dup6\n      mstore\n      pop\n      pop\n      pop\n      pop\n      pop\n      pop\n      swap1\n      pop\n      add\n      swap2\n      pop\n      pop\n      0x20\n      mload(0x40)\n      dup1\n      dup4\n      sub\n      dup2\n      dup6\n      gas\n      staticcall\n      iszero\n      dup1\n      iszero\n      tag_85\n      jumpi\n      returndatasize\n      0x00\n      dup1\n      returndatacopy\n      revert(0x00, returndatasize)\n    tag_85:\n      pop\n      pop\n      pop\n      mload(0x40)\n      returndatasize\n      0x20\n      dup2\n      lt\n      iszero\n      tag_86\n      jumpi\n      0x00\n      dup1\n      revert\n    tag_86:\n      dup2\n      add\n      swap1\n      dup1\n      dup1\n      mload\n      swap1\n      0x20\n      add\n      swap1\n      swap3\n      swap2\n      swap1\n      pop\n      pop\n      pop\n        /* \"Citichain.sol\":5526:5586  sha256(abi.encodePacked(amount, bytes24(0), signature_root)) */\n      0x02\n        /* \"Citichain.sol\":5550:5556  amount */\n      dup7\n        /* \"Citichain.sol\":5566:5567  0 */\n      0x00\n        /* \"Citichain.sol\":5558:5568  bytes24(0) */\n      0x40\n      shl\n        /* \"Citichain.sol\":5570:5584  signature_root */\n      dup7\n        /* \"Citichain.sol\":5533:5585  abi.encodePacked(amount, bytes24(0), signature_root) */\n      add(0x20, mload(0x40))\n      dup1\n      dup5\n      dup1\n      mload\n      swap1\n      0x20\n      add\n      swap1\n      dup1\n      dup4\n      dup4\n    tag_87:\n      0x20\n      dup4\n      lt\n      tag_89\n      jumpi\n      dup1\n      mload\n      dup3\n      mstore\n      0x20\n      dup3\n      add\n      swap2\n      pop\n      0x20\n      dup2\n      add\n      swap1\n      pop\n      0x20\n      dup4\n      sub\n      swap3\n      pop\n      jump(tag_87)\n    tag_89:\n      0x01\n      dup4\n      0x20\n      sub\n      0x0100\n      exp\n      sub\n      dup1\n      not\n      dup3\n      mload\n      and\n      dup2\n      dup5\n      mload\n      and\n      dup1\n      dup3\n      or\n      dup6\n      mstore\n      pop\n      pop\n      pop\n      pop\n      pop\n      pop\n      swap1\n      pop\n      add\n      dup4\n      not(0xffffffffffffffff)\n      and\n      not(0xffffffffffffffff)\n      and\n      dup2\n      mstore\n      0x18\n      add\n      dup3\n      dup2\n      mstore\n      0x20\n      add\n      swap4\n      pop\n      pop\n      pop\n      pop\n      mload(0x40)\n      0x20\n      dup2\n      dup4\n      sub\n      sub\n      dup2\n      mstore\n      swap1\n      0x40\n      mstore\n        /* \"Citichain.sol\":5526:5586  sha256(abi.encodePacked(amount, bytes24(0), signature_root)) */\n      mload(0x40)\n      dup1\n      dup3\n      dup1\n      mload\n      swap1\n      0x20\n      add\n      swap1\n      dup1\n      dup4\n      dup4\n    tag_90:\n      0x20\n      dup4\n      lt\n      tag_92\n      jumpi\n      dup1\n      mload\n      dup3\n      mstore\n      0x20\n      dup3\n      add\n      swap2\n      pop\n      0x20\n      dup2\n      add\n      swap1\n      pop\n      0x20\n      dup4\n      sub\n      swap3\n      pop\n      jump(tag_90)\n    tag_92:\n      0x01\n      dup4\n      0x20\n      sub\n      0x0100\n      exp\n      sub\n      dup1\n      not\n      dup3\n      mload\n      and\n      dup2\n      dup5\n      mload\n      and\n      dup1\n      dup3\n      or\n      dup6\n      mstore\n      pop\n      pop\n      pop\n      pop\n      pop\n      pop\n      swap1\n      pop\n      add\n      swap2\n      pop\n      pop\n      0x20\n      mload(0x40)\n      dup1\n      dup4\n      sub\n      dup2\n      dup6\n      gas\n      staticcall\n      iszero\n      dup1\n      iszero\n      tag_94\n      jumpi\n      returndatasize\n      0x00\n      dup1\n      returndatacopy\n      revert(0x00, returndatasize)\n    tag_94:\n      pop\n      pop\n      pop\n      mload(0x40)\n      returndatasize\n      0x20\n      dup2\n      lt\n      iszero\n      tag_95\n      jumpi\n      0x00\n      dup1\n      revert\n    tag_95:\n      dup2\n      add\n      swap1\n      dup1\n      dup1\n      mload\n      swap1\n      0x20\n      add\n      swap1\n      swap3\n      swap2\n      swap1\n      pop\n      pop\n      pop\n        /* \"Citichain.sol\":5419:5597  abi.encodePacked(\r... */\n      add(0x20, mload(0x40))\n      dup1\n      dup4\n      dup2\n      mstore\n      0x20\n      add\n      dup3\n      dup2\n      mstore\n      0x20\n      add\n      swap3\n      pop\n      pop\n      pop\n      mload(0x40)\n      0x20\n      dup2\n      dup4\n      sub\n      sub\n      dup2\n      mstore\n      swap1\n      0x40\n      mstore\n        /* \"Citichain.sol\":5412:5598  sha256(abi.encodePacked(\r... */\n      mload(0x40)\n      dup1\n      dup3\n      dup1\n      mload\n      swap1\n      0x20\n      add\n      swap1\n      dup1\n      dup4\n      dup4\n    tag_96:\n      0x20\n      dup4\n      lt\n      tag_98\n      jumpi\n      dup1\n      mload\n      dup3\n      mstore\n      0x20\n      dup3\n      add\n      swap2\n      pop\n      0x20\n      dup2\n      add\n      swap1\n      pop\n      0x20\n      dup4\n      sub\n      swap3\n      pop\n      jump(tag_96)\n    tag_98:\n      0x01\n      dup4\n      0x20\n      sub\n      0x0100\n      exp\n      sub\n      dup1\n      not\n      dup3\n      mload\n      and\n      dup2\n      dup5\n      mload\n      and\n      dup1\n      dup3\n      or\n      dup6\n      mstore\n      pop\n      pop\n      pop\n      pop\n      pop\n      pop\n      swap1\n      pop\n      add\n      swap2\n      pop\n      pop\n      0x20\n      mload(0x40)\n      dup1\n      dup4\n      sub\n      dup2\n      dup6\n      gas\n      staticcall\n      iszero\n      dup1\n      iszero\n      tag_100\n      jumpi\n      returndatasize\n      0x00\n      dup1\n      returndatacopy\n      revert(0x00, returndatasize)\n    tag_100:\n      pop\n      pop\n      pop\n      mload(0x40)\n      returndatasize\n      0x20\n      dup2\n      lt\n      iszero\n      tag_101\n      jumpi\n      0x00\n      dup1\n      revert\n    tag_101:\n      dup2\n      add\n      swap1\n      dup1\n      dup1\n      mload\n      swap1\n      0x20\n      add\n      swap1\n      swap3\n      swap2\n      swap1\n      pop\n      pop\n      pop\n        /* \"Citichain.sol\":5397:5598  bytes32 node = sha256(abi.encodePacked(\r... */\n      swap1\n      pop\n        /* \"Citichain.sol\":5693:5710  deposit_data_root */\n      dup6\n        /* \"Citichain.sol\":5685:5689  node */\n      dup2\n        /* \"Citichain.sol\":5685:5710  node == deposit_data_root */\n      eq\n        /* \"Citichain.sol\":5677:5799  require(node == deposit_data_root, \"DepositContract: reconstructed DepositData does not match supplied deposit_data_root\") */\n      tag_102\n      jumpi\n      mload(0x40)\n      0x08c379a000000000000000000000000000000000000000000000000000000000\n      dup2\n      mstore\n      0x04\n      add\n      dup1\n      dup1\n      0x20\n      add\n      dup3\n      dup2\n      sub\n      dup3\n      mstore\n      0x54\n      dup2\n      mstore\n      0x20\n      add\n      dup1\n      data_18a67971568b2dbad4353dfdc385098cc004c2a5070a439e010bb919d851babb\n      0x54\n      swap2\n      codecopy\n      0x60\n      add\n      swap2\n      pop\n      pop\n      mload(0x40)\n      dup1\n      swap2\n      sub\n      swap1\n      revert\n    tag_102:\n        /* \"Citichain.sol\":2623:2624  1 */\n      0x01\n        /* \"Citichain.sol\":2477:2479  32 */\n      0x20\n        /* \"Citichain.sol\":2590:2591  2 */\n      0x02\n        /* \"Citichain.sol\":2590:2620  2**DEPOSIT_CONTRACT_TREE_DEPTH */\n      exp\n        /* \"Citichain.sol\":2590:2624  2**DEPOSIT_CONTRACT_TREE_DEPTH - 1 */\n      sub\n        /* \"Citichain.sol\":5912:5925  deposit_count */\n      sload(0x20)\n        /* \"Citichain.sol\":5912:5945  deposit_count < MAX_DEPOSIT_COUNT */\n      lt\n        /* \"Citichain.sol\":5904:5983  require(deposit_count < MAX_DEPOSIT_COUNT, \"DepositContract: merkle tree full\") */\n      tag_103\n      jumpi\n      mload(0x40)\n      0x08c379a000000000000000000000000000000000000000000000000000000000\n      dup2\n      mstore\n      0x04\n      add\n      dup1\n      dup1\n      0x20\n      add\n      dup3\n      dup2\n      sub\n      dup3\n      mstore\n      0x21\n      dup2\n      mstore\n      0x20\n      add\n      dup1\n      data_122aa4bcac592fd535cb6d2558ebbf28083cd32a46ad577d847ea313cd3a6be7\n      0x21\n      swap2\n      codecopy\n      0x40\n      add\n      swap2\n      pop\n      pop\n      mload(0x40)\n      dup1\n      swap2\n      sub\n      swap1\n      revert\n    tag_103:\n        /* \"Citichain.sol\":6094:6095  1 */\n      0x01\n        /* \"Citichain.sol\":6077:6090  deposit_count */\n      0x20\n      0x00\n        /* \"Citichain.sol\":6077:6095  deposit_count += 1 */\n      dup3\n      dup3\n      sload\n      add\n      swap3\n      pop\n      pop\n      dup2\n      swap1\n      sstore\n      pop\n        /* \"Citichain.sol\":6106:6115  uint size */\n      0x00\n        /* \"Citichain.sol\":6118:6131  deposit_count */\n      sload(0x20)\n        /* \"Citichain.sol\":6106:6131  uint size = deposit_count */\n      swap1\n      pop\n        /* \"Citichain.sol\":6147:6158  uint height */\n      0x00\n        /* \"Citichain.sol\":6161:6162  0 */\n      dup1\n        /* \"Citichain.sol\":6147:6162  uint height = 0 */\n      swap1\n      pop\n        /* \"Citichain.sol\":6142:6432  for (uint height = 0; height < DEPOSIT_CONTRACT_TREE_DEPTH; height++) {\r... */\n    tag_104:\n        /* \"Citichain.sol\":2477:2479  32 */\n      0x20\n        /* \"Citichain.sol\":6164:6170  height */\n      dup2\n        /* \"Citichain.sol\":6164:6200  height < DEPOSIT_CONTRACT_TREE_DEPTH */\n      lt\n        /* \"Citichain.sol\":6142:6432  for (uint height = 0; height < DEPOSIT_CONTRACT_TREE_DEPTH; height++) {\r... */\n      iszero\n      tag_105\n      jumpi\n        /* \"Citichain.sol\":6245:6246  1 */\n      0x01\n        /* \"Citichain.sol\":6239:6240  1 */\n      dup1\n        /* \"Citichain.sol\":6232:6236  size */\n      dup4\n        /* \"Citichain.sol\":6232:6240  size & 1 */\n      and\n        /* \"Citichain.sol\":6231:6246  (size & 1) == 1 */\n      eq\n        /* \"Citichain.sol\":6227:6329  if ((size & 1) == 1) {\r... */\n      iszero\n      tag_107\n      jumpi\n        /* \"Citichain.sol\":6284:6288  node */\n      dup3\n        /* \"Citichain.sol\":6267:6273  branch */\n      0x00\n        /* \"Citichain.sol\":6274:6280  height */\n      dup3\n        /* \"Citichain.sol\":6267:6281  branch[height] */\n      0x20\n      dup2\n      lt\n      tag_108\n      jumpi\n      invalid\n    tag_108:\n      add\n        /* \"Citichain.sol\":6267:6288  branch[height] = node */\n      dup2\n      swap1\n      sstore\n      pop\n        /* \"Citichain.sol\":6307:6314  return; */\n      pop\n      pop\n      pop\n      pop\n      pop\n      pop\n      pop\n      jump(tag_34)\n        /* \"Citichain.sol\":6227:6329  if ((size & 1) == 1) {\r... */\n    tag_107:\n        /* \"Citichain.sol\":6350:6396  sha256(abi.encodePacked(branch[height], node)) */\n      0x02\n        /* \"Citichain.sol\":6374:6380  branch */\n      0x00\n        /* \"Citichain.sol\":6381:6387  height */\n      dup3\n        /* \"Citichain.sol\":6374:6388  branch[height] */\n      0x20\n      dup2\n      lt\n      tag_110\n      jumpi\n      invalid\n    tag_110:\n      add\n      sload\n        /* \"Citichain.sol\":6390:6394  node */\n      dup5\n        /* \"Citichain.sol\":6357:6395  abi.encodePacked(branch[height], node) */\n      add(0x20, mload(0x40))\n      dup1\n      dup4\n      dup2\n      mstore\n      0x20\n      add\n      dup3\n      dup2\n      mstore\n      0x20\n      add\n      swap3\n      pop\n      pop\n      pop\n      mload(0x40)\n      0x20\n      dup2\n      dup4\n      sub\n      sub\n      dup2\n      mstore\n      swap1\n      0x40\n      mstore\n        /* \"Citichain.sol\":6350:6396  sha256(abi.encodePacked(branch[height], node)) */\n      mload(0x40)\n      dup1\n      dup3\n      dup1\n      mload\n      swap1\n      0x20\n      add\n      swap1\n      dup1\n      dup4\n      dup4\n    tag_112:\n      0x20\n      dup4\n      lt\n      tag_114\n      jumpi\n      dup1\n      mload\n      dup3\n      mstore\n      0x20\n      dup3\n      add\n      swap2\n      pop\n      0x20\n      dup2\n      add\n      swap1\n      pop\n      0x20\n      dup4\n      sub\n      swap3\n      pop\n      jump(tag_112)\n    tag_114:\n      0x01\n      dup4\n      0x20\n      sub\n      0x0100\n      exp\n      sub\n      dup1\n      not\n      dup3\n      mload\n      and\n      dup2\n      dup5\n      mload\n      and\n      dup1\n      dup3\n      or\n      dup6\n      mstore\n      pop\n      pop\n      pop\n      pop\n      pop\n      pop\n      swap1\n      pop\n      add\n      swap2\n      pop\n      pop\n      0x20\n      mload(0x40)\n      dup1\n      dup4\n      sub\n      dup2\n      dup6\n      gas\n      staticcall\n      iszero\n      dup1\n      iszero\n      tag_116\n      jumpi\n      returndatasize\n      0x00\n      dup1\n      returndatacopy\n      revert(0x00, returndatasize)\n    tag_116:\n      pop\n      pop\n      pop\n      mload(0x40)\n      returndatasize\n      0x20\n      dup2\n      lt\n      iszero\n      tag_117\n      jumpi\n      0x00\n      dup1\n      revert\n    tag_117:\n      dup2\n      add\n      swap1\n      dup1\n      dup1\n      mload\n      swap1\n      0x20\n      add\n      swap1\n      swap3\n      swap2\n      swap1\n      pop\n      pop\n      pop\n        /* \"Citichain.sol\":6343:6396  node = sha256(abi.encodePacked(branch[height], node)) */\n      swap3\n      pop\n        /* \"Citichain.sol\":6419:6420  2 */\n      0x02\n        /* \"Citichain.sol\":6411:6420  size /= 2 */\n      dup3\n      dup2\n      tag_118\n      jumpi\n      invalid\n    tag_118:\n      div\n      swap2\n      pop\n        /* \"Citichain.sol\":6202:6210  height++ */\n      dup1\n      dup1\n      0x01\n      add\n      swap2\n      pop\n      pop\n        /* \"Citichain.sol\":6142:6432  for (uint height = 0; height < DEPOSIT_CONTRACT_TREE_DEPTH; height++) {\r... */\n      jump(tag_104)\n    tag_105:\n      pop\n        /* \"Citichain.sol\":6612:6617  false */\n      0x00\n        /* \"Citichain.sol\":6605:6618  assert(false) */\n      tag_119\n      jumpi\n      invalid\n    tag_119:\n        /* \"Citichain.sol\":3818:6626  function deposit(\r... */\n      pop\n      pop\n      pop\n      pop\n      pop\n      pop\n    tag_34:\n      pop\n      pop\n      pop\n      pop\n      pop\n      pop\n      pop\n      jump\t// out\n        /* \"Citichain.sol\":3667:3810  function get_deposit_count() override external view returns (bytes memory) {\r... */\n    tag_24:\n        /* \"Citichain.sol\":3728:3740  bytes memory */\n      0x60\n        /* \"Citichain.sol\":3760:3802  to_little_endian_64(uint64(deposit_count)) */\n      tag_121\n        /* \"Citichain.sol\":3787:3800  deposit_count */\n      sload(0x20)\n        /* \"Citichain.sol\":3760:3779  to_little_endian_64 */\n      tag_44\n        /* \"Citichain.sol\":3760:3802  to_little_endian_64(uint64(deposit_count)) */\n      jump\t// in\n    tag_121:\n        /* \"Citichain.sol\":3753:3802  return to_little_endian_64(uint64(deposit_count)) */\n      swap1\n      pop\n        /* \"Citichain.sol\":3667:3810  function get_deposit_count() override external view returns (bytes memory) {\r... */\n      swap1\n      jump\t// out\n        /* \"Citichain.sol\":3052:3659  function get_deposit_root() override external view returns (bytes32) {\r... */\n    tag_31:\n        /* \"Citichain.sol\":3112:3119  bytes32 */\n      0x00\n        /* \"Citichain.sol\":3132:3144  bytes32 node */\n      dup1\n        /* \"Citichain.sol\":3155:3164  uint size */\n      0x00\n        /* \"Citichain.sol\":3167:3180  deposit_count */\n      sload(0x20)\n        /* \"Citichain.sol\":3155:3180  uint size = deposit_count */\n      swap1\n      pop\n        /* \"Citichain.sol\":3196:3207  uint height */\n      0x00\n        /* \"Citichain.sol\":3210:3211  0 */\n      dup1\n        /* \"Citichain.sol\":3196:3211  uint height = 0 */\n      swap1\n      pop\n        /* \"Citichain.sol\":3191:3498  for (uint height = 0; height < DEPOSIT_CONTRACT_TREE_DEPTH; height++) {\r... */\n    tag_123:\n        /* \"Citichain.sol\":2477:2479  32 */\n      0x20\n        /* \"Citichain.sol\":3213:3219  height */\n      dup2\n        /* \"Citichain.sol\":3213:3249  height < DEPOSIT_CONTRACT_TREE_DEPTH */\n      lt\n        /* \"Citichain.sol\":3191:3498  for (uint height = 0; height < DEPOSIT_CONTRACT_TREE_DEPTH; height++) {\r... */\n      iszero\n      tag_124\n      jumpi\n        /* \"Citichain.sol\":3294:3295  1 */\n      0x01\n        /* \"Citichain.sol\":3288:3289  1 */\n      dup1\n        /* \"Citichain.sol\":3281:3285  size */\n      dup4\n        /* \"Citichain.sol\":3281:3289  size & 1 */\n      and\n        /* \"Citichain.sol\":3280:3295  (size & 1) == 1 */\n      eq\n        /* \"Citichain.sol\":3276:3462  if ((size & 1) == 1)\r... */\n      iszero\n      tag_126\n      jumpi\n        /* \"Citichain.sol\":3321:3367  sha256(abi.encodePacked(branch[height], node)) */\n      0x02\n        /* \"Citichain.sol\":3345:3351  branch */\n      0x00\n        /* \"Citichain.sol\":3352:3358  height */\n      dup3\n        /* \"Citichain.sol\":3345:3359  branch[height] */\n      0x20\n      dup2\n      lt\n      tag_127\n      jumpi\n      invalid\n    tag_127:\n      add\n      sload\n        /* \"Citichain.sol\":3361:3365  node */\n      dup5\n        /* \"Citichain.sol\":3328:3366  abi.encodePacked(branch[height], node) */\n      add(0x20, mload(0x40))\n      dup1\n      dup4\n      dup2\n      mstore\n      0x20\n      add\n      dup3\n      dup2\n      mstore\n      0x20\n      add\n      swap3\n      pop\n      pop\n      pop\n      mload(0x40)\n      0x20\n      dup2\n      dup4\n      sub\n      sub\n      dup2\n      mstore\n      swap1\n      0x40\n      mstore\n        /* \"Citichain.sol\":3321:3367  sha256(abi.encodePacked(branch[height], node)) */\n      mload(0x40)\n      dup1\n      dup3\n      dup1\n      mload\n      swap1\n      0x20\n      add\n      swap1\n      dup1\n      dup4\n      dup4\n    tag_129:\n      0x20\n      dup4\n      lt\n      tag_131\n      jumpi\n      dup1\n      mload\n      dup3\n      mstore\n      0x20\n      dup3\n      add\n      swap2\n      pop\n      0x20\n      dup2\n      add\n      swap1\n      pop\n      0x20\n      dup4\n      sub\n      swap3\n      pop\n      jump(tag_129)\n    tag_131:\n      0x01\n      dup4\n      0x20\n      sub\n      0x0100\n      exp\n      sub\n      dup1\n      not\n      dup3\n      mload\n      and\n      dup2\n      dup5\n      mload\n      and\n      dup1\n      dup3\n      or\n      dup6\n      mstore\n      pop\n      pop\n      pop\n      pop\n      pop\n      pop\n      swap1\n      pop\n      add\n      swap2\n      pop\n      pop\n      0x20\n      mload(0x40)\n      dup1\n      dup4\n      sub\n      dup2\n      dup6\n      gas\n      staticcall\n      iszero\n      dup1\n      iszero\n      tag_133\n      jumpi\n      returndatasize\n      0x00\n      dup1\n      returndatacopy\n      revert(0x00, returndatasize)\n    tag_133:\n      pop\n      pop\n      pop\n      mload(0x40)\n      returndatasize\n      0x20\n      dup2\n      lt\n      iszero\n      tag_134\n      jumpi\n      0x00\n      dup1\n      revert\n    tag_134:\n      dup2\n      add\n      swap1\n      dup1\n      dup1\n      mload\n      swap1\n      0x20\n      add\n      swap1\n      swap3\n      swap2\n      swap1\n      pop\n      pop\n      pop\n        /* \"Citichain.sol\":3314:3367  node = sha256(abi.encodePacked(branch[height], node)) */\n      swap3\n      pop\n        /* \"Citichain.sol\":3276:3462  if ((size & 1) == 1)\r... */\n      jump(tag_135)\n    tag_126:\n        /* \"Citichain.sol\":3411:3462  sha256(abi.encodePacked(node, zero_hashes[height])) */\n      0x02\n        /* \"Citichain.sol\":3435:3439  node */\n      dup4\n        /* \"Citichain.sol\":3441:3452  zero_hashes */\n      0x21\n        /* \"Citichain.sol\":3453:3459  height */\n      dup4\n        /* \"Citichain.sol\":3441:3460  zero_hashes[height] */\n      0x20\n      dup2\n      lt\n      tag_136\n      jumpi\n      invalid\n    tag_136:\n      add\n      sload\n        /* \"Citichain.sol\":3418:3461  abi.encodePacked(node, zero_hashes[height]) */\n      add(0x20, mload(0x40))\n      dup1\n      dup4\n      dup2\n      mstore\n      0x20\n      add\n      dup3\n      dup2\n      mstore\n      0x20\n      add\n      swap3\n      pop\n      pop\n      pop\n      mload(0x40)\n      0x20\n      dup2\n      dup4\n      sub\n      sub\n      dup2\n      mstore\n      swap1\n      0x40\n      mstore\n        /* \"Citichain.sol\":3411:3462  sha256(abi.encodePacked(node, zero_hashes[height])) */\n      mload(0x40)\n      dup1\n      dup3\n      dup1\n      mload\n      swap1\n      0x20\n      add\n      swap1\n      dup1\n      dup4\n      dup4\n    tag_138:\n      0x20\n      dup4\n      lt\n      tag_140\n      jumpi\n      dup1\n      mload\n      dup3\n      mstore\n      0x20\n      dup3\n      add\n      swap2\n      pop\n      0x20\n      dup2\n      add\n      swap1\n      pop\n      0x20\n      dup4\n      sub\n      swap3\n      pop\n      jump(tag_138)\n    tag_140:\n      0x01\n      dup4\n      0x20\n      sub\n      0x0100\n      exp\n      sub\n      dup1\n      not\n      dup3\n      mload\n      and\n      dup2\n      dup5\n      mload\n      and\n      dup1\n      dup3\n      or\n      dup6\n      mstore\n      pop\n      pop\n      pop\n      pop\n      pop\n      pop\n      swap1\n      pop\n      add\n      swap2\n      pop\n      pop\n      0x20\n      mload(0x40)\n      dup1\n      dup4\n      sub\n      dup2\n      dup6\n      gas\n      staticcall\n      iszero\n      dup1\n      iszero\n      tag_142\n      jumpi\n      returndatasize\n      0x00\n      dup1\n      returndatacopy\n      revert(0x00, returndatasize)\n    tag_142:\n      pop\n      pop\n      pop\n      mload(0x40)\n      returndatasize\n      0x20\n      dup2\n      lt\n      iszero\n      tag_143\n      jumpi\n      0x00\n      dup1\n      revert\n    tag_143:\n      dup2\n      add\n      swap1\n      dup1\n      dup1\n      mload\n      swap1\n      0x20\n      add\n      swap1\n      swap3\n      swap2\n      swap1\n      pop\n      pop\n      pop\n        /* \"Citichain.sol\":3404:3462  node = sha256(abi.encodePacked(node, zero_hashes[height])) */\n      swap3\n      pop\n        /* \"Citichain.sol\":3276:3462  if ((size & 1) == 1)\r... */\n    tag_135:\n        /* \"Citichain.sol\":3485:3486  2 */\n      0x02\n        /* \"Citichain.sol\":3477:3486  size /= 2 */\n      dup3\n      dup2\n      tag_144\n      jumpi\n      invalid\n    tag_144:\n      div\n      swap2\n      pop\n        /* \"Citichain.sol\":3251:3259  height++ */\n      dup1\n      dup1\n      0x01\n      add\n      swap2\n      pop\n      pop\n        /* \"Citichain.sol\":3191:3498  for (uint height = 0; height < DEPOSIT_CONTRACT_TREE_DEPTH; height++) {\r... */\n      jump(tag_123)\n    tag_124:\n      pop\n        /* \"Citichain.sol\":3515:3651  sha256(abi.encodePacked(\r... */\n      0x02\n        /* \"Citichain.sol\":3553:3557  node */\n      dup3\n        /* \"Citichain.sol\":3572:3614  to_little_endian_64(uint64(deposit_count)) */\n      tag_145\n        /* \"Citichain.sol\":3599:3612  deposit_count */\n      sload(0x20)\n        /* \"Citichain.sol\":3572:3591  to_little_endian_64 */\n      tag_44\n        /* \"Citichain.sol\":3572:3614  to_little_endian_64(uint64(deposit_count)) */\n      jump\t// in\n    tag_145:\n        /* \"Citichain.sol\":3637:3638  0 */\n      0x00\n        /* \"Citichain.sol\":3629:3639  bytes24(0) */\n      0x40\n      shl\n        /* \"Citichain.sol\":3522:3650  abi.encodePacked(\r... */\n      add(0x20, mload(0x40))\n      dup1\n      dup5\n      dup2\n      mstore\n      0x20\n      add\n      dup4\n      dup1\n      mload\n      swap1\n      0x20\n      add\n      swap1\n      dup1\n      dup4\n      dup4\n    tag_146:\n      0x20\n      dup4\n      lt\n      tag_148\n      jumpi\n      dup1\n      mload\n      dup3\n      mstore\n      0x20\n      dup3\n      add\n      swap2\n      pop\n      0x20\n      dup2\n      add\n      swap1\n      pop\n      0x20\n      dup4\n      sub\n      swap3\n      pop\n      jump(tag_146)\n    tag_148:\n      0x01\n      dup4\n      0x20\n      sub\n      0x0100\n      exp\n      sub\n      dup1\n      not\n      dup3\n      mload\n      and\n      dup2\n      dup5\n      mload\n      and\n      dup1\n      dup3\n      or\n      dup6\n      mstore\n      pop\n      pop\n      pop\n      pop\n      pop\n      pop\n      swap1\n      pop\n      add\n      dup3\n      not(0xffffffffffffffff)\n      and\n      not(0xffffffffffffffff)\n      and\n      dup2\n      mstore\n      0x18\n      add\n      swap4\n      pop\n      pop\n      pop\n      pop\n      mload(0x40)\n      0x20\n      dup2\n      dup4\n      sub\n      sub\n      dup2\n      mstore\n      swap1\n      0x40\n      mstore\n        /* \"Citichain.sol\":3515:3651  sha256(abi.encodePacked(\r... */\n      mload(0x40)\n      dup1\n      dup3\n      dup1\n      mload\n      swap1\n      0x20\n      add\n      swap1\n      dup1\n      dup4\n      dup4\n    tag_149:\n      0x20\n      dup4\n      lt\n      tag_151\n      jumpi\n      dup1\n      mload\n      dup3\n      mstore\n      0x20\n      dup3\n      add\n      swap2\n      pop\n      0x20\n      dup2\n      add\n      swap1\n      pop\n      0x20\n      dup4\n      sub\n      swap3\n      pop\n      jump(tag_149)\n    tag_151:\n      0x01\n      dup4\n      0x20\n      sub\n      0x0100\n      exp\n      sub\n      dup1\n      not\n      dup3\n      mload\n      and\n      dup2\n      dup5\n      mload\n      and\n      dup1\n      dup3\n      or\n      dup6\n      mstore\n      pop\n      pop\n      pop\n      pop\n      pop\n      pop\n      swap1\n      pop\n      add\n      swap2\n      pop\n      pop\n      0x20\n      mload(0x40)\n      dup1\n      dup4\n      sub\n      dup2\n      dup6\n      gas\n      staticcall\n      iszero\n      dup1\n      iszero\n      tag_153\n      jumpi\n      returndatasize\n      0x00\n      dup1\n      returndatacopy\n      revert(0x00, returndatasize)\n    tag_153:\n      pop\n      pop\n      pop\n      mload(0x40)\n      returndatasize\n      0x20\n      dup2\n      lt\n      iszero\n      tag_154\n      jumpi\n      0x00\n      dup1\n      revert\n    tag_154:\n      dup2\n      add\n      swap1\n      dup1\n      dup1\n      mload\n      swap1\n      0x20\n      add\n      swap1\n      swap3\n      swap2\n      swap1\n      pop\n      pop\n      pop\n        /* \"Citichain.sol\":3508:3651  return sha256(abi.encodePacked(\r... */\n      swap3\n      pop\n      pop\n      pop\n        /* \"Citichain.sol\":3052:3659  function get_deposit_root() override external view returns (bytes32) {\r... */\n      swap1\n      jump\t// out\n        /* \"Citichain.sol\":6845:7324  function to_little_endian_64(uint64 value) internal pure returns (bytes memory ret) {\r... */\n    tag_44:\n        /* \"Citichain.sol\":6911:6927  bytes memory ret */\n      0x60\n        /* \"Citichain.sol\":6956:6957  8 */\n      0x08\n        /* \"Citichain.sol\":6946:6958  new bytes(8) */\n      0xffffffffffffffff\n      dup2\n      gt\n      dup1\n      iszero\n      tag_156\n      jumpi\n      0x00\n      dup1\n      revert\n    tag_156:\n      pop\n      mload(0x40)\n      swap1\n      dup1\n      dup3\n      mstore\n      dup1\n      0x1f\n      add\n      not(0x1f)\n      and\n      0x20\n      add\n      dup3\n      add\n      0x40\n      mstore\n      dup1\n      iszero\n      tag_157\n      jumpi\n      dup2\n      0x20\n      add\n      0x01\n      dup3\n      mul\n      dup1\n      calldatasize\n      dup4\n      calldatacopy\n      dup1\n      dup3\n      add\n      swap2\n      pop\n      pop\n      swap1\n      pop\n    tag_157:\n      pop\n        /* \"Citichain.sol\":6940:6958  ret = new bytes(8) */\n      swap1\n      pop\n        /* \"Citichain.sol\":6969:6986  bytes8 bytesValue */\n      0x00\n        /* \"Citichain.sol\":6996:7001  value */\n      dup3\n        /* \"Citichain.sol\":6989:7002  bytes8(value) */\n      0xc0\n      shl\n        /* \"Citichain.sol\":6969:7002  bytes8 bytesValue = bytes8(value) */\n      swap1\n      pop\n        /* \"Citichain.sol\":7072:7082  bytesValue */\n      dup1\n        /* \"Citichain.sol\":7083:7084  7 */\n      0x07\n        /* \"Citichain.sol\":7072:7085  bytesValue[7] */\n      0x08\n      dup2\n      lt\n      tag_158\n      jumpi\n      invalid\n    tag_158:\n      byte\n      0xf8\n      shl\n        /* \"Citichain.sol\":7063:7066  ret */\n      dup3\n        /* \"Citichain.sol\":7067:7068  0 */\n      0x00\n        /* \"Citichain.sol\":7063:7069  ret[0] */\n      dup2\n      mload\n      dup2\n      lt\n      tag_159\n      jumpi\n      invalid\n    tag_159:\n      0x20\n      add\n      add\n        /* \"Citichain.sol\":7063:7085  ret[0] = bytesValue[7] */\n      swap1\n      not(0xffffffffffffffffffffffffffffffffffffffffffffffffffffffffffffff)\n      and\n      swap1\n      dup2\n      0x00\n      byte\n      swap1\n      mstore8\n      pop\n        /* \"Citichain.sol\":7105:7115  bytesValue */\n      dup1\n        /* \"Citichain.sol\":7116:7117  6 */\n      0x06\n        /* \"Citichain.sol\":7105:7118  bytesValue[6] */\n      0x08\n      dup2\n      lt\n      tag_160\n      jumpi\n      invalid\n    tag_160:\n      byte\n      0xf8\n      shl\n        /* \"Citichain.sol\":7096:7099  ret */\n      dup3\n        /* \"Citichain.sol\":7100:7101  1 */\n      0x01\n        /* \"Citichain.sol\":7096:7102  ret[1] */\n      dup2\n      mload\n      dup2\n      lt\n      tag_161\n      jumpi\n      invalid\n    tag_161:\n      0x20\n      add\n      add\n        /* \"Citichain.sol\":7096:7118  ret[1] = bytesValue[6] */\n      swap1\n      not(0xffffffffffffffffffffffffffffffffffffffffffffffffffffffffffffff)\n      and\n      swap1\n      dup2\n      0x00\n      byte\n      swap1\n      mstore8\n      pop\n        /* \"Citichain.sol\":7138:7148  bytesValue */\n      dup1\n        /* \"Citichain.sol\":7149:7150  5 */\n      0x05\n        /* \"Citichain.sol\":7138:7151  bytesValue[5] */\n      0x08\n      dup2\n      lt\n      tag_162\n      jumpi\n      invalid\n    tag_162:\n      byte\n      0xf8\n      shl\n        /* \"Citichain.sol\":7129:7132  ret */\n      dup3\n        /* \"Citichain.sol\":7133:7134  2 */\n      0x02\n        /* \"Citichain.sol\":7129:7135  ret[2] */\n      dup2\n      mload\n      dup2\n      lt\n      tag_163\n      jumpi\n      invalid\n    tag_163:\n      0x20\n      add\n      add\n        /* \"Citichain.sol\":7129:7151  ret[2] = bytesValue[5] */\n      swap1\n      not(0xffffffffffffffffffffffffffffffffffffffffffffffffffffffffffffff)\n      and\n      swap1\n      dup2\n      0x00\n      byte\n      swap1\n      mstore8\n      pop\n        /* \"Citichain.sol\":7171:7181  bytesValue */\n      dup1\n        /* \"Citichain.sol\":7182:7183  4 */\n      0x04\n        /* \"Citichain.sol\":7171:7184  bytesValue[4] */\n      0x08\n      dup2\n      lt\n      tag_164\n      jumpi\n      invalid\n    tag_164:\n      byte\n      0xf8\n      shl\n        /* \"Citichain.sol\":7162:7165  ret */\n      dup3\n        /* \"Citichain.sol\":7166:7167  3 */\n      0x03\n        /* \"Citichain.sol\":7162:7168  ret[3] */\n      dup2\n      mload\n      dup2\n      lt\n      tag_165\n      jumpi\n      invalid\n    tag_165:\n      0x20\n      add\n      add\n        /* \"Citichain.sol\":7162:7184  ret[3] = bytesValue[4] */\n      swap1\n      not(0xffffffffffffffffffffffffffffffffffffffffffffffffffffffffffffff)\n      and\n      swap1\n      dup2\n      0x00\n      byte\n      swap1\n      mstore8\n      pop\n        /* \"Citichain.sol\":7204:7214  bytesValue */\n      dup1\n        /* \"Citichain.sol\":7215:7216  3 */\n      0x03\n        /* \"Citichain.sol\":7204:7217  bytesValue[3] */\n      0x08\n      dup2\n      lt\n      tag_166\n      jumpi\n      invalid\n    tag_166:\n      byte\n      0xf8\n      shl\n        /* \"Citichain.sol\":7195:7198  ret */\n      dup3\n        /* \"Citichain.sol\":7199:7200  4 */\n      0x04\n        /* \"Citichain.sol\":7195:7201  ret[4] */\n      dup2\n      mload\n      dup2\n      lt\n      tag_167\n      jumpi\n      invalid\n    tag_167:\n      0x20\n      add\n      add\n        /* \"Citichain.sol\":7195:7217  ret[4] = bytesValue[3] */\n      swap1\n      not(0xffffffffffffffffffffffffffffffffffffffffffffffffffffffffffffff)\n      and\n      swap1\n      dup2\n      0x00\n      byte\n      swap1\n      mstore8\n      pop\n        /* \"Citichain.sol\":7237:7247  bytesValue */\n      dup1\n        /* \"Citichain.sol\":7248:7249  2 */\n      0x02\n        /* \"Citichain.sol\":7237:7250  bytesValue[2] */\n      0x08\n      dup2\n      lt\n      tag_168\n      jumpi\n      invalid\n    tag_168:\n      byte\n      0xf8\n      shl\n        /* \"Citichain.sol\":7228:7231  ret */\n      dup3\n        /* \"Citichain.sol\":7232:7233  5 */\n      0x05\n        /* \"Citichain.sol\":7228:7234  ret[5] */\n      dup2\n      mload\n      dup2\n      lt\n      tag_169\n      jumpi\n      invalid\n    tag_169:\n      0x20\n      add\n      add\n        /* \"Citichain.sol\":7228:7250  ret[5] = bytesValue[2] */\n      swap1\n      not(0xffffffffffffffffffffffffffffffffffffffffffffffffffffffffffffff)\n      and\n      swap1\n      dup2\n      0x00\n      byte\n      swap1\n      mstore8\n      pop\n        /* \"Citichain.sol\":7270:7280  bytesValue */\n      dup1\n        /* \"Citichain.sol\":7281:7282  1 */\n      0x01\n        /* \"Citichain.sol\":7270:7283  bytesValue[1] */\n      0x08\n      dup2\n      lt\n      tag_170\n      jumpi\n      invalid\n    tag_170:\n      byte\n      0xf8\n      shl\n        /* \"Citichain.sol\":7261:7264  ret */\n      dup3\n        /* \"Citichain.sol\":7265:7266  6 */\n      0x06\n        /* \"Citichain.sol\":7261:7267  ret[6] */\n      dup2\n      mload\n      dup2\n      lt\n      tag_171\n      jumpi\n      invalid\n    tag_171:\n      0x20\n      add\n      add\n        /* \"Citichain.sol\":7261:7283  ret[6] = bytesValue[1] */\n      swap1\n      not(0xffffffffffffffffffffffffffffffffffffffffffffffffffffffffffffff)\n      and\n      swap1\n      dup2\n      0x00\n      byte\n      swap1\n      mstore8\n      pop\n        /* \"Citichain.sol\":7303:7313  bytesValue */\n      dup1\n        /* \"Citichain.sol\":7314:7315  0 */\n      0x00\n        /* \"Citichain.sol\":7303:7316  bytesValue[0] */\n      0x08\n      dup2\n      lt\n      tag_172\n      jumpi\n      invalid\n    tag_172:\n      byte\n      0xf8\n      shl\n        /* \"Citichain.sol\":7294:7297  ret */\n      dup3\n        /* \"Citichain.sol\":7298:7299  7 */\n      0x07\n        /* \"Citichain.sol\":7294:7300  ret[7] */\n      dup2\n      mload\n      dup2\n      lt\n      tag_173\n      jumpi\n      invalid\n    tag_173:\n      0x20\n      add\n      add\n        /* \"Citichain.sol\":7294:7316  ret[7] = bytesValue[0] */\n      swap1\n      not(0xffffffffffffffffffffffffffffffffffffffffffffffffffffffffffffff)\n      and\n      swap1\n      dup2\n      0x00\n      byte\n      swap1\n      mstore8\n      pop\n        /* \"Citichain.sol\":6845:7324  function to_little_endian_64(uint64 value) internal pure returns (bytes memory ret) {\r... */\n      pop\n      swap2\n      swap1\n      pop\n      jump\t// out\n        /* \"--CODEGEN--\":5:323   */\n    tag_61:\n      0x00\n      dup1\n        /* \"--CODEGEN--\":155:163   */\n      dup6\n        /* \"--CODEGEN--\":143:153   */\n      dup6\n        /* \"--CODEGEN--\":140:164   */\n      gt\n        /* \"--CODEGEN--\":137:139   */\n      iszero\n      tag_176\n      jumpi\n        /* \"--CODEGEN--\":177:178   */\n      0x00\n        /* \"--CODEGEN--\":174:175   */\n      dup1\n        /* \"--CODEGEN--\":167:179   */\n      revert\n        /* \"--CODEGEN--\":137:139   */\n    tag_176:\n        /* \"--CODEGEN--\":202:208   */\n      dup4\n        /* \"--CODEGEN--\":192:200   */\n      dup7\n        /* \"--CODEGEN--\":189:209   */\n      gt\n        /* \"--CODEGEN--\":186:188   */\n      iszero\n      tag_177\n      jumpi\n        /* \"--CODEGEN--\":222:223   */\n      0x00\n        /* \"--CODEGEN--\":219:220   */\n      dup1\n        /* \"--CODEGEN--\":212:224   */\n      revert\n        /* \"--CODEGEN--\":186:188   */\n    tag_177:\n        /* \"--CODEGEN--\":272:273   */\n      0x01\n        /* \"--CODEGEN--\":260:270   */\n      dup6\n        /* \"--CODEGEN--\":256:274   */\n      mul\n        /* \"--CODEGEN--\":248:254   */\n      dup4\n        /* \"--CODEGEN--\":244:275   */\n      add\n        /* \"--CODEGEN--\":231:275   */\n      swap2\n      pop\n        /* \"--CODEGEN--\":307:317   */\n      dup5\n        /* \"--CODEGEN--\":297:305   */\n      dup7\n        /* \"--CODEGEN--\":293:318   */\n      sub\n        /* \"--CODEGEN--\":280:318   */\n      swap1\n      pop\n        /* \"--CODEGEN--\":131:323   */\n      swap5\n      pop\n      swap5\n      swap3\n      pop\n      pop\n      pop\n      jump\t// out\n    stop\n    data_122aa4bcac592fd535cb6d2558ebbf28083cd32a46ad577d847ea313cd3a6be7 4465706f736974436f6e74726163743a206d65726b6c6520747265652066756c6c\n    data_18a67971568b2dbad4353dfdc385098cc004c2a5070a439e010bb919d851babb 4465706f736974436f6e74726163743a207265636f6e7374727563746564204465706f7369744461746120646f6573206e6f74206d6174636820737570706c696564206465706f7369745f646174615f726f6f74\n    data_747182c86d19950fc1e3554e7b3e3a1972fcfdcf01419aa5598a57f4869840e0 4465706f736974436f6e74726163743a20696e76616c6964207769746864726177616c5f63726564656e7469616c73206c656e677468\n    data_7db03c60fbfd1382397614fc537e65f67f687dbb18307bed297bda7f864590e0 4465706f736974436f6e74726163743a206465706f7369742076616c7565206e6f74206d756c7469706c65206f662067776569\n    data_c3b50b094eada99b5a9dfa8cfadfa82355edd40e0591c544071d0112172c4c5e 4465706f736974436f6e74726163743a20696e76616c6964207075626b6579206c656e677468\n    data_c445cee017c8884423c583c4e1697a8e774197f1748cc887aa73775ef891882f 4465706f736974436f6e74726163743a206465706f7369742076616c756520746f6f2068696768\n    data_d4d9a14975cc31a7dc18afc82ee6e59efa15377b990098eeaab4cc403f9d1217 4465706f736974436f6e74726163743a206465706f7369742076616c756520746f6f206c6f77\n    data_e15de1a983e2181dc403952307f19cbe1ac366f85accb46ba7ec34e71736287b 4465706f736974436f6e74726163743a20696e76616c6964207369676e6174757265206c656e677468\n\n    auxdata: 0xa26469706673582212208c57c65f1e21e323e52d50cff3c20d984b78b8c51b9c1bdbc9724bad6907b7ac64736f6c634300060b0033\n}\n",
				"bytecode": {
					"linkReferences": {},
					"object": "608060405234801561001057600080fd5b5060008090505b60016020038110156101265760026021826020811061003257fe5b01546021836020811061004157fe5b015460405160200180838152602001828152602001925050506040516020818303038152906040526040518082805190602001908083835b6020831061009c5780518252602082019150602081019050602083039250610079565b6001836020036101000a038019825116818451168082178552505050505050905001915050602060405180830381855afa1580156100de573d6000803e3d6000fd5b5050506040513d60208110156100f357600080fd5b81019080805190602001909291905050506021600183016020811061011457fe5b01819055508080600101915050610017565b506117bd80620001376000396000f3fe60806040526004361061003f5760003560e01c806301ffc9a71461004457806322895118146100b6578063621fd130146101e3578063c5f2892f14610273575b600080fd5b34801561005057600080fd5b5061009c6004803603602081101561006757600080fd5b8101908080357bffffffffffffffffffffffffffffffffffffffffffffffffffffffff1916906020019092919050505061029e565b604051808215151515815260200191505060405180910390f35b6101e1600480360360808110156100cc57600080fd5b81019080803590602001906401000000008111156100e957600080fd5b8201836020820111156100fb57600080fd5b8035906020019184600183028401116401000000008311171561011d57600080fd5b90919293919293908035906020019064010000000081111561013e57600080fd5b82018360208201111561015057600080fd5b8035906020019184600183028401116401000000008311171561017257600080fd5b90919293919293908035906020019064010000000081111561019357600080fd5b8201836020820111156101a557600080fd5b803590602001918460018302840111640100000000831117156101c757600080fd5b909192939192939080359060200190929190505050610370565b005b3480156101ef57600080fd5b506101f8610fd0565b6040518080602001828103825283818151815260200191508051906020019080838360005b8381101561023857808201518184015260208101905061021d565b50505050905090810190601f1680156102655780820380516001836020036101000a031916815260200191505b509250505060405180910390f35b34801561027f57600080fd5b50610288610fe2565b6040518082815260200191505060405180910390f35b60007f01ffc9a7000000000000000000000000000000000000000000000000000000007bffffffffffffffffffffffffffffffffffffffffffffffffffffffff1916827bffffffffffffffffffffffffffffffffffffffffffffffffffffffff1916148061036957507f85640907000000000000000000000000000000000000000000000000000000007bffffffffffffffffffffffffffffffffffffffffffffffffffffffff1916827bffffffffffffffffffffffffffffffffffffffffffffffffffffffff1916145b9050919050565b603087879050146103cc576040517f08c379a00000000000000000000000000000000000000000000000000000000081526004018080602001828103825260268152602001806116ec6026913960400191505060405180910390fd5b60208585905014610428576040517f08c379a00000000000000000000000000000000000000000000000000000000081526004018080602001828103825260368152602001806116836036913960400191505060405180910390fd5b60608383905014610484576040517f08c379a000000000000000000000000000000000000000000000000000000000815260040180806020018281038252602981526020018061175f6029913960400191505060405180910390fd5b670de0b6b3a76400003410156104e5576040517f08c379a00000000000000000000000000000000000000000000000000000000081526004018080602001828103825260268152602001806117396026913960400191505060405180910390fd5b6000633b9aca0034816104f457fe5b061461054b576040517f08c379a00000000000000000000000000000000000000000000000000000000081526004018080602001828103825260338152602001806116b96033913960400191505060405180910390fd5b6000633b9aca00348161055a57fe5b04905067ffffffffffffffff80168111156105c0576040517f08c379a00000000000000000000000000000000000000000000000000000000081526004018080602001828103825260278152602001806117126027913960400191505060405180910390fd5b60606105cb82611314565b90507f649bbc62d0e31342afea4e5cd82d4049e7e1ee912fc0889aa790803be39038c589898989858a8a610600602054611314565b60405180806020018060200180602001806020018060200186810386528e8e82818152602001925080828437600081840152601f19601f82011690508083019250505086810385528c8c82818152602001925080828437600081840152601f19601f82011690508083019250505086810384528a818151815260200191508051906020019080838360005b838110156106a657808201518184015260208101905061068b565b50505050905090810190601f1680156106d35780820380516001836020036101000a031916815260200191505b508681038352898982818152602001925080828437600081840152601f19601f820116905080830192505050868103825287818151815260200191508051906020019080838360005b8381101561073757808201518184015260208101905061071c565b50505050905090810190601f1680156107645780820380516001836020036101000a031916815260200191505b509d505050505050505050505050505060405180910390a1600060028a8a600060801b6040516020018084848082843780830192505050826fffffffffffffffffffffffffffffffff19166fffffffffffffffffffffffffffffffff1916815260100193505050506040516020818303038152906040526040518082805190602001908083835b6020831061080e57805182526020820191506020810190506020830392506107eb565b6001836020036101000a038019825116818451168082178552505050505050905001915050602060405180830381855afa158015610850573d6000803e3d6000fd5b5050506040513d602081101561086557600080fd5b8101908080519060200190929190505050905060006002808888600090604092610891939291906115da565b6040516020018083838082843780830192505050925050506040516020818303038152906040526040518082805190602001908083835b602083106108eb57805182526020820191506020810190506020830392506108c8565b6001836020036101000a038019825116818451168082178552505050505050905001915050602060405180830381855afa15801561092d573d6000803e3d6000fd5b5050506040513d602081101561094257600080fd5b8101908080519060200190929190505050600289896040908092610968939291906115da565b6000801b604051602001808484808284378083019250505082815260200193505050506040516020818303038152906040526040518082805190602001908083835b602083106109cd57805182526020820191506020810190506020830392506109aa565b6001836020036101000a038019825116818451168082178552505050505050905001915050602060405180830381855afa158015610a0f573d6000803e3d6000fd5b5050506040513d6020811015610a2457600080fd5b810190808051906020019092919050505060405160200180838152602001828152602001925050506040516020818303038152906040526040518082805190602001908083835b60208310610a8e5780518252602082019150602081019050602083039250610a6b565b6001836020036101000a038019825116818451168082178552505050505050905001915050602060405180830381855afa158015610ad0573d6000803e3d6000fd5b5050506040513d6020811015610ae557600080fd5b810190808051906020019092919050505090506000600280848c8c604051602001808481526020018383808284378083019250505093505050506040516020818303038152906040526040518082805190602001908083835b60208310610b615780518252602082019150602081019050602083039250610b3e565b6001836020036101000a038019825116818451168082178552505050505050905001915050602060405180830381855afa158015610ba3573d6000803e3d6000fd5b5050506040513d6020811015610bb857600080fd5b8101908080519060200190929190505050600286600060401b866040516020018084805190602001908083835b60208310610c085780518252602082019150602081019050602083039250610be5565b6001836020036101000a0380198251168184511680821785525050505050509050018367ffffffffffffffff191667ffffffffffffffff1916815260180182815260200193505050506040516020818303038152906040526040518082805190602001908083835b60208310610c935780518252602082019150602081019050602083039250610c70565b6001836020036101000a038019825116818451168082178552505050505050905001915050602060405180830381855afa158015610cd5573d6000803e3d6000fd5b5050506040513d6020811015610cea57600080fd5b810190808051906020019092919050505060405160200180838152602001828152602001925050506040516020818303038152906040526040518082805190602001908083835b60208310610d545780518252602082019150602081019050602083039250610d31565b6001836020036101000a038019825116818451168082178552505050505050905001915050602060405180830381855afa158015610d96573d6000803e3d6000fd5b5050506040513d6020811015610dab57600080fd5b81019080805190602001909291905050509050858114610e16576040517f08c379a000000000000000000000000000000000000000000000000000000000815260040180806020018281038252605481526020018061162f6054913960600191505060405180910390fd5b6001602060020a0360205410610e77576040517f08c379a000000000000000000000000000000000000000000000000000000000815260040180806020018281038252602181526020018061160e6021913960400191505060405180910390fd5b60016020600082825401925050819055506000602054905060008090505b6020811015610fb75760018083161415610ec8578260008260208110610eb757fe5b018190555050505050505050610fc7565b600260008260208110610ed757fe5b01548460405160200180838152602001828152602001925050506040516020818303038152906040526040518082805190602001908083835b60208310610f335780518252602082019150602081019050602083039250610f10565b6001836020036101000a038019825116818451168082178552505050505050905001915050602060405180830381855afa158015610f75573d6000803e3d6000fd5b5050506040513d6020811015610f8a57600080fd5b8101908080519060200190929190505050925060028281610fa757fe5b0491508080600101915050610e95565b506000610fc057fe5b5050505050505b50505050505050565b6060610fdd602054611314565b905090565b6000806000602054905060008090505b60208110156111d057600180831614156110e05760026000826020811061101557fe5b01548460405160200180838152602001828152602001925050506040516020818303038152906040526040518082805190602001908083835b60208310611071578051825260208201915060208101905060208303925061104e565b6001836020036101000a038019825116818451168082178552505050505050905001915050602060405180830381855afa1580156110b3573d6000803e3d6000fd5b5050506040513d60208110156110c857600080fd5b810190808051906020019092919050505092506111b6565b600283602183602081106110f057fe5b015460405160200180838152602001828152602001925050506040516020818303038152906040526040518082805190602001908083835b6020831061114b5780518252602082019150602081019050602083039250611128565b6001836020036101000a038019825116818451168082178552505050505050905001915050602060405180830381855afa15801561118d573d6000803e3d6000fd5b5050506040513d60208110156111a257600080fd5b810190808051906020019092919050505092505b600282816111c057fe5b0491508080600101915050610ff2565b506002826111df602054611314565b600060401b6040516020018084815260200183805190602001908083835b6020831061122057805182526020820191506020810190506020830392506111fd565b6001836020036101000a0380198251168184511680821785525050505050509050018267ffffffffffffffff191667ffffffffffffffff1916815260180193505050506040516020818303038152906040526040518082805190602001908083835b602083106112a55780518252602082019150602081019050602083039250611282565b6001836020036101000a038019825116818451168082178552505050505050905001915050602060405180830381855afa1580156112e7573d6000803e3d6000fd5b5050506040513d60208110156112fc57600080fd5b81019080805190602001909291905050509250505090565b6060600867ffffffffffffffff8111801561132e57600080fd5b506040519080825280601f01601f1916602001820160405280156113615781602001600182028036833780820191505090505b50905060008260c01b90508060076008811061137957fe5b1a60f81b8260008151811061138a57fe5b60200101907effffffffffffffffffffffffffffffffffffffffffffffffffffffffffffff1916908160001a905350806006600881106113c657fe5b1a60f81b826001815181106113d757fe5b60200101907effffffffffffffffffffffffffffffffffffffffffffffffffffffffffffff1916908160001a9053508060056008811061141357fe5b1a60f81b8260028151811061142457fe5b60200101907effffffffffffffffffffffffffffffffffffffffffffffffffffffffffffff1916908160001a9053508060046008811061146057fe5b1a60f81b8260038151811061147157fe5b60200101907effffffffffffffffffffffffffffffffffffffffffffffffffffffffffffff1916908160001a905350806003600881106114ad57fe5b1a60f81b826004815181106114be57fe5b60200101907effffffffffffffffffffffffffffffffffffffffffffffffffffffffffffff1916908160001a905350806002600881106114fa57fe5b1a60f81b8260058151811061150b57fe5b60200101907effffffffffffffffffffffffffffffffffffffffffffffffffffffffffffff1916908160001a9053508060016008811061154757fe5b1a60f81b8260068151811061155857fe5b60200101907effffffffffffffffffffffffffffffffffffffffffffffffffffffffffffff1916908160001a9053508060006008811061159457fe5b1a60f81b826007815181106115a557fe5b60200101907effffffffffffffffffffffffffffffffffffffffffffffffffffffffffffff1916908160001a90535050919050565b600080858511156115ea57600080fd5b838611156115f757600080fd5b600185028301915084860390509450949250505056fe4465706f736974436f6e74726163743a206d65726b6c6520747265652066756c6c4465706f736974436f6e74726163743a207265636f6e7374727563746564204465706f7369744461746120646f6573206e6f74206d6174636820737570706c696564206465706f7369745f646174615f726f6f744465706f736974436f6e74726163743a20696e76616c6964207769746864726177616c5f63726564656e7469616c73206c656e6774684465706f736974436f6e74726163743a206465706f7369742076616c7565206e6f74206d756c7469706c65206f6620677765694465706f736974436f6e74726163743a20696e76616c6964207075626b6579206c656e6774684465706f736974436f6e74726163743a206465706f7369742076616c756520746f6f20686967684465706f736974436f6e74726163743a206465706f7369742076616c756520746f6f206c6f774465706f736974436f6e74726163743a20696e76616c6964207369676e6174757265206c656e677468a26469706673582212208c57c65f1e21e323e52d50cff3c20d984b78b8c51b9c1bdbc9724bad6907b7ac64736f6c634300060b0033",
					"opcodes": "PUSH1 0x80 PUSH1 0x40 MSTORE CALLVALUE DUP1 ISZERO PUSH2 0x10 JUMPI PUSH1 0x0 DUP1 REVERT JUMPDEST POP PUSH1 0x0 DUP1 SWAP1 POP JUMPDEST PUSH1 0x1 PUSH1 0x20 SUB DUP2 LT ISZERO PUSH2 0x126 JUMPI PUSH1 0x2 PUSH1 0x21 DUP3 PUSH1 0x20 DUP2 LT PUSH2 0x32 JUMPI INVALID JUMPDEST ADD SLOAD PUSH1 0x21 DUP4 PUSH1 0x20 DUP2 LT PUSH2 0x41 JUMPI INVALID JUMPDEST ADD SLOAD PUSH1 0x40 MLOAD PUSH1 0x20 ADD DUP1 DUP4 DUP2 MSTORE PUSH1 0x20 ADD DUP3 DUP2 MSTORE PUSH1 0x20 ADD SWAP3 POP POP POP PUSH1 0x40 MLOAD PUSH1 0x20 DUP2 DUP4 SUB SUB DUP2 MSTORE SWAP1 PUSH1 0x40 MSTORE PUSH1 0x40 MLOAD DUP1 DUP3 DUP1 MLOAD SWAP1 PUSH1 0x20 ADD SWAP1 DUP1 DUP4 DUP4 JUMPDEST PUSH1 0x20 DUP4 LT PUSH2 0x9C JUMPI DUP1 MLOAD DUP3 MSTORE PUSH1 0x20 DUP3 ADD SWAP2 POP PUSH1 0x20 DUP2 ADD SWAP1 POP PUSH1 0x20 DUP4 SUB SWAP3 POP PUSH2 0x79 JUMP JUMPDEST PUSH1 0x1 DUP4 PUSH1 0x20 SUB PUSH2 0x100 EXP SUB DUP1 NOT DUP3 MLOAD AND DUP2 DUP5 MLOAD AND DUP1 DUP3 OR DUP6 MSTORE POP POP POP POP POP POP SWAP1 POP ADD SWAP2 POP POP PUSH1 0x20 PUSH1 0x40 MLOAD DUP1 DUP4 SUB DUP2 DUP6 GAS STATICCALL ISZERO DUP1 ISZERO PUSH2 0xDE JUMPI RETURNDATASIZE PUSH1 0x0 DUP1 RETURNDATACOPY RETURNDATASIZE PUSH1 0x0 REVERT JUMPDEST POP POP POP PUSH1 0x40 MLOAD RETURNDATASIZE PUSH1 0x20 DUP2 LT ISZERO PUSH2 0xF3 JUMPI PUSH1 0x0 DUP1 REVERT JUMPDEST DUP2 ADD SWAP1 DUP1 DUP1 MLOAD SWAP1 PUSH1 0x20 ADD SWAP1 SWAP3 SWAP2 SWAP1 POP POP POP PUSH1 0x21 PUSH1 0x1 DUP4 ADD PUSH1 0x20 DUP2 LT PUSH2 0x114 JUMPI INVALID JUMPDEST ADD DUP2 SWAP1 SSTORE POP DUP1 DUP1 PUSH1 0x1 ADD SWAP2 POP POP PUSH2 0x17 JUMP JUMPDEST POP PUSH2 0x17BD DUP1 PUSH3 0x137 PUSH1 0x0 CODECOPY PUSH1 0x0 RETURN INVALID PUSH1 0x80 PUSH1 0x40 MSTORE PUSH1 0x4 CALLDATASIZE LT PUSH2 0x3F JUMPI PUSH1 0x0 CALLDATALOAD PUSH1 0xE0 SHR DUP1 PUSH4 0x1FFC9A7 EQ PUSH2 0x44 JUMPI DUP1 PUSH4 0x22895118 EQ PUSH2 0xB6 JUMPI DUP1 PUSH4 0x621FD130 EQ PUSH2 0x1E3 JUMPI DUP1 PUSH4 0xC5F2892F EQ PUSH2 0x273 JUMPI JUMPDEST PUSH1 0x0 DUP1 REVERT JUMPDEST CALLVALUE DUP1 ISZERO PUSH2 0x50 JUMPI PUSH1 0x0 DUP1 REVERT JUMPDEST POP PUSH2 0x9C PUSH1 0x4 DUP1 CALLDATASIZE SUB PUSH1 0x20 DUP2 LT ISZERO PUSH2 0x67 JUMPI PUSH1 0x0 DUP1 REVERT JUMPDEST DUP2 ADD SWAP1 DUP1 DUP1 CALLDATALOAD PUSH28 0xFFFFFFFFFFFFFFFFFFFFFFFFFFFFFFFFFFFFFFFFFFFFFFFFFFFFFFFF NOT AND SWAP1 PUSH1 0x20 ADD SWAP1 SWAP3 SWAP2 SWAP1 POP POP POP PUSH2 0x29E JUMP JUMPDEST PUSH1 0x40 MLOAD DUP1 DUP3 ISZERO ISZERO ISZERO ISZERO DUP2 MSTORE PUSH1 0x20 ADD SWAP2 POP POP PUSH1 0x40 MLOAD DUP1 SWAP2 SUB SWAP1 RETURN JUMPDEST PUSH2 0x1E1 PUSH1 0x4 DUP1 CALLDATASIZE SUB PUSH1 0x80 DUP2 LT ISZERO PUSH2 0xCC JUMPI PUSH1 0x0 DUP1 REVERT JUMPDEST DUP2 ADD SWAP1 DUP1 DUP1 CALLDATALOAD SWAP1 PUSH1 0x20 ADD SWAP1 PUSH5 0x100000000 DUP2 GT ISZERO PUSH2 0xE9 JUMPI PUSH1 0x0 DUP1 REVERT JUMPDEST DUP3 ADD DUP4 PUSH1 0x20 DUP3 ADD GT ISZERO PUSH2 0xFB JUMPI PUSH1 0x0 DUP1 REVERT JUMPDEST DUP1 CALLDATALOAD SWAP1 PUSH1 0x20 ADD SWAP2 DUP5 PUSH1 0x1 DUP4 MUL DUP5 ADD GT PUSH5 0x100000000 DUP4 GT OR ISZERO PUSH2 0x11D JUMPI PUSH1 0x0 DUP1 REVERT JUMPDEST SWAP1 SWAP2 SWAP3 SWAP4 SWAP2 SWAP3 SWAP4 SWAP1 DUP1 CALLDATALOAD SWAP1 PUSH1 0x20 ADD SWAP1 PUSH5 0x100000000 DUP2 GT ISZERO PUSH2 0x13E JUMPI PUSH1 0x0 DUP1 REVERT JUMPDEST DUP3 ADD DUP4 PUSH1 0x20 DUP3 ADD GT ISZERO PUSH2 0x150 JUMPI PUSH1 0x0 DUP1 REVERT JUMPDEST DUP1 CALLDATALOAD SWAP1 PUSH1 0x20 ADD SWAP2 DUP5 PUSH1 0x1 DUP4 MUL DUP5 ADD GT PUSH5 0x100000000 DUP4 GT OR ISZERO PUSH2 0x172 JUMPI PUSH1 0x0 DUP1 REVERT JUMPDEST SWAP1 SWAP2 SWAP3 SWAP4 SWAP2 SWAP3 SWAP4 SWAP1 DUP1 CALLDATALOAD SWAP1 PUSH1 0x20 ADD SWAP1 PUSH5 0x100000000 DUP2 GT ISZERO PUSH2 0x193 JUMPI PUSH1 0x0 DUP1 REVERT JUMPDEST DUP3 ADD DUP4 PUSH1 0x20 DUP3 ADD GT ISZERO PUSH2 0x1A5 JUMPI PUSH1 0x0 DUP1 REVERT JUMPDEST DUP1 CALLDATALOAD SWAP1 PUSH1 0x20 ADD SWAP2 DUP5 PUSH1 0x1 DUP4 MUL DUP5 ADD GT PUSH5 0x100000000 DUP4 GT OR ISZERO PUSH2 0x1C7 JUMPI PUSH1 0x0 DUP1 REVERT JUMPDEST SWAP1 SWAP2 SWAP3 SWAP4 SWAP2 SWAP3 SWAP4 SWAP1 DUP1 CALLDATALOAD SWAP1 PUSH1 0x20 ADD SWAP1 SWAP3 SWAP2 SWAP1 POP POP POP PUSH2 0x370 JUMP JUMPDEST STOP JUMPDEST CALLVALUE DUP1 ISZERO PUSH2 0x1EF JUMPI PUSH1 0x0 DUP1 REVERT JUMPDEST POP PUSH2 0x1F8 PUSH2 0xFD0 JUMP JUMPDEST PUSH1 0x40 MLOAD DUP1 DUP1 PUSH1 0x20 ADD DUP3 DUP2 SUB DUP3 MSTORE DUP4 DUP2 DUP2 MLOAD DUP2 MSTORE PUSH1 0x20 ADD SWAP2 POP DUP1 MLOAD SWAP1 PUSH1 0x20 ADD SWAP1 DUP1 DUP4 DUP4 PUSH1 0x0 JUMPDEST DUP4 DUP2 LT ISZERO PUSH2 0x238 JUMPI DUP1 DUP3 ADD MLOAD DUP2 DUP5 ADD MSTORE PUSH1 0x20 DUP2 ADD SWAP1 POP PUSH2 0x21D JUMP JUMPDEST POP POP POP POP SWAP1 POP SWAP1 DUP2 ADD SWAP1 PUSH1 0x1F AND DUP1 ISZERO PUSH2 0x265 JUMPI DUP1 DUP3 SUB DUP1 MLOAD PUSH1 0x1 DUP4 PUSH1 0x20 SUB PUSH2 0x100 EXP SUB NOT AND DUP2 MSTORE PUSH1 0x20 ADD SWAP2 POP JUMPDEST POP SWAP3 POP POP POP PUSH1 0x40 MLOAD DUP1 SWAP2 SUB SWAP1 RETURN JUMPDEST CALLVALUE DUP1 ISZERO PUSH2 0x27F JUMPI PUSH1 0x0 DUP1 REVERT JUMPDEST POP PUSH2 0x288 PUSH2 0xFE2 JUMP JUMPDEST PUSH1 0x40 MLOAD DUP1 DUP3 DUP2 MSTORE PUSH1 0x20 ADD SWAP2 POP POP PUSH1 0x40 MLOAD DUP1 SWAP2 SUB SWAP1 RETURN JUMPDEST PUSH1 0x0 PUSH32 0x1FFC9A700000000000000000000000000000000000000000000000000000000 PUSH28 0xFFFFFFFFFFFFFFFFFFFFFFFFFFFFFFFFFFFFFFFFFFFFFFFFFFFFFFFF NOT AND DUP3 PUSH28 0xFFFFFFFFFFFFFFFFFFFFFFFFFFFFFFFFFFFFFFFFFFFFFFFFFFFFFFFF NOT AND EQ DUP1 PUSH2 0x369 JUMPI POP PUSH32 0x8564090700000000000000000000000000000000000000000000000000000000 PUSH28 0xFFFFFFFFFFFFFFFFFFFFFFFFFFFFFFFFFFFFFFFFFFFFFFFFFFFFFFFF NOT AND DUP3 PUSH28 0xFFFFFFFFFFFFFFFFFFFFFFFFFFFFFFFFFFFFFFFFFFFFFFFFFFFFFFFF NOT AND EQ JUMPDEST SWAP1 POP SWAP2 SWAP1 POP JUMP JUMPDEST PUSH1 0x30 DUP8 DUP8 SWAP1 POP EQ PUSH2 0x3CC JUMPI PUSH1 0x40 MLOAD PUSH32 0x8C379A000000000000000000000000000000000000000000000000000000000 DUP2 MSTORE PUSH1 0x4 ADD DUP1 DUP1 PUSH1 0x20 ADD DUP3 DUP2 SUB DUP3 MSTORE PUSH1 0x26 DUP2 MSTORE PUSH1 0x20 ADD DUP1 PUSH2 0x16EC PUSH1 0x26 SWAP2 CODECOPY PUSH1 0x40 ADD SWAP2 POP POP PUSH1 0x40 MLOAD DUP1 SWAP2 SUB SWAP1 REVERT JUMPDEST PUSH1 0x20 DUP6 DUP6 SWAP1 POP EQ PUSH2 0x428 JUMPI PUSH1 0x40 MLOAD PUSH32 0x8C379A000000000000000000000000000000000000000000000000000000000 DUP2 MSTORE PUSH1 0x4 ADD DUP1 DUP1 PUSH1 0x20 ADD DUP3 DUP2 SUB DUP3 MSTORE PUSH1 0x36 DUP2 MSTORE PUSH1 0x20 ADD DUP1 PUSH2 0x1683 PUSH1 0x36 SWAP2 CODECOPY PUSH1 0x40 ADD SWAP2 POP POP PUSH1 0x40 MLOAD DUP1 SWAP2 SUB SWAP1 REVERT JUMPDEST PUSH1 0x60 DUP4 DUP4 SWAP1 POP EQ PUSH2 0x484 JUMPI PUSH1 0x40 MLOAD PUSH32 0x8C379A000000000000000000000000000000000000000000000000000000000 DUP2 MSTORE PUSH1 0x4 ADD DUP1 DUP1 PUSH1 0x20 ADD DUP3 DUP2 SUB DUP3 MSTORE PUSH1 0x29 DUP2 MSTORE PUSH1 0x20 ADD DUP1 PUSH2 0x175F PUSH1 0x29 SWAP2 CODECOPY PUSH1 0x40 ADD SWAP2 POP POP PUSH1 0x40 MLOAD DUP1 SWAP2 SUB SWAP1 REVERT JUMPDEST PUSH8 0xDE0B6B3A7640000 CALLVALUE LT ISZERO PUSH2 0x4E5 JUMPI PUSH1 0x40 MLOAD PUSH32 0x8C379A000000000000000000000000000000000000000000000000000000000 DUP2 MSTORE PUSH1 0x4 ADD DUP1 DUP1 PUSH1 0x20 ADD DUP3 DUP2 SUB DUP3 MSTORE PUSH1 0x26 DUP2 MSTORE PUSH1 0x20 ADD DUP1 PUSH2 0x1739 PUSH1 0x26 SWAP2 CODECOPY PUSH1 0x40 ADD SWAP2 POP POP PUSH1 0x40 MLOAD DUP1 SWAP2 SUB SWAP1 REVERT JUMPDEST PUSH1 0x0 PUSH4 0x3B9ACA00 CALLVALUE DUP2 PUSH2 0x4F4 JUMPI INVALID JUMPDEST MOD EQ PUSH2 0x54B JUMPI PUSH1 0x40 MLOAD PUSH32 0x8C379A000000000000000000000000000000000000000000000000000000000 DUP2 MSTORE PUSH1 0x4 ADD DUP1 DUP1 PUSH1 0x20 ADD DUP3 DUP2 SUB DUP3 MSTORE PUSH1 0x33 DUP2 MSTORE PUSH1 0x20 ADD DUP1 PUSH2 0x16B9 PUSH1 0x33 SWAP2 CODECOPY PUSH1 0x40 ADD SWAP2 POP POP PUSH1 0x40 MLOAD DUP1 SWAP2 SUB SWAP1 REVERT JUMPDEST PUSH1 0x0 PUSH4 0x3B9ACA00 CALLVALUE DUP2 PUSH2 0x55A JUMPI INVALID JUMPDEST DIV SWAP1 POP PUSH8 0xFFFFFFFFFFFFFFFF DUP1 AND DUP2 GT ISZERO PUSH2 0x5C0 JUMPI PUSH1 0x40 MLOAD PUSH32 0x8C379A000000000000000000000000000000000000000000000000000000000 DUP2 MSTORE PUSH1 0x4 ADD DUP1 DUP1 PUSH1 0x20 ADD DUP3 DUP2 SUB DUP3 MSTORE PUSH1 0x27 DUP2 MSTORE PUSH1 0x20 ADD DUP1 PUSH2 0x1712 PUSH1 0x27 SWAP2 CODECOPY PUSH1 0x40 ADD SWAP2 POP POP PUSH1 0x40 MLOAD DUP1 SWAP2 SUB SWAP1 REVERT JUMPDEST PUSH1 0x60 PUSH2 0x5CB DUP3 PUSH2 0x1314 JUMP JUMPDEST SWAP1 POP PUSH32 0x649BBC62D0E31342AFEA4E5CD82D4049E7E1EE912FC0889AA790803BE39038C5 DUP10 DUP10 DUP10 DUP10 DUP6 DUP11 DUP11 PUSH2 0x600 PUSH1 0x20 SLOAD PUSH2 0x1314 JUMP JUMPDEST PUSH1 0x40 MLOAD DUP1 DUP1 PUSH1 0x20 ADD DUP1 PUSH1 0x20 ADD DUP1 PUSH1 0x20 ADD DUP1 PUSH1 0x20 ADD DUP1 PUSH1 0x20 ADD DUP7 DUP2 SUB DUP7 MSTORE DUP15 DUP15 DUP3 DUP2 DUP2 MSTORE PUSH1 0x20 ADD SWAP3 POP DUP1 DUP3 DUP5 CALLDATACOPY PUSH1 0x0 DUP2 DUP5 ADD MSTORE PUSH1 0x1F NOT PUSH1 0x1F DUP3 ADD AND SWAP1 POP DUP1 DUP4 ADD SWAP3 POP POP POP DUP7 DUP2 SUB DUP6 MSTORE DUP13 DUP13 DUP3 DUP2 DUP2 MSTORE PUSH1 0x20 ADD SWAP3 POP DUP1 DUP3 DUP5 CALLDATACOPY PUSH1 0x0 DUP2 DUP5 ADD MSTORE PUSH1 0x1F NOT PUSH1 0x1F DUP3 ADD AND SWAP1 POP DUP1 DUP4 ADD SWAP3 POP POP POP DUP7 DUP2 SUB DUP5 MSTORE DUP11 DUP2 DUP2 MLOAD DUP2 MSTORE PUSH1 0x20 ADD SWAP2 POP DUP1 MLOAD SWAP1 PUSH1 0x20 ADD SWAP1 DUP1 DUP4 DUP4 PUSH1 0x0 JUMPDEST DUP4 DUP2 LT ISZERO PUSH2 0x6A6 JUMPI DUP1 DUP3 ADD MLOAD DUP2 DUP5 ADD MSTORE PUSH1 0x20 DUP2 ADD SWAP1 POP PUSH2 0x68B JUMP JUMPDEST POP POP POP POP SWAP1 POP SWAP1 DUP2 ADD SWAP1 PUSH1 0x1F AND DUP1 ISZERO PUSH2 0x6D3 JUMPI DUP1 DUP3 SUB DUP1 MLOAD PUSH1 0x1 DUP4 PUSH1 0x20 SUB PUSH2 0x100 EXP SUB NOT AND DUP2 MSTORE PUSH1 0x20 ADD SWAP2 POP JUMPDEST POP DUP7 DUP2 SUB DUP4 MSTORE DUP10 DUP10 DUP3 DUP2 DUP2 MSTORE PUSH1 0x20 ADD SWAP3 POP DUP1 DUP3 DUP5 CALLDATACOPY PUSH1 0x0 DUP2 DUP5 ADD MSTORE PUSH1 0x1F NOT PUSH1 0x1F DUP3 ADD AND SWAP1 POP DUP1 DUP4 ADD SWAP3 POP POP POP DUP7 DUP2 SUB DUP3 MSTORE DUP8 DUP2 DUP2 MLOAD DUP2 MSTORE PUSH1 0x20 ADD SWAP2 POP DUP1 MLOAD SWAP1 PUSH1 0x20 ADD SWAP1 DUP1 DUP4 DUP4 PUSH1 0x0 JUMPDEST DUP4 DUP2 LT ISZERO PUSH2 0x737 JUMPI DUP1 DUP3 ADD MLOAD DUP2 DUP5 ADD MSTORE PUSH1 0x20 DUP2 ADD SWAP1 POP PUSH2 0x71C JUMP JUMPDEST POP POP POP POP SWAP1 POP SWAP1 DUP2 ADD SWAP1 PUSH1 0x1F AND DUP1 ISZERO PUSH2 0x764 JUMPI DUP1 DUP3 SUB DUP1 MLOAD PUSH1 0x1 DUP4 PUSH1 0x20 SUB PUSH2 0x100 EXP SUB NOT AND DUP2 MSTORE PUSH1 0x20 ADD SWAP2 POP JUMPDEST POP SWAP14 POP POP POP POP POP POP POP POP POP POP POP POP POP POP PUSH1 0x40 MLOAD DUP1 SWAP2 SUB SWAP1 LOG1 PUSH1 0x0 PUSH1 0x2 DUP11 DUP11 PUSH1 0x0 PUSH1 0x80 SHL PUSH1 0x40 MLOAD PUSH1 0x20 ADD DUP1 DUP5 DUP5 DUP1 DUP3 DUP5 CALLDATACOPY DUP1 DUP4 ADD SWAP3 POP POP POP DUP3 PUSH16 0xFFFFFFFFFFFFFFFFFFFFFFFFFFFFFFFF NOT AND PUSH16 0xFFFFFFFFFFFFFFFFFFFFFFFFFFFFFFFF NOT AND DUP2 MSTORE PUSH1 0x10 ADD SWAP4 POP POP POP POP PUSH1 0x40 MLOAD PUSH1 0x20 DUP2 DUP4 SUB SUB DUP2 MSTORE SWAP1 PUSH1 0x40 MSTORE PUSH1 0x40 MLOAD DUP1 DUP3 DUP1 MLOAD SWAP1 PUSH1 0x20 ADD SWAP1 DUP1 DUP4 DUP4 JUMPDEST PUSH1 0x20 DUP4 LT PUSH2 0x80E JUMPI DUP1 MLOAD DUP3 MSTORE PUSH1 0x20 DUP3 ADD SWAP2 POP PUSH1 0x20 DUP2 ADD SWAP1 POP PUSH1 0x20 DUP4 SUB SWAP3 POP PUSH2 0x7EB JUMP JUMPDEST PUSH1 0x1 DUP4 PUSH1 0x20 SUB PUSH2 0x100 EXP SUB DUP1 NOT DUP3 MLOAD AND DUP2 DUP5 MLOAD AND DUP1 DUP3 OR DUP6 MSTORE POP POP POP POP POP POP SWAP1 POP ADD SWAP2 POP POP PUSH1 0x20 PUSH1 0x40 MLOAD DUP1 DUP4 SUB DUP2 DUP6 GAS STATICCALL ISZERO DUP1 ISZERO PUSH2 0x850 JUMPI RETURNDATASIZE PUSH1 0x0 DUP1 RETURNDATACOPY RETURNDATASIZE PUSH1 0x0 REVERT JUMPDEST POP POP POP PUSH1 0x40 MLOAD RETURNDATASIZE PUSH1 0x20 DUP2 LT ISZERO PUSH2 0x865 JUMPI PUSH1 0x0 DUP1 REVERT JUMPDEST DUP2 ADD SWAP1 DUP1 DUP1 MLOAD SWAP1 PUSH1 0x20 ADD SWAP1 SWAP3 SWAP2 SWAP1 POP POP POP SWAP1 POP PUSH1 0x0 PUSH1 0x2 DUP1 DUP9 DUP9 PUSH1 0x0 SWAP1 PUSH1 0x40 SWAP3 PUSH2 0x891 SWAP4 SWAP3 SWAP2 SWAP1 PUSH2 0x15DA JUMP JUMPDEST PUSH1 0x40 MLOAD PUSH1 0x20 ADD DUP1 DUP4 DUP4 DUP1 DUP3 DUP5 CALLDATACOPY DUP1 DUP4 ADD SWAP3 POP POP POP SWAP3 POP POP POP PUSH1 0x40 MLOAD PUSH1 0x20 DUP2 DUP4 SUB SUB DUP2 MSTORE SWAP1 PUSH1 0x40 MSTORE PUSH1 0x40 MLOAD DUP1 DUP3 DUP1 MLOAD SWAP1 PUSH1 0x20 ADD SWAP1 DUP1 DUP4 DUP4 JUMPDEST PUSH1 0x20 DUP4 LT PUSH2 0x8EB JUMPI DUP1 MLOAD DUP3 MSTORE PUSH1 0x20 DUP3 ADD SWAP2 POP PUSH1 0x20 DUP2 ADD SWAP1 POP PUSH1 0x20 DUP4 SUB SWAP3 POP PUSH2 0x8C8 JUMP JUMPDEST PUSH1 0x1 DUP4 PUSH1 0x20 SUB PUSH2 0x100 EXP SUB DUP1 NOT DUP3 MLOAD AND DUP2 DUP5 MLOAD AND DUP1 DUP3 OR DUP6 MSTORE POP POP POP POP POP POP SWAP1 POP ADD SWAP2 POP POP PUSH1 0x20 PUSH1 0x40 MLOAD DUP1 DUP4 SUB DUP2 DUP6 GAS STATICCALL ISZERO DUP1 ISZERO PUSH2 0x92D JUMPI RETURNDATASIZE PUSH1 0x0 DUP1 RETURNDATACOPY RETURNDATASIZE PUSH1 0x0 REVERT JUMPDEST POP POP POP PUSH1 0x40 MLOAD RETURNDATASIZE PUSH1 0x20 DUP2 LT ISZERO PUSH2 0x942 JUMPI PUSH1 0x0 DUP1 REVERT JUMPDEST DUP2 ADD SWAP1 DUP1 DUP1 MLOAD SWAP1 PUSH1 0x20 ADD SWAP1 SWAP3 SWAP2 SWAP1 POP POP POP PUSH1 0x2 DUP10 DUP10 PUSH1 0x40 SWAP1 DUP1 SWAP3 PUSH2 0x968 SWAP4 SWAP3 SWAP2 SWAP1 PUSH2 0x15DA JUMP JUMPDEST PUSH1 0x0 DUP1 SHL PUSH1 0x40 MLOAD PUSH1 0x20 ADD DUP1 DUP5 DUP5 DUP1 DUP3 DUP5 CALLDATACOPY DUP1 DUP4 ADD SWAP3 POP POP POP DUP3 DUP2 MSTORE PUSH1 0x20 ADD SWAP4 POP POP POP POP PUSH1 0x40 MLOAD PUSH1 0x20 DUP2 DUP4 SUB SUB DUP2 MSTORE SWAP1 PUSH1 0x40 MSTORE PUSH1 0x40 MLOAD DUP1 DUP3 DUP1 MLOAD SWAP1 PUSH1 0x20 ADD SWAP1 DUP1 DUP4 DUP4 JUMPDEST PUSH1 0x20 DUP4 LT PUSH2 0x9CD JUMPI DUP1 MLOAD DUP3 MSTORE PUSH1 0x20 DUP3 ADD SWAP2 POP PUSH1 0x20 DUP2 ADD SWAP1 POP PUSH1 0x20 DUP4 SUB SWAP3 POP PUSH2 0x9AA JUMP JUMPDEST PUSH1 0x1 DUP4 PUSH1 0x20 SUB PUSH2 0x100 EXP SUB DUP1 NOT DUP3 MLOAD AND DUP2 DUP5 MLOAD AND DUP1 DUP3 OR DUP6 MSTORE POP POP POP POP POP POP SWAP1 POP ADD SWAP2 POP POP PUSH1 0x20 PUSH1 0x40 MLOAD DUP1 DUP4 SUB DUP2 DUP6 GAS STATICCALL ISZERO DUP1 ISZERO PUSH2 0xA0F JUMPI RETURNDATASIZE PUSH1 0x0 DUP1 RETURNDATACOPY RETURNDATASIZE PUSH1 0x0 REVERT JUMPDEST POP POP POP PUSH1 0x40 MLOAD RETURNDATASIZE PUSH1 0x20 DUP2 LT ISZERO PUSH2 0xA24 JUMPI PUSH1 0x0 DUP1 REVERT JUMPDEST DUP2 ADD SWAP1 DUP1 DUP1 MLOAD SWAP1 PUSH1 0x20 ADD SWAP1 SWAP3 SWAP2 SWAP1 POP POP POP PUSH1 0x40 MLOAD PUSH1 0x20 ADD DUP1 DUP4 DUP2 MSTORE PUSH1 0x20 ADD DUP3 DUP2 MSTORE PUSH1 0x20 ADD SWAP3 POP POP POP PUSH1 0x40 MLOAD PUSH1 0x20 DUP2 DUP4 SUB SUB DUP2 MSTORE SWAP1 PUSH1 0x40 MSTORE PUSH1 0x40 MLOAD DUP1 DUP3 DUP1 MLOAD SWAP1 PUSH1 0x20 ADD SWAP1 DUP1 DUP4 DUP4 JUMPDEST PUSH1 0x20 DUP4 LT PUSH2 0xA8E JUMPI DUP1 MLOAD DUP3 MSTORE PUSH1 0x20 DUP3 ADD SWAP2 POP PUSH1 0x20 DUP2 ADD SWAP1 POP PUSH1 0x20 DUP4 SUB SWAP3 POP PUSH2 0xA6B JUMP JUMPDEST PUSH1 0x1 DUP4 PUSH1 0x20 SUB PUSH2 0x100 EXP SUB DUP1 NOT DUP3 MLOAD AND DUP2 DUP5 MLOAD AND DUP1 DUP3 OR DUP6 MSTORE POP POP POP POP POP POP SWAP1 POP ADD SWAP2 POP POP PUSH1 0x20 PUSH1 0x40 MLOAD DUP1 DUP4 SUB DUP2 DUP6 GAS STATICCALL ISZERO DUP1 ISZERO PUSH2 0xAD0 JUMPI RETURNDATASIZE PUSH1 0x0 DUP1 RETURNDATACOPY RETURNDATASIZE PUSH1 0x0 REVERT JUMPDEST POP POP POP PUSH1 0x40 MLOAD RETURNDATASIZE PUSH1 0x20 DUP2 LT ISZERO PUSH2 0xAE5 JUMPI PUSH1 0x0 DUP1 REVERT JUMPDEST DUP2 ADD SWAP1 DUP1 DUP1 MLOAD SWAP1 PUSH1 0x20 ADD SWAP1 SWAP3 SWAP2 SWAP1 POP POP POP SWAP1 POP PUSH1 0x0 PUSH1 0x2 DUP1 DUP5 DUP13 DUP13 PUSH1 0x40 MLOAD PUSH1 0x20 ADD DUP1 DUP5 DUP2 MSTORE PUSH1 0x20 ADD DUP4 DUP4 DUP1 DUP3 DUP5 CALLDATACOPY DUP1 DUP4 ADD SWAP3 POP POP POP SWAP4 POP POP POP POP PUSH1 0x40 MLOAD PUSH1 0x20 DUP2 DUP4 SUB SUB DUP2 MSTORE SWAP1 PUSH1 0x40 MSTORE PUSH1 0x40 MLOAD DUP1 DUP3 DUP1 MLOAD SWAP1 PUSH1 0x20 ADD SWAP1 DUP1 DUP4 DUP4 JUMPDEST PUSH1 0x20 DUP4 LT PUSH2 0xB61 JUMPI DUP1 MLOAD DUP3 MSTORE PUSH1 0x20 DUP3 ADD SWAP2 POP PUSH1 0x20 DUP2 ADD SWAP1 POP PUSH1 0x20 DUP4 SUB SWAP3 POP PUSH2 0xB3E JUMP JUMPDEST PUSH1 0x1 DUP4 PUSH1 0x20 SUB PUSH2 0x100 EXP SUB DUP1 NOT DUP3 MLOAD AND DUP2 DUP5 MLOAD AND DUP1 DUP3 OR DUP6 MSTORE POP POP POP POP POP POP SWAP1 POP ADD SWAP2 POP POP PUSH1 0x20 PUSH1 0x40 MLOAD DUP1 DUP4 SUB DUP2 DUP6 GAS STATICCALL ISZERO DUP1 ISZERO PUSH2 0xBA3 JUMPI RETURNDATASIZE PUSH1 0x0 DUP1 RETURNDATACOPY RETURNDATASIZE PUSH1 0x0 REVERT JUMPDEST POP POP POP PUSH1 0x40 MLOAD RETURNDATASIZE PUSH1 0x20 DUP2 LT ISZERO PUSH2 0xBB8 JUMPI PUSH1 0x0 DUP1 REVERT JUMPDEST DUP2 ADD SWAP1 DUP1 DUP1 MLOAD SWAP1 PUSH1 0x20 ADD SWAP1 SWAP3 SWAP2 SWAP1 POP POP POP PUSH1 0x2 DUP7 PUSH1 0x0 PUSH1 0x40 SHL DUP7 PUSH1 0x40 MLOAD PUSH1 0x20 ADD DUP1 DUP5 DUP1 MLOAD SWAP1 PUSH1 0x20 ADD SWAP1 DUP1 DUP4 DUP4 JUMPDEST PUSH1 0x20 DUP4 LT PUSH2 0xC08 JUMPI DUP1 MLOAD DUP3 MSTORE PUSH1 0x20 DUP3 ADD SWAP2 POP PUSH1 0x20 DUP2 ADD SWAP1 POP PUSH1 0x20 DUP4 SUB SWAP3 POP PUSH2 0xBE5 JUMP JUMPDEST PUSH1 0x1 DUP4 PUSH1 0x20 SUB PUSH2 0x100 EXP SUB DUP1 NOT DUP3 MLOAD AND DUP2 DUP5 MLOAD AND DUP1 DUP3 OR DUP6 MSTORE POP POP POP POP POP POP SWAP1 POP ADD DUP4 PUSH8 0xFFFFFFFFFFFFFFFF NOT AND PUSH8 0xFFFFFFFFFFFFFFFF NOT AND DUP2 MSTORE PUSH1 0x18 ADD DUP3 DUP2 MSTORE PUSH1 0x20 ADD SWAP4 POP POP POP POP PUSH1 0x40 MLOAD PUSH1 0x20 DUP2 DUP4 SUB SUB DUP2 MSTORE SWAP1 PUSH1 0x40 MSTORE PUSH1 0x40 MLOAD DUP1 DUP3 DUP1 MLOAD SWAP1 PUSH1 0x20 ADD SWAP1 DUP1 DUP4 DUP4 JUMPDEST PUSH1 0x20 DUP4 LT PUSH2 0xC93 JUMPI DUP1 MLOAD DUP3 MSTORE PUSH1 0x20 DUP3 ADD SWAP2 POP PUSH1 0x20 DUP2 ADD SWAP1 POP PUSH1 0x20 DUP4 SUB SWAP3 POP PUSH2 0xC70 JUMP JUMPDEST PUSH1 0x1 DUP4 PUSH1 0x20 SUB PUSH2 0x100 EXP SUB DUP1 NOT DUP3 MLOAD AND DUP2 DUP5 MLOAD AND DUP1 DUP3 OR DUP6 MSTORE POP POP POP POP POP POP SWAP1 POP ADD SWAP2 POP POP PUSH1 0x20 PUSH1 0x40 MLOAD DUP1 DUP4 SUB DUP2 DUP6 GAS STATICCALL ISZERO DUP1 ISZERO PUSH2 0xCD5 JUMPI RETURNDATASIZE PUSH1 0x0 DUP1 RETURNDATACOPY RETURNDATASIZE PUSH1 0x0 REVERT JUMPDEST POP POP POP PUSH1 0x40 MLOAD RETURNDATASIZE PUSH1 0x20 DUP2 LT ISZERO PUSH2 0xCEA JUMPI PUSH1 0x0 DUP1 REVERT JUMPDEST DUP2 ADD SWAP1 DUP1 DUP1 MLOAD SWAP1 PUSH1 0x20 ADD SWAP1 SWAP3 SWAP2 SWAP1 POP POP POP PUSH1 0x40 MLOAD PUSH1 0x20 ADD DUP1 DUP4 DUP2 MSTORE PUSH1 0x20 ADD DUP3 DUP2 MSTORE PUSH1 0x20 ADD SWAP3 POP POP POP PUSH1 0x40 MLOAD PUSH1 0x20 DUP2 DUP4 SUB SUB DUP2 MSTORE SWAP1 PUSH1 0x40 MSTORE PUSH1 0x40 MLOAD DUP1 DUP3 DUP1 MLOAD SWAP1 PUSH1 0x20 ADD SWAP1 DUP1 DUP4 DUP4 JUMPDEST PUSH1 0x20 DUP4 LT PUSH2 0xD54 JUMPI DUP1 MLOAD DUP3 MSTORE PUSH1 0x20 DUP3 ADD SWAP2 POP PUSH1 0x20 DUP2 ADD SWAP1 POP PUSH1 0x20 DUP4 SUB SWAP3 POP PUSH2 0xD31 JUMP JUMPDEST PUSH1 0x1 DUP4 PUSH1 0x20 SUB PUSH2 0x100 EXP SUB DUP1 NOT DUP3 MLOAD AND DUP2 DUP5 MLOAD AND DUP1 DUP3 OR DUP6 MSTORE POP POP POP POP POP POP SWAP1 POP ADD SWAP2 POP POP PUSH1 0x20 PUSH1 0x40 MLOAD DUP1 DUP4 SUB DUP2 DUP6 GAS STATICCALL ISZERO DUP1 ISZERO PUSH2 0xD96 JUMPI RETURNDATASIZE PUSH1 0x0 DUP1 RETURNDATACOPY RETURNDATASIZE PUSH1 0x0 REVERT JUMPDEST POP POP POP PUSH1 0x40 MLOAD RETURNDATASIZE PUSH1 0x20 DUP2 LT ISZERO PUSH2 0xDAB JUMPI PUSH1 0x0 DUP1 REVERT JUMPDEST DUP2 ADD SWAP1 DUP1 DUP1 MLOAD SWAP1 PUSH1 0x20 ADD SWAP1 SWAP3 SWAP2 SWAP1 POP POP POP SWAP1 POP DUP6 DUP2 EQ PUSH2 0xE16 JUMPI PUSH1 0x40 MLOAD PUSH32 0x8C379A000000000000000000000000000000000000000000000000000000000 DUP2 MSTORE PUSH1 0x4 ADD DUP1 DUP1 PUSH1 0x20 ADD DUP3 DUP2 SUB DUP3 MSTORE PUSH1 0x54 DUP2 MSTORE PUSH1 0x20 ADD DUP1 PUSH2 0x162F PUSH1 0x54 SWAP2 CODECOPY PUSH1 0x60 ADD SWAP2 POP POP PUSH1 0x40 MLOAD DUP1 SWAP2 SUB SWAP1 REVERT JUMPDEST PUSH1 0x1 PUSH1 0x20 PUSH1 0x2 EXP SUB PUSH1 0x20 SLOAD LT PUSH2 0xE77 JUMPI PUSH1 0x40 MLOAD PUSH32 0x8C379A000000000000000000000000000000000000000000000000000000000 DUP2 MSTORE PUSH1 0x4 ADD DUP1 DUP1 PUSH1 0x20 ADD DUP3 DUP2 SUB DUP3 MSTORE PUSH1 0x21 DUP2 MSTORE PUSH1 0x20 ADD DUP1 PUSH2 0x160E PUSH1 0x21 SWAP2 CODECOPY PUSH1 0x40 ADD SWAP2 POP POP PUSH1 0x40 MLOAD DUP1 SWAP2 SUB SWAP1 REVERT JUMPDEST PUSH1 0x1 PUSH1 0x20 PUSH1 0x0 DUP3 DUP3 SLOAD ADD SWAP3 POP POP DUP2 SWAP1 SSTORE POP PUSH1 0x0 PUSH1 0x20 SLOAD SWAP1 POP PUSH1 0x0 DUP1 SWAP1 POP JUMPDEST PUSH1 0x20 DUP2 LT ISZERO PUSH2 0xFB7 JUMPI PUSH1 0x1 DUP1 DUP4 AND EQ ISZERO PUSH2 0xEC8 JUMPI DUP3 PUSH1 0x0 DUP3 PUSH1 0x20 DUP2 LT PUSH2 0xEB7 JUMPI INVALID JUMPDEST ADD DUP2 SWAP1 SSTORE POP POP POP POP POP POP POP POP PUSH2 0xFC7 JUMP JUMPDEST PUSH1 0x2 PUSH1 0x0 DUP3 PUSH1 0x20 DUP2 LT PUSH2 0xED7 JUMPI INVALID JUMPDEST ADD SLOAD DUP5 PUSH1 0x40 MLOAD PUSH1 0x20 ADD DUP1 DUP4 DUP2 MSTORE PUSH1 0x20 ADD DUP3 DUP2 MSTORE PUSH1 0x20 ADD SWAP3 POP POP POP PUSH1 0x40 MLOAD PUSH1 0x20 DUP2 DUP4 SUB SUB DUP2 MSTORE SWAP1 PUSH1 0x40 MSTORE PUSH1 0x40 MLOAD DUP1 DUP3 DUP1 MLOAD SWAP1 PUSH1 0x20 ADD SWAP1 DUP1 DUP4 DUP4 JUMPDEST PUSH1 0x20 DUP4 LT PUSH2 0xF33 JUMPI DUP1 MLOAD DUP3 MSTORE PUSH1 0x20 DUP3 ADD SWAP2 POP PUSH1 0x20 DUP2 ADD SWAP1 POP PUSH1 0x20 DUP4 SUB SWAP3 POP PUSH2 0xF10 JUMP JUMPDEST PUSH1 0x1 DUP4 PUSH1 0x20 SUB PUSH2 0x100 EXP SUB DUP1 NOT DUP3 MLOAD AND DUP2 DUP5 MLOAD AND DUP1 DUP3 OR DUP6 MSTORE POP POP POP POP POP POP SWAP1 POP ADD SWAP2 POP POP PUSH1 0x20 PUSH1 0x40 MLOAD DUP1 DUP4 SUB DUP2 DUP6 GAS STATICCALL ISZERO DUP1 ISZERO PUSH2 0xF75 JUMPI RETURNDATASIZE PUSH1 0x0 DUP1 RETURNDATACOPY RETURNDATASIZE PUSH1 0x0 REVERT JUMPDEST POP POP POP PUSH1 0x40 MLOAD RETURNDATASIZE PUSH1 0x20 DUP2 LT ISZERO PUSH2 0xF8A JUMPI PUSH1 0x0 DUP1 REVERT JUMPDEST DUP2 ADD SWAP1 DUP1 DUP1 MLOAD SWAP1 PUSH1 0x20 ADD SWAP1 SWAP3 SWAP2 SWAP1 POP POP POP SWAP3 POP PUSH1 0x2 DUP3 DUP2 PUSH2 0xFA7 JUMPI INVALID JUMPDEST DIV SWAP2 POP DUP1 DUP1 PUSH1 0x1 ADD SWAP2 POP POP PUSH2 0xE95 JUMP JUMPDEST POP PUSH1 0x0 PUSH2 0xFC0 JUMPI INVALID JUMPDEST POP POP POP POP POP POP JUMPDEST POP POP POP POP POP POP POP JUMP JUMPDEST PUSH1 0x60 PUSH2 0xFDD PUSH1 0x20 SLOAD PUSH2 0x1314 JUMP JUMPDEST SWAP1 POP SWAP1 JUMP JUMPDEST PUSH1 0x0 DUP1 PUSH1 0x0 PUSH1 0x20 SLOAD SWAP1 POP PUSH1 0x0 DUP1 SWAP1 POP JUMPDEST PUSH1 0x20 DUP2 LT ISZERO PUSH2 0x11D0 JUMPI PUSH1 0x1 DUP1 DUP4 AND EQ ISZERO PUSH2 0x10E0 JUMPI PUSH1 0x2 PUSH1 0x0 DUP3 PUSH1 0x20 DUP2 LT PUSH2 0x1015 JUMPI INVALID JUMPDEST ADD SLOAD DUP5 PUSH1 0x40 MLOAD PUSH1 0x20 ADD DUP1 DUP4 DUP2 MSTORE PUSH1 0x20 ADD DUP3 DUP2 MSTORE PUSH1 0x20 ADD SWAP3 POP POP POP PUSH1 0x40 MLOAD PUSH1 0x20 DUP2 DUP4 SUB SUB DUP2 MSTORE SWAP1 PUSH1 0x40 MSTORE PUSH1 0x40 MLOAD DUP1 DUP3 DUP1 MLOAD SWAP1 PUSH1 0x20 ADD SWAP1 DUP1 DUP4 DUP4 JUMPDEST PUSH1 0x20 DUP4 LT PUSH2 0x1071 JUMPI DUP1 MLOAD DUP3 MSTORE PUSH1 0x20 DUP3 ADD SWAP2 POP PUSH1 0x20 DUP2 ADD SWAP1 POP PUSH1 0x20 DUP4 SUB SWAP3 POP PUSH2 0x104E JUMP JUMPDEST PUSH1 0x1 DUP4 PUSH1 0x20 SUB PUSH2 0x100 EXP SUB DUP1 NOT DUP3 MLOAD AND DUP2 DUP5 MLOAD AND DUP1 DUP3 OR DUP6 MSTORE POP POP POP POP POP POP SWAP1 POP ADD SWAP2 POP POP PUSH1 0x20 PUSH1 0x40 MLOAD DUP1 DUP4 SUB DUP2 DUP6 GAS STATICCALL ISZERO DUP1 ISZERO PUSH2 0x10B3 JUMPI RETURNDATASIZE PUSH1 0x0 DUP1 RETURNDATACOPY RETURNDATASIZE PUSH1 0x0 REVERT JUMPDEST POP POP POP PUSH1 0x40 MLOAD RETURNDATASIZE PUSH1 0x20 DUP2 LT ISZERO PUSH2 0x10C8 JUMPI PUSH1 0x0 DUP1 REVERT JUMPDEST DUP2 ADD SWAP1 DUP1 DUP1 MLOAD SWAP1 PUSH1 0x20 ADD SWAP1 SWAP3 SWAP2 SWAP1 POP POP POP SWAP3 POP PUSH2 0x11B6 JUMP JUMPDEST PUSH1 0x2 DUP4 PUSH1 0x21 DUP4 PUSH1 0x20 DUP2 LT PUSH2 0x10F0 JUMPI INVALID JUMPDEST ADD SLOAD PUSH1 0x40 MLOAD PUSH1 0x20 ADD DUP1 DUP4 DUP2 MSTORE PUSH1 0x20 ADD DUP3 DUP2 MSTORE PUSH1 0x20 ADD SWAP3 POP POP POP PUSH1 0x40 MLOAD PUSH1 0x20 DUP2 DUP4 SUB SUB DUP2 MSTORE SWAP1 PUSH1 0x40 MSTORE PUSH1 0x40 MLOAD DUP1 DUP3 DUP1 MLOAD SWAP1 PUSH1 0x20 ADD SWAP1 DUP1 DUP4 DUP4 JUMPDEST PUSH1 0x20 DUP4 LT PUSH2 0x114B JUMPI DUP1 MLOAD DUP3 MSTORE PUSH1 0x20 DUP3 ADD SWAP2 POP PUSH1 0x20 DUP2 ADD SWAP1 POP PUSH1 0x20 DUP4 SUB SWAP3 POP PUSH2 0x1128 JUMP JUMPDEST PUSH1 0x1 DUP4 PUSH1 0x20 SUB PUSH2 0x100 EXP SUB DUP1 NOT DUP3 MLOAD AND DUP2 DUP5 MLOAD AND DUP1 DUP3 OR DUP6 MSTORE POP POP POP POP POP POP SWAP1 POP ADD SWAP2 POP POP PUSH1 0x20 PUSH1 0x40 MLOAD DUP1 DUP4 SUB DUP2 DUP6 GAS STATICCALL ISZERO DUP1 ISZERO PUSH2 0x118D JUMPI RETURNDATASIZE PUSH1 0x0 DUP1 RETURNDATACOPY RETURNDATASIZE PUSH1 0x0 REVERT JUMPDEST POP POP POP PUSH1 0x40 MLOAD RETURNDATASIZE PUSH1 0x20 DUP2 LT ISZERO PUSH2 0x11A2 JUMPI PUSH1 0x0 DUP1 REVERT JUMPDEST DUP2 ADD SWAP1 DUP1 DUP1 MLOAD SWAP1 PUSH1 0x20 ADD SWAP1 SWAP3 SWAP2 SWAP1 POP POP POP SWAP3 POP JUMPDEST PUSH1 0x2 DUP3 DUP2 PUSH2 0x11C0 JUMPI INVALID JUMPDEST DIV SWAP2 POP DUP1 DUP1 PUSH1 0x1 ADD SWAP2 POP POP PUSH2 0xFF2 JUMP JUMPDEST POP PUSH1 0x2 DUP3 PUSH2 0x11DF PUSH1 0x20 SLOAD PUSH2 0x1314 JUMP JUMPDEST PUSH1 0x0 PUSH1 0x40 SHL PUSH1 0x40 MLOAD PUSH1 0x20 ADD DUP1 DUP5 DUP2 MSTORE PUSH1 0x20 ADD DUP4 DUP1 MLOAD SWAP1 PUSH1 0x20 ADD SWAP1 DUP1 DUP4 DUP4 JUMPDEST PUSH1 0x20 DUP4 LT PUSH2 0x1220 JUMPI DUP1 MLOAD DUP3 MSTORE PUSH1 0x20 DUP3 ADD SWAP2 POP PUSH1 0x20 DUP2 ADD SWAP1 POP PUSH1 0x20 DUP4 SUB SWAP3 POP PUSH2 0x11FD JUMP JUMPDEST PUSH1 0x1 DUP4 PUSH1 0x20 SUB PUSH2 0x100 EXP SUB DUP1 NOT DUP3 MLOAD AND DUP2 DUP5 MLOAD AND DUP1 DUP3 OR DUP6 MSTORE POP POP POP POP POP POP SWAP1 POP ADD DUP3 PUSH8 0xFFFFFFFFFFFFFFFF NOT AND PUSH8 0xFFFFFFFFFFFFFFFF NOT AND DUP2 MSTORE PUSH1 0x18 ADD SWAP4 POP POP POP POP PUSH1 0x40 MLOAD PUSH1 0x20 DUP2 DUP4 SUB SUB DUP2 MSTORE SWAP1 PUSH1 0x40 MSTORE PUSH1 0x40 MLOAD DUP1 DUP3 DUP1 MLOAD SWAP1 PUSH1 0x20 ADD SWAP1 DUP1 DUP4 DUP4 JUMPDEST PUSH1 0x20 DUP4 LT PUSH2 0x12A5 JUMPI DUP1 MLOAD DUP3 MSTORE PUSH1 0x20 DUP3 ADD SWAP2 POP PUSH1 0x20 DUP2 ADD SWAP1 POP PUSH1 0x20 DUP4 SUB SWAP3 POP PUSH2 0x1282 JUMP JUMPDEST PUSH1 0x1 DUP4 PUSH1 0x20 SUB PUSH2 0x100 EXP SUB DUP1 NOT DUP3 MLOAD AND DUP2 DUP5 MLOAD AND DUP1 DUP3 OR DUP6 MSTORE POP POP POP POP POP POP SWAP1 POP ADD SWAP2 POP POP PUSH1 0x20 PUSH1 0x40 MLOAD DUP1 DUP4 SUB DUP2 DUP6 GAS STATICCALL ISZERO DUP1 ISZERO PUSH2 0x12E7 JUMPI RETURNDATASIZE PUSH1 0x0 DUP1 RETURNDATACOPY RETURNDATASIZE PUSH1 0x0 REVERT JUMPDEST POP POP POP PUSH1 0x40 MLOAD RETURNDATASIZE PUSH1 0x20 DUP2 LT ISZERO PUSH2 0x12FC JUMPI PUSH1 0x0 DUP1 REVERT JUMPDEST DUP2 ADD SWAP1 DUP1 DUP1 MLOAD SWAP1 PUSH1 0x20 ADD SWAP1 SWAP3 SWAP2 SWAP1 POP POP POP SWAP3 POP POP POP SWAP1 JUMP JUMPDEST PUSH1 0x60 PUSH1 0x8 PUSH8 0xFFFFFFFFFFFFFFFF DUP2 GT DUP1 ISZERO PUSH2 0x132E JUMPI PUSH1 0x0 DUP1 REVERT JUMPDEST POP PUSH1 0x40 MLOAD SWAP1 DUP1 DUP3 MSTORE DUP1 PUSH1 0x1F ADD PUSH1 0x1F NOT AND PUSH1 0x20 ADD DUP3 ADD PUSH1 0x40 MSTORE DUP1 ISZERO PUSH2 0x1361 JUMPI DUP2 PUSH1 0x20 ADD PUSH1 0x1 DUP3 MUL DUP1 CALLDATASIZE DUP4 CALLDATACOPY DUP1 DUP3 ADD SWAP2 POP POP SWAP1 POP JUMPDEST POP SWAP1 POP PUSH1 0x0 DUP3 PUSH1 0xC0 SHL SWAP1 POP DUP1 PUSH1 0x7 PUSH1 0x8 DUP2 LT PUSH2 0x1379 JUMPI INVALID JUMPDEST BYTE PUSH1 0xF8 SHL DUP3 PUSH1 0x0 DUP2 MLOAD DUP2 LT PUSH2 0x138A JUMPI INVALID JUMPDEST PUSH1 0x20 ADD ADD SWAP1 PUSH31 0xFFFFFFFFFFFFFFFFFFFFFFFFFFFFFFFFFFFFFFFFFFFFFFFFFFFFFFFFFFFFFF NOT AND SWAP1 DUP2 PUSH1 0x0 BYTE SWAP1 MSTORE8 POP DUP1 PUSH1 0x6 PUSH1 0x8 DUP2 LT PUSH2 0x13C6 JUMPI INVALID JUMPDEST BYTE PUSH1 0xF8 SHL DUP3 PUSH1 0x1 DUP2 MLOAD DUP2 LT PUSH2 0x13D7 JUMPI INVALID JUMPDEST PUSH1 0x20 ADD ADD SWAP1 PUSH31 0xFFFFFFFFFFFFFFFFFFFFFFFFFFFFFFFFFFFFFFFFFFFFFFFFFFFFFFFFFFFFFF NOT AND SWAP1 DUP2 PUSH1 0x0 BYTE SWAP1 MSTORE8 POP DUP1 PUSH1 0x5 PUSH1 0x8 DUP2 LT PUSH2 0x1413 JUMPI INVALID JUMPDEST BYTE PUSH1 0xF8 SHL DUP3 PUSH1 0x2 DUP2 MLOAD DUP2 LT PUSH2 0x1424 JUMPI INVALID JUMPDEST PUSH1 0x20 ADD ADD SWAP1 PUSH31 0xFFFFFFFFFFFFFFFFFFFFFFFFFFFFFFFFFFFFFFFFFFFFFFFFFFFFFFFFFFFFFF NOT AND SWAP1 DUP2 PUSH1 0x0 BYTE SWAP1 MSTORE8 POP DUP1 PUSH1 0x4 PUSH1 0x8 DUP2 LT PUSH2 0x1460 JUMPI INVALID JUMPDEST BYTE PUSH1 0xF8 SHL DUP3 PUSH1 0x3 DUP2 MLOAD DUP2 LT PUSH2 0x1471 JUMPI INVALID JUMPDEST PUSH1 0x20 ADD ADD SWAP1 PUSH31 0xFFFFFFFFFFFFFFFFFFFFFFFFFFFFFFFFFFFFFFFFFFFFFFFFFFFFFFFFFFFFFF NOT AND SWAP1 DUP2 PUSH1 0x0 BYTE SWAP1 MSTORE8 POP DUP1 PUSH1 0x3 PUSH1 0x8 DUP2 LT PUSH2 0x14AD JUMPI INVALID JUMPDEST BYTE PUSH1 0xF8 SHL DUP3 PUSH1 0x4 DUP2 MLOAD DUP2 LT PUSH2 0x14BE JUMPI INVALID JUMPDEST PUSH1 0x20 ADD ADD SWAP1 PUSH31 0xFFFFFFFFFFFFFFFFFFFFFFFFFFFFFFFFFFFFFFFFFFFFFFFFFFFFFFFFFFFFFF NOT AND SWAP1 DUP2 PUSH1 0x0 BYTE SWAP1 MSTORE8 POP DUP1 PUSH1 0x2 PUSH1 0x8 DUP2 LT PUSH2 0x14FA JUMPI INVALID JUMPDEST BYTE PUSH1 0xF8 SHL DUP3 PUSH1 0x5 DUP2 MLOAD DUP2 LT PUSH2 0x150B JUMPI INVALID JUMPDEST PUSH1 0x20 ADD ADD SWAP1 PUSH31 0xFFFFFFFFFFFFFFFFFFFFFFFFFFFFFFFFFFFFFFFFFFFFFFFFFFFFFFFFFFFFFF NOT AND SWAP1 DUP2 PUSH1 0x0 BYTE SWAP1 MSTORE8 POP DUP1 PUSH1 0x1 PUSH1 0x8 DUP2 LT PUSH2 0x1547 JUMPI INVALID JUMPDEST BYTE PUSH1 0xF8 SHL DUP3 PUSH1 0x6 DUP2 MLOAD DUP2 LT PUSH2 0x1558 JUMPI INVALID JUMPDEST PUSH1 0x20 ADD ADD SWAP1 PUSH31 0xFFFFFFFFFFFFFFFFFFFFFFFFFFFFFFFFFFFFFFFFFFFFFFFFFFFFFFFFFFFFFF NOT AND SWAP1 DUP2 PUSH1 0x0 BYTE SWAP1 MSTORE8 POP DUP1 PUSH1 0x0 PUSH1 0x8 DUP2 LT PUSH2 0x1594 JUMPI INVALID JUMPDEST BYTE PUSH1 0xF8 SHL DUP3 PUSH1 0x7 DUP2 MLOAD DUP2 LT PUSH2 0x15A5 JUMPI INVALID JUMPDEST PUSH1 0x20 ADD ADD SWAP1 PUSH31 0xFFFFFFFFFFFFFFFFFFFFFFFFFFFFFFFFFFFFFFFFFFFFFFFFFFFFFFFFFFFFFF NOT AND SWAP1 DUP2 PUSH1 0x0 BYTE SWAP1 MSTORE8 POP POP SWAP2 SWAP1 POP JUMP JUMPDEST PUSH1 0x0 DUP1 DUP6 DUP6 GT ISZERO PUSH2 0x15EA JUMPI PUSH1 0x0 DUP1 REVERT JUMPDEST DUP4 DUP7 GT ISZERO PUSH2 0x15F7 JUMPI PUSH1 0x0 DUP1 REVERT JUMPDEST PUSH1 0x1 DUP6 MUL DUP4 ADD SWAP2 POP DUP5 DUP7 SUB SWAP1 POP SWAP5 POP SWAP5 SWAP3 POP POP POP JUMP INVALID DIFFICULTY PUSH6 0x706F73697443 PUSH16 0x6E74726163743A206D65726B6C652074 PUSH19 0x65652066756C6C4465706F736974436F6E7472 PUSH2 0x6374 GASPRICE KECCAK256 PUSH19 0x65636F6E7374727563746564204465706F7369 PUSH21 0x4461746120646F6573206E6F74206D617463682073 PUSH22 0x70706C696564206465706F7369745F646174615F726F PUSH16 0x744465706F736974436F6E7472616374 GASPRICE KECCAK256 PUSH10 0x6E76616C696420776974 PUSH9 0x64726177616C5F6372 PUSH6 0x64656E746961 PUSH13 0x73206C656E6774684465706F73 PUSH10 0x74436F6E74726163743A KECCAK256 PUSH5 0x65706F7369 PUSH21 0x2076616C7565206E6F74206D756C7469706C65206F PUSH7 0x20677765694465 PUSH17 0x6F736974436F6E74726163743A20696E76 PUSH2 0x6C69 PUSH5 0x207075626B PUSH6 0x79206C656E67 PUSH21 0x684465706F736974436F6E74726163743A20646570 PUSH16 0x7369742076616C756520746F6F206869 PUSH8 0x684465706F736974 NUMBER PUSH16 0x6E74726163743A206465706F73697420 PUSH23 0x616C756520746F6F206C6F774465706F736974436F6E74 PUSH19 0x6163743A20696E76616C6964207369676E6174 PUSH22 0x7265206C656E677468A26469706673582212208C57C6 0x5F 0x1E 0x21 0xE3 0x23 0xE5 0x2D POP 0xCF RETURN 0xC2 0xD SWAP9 0x4B PUSH25 0xB8C51B9C1BDBC9724BAD6907B7AC64736F6C634300060B0033 "
				},
				"gasEstimates": {
					"creation": {
						"codeDepositCost": "1215400",
						"executionCost": "infinite",
						"totalCost": "infinite"
					},
					"external": {
						"deposit(bytes,bytes,bytes,bytes32)": "infinite",
						"get_deposit_count()": "infinite",
						"get_deposit_root()": "infinite",
						"supportsInterface(bytes4)": "369"
					},
					"internal": {
						"to_little_endian_64(uint64)": "infinite"
					}
				},
				"methodIdentifiers": {
					"deposit(bytes,bytes,bytes,bytes32)": "22895118",
					"get_deposit_count()": "621fd130",
					"get_deposit_root()": "c5f2892f",
					"supportsInterface(bytes4)": "01ffc9a7"
				}
			},
			"storageLayout": {
				"storage": [
					{
						"astId": 68,
						"contract": "Citichain.sol:DepositContract",
						"label": "branch",
						"offset": 0,
						"slot": "0",
						"type": "t_array(t_bytes32)32_storage"
					},
					{
						"astId": 70,
						"contract": "Citichain.sol:DepositContract",
						"label": "deposit_count",
						"offset": 0,
						"slot": "32",
						"type": "t_uint256"
					},
					{
						"astId": 74,
						"contract": "Citichain.sol:DepositContract",
						"label": "zero_hashes",
						"offset": 0,
						"slot": "33",
						"type": "t_array(t_bytes32)32_storage"
					}
				],
				"types": {
					"t_array(t_bytes32)32_storage": {
						"base": "t_bytes32",
						"encoding": "inplace",
						"label": "bytes32[32]",
						"numberOfBytes": "1024"
					},
					"t_bytes32": {
						"encoding": "inplace",
						"label": "bytes32",
						"numberOfBytes": "32"
					},
					"t_uint256": {
						"encoding": "inplace",
						"label": "uint256",
						"numberOfBytes": "32"
					}
				}
			},
			"userdoc": {
				"events": {
					"DepositEvent(bytes,bytes,bytes,bytes,bytes)": {
						"notice": "A processed deposit event."
					}
				},
				"kind": "user",
				"methods": {
					"deposit(bytes,bytes,bytes,bytes32)": {
						"notice": "Submit a Phase 0 DepositData object."
					},
					"get_deposit_count()": {
						"notice": "Query the current deposit count."
					},
					"get_deposit_root()": {
						"notice": "Query the current deposit root hash."
					},
					"supportsInterface(bytes4)": {
						"notice": "Query if a contract implements an interface"
					}
				},
				"notice": "This is the Ethereum 2.0 deposit contract interface. For more information see the Phase 0 specification under https://github.com/ethereum/eth2.0-specs",
				"version": 1
			}
		}
	}
}