{
	"contracts/HashRegistrarSimplified.sol": {
		"Registrar": {
			"abi": [
				{
					"constant": false,
					"inputs": [
						{
							"name": "_hash",
							"type": "bytes32"
						}
					],
					"name": "releaseDeed",
					"outputs": [],
					"payable": false,
					"stateMutability": "nonpayable",
					"type": "function"
				},
				{
					"constant": true,
					"inputs": [
						{
							"name": "_hash",
							"type": "bytes32"
						}
					],
					"name": "getAllowedTime",
					"outputs": [
						{
							"name": "",
							"type": "uint256"
						}
					],
					"payable": false,
					"stateMutability": "view",
					"type": "function"
				},
				{
					"constant": false,
					"inputs": [
						{
							"name": "unhashedName",
							"type": "string"
						}
					],
					"name": "invalidateName",
					"outputs": [],
					"payable": false,
					"stateMutability": "nonpayable",
					"type": "function"
				},
				{
					"constant": true,
					"inputs": [
						{
							"name": "hash",
							"type": "bytes32"
						},
						{
							"name": "owner",
							"type": "address"
						},
						{
							"name": "value",
							"type": "uint256"
						},
						{
							"name": "salt",
							"type": "bytes32"
						}
					],
					"name": "shaBid",
					"outputs": [
						{
							"name": "",
							"type": "bytes32"
						}
					],
					"payable": false,
					"stateMutability": "view",
					"type": "function"
				},
				{
					"constant": false,
					"inputs": [
						{
							"name": "bidder",
							"type": "address"
						},
						{
							"name": "seal",
							"type": "bytes32"
						}
					],
					"name": "cancelBid",
					"outputs": [],
					"payable": false,
					"stateMutability": "nonpayable",
					"type": "function"
				},
				{
					"constant": true,
					"inputs": [
						{
							"name": "_hash",
							"type": "bytes32"
						}
					],
					"name": "entries",
					"outputs": [
						{
							"name": "",
							"type": "uint8"
						},
						{
							"name": "",
							"type": "address"
						},
						{
							"name": "",
							"type": "uint256"
						},
						{
							"name": "",
							"type": "uint256"
						},
						{
							"name": "",
							"type": "uint256"
						}
					],
					"payable": false,
					"stateMutability": "view",
					"type": "function"
				},
				{
					"constant": true,
					"inputs": [],
					"name": "ens",
					"outputs": [
						{
							"name": "",
							"type": "address"
						}
					],
					"payable": false,
					"stateMutability": "view",
					"type": "function"
				},
				{
					"constant": false,
					"inputs": [
						{
							"name": "_hash",
							"type": "bytes32"
						},
						{
							"name": "_value",
							"type": "uint256"
						},
						{
							"name": "_salt",
							"type": "bytes32"
						}
					],
					"name": "unsealBid",
					"outputs": [],
					"payable": false,
					"stateMutability": "nonpayable",
					"type": "function"
				},
				{
					"constant": false,
					"inputs": [
						{
							"name": "_hash",
							"type": "bytes32"
						}
					],
					"name": "transferRegistrars",
					"outputs": [],
					"payable": false,
					"stateMutability": "nonpayable",
					"type": "function"
				},
				{
					"constant": true,
					"inputs": [
						{
							"name": "",
							"type": "address"
						},
						{
							"name": "",
							"type": "bytes32"
						}
					],
					"name": "sealedBids",
					"outputs": [
						{
							"name": "",
							"type": "address"
						}
					],
					"payable": false,
					"stateMutability": "view",
					"type": "function"
				},
				{
					"constant": true,
					"inputs": [
						{
							"name": "_hash",
							"type": "bytes32"
						}
					],
					"name": "state",
					"outputs": [
						{
							"name": "",
							"type": "uint8"
						}
					],
					"payable": false,
					"stateMutability": "view",
					"type": "function"
				},
				{
					"constant": false,
					"inputs": [
						{
							"name": "_hash",
							"type": "bytes32"
						},
						{
							"name": "newOwner",
							"type": "address"
						}
					],
					"name": "transfer",
					"outputs": [],
					"payable": false,
					"stateMutability": "nonpayable",
					"type": "function"
				},
				{
					"constant": true,
					"inputs": [
						{
							"name": "_hash",
							"type": "bytes32"
						},
						{
							"name": "_timestamp",
							"type": "uint256"
						}
					],
					"name": "isAllowed",
					"outputs": [
						{
							"name": "allowed",
							"type": "bool"
						}
					],
					"payable": false,
					"stateMutability": "view",
					"type": "function"
				},
				{
					"constant": false,
					"inputs": [
						{
							"name": "_hash",
							"type": "bytes32"
						}
					],
					"name": "finalizeAuction",
					"outputs": [],
					"payable": false,
					"stateMutability": "nonpayable",
					"type": "function"
				},
				{
					"constant": true,
					"inputs": [],
					"name": "registryStarted",
					"outputs": [
						{
							"name": "",
							"type": "uint256"
						}
					],
					"payable": false,
					"stateMutability": "view",
					"type": "function"
				},
				{
					"constant": true,
					"inputs": [],
					"name": "launchLength",
					"outputs": [
						{
							"name": "",
							"type": "uint32"
						}
					],
					"payable": false,
					"stateMutability": "view",
					"type": "function"
				},
				{
					"constant": false,
					"inputs": [
						{
							"name": "sealedBid",
							"type": "bytes32"
						}
					],
					"name": "newBid",
					"outputs": [],
					"payable": true,
					"stateMutability": "payable",
					"type": "function"
				},
				{
					"constant": false,
					"inputs": [
						{
							"name": "labels",
							"type": "bytes32[]"
						}
					],
					"name": "eraseNode",
					"outputs": [],
					"payable": false,
					"stateMutability": "nonpayable",
					"type": "function"
				},
				{
					"constant": false,
					"inputs": [
						{
							"name": "_hashes",
							"type": "bytes32[]"
						}
					],
					"name": "startAuctions",
					"outputs": [],
					"payable": false,
					"stateMutability": "nonpayable",
					"type": "function"
				},
				{
					"constant": false,
					"inputs": [
						{
							"name": "hash",
							"type": "bytes32"
						},
						{
							"name": "deed",
							"type": "address"
						},
						{
							"name": "registrationDate",
							"type": "uint256"
						}
					],
					"name": "acceptRegistrarTransfer",
					"outputs": [],
					"payable": false,
					"stateMutability": "nonpayable",
					"type": "function"
				},
				{
					"constant": false,
					"inputs": [
						{
							"name": "_hash",
							"type": "bytes32"
						}
					],
					"name": "startAuction",
					"outputs": [],
					"payable": false,
					"stateMutability": "nonpayable",
					"type": "function"
				},
				{
					"constant": true,
					"inputs": [],
					"name": "rootNode",
					"outputs": [
						{
							"name": "",
							"type": "bytes32"
						}
					],
					"payable": false,
					"stateMutability": "view",
					"type": "function"
				},
				{
					"constant": false,
					"inputs": [
						{
							"name": "hashes",
							"type": "bytes32[]"
						},
						{
							"name": "sealedBid",
							"type": "bytes32"
						}
					],
					"name": "startAuctionsAndBid",
					"outputs": [],
					"payable": true,
					"stateMutability": "payable",
					"type": "function"
				},
				{
					"inputs": [
						{
							"name": "_ens",
							"type": "address"
						},
						{
							"name": "_rootNode",
							"type": "bytes32"
						},
						{
							"name": "_startDate",
							"type": "uint256"
						}
					],
					"payable": false,
					"stateMutability": "nonpayable",
					"type": "constructor"
				},
				{
					"anonymous": false,
					"inputs": [
						{
							"indexed": true,
							"name": "hash",
							"type": "bytes32"
						},
						{
							"indexed": false,
							"name": "registrationDate",
							"type": "uint256"
						}
					],
					"name": "AuctionStarted",
					"type": "event"
				},
				{
					"anonymous": false,
					"inputs": [
						{
							"indexed": true,
							"name": "hash",
							"type": "bytes32"
						},
						{
							"indexed": true,
							"name": "bidder",
							"type": "address"
						},
						{
							"indexed": false,
							"name": "deposit",
							"type": "uint256"
						}
					],
					"name": "NewBid",
					"type": "event"
				},
				{
					"anonymous": false,
					"inputs": [
						{
							"indexed": true,
							"name": "hash",
							"type": "bytes32"
						},
						{
							"indexed": true,
							"name": "owner",
							"type": "address"
						},
						{
							"indexed": false,
							"name": "value",
							"type": "uint256"
						},
						{
							"indexed": false,
							"name": "status",
							"type": "uint8"
						}
					],
					"name": "BidRevealed",
					"type": "event"
				},
				{
					"anonymous": false,
					"inputs": [
						{
							"indexed": true,
							"name": "hash",
							"type": "bytes32"
						},
						{
							"indexed": true,
							"name": "owner",
							"type": "address"
						},
						{
							"indexed": false,
							"name": "value",
							"type": "uint256"
						},
						{
							"indexed": false,
							"name": "registrationDate",
							"type": "uint256"
						}
					],
					"name": "HashRegistered",
					"type": "event"
				},
				{
					"anonymous": false,
					"inputs": [
						{
							"indexed": true,
							"name": "hash",
							"type": "bytes32"
						},
						{
							"indexed": false,
							"name": "value",
							"type": "uint256"
						}
					],
					"name": "HashReleased",
					"type": "event"
				},
				{
					"anonymous": false,
					"inputs": [
						{
							"indexed": true,
							"name": "hash",
							"type": "bytes32"
						},
						{
							"indexed": true,
							"name": "name",
							"type": "string"
						},
						{
							"indexed": false,
							"name": "value",
							"type": "uint256"
						},
						{
							"indexed": false,
							"name": "registrationDate",
							"type": "uint256"
						}
					],
					"name": "HashInvalidated",
					"type": "event"
				}
			],
			"devdoc": {
				"methods": {
					"acceptRegistrarTransfer(bytes32,address,uint256)": {
						"details": "Accepts a transfer from a previous registrar; stubbed out here since there\r     is no previous registrar implementing this interface.\r ",
						"params": {
							"deed": "The Deed object for the name being transferred in.\r",
							"hash": "The sha3 hash of the label to transfer.\r",
							"registrationDate": "The date at which the name was originally registered.\r"
						}
					},
					"cancelBid(address,bytes32)": {
						"details": "Cancel a bid\r ",
						"params": {
							"seal": "The value returned by the shaBid function\r"
						}
					},
					"eraseNode(bytes32[])": {
						"details": "Allows anyone to delete the owner and resolver records for a (subdomain of) a\r     name that is not currently owned in the registrar. If passing, eg, 'foo.bar.eth',\r     the owner and resolver fields on 'foo.bar.eth' and 'bar.eth' will all be cleared.\r ",
						"params": {
							"labels": "A series of label hashes identifying the name to zero out, rooted at the\r       registrar's root. Must contain at least one element. For instance, to zero \r       'foo.bar.eth' on a registrar that owns '.eth', pass an array containing\r       [keccak256('foo'), keccak256('bar')].\r"
						}
					},
					"finalizeAuction(bytes32)": {
						"details": "Finalize an auction after the registration date has passed\r ",
						"params": {
							"_hash": "The hash of the name the auction is for\r"
						}
					},
					"getAllowedTime(bytes32)": {
						"details": "Returns available date for hash\r      * The available time from the `registryStarted` for a hash is proportional\r to its numeric value.\r ",
						"params": {
							"_hash": "The hash to start an auction on\r"
						}
					},
					"invalidateName(string)": {
						"details": "Submit a name 6 characters long or less. If it has been registered,\r     the submitter will earn 50% of the deed value. \r \r We are purposefully handicapping the simplified registrar as a way \r to force it into being restructured in a few years.\r ",
						"params": {
							"unhashedName": "An invalid name to search for in the registry.\r"
						}
					},
					"isAllowed(bytes32,uint256)": {
						"details": "Determines if a name is available for registration yet\r      * Each name will be assigned a random date in which its auction\r can be started, from 0 to 8 weeks\r ",
						"params": {
							"_hash": "The hash to start an auction on\r",
							"_timestamp": "The timestamp to query about\r"
						}
					},
					"newBid(bytes32)": {
						"details": "Submit a new sealed bid on a desired hash in a blind auction\r      * Bids are sent by sending a message to the main contract with a hash and an amount. The hash\r contains information about the bid, including the bidded hash, the bid amount, and a random\r salt. Bids are not tied to any one auction until they are revealed. The value of the bid\r itself can be masqueraded by sending more than the value of your actual bid. This is\r followed by a 48h reveal period. Bids revealed after this period will be burned and the ether unrecoverable.\r Since this is an auction, it is expected that most public hashes, like known domains and common dictionary\r words, will have multiple bidders pushing the price up.\r ",
						"params": {
							"sealedBid": "A sealedBid, created by the shaBid function\r"
						}
					},
					"releaseDeed(bytes32)": {
						"details": "After some time, or if we're no longer the registrar, the owner can release\r     the name and get their ether back.\r ",
						"params": {
							"_hash": "The node to release\r"
						}
					},
					"shaBid(bytes32,address,uint256,bytes32)": {
						"details": "Hash the values required for a secret bid\r ",
						"params": {
							"hash": "The node corresponding to the desired namehash\r",
							"salt": "A random value to ensure secrecy of the bid\r",
							"value": "The bid amount\r"
						},
						"return": "The hash of the bid values\r"
					},
					"startAuction(bytes32)": {
						"details": "Start an auction for an available hash\r ",
						"params": {
							"_hash": "The hash to start an auction on\r"
						}
					},
					"startAuctions(bytes32[])": {
						"details": "Start multiple auctions for better anonymity\r      * Anyone can start an auction by sending an array of hashes that they want to bid for.\r Arrays are sent so that someone can open up an auction for X dummy hashes when they\r are only really interested in bidding for one. This will increase the cost for an\r attacker to simply bid blindly on all new auctions. Dummy auctions that are\r open but not bid on are closed after a week.\r ",
						"params": {
							"_hashes": "An array of hashes, at least one of which you presumably want to bid on\r"
						}
					},
					"startAuctionsAndBid(bytes32[],bytes32)": {
						"details": "Start a set of auctions and bid on one of them\r      * This method functions identically to calling `startAuctions` followed by `newBid`,\r but all in one transaction.\r ",
						"params": {
							"hashes": "A list of hashes to start auctions on.\r",
							"sealedBid": "A sealed bid for one of the auctions.\r"
						}
					},
					"transfer(bytes32,address)": {
						"details": "The owner of a domain may transfer it to someone else at any time.\r ",
						"params": {
							"_hash": "The node to transfer\r",
							"newOwner": "The address to transfer ownership to\r"
						}
					},
					"transferRegistrars(bytes32)": {
						"details": "Transfers the deed to the current registrar, if different from this one.\r      * Used during the upgrade process to a permanent registrar.\r ",
						"params": {
							"_hash": "The name hash to transfer.\r"
						}
					},
					"unsealBid(bytes32,uint256,bytes32)": {
						"details": "Submit the properties of a bid to reveal them\r ",
						"params": {
							"_hash": "The node in the sealedBid\r",
							"_salt": "The sale in the sealedBid\r",
							"_value": "The bid amount in the sealedBid\r"
						}
					}
				},
				"title": "Registrar\r"
			},
			"evm": {
				"assembly": "    /* \"contracts/HashRegistrarSimplified.sol\":570:19432  contract Registrar {\r... */\n  mstore(0x40, 0x80)\n    /* \"contracts/HashRegistrarSimplified.sol\":2379:2573  function Registrar(ENS _ens, bytes32 _rootNode, uint _startDate) public {\r... */\n  callvalue\n    /* \"--CODEGEN--\":8:17   */\n  dup1\n    /* \"--CODEGEN--\":5:7   */\n  iszero\n  tag_1\n  jumpi\n    /* \"--CODEGEN--\":30:31   */\n  0x0\n    /* \"--CODEGEN--\":27:28   */\n  dup1\n    /* \"--CODEGEN--\":20:32   */\n  revert\n    /* \"--CODEGEN--\":5:7   */\ntag_1:\n    /* \"contracts/HashRegistrarSimplified.sol\":2379:2573  function Registrar(ENS _ens, bytes32 _rootNode, uint _startDate) public {\r... */\n  pop\n  mload(0x40)\n  0x60\n  dup1\n  bytecodeSize\n  dup4\n  codecopy\n  dup2\n  add\n  0x40\n  swap1\n  dup2\n  mstore\n  dup2\n  mload\n  0x20\n  dup4\n  add\n  mload\n  swap2\n  swap1\n  swap3\n  add\n  mload\n    /* \"contracts/HashRegistrarSimplified.sol\":2462:2465  ens */\n  0x0\n    /* \"contracts/HashRegistrarSimplified.sol\":2462:2472  ens = _ens */\n  dup1\n  sload\n  not(sub(exp(0x2, 0xa0), 0x1))\n  and\n  sub(exp(0x2, 0xa0), 0x1)\n  dup6\n  and\n  or\n  dup2\n  sstore\n  0x1\n    /* \"contracts/HashRegistrarSimplified.sol\":2483:2503  rootNode = _rootNode */\n  dup4\n  swap1\n  sstore\n    /* \"contracts/HashRegistrarSimplified.sol\":2532:2546  _startDate > 0 */\n  dup2\n  gt\n    /* \"contracts/HashRegistrarSimplified.sol\":2532:2565  _startDate > 0 ? _startDate : now */\n  tag_4\n  jumpi\n    /* \"contracts/HashRegistrarSimplified.sol\":2562:2565  now */\n  timestamp\n    /* \"contracts/HashRegistrarSimplified.sol\":2532:2565  _startDate > 0 ? _startDate : now */\n  jump(tag_5)\ntag_4:\n    /* \"contracts/HashRegistrarSimplified.sol\":2549:2559  _startDate */\n  dup1\n    /* \"contracts/HashRegistrarSimplified.sol\":2532:2565  _startDate > 0 ? _startDate : now */\ntag_5:\n    /* \"contracts/HashRegistrarSimplified.sol\":2514:2529  registryStarted */\n  0x4\n    /* \"contracts/HashRegistrarSimplified.sol\":2514:2565  registryStarted = _startDate > 0 ? _startDate : now */\n  sstore\n  pop\n  pop\n  pop\n    /* \"contracts/HashRegistrarSimplified.sol\":570:19432  contract Registrar {\r... */\n  dataSize(sub_0)\n  dup1\n  dataOffset(sub_0)\n  0x0\n  codecopy\n  0x0\n  return\nstop\n\nsub_0: assembly {\n        /* \"contracts/HashRegistrarSimplified.sol\":570:19432  contract Registrar {\r... */\n      mstore(0x40, 0x80)\n      jumpi(tag_1, lt(calldatasize, 0x4))\n      and(div(calldataload(0x0), exp(0x2, 0xe0)), 0xffffffff)\n      0x230a07c\n      dup2\n      eq\n      tag_2\n      jumpi\n      dup1\n      0x13c89a8f\n      eq\n      tag_3\n      jumpi\n      dup1\n      0x15f73331\n      eq\n      tag_4\n      jumpi\n      dup1\n      0x22ec1244\n      eq\n      tag_5\n      jumpi\n      dup1\n      0x2525f5c1\n      eq\n      tag_6\n      jumpi\n      dup1\n      0x267b6922\n      eq\n      tag_7\n      jumpi\n      dup1\n      0x3f15457f\n      eq\n      tag_8\n      jumpi\n      dup1\n      0x47872b42\n      eq\n      tag_9\n      jumpi\n      dup1\n      0x5ddae283\n      eq\n      tag_10\n      jumpi\n      dup1\n      0x5e431709\n      eq\n      tag_11\n      jumpi\n      dup1\n      0x61d585da\n      eq\n      tag_12\n      jumpi\n      dup1\n      0x79ce9fac\n      eq\n      tag_13\n      jumpi\n      dup1\n      0x93503337\n      eq\n      tag_14\n      jumpi\n      dup1\n      0x983b94fb\n      eq\n      tag_15\n      jumpi\n      dup1\n      0x9c67f06f\n      eq\n      tag_16\n      jumpi\n      dup1\n      0xae1a0b0c\n      eq\n      tag_17\n      jumpi\n      dup1\n      0xce92dced\n      eq\n      tag_18\n      jumpi\n      dup1\n      0xde10f04b\n      eq\n      tag_19\n      jumpi\n      dup1\n      0xe27fe50f\n      eq\n      tag_20\n      jumpi\n      dup1\n      0xea9e107a\n      eq\n      tag_21\n      jumpi\n      dup1\n      0xede8acdb\n      eq\n      tag_22\n      jumpi\n      dup1\n      0xfaff50a8\n      eq\n      tag_23\n      jumpi\n      dup1\n      0xfebefd61\n      eq\n      tag_24\n      jumpi\n    tag_1:\n      0x0\n      dup1\n      revert\n        /* \"contracts/HashRegistrarSimplified.sol\":10106:10555  function releaseDeed(bytes32 _hash) public onlyOwner(_hash) {\r... */\n    tag_2:\n      callvalue\n        /* \"--CODEGEN--\":8:17   */\n      dup1\n        /* \"--CODEGEN--\":5:7   */\n      iszero\n      tag_25\n      jumpi\n        /* \"--CODEGEN--\":30:31   */\n      0x0\n        /* \"--CODEGEN--\":27:28   */\n      dup1\n        /* \"--CODEGEN--\":20:32   */\n      revert\n        /* \"--CODEGEN--\":5:7   */\n    tag_25:\n      pop\n        /* \"contracts/HashRegistrarSimplified.sol\":10106:10555  function releaseDeed(bytes32 _hash) public onlyOwner(_hash) {\r... */\n      tag_26\n      calldataload(0x4)\n      jump(tag_27)\n    tag_26:\n      stop\n        /* \"contracts/HashRegistrarSimplified.sol\":15778:15987  function getAllowedTime(bytes32 _hash) public view returns (uint) {\r... */\n    tag_3:\n      callvalue\n        /* \"--CODEGEN--\":8:17   */\n      dup1\n        /* \"--CODEGEN--\":5:7   */\n      iszero\n      tag_28\n      jumpi\n        /* \"--CODEGEN--\":30:31   */\n      0x0\n        /* \"--CODEGEN--\":27:28   */\n      dup1\n        /* \"--CODEGEN--\":20:32   */\n      revert\n        /* \"--CODEGEN--\":5:7   */\n    tag_28:\n      pop\n        /* \"contracts/HashRegistrarSimplified.sol\":15778:15987  function getAllowedTime(bytes32 _hash) public view returns (uint) {\r... */\n      tag_29\n      calldataload(0x4)\n      jump(tag_30)\n    tag_29:\n      0x40\n      dup1\n      mload\n      swap2\n      dup3\n      mstore\n      mload\n      swap1\n      dup2\n      swap1\n      sub\n      0x20\n      add\n      swap1\n      return\n        /* \"contracts/HashRegistrarSimplified.sol\":10951:11717  function invalidateName(string unhashedName) public inState(keccak256(unhashedName), Mode.Owned) {\r... */\n    tag_4:\n      callvalue\n        /* \"--CODEGEN--\":8:17   */\n      dup1\n        /* \"--CODEGEN--\":5:7   */\n      iszero\n      tag_31\n      jumpi\n        /* \"--CODEGEN--\":30:31   */\n      0x0\n        /* \"--CODEGEN--\":27:28   */\n      dup1\n        /* \"--CODEGEN--\":20:32   */\n      revert\n        /* \"--CODEGEN--\":5:7   */\n    tag_31:\n      pop\n        /* \"contracts/HashRegistrarSimplified.sol\":10951:11717  function invalidateName(string unhashedName) public inState(keccak256(unhashedName), Mode.Owned) {\r... */\n      0x40\n      dup1\n      mload\n      0x20\n      0x4\n      dup1\n      calldataload\n      dup1\n      dup3\n      add\n      calldataload\n      0x1f\n      dup2\n      add\n      dup5\n      swap1\n      div\n      dup5\n      mul\n      dup6\n      add\n      dup5\n      add\n      swap1\n      swap6\n      mstore\n      dup5\n      dup5\n      mstore\n      tag_26\n      swap5\n      calldatasize\n      swap5\n      swap3\n      swap4\n      0x24\n      swap4\n      swap3\n      dup5\n      add\n      swap2\n      swap1\n      dup2\n      swap1\n      dup5\n      add\n      dup4\n      dup3\n      dup1\n      dup3\n      dup5\n      calldatacopy\n      pop\n      swap5\n      swap8\n      pop\n      tag_33\n      swap7\n      pop\n      pop\n      pop\n      pop\n      pop\n      pop\n      pop\n      jump\n        /* \"contracts/HashRegistrarSimplified.sol\":16286:16448  function shaBid(bytes32 hash, address owner, uint value, bytes32 salt) public pure returns (bytes32) {\r... */\n    tag_5:\n      callvalue\n        /* \"--CODEGEN--\":8:17   */\n      dup1\n        /* \"--CODEGEN--\":5:7   */\n      iszero\n      tag_34\n      jumpi\n        /* \"--CODEGEN--\":30:31   */\n      0x0\n        /* \"--CODEGEN--\":27:28   */\n      dup1\n        /* \"--CODEGEN--\":20:32   */\n      revert\n        /* \"--CODEGEN--\":5:7   */\n    tag_34:\n      pop\n        /* \"contracts/HashRegistrarSimplified.sol\":16286:16448  function shaBid(bytes32 hash, address owner, uint value, bytes32 salt) public pure returns (bytes32) {\r... */\n      tag_29\n      calldataload(0x4)\n      and(calldataload(0x24), sub(exp(0x2, 0xa0), 0x1))\n      calldataload(0x44)\n      calldataload(0x64)\n      jump(tag_36)\n        /* \"contracts/HashRegistrarSimplified.sol\":7999:8841  function cancelBid(address bidder, bytes32 seal) public {\r... */\n    tag_6:\n      callvalue\n        /* \"--CODEGEN--\":8:17   */\n      dup1\n        /* \"--CODEGEN--\":5:7   */\n      iszero\n      tag_37\n      jumpi\n        /* \"--CODEGEN--\":30:31   */\n      0x0\n        /* \"--CODEGEN--\":27:28   */\n      dup1\n        /* \"--CODEGEN--\":20:32   */\n      revert\n        /* \"--CODEGEN--\":5:7   */\n    tag_37:\n      pop\n        /* \"contracts/HashRegistrarSimplified.sol\":7999:8841  function cancelBid(address bidder, bytes32 seal) public {\r... */\n      tag_26\n      and(calldataload(0x4), sub(exp(0x2, 0xa0), 0x1))\n      calldataload(0x24)\n      jump(tag_39)\n        /* \"contracts/HashRegistrarSimplified.sol\":14830:15051  function entries(bytes32 _hash) public view returns (Mode, address, uint, uint, uint) {\r... */\n    tag_7:\n      callvalue\n        /* \"--CODEGEN--\":8:17   */\n      dup1\n        /* \"--CODEGEN--\":5:7   */\n      iszero\n      tag_40\n      jumpi\n        /* \"--CODEGEN--\":30:31   */\n      0x0\n        /* \"--CODEGEN--\":27:28   */\n      dup1\n        /* \"--CODEGEN--\":20:32   */\n      revert\n        /* \"--CODEGEN--\":5:7   */\n    tag_40:\n      pop\n        /* \"contracts/HashRegistrarSimplified.sol\":14830:15051  function entries(bytes32 _hash) public view returns (Mode, address, uint, uint, uint) {\r... */\n      tag_41\n      calldataload(0x4)\n      jump(tag_42)\n    tag_41:\n      mload(0x40)\n      dup1\n      dup7\n      0x5\n      dup2\n      gt\n      iszero\n      tag_43\n      jumpi\n      invalid\n    tag_43:\n      0xff\n      and\n      dup2\n      mstore\n      sub(exp(0x2, 0xa0), 0x1)\n      swap1\n      swap6\n      and\n      0x20\n      dup7\n      add\n      mstore\n      pop\n      0x40\n      dup1\n      dup6\n      add\n      swap4\n      swap1\n      swap4\n      mstore\n      0x60\n      dup5\n      add\n      swap2\n      swap1\n      swap2\n      mstore\n      0x80\n      dup4\n      add\n      mstore\n      mload\n      swap1\n      dup2\n      swap1\n      sub\n      0xa0\n      add\n      swap2\n      pop\n      return\n        /* \"contracts/HashRegistrarSimplified.sol\":596:610  ENS public ens */\n    tag_8:\n      callvalue\n        /* \"--CODEGEN--\":8:17   */\n      dup1\n        /* \"--CODEGEN--\":5:7   */\n      iszero\n      tag_44\n      jumpi\n        /* \"--CODEGEN--\":30:31   */\n      0x0\n        /* \"--CODEGEN--\":27:28   */\n      dup1\n        /* \"--CODEGEN--\":20:32   */\n      revert\n        /* \"--CODEGEN--\":5:7   */\n    tag_44:\n        /* \"contracts/HashRegistrarSimplified.sol\":596:610  ENS public ens */\n      pop\n      tag_45\n      jump(tag_46)\n    tag_45:\n      0x40\n      dup1\n      mload\n      sub(exp(0x2, 0xa0), 0x1)\n      swap1\n      swap3\n      and\n      dup3\n      mstore\n      mload\n      swap1\n      dup2\n      swap1\n      sub\n      0x20\n      add\n      swap1\n      return\n        /* \"contracts/HashRegistrarSimplified.sol\":5917:7877  function unsealBid(bytes32 _hash, uint _value, bytes32 _salt) public {\r... */\n    tag_9:\n      callvalue\n        /* \"--CODEGEN--\":8:17   */\n      dup1\n        /* \"--CODEGEN--\":5:7   */\n      iszero\n      tag_47\n      jumpi\n        /* \"--CODEGEN--\":30:31   */\n      0x0\n        /* \"--CODEGEN--\":27:28   */\n      dup1\n        /* \"--CODEGEN--\":20:32   */\n      revert\n        /* \"--CODEGEN--\":5:7   */\n    tag_47:\n      pop\n        /* \"contracts/HashRegistrarSimplified.sol\":5917:7877  function unsealBid(bytes32 _hash, uint _value, bytes32 _salt) public {\r... */\n      tag_26\n      calldataload(0x4)\n      calldataload(0x24)\n      calldataload(0x44)\n      jump(tag_49)\n        /* \"contracts/HashRegistrarSimplified.sol\":12825:13404  function transferRegistrars(bytes32 _hash) public onlyOwner(_hash) {\r... */\n    tag_10:\n      callvalue\n        /* \"--CODEGEN--\":8:17   */\n      dup1\n        /* \"--CODEGEN--\":5:7   */\n      iszero\n      tag_50\n      jumpi\n        /* \"--CODEGEN--\":30:31   */\n      0x0\n        /* \"--CODEGEN--\":27:28   */\n      dup1\n        /* \"--CODEGEN--\":20:32   */\n      revert\n        /* \"--CODEGEN--\":5:7   */\n    tag_50:\n      pop\n        /* \"contracts/HashRegistrarSimplified.sol\":12825:13404  function transferRegistrars(bytes32 _hash) public onlyOwner(_hash) {\r... */\n      tag_26\n      calldataload(0x4)\n      jump(tag_52)\n        /* \"contracts/HashRegistrarSimplified.sol\":691:755  mapping (address => mapping (bytes32 => Deed)) public sealedBids */\n    tag_11:\n      callvalue\n        /* \"--CODEGEN--\":8:17   */\n      dup1\n        /* \"--CODEGEN--\":5:7   */\n      iszero\n      tag_53\n      jumpi\n        /* \"--CODEGEN--\":30:31   */\n      0x0\n        /* \"--CODEGEN--\":27:28   */\n      dup1\n        /* \"--CODEGEN--\":20:32   */\n      revert\n        /* \"--CODEGEN--\":5:7   */\n    tag_53:\n      pop\n        /* \"contracts/HashRegistrarSimplified.sol\":691:755  mapping (address => mapping (bytes32 => Deed)) public sealedBids */\n      tag_45\n      and(calldataload(0x4), sub(exp(0x2, 0xa0), 0x1))\n      calldataload(0x24)\n      jump(tag_55)\n        /* \"contracts/HashRegistrarSimplified.sol\":14219:14822  function state(bytes32 _hash) public view returns (Mode) {\r... */\n    tag_12:\n      callvalue\n        /* \"--CODEGEN--\":8:17   */\n      dup1\n        /* \"--CODEGEN--\":5:7   */\n      iszero\n      tag_56\n      jumpi\n        /* \"--CODEGEN--\":30:31   */\n      0x0\n        /* \"--CODEGEN--\":27:28   */\n      dup1\n        /* \"--CODEGEN--\":20:32   */\n      revert\n        /* \"--CODEGEN--\":5:7   */\n    tag_56:\n      pop\n        /* \"contracts/HashRegistrarSimplified.sol\":14219:14822  function state(bytes32 _hash) public view returns (Mode) {\r... */\n      tag_57\n      calldataload(0x4)\n      jump(tag_58)\n    tag_57:\n      mload(0x40)\n      dup1\n      dup3\n      0x5\n      dup2\n      gt\n      iszero\n      tag_59\n      jumpi\n      invalid\n    tag_59:\n      0xff\n      and\n      dup2\n      mstore\n      0x20\n      add\n      swap2\n      pop\n      pop\n      mload(0x40)\n      dup1\n      swap2\n      sub\n      swap1\n      return\n        /* \"contracts/HashRegistrarSimplified.sol\":9650:9894  function transfer(bytes32 _hash, address newOwner) public onlyOwner(_hash) {\r... */\n    tag_13:\n      callvalue\n        /* \"--CODEGEN--\":8:17   */\n      dup1\n        /* \"--CODEGEN--\":5:7   */\n      iszero\n      tag_60\n      jumpi\n        /* \"--CODEGEN--\":30:31   */\n      0x0\n        /* \"--CODEGEN--\":27:28   */\n      dup1\n        /* \"--CODEGEN--\":20:32   */\n      revert\n        /* \"--CODEGEN--\":5:7   */\n    tag_60:\n      pop\n        /* \"contracts/HashRegistrarSimplified.sol\":9650:9894  function transfer(bytes32 _hash, address newOwner) public onlyOwner(_hash) {\r... */\n      tag_26\n      calldataload(0x4)\n      and(calldataload(0x24), sub(exp(0x2, 0xa0), 0x1))\n      jump(tag_62)\n        /* \"contracts/HashRegistrarSimplified.sol\":15381:15527  function isAllowed(bytes32 _hash, uint _timestamp) public view returns (bool allowed) {\r... */\n    tag_14:\n      callvalue\n        /* \"--CODEGEN--\":8:17   */\n      dup1\n        /* \"--CODEGEN--\":5:7   */\n      iszero\n      tag_63\n      jumpi\n        /* \"--CODEGEN--\":30:31   */\n      0x0\n        /* \"--CODEGEN--\":27:28   */\n      dup1\n        /* \"--CODEGEN--\":20:32   */\n      revert\n        /* \"--CODEGEN--\":5:7   */\n    tag_63:\n      pop\n        /* \"contracts/HashRegistrarSimplified.sol\":15381:15527  function isAllowed(bytes32 _hash, uint _timestamp) public view returns (bool allowed) {\r... */\n      tag_64\n      calldataload(0x4)\n      calldataload(0x24)\n      jump(tag_65)\n    tag_64:\n      0x40\n      dup1\n      mload\n      swap2\n      iszero\n      iszero\n      dup3\n      mstore\n      mload\n      swap1\n      dup2\n      swap1\n      sub\n      0x20\n      add\n      swap1\n      return\n        /* \"contracts/HashRegistrarSimplified.sol\":9008:9433  function finalizeAuction(bytes32 _hash) public onlyOwner(_hash) {\r... */\n    tag_15:\n      callvalue\n        /* \"--CODEGEN--\":8:17   */\n      dup1\n        /* \"--CODEGEN--\":5:7   */\n      iszero\n      tag_66\n      jumpi\n        /* \"--CODEGEN--\":30:31   */\n      0x0\n        /* \"--CODEGEN--\":27:28   */\n      dup1\n        /* \"--CODEGEN--\":20:32   */\n      revert\n        /* \"--CODEGEN--\":5:7   */\n    tag_66:\n      pop\n        /* \"contracts/HashRegistrarSimplified.sol\":9008:9433  function finalizeAuction(bytes32 _hash) public onlyOwner(_hash) {\r... */\n      tag_26\n      calldataload(0x4)\n      jump(tag_68)\n        /* \"contracts/HashRegistrarSimplified.sol\":1038:1065  uint public registryStarted */\n    tag_16:\n      callvalue\n        /* \"--CODEGEN--\":8:17   */\n      dup1\n        /* \"--CODEGEN--\":5:7   */\n      iszero\n      tag_69\n      jumpi\n        /* \"--CODEGEN--\":30:31   */\n      0x0\n        /* \"--CODEGEN--\":27:28   */\n      dup1\n        /* \"--CODEGEN--\":20:32   */\n      revert\n        /* \"--CODEGEN--\":5:7   */\n    tag_69:\n        /* \"contracts/HashRegistrarSimplified.sol\":1038:1065  uint public registryStarted */\n      pop\n      tag_29\n      jump(tag_71)\n        /* \"contracts/HashRegistrarSimplified.sol\":942:987  uint32 public constant launchLength = 8 weeks */\n    tag_17:\n      callvalue\n        /* \"--CODEGEN--\":8:17   */\n      dup1\n        /* \"--CODEGEN--\":5:7   */\n      iszero\n      tag_72\n      jumpi\n        /* \"--CODEGEN--\":30:31   */\n      0x0\n        /* \"--CODEGEN--\":27:28   */\n      dup1\n        /* \"--CODEGEN--\":20:32   */\n      revert\n        /* \"--CODEGEN--\":5:7   */\n    tag_72:\n        /* \"contracts/HashRegistrarSimplified.sol\":942:987  uint32 public constant launchLength = 8 weeks */\n      pop\n      tag_73\n      jump(tag_74)\n    tag_73:\n      0x40\n      dup1\n      mload\n      0xffffffff\n      swap1\n      swap3\n      and\n      dup3\n      mstore\n      mload\n      swap1\n      dup2\n      swap1\n      sub\n      0x20\n      add\n      swap1\n      return\n        /* \"contracts/HashRegistrarSimplified.sol\":4781:5174  function newBid(bytes32 sealedBid) public payable {\r... */\n    tag_18:\n      tag_26\n      calldataload(0x4)\n      jump(tag_76)\n        /* \"contracts/HashRegistrarSimplified.sol\":12358:12583  function eraseNode(bytes32[] labels) public {\r... */\n    tag_19:\n      callvalue\n        /* \"--CODEGEN--\":8:17   */\n      dup1\n        /* \"--CODEGEN--\":5:7   */\n      iszero\n      tag_77\n      jumpi\n        /* \"--CODEGEN--\":30:31   */\n      0x0\n        /* \"--CODEGEN--\":27:28   */\n      dup1\n        /* \"--CODEGEN--\":20:32   */\n      revert\n        /* \"--CODEGEN--\":5:7   */\n    tag_77:\n      pop\n        /* \"contracts/HashRegistrarSimplified.sol\":12358:12583  function eraseNode(bytes32[] labels) public {\r... */\n      0x40\n      dup1\n      mload\n      0x20\n      0x4\n      dup1\n      calldataload\n      dup1\n      dup3\n      add\n      calldataload\n      dup4\n      dup2\n      mul\n      dup1\n      dup7\n      add\n      dup6\n      add\n      swap1\n      swap7\n      mstore\n      dup1\n      dup6\n      mstore\n      tag_26\n      swap6\n      calldatasize\n      swap6\n      swap4\n      swap5\n      0x24\n      swap5\n      swap4\n      dup6\n      add\n      swap3\n      swap2\n      dup3\n      swap2\n      dup6\n      add\n      swap1\n      dup5\n      swap1\n      dup1\n      dup3\n      dup5\n      calldatacopy\n      pop\n      swap5\n      swap8\n      pop\n      tag_79\n      swap7\n      pop\n      pop\n      pop\n      pop\n      pop\n      pop\n      pop\n      jump\n        /* \"contracts/HashRegistrarSimplified.sol\":3749:3910  function startAuctions(bytes32[] _hashes) public {\r... */\n    tag_20:\n      callvalue\n        /* \"--CODEGEN--\":8:17   */\n      dup1\n        /* \"--CODEGEN--\":5:7   */\n      iszero\n      tag_80\n      jumpi\n        /* \"--CODEGEN--\":30:31   */\n      0x0\n        /* \"--CODEGEN--\":27:28   */\n      dup1\n        /* \"--CODEGEN--\":20:32   */\n      revert\n        /* \"--CODEGEN--\":5:7   */\n    tag_80:\n      pop\n        /* \"contracts/HashRegistrarSimplified.sol\":3749:3910  function startAuctions(bytes32[] _hashes) public {\r... */\n      0x40\n      dup1\n      mload\n      0x20\n      0x4\n      dup1\n      calldataload\n      dup1\n      dup3\n      add\n      calldataload\n      dup4\n      dup2\n      mul\n      dup1\n      dup7\n      add\n      dup6\n      add\n      swap1\n      swap7\n      mstore\n      dup1\n      dup6\n      mstore\n      tag_26\n      swap6\n      calldatasize\n      swap6\n      swap4\n      swap5\n      0x24\n      swap5\n      swap4\n      dup6\n      add\n      swap3\n      swap2\n      dup3\n      swap2\n      dup6\n      add\n      swap1\n      dup5\n      swap1\n      dup1\n      dup3\n      dup5\n      calldatacopy\n      pop\n      swap5\n      swap8\n      pop\n      tag_82\n      swap7\n      pop\n      pop\n      pop\n      pop\n      pop\n      pop\n      pop\n      jump\n        /* \"contracts/HashRegistrarSimplified.sol\":13810:13982  function acceptRegistrarTransfer(bytes32 hash, Deed deed, uint registrationDate) public {\r... */\n    tag_21:\n      callvalue\n        /* \"--CODEGEN--\":8:17   */\n      dup1\n        /* \"--CODEGEN--\":5:7   */\n      iszero\n      tag_83\n      jumpi\n        /* \"--CODEGEN--\":30:31   */\n      0x0\n        /* \"--CODEGEN--\":27:28   */\n      dup1\n        /* \"--CODEGEN--\":20:32   */\n      revert\n        /* \"--CODEGEN--\":5:7   */\n    tag_83:\n      pop\n        /* \"contracts/HashRegistrarSimplified.sol\":13810:13982  function acceptRegistrarTransfer(bytes32 hash, Deed deed, uint registrationDate) public {\r... */\n      tag_26\n      calldataload(0x4)\n      and(calldataload(0x24), sub(exp(0x2, 0xa0), 0x1))\n      calldataload(0x44)\n      jump(tag_85)\n        /* \"contracts/HashRegistrarSimplified.sol\":2712:3142  function startAuction(bytes32 _hash) public registryOpen() {\r... */\n    tag_22:\n      callvalue\n        /* \"--CODEGEN--\":8:17   */\n      dup1\n        /* \"--CODEGEN--\":5:7   */\n      iszero\n      tag_86\n      jumpi\n        /* \"--CODEGEN--\":30:31   */\n      0x0\n        /* \"--CODEGEN--\":27:28   */\n      dup1\n        /* \"--CODEGEN--\":20:32   */\n      revert\n        /* \"--CODEGEN--\":5:7   */\n    tag_86:\n      pop\n        /* \"contracts/HashRegistrarSimplified.sol\":2712:3142  function startAuction(bytes32 _hash) public registryOpen() {\r... */\n      tag_26\n      calldataload(0x4)\n      jump(tag_88)\n        /* \"contracts/HashRegistrarSimplified.sol\":617:640  bytes32 public rootNode */\n    tag_23:\n      callvalue\n        /* \"--CODEGEN--\":8:17   */\n      dup1\n        /* \"--CODEGEN--\":5:7   */\n      iszero\n      tag_89\n      jumpi\n        /* \"--CODEGEN--\":30:31   */\n      0x0\n        /* \"--CODEGEN--\":27:28   */\n      dup1\n        /* \"--CODEGEN--\":20:32   */\n      revert\n        /* \"--CODEGEN--\":5:7   */\n    tag_89:\n        /* \"contracts/HashRegistrarSimplified.sol\":617:640  bytes32 public rootNode */\n      pop\n      tag_29\n      jump(tag_91)\n        /* \"contracts/HashRegistrarSimplified.sol\":5527:5676  function startAuctionsAndBid(bytes32[] hashes, bytes32 sealedBid) public payable {\r... */\n    tag_24:\n      0x40\n      dup1\n      mload\n      0x20\n      0x4\n      dup1\n      calldataload\n      dup1\n      dup3\n      add\n      calldataload\n      dup4\n      dup2\n      mul\n      dup1\n      dup7\n      add\n      dup6\n      add\n      swap1\n      swap7\n      mstore\n      dup1\n      dup6\n      mstore\n      tag_26\n      swap6\n      calldatasize\n      swap6\n      swap4\n      swap5\n      0x24\n      swap5\n      swap4\n      dup6\n      add\n      swap3\n      swap2\n      dup3\n      swap2\n      dup6\n      add\n      swap1\n      dup5\n      swap1\n      dup1\n      dup3\n      dup5\n      calldatacopy\n      pop\n      swap5\n      swap8\n      pop\n      pop\n      swap4\n      calldataload\n      swap5\n      pop\n      tag_93\n      swap4\n      pop\n      pop\n      pop\n      pop\n      jump\n        /* \"contracts/HashRegistrarSimplified.sol\":10106:10555  function releaseDeed(bytes32 _hash) public onlyOwner(_hash) {\r... */\n    tag_27:\n        /* \"contracts/HashRegistrarSimplified.sol\":10177:10192  Entry storage h */\n      0x0\n      dup1\n        /* \"contracts/HashRegistrarSimplified.sol\":10159:10164  _hash */\n      dup3\n        /* \"contracts/HashRegistrarSimplified.sol\":1906:1916  Mode.Owned */\n      0x2\n        /* \"contracts/HashRegistrarSimplified.sol\":1890:1902  state(_hash) */\n      tag_96\n        /* \"contracts/HashRegistrarSimplified.sol\":1896:1901  _hash */\n      dup3\n        /* \"contracts/HashRegistrarSimplified.sol\":1890:1895  state */\n      tag_58\n        /* \"contracts/HashRegistrarSimplified.sol\":1890:1902  state(_hash) */\n      jump\t// in\n    tag_96:\n        /* \"contracts/HashRegistrarSimplified.sol\":1890:1916  state(_hash) == Mode.Owned */\n      0x5\n      dup2\n      gt\n      iszero\n      tag_97\n      jumpi\n      invalid\n    tag_97:\n      eq\n        /* \"contracts/HashRegistrarSimplified.sol\":1890:1962  state(_hash) == Mode.Owned && msg.sender == _entries[_hash].deed.owner() */\n      dup1\n      iszero\n      tag_98\n      jumpi\n      pop\n        /* \"contracts/HashRegistrarSimplified.sol\":1934:1949  _entries[_hash] */\n      0x0\n      dup2\n      dup2\n      mstore\n        /* \"contracts/HashRegistrarSimplified.sol\":1934:1942  _entries */\n      0x2\n        /* \"contracts/HashRegistrarSimplified.sol\":1934:1949  _entries[_hash] */\n      0x20\n      swap1\n      dup2\n      mstore\n      0x40\n      dup1\n      dup4\n      keccak256\n        /* \"contracts/HashRegistrarSimplified.sol\":1934:1954  _entries[_hash].deed */\n      sload\n        /* \"contracts/HashRegistrarSimplified.sol\":1934:1962  _entries[_hash].deed.owner() */\n      dup2\n      mload\n      mul(0x8da5cb5b, exp(0x2, 0xe0))\n      dup2\n      mstore\n      swap2\n      mload\n      sub(exp(0x2, 0xa0), 0x1)\n        /* \"contracts/HashRegistrarSimplified.sol\":1934:1954  _entries[_hash].deed */\n      swap1\n      swap2\n      and\n      swap4\n        /* \"contracts/HashRegistrarSimplified.sol\":1934:1960  _entries[_hash].deed.owner */\n      0x8da5cb5b\n      swap4\n        /* \"contracts/HashRegistrarSimplified.sol\":1934:1962  _entries[_hash].deed.owner() */\n      0x4\n      dup1\n      dup6\n      add\n      swap5\n        /* \"contracts/HashRegistrarSimplified.sol\":1934:1949  _entries[_hash] */\n      swap2\n      swap4\n        /* \"contracts/HashRegistrarSimplified.sol\":1934:1962  _entries[_hash].deed.owner() */\n      swap3\n      swap2\n      dup4\n      swap1\n      sub\n      add\n      swap1\n      dup3\n      swap1\n        /* \"contracts/HashRegistrarSimplified.sol\":1934:1954  _entries[_hash].deed */\n      dup8\n        /* \"contracts/HashRegistrarSimplified.sol\":1934:1962  _entries[_hash].deed.owner() */\n      dup1\n      extcodesize\n      iszero\n        /* \"--CODEGEN--\":5:7   */\n      dup1\n      iszero\n      tag_99\n      jumpi\n        /* \"--CODEGEN--\":30:31   */\n      0x0\n        /* \"--CODEGEN--\":27:28   */\n      dup1\n        /* \"--CODEGEN--\":20:32   */\n      revert\n        /* \"--CODEGEN--\":5:7   */\n    tag_99:\n        /* \"contracts/HashRegistrarSimplified.sol\":1934:1962  _entries[_hash].deed.owner() */\n      pop\n      gas\n      call\n      iszero\n        /* \"--CODEGEN--\":8:17   */\n      dup1\n        /* \"--CODEGEN--\":5:7   */\n      iszero\n      tag_100\n      jumpi\n        /* \"--CODEGEN--\":45:61   */\n      returndatasize\n        /* \"--CODEGEN--\":42:43   */\n      0x0\n        /* \"--CODEGEN--\":39:40   */\n      dup1\n        /* \"--CODEGEN--\":24:62   */\n      returndatacopy\n        /* \"--CODEGEN--\":77:93   */\n      returndatasize\n        /* \"--CODEGEN--\":74:75   */\n      0x0\n        /* \"--CODEGEN--\":67:94   */\n      revert\n        /* \"--CODEGEN--\":5:7   */\n    tag_100:\n        /* \"contracts/HashRegistrarSimplified.sol\":1934:1962  _entries[_hash].deed.owner() */\n      pop\n      pop\n      pop\n      pop\n      mload(0x40)\n      returndatasize\n        /* \"--CODEGEN--\":13:15   */\n      0x20\n        /* \"--CODEGEN--\":8:11   */\n      dup2\n        /* \"--CODEGEN--\":5:16   */\n      lt\n        /* \"--CODEGEN--\":2:4   */\n      iszero\n      tag_101\n      jumpi\n        /* \"--CODEGEN--\":29:30   */\n      0x0\n        /* \"--CODEGEN--\":26:27   */\n      dup1\n        /* \"--CODEGEN--\":19:31   */\n      revert\n        /* \"--CODEGEN--\":2:4   */\n    tag_101:\n      pop\n        /* \"contracts/HashRegistrarSimplified.sol\":1934:1962  _entries[_hash].deed.owner() */\n      mload\n      sub(exp(0x2, 0xa0), 0x1)\n        /* \"contracts/HashRegistrarSimplified.sol\":1920:1962  msg.sender == _entries[_hash].deed.owner() */\n      and\n        /* \"contracts/HashRegistrarSimplified.sol\":1920:1930  msg.sender */\n      caller\n        /* \"contracts/HashRegistrarSimplified.sol\":1920:1962  msg.sender == _entries[_hash].deed.owner() */\n      eq\n        /* \"contracts/HashRegistrarSimplified.sol\":1890:1962  state(_hash) == Mode.Owned && msg.sender == _entries[_hash].deed.owner() */\n    tag_98:\n        /* \"contracts/HashRegistrarSimplified.sol\":1882:1963  require(state(_hash) == Mode.Owned && msg.sender == _entries[_hash].deed.owner()) */\n      iszero\n      iszero\n      tag_102\n      jumpi\n      0x0\n      dup1\n      revert\n    tag_102:\n        /* \"contracts/HashRegistrarSimplified.sol\":10195:10210  _entries[_hash] */\n      0x0\n      dup5\n      dup2\n      mstore\n        /* \"contracts/HashRegistrarSimplified.sol\":10195:10203  _entries */\n      0x2\n        /* \"contracts/HashRegistrarSimplified.sol\":10195:10210  _entries[_hash] */\n      0x20\n      mstore\n      0x40\n      swap1\n      keccak256\n        /* \"contracts/HashRegistrarSimplified.sol\":10241:10247  h.deed */\n      dup1\n      sload\n      0x1\n        /* \"contracts/HashRegistrarSimplified.sol\":10275:10293  h.registrationDate */\n      dup3\n      add\n      sload\n        /* \"contracts/HashRegistrarSimplified.sol\":10195:10210  _entries[_hash] */\n      swap2\n      swap5\n      pop\n      sub(exp(0x2, 0xa0), 0x1)\n        /* \"contracts/HashRegistrarSimplified.sol\":10241:10247  h.deed */\n      and\n      swap3\n      pop\n        /* \"contracts/HashRegistrarSimplified.sol\":10296:10303  1 years */\n      0x1e13380\n        /* \"contracts/HashRegistrarSimplified.sol\":10275:10303  h.registrationDate + 1 years */\n      add\n        /* \"contracts/HashRegistrarSimplified.sol\":10268:10271  now */\n      timestamp\n        /* \"contracts/HashRegistrarSimplified.sol\":10268:10303  now >= h.registrationDate + 1 years */\n      lt\n      iszero\n      dup1\n        /* \"contracts/HashRegistrarSimplified.sol\":10268:10343  now >= h.registrationDate + 1 years || ens.owner(rootNode) != address(this) */\n      tag_104\n      jumpi\n      pop\n        /* \"contracts/HashRegistrarSimplified.sol\":10307:10310  ens */\n      0x0\n      dup1\n      sload\n      0x1\n        /* \"contracts/HashRegistrarSimplified.sol\":10317:10325  rootNode */\n      sload\n        /* \"contracts/HashRegistrarSimplified.sol\":10307:10326  ens.owner(rootNode) */\n      0x40\n      dup1\n      mload\n      mul(0x2571be3, exp(0x2, 0xe0))\n      dup2\n      mstore\n      0x4\n      dup2\n      add\n      swap3\n      swap1\n      swap3\n      mstore\n      mload\n        /* \"contracts/HashRegistrarSimplified.sol\":10338:10342  this */\n      address\n      swap4\n      sub(exp(0x2, 0xa0), 0x1)\n        /* \"contracts/HashRegistrarSimplified.sol\":10307:10310  ens */\n      swap1\n      swap4\n      and\n      swap3\n        /* \"contracts/HashRegistrarSimplified.sol\":10307:10316  ens.owner */\n      0x2571be3\n      swap3\n        /* \"contracts/HashRegistrarSimplified.sol\":10307:10326  ens.owner(rootNode) */\n      0x24\n      dup1\n      dup3\n      add\n      swap4\n      0x20\n      swap4\n      swap1\n      swap3\n      dup4\n      swap1\n      sub\n      swap1\n      swap2\n      add\n      swap1\n      dup3\n      swap1\n        /* \"contracts/HashRegistrarSimplified.sol\":10307:10310  ens */\n      dup8\n        /* \"contracts/HashRegistrarSimplified.sol\":10307:10326  ens.owner(rootNode) */\n      dup1\n      extcodesize\n      iszero\n        /* \"--CODEGEN--\":5:7   */\n      dup1\n      iszero\n      tag_105\n      jumpi\n        /* \"--CODEGEN--\":30:31   */\n      0x0\n        /* \"--CODEGEN--\":27:28   */\n      dup1\n        /* \"--CODEGEN--\":20:32   */\n      revert\n        /* \"--CODEGEN--\":5:7   */\n    tag_105:\n        /* \"contracts/HashRegistrarSimplified.sol\":10307:10326  ens.owner(rootNode) */\n      pop\n      gas\n      call\n      iszero\n        /* \"--CODEGEN--\":8:17   */\n      dup1\n        /* \"--CODEGEN--\":5:7   */\n      iszero\n      tag_106\n      jumpi\n        /* \"--CODEGEN--\":45:61   */\n      returndatasize\n        /* \"--CODEGEN--\":42:43   */\n      0x0\n        /* \"--CODEGEN--\":39:40   */\n      dup1\n        /* \"--CODEGEN--\":24:62   */\n      returndatacopy\n        /* \"--CODEGEN--\":77:93   */\n      returndatasize\n        /* \"--CODEGEN--\":74:75   */\n      0x0\n        /* \"--CODEGEN--\":67:94   */\n      revert\n        /* \"--CODEGEN--\":5:7   */\n    tag_106:\n        /* \"contracts/HashRegistrarSimplified.sol\":10307:10326  ens.owner(rootNode) */\n      pop\n      pop\n      pop\n      pop\n      mload(0x40)\n      returndatasize\n        /* \"--CODEGEN--\":13:15   */\n      0x20\n        /* \"--CODEGEN--\":8:11   */\n      dup2\n        /* \"--CODEGEN--\":5:16   */\n      lt\n        /* \"--CODEGEN--\":2:4   */\n      iszero\n      tag_107\n      jumpi\n        /* \"--CODEGEN--\":29:30   */\n      0x0\n        /* \"--CODEGEN--\":26:27   */\n      dup1\n        /* \"--CODEGEN--\":19:31   */\n      revert\n        /* \"--CODEGEN--\":2:4   */\n    tag_107:\n      pop\n        /* \"contracts/HashRegistrarSimplified.sol\":10307:10326  ens.owner(rootNode) */\n      mload\n      sub(exp(0x2, 0xa0), 0x1)\n        /* \"contracts/HashRegistrarSimplified.sol\":10307:10343  ens.owner(rootNode) != address(this) */\n      and\n      eq\n      iszero\n        /* \"contracts/HashRegistrarSimplified.sol\":10268:10343  now >= h.registrationDate + 1 years || ens.owner(rootNode) != address(this) */\n    tag_104:\n        /* \"contracts/HashRegistrarSimplified.sol\":10260:10344  require(now >= h.registrationDate + 1 years || ens.owner(rootNode) != address(this)) */\n      iszero\n      iszero\n      tag_108\n      jumpi\n      0x0\n      dup1\n      revert\n    tag_108:\n        /* \"contracts/HashRegistrarSimplified.sol\":10367:10368  0 */\n      0x0\n        /* \"contracts/HashRegistrarSimplified.sol\":10357:10364  h.value */\n      0x2\n      dup5\n      add\n        /* \"contracts/HashRegistrarSimplified.sol\":10357:10368  h.value = 0 */\n      dup2\n      swap1\n      sstore\n        /* \"contracts/HashRegistrarSimplified.sol\":10379:10391  h.highestBid */\n      0x3\n      dup5\n      add\n        /* \"contracts/HashRegistrarSimplified.sol\":10379:10395  h.highestBid = 0 */\n      sstore\n        /* \"contracts/HashRegistrarSimplified.sol\":10406:10422  h.deed = Deed(0) */\n      dup3\n      sload\n      not(sub(exp(0x2, 0xa0), 0x1))\n      and\n      dup4\n      sstore\n        /* \"contracts/HashRegistrarSimplified.sol\":10435:10461  _tryEraseSingleNode(_hash) */\n      tag_109\n        /* \"contracts/HashRegistrarSimplified.sol\":10455:10460  _hash */\n      dup5\n        /* \"contracts/HashRegistrarSimplified.sol\":10435:10454  _tryEraseSingleNode */\n      tag_110\n        /* \"contracts/HashRegistrarSimplified.sol\":10435:10461  _tryEraseSingleNode(_hash) */\n      jump\t// in\n    tag_109:\n        /* \"contracts/HashRegistrarSimplified.sol\":10472:10484  deedContract */\n      dup2\n      sub(exp(0x2, 0xa0), 0x1)\n        /* \"contracts/HashRegistrarSimplified.sol\":10472:10494  deedContract.closeDeed */\n      and\n      0xbbe42771\n        /* \"contracts/HashRegistrarSimplified.sol\":10495:10499  1000 */\n      0x3e8\n        /* \"contracts/HashRegistrarSimplified.sol\":10472:10500  deedContract.closeDeed(1000) */\n      mload(0x40)\n      dup3\n      0xffffffff\n      and\n      exp(0x2, 0xe0)\n      mul\n      dup2\n      mstore\n      0x4\n      add\n      dup1\n      dup3\n      dup2\n      mstore\n      0x20\n      add\n      swap2\n      pop\n      pop\n      0x0\n      mload(0x40)\n      dup1\n      dup4\n      sub\n      dup2\n      0x0\n      dup8\n      dup1\n      extcodesize\n      iszero\n        /* \"--CODEGEN--\":8:17   */\n      dup1\n        /* \"--CODEGEN--\":5:7   */\n      iszero\n      tag_111\n      jumpi\n        /* \"--CODEGEN--\":30:31   */\n      0x0\n        /* \"--CODEGEN--\":27:28   */\n      dup1\n        /* \"--CODEGEN--\":20:32   */\n      revert\n        /* \"--CODEGEN--\":5:7   */\n    tag_111:\n        /* \"contracts/HashRegistrarSimplified.sol\":10472:10500  deedContract.closeDeed(1000) */\n      pop\n      gas\n      call\n      iszero\n        /* \"--CODEGEN--\":8:17   */\n      dup1\n        /* \"--CODEGEN--\":5:7   */\n      iszero\n      tag_112\n      jumpi\n        /* \"--CODEGEN--\":45:61   */\n      returndatasize\n        /* \"--CODEGEN--\":42:43   */\n      0x0\n        /* \"--CODEGEN--\":39:40   */\n      dup1\n        /* \"--CODEGEN--\":24:62   */\n      returndatacopy\n        /* \"--CODEGEN--\":77:93   */\n      returndatasize\n        /* \"--CODEGEN--\":74:75   */\n      0x0\n        /* \"--CODEGEN--\":67:94   */\n      revert\n        /* \"--CODEGEN--\":5:7   */\n    tag_112:\n      pop\n      pop\n      pop\n        /* \"contracts/HashRegistrarSimplified.sol\":10531:10538  h.value */\n      0x2\n      dup5\n      add\n      sload\n        /* \"contracts/HashRegistrarSimplified.sol\":10511:10539  HashReleased(_hash, h.value) */\n      0x40\n      dup1\n      mload\n      swap2\n      dup3\n      mstore\n      mload\n        /* \"contracts/HashRegistrarSimplified.sol\":10524:10529  _hash */\n      dup7\n      swap3\n      pop\n        /* \"contracts/HashRegistrarSimplified.sol\":10511:10539  HashReleased(_hash, h.value) */\n      0x292b79b9246fa2c8e77d3fe195b251f9cb839d7d038e667c069ee7708c631e16\n      swap2\n      dup2\n      swap1\n      sub\n      0x20\n      add\n      swap1\n      log2\n        /* \"contracts/HashRegistrarSimplified.sol\":10106:10555  function releaseDeed(bytes32 _hash) public onlyOwner(_hash) {\r... */\n      pop\n      pop\n      pop\n      pop\n      jump\t// out\n        /* \"contracts/HashRegistrarSimplified.sol\":15778:15987  function getAllowedTime(bytes32 _hash) public view returns (uint) {\r... */\n    tag_30:\n        /* \"contracts/HashRegistrarSimplified.sol\":15862:15877  registryStarted */\n      sload(0x4)\n        /* \"contracts/HashRegistrarSimplified.sol\":15898:15916  uint(_hash) >> 128 */\n      0x100000000000000000000000000000000\n        /* \"contracts/HashRegistrarSimplified.sol\":980:987  8 weeks */\n      0x49d400\n        /* \"contracts/HashRegistrarSimplified.sol\":15898:15916  uint(_hash) >> 128 */\n      dup2\n      dup5\n      div\n        /* \"contracts/HashRegistrarSimplified.sol\":15882:15917  launchLength * (uint(_hash) >> 128) */\n      mul\n        /* \"contracts/HashRegistrarSimplified.sol\":15881:15925  (launchLength * (uint(_hash) >> 128)) >> 128 */\n      div\n        /* \"contracts/HashRegistrarSimplified.sol\":15862:15926  registryStarted + ((launchLength * (uint(_hash) >> 128)) >> 128) */\n      add\n        /* \"contracts/HashRegistrarSimplified.sol\":15778:15987  function getAllowedTime(bytes32 _hash) public view returns (uint) {\r... */\n      swap2\n      swap1\n      pop\n      jump\t// out\n        /* \"contracts/HashRegistrarSimplified.sol\":10951:11717  function invalidateName(string unhashedName) public inState(keccak256(unhashedName), Mode.Owned) {\r... */\n    tag_33:\n        /* \"contracts/HashRegistrarSimplified.sol\":11104:11116  bytes32 hash */\n      0x0\n        /* \"contracts/HashRegistrarSimplified.sol\":11155:11170  Entry storage h */\n      dup1\n        /* \"contracts/HashRegistrarSimplified.sol\":11021:11033  unhashedName */\n      dup3\n        /* \"contracts/HashRegistrarSimplified.sol\":11011:11034  keccak256(unhashedName) */\n      mload(0x40)\n      dup1\n      dup3\n      dup1\n      mload\n      swap1\n      0x20\n      add\n      swap1\n      dup1\n      dup4\n      dup4\n        /* \"--CODEGEN--\":36:189   */\n    tag_114:\n        /* \"--CODEGEN--\":66:68   */\n      0x20\n        /* \"--CODEGEN--\":58:69   */\n      dup4\n      lt\n        /* \"--CODEGEN--\":36:189   */\n      tag_115\n      jumpi\n        /* \"--CODEGEN--\":176:186   */\n      dup1\n      mload\n        /* \"--CODEGEN--\":164:187   */\n      dup3\n      mstore\n      not(0x1f)\n        /* \"--CODEGEN--\":139:151   */\n      swap1\n      swap3\n      add\n      swap2\n        /* \"--CODEGEN--\":98:100   */\n      0x20\n        /* \"--CODEGEN--\":89:101   */\n      swap2\n      dup3\n      add\n      swap2\n        /* \"--CODEGEN--\":114:126   */\n      add\n        /* \"--CODEGEN--\":36:189   */\n      jump(tag_114)\n    tag_115:\n        /* \"--CODEGEN--\":299:309   */\n      mload\n        /* \"--CODEGEN--\":344:354   */\n      dup2\n      mload\n        /* \"--CODEGEN--\":263:265   */\n      0x20\n        /* \"--CODEGEN--\":259:271   */\n      swap4\n      swap1\n      swap4\n      sub\n        /* \"--CODEGEN--\":254:257   */\n      0x100\n        /* \"--CODEGEN--\":250:272   */\n      exp\n      not(0x0)\n        /* \"--CODEGEN--\":246:276   */\n      add\n        /* \"--CODEGEN--\":311:320   */\n      dup1\n      not\n        /* \"--CODEGEN--\":295:321   */\n      swap1\n      swap2\n      and\n        /* \"--CODEGEN--\":340:361   */\n      swap3\n      and\n        /* \"--CODEGEN--\":377:397   */\n      swap2\n      swap1\n      swap2\n      or\n        /* \"--CODEGEN--\":365:398   */\n      swap1\n      mstore\n        /* \"contracts/HashRegistrarSimplified.sol\":11011:11034  keccak256(unhashedName) */\n      mload(0x40)\n      swap3\n      add\n      dup3\n      swap1\n      sub\n      swap1\n      swap2\n      keccak256\n      swap3\n      pop\n        /* \"contracts/HashRegistrarSimplified.sol\":11036:11046  Mode.Owned */\n      0x2\n      swap2\n      pop\n      dup2\n      swap1\n      pop\n        /* \"contracts/HashRegistrarSimplified.sol\":1786:1798  state(_hash) */\n      tag_119\n        /* \"contracts/HashRegistrarSimplified.sol\":1792:1797  _hash */\n      dup4\n        /* \"contracts/HashRegistrarSimplified.sol\":1786:1791  state */\n      tag_58\n        /* \"contracts/HashRegistrarSimplified.sol\":1786:1798  state(_hash) */\n      jump\t// in\n    tag_119:\n        /* \"contracts/HashRegistrarSimplified.sol\":1786:1808  state(_hash) == _state */\n      0x5\n      dup2\n      gt\n      iszero\n      tag_120\n      jumpi\n      invalid\n    tag_120:\n      eq\n        /* \"contracts/HashRegistrarSimplified.sol\":1778:1809  require(state(_hash) == _state) */\n      tag_121\n      jumpi\n      0x0\n      dup1\n      revert\n    tag_121:\n        /* \"contracts/HashRegistrarSimplified.sol\":11091:11092  6 */\n      0x6\n        /* \"contracts/HashRegistrarSimplified.sol\":11067:11087  strlen(unhashedName) */\n      tag_123\n        /* \"contracts/HashRegistrarSimplified.sol\":11074:11086  unhashedName */\n      dup7\n        /* \"contracts/HashRegistrarSimplified.sol\":11067:11073  strlen */\n      tag_124\n        /* \"contracts/HashRegistrarSimplified.sol\":11067:11087  strlen(unhashedName) */\n      jump\t// in\n    tag_123:\n        /* \"contracts/HashRegistrarSimplified.sol\":11067:11092  strlen(unhashedName) <= 6 */\n      gt\n      iszero\n        /* \"contracts/HashRegistrarSimplified.sol\":11059:11093  require(strlen(unhashedName) <= 6) */\n      tag_125\n      jumpi\n      0x0\n      dup1\n      revert\n    tag_125:\n        /* \"contracts/HashRegistrarSimplified.sol\":11129:11141  unhashedName */\n      dup5\n        /* \"contracts/HashRegistrarSimplified.sol\":11119:11142  keccak256(unhashedName) */\n      mload(0x40)\n      dup1\n      dup3\n      dup1\n      mload\n      swap1\n      0x20\n      add\n      swap1\n      dup1\n      dup4\n      dup4\n        /* \"--CODEGEN--\":36:189   */\n    tag_126:\n        /* \"--CODEGEN--\":66:68   */\n      0x20\n        /* \"--CODEGEN--\":58:69   */\n      dup4\n      lt\n        /* \"--CODEGEN--\":36:189   */\n      tag_127\n      jumpi\n        /* \"--CODEGEN--\":176:186   */\n      dup1\n      mload\n        /* \"--CODEGEN--\":164:187   */\n      dup3\n      mstore\n      not(0x1f)\n        /* \"--CODEGEN--\":139:151   */\n      swap1\n      swap3\n      add\n      swap2\n        /* \"--CODEGEN--\":98:100   */\n      0x20\n        /* \"--CODEGEN--\":89:101   */\n      swap2\n      dup3\n      add\n      swap2\n        /* \"--CODEGEN--\":114:126   */\n      add\n        /* \"--CODEGEN--\":36:189   */\n      jump(tag_126)\n    tag_127:\n        /* \"--CODEGEN--\":299:309   */\n      mload\n        /* \"--CODEGEN--\":344:354   */\n      dup2\n      mload\n        /* \"--CODEGEN--\":263:265   */\n      0x20\n        /* \"--CODEGEN--\":259:271   */\n      swap4\n      dup5\n      sub\n        /* \"--CODEGEN--\":254:257   */\n      0x100\n        /* \"--CODEGEN--\":250:272   */\n      exp\n      not(0x0)\n        /* \"--CODEGEN--\":246:276   */\n      add\n        /* \"--CODEGEN--\":311:320   */\n      dup1\n      not\n        /* \"--CODEGEN--\":295:321   */\n      swap1\n      swap3\n      and\n        /* \"--CODEGEN--\":340:361   */\n      swap2\n      and\n        /* \"--CODEGEN--\":377:397   */\n      or\n        /* \"--CODEGEN--\":365:398   */\n      swap1\n      mstore\n        /* \"contracts/HashRegistrarSimplified.sol\":11119:11142  keccak256(unhashedName) */\n      0x40\n      dup1\n      mload\n      swap3\n      swap1\n      swap5\n      add\n      dup3\n      swap1\n      sub\n      swap1\n      swap2\n      keccak256\n      0x0\n        /* \"contracts/HashRegistrarSimplified.sol\":11173:11187  _entries[hash] */\n      dup2\n      dup2\n      mstore\n        /* \"contracts/HashRegistrarSimplified.sol\":11173:11181  _entries */\n      0x2\n        /* \"contracts/HashRegistrarSimplified.sol\":11173:11187  _entries[hash] */\n      swap1\n      swap3\n      mstore\n      swap3\n      swap1\n      keccak256\n        /* \"contracts/HashRegistrarSimplified.sol\":11119:11142  keccak256(unhashedName) */\n      swap2\n      swap8\n      pop\n        /* \"contracts/HashRegistrarSimplified.sol\":11173:11187  _entries[hash] */\n      swap1\n      swap6\n      pop\n        /* \"contracts/HashRegistrarSimplified.sol\":11200:11225  _tryEraseSingleNode(hash) */\n      tag_129\n      swap3\n      pop\n        /* \"contracts/HashRegistrarSimplified.sol\":11119:11142  keccak256(unhashedName) */\n      dup7\n      swap2\n      pop\n        /* \"contracts/HashRegistrarSimplified.sol\":11200:11219  _tryEraseSingleNode */\n      tag_110\n      swap1\n      pop\n        /* \"contracts/HashRegistrarSimplified.sol\":11200:11225  _tryEraseSingleNode(hash) */\n      jump\t// in\n    tag_129:\n        /* \"contracts/HashRegistrarSimplified.sol\":11250:11256  h.deed */\n      dup3\n      sload\n      sub(exp(0x2, 0xa0), 0x1)\n      and\n        /* \"contracts/HashRegistrarSimplified.sol\":11242:11262  address(h.deed) != 0 */\n      iszero\n        /* \"contracts/HashRegistrarSimplified.sol\":11238:11555  if (address(h.deed) != 0) {\r... */\n      tag_130\n      jumpi\n        /* \"contracts/HashRegistrarSimplified.sol\":11392:11414  max(h.value, minPrice) */\n      tag_131\n        /* \"contracts/HashRegistrarSimplified.sol\":11396:11397  h */\n      dup4\n        /* \"contracts/HashRegistrarSimplified.sol\":11396:11403  h.value */\n      0x2\n      add\n      sload\n        /* \"contracts/HashRegistrarSimplified.sol\":1021:1031  0.01 ether */\n      0x2386f26fc10000\n        /* \"contracts/HashRegistrarSimplified.sol\":11392:11395  max */\n      tag_132\n        /* \"contracts/HashRegistrarSimplified.sol\":11392:11414  max(h.value, minPrice) */\n      jump\t// in\n    tag_131:\n        /* \"contracts/HashRegistrarSimplified.sol\":11382:11389  h.value */\n      0x2\n      dup5\n      dup2\n      add\n        /* \"contracts/HashRegistrarSimplified.sol\":11382:11414  h.value = max(h.value, minPrice) */\n      dup3\n      swap1\n      sstore\n        /* \"contracts/HashRegistrarSimplified.sol\":11429:11435  h.deed */\n      dup5\n      sload\n        /* \"contracts/HashRegistrarSimplified.sol\":11429:11464  h.deed.setBalance(h.value/2, false) */\n      0x40\n      dup1\n      mload\n      0xb0c8097200000000000000000000000000000000000000000000000000000000\n      dup2\n      mstore\n        /* \"contracts/HashRegistrarSimplified.sol\":11447:11456  h.value/2 */\n      swap3\n      swap1\n      swap4\n      div\n        /* \"contracts/HashRegistrarSimplified.sol\":11429:11464  h.deed.setBalance(h.value/2, false) */\n      0x4\n      dup4\n      add\n      mstore\n      0x0\n      0x24\n      dup4\n      add\n      dup2\n      swap1\n      mstore\n      swap3\n      mload\n      sub(exp(0x2, 0xa0), 0x1)\n        /* \"contracts/HashRegistrarSimplified.sol\":11429:11435  h.deed */\n      swap1\n      swap2\n      and\n      swap3\n        /* \"contracts/HashRegistrarSimplified.sol\":11429:11446  h.deed.setBalance */\n      0xb0c80972\n      swap3\n        /* \"contracts/HashRegistrarSimplified.sol\":11429:11464  h.deed.setBalance(h.value/2, false) */\n      0x44\n      dup1\n      dup3\n      add\n      swap4\n      swap2\n      dup3\n      swap1\n      sub\n      add\n      dup2\n      dup4\n        /* \"contracts/HashRegistrarSimplified.sol\":11429:11435  h.deed */\n      dup8\n        /* \"contracts/HashRegistrarSimplified.sol\":11429:11464  h.deed.setBalance(h.value/2, false) */\n      dup1\n      extcodesize\n      iszero\n        /* \"--CODEGEN--\":5:7   */\n      dup1\n      iszero\n      tag_134\n      jumpi\n        /* \"--CODEGEN--\":30:31   */\n      0x0\n        /* \"--CODEGEN--\":27:28   */\n      dup1\n        /* \"--CODEGEN--\":20:32   */\n      revert\n        /* \"--CODEGEN--\":5:7   */\n    tag_134:\n        /* \"contracts/HashRegistrarSimplified.sol\":11429:11464  h.deed.setBalance(h.value/2, false) */\n      pop\n      gas\n      call\n      iszero\n        /* \"--CODEGEN--\":8:17   */\n      dup1\n        /* \"--CODEGEN--\":5:7   */\n      iszero\n      tag_135\n      jumpi\n        /* \"--CODEGEN--\":45:61   */\n      returndatasize\n        /* \"--CODEGEN--\":42:43   */\n      0x0\n        /* \"--CODEGEN--\":39:40   */\n      dup1\n        /* \"--CODEGEN--\":24:62   */\n      returndatacopy\n        /* \"--CODEGEN--\":77:93   */\n      returndatasize\n        /* \"--CODEGEN--\":74:75   */\n      0x0\n        /* \"--CODEGEN--\":67:94   */\n      revert\n        /* \"--CODEGEN--\":5:7   */\n    tag_135:\n      pop\n      pop\n        /* \"contracts/HashRegistrarSimplified.sol\":11479:11485  h.deed */\n      dup5\n      sload\n        /* \"contracts/HashRegistrarSimplified.sol\":11479:11506  h.deed.setOwner(msg.sender) */\n      0x40\n      dup1\n      mload\n      0x13af403500000000000000000000000000000000000000000000000000000000\n      dup2\n      mstore\n        /* \"contracts/HashRegistrarSimplified.sol\":11495:11505  msg.sender */\n      caller\n        /* \"contracts/HashRegistrarSimplified.sol\":11479:11506  h.deed.setOwner(msg.sender) */\n      0x4\n      dup3\n      add\n      mstore\n      swap1\n      mload\n      sub(exp(0x2, 0xa0), 0x1)\n        /* \"contracts/HashRegistrarSimplified.sol\":11479:11485  h.deed */\n      swap1\n      swap3\n      and\n      swap4\n      pop\n        /* \"contracts/HashRegistrarSimplified.sol\":11479:11494  h.deed.setOwner */\n      0x13af4035\n      swap3\n      pop\n        /* \"contracts/HashRegistrarSimplified.sol\":11479:11506  h.deed.setOwner(msg.sender) */\n      0x24\n      dup1\n      dup3\n      add\n      swap3\n        /* \"contracts/HashRegistrarSimplified.sol\":11479:11485  h.deed */\n      0x0\n      swap3\n        /* \"contracts/HashRegistrarSimplified.sol\":11479:11506  h.deed.setOwner(msg.sender) */\n      swap1\n      swap2\n      swap1\n      dup3\n      swap1\n      sub\n      add\n      dup2\n        /* \"contracts/HashRegistrarSimplified.sol\":11479:11485  h.deed */\n      dup4\n      dup8\n        /* \"contracts/HashRegistrarSimplified.sol\":11479:11506  h.deed.setOwner(msg.sender) */\n      dup1\n      extcodesize\n      iszero\n        /* \"--CODEGEN--\":5:7   */\n      dup1\n      iszero\n      tag_136\n      jumpi\n        /* \"--CODEGEN--\":30:31   */\n      0x0\n        /* \"--CODEGEN--\":27:28   */\n      dup1\n        /* \"--CODEGEN--\":20:32   */\n      revert\n        /* \"--CODEGEN--\":5:7   */\n    tag_136:\n        /* \"contracts/HashRegistrarSimplified.sol\":11479:11506  h.deed.setOwner(msg.sender) */\n      pop\n      gas\n      call\n      iszero\n        /* \"--CODEGEN--\":8:17   */\n      dup1\n        /* \"--CODEGEN--\":5:7   */\n      iszero\n      tag_137\n      jumpi\n        /* \"--CODEGEN--\":45:61   */\n      returndatasize\n        /* \"--CODEGEN--\":42:43   */\n      0x0\n        /* \"--CODEGEN--\":39:40   */\n      dup1\n        /* \"--CODEGEN--\":24:62   */\n      returndatacopy\n        /* \"--CODEGEN--\":77:93   */\n      returndatasize\n        /* \"--CODEGEN--\":74:75   */\n      0x0\n        /* \"--CODEGEN--\":67:94   */\n      revert\n        /* \"--CODEGEN--\":5:7   */\n    tag_137:\n      pop\n      pop\n        /* \"contracts/HashRegistrarSimplified.sol\":11521:11527  h.deed */\n      dup5\n      sload\n        /* \"contracts/HashRegistrarSimplified.sol\":11521:11543  h.deed.closeDeed(1000) */\n      0x40\n      dup1\n      mload\n      0xbbe4277100000000000000000000000000000000000000000000000000000000\n      dup2\n      mstore\n        /* \"contracts/HashRegistrarSimplified.sol\":11538:11542  1000 */\n      0x3e8\n        /* \"contracts/HashRegistrarSimplified.sol\":11521:11543  h.deed.closeDeed(1000) */\n      0x4\n      dup3\n      add\n      mstore\n      swap1\n      mload\n      sub(exp(0x2, 0xa0), 0x1)\n        /* \"contracts/HashRegistrarSimplified.sol\":11521:11527  h.deed */\n      swap1\n      swap3\n      and\n      swap4\n      pop\n        /* \"contracts/HashRegistrarSimplified.sol\":11521:11537  h.deed.closeDeed */\n      0xbbe42771\n      swap3\n      pop\n        /* \"contracts/HashRegistrarSimplified.sol\":11521:11543  h.deed.closeDeed(1000) */\n      0x24\n      dup1\n      dup3\n      add\n      swap3\n        /* \"contracts/HashRegistrarSimplified.sol\":11521:11527  h.deed */\n      0x0\n      swap3\n        /* \"contracts/HashRegistrarSimplified.sol\":11521:11543  h.deed.closeDeed(1000) */\n      swap1\n      swap2\n      swap1\n      dup3\n      swap1\n      sub\n      add\n      dup2\n        /* \"contracts/HashRegistrarSimplified.sol\":11521:11527  h.deed */\n      dup4\n      dup8\n        /* \"contracts/HashRegistrarSimplified.sol\":11521:11543  h.deed.closeDeed(1000) */\n      dup1\n      extcodesize\n      iszero\n        /* \"--CODEGEN--\":5:7   */\n      dup1\n      iszero\n      tag_138\n      jumpi\n        /* \"--CODEGEN--\":30:31   */\n      0x0\n        /* \"--CODEGEN--\":27:28   */\n      dup1\n        /* \"--CODEGEN--\":20:32   */\n      revert\n        /* \"--CODEGEN--\":5:7   */\n    tag_138:\n        /* \"contracts/HashRegistrarSimplified.sol\":11521:11543  h.deed.closeDeed(1000) */\n      pop\n      gas\n      call\n      iszero\n        /* \"--CODEGEN--\":8:17   */\n      dup1\n        /* \"--CODEGEN--\":5:7   */\n      iszero\n      tag_139\n      jumpi\n        /* \"--CODEGEN--\":45:61   */\n      returndatasize\n        /* \"--CODEGEN--\":42:43   */\n      0x0\n        /* \"--CODEGEN--\":39:40   */\n      dup1\n        /* \"--CODEGEN--\":24:62   */\n      returndatacopy\n        /* \"--CODEGEN--\":77:93   */\n      returndatasize\n        /* \"--CODEGEN--\":74:75   */\n      0x0\n        /* \"--CODEGEN--\":67:94   */\n      revert\n        /* \"--CODEGEN--\":5:7   */\n    tag_139:\n        /* \"contracts/HashRegistrarSimplified.sol\":11521:11543  h.deed.closeDeed(1000) */\n      pop\n      pop\n      pop\n      pop\n        /* \"contracts/HashRegistrarSimplified.sol\":11238:11555  if (address(h.deed) != 0) {\r... */\n    tag_130:\n        /* \"contracts/HashRegistrarSimplified.sol\":11589:11601  unhashedName */\n      dup5\n        /* \"contracts/HashRegistrarSimplified.sol\":11567:11631  HashInvalidated(hash, unhashedName, h.value, h.registrationDate) */\n      mload(0x40)\n      dup1\n      dup3\n      dup1\n      mload\n      swap1\n      0x20\n      add\n      swap1\n      dup1\n      dup4\n      dup4\n        /* \"--CODEGEN--\":36:189   */\n    tag_140:\n        /* \"--CODEGEN--\":66:68   */\n      0x20\n        /* \"--CODEGEN--\":58:69   */\n      dup4\n      lt\n        /* \"--CODEGEN--\":36:189   */\n      tag_141\n      jumpi\n        /* \"--CODEGEN--\":176:186   */\n      dup1\n      mload\n        /* \"--CODEGEN--\":164:187   */\n      dup3\n      mstore\n      not(0x1f)\n        /* \"--CODEGEN--\":139:151   */\n      swap1\n      swap3\n      add\n      swap2\n        /* \"--CODEGEN--\":98:100   */\n      0x20\n        /* \"--CODEGEN--\":89:101   */\n      swap2\n      dup3\n      add\n      swap2\n        /* \"--CODEGEN--\":114:126   */\n      add\n        /* \"--CODEGEN--\":36:189   */\n      jump(tag_140)\n    tag_141:\n        /* \"--CODEGEN--\":299:309   */\n      mload\n        /* \"--CODEGEN--\":344:354   */\n      dup2\n      mload\n        /* \"--CODEGEN--\":263:265   */\n      0x20\n        /* \"--CODEGEN--\":259:271   */\n      swap4\n      dup5\n      sub\n        /* \"--CODEGEN--\":254:257   */\n      0x100\n        /* \"--CODEGEN--\":250:272   */\n      exp\n      not(0x0)\n        /* \"--CODEGEN--\":246:276   */\n      add\n        /* \"--CODEGEN--\":311:320   */\n      dup1\n      not\n        /* \"--CODEGEN--\":295:321   */\n      swap1\n      swap3\n      and\n        /* \"--CODEGEN--\":340:361   */\n      swap2\n      and\n        /* \"--CODEGEN--\":377:397   */\n      or\n        /* \"--CODEGEN--\":365:398   */\n      swap1\n      mstore\n        /* \"contracts/HashRegistrarSimplified.sol\":11567:11631  HashInvalidated(hash, unhashedName, h.value, h.registrationDate) */\n      0x40\n      dup1\n      mload\n      swap3\n      swap1\n      swap5\n      add\n      dup3\n      swap1\n      sub\n      dup3\n      keccak256\n        /* \"contracts/HashRegistrarSimplified.sol\":11603:11610  h.value */\n      0x2\n      dup11\n      add\n      sload\n        /* \"--CODEGEN--\":274:275   */\n      0x1\n        /* \"contracts/HashRegistrarSimplified.sol\":11612:11630  h.registrationDate */\n      dup12\n      add\n      sload\n        /* \"contracts/HashRegistrarSimplified.sol\":11567:11631  HashInvalidated(hash, unhashedName, h.value, h.registrationDate) */\n      swap1\n      dup5\n      mstore\n      swap2\n      dup4\n      add\n      swap2\n      swap1\n      swap2\n      mstore\n      dup4\n      mload\n      swap1\n      swap6\n      pop\n        /* \"contracts/HashRegistrarSimplified.sol\":11583:11587  hash */\n      dup10\n      swap5\n      pop\n        /* \"contracts/HashRegistrarSimplified.sol\":11567:11631  HashInvalidated(hash, unhashedName, h.value, h.registrationDate) */\n      0x1f9c649fe47e58bb60f4e52f0d90e4c47a526c9f90c5113df842c025970b66ad\n      swap4\n      swap2\n      dup2\n      swap1\n      sub\n      swap1\n      swap2\n      add\n      swap2\n      pop\n      log3\n      pop\n      pop\n        /* \"contracts/HashRegistrarSimplified.sol\":11654:11655  0 */\n      0x0\n        /* \"contracts/HashRegistrarSimplified.sol\":11644:11651  h.value */\n      0x2\n      dup3\n      add\n        /* \"contracts/HashRegistrarSimplified.sol\":11644:11655  h.value = 0 */\n      dup2\n      swap1\n      sstore\n        /* \"contracts/HashRegistrarSimplified.sol\":11666:11678  h.highestBid */\n      0x3\n      dup3\n      add\n        /* \"contracts/HashRegistrarSimplified.sol\":11666:11682  h.highestBid = 0 */\n      sstore\n        /* \"contracts/HashRegistrarSimplified.sol\":11693:11709  h.deed = Deed(0) */\n      dup1\n      sload\n      not(sub(exp(0x2, 0xa0), 0x1))\n      and\n      swap1\n      sstore\n      pop\n      pop\n        /* \"contracts/HashRegistrarSimplified.sol\":10951:11717  function invalidateName(string unhashedName) public inState(keccak256(unhashedName), Mode.Owned) {\r... */\n      jump\t// out\n        /* \"contracts/HashRegistrarSimplified.sol\":16286:16448  function shaBid(bytes32 hash, address owner, uint value, bytes32 salt) public pure returns (bytes32) {\r... */\n    tag_36:\n        /* \"contracts/HashRegistrarSimplified.sol\":16405:16440  keccak256(hash, owner, value, salt) */\n      0x40\n      dup1\n      mload\n      swap5\n      dup6\n      mstore\n      sub(exp(0x2, 0xa0), 0x1)\n      swap4\n      swap1\n      swap4\n      and\n      0x1000000000000000000000000\n      mul\n      0x20\n      dup6\n      add\n      mstore\n      0x34\n      dup5\n      add\n      swap2\n      swap1\n      swap2\n      mstore\n      0x54\n      dup4\n      add\n      mstore\n      mload\n      0x74\n      swap2\n      dup2\n      swap1\n      sub\n      swap2\n      swap1\n      swap2\n      add\n      swap1\n      keccak256\n      swap1\n        /* \"contracts/HashRegistrarSimplified.sol\":16286:16448  function shaBid(bytes32 hash, address owner, uint value, bytes32 salt) public pure returns (bytes32) {\r... */\n      jump\t// out\n        /* \"contracts/HashRegistrarSimplified.sol\":7999:8841  function cancelBid(address bidder, bytes32 seal) public {\r... */\n    tag_39:\n      sub(exp(0x2, 0xa0), 0x1)\n        /* \"contracts/HashRegistrarSimplified.sol\":8077:8095  sealedBids[bidder] */\n      dup1\n      dup4\n      and\n        /* \"contracts/HashRegistrarSimplified.sol\":8066:8074  Deed bid */\n      0x0\n        /* \"contracts/HashRegistrarSimplified.sol\":8077:8095  sealedBids[bidder] */\n      swap1\n      dup2\n      mstore\n        /* \"contracts/HashRegistrarSimplified.sol\":8077:8087  sealedBids */\n      0x3\n        /* \"contracts/HashRegistrarSimplified.sol\":8077:8095  sealedBids[bidder] */\n      0x20\n      swap1\n      dup2\n      mstore\n      0x40\n      dup1\n      dup4\n      keccak256\n        /* \"contracts/HashRegistrarSimplified.sol\":8077:8101  sealedBids[bidder][seal] */\n      dup6\n      dup5\n      mstore\n      swap1\n      swap2\n      mstore\n      swap1\n      keccak256\n      sload\n      and\n        /* \"contracts/HashRegistrarSimplified.sol\":8537:8554  address(bid) != 0 */\n      dup1\n      iszero\n      dup1\n      iszero\n      swap1\n        /* \"contracts/HashRegistrarSimplified.sol\":8537:8614  address(bid) != 0 && now >= bid.creationDate() + totalAuctionLength + 2 weeks */\n      tag_145\n      jumpi\n      pop\n        /* \"contracts/HashRegistrarSimplified.sol\":883:889  5 days */\n      0x69780\n        /* \"contracts/HashRegistrarSimplified.sol\":8565:8604  bid.creationDate() + totalAuctionLength */\n      0xffffffff\n      and\n        /* \"contracts/HashRegistrarSimplified.sol\":8565:8568  bid */\n      dup2\n      sub(exp(0x2, 0xa0), 0x1)\n        /* \"contracts/HashRegistrarSimplified.sol\":8565:8581  bid.creationDate */\n      and\n      0x5b34410\n        /* \"contracts/HashRegistrarSimplified.sol\":8565:8583  bid.creationDate() */\n      mload(0x40)\n      dup2\n      0xffffffff\n      and\n      exp(0x2, 0xe0)\n      mul\n      dup2\n      mstore\n      0x4\n      add\n      0x20\n      mload(0x40)\n      dup1\n      dup4\n      sub\n      dup2\n      0x0\n      dup8\n      dup1\n      extcodesize\n      iszero\n        /* \"--CODEGEN--\":8:17   */\n      dup1\n        /* \"--CODEGEN--\":5:7   */\n      iszero\n      tag_146\n      jumpi\n        /* \"--CODEGEN--\":30:31   */\n      0x0\n        /* \"--CODEGEN--\":27:28   */\n      dup1\n        /* \"--CODEGEN--\":20:32   */\n      revert\n        /* \"--CODEGEN--\":5:7   */\n    tag_146:\n        /* \"contracts/HashRegistrarSimplified.sol\":8565:8583  bid.creationDate() */\n      pop\n      gas\n      call\n      iszero\n        /* \"--CODEGEN--\":8:17   */\n      dup1\n        /* \"--CODEGEN--\":5:7   */\n      iszero\n      tag_147\n      jumpi\n        /* \"--CODEGEN--\":45:61   */\n      returndatasize\n        /* \"--CODEGEN--\":42:43   */\n      0x0\n        /* \"--CODEGEN--\":39:40   */\n      dup1\n        /* \"--CODEGEN--\":24:62   */\n      returndatacopy\n        /* \"--CODEGEN--\":77:93   */\n      returndatasize\n        /* \"--CODEGEN--\":74:75   */\n      0x0\n        /* \"--CODEGEN--\":67:94   */\n      revert\n        /* \"--CODEGEN--\":5:7   */\n    tag_147:\n        /* \"contracts/HashRegistrarSimplified.sol\":8565:8583  bid.creationDate() */\n      pop\n      pop\n      pop\n      pop\n      mload(0x40)\n      returndatasize\n        /* \"--CODEGEN--\":13:15   */\n      0x20\n        /* \"--CODEGEN--\":8:11   */\n      dup2\n        /* \"--CODEGEN--\":5:16   */\n      lt\n        /* \"--CODEGEN--\":2:4   */\n      iszero\n      tag_148\n      jumpi\n        /* \"--CODEGEN--\":29:30   */\n      0x0\n        /* \"--CODEGEN--\":26:27   */\n      dup1\n        /* \"--CODEGEN--\":19:31   */\n      revert\n        /* \"--CODEGEN--\":2:4   */\n    tag_148:\n      pop\n        /* \"contracts/HashRegistrarSimplified.sol\":8565:8583  bid.creationDate() */\n      mload\n        /* \"contracts/HashRegistrarSimplified.sol\":8565:8604  bid.creationDate() + totalAuctionLength */\n      add\n        /* \"contracts/HashRegistrarSimplified.sol\":8607:8614  2 weeks */\n      0x127500\n        /* \"contracts/HashRegistrarSimplified.sol\":8565:8614  bid.creationDate() + totalAuctionLength + 2 weeks */\n      add\n        /* \"contracts/HashRegistrarSimplified.sol\":8558:8561  now */\n      timestamp\n        /* \"contracts/HashRegistrarSimplified.sol\":8558:8614  now >= bid.creationDate() + totalAuctionLength + 2 weeks */\n      lt\n      iszero\n        /* \"contracts/HashRegistrarSimplified.sol\":8537:8614  address(bid) != 0 && now >= bid.creationDate() + totalAuctionLength + 2 weeks */\n    tag_145:\n        /* \"contracts/HashRegistrarSimplified.sol\":8529:8615  require(address(bid) != 0 && now >= bid.creationDate() + totalAuctionLength + 2 weeks) */\n      iszero\n      iszero\n      tag_149\n      jumpi\n      0x0\n      dup1\n      revert\n    tag_149:\n        /* \"contracts/HashRegistrarSimplified.sol\":8695:8719  bid.setOwner(msg.sender) */\n      0x40\n      dup1\n      mload\n      0x13af403500000000000000000000000000000000000000000000000000000000\n      dup2\n      mstore\n        /* \"contracts/HashRegistrarSimplified.sol\":8708:8718  msg.sender */\n      caller\n        /* \"contracts/HashRegistrarSimplified.sol\":8695:8719  bid.setOwner(msg.sender) */\n      0x4\n      dup3\n      add\n      mstore\n      swap1\n      mload\n      sub(exp(0x2, 0xa0), 0x1)\n        /* \"contracts/HashRegistrarSimplified.sol\":8695:8707  bid.setOwner */\n      dup4\n      and\n      swap2\n      0x13af4035\n      swap2\n        /* \"contracts/HashRegistrarSimplified.sol\":8695:8719  bid.setOwner(msg.sender) */\n      0x24\n      dup1\n      dup4\n      add\n      swap3\n      0x0\n      swap3\n      swap2\n      swap1\n      dup3\n      swap1\n      sub\n      add\n      dup2\n      dup4\n        /* \"contracts/HashRegistrarSimplified.sol\":8695:8707  bid.setOwner */\n      dup8\n        /* \"contracts/HashRegistrarSimplified.sol\":8695:8719  bid.setOwner(msg.sender) */\n      dup1\n      extcodesize\n      iszero\n        /* \"--CODEGEN--\":5:7   */\n      dup1\n      iszero\n      tag_150\n      jumpi\n        /* \"--CODEGEN--\":30:31   */\n      0x0\n        /* \"--CODEGEN--\":27:28   */\n      dup1\n        /* \"--CODEGEN--\":20:32   */\n      revert\n        /* \"--CODEGEN--\":5:7   */\n    tag_150:\n        /* \"contracts/HashRegistrarSimplified.sol\":8695:8719  bid.setOwner(msg.sender) */\n      pop\n      gas\n      call\n      iszero\n        /* \"--CODEGEN--\":8:17   */\n      dup1\n        /* \"--CODEGEN--\":5:7   */\n      iszero\n      tag_151\n      jumpi\n        /* \"--CODEGEN--\":45:61   */\n      returndatasize\n        /* \"--CODEGEN--\":42:43   */\n      0x0\n        /* \"--CODEGEN--\":39:40   */\n      dup1\n        /* \"--CODEGEN--\":24:62   */\n      returndatacopy\n        /* \"--CODEGEN--\":77:93   */\n      returndatasize\n        /* \"--CODEGEN--\":74:75   */\n      0x0\n        /* \"--CODEGEN--\":67:94   */\n      revert\n        /* \"--CODEGEN--\":5:7   */\n    tag_151:\n        /* \"contracts/HashRegistrarSimplified.sol\":8695:8719  bid.setOwner(msg.sender) */\n      pop\n      pop\n      pop\n      pop\n        /* \"contracts/HashRegistrarSimplified.sol\":8730:8733  bid */\n      dup1\n      sub(exp(0x2, 0xa0), 0x1)\n        /* \"contracts/HashRegistrarSimplified.sol\":8730:8743  bid.closeDeed */\n      and\n      0xbbe42771\n        /* \"contracts/HashRegistrarSimplified.sol\":8744:8745  5 */\n      0x5\n        /* \"contracts/HashRegistrarSimplified.sol\":8730:8746  bid.closeDeed(5) */\n      mload(0x40)\n      dup3\n      0xffffffff\n      and\n      exp(0x2, 0xe0)\n      mul\n      dup2\n      mstore\n      0x4\n      add\n      dup1\n      dup3\n      dup2\n      mstore\n      0x20\n      add\n      swap2\n      pop\n      pop\n      0x0\n      mload(0x40)\n      dup1\n      dup4\n      sub\n      dup2\n      0x0\n      dup8\n      dup1\n      extcodesize\n      iszero\n        /* \"--CODEGEN--\":8:17   */\n      dup1\n        /* \"--CODEGEN--\":5:7   */\n      iszero\n      tag_152\n      jumpi\n        /* \"--CODEGEN--\":30:31   */\n      0x0\n        /* \"--CODEGEN--\":27:28   */\n      dup1\n        /* \"--CODEGEN--\":20:32   */\n      revert\n        /* \"--CODEGEN--\":5:7   */\n    tag_152:\n        /* \"contracts/HashRegistrarSimplified.sol\":8730:8746  bid.closeDeed(5) */\n      pop\n      gas\n      call\n      iszero\n        /* \"--CODEGEN--\":8:17   */\n      dup1\n        /* \"--CODEGEN--\":5:7   */\n      iszero\n      tag_153\n      jumpi\n        /* \"--CODEGEN--\":45:61   */\n      returndatasize\n        /* \"--CODEGEN--\":42:43   */\n      0x0\n        /* \"--CODEGEN--\":39:40   */\n      dup1\n        /* \"--CODEGEN--\":24:62   */\n      returndatacopy\n        /* \"--CODEGEN--\":77:93   */\n      returndatasize\n        /* \"--CODEGEN--\":74:75   */\n      0x0\n        /* \"--CODEGEN--\":67:94   */\n      revert\n        /* \"--CODEGEN--\":5:7   */\n    tag_153:\n      pop\n      pop\n      pop\n      pop\n      sub(exp(0x2, 0xa0), 0x1)\n        /* \"contracts/HashRegistrarSimplified.sol\":8757:8775  sealedBids[bidder] */\n      dup4\n      and\n        /* \"contracts/HashRegistrarSimplified.sol\":8789:8790  0 */\n      0x0\n        /* \"contracts/HashRegistrarSimplified.sol\":8757:8775  sealedBids[bidder] */\n      dup2\n      dup2\n      mstore\n        /* \"contracts/HashRegistrarSimplified.sol\":8757:8767  sealedBids */\n      0x3\n        /* \"contracts/HashRegistrarSimplified.sol\":8757:8775  sealedBids[bidder] */\n      0x20\n      swap1\n      dup2\n      mstore\n      0x40\n      dup1\n      dup4\n      keccak256\n        /* \"contracts/HashRegistrarSimplified.sol\":8757:8781  sealedBids[bidder][seal] */\n      dup7\n      dup5\n      mstore\n      dup3\n      mstore\n      dup1\n      dup4\n      keccak256\n        /* \"contracts/HashRegistrarSimplified.sol\":8757:8791  sealedBids[bidder][seal] = Deed(0) */\n      dup1\n      sload\n      not(sub(exp(0x2, 0xa0), 0x1))\n      and\n      swap1\n      sstore\n        /* \"contracts/HashRegistrarSimplified.sol\":8802:8833  BidRevealed(seal, bidder, 0, 5) */\n      dup1\n      mload\n      swap3\n      dup4\n      mstore\n        /* \"contracts/HashRegistrarSimplified.sol\":8831:8832  5 */\n      0x5\n        /* \"contracts/HashRegistrarSimplified.sol\":8802:8833  BidRevealed(seal, bidder, 0, 5) */\n      swap2\n      dup4\n      add\n      swap2\n      swap1\n      swap2\n      mstore\n      dup1\n      mload\n        /* \"contracts/HashRegistrarSimplified.sol\":8757:8781  sealedBids[bidder][seal] */\n      dup6\n      swap3\n      0x0\n      dup1\n      mload\n      0x20\n      data_99993fb1d97f8559098da9a8f3c0db02c0c0dd21e2f2208f8099175d4cf96c32\n      dup4\n      codecopy\n      dup2\n      mload\n      swap2\n      mstore\n        /* \"contracts/HashRegistrarSimplified.sol\":8802:8833  BidRevealed(seal, bidder, 0, 5) */\n      swap3\n      swap1\n      dup3\n      swap1\n      sub\n      add\n      swap1\n      log3\n        /* \"contracts/HashRegistrarSimplified.sol\":7999:8841  function cancelBid(address bidder, bytes32 seal) public {\r... */\n      pop\n      pop\n      pop\n      jump\t// out\n        /* \"contracts/HashRegistrarSimplified.sol\":14830:15051  function entries(bytes32 _hash) public view returns (Mode, address, uint, uint, uint) {\r... */\n    tag_42:\n        /* \"contracts/HashRegistrarSimplified.sol\":14883:14887  Mode */\n      0x0\n        /* \"contracts/HashRegistrarSimplified.sol\":14945:14960  _entries[_hash] */\n      dup2\n      dup2\n      mstore\n        /* \"contracts/HashRegistrarSimplified.sol\":14945:14953  _entries */\n      0x2\n        /* \"contracts/HashRegistrarSimplified.sol\":14945:14960  _entries[_hash] */\n      0x20\n      mstore\n      0x40\n      dup2\n      keccak256\n        /* \"contracts/HashRegistrarSimplified.sol\":14883:14887  Mode */\n      dup2\n      swap1\n      dup2\n      swap1\n      dup2\n      swap1\n      dup2\n      swap1\n        /* \"contracts/HashRegistrarSimplified.sol\":14979:14991  state(_hash) */\n      tag_155\n        /* \"contracts/HashRegistrarSimplified.sol\":14954:14959  _hash */\n      dup8\n        /* \"contracts/HashRegistrarSimplified.sol\":14979:14984  state */\n      tag_58\n        /* \"contracts/HashRegistrarSimplified.sol\":14979:14991  state(_hash) */\n      jump\t// in\n    tag_155:\n        /* \"contracts/HashRegistrarSimplified.sol\":14993:14999  h.deed */\n      dup2\n      sload\n      0x1\n        /* \"contracts/HashRegistrarSimplified.sol\":15001:15019  h.registrationDate */\n      dup4\n      add\n      sload\n        /* \"contracts/HashRegistrarSimplified.sol\":15021:15028  h.value */\n      0x2\n      dup5\n      add\n      sload\n        /* \"contracts/HashRegistrarSimplified.sol\":15030:15042  h.highestBid */\n      0x3\n      swap1\n      swap5\n      add\n      sload\n        /* \"contracts/HashRegistrarSimplified.sol\":14971:15043  return (state(_hash), h.deed, h.registrationDate, h.value, h.highestBid) */\n      swap3\n      swap11\n      sub(exp(0x2, 0xa0), 0x1)\n        /* \"contracts/HashRegistrarSimplified.sol\":14993:14999  h.deed */\n      swap1\n      swap3\n      and\n      swap10\n      pop\n        /* \"contracts/HashRegistrarSimplified.sol\":15001:15019  h.registrationDate */\n      swap8\n      pop\n        /* \"contracts/HashRegistrarSimplified.sol\":15021:15028  h.value */\n      swap2\n      swap6\n      pop\n        /* \"contracts/HashRegistrarSimplified.sol\":15030:15042  h.highestBid */\n      swap4\n      pop\n        /* \"contracts/HashRegistrarSimplified.sol\":14830:15051  function entries(bytes32 _hash) public view returns (Mode, address, uint, uint, uint) {\r... */\n      swap2\n      pop\n      pop\n      jump\t// out\n        /* \"contracts/HashRegistrarSimplified.sol\":596:610  ENS public ens */\n    tag_46:\n      and(sub(exp(0x2, 0xa0), 0x1), sload(0x0))\n      dup2\n      jump\t// out\n        /* \"contracts/HashRegistrarSimplified.sol\":5917:7877  function unsealBid(bytes32 _hash, uint _value, bytes32 _salt) public {\r... */\n    tag_49:\n        /* \"contracts/HashRegistrarSimplified.sol\":5997:6009  bytes32 seal */\n      0x0\n        /* \"contracts/HashRegistrarSimplified.sol\":6063:6071  Deed bid */\n      dup1\n        /* \"contracts/HashRegistrarSimplified.sol\":6201:6216  Entry storage h */\n      0x0\n        /* \"contracts/HashRegistrarSimplified.sol\":6245:6255  uint value */\n      dup1\n        /* \"contracts/HashRegistrarSimplified.sol\":6333:6349  var auctionState */\n      0x0\n        /* \"contracts/HashRegistrarSimplified.sol\":7085:7104  Deed previousWinner */\n      dup1\n        /* \"contracts/HashRegistrarSimplified.sol\":6012:6052  shaBid(_hash, msg.sender, _value, _salt) */\n      tag_157\n        /* \"contracts/HashRegistrarSimplified.sol\":6019:6024  _hash */\n      dup10\n        /* \"contracts/HashRegistrarSimplified.sol\":6026:6036  msg.sender */\n      caller\n        /* \"contracts/HashRegistrarSimplified.sol\":6038:6044  _value */\n      dup11\n        /* \"contracts/HashRegistrarSimplified.sol\":6046:6051  _salt */\n      dup11\n        /* \"contracts/HashRegistrarSimplified.sol\":6012:6018  shaBid */\n      tag_36\n        /* \"contracts/HashRegistrarSimplified.sol\":6012:6052  shaBid(_hash, msg.sender, _value, _salt) */\n      jump\t// in\n    tag_157:\n        /* \"contracts/HashRegistrarSimplified.sol\":6085:6095  msg.sender */\n      caller\n        /* \"contracts/HashRegistrarSimplified.sol\":6074:6096  sealedBids[msg.sender] */\n      0x0\n      swap1\n      dup2\n      mstore\n        /* \"contracts/HashRegistrarSimplified.sol\":6074:6084  sealedBids */\n      0x3\n        /* \"contracts/HashRegistrarSimplified.sol\":6074:6096  sealedBids[msg.sender] */\n      0x20\n      swap1\n      dup2\n      mstore\n      0x40\n      dup1\n      dup4\n      keccak256\n        /* \"contracts/HashRegistrarSimplified.sol\":6074:6102  sealedBids[msg.sender][seal] */\n      dup5\n      dup5\n      mstore\n      swap1\n      swap2\n      mstore\n      swap1\n      keccak256\n      sload\n        /* \"contracts/HashRegistrarSimplified.sol\":5997:6052  bytes32 seal = shaBid(_hash, msg.sender, _value, _salt) */\n      swap1\n      swap7\n      pop\n      sub(exp(0x2, 0xa0), 0x1)\n        /* \"contracts/HashRegistrarSimplified.sol\":6074:6102  sealedBids[msg.sender][seal] */\n      and\n      swap5\n      pop\n        /* \"contracts/HashRegistrarSimplified.sol\":6121:6138  address(bid) != 0 */\n      dup5\n      iszero\n      iszero\n        /* \"contracts/HashRegistrarSimplified.sol\":6113:6139  require(address(bid) != 0) */\n      tag_158\n      jumpi\n      0x0\n      dup1\n      revert\n    tag_158:\n        /* \"contracts/HashRegistrarSimplified.sol\":6163:6173  msg.sender */\n      caller\n        /* \"contracts/HashRegistrarSimplified.sol\":6188:6189  0 */\n      0x0\n        /* \"contracts/HashRegistrarSimplified.sol\":6152:6174  sealedBids[msg.sender] */\n      swap1\n      dup2\n      mstore\n        /* \"contracts/HashRegistrarSimplified.sol\":6152:6162  sealedBids */\n      0x3\n        /* \"contracts/HashRegistrarSimplified.sol\":6152:6174  sealedBids[msg.sender] */\n      0x20\n      swap1\n      dup2\n      mstore\n      0x40\n      dup1\n      dup4\n      keccak256\n        /* \"contracts/HashRegistrarSimplified.sol\":6152:6180  sealedBids[msg.sender][seal] */\n      dup10\n      dup5\n      mstore\n      dup3\n      mstore\n      dup1\n      dup4\n      keccak256\n        /* \"contracts/HashRegistrarSimplified.sol\":6152:6190  sealedBids[msg.sender][seal] = Deed(0) */\n      dup1\n      sload\n      not(sub(exp(0x2, 0xa0), 0x1))\n      and\n      swap1\n      sstore\n        /* \"contracts/HashRegistrarSimplified.sol\":6219:6234  _entries[_hash] */\n      dup12\n      dup4\n      mstore\n        /* \"contracts/HashRegistrarSimplified.sol\":6219:6227  _entries */\n      0x2\n        /* \"contracts/HashRegistrarSimplified.sol\":6219:6234  _entries[_hash] */\n      dup3\n      mstore\n      dup1\n      dup4\n      keccak256\n        /* \"contracts/HashRegistrarSimplified.sol\":6270:6281  bid.value() */\n      dup2\n      mload\n      0x3fa4f24500000000000000000000000000000000000000000000000000000000\n      dup2\n      mstore\n      swap2\n      mload\n        /* \"contracts/HashRegistrarSimplified.sol\":6219:6234  _entries[_hash] */\n      swap1\n      swap8\n      pop\n        /* \"contracts/HashRegistrarSimplified.sol\":6258:6282  min(_value, bid.value()) */\n      tag_159\n      swap4\n        /* \"contracts/HashRegistrarSimplified.sol\":6262:6268  _value */\n      dup13\n      swap4\n      sub(exp(0x2, 0xa0), 0x1)\n        /* \"contracts/HashRegistrarSimplified.sol\":6270:6279  bid.value */\n      dup12\n      and\n      swap4\n      0x3fa4f245\n      swap4\n        /* \"contracts/HashRegistrarSimplified.sol\":6270:6281  bid.value() */\n      0x4\n      dup1\n      dup4\n      add\n      swap5\n      swap2\n      swap3\n      dup4\n      swap1\n      sub\n      add\n      swap1\n      dup3\n      swap1\n        /* \"contracts/HashRegistrarSimplified.sol\":6270:6279  bid.value */\n      dup8\n        /* \"contracts/HashRegistrarSimplified.sol\":6270:6281  bid.value() */\n      dup1\n      extcodesize\n      iszero\n        /* \"--CODEGEN--\":5:7   */\n      dup1\n      iszero\n      tag_160\n      jumpi\n        /* \"--CODEGEN--\":30:31   */\n      0x0\n        /* \"--CODEGEN--\":27:28   */\n      dup1\n        /* \"--CODEGEN--\":20:32   */\n      revert\n        /* \"--CODEGEN--\":5:7   */\n    tag_160:\n        /* \"contracts/HashRegistrarSimplified.sol\":6270:6281  bid.value() */\n      pop\n      gas\n      call\n      iszero\n        /* \"--CODEGEN--\":8:17   */\n      dup1\n        /* \"--CODEGEN--\":5:7   */\n      iszero\n      tag_161\n      jumpi\n        /* \"--CODEGEN--\":45:61   */\n      returndatasize\n        /* \"--CODEGEN--\":42:43   */\n      0x0\n        /* \"--CODEGEN--\":39:40   */\n      dup1\n        /* \"--CODEGEN--\":24:62   */\n      returndatacopy\n        /* \"--CODEGEN--\":77:93   */\n      returndatasize\n        /* \"--CODEGEN--\":74:75   */\n      0x0\n        /* \"--CODEGEN--\":67:94   */\n      revert\n        /* \"--CODEGEN--\":5:7   */\n    tag_161:\n        /* \"contracts/HashRegistrarSimplified.sol\":6270:6281  bid.value() */\n      pop\n      pop\n      pop\n      pop\n      mload(0x40)\n      returndatasize\n        /* \"--CODEGEN--\":13:15   */\n      0x20\n        /* \"--CODEGEN--\":8:11   */\n      dup2\n        /* \"--CODEGEN--\":5:16   */\n      lt\n        /* \"--CODEGEN--\":2:4   */\n      iszero\n      tag_162\n      jumpi\n        /* \"--CODEGEN--\":29:30   */\n      0x0\n        /* \"--CODEGEN--\":26:27   */\n      dup1\n        /* \"--CODEGEN--\":19:31   */\n      revert\n        /* \"--CODEGEN--\":2:4   */\n    tag_162:\n      pop\n        /* \"contracts/HashRegistrarSimplified.sol\":6270:6281  bid.value() */\n      mload\n        /* \"contracts/HashRegistrarSimplified.sol\":6258:6261  min */\n      tag_163\n        /* \"contracts/HashRegistrarSimplified.sol\":6258:6282  min(_value, bid.value()) */\n      jump\t// in\n    tag_159:\n        /* \"contracts/HashRegistrarSimplified.sol\":6293:6320  bid.setBalance(value, true) */\n      0x40\n      dup1\n      mload\n      0xb0c8097200000000000000000000000000000000000000000000000000000000\n      dup2\n      mstore\n      0x4\n      dup2\n      add\n      dup4\n      swap1\n      mstore\n        /* \"contracts/HashRegistrarSimplified.sol\":6315:6319  true */\n      0x1\n        /* \"contracts/HashRegistrarSimplified.sol\":6293:6320  bid.setBalance(value, true) */\n      0x24\n      dup3\n      add\n      mstore\n      swap1\n      mload\n        /* \"contracts/HashRegistrarSimplified.sol\":6245:6282  uint value = min(_value, bid.value()) */\n      swap2\n      swap5\n      pop\n      sub(exp(0x2, 0xa0), 0x1)\n        /* \"contracts/HashRegistrarSimplified.sol\":6293:6307  bid.setBalance */\n      dup8\n      and\n      swap2\n      0xb0c80972\n      swap2\n        /* \"contracts/HashRegistrarSimplified.sol\":6293:6320  bid.setBalance(value, true) */\n      0x44\n      dup1\n      dup3\n      add\n      swap3\n      0x0\n      swap3\n      swap1\n      swap2\n      swap1\n      dup3\n      swap1\n      sub\n      add\n      dup2\n      dup4\n        /* \"contracts/HashRegistrarSimplified.sol\":6293:6307  bid.setBalance */\n      dup8\n        /* \"contracts/HashRegistrarSimplified.sol\":6293:6320  bid.setBalance(value, true) */\n      dup1\n      extcodesize\n      iszero\n        /* \"--CODEGEN--\":5:7   */\n      dup1\n      iszero\n      tag_164\n      jumpi\n        /* \"--CODEGEN--\":30:31   */\n      0x0\n        /* \"--CODEGEN--\":27:28   */\n      dup1\n        /* \"--CODEGEN--\":20:32   */\n      revert\n        /* \"--CODEGEN--\":5:7   */\n    tag_164:\n        /* \"contracts/HashRegistrarSimplified.sol\":6293:6320  bid.setBalance(value, true) */\n      pop\n      gas\n      call\n      iszero\n        /* \"--CODEGEN--\":8:17   */\n      dup1\n        /* \"--CODEGEN--\":5:7   */\n      iszero\n      tag_165\n      jumpi\n        /* \"--CODEGEN--\":45:61   */\n      returndatasize\n        /* \"--CODEGEN--\":42:43   */\n      0x0\n        /* \"--CODEGEN--\":39:40   */\n      dup1\n        /* \"--CODEGEN--\":24:62   */\n      returndatacopy\n        /* \"--CODEGEN--\":77:93   */\n      returndatasize\n        /* \"--CODEGEN--\":74:75   */\n      0x0\n        /* \"--CODEGEN--\":67:94   */\n      revert\n        /* \"--CODEGEN--\":5:7   */\n    tag_165:\n        /* \"contracts/HashRegistrarSimplified.sol\":6293:6320  bid.setBalance(value, true) */\n      pop\n      pop\n      pop\n      pop\n        /* \"contracts/HashRegistrarSimplified.sol\":6352:6364  state(_hash) */\n      tag_166\n        /* \"contracts/HashRegistrarSimplified.sol\":6358:6363  _hash */\n      dup10\n        /* \"contracts/HashRegistrarSimplified.sol\":6352:6357  state */\n      tag_58\n        /* \"contracts/HashRegistrarSimplified.sol\":6352:6364  state(_hash) */\n      jump\t// in\n    tag_166:\n        /* \"contracts/HashRegistrarSimplified.sol\":6333:6364  var auctionState = state(_hash) */\n      swap2\n      pop\n        /* \"contracts/HashRegistrarSimplified.sol\":6395:6405  Mode.Owned */\n      0x2\n        /* \"contracts/HashRegistrarSimplified.sol\":6379:6391  auctionState */\n      dup3\n        /* \"contracts/HashRegistrarSimplified.sol\":6379:6405  auctionState == Mode.Owned */\n      0x5\n      dup2\n      gt\n      iszero\n      tag_168\n      jumpi\n      invalid\n    tag_168:\n      eq\n        /* \"contracts/HashRegistrarSimplified.sol\":6375:7870  if (auctionState == Mode.Owned) {\r... */\n      iszero\n      tag_169\n      jumpi\n        /* \"contracts/HashRegistrarSimplified.sol\":6488:6491  bid */\n      dup5\n      sub(exp(0x2, 0xa0), 0x1)\n        /* \"contracts/HashRegistrarSimplified.sol\":6488:6501  bid.closeDeed */\n      and\n      0xbbe42771\n        /* \"contracts/HashRegistrarSimplified.sol\":6502:6503  5 */\n      0x5\n        /* \"contracts/HashRegistrarSimplified.sol\":6488:6504  bid.closeDeed(5) */\n      mload(0x40)\n      dup3\n      0xffffffff\n      and\n      exp(0x2, 0xe0)\n      mul\n      dup2\n      mstore\n      0x4\n      add\n      dup1\n      dup3\n      dup2\n      mstore\n      0x20\n      add\n      swap2\n      pop\n      pop\n      0x0\n      mload(0x40)\n      dup1\n      dup4\n      sub\n      dup2\n      0x0\n      dup8\n      dup1\n      extcodesize\n      iszero\n        /* \"--CODEGEN--\":8:17   */\n      dup1\n        /* \"--CODEGEN--\":5:7   */\n      iszero\n      tag_170\n      jumpi\n        /* \"--CODEGEN--\":30:31   */\n      0x0\n        /* \"--CODEGEN--\":27:28   */\n      dup1\n        /* \"--CODEGEN--\":20:32   */\n      revert\n        /* \"--CODEGEN--\":5:7   */\n    tag_170:\n        /* \"contracts/HashRegistrarSimplified.sol\":6488:6504  bid.closeDeed(5) */\n      pop\n      gas\n      call\n      iszero\n        /* \"--CODEGEN--\":8:17   */\n      dup1\n        /* \"--CODEGEN--\":5:7   */\n      iszero\n      tag_171\n      jumpi\n        /* \"--CODEGEN--\":45:61   */\n      returndatasize\n        /* \"--CODEGEN--\":42:43   */\n      0x0\n        /* \"--CODEGEN--\":39:40   */\n      dup1\n        /* \"--CODEGEN--\":24:62   */\n      returndatacopy\n        /* \"--CODEGEN--\":77:93   */\n      returndatasize\n        /* \"--CODEGEN--\":74:75   */\n      0x0\n        /* \"--CODEGEN--\":67:94   */\n      revert\n        /* \"--CODEGEN--\":5:7   */\n    tag_171:\n      pop\n      pop\n        /* \"contracts/HashRegistrarSimplified.sol\":6519:6559  BidRevealed(_hash, msg.sender, value, 1) */\n      0x40\n      dup1\n      mload\n      dup7\n      dup2\n      mstore\n        /* \"contracts/HashRegistrarSimplified.sol\":6557:6558  1 */\n      0x1\n        /* \"contracts/HashRegistrarSimplified.sol\":6519:6559  BidRevealed(_hash, msg.sender, value, 1) */\n      0x20\n      dup3\n      add\n      mstore\n      dup2\n      mload\n        /* \"contracts/HashRegistrarSimplified.sol\":6538:6548  msg.sender */\n      caller\n      swap5\n      pop\n        /* \"contracts/HashRegistrarSimplified.sol\":6531:6536  _hash */\n      dup14\n      swap4\n      pop\n      0x0\n      dup1\n      mload\n      0x20\n      data_99993fb1d97f8559098da9a8f3c0db02c0c0dd21e2f2208f8099175d4cf96c32\n      dup4\n      codecopy\n      dup2\n      mload\n      swap2\n      mstore\n        /* \"contracts/HashRegistrarSimplified.sol\":6519:6559  BidRevealed(_hash, msg.sender, value, 1) */\n      swap3\n      swap2\n      dup2\n      swap1\n      sub\n      swap1\n      swap2\n      add\n      swap1\n      log3\n        /* \"contracts/HashRegistrarSimplified.sol\":6375:7870  if (auctionState == Mode.Owned) {\r... */\n      jump(tag_193)\n    tag_169:\n        /* \"contracts/HashRegistrarSimplified.sol\":6597:6608  Mode.Reveal */\n      0x4\n        /* \"contracts/HashRegistrarSimplified.sol\":6581:6593  auctionState */\n      dup3\n        /* \"contracts/HashRegistrarSimplified.sol\":6581:6608  auctionState != Mode.Reveal */\n      0x5\n      dup2\n      gt\n      iszero\n      tag_174\n      jumpi\n      invalid\n    tag_174:\n      eq\n        /* \"contracts/HashRegistrarSimplified.sol\":6577:7870  if (auctionState != Mode.Reveal) {\r... */\n      tag_175\n      jumpi\n        /* \"contracts/HashRegistrarSimplified.sol\":6655:6663  revert() */\n      0x0\n      dup1\n      revert\n        /* \"contracts/HashRegistrarSimplified.sol\":6577:7870  if (auctionState != Mode.Reveal) {\r... */\n    tag_175:\n        /* \"contracts/HashRegistrarSimplified.sol\":1021:1031  0.01 ether */\n      0x2386f26fc10000\n        /* \"contracts/HashRegistrarSimplified.sol\":6685:6690  value */\n      dup4\n        /* \"contracts/HashRegistrarSimplified.sol\":6685:6701  value < minPrice */\n      lt\n        /* \"contracts/HashRegistrarSimplified.sol\":6685:6759  value < minPrice || bid.creationDate() > h.registrationDate - revealPeriod */\n      dup1\n      tag_177\n      jumpi\n      pop\n        /* \"contracts/HashRegistrarSimplified.sol\":927:935  48 hours */\n      0x2a300\n        /* \"contracts/HashRegistrarSimplified.sol\":6726:6759  h.registrationDate - revealPeriod */\n      0xffffffff\n      and\n        /* \"contracts/HashRegistrarSimplified.sol\":6726:6727  h */\n      dup5\n        /* \"contracts/HashRegistrarSimplified.sol\":6726:6744  h.registrationDate */\n      0x1\n      add\n      sload\n        /* \"contracts/HashRegistrarSimplified.sol\":6726:6759  h.registrationDate - revealPeriod */\n      sub\n        /* \"contracts/HashRegistrarSimplified.sol\":6705:6708  bid */\n      dup6\n      sub(exp(0x2, 0xa0), 0x1)\n        /* \"contracts/HashRegistrarSimplified.sol\":6705:6721  bid.creationDate */\n      and\n      0x5b34410\n        /* \"contracts/HashRegistrarSimplified.sol\":6705:6723  bid.creationDate() */\n      mload(0x40)\n      dup2\n      0xffffffff\n      and\n      exp(0x2, 0xe0)\n      mul\n      dup2\n      mstore\n      0x4\n      add\n      0x20\n      mload(0x40)\n      dup1\n      dup4\n      sub\n      dup2\n      0x0\n      dup8\n      dup1\n      extcodesize\n      iszero\n        /* \"--CODEGEN--\":8:17   */\n      dup1\n        /* \"--CODEGEN--\":5:7   */\n      iszero\n      tag_178\n      jumpi\n        /* \"--CODEGEN--\":30:31   */\n      0x0\n        /* \"--CODEGEN--\":27:28   */\n      dup1\n        /* \"--CODEGEN--\":20:32   */\n      revert\n        /* \"--CODEGEN--\":5:7   */\n    tag_178:\n        /* \"contracts/HashRegistrarSimplified.sol\":6705:6723  bid.creationDate() */\n      pop\n      gas\n      call\n      iszero\n        /* \"--CODEGEN--\":8:17   */\n      dup1\n        /* \"--CODEGEN--\":5:7   */\n      iszero\n      tag_179\n      jumpi\n        /* \"--CODEGEN--\":45:61   */\n      returndatasize\n        /* \"--CODEGEN--\":42:43   */\n      0x0\n        /* \"--CODEGEN--\":39:40   */\n      dup1\n        /* \"--CODEGEN--\":24:62   */\n      returndatacopy\n        /* \"--CODEGEN--\":77:93   */\n      returndatasize\n        /* \"--CODEGEN--\":74:75   */\n      0x0\n        /* \"--CODEGEN--\":67:94   */\n      revert\n        /* \"--CODEGEN--\":5:7   */\n    tag_179:\n        /* \"contracts/HashRegistrarSimplified.sol\":6705:6723  bid.creationDate() */\n      pop\n      pop\n      pop\n      pop\n      mload(0x40)\n      returndatasize\n        /* \"--CODEGEN--\":13:15   */\n      0x20\n        /* \"--CODEGEN--\":8:11   */\n      dup2\n        /* \"--CODEGEN--\":5:16   */\n      lt\n        /* \"--CODEGEN--\":2:4   */\n      iszero\n      tag_180\n      jumpi\n        /* \"--CODEGEN--\":29:30   */\n      0x0\n        /* \"--CODEGEN--\":26:27   */\n      dup1\n        /* \"--CODEGEN--\":19:31   */\n      revert\n        /* \"--CODEGEN--\":2:4   */\n    tag_180:\n      pop\n        /* \"contracts/HashRegistrarSimplified.sol\":6705:6723  bid.creationDate() */\n      mload\n        /* \"contracts/HashRegistrarSimplified.sol\":6705:6759  bid.creationDate() > h.registrationDate - revealPeriod */\n      gt\n        /* \"contracts/HashRegistrarSimplified.sol\":6685:6759  value < minPrice || bid.creationDate() > h.registrationDate - revealPeriod */\n    tag_177:\n        /* \"contracts/HashRegistrarSimplified.sol\":6681:7870  if (value < minPrice || bid.creationDate() > h.registrationDate - revealPeriod) {\r... */\n      iszero\n      tag_181\n      jumpi\n        /* \"contracts/HashRegistrarSimplified.sol\":6830:6833  bid */\n      dup5\n      sub(exp(0x2, 0xa0), 0x1)\n        /* \"contracts/HashRegistrarSimplified.sol\":6830:6843  bid.closeDeed */\n      and\n      0xbbe42771\n        /* \"contracts/HashRegistrarSimplified.sol\":6844:6847  995 */\n      0x3e3\n        /* \"contracts/HashRegistrarSimplified.sol\":6830:6848  bid.closeDeed(995) */\n      mload(0x40)\n      dup3\n      0xffffffff\n      and\n      exp(0x2, 0xe0)\n      mul\n      dup2\n      mstore\n      0x4\n      add\n      dup1\n      dup3\n      dup2\n      mstore\n      0x20\n      add\n      swap2\n      pop\n      pop\n      0x0\n      mload(0x40)\n      dup1\n      dup4\n      sub\n      dup2\n      0x0\n      dup8\n      dup1\n      extcodesize\n      iszero\n        /* \"--CODEGEN--\":8:17   */\n      dup1\n        /* \"--CODEGEN--\":5:7   */\n      iszero\n      tag_182\n      jumpi\n        /* \"--CODEGEN--\":30:31   */\n      0x0\n        /* \"--CODEGEN--\":27:28   */\n      dup1\n        /* \"--CODEGEN--\":20:32   */\n      revert\n        /* \"--CODEGEN--\":5:7   */\n    tag_182:\n        /* \"contracts/HashRegistrarSimplified.sol\":6830:6848  bid.closeDeed(995) */\n      pop\n      gas\n      call\n      iszero\n        /* \"--CODEGEN--\":8:17   */\n      dup1\n        /* \"--CODEGEN--\":5:7   */\n      iszero\n      tag_183\n      jumpi\n        /* \"--CODEGEN--\":45:61   */\n      returndatasize\n        /* \"--CODEGEN--\":42:43   */\n      0x0\n        /* \"--CODEGEN--\":39:40   */\n      dup1\n        /* \"--CODEGEN--\":24:62   */\n      returndatacopy\n        /* \"--CODEGEN--\":77:93   */\n      returndatasize\n        /* \"--CODEGEN--\":74:75   */\n      0x0\n        /* \"--CODEGEN--\":67:94   */\n      revert\n        /* \"--CODEGEN--\":5:7   */\n    tag_183:\n      pop\n      pop\n        /* \"contracts/HashRegistrarSimplified.sol\":6863:6903  BidRevealed(_hash, msg.sender, value, 0) */\n      0x40\n      dup1\n      mload\n      dup7\n      dup2\n      mstore\n      0x0\n      0x20\n      dup3\n      add\n      mstore\n      dup2\n      mload\n        /* \"contracts/HashRegistrarSimplified.sol\":6882:6892  msg.sender */\n      caller\n      swap5\n      pop\n        /* \"contracts/HashRegistrarSimplified.sol\":6875:6880  _hash */\n      dup14\n      swap4\n      pop\n      0x0\n      dup1\n      mload\n      0x20\n      data_99993fb1d97f8559098da9a8f3c0db02c0c0dd21e2f2208f8099175d4cf96c32\n      dup4\n      codecopy\n      dup2\n      mload\n      swap2\n      mstore\n        /* \"contracts/HashRegistrarSimplified.sol\":6863:6903  BidRevealed(_hash, msg.sender, value, 0) */\n      swap3\n      swap2\n      dup2\n      swap1\n      sub\n      swap1\n      swap2\n      add\n      swap1\n      log3\n        /* \"contracts/HashRegistrarSimplified.sol\":6681:7870  if (value < minPrice || bid.creationDate() > h.registrationDate - revealPeriod) {\r... */\n      jump(tag_193)\n    tag_181:\n        /* \"contracts/HashRegistrarSimplified.sol\":6933:6934  h */\n      dup4\n        /* \"contracts/HashRegistrarSimplified.sol\":6933:6945  h.highestBid */\n      0x3\n      add\n      sload\n        /* \"contracts/HashRegistrarSimplified.sol\":6925:6930  value */\n      dup4\n        /* \"contracts/HashRegistrarSimplified.sol\":6925:6945  value > h.highestBid */\n      gt\n        /* \"contracts/HashRegistrarSimplified.sol\":6921:7870  if (value > h.highestBid) {\r... */\n      iszero\n      tag_185\n      jumpi\n        /* \"contracts/HashRegistrarSimplified.sol\":7052:7058  h.deed */\n      dup4\n      sload\n      sub(exp(0x2, 0xa0), 0x1)\n      and\n        /* \"contracts/HashRegistrarSimplified.sol\":7044:7064  address(h.deed) != 0 */\n      iszero\n        /* \"contracts/HashRegistrarSimplified.sol\":7040:7177  if (address(h.deed) != 0) {\r... */\n      tag_186\n      jumpi\n      pop\n        /* \"contracts/HashRegistrarSimplified.sol\":7107:7113  h.deed */\n      dup3\n      sload\n        /* \"contracts/HashRegistrarSimplified.sol\":7132:7161  previousWinner.closeDeed(995) */\n      0x40\n      dup1\n      mload\n      0xbbe4277100000000000000000000000000000000000000000000000000000000\n      dup2\n      mstore\n        /* \"contracts/HashRegistrarSimplified.sol\":7157:7160  995 */\n      0x3e3\n        /* \"contracts/HashRegistrarSimplified.sol\":7132:7161  previousWinner.closeDeed(995) */\n      0x4\n      dup3\n      add\n      mstore\n      swap1\n      mload\n      sub(exp(0x2, 0xa0), 0x1)\n        /* \"contracts/HashRegistrarSimplified.sol\":7107:7113  h.deed */\n      swap1\n      swap3\n      and\n      swap2\n      dup3\n      swap2\n        /* \"contracts/HashRegistrarSimplified.sol\":7132:7156  previousWinner.closeDeed */\n      0xbbe42771\n      swap2\n        /* \"contracts/HashRegistrarSimplified.sol\":7132:7161  previousWinner.closeDeed(995) */\n      0x24\n      dup1\n      dup4\n      add\n      swap3\n        /* \"contracts/HashRegistrarSimplified.sol\":7107:7113  h.deed */\n      0x0\n      swap3\n        /* \"contracts/HashRegistrarSimplified.sol\":7132:7161  previousWinner.closeDeed(995) */\n      swap2\n      swap1\n      dup3\n      swap1\n      sub\n      add\n      dup2\n        /* \"contracts/HashRegistrarSimplified.sol\":7107:7113  h.deed */\n      dup4\n      dup8\n        /* \"contracts/HashRegistrarSimplified.sol\":7132:7161  previousWinner.closeDeed(995) */\n      dup1\n      extcodesize\n      iszero\n        /* \"--CODEGEN--\":5:7   */\n      dup1\n      iszero\n      tag_187\n      jumpi\n        /* \"--CODEGEN--\":30:31   */\n      0x0\n        /* \"--CODEGEN--\":27:28   */\n      dup1\n        /* \"--CODEGEN--\":20:32   */\n      revert\n        /* \"--CODEGEN--\":5:7   */\n    tag_187:\n        /* \"contracts/HashRegistrarSimplified.sol\":7132:7161  previousWinner.closeDeed(995) */\n      pop\n      gas\n      call\n      iszero\n        /* \"--CODEGEN--\":8:17   */\n      dup1\n        /* \"--CODEGEN--\":5:7   */\n      iszero\n      tag_188\n      jumpi\n        /* \"--CODEGEN--\":45:61   */\n      returndatasize\n        /* \"--CODEGEN--\":42:43   */\n      0x0\n        /* \"--CODEGEN--\":39:40   */\n      dup1\n        /* \"--CODEGEN--\":24:62   */\n      returndatacopy\n        /* \"--CODEGEN--\":77:93   */\n      returndatasize\n        /* \"--CODEGEN--\":74:75   */\n      0x0\n        /* \"--CODEGEN--\":67:94   */\n      revert\n        /* \"--CODEGEN--\":5:7   */\n    tag_188:\n        /* \"contracts/HashRegistrarSimplified.sol\":7132:7161  previousWinner.closeDeed(995) */\n      pop\n      pop\n      pop\n      pop\n        /* \"contracts/HashRegistrarSimplified.sol\":7040:7177  if (address(h.deed) != 0) {\r... */\n    tag_186:\n        /* \"contracts/HashRegistrarSimplified.sol\":7328:7340  h.highestBid */\n      0x3\n      dup5\n      add\n      dup1\n      sload\n        /* \"contracts/HashRegistrarSimplified.sol\":7318:7325  h.value */\n      0x2\n      dup1\n      dup8\n      add\n        /* \"contracts/HashRegistrarSimplified.sol\":7318:7340  h.value = h.highestBid */\n      swap2\n      swap1\n      swap2\n      sstore\n        /* \"contracts/HashRegistrarSimplified.sol\":7397:7417  h.highestBid = value */\n      swap1\n      dup5\n      swap1\n      sstore\n        /* \"contracts/HashRegistrarSimplified.sol\":7432:7444  h.deed = bid */\n      dup5\n      sload\n      not(sub(exp(0x2, 0xa0), 0x1))\n      and\n      sub(exp(0x2, 0xa0), 0x1)\n      dup8\n      and\n      or\n      dup6\n      sstore\n        /* \"contracts/HashRegistrarSimplified.sol\":7459:7499  BidRevealed(_hash, msg.sender, value, 2) */\n      0x40\n      dup1\n      mload\n      dup6\n      dup2\n      mstore\n      0x20\n      dup2\n      add\n      swap3\n      swap1\n      swap3\n      mstore\n      dup1\n      mload\n        /* \"contracts/HashRegistrarSimplified.sol\":7478:7488  msg.sender */\n      caller\n      swap3\n        /* \"contracts/HashRegistrarSimplified.sol\":7471:7476  _hash */\n      dup13\n      swap3\n      0x0\n      dup1\n      mload\n      0x20\n      data_99993fb1d97f8559098da9a8f3c0db02c0c0dd21e2f2208f8099175d4cf96c32\n      dup4\n      codecopy\n      dup2\n      mload\n      swap2\n      mstore\n        /* \"contracts/HashRegistrarSimplified.sol\":7459:7499  BidRevealed(_hash, msg.sender, value, 2) */\n      swap3\n      swap2\n      dup3\n      swap1\n      sub\n      add\n      swap1\n      log3\n        /* \"contracts/HashRegistrarSimplified.sol\":6921:7870  if (value > h.highestBid) {\r... */\n      jump(tag_193)\n    tag_185:\n        /* \"contracts/HashRegistrarSimplified.sol\":7529:7530  h */\n      dup4\n        /* \"contracts/HashRegistrarSimplified.sol\":7529:7536  h.value */\n      0x2\n      add\n      sload\n        /* \"contracts/HashRegistrarSimplified.sol\":7521:7526  value */\n      dup4\n        /* \"contracts/HashRegistrarSimplified.sol\":7521:7536  value > h.value */\n      gt\n        /* \"contracts/HashRegistrarSimplified.sol\":7517:7870  if (value > h.value) {\r... */\n      iszero\n      tag_190\n      jumpi\n        /* \"contracts/HashRegistrarSimplified.sol\":7606:7613  h.value */\n      0x2\n      dup5\n      add\n        /* \"contracts/HashRegistrarSimplified.sol\":7606:7621  h.value = value */\n      dup4\n      swap1\n      sstore\n        /* \"contracts/HashRegistrarSimplified.sol\":7636:7654  bid.closeDeed(995) */\n      0x40\n      dup1\n      mload\n      0xbbe4277100000000000000000000000000000000000000000000000000000000\n      dup2\n      mstore\n        /* \"contracts/HashRegistrarSimplified.sol\":7650:7653  995 */\n      0x3e3\n        /* \"contracts/HashRegistrarSimplified.sol\":7636:7654  bid.closeDeed(995) */\n      0x4\n      dup3\n      add\n      mstore\n      swap1\n      mload\n      sub(exp(0x2, 0xa0), 0x1)\n        /* \"contracts/HashRegistrarSimplified.sol\":7636:7649  bid.closeDeed */\n      dup8\n      and\n      swap2\n      0xbbe42771\n      swap2\n        /* \"contracts/HashRegistrarSimplified.sol\":7636:7654  bid.closeDeed(995) */\n      0x24\n      dup1\n      dup4\n      add\n      swap3\n      0x0\n      swap3\n      swap2\n      swap1\n      dup3\n      swap1\n      sub\n      add\n      dup2\n      dup4\n        /* \"contracts/HashRegistrarSimplified.sol\":7636:7649  bid.closeDeed */\n      dup8\n        /* \"contracts/HashRegistrarSimplified.sol\":7636:7654  bid.closeDeed(995) */\n      dup1\n      extcodesize\n      iszero\n        /* \"--CODEGEN--\":5:7   */\n      dup1\n      iszero\n      tag_191\n      jumpi\n        /* \"--CODEGEN--\":30:31   */\n      0x0\n        /* \"--CODEGEN--\":27:28   */\n      dup1\n        /* \"--CODEGEN--\":20:32   */\n      revert\n        /* \"--CODEGEN--\":5:7   */\n    tag_191:\n        /* \"contracts/HashRegistrarSimplified.sol\":7636:7654  bid.closeDeed(995) */\n      pop\n      gas\n      call\n      iszero\n        /* \"--CODEGEN--\":8:17   */\n      dup1\n        /* \"--CODEGEN--\":5:7   */\n      iszero\n      tag_192\n      jumpi\n        /* \"--CODEGEN--\":45:61   */\n      returndatasize\n        /* \"--CODEGEN--\":42:43   */\n      0x0\n        /* \"--CODEGEN--\":39:40   */\n      dup1\n        /* \"--CODEGEN--\":24:62   */\n      returndatacopy\n        /* \"--CODEGEN--\":77:93   */\n      returndatasize\n        /* \"--CODEGEN--\":74:75   */\n      0x0\n        /* \"--CODEGEN--\":67:94   */\n      revert\n        /* \"--CODEGEN--\":5:7   */\n    tag_192:\n      pop\n      pop\n        /* \"contracts/HashRegistrarSimplified.sol\":7669:7709  BidRevealed(_hash, msg.sender, value, 3) */\n      0x40\n      dup1\n      mload\n      dup7\n      dup2\n      mstore\n        /* \"contracts/HashRegistrarSimplified.sol\":7707:7708  3 */\n      0x3\n        /* \"contracts/HashRegistrarSimplified.sol\":7669:7709  BidRevealed(_hash, msg.sender, value, 3) */\n      0x20\n      dup3\n      add\n      mstore\n      dup2\n      mload\n        /* \"contracts/HashRegistrarSimplified.sol\":7688:7698  msg.sender */\n      caller\n      swap5\n      pop\n        /* \"contracts/HashRegistrarSimplified.sol\":7681:7686  _hash */\n      dup14\n      swap4\n      pop\n      0x0\n      dup1\n      mload\n      0x20\n      data_99993fb1d97f8559098da9a8f3c0db02c0c0dd21e2f2208f8099175d4cf96c32\n      dup4\n      codecopy\n      dup2\n      mload\n      swap2\n      mstore\n        /* \"contracts/HashRegistrarSimplified.sol\":7669:7709  BidRevealed(_hash, msg.sender, value, 3) */\n      swap3\n      swap2\n      dup2\n      swap1\n      sub\n      swap1\n      swap2\n      add\n      swap1\n      log3\n        /* \"contracts/HashRegistrarSimplified.sol\":7517:7870  if (value > h.value) {\r... */\n      jump(tag_193)\n    tag_190:\n        /* \"contracts/HashRegistrarSimplified.sol\":7785:7788  bid */\n      dup5\n      sub(exp(0x2, 0xa0), 0x1)\n        /* \"contracts/HashRegistrarSimplified.sol\":7785:7798  bid.closeDeed */\n      and\n      0xbbe42771\n        /* \"contracts/HashRegistrarSimplified.sol\":7799:7802  995 */\n      0x3e3\n        /* \"contracts/HashRegistrarSimplified.sol\":7785:7803  bid.closeDeed(995) */\n      mload(0x40)\n      dup3\n      0xffffffff\n      and\n      exp(0x2, 0xe0)\n      mul\n      dup2\n      mstore\n      0x4\n      add\n      dup1\n      dup3\n      dup2\n      mstore\n      0x20\n      add\n      swap2\n      pop\n      pop\n      0x0\n      mload(0x40)\n      dup1\n      dup4\n      sub\n      dup2\n      0x0\n      dup8\n      dup1\n      extcodesize\n      iszero\n        /* \"--CODEGEN--\":8:17   */\n      dup1\n        /* \"--CODEGEN--\":5:7   */\n      iszero\n      tag_194\n      jumpi\n        /* \"--CODEGEN--\":30:31   */\n      0x0\n        /* \"--CODEGEN--\":27:28   */\n      dup1\n        /* \"--CODEGEN--\":20:32   */\n      revert\n        /* \"--CODEGEN--\":5:7   */\n    tag_194:\n        /* \"contracts/HashRegistrarSimplified.sol\":7785:7803  bid.closeDeed(995) */\n      pop\n      gas\n      call\n      iszero\n        /* \"--CODEGEN--\":8:17   */\n      dup1\n        /* \"--CODEGEN--\":5:7   */\n      iszero\n      tag_195\n      jumpi\n        /* \"--CODEGEN--\":45:61   */\n      returndatasize\n        /* \"--CODEGEN--\":42:43   */\n      0x0\n        /* \"--CODEGEN--\":39:40   */\n      dup1\n        /* \"--CODEGEN--\":24:62   */\n      returndatacopy\n        /* \"--CODEGEN--\":77:93   */\n      returndatasize\n        /* \"--CODEGEN--\":74:75   */\n      0x0\n        /* \"--CODEGEN--\":67:94   */\n      revert\n        /* \"--CODEGEN--\":5:7   */\n    tag_195:\n      pop\n      pop\n        /* \"contracts/HashRegistrarSimplified.sol\":7818:7858  BidRevealed(_hash, msg.sender, value, 4) */\n      0x40\n      dup1\n      mload\n      dup7\n      dup2\n      mstore\n        /* \"contracts/HashRegistrarSimplified.sol\":7856:7857  4 */\n      0x4\n        /* \"contracts/HashRegistrarSimplified.sol\":7818:7858  BidRevealed(_hash, msg.sender, value, 4) */\n      0x20\n      dup3\n      add\n      mstore\n      dup2\n      mload\n        /* \"contracts/HashRegistrarSimplified.sol\":7837:7847  msg.sender */\n      caller\n      swap5\n      pop\n        /* \"contracts/HashRegistrarSimplified.sol\":7830:7835  _hash */\n      dup14\n      swap4\n      pop\n      0x0\n      dup1\n      mload\n      0x20\n      data_99993fb1d97f8559098da9a8f3c0db02c0c0dd21e2f2208f8099175d4cf96c32\n      dup4\n      codecopy\n      dup2\n      mload\n      swap2\n      mstore\n        /* \"contracts/HashRegistrarSimplified.sol\":7818:7858  BidRevealed(_hash, msg.sender, value, 4) */\n      swap3\n      swap2\n      dup2\n      swap1\n      sub\n      swap1\n      swap2\n      add\n      swap1\n      log3\n        /* \"contracts/HashRegistrarSimplified.sol\":7517:7870  if (value > h.value) {\r... */\n    tag_193:\n        /* \"contracts/HashRegistrarSimplified.sol\":5917:7877  function unsealBid(bytes32 _hash, uint _value, bytes32 _salt) public {\r... */\n      pop\n      pop\n      pop\n      pop\n      pop\n      pop\n      pop\n      pop\n      pop\n      jump\t// out\n        /* \"contracts/HashRegistrarSimplified.sol\":12825:13404  function transferRegistrars(bytes32 _hash) public onlyOwner(_hash) {\r... */\n    tag_52:\n        /* \"contracts/HashRegistrarSimplified.sol\":12903:12920  address registrar */\n      0x0\n      dup1\n        /* \"contracts/HashRegistrarSimplified.sol\":12885:12890  _hash */\n      dup3\n        /* \"contracts/HashRegistrarSimplified.sol\":1906:1916  Mode.Owned */\n      0x2\n        /* \"contracts/HashRegistrarSimplified.sol\":1890:1902  state(_hash) */\n      tag_198\n        /* \"contracts/HashRegistrarSimplified.sol\":1896:1901  _hash */\n      dup3\n        /* \"contracts/HashRegistrarSimplified.sol\":1890:1895  state */\n      tag_58\n        /* \"contracts/HashRegistrarSimplified.sol\":1890:1902  state(_hash) */\n      jump\t// in\n    tag_198:\n        /* \"contracts/HashRegistrarSimplified.sol\":1890:1916  state(_hash) == Mode.Owned */\n      0x5\n      dup2\n      gt\n      iszero\n      tag_199\n      jumpi\n      invalid\n    tag_199:\n      eq\n        /* \"contracts/HashRegistrarSimplified.sol\":1890:1962  state(_hash) == Mode.Owned && msg.sender == _entries[_hash].deed.owner() */\n      dup1\n      iszero\n      tag_200\n      jumpi\n      pop\n        /* \"contracts/HashRegistrarSimplified.sol\":1934:1949  _entries[_hash] */\n      0x0\n      dup2\n      dup2\n      mstore\n        /* \"contracts/HashRegistrarSimplified.sol\":1934:1942  _entries */\n      0x2\n        /* \"contracts/HashRegistrarSimplified.sol\":1934:1949  _entries[_hash] */\n      0x20\n      swap1\n      dup2\n      mstore\n      0x40\n      dup1\n      dup4\n      keccak256\n        /* \"contracts/HashRegistrarSimplified.sol\":1934:1954  _entries[_hash].deed */\n      sload\n        /* \"contracts/HashRegistrarSimplified.sol\":1934:1962  _entries[_hash].deed.owner() */\n      dup2\n      mload\n      mul(0x8da5cb5b, exp(0x2, 0xe0))\n      dup2\n      mstore\n      swap2\n      mload\n      sub(exp(0x2, 0xa0), 0x1)\n        /* \"contracts/HashRegistrarSimplified.sol\":1934:1954  _entries[_hash].deed */\n      swap1\n      swap2\n      and\n      swap4\n        /* \"contracts/HashRegistrarSimplified.sol\":1934:1960  _entries[_hash].deed.owner */\n      0x8da5cb5b\n      swap4\n        /* \"contracts/HashRegistrarSimplified.sol\":1934:1962  _entries[_hash].deed.owner() */\n      0x4\n      dup1\n      dup6\n      add\n      swap5\n        /* \"contracts/HashRegistrarSimplified.sol\":1934:1949  _entries[_hash] */\n      swap2\n      swap4\n        /* \"contracts/HashRegistrarSimplified.sol\":1934:1962  _entries[_hash].deed.owner() */\n      swap3\n      swap2\n      dup4\n      swap1\n      sub\n      add\n      swap1\n      dup3\n      swap1\n        /* \"contracts/HashRegistrarSimplified.sol\":1934:1954  _entries[_hash].deed */\n      dup8\n        /* \"contracts/HashRegistrarSimplified.sol\":1934:1962  _entries[_hash].deed.owner() */\n      dup1\n      extcodesize\n      iszero\n        /* \"--CODEGEN--\":5:7   */\n      dup1\n      iszero\n      tag_201\n      jumpi\n        /* \"--CODEGEN--\":30:31   */\n      0x0\n        /* \"--CODEGEN--\":27:28   */\n      dup1\n        /* \"--CODEGEN--\":20:32   */\n      revert\n        /* \"--CODEGEN--\":5:7   */\n    tag_201:\n        /* \"contracts/HashRegistrarSimplified.sol\":1934:1962  _entries[_hash].deed.owner() */\n      pop\n      gas\n      call\n      iszero\n        /* \"--CODEGEN--\":8:17   */\n      dup1\n        /* \"--CODEGEN--\":5:7   */\n      iszero\n      tag_202\n      jumpi\n        /* \"--CODEGEN--\":45:61   */\n      returndatasize\n        /* \"--CODEGEN--\":42:43   */\n      0x0\n        /* \"--CODEGEN--\":39:40   */\n      dup1\n        /* \"--CODEGEN--\":24:62   */\n      returndatacopy\n        /* \"--CODEGEN--\":77:93   */\n      returndatasize\n        /* \"--CODEGEN--\":74:75   */\n      0x0\n        /* \"--CODEGEN--\":67:94   */\n      revert\n        /* \"--CODEGEN--\":5:7   */\n    tag_202:\n        /* \"contracts/HashRegistrarSimplified.sol\":1934:1962  _entries[_hash].deed.owner() */\n      pop\n      pop\n      pop\n      pop\n      mload(0x40)\n      returndatasize\n        /* \"--CODEGEN--\":13:15   */\n      0x20\n        /* \"--CODEGEN--\":8:11   */\n      dup2\n        /* \"--CODEGEN--\":5:16   */\n      lt\n        /* \"--CODEGEN--\":2:4   */\n      iszero\n      tag_203\n      jumpi\n        /* \"--CODEGEN--\":29:30   */\n      0x0\n        /* \"--CODEGEN--\":26:27   */\n      dup1\n        /* \"--CODEGEN--\":19:31   */\n      revert\n        /* \"--CODEGEN--\":2:4   */\n    tag_203:\n      pop\n        /* \"contracts/HashRegistrarSimplified.sol\":1934:1962  _entries[_hash].deed.owner() */\n      mload\n      sub(exp(0x2, 0xa0), 0x1)\n        /* \"contracts/HashRegistrarSimplified.sol\":1920:1962  msg.sender == _entries[_hash].deed.owner() */\n      and\n        /* \"contracts/HashRegistrarSimplified.sol\":1920:1930  msg.sender */\n      caller\n        /* \"contracts/HashRegistrarSimplified.sol\":1920:1962  msg.sender == _entries[_hash].deed.owner() */\n      eq\n        /* \"contracts/HashRegistrarSimplified.sol\":1890:1962  state(_hash) == Mode.Owned && msg.sender == _entries[_hash].deed.owner() */\n    tag_200:\n        /* \"contracts/HashRegistrarSimplified.sol\":1882:1963  require(state(_hash) == Mode.Owned && msg.sender == _entries[_hash].deed.owner()) */\n      iszero\n      iszero\n      tag_204\n      jumpi\n      0x0\n      dup1\n      revert\n    tag_204:\n        /* \"contracts/HashRegistrarSimplified.sol\":12923:12926  ens */\n      0x0\n      dup1\n      sload\n      0x1\n        /* \"contracts/HashRegistrarSimplified.sol\":12933:12941  rootNode */\n      sload\n        /* \"contracts/HashRegistrarSimplified.sol\":12923:12942  ens.owner(rootNode) */\n      0x40\n      dup1\n      mload\n      mul(0x2571be3, exp(0x2, 0xe0))\n      dup2\n      mstore\n      0x4\n      dup2\n      add\n      swap3\n      swap1\n      swap3\n      mstore\n      mload\n      sub(exp(0x2, 0xa0), 0x1)\n        /* \"contracts/HashRegistrarSimplified.sol\":12923:12926  ens */\n      swap1\n      swap3\n      and\n      swap3\n        /* \"contracts/HashRegistrarSimplified.sol\":12923:12932  ens.owner */\n      0x2571be3\n      swap3\n        /* \"contracts/HashRegistrarSimplified.sol\":12923:12942  ens.owner(rootNode) */\n      0x24\n      dup1\n      dup5\n      add\n      swap4\n      0x20\n      swap4\n      swap1\n      dup4\n      swap1\n      sub\n      swap1\n      swap2\n      add\n      swap1\n      dup3\n      swap1\n        /* \"contracts/HashRegistrarSimplified.sol\":12923:12926  ens */\n      dup8\n        /* \"contracts/HashRegistrarSimplified.sol\":12923:12942  ens.owner(rootNode) */\n      dup1\n      extcodesize\n      iszero\n        /* \"--CODEGEN--\":5:7   */\n      dup1\n      iszero\n      tag_206\n      jumpi\n        /* \"--CODEGEN--\":30:31   */\n      0x0\n        /* \"--CODEGEN--\":27:28   */\n      dup1\n        /* \"--CODEGEN--\":20:32   */\n      revert\n        /* \"--CODEGEN--\":5:7   */\n    tag_206:\n        /* \"contracts/HashRegistrarSimplified.sol\":12923:12942  ens.owner(rootNode) */\n      pop\n      gas\n      call\n      iszero\n        /* \"--CODEGEN--\":8:17   */\n      dup1\n        /* \"--CODEGEN--\":5:7   */\n      iszero\n      tag_207\n      jumpi\n        /* \"--CODEGEN--\":45:61   */\n      returndatasize\n        /* \"--CODEGEN--\":42:43   */\n      0x0\n        /* \"--CODEGEN--\":39:40   */\n      dup1\n        /* \"--CODEGEN--\":24:62   */\n      returndatacopy\n        /* \"--CODEGEN--\":77:93   */\n      returndatasize\n        /* \"--CODEGEN--\":74:75   */\n      0x0\n        /* \"--CODEGEN--\":67:94   */\n      revert\n        /* \"--CODEGEN--\":5:7   */\n    tag_207:\n        /* \"contracts/HashRegistrarSimplified.sol\":12923:12942  ens.owner(rootNode) */\n      pop\n      pop\n      pop\n      pop\n      mload(0x40)\n      returndatasize\n        /* \"--CODEGEN--\":13:15   */\n      0x20\n        /* \"--CODEGEN--\":8:11   */\n      dup2\n        /* \"--CODEGEN--\":5:16   */\n      lt\n        /* \"--CODEGEN--\":2:4   */\n      iszero\n      tag_208\n      jumpi\n        /* \"--CODEGEN--\":29:30   */\n      0x0\n        /* \"--CODEGEN--\":26:27   */\n      dup1\n        /* \"--CODEGEN--\":19:31   */\n      revert\n        /* \"--CODEGEN--\":2:4   */\n    tag_208:\n      pop\n        /* \"contracts/HashRegistrarSimplified.sol\":12923:12942  ens.owner(rootNode) */\n      mload\n      swap3\n      pop\n      sub(exp(0x2, 0xa0), 0x1)\n        /* \"contracts/HashRegistrarSimplified.sol\":12961:12987  registrar != address(this) */\n      dup4\n      and\n        /* \"contracts/HashRegistrarSimplified.sol\":12982:12986  this */\n      address\n        /* \"contracts/HashRegistrarSimplified.sol\":12961:12987  registrar != address(this) */\n      eq\n      iszero\n        /* \"contracts/HashRegistrarSimplified.sol\":12953:12988  require(registrar != address(this)) */\n      tag_209\n      jumpi\n      0x0\n      dup1\n      revert\n    tag_209:\n        /* \"contracts/HashRegistrarSimplified.sol\":13048:13063  _entries[_hash] */\n      0x0\n      dup5\n      dup2\n      mstore\n        /* \"contracts/HashRegistrarSimplified.sol\":13048:13056  _entries */\n      0x2\n        /* \"contracts/HashRegistrarSimplified.sol\":13048:13063  _entries[_hash] */\n      0x20\n      mstore\n      0x40\n      dup1\n      dup3\n      keccak256\n        /* \"contracts/HashRegistrarSimplified.sol\":13074:13080  h.deed */\n      dup1\n      sload\n        /* \"contracts/HashRegistrarSimplified.sol\":13074:13104  h.deed.setRegistrar(registrar) */\n      dup3\n      mload\n      0xfaab9d3900000000000000000000000000000000000000000000000000000000\n      dup2\n      mstore\n      sub(exp(0x2, 0xa0), 0x1)\n      dup9\n      dup2\n      and\n      0x4\n      dup4\n      add\n      mstore\n      swap4\n      mload\n        /* \"contracts/HashRegistrarSimplified.sol\":13048:13063  _entries[_hash] */\n      swap3\n      swap7\n      pop\n        /* \"contracts/HashRegistrarSimplified.sol\":13074:13080  h.deed */\n      swap3\n      and\n      swap3\n        /* \"contracts/HashRegistrarSimplified.sol\":13074:13093  h.deed.setRegistrar */\n      0xfaab9d39\n      swap3\n        /* \"contracts/HashRegistrarSimplified.sol\":13074:13104  h.deed.setRegistrar(registrar) */\n      0x24\n      dup1\n      dup3\n      add\n      swap4\n      swap2\n      dup3\n      swap1\n      sub\n      add\n      dup2\n        /* \"contracts/HashRegistrarSimplified.sol\":13048:13063  _entries[_hash] */\n      dup4\n        /* \"contracts/HashRegistrarSimplified.sol\":13074:13080  h.deed */\n      dup8\n        /* \"contracts/HashRegistrarSimplified.sol\":13074:13104  h.deed.setRegistrar(registrar) */\n      dup1\n      extcodesize\n      iszero\n        /* \"--CODEGEN--\":5:7   */\n      dup1\n      iszero\n      tag_210\n      jumpi\n        /* \"--CODEGEN--\":30:31   */\n      0x0\n        /* \"--CODEGEN--\":27:28   */\n      dup1\n        /* \"--CODEGEN--\":20:32   */\n      revert\n        /* \"--CODEGEN--\":5:7   */\n    tag_210:\n        /* \"contracts/HashRegistrarSimplified.sol\":13074:13104  h.deed.setRegistrar(registrar) */\n      pop\n      gas\n      call\n      iszero\n        /* \"--CODEGEN--\":8:17   */\n      dup1\n        /* \"--CODEGEN--\":5:7   */\n      iszero\n      tag_211\n      jumpi\n        /* \"--CODEGEN--\":45:61   */\n      returndatasize\n        /* \"--CODEGEN--\":42:43   */\n      0x0\n        /* \"--CODEGEN--\":39:40   */\n      dup1\n        /* \"--CODEGEN--\":24:62   */\n      returndatacopy\n        /* \"--CODEGEN--\":77:93   */\n      returndatasize\n        /* \"--CODEGEN--\":74:75   */\n      0x0\n        /* \"--CODEGEN--\":67:94   */\n      revert\n        /* \"--CODEGEN--\":5:7   */\n    tag_211:\n      pop\n      pop\n        /* \"contracts/HashRegistrarSimplified.sol\":13227:13233  h.deed */\n      dup4\n      sload\n      0x1\n        /* \"contracts/HashRegistrarSimplified.sol\":13235:13253  h.registrationDate */\n      dup6\n      add\n      sload\n        /* \"contracts/HashRegistrarSimplified.sol\":13175:13254  Registrar(registrar).acceptRegistrarTransfer(_hash, h.deed, h.registrationDate) */\n      0x40\n      dup1\n      mload\n      0xea9e107a00000000000000000000000000000000000000000000000000000000\n      dup2\n      mstore\n      0x4\n      dup2\n      add\n      dup11\n      swap1\n      mstore\n      sub(exp(0x2, 0xa0), 0x1)\n        /* \"contracts/HashRegistrarSimplified.sol\":13227:13233  h.deed */\n      swap4\n      dup5\n      and\n        /* \"contracts/HashRegistrarSimplified.sol\":13175:13254  Registrar(registrar).acceptRegistrarTransfer(_hash, h.deed, h.registrationDate) */\n      0x24\n      dup3\n      add\n      mstore\n      0x44\n      dup2\n      add\n      swap3\n      swap1\n      swap3\n      mstore\n      mload\n        /* \"contracts/HashRegistrarSimplified.sol\":13175:13219  Registrar(registrar).acceptRegistrarTransfer */\n      swap2\n      dup8\n      and\n      swap4\n      pop\n      0xea9e107a\n      swap3\n      pop\n        /* \"contracts/HashRegistrarSimplified.sol\":13175:13254  Registrar(registrar).acceptRegistrarTransfer(_hash, h.deed, h.registrationDate) */\n      0x64\n      dup1\n      dup3\n      add\n      swap3\n        /* \"contracts/HashRegistrarSimplified.sol\":13227:13233  h.deed */\n      0x0\n      swap3\n        /* \"contracts/HashRegistrarSimplified.sol\":13175:13254  Registrar(registrar).acceptRegistrarTransfer(_hash, h.deed, h.registrationDate) */\n      swap1\n      swap2\n      swap1\n      dup3\n      swap1\n      sub\n      add\n      dup2\n        /* \"contracts/HashRegistrarSimplified.sol\":13227:13233  h.deed */\n      dup4\n        /* \"contracts/HashRegistrarSimplified.sol\":13175:13219  Registrar(registrar).acceptRegistrarTransfer */\n      dup8\n        /* \"contracts/HashRegistrarSimplified.sol\":13175:13254  Registrar(registrar).acceptRegistrarTransfer(_hash, h.deed, h.registrationDate) */\n      dup1\n      extcodesize\n      iszero\n        /* \"--CODEGEN--\":5:7   */\n      dup1\n      iszero\n      tag_212\n      jumpi\n        /* \"--CODEGEN--\":30:31   */\n      0x0\n        /* \"--CODEGEN--\":27:28   */\n      dup1\n        /* \"--CODEGEN--\":20:32   */\n      revert\n        /* \"--CODEGEN--\":5:7   */\n    tag_212:\n        /* \"contracts/HashRegistrarSimplified.sol\":13175:13254  Registrar(registrar).acceptRegistrarTransfer(_hash, h.deed, h.registrationDate) */\n      pop\n      gas\n      call\n      iszero\n        /* \"--CODEGEN--\":8:17   */\n      dup1\n        /* \"--CODEGEN--\":5:7   */\n      iszero\n      tag_213\n      jumpi\n        /* \"--CODEGEN--\":45:61   */\n      returndatasize\n        /* \"--CODEGEN--\":42:43   */\n      0x0\n        /* \"--CODEGEN--\":39:40   */\n      dup1\n        /* \"--CODEGEN--\":24:62   */\n      returndatacopy\n        /* \"--CODEGEN--\":77:93   */\n      returndatasize\n        /* \"--CODEGEN--\":74:75   */\n      0x0\n        /* \"--CODEGEN--\":67:94   */\n      revert\n        /* \"--CODEGEN--\":5:7   */\n    tag_213:\n      pop\n      pop\n        /* \"contracts/HashRegistrarSimplified.sol\":13298:13314  h.deed = Deed(0) */\n      dup4\n      sload\n      not(sub(exp(0x2, 0xa0), 0x1))\n      and\n      dup5\n      sstore\n      pop\n      pop\n        /* \"contracts/HashRegistrarSimplified.sol\":13312:13313  0 */\n      0x0\n        /* \"contracts/HashRegistrarSimplified.sol\":13298:13314  h.deed = Deed(0) */\n      0x1\n        /* \"contracts/HashRegistrarSimplified.sol\":13325:13343  h.registrationDate */\n      dup4\n      add\n        /* \"contracts/HashRegistrarSimplified.sol\":13325:13347  h.registrationDate = 0 */\n      dup2\n      swap1\n      sstore\n        /* \"contracts/HashRegistrarSimplified.sol\":13358:13365  h.value */\n      0x2\n      dup4\n      add\n        /* \"contracts/HashRegistrarSimplified.sol\":13358:13369  h.value = 0 */\n      dup2\n      swap1\n      sstore\n        /* \"contracts/HashRegistrarSimplified.sol\":13380:13392  h.highestBid */\n      0x3\n      swap1\n      swap3\n      add\n        /* \"contracts/HashRegistrarSimplified.sol\":13380:13396  h.highestBid = 0 */\n      swap2\n      swap1\n      swap2\n      sstore\n      pop\n      pop\n      pop\n        /* \"contracts/HashRegistrarSimplified.sol\":12825:13404  function transferRegistrars(bytes32 _hash) public onlyOwner(_hash) {\r... */\n      jump\t// out\n        /* \"contracts/HashRegistrarSimplified.sol\":691:755  mapping (address => mapping (bytes32 => Deed)) public sealedBids */\n    tag_55:\n      0x3\n      0x20\n      swap1\n      dup2\n      mstore\n      0x0\n      swap3\n      dup4\n      mstore\n      0x40\n      dup1\n      dup5\n      keccak256\n      swap1\n      swap2\n      mstore\n      swap1\n      dup3\n      mstore\n      swap1\n      keccak256\n      sload\n      sub(exp(0x2, 0xa0), 0x1)\n      and\n      dup2\n      jump\t// out\n        /* \"contracts/HashRegistrarSimplified.sol\":14219:14822  function state(bytes32 _hash) public view returns (Mode) {\r... */\n    tag_58:\n        /* \"contracts/HashRegistrarSimplified.sol\":14270:14274  Mode */\n      0x0\n        /* \"contracts/HashRegistrarSimplified.sol\":14309:14324  _entries[_hash] */\n      dup2\n      dup2\n      mstore\n        /* \"contracts/HashRegistrarSimplified.sol\":14309:14317  _entries */\n      0x2\n        /* \"contracts/HashRegistrarSimplified.sol\":14309:14324  _entries[_hash] */\n      0x20\n      mstore\n      0x40\n      dup2\n      keccak256\n        /* \"contracts/HashRegistrarSimplified.sol\":14342:14363  isAllowed(_hash, now) */\n      tag_215\n        /* \"contracts/HashRegistrarSimplified.sol\":14318:14323  _hash */\n      dup4\n        /* \"contracts/HashRegistrarSimplified.sol\":14359:14362  now */\n      timestamp\n        /* \"contracts/HashRegistrarSimplified.sol\":14342:14351  isAllowed */\n      tag_65\n        /* \"contracts/HashRegistrarSimplified.sol\":14342:14363  isAllowed(_hash, now) */\n      jump\t// in\n    tag_215:\n        /* \"contracts/HashRegistrarSimplified.sol\":14341:14363  !isAllowed(_hash, now) */\n      iszero\n        /* \"contracts/HashRegistrarSimplified.sol\":14337:14815  if (!isAllowed(_hash, now)) {\r... */\n      iszero\n      tag_216\n      jumpi\n        /* \"contracts/HashRegistrarSimplified.sol\":14387:14407  Mode.NotYetAvailable */\n      0x5\n        /* \"contracts/HashRegistrarSimplified.sol\":14380:14407  return Mode.NotYetAvailable */\n      swap2\n      pop\n      jump(tag_223)\n        /* \"contracts/HashRegistrarSimplified.sol\":14337:14815  if (!isAllowed(_hash, now)) {\r... */\n    tag_216:\n        /* \"contracts/HashRegistrarSimplified.sol\":14435:14440  entry */\n      dup1\n        /* \"contracts/HashRegistrarSimplified.sol\":14435:14457  entry.registrationDate */\n      0x1\n      add\n      sload\n        /* \"contracts/HashRegistrarSimplified.sol\":14429:14432  now */\n      timestamp\n        /* \"contracts/HashRegistrarSimplified.sol\":14429:14457  now < entry.registrationDate */\n      lt\n        /* \"contracts/HashRegistrarSimplified.sol\":14425:14815  if (now < entry.registrationDate) {\r... */\n      iszero\n      tag_218\n      jumpi\n        /* \"contracts/HashRegistrarSimplified.sol\":14484:14506  entry.registrationDate */\n      0x1\n      dup2\n      add\n      sload\n      not(0x2a2ff)\n        /* \"contracts/HashRegistrarSimplified.sol\":14484:14521  entry.registrationDate - revealPeriod */\n      add\n        /* \"contracts/HashRegistrarSimplified.sol\":14478:14481  now */\n      timestamp\n        /* \"contracts/HashRegistrarSimplified.sol\":14478:14521  now < entry.registrationDate - revealPeriod */\n      lt\n        /* \"contracts/HashRegistrarSimplified.sol\":14474:14636  if (now < entry.registrationDate - revealPeriod) {\r... */\n      iszero\n      tag_219\n      jumpi\n        /* \"contracts/HashRegistrarSimplified.sol\":14549:14561  Mode.Auction */\n      0x1\n        /* \"contracts/HashRegistrarSimplified.sol\":14542:14561  return Mode.Auction */\n      swap2\n      pop\n      jump(tag_223)\n        /* \"contracts/HashRegistrarSimplified.sol\":14474:14636  if (now < entry.registrationDate - revealPeriod) {\r... */\n    tag_219:\n        /* \"contracts/HashRegistrarSimplified.sol\":14609:14620  Mode.Reveal */\n      0x4\n        /* \"contracts/HashRegistrarSimplified.sol\":14602:14620  return Mode.Reveal */\n      swap2\n      pop\n      jump(tag_223)\n        /* \"contracts/HashRegistrarSimplified.sol\":14425:14815  if (now < entry.registrationDate) {\r... */\n    tag_218:\n        /* \"contracts/HashRegistrarSimplified.sol\":14672:14688  entry.highestBid */\n      0x3\n      dup2\n      add\n      sload\n        /* \"contracts/HashRegistrarSimplified.sol\":14672:14693  entry.highestBid == 0 */\n      iszero\n        /* \"contracts/HashRegistrarSimplified.sol\":14668:14804  if (entry.highestBid == 0) {\r... */\n      iszero\n      tag_222\n      jumpi\n        /* \"contracts/HashRegistrarSimplified.sol\":14721:14730  Mode.Open */\n      0x0\n        /* \"contracts/HashRegistrarSimplified.sol\":14714:14730  return Mode.Open */\n      swap2\n      pop\n      jump(tag_223)\n        /* \"contracts/HashRegistrarSimplified.sol\":14668:14804  if (entry.highestBid == 0) {\r... */\n    tag_222:\n        /* \"contracts/HashRegistrarSimplified.sol\":14778:14788  Mode.Owned */\n      0x2\n        /* \"contracts/HashRegistrarSimplified.sol\":14771:14788  return Mode.Owned */\n      swap2\n      pop\n        /* \"contracts/HashRegistrarSimplified.sol\":14668:14804  if (entry.highestBid == 0) {\r... */\n    tag_223:\n        /* \"contracts/HashRegistrarSimplified.sol\":14219:14822  function state(bytes32 _hash) public view returns (Mode) {\r... */\n      pop\n      swap2\n      swap1\n      pop\n      jump\t// out\n        /* \"contracts/HashRegistrarSimplified.sol\":9650:9894  function transfer(bytes32 _hash, address newOwner) public onlyOwner(_hash) {\r... */\n    tag_62:\n        /* \"contracts/HashRegistrarSimplified.sol\":9771:9786  Entry storage h */\n      0x0\n        /* \"contracts/HashRegistrarSimplified.sol\":9718:9723  _hash */\n      dup3\n        /* \"contracts/HashRegistrarSimplified.sol\":1906:1916  Mode.Owned */\n      0x2\n        /* \"contracts/HashRegistrarSimplified.sol\":1890:1902  state(_hash) */\n      tag_226\n        /* \"contracts/HashRegistrarSimplified.sol\":1896:1901  _hash */\n      dup3\n        /* \"contracts/HashRegistrarSimplified.sol\":1890:1895  state */\n      tag_58\n        /* \"contracts/HashRegistrarSimplified.sol\":1890:1902  state(_hash) */\n      jump\t// in\n    tag_226:\n        /* \"contracts/HashRegistrarSimplified.sol\":1890:1916  state(_hash) == Mode.Owned */\n      0x5\n      dup2\n      gt\n      iszero\n      tag_227\n      jumpi\n      invalid\n    tag_227:\n      eq\n        /* \"contracts/HashRegistrarSimplified.sol\":1890:1962  state(_hash) == Mode.Owned && msg.sender == _entries[_hash].deed.owner() */\n      dup1\n      iszero\n      tag_228\n      jumpi\n      pop\n        /* \"contracts/HashRegistrarSimplified.sol\":1934:1949  _entries[_hash] */\n      0x0\n      dup2\n      dup2\n      mstore\n        /* \"contracts/HashRegistrarSimplified.sol\":1934:1942  _entries */\n      0x2\n        /* \"contracts/HashRegistrarSimplified.sol\":1934:1949  _entries[_hash] */\n      0x20\n      swap1\n      dup2\n      mstore\n      0x40\n      dup1\n      dup4\n      keccak256\n        /* \"contracts/HashRegistrarSimplified.sol\":1934:1954  _entries[_hash].deed */\n      sload\n        /* \"contracts/HashRegistrarSimplified.sol\":1934:1962  _entries[_hash].deed.owner() */\n      dup2\n      mload\n      mul(0x8da5cb5b, exp(0x2, 0xe0))\n      dup2\n      mstore\n      swap2\n      mload\n      sub(exp(0x2, 0xa0), 0x1)\n        /* \"contracts/HashRegistrarSimplified.sol\":1934:1954  _entries[_hash].deed */\n      swap1\n      swap2\n      and\n      swap4\n        /* \"contracts/HashRegistrarSimplified.sol\":1934:1960  _entries[_hash].deed.owner */\n      0x8da5cb5b\n      swap4\n        /* \"contracts/HashRegistrarSimplified.sol\":1934:1962  _entries[_hash].deed.owner() */\n      0x4\n      dup1\n      dup6\n      add\n      swap5\n        /* \"contracts/HashRegistrarSimplified.sol\":1934:1949  _entries[_hash] */\n      swap2\n      swap4\n        /* \"contracts/HashRegistrarSimplified.sol\":1934:1962  _entries[_hash].deed.owner() */\n      swap3\n      swap2\n      dup4\n      swap1\n      sub\n      add\n      swap1\n      dup3\n      swap1\n        /* \"contracts/HashRegistrarSimplified.sol\":1934:1954  _entries[_hash].deed */\n      dup8\n        /* \"contracts/HashRegistrarSimplified.sol\":1934:1962  _entries[_hash].deed.owner() */\n      dup1\n      extcodesize\n      iszero\n        /* \"--CODEGEN--\":5:7   */\n      dup1\n      iszero\n      tag_229\n      jumpi\n        /* \"--CODEGEN--\":30:31   */\n      0x0\n        /* \"--CODEGEN--\":27:28   */\n      dup1\n        /* \"--CODEGEN--\":20:32   */\n      revert\n        /* \"--CODEGEN--\":5:7   */\n    tag_229:\n        /* \"contracts/HashRegistrarSimplified.sol\":1934:1962  _entries[_hash].deed.owner() */\n      pop\n      gas\n      call\n      iszero\n        /* \"--CODEGEN--\":8:17   */\n      dup1\n        /* \"--CODEGEN--\":5:7   */\n      iszero\n      tag_230\n      jumpi\n        /* \"--CODEGEN--\":45:61   */\n      returndatasize\n        /* \"--CODEGEN--\":42:43   */\n      0x0\n        /* \"--CODEGEN--\":39:40   */\n      dup1\n        /* \"--CODEGEN--\":24:62   */\n      returndatacopy\n        /* \"--CODEGEN--\":77:93   */\n      returndatasize\n        /* \"--CODEGEN--\":74:75   */\n      0x0\n        /* \"--CODEGEN--\":67:94   */\n      revert\n        /* \"--CODEGEN--\":5:7   */\n    tag_230:\n        /* \"contracts/HashRegistrarSimplified.sol\":1934:1962  _entries[_hash].deed.owner() */\n      pop\n      pop\n      pop\n      pop\n      mload(0x40)\n      returndatasize\n        /* \"--CODEGEN--\":13:15   */\n      0x20\n        /* \"--CODEGEN--\":8:11   */\n      dup2\n        /* \"--CODEGEN--\":5:16   */\n      lt\n        /* \"--CODEGEN--\":2:4   */\n      iszero\n      tag_231\n      jumpi\n        /* \"--CODEGEN--\":29:30   */\n      0x0\n        /* \"--CODEGEN--\":26:27   */\n      dup1\n        /* \"--CODEGEN--\":19:31   */\n      revert\n        /* \"--CODEGEN--\":2:4   */\n    tag_231:\n      pop\n        /* \"contracts/HashRegistrarSimplified.sol\":1934:1962  _entries[_hash].deed.owner() */\n      mload\n      sub(exp(0x2, 0xa0), 0x1)\n        /* \"contracts/HashRegistrarSimplified.sol\":1920:1962  msg.sender == _entries[_hash].deed.owner() */\n      and\n        /* \"contracts/HashRegistrarSimplified.sol\":1920:1930  msg.sender */\n      caller\n        /* \"contracts/HashRegistrarSimplified.sol\":1920:1962  msg.sender == _entries[_hash].deed.owner() */\n      eq\n        /* \"contracts/HashRegistrarSimplified.sol\":1890:1962  state(_hash) == Mode.Owned && msg.sender == _entries[_hash].deed.owner() */\n    tag_228:\n        /* \"contracts/HashRegistrarSimplified.sol\":1882:1963  require(state(_hash) == Mode.Owned && msg.sender == _entries[_hash].deed.owner()) */\n      iszero\n      iszero\n      tag_232\n      jumpi\n      0x0\n      dup1\n      revert\n    tag_232:\n      sub(exp(0x2, 0xa0), 0x1)\n        /* \"contracts/HashRegistrarSimplified.sol\":9744:9757  newOwner != 0 */\n      dup4\n      and\n      iszero\n      iszero\n        /* \"contracts/HashRegistrarSimplified.sol\":9736:9758  require(newOwner != 0) */\n      tag_234\n      jumpi\n      0x0\n      dup1\n      revert\n    tag_234:\n        /* \"contracts/HashRegistrarSimplified.sol\":9789:9804  _entries[_hash] */\n      0x0\n      dup5\n      dup2\n      mstore\n        /* \"contracts/HashRegistrarSimplified.sol\":9789:9797  _entries */\n      0x2\n        /* \"contracts/HashRegistrarSimplified.sol\":9789:9804  _entries[_hash] */\n      0x20\n      mstore\n      0x40\n      dup1\n      dup3\n      keccak256\n        /* \"contracts/HashRegistrarSimplified.sol\":9815:9821  h.deed */\n      dup1\n      sload\n        /* \"contracts/HashRegistrarSimplified.sol\":9815:9840  h.deed.setOwner(newOwner) */\n      dup3\n      mload\n      0x13af403500000000000000000000000000000000000000000000000000000000\n      dup2\n      mstore\n      sub(exp(0x2, 0xa0), 0x1)\n      dup9\n      dup2\n      and\n      0x4\n      dup4\n      add\n      mstore\n      swap4\n      mload\n        /* \"contracts/HashRegistrarSimplified.sol\":9789:9804  _entries[_hash] */\n      swap3\n      swap7\n      pop\n        /* \"contracts/HashRegistrarSimplified.sol\":9815:9821  h.deed */\n      swap3\n      and\n      swap3\n        /* \"contracts/HashRegistrarSimplified.sol\":9815:9830  h.deed.setOwner */\n      0x13af4035\n      swap3\n        /* \"contracts/HashRegistrarSimplified.sol\":9815:9840  h.deed.setOwner(newOwner) */\n      0x24\n      dup1\n      dup3\n      add\n      swap4\n      swap2\n      dup3\n      swap1\n      sub\n      add\n      dup2\n        /* \"contracts/HashRegistrarSimplified.sol\":9789:9804  _entries[_hash] */\n      dup4\n        /* \"contracts/HashRegistrarSimplified.sol\":9815:9821  h.deed */\n      dup8\n        /* \"contracts/HashRegistrarSimplified.sol\":9815:9840  h.deed.setOwner(newOwner) */\n      dup1\n      extcodesize\n      iszero\n        /* \"--CODEGEN--\":5:7   */\n      dup1\n      iszero\n      tag_235\n      jumpi\n        /* \"--CODEGEN--\":30:31   */\n      0x0\n        /* \"--CODEGEN--\":27:28   */\n      dup1\n        /* \"--CODEGEN--\":20:32   */\n      revert\n        /* \"--CODEGEN--\":5:7   */\n    tag_235:\n        /* \"contracts/HashRegistrarSimplified.sol\":9815:9840  h.deed.setOwner(newOwner) */\n      pop\n      gas\n      call\n      iszero\n        /* \"--CODEGEN--\":8:17   */\n      dup1\n        /* \"--CODEGEN--\":5:7   */\n      iszero\n      tag_236\n      jumpi\n        /* \"--CODEGEN--\":45:61   */\n      returndatasize\n        /* \"--CODEGEN--\":42:43   */\n      0x0\n        /* \"--CODEGEN--\":39:40   */\n      dup1\n        /* \"--CODEGEN--\":24:62   */\n      returndatacopy\n        /* \"--CODEGEN--\":77:93   */\n      returndatasize\n        /* \"--CODEGEN--\":74:75   */\n      0x0\n        /* \"--CODEGEN--\":67:94   */\n      revert\n        /* \"--CODEGEN--\":5:7   */\n    tag_236:\n        /* \"contracts/HashRegistrarSimplified.sol\":9815:9840  h.deed.setOwner(newOwner) */\n      pop\n      pop\n      pop\n      pop\n        /* \"contracts/HashRegistrarSimplified.sol\":9851:9886  trySetSubnodeOwner(_hash, newOwner) */\n      tag_237\n        /* \"contracts/HashRegistrarSimplified.sol\":9870:9875  _hash */\n      dup5\n        /* \"contracts/HashRegistrarSimplified.sol\":9877:9885  newOwner */\n      dup5\n        /* \"contracts/HashRegistrarSimplified.sol\":9851:9869  trySetSubnodeOwner */\n      tag_238\n        /* \"contracts/HashRegistrarSimplified.sol\":9851:9886  trySetSubnodeOwner(_hash, newOwner) */\n      jump\t// in\n    tag_237:\n        /* \"contracts/HashRegistrarSimplified.sol\":9650:9894  function transfer(bytes32 _hash, address newOwner) public onlyOwner(_hash) {\r... */\n      pop\n      pop\n      pop\n      pop\n      jump\t// out\n        /* \"contracts/HashRegistrarSimplified.sol\":15381:15527  function isAllowed(bytes32 _hash, uint _timestamp) public view returns (bool allowed) {\r... */\n    tag_65:\n        /* \"contracts/HashRegistrarSimplified.sol\":15453:15465  bool allowed */\n      0x0\n        /* \"contracts/HashRegistrarSimplified.sol\":15498:15519  getAllowedTime(_hash) */\n      tag_240\n        /* \"contracts/HashRegistrarSimplified.sol\":15513:15518  _hash */\n      dup4\n        /* \"contracts/HashRegistrarSimplified.sol\":15498:15512  getAllowedTime */\n      tag_30\n        /* \"contracts/HashRegistrarSimplified.sol\":15498:15519  getAllowedTime(_hash) */\n      jump\t// in\n    tag_240:\n        /* \"contracts/HashRegistrarSimplified.sol\":15485:15495  _timestamp */\n      dup3\n        /* \"contracts/HashRegistrarSimplified.sol\":15485:15519  _timestamp > getAllowedTime(_hash) */\n      gt\n        /* \"contracts/HashRegistrarSimplified.sol\":15478:15519  return _timestamp > getAllowedTime(_hash) */\n      swap1\n      pop\n        /* \"contracts/HashRegistrarSimplified.sol\":15381:15527  function isAllowed(bytes32 _hash, uint _timestamp) public view returns (bool allowed) {\r... */\n    tag_239:\n      swap3\n      swap2\n      pop\n      pop\n      jump\t// out\n        /* \"contracts/HashRegistrarSimplified.sol\":9008:9433  function finalizeAuction(bytes32 _hash) public onlyOwner(_hash) {\r... */\n    tag_68:\n        /* \"contracts/HashRegistrarSimplified.sol\":9083:9098  Entry storage h */\n      0x0\n        /* \"contracts/HashRegistrarSimplified.sol\":9065:9070  _hash */\n      dup2\n        /* \"contracts/HashRegistrarSimplified.sol\":1906:1916  Mode.Owned */\n      0x2\n        /* \"contracts/HashRegistrarSimplified.sol\":1890:1902  state(_hash) */\n      tag_243\n        /* \"contracts/HashRegistrarSimplified.sol\":1896:1901  _hash */\n      dup3\n        /* \"contracts/HashRegistrarSimplified.sol\":1890:1895  state */\n      tag_58\n        /* \"contracts/HashRegistrarSimplified.sol\":1890:1902  state(_hash) */\n      jump\t// in\n    tag_243:\n        /* \"contracts/HashRegistrarSimplified.sol\":1890:1916  state(_hash) == Mode.Owned */\n      0x5\n      dup2\n      gt\n      iszero\n      tag_244\n      jumpi\n      invalid\n    tag_244:\n      eq\n        /* \"contracts/HashRegistrarSimplified.sol\":1890:1962  state(_hash) == Mode.Owned && msg.sender == _entries[_hash].deed.owner() */\n      dup1\n      iszero\n      tag_245\n      jumpi\n      pop\n        /* \"contracts/HashRegistrarSimplified.sol\":1934:1949  _entries[_hash] */\n      0x0\n      dup2\n      dup2\n      mstore\n        /* \"contracts/HashRegistrarSimplified.sol\":1934:1942  _entries */\n      0x2\n        /* \"contracts/HashRegistrarSimplified.sol\":1934:1949  _entries[_hash] */\n      0x20\n      swap1\n      dup2\n      mstore\n      0x40\n      dup1\n      dup4\n      keccak256\n        /* \"contracts/HashRegistrarSimplified.sol\":1934:1954  _entries[_hash].deed */\n      sload\n        /* \"contracts/HashRegistrarSimplified.sol\":1934:1962  _entries[_hash].deed.owner() */\n      dup2\n      mload\n      mul(0x8da5cb5b, exp(0x2, 0xe0))\n      dup2\n      mstore\n      swap2\n      mload\n      sub(exp(0x2, 0xa0), 0x1)\n        /* \"contracts/HashRegistrarSimplified.sol\":1934:1954  _entries[_hash].deed */\n      swap1\n      swap2\n      and\n      swap4\n        /* \"contracts/HashRegistrarSimplified.sol\":1934:1960  _entries[_hash].deed.owner */\n      0x8da5cb5b\n      swap4\n        /* \"contracts/HashRegistrarSimplified.sol\":1934:1962  _entries[_hash].deed.owner() */\n      0x4\n      dup1\n      dup6\n      add\n      swap5\n        /* \"contracts/HashRegistrarSimplified.sol\":1934:1949  _entries[_hash] */\n      swap2\n      swap4\n        /* \"contracts/HashRegistrarSimplified.sol\":1934:1962  _entries[_hash].deed.owner() */\n      swap3\n      swap2\n      dup4\n      swap1\n      sub\n      add\n      swap1\n      dup3\n      swap1\n        /* \"contracts/HashRegistrarSimplified.sol\":1934:1954  _entries[_hash].deed */\n      dup8\n        /* \"contracts/HashRegistrarSimplified.sol\":1934:1962  _entries[_hash].deed.owner() */\n      dup1\n      extcodesize\n      iszero\n        /* \"--CODEGEN--\":5:7   */\n      dup1\n      iszero\n      tag_246\n      jumpi\n        /* \"--CODEGEN--\":30:31   */\n      0x0\n        /* \"--CODEGEN--\":27:28   */\n      dup1\n        /* \"--CODEGEN--\":20:32   */\n      revert\n        /* \"--CODEGEN--\":5:7   */\n    tag_246:\n        /* \"contracts/HashRegistrarSimplified.sol\":1934:1962  _entries[_hash].deed.owner() */\n      pop\n      gas\n      call\n      iszero\n        /* \"--CODEGEN--\":8:17   */\n      dup1\n        /* \"--CODEGEN--\":5:7   */\n      iszero\n      tag_247\n      jumpi\n        /* \"--CODEGEN--\":45:61   */\n      returndatasize\n        /* \"--CODEGEN--\":42:43   */\n      0x0\n        /* \"--CODEGEN--\":39:40   */\n      dup1\n        /* \"--CODEGEN--\":24:62   */\n      returndatacopy\n        /* \"--CODEGEN--\":77:93   */\n      returndatasize\n        /* \"--CODEGEN--\":74:75   */\n      0x0\n        /* \"--CODEGEN--\":67:94   */\n      revert\n        /* \"--CODEGEN--\":5:7   */\n    tag_247:\n        /* \"contracts/HashRegistrarSimplified.sol\":1934:1962  _entries[_hash].deed.owner() */\n      pop\n      pop\n      pop\n      pop\n      mload(0x40)\n      returndatasize\n        /* \"--CODEGEN--\":13:15   */\n      0x20\n        /* \"--CODEGEN--\":8:11   */\n      dup2\n        /* \"--CODEGEN--\":5:16   */\n      lt\n        /* \"--CODEGEN--\":2:4   */\n      iszero\n      tag_248\n      jumpi\n        /* \"--CODEGEN--\":29:30   */\n      0x0\n        /* \"--CODEGEN--\":26:27   */\n      dup1\n        /* \"--CODEGEN--\":19:31   */\n      revert\n        /* \"--CODEGEN--\":2:4   */\n    tag_248:\n      pop\n        /* \"contracts/HashRegistrarSimplified.sol\":1934:1962  _entries[_hash].deed.owner() */\n      mload\n      sub(exp(0x2, 0xa0), 0x1)\n        /* \"contracts/HashRegistrarSimplified.sol\":1920:1962  msg.sender == _entries[_hash].deed.owner() */\n      and\n        /* \"contracts/HashRegistrarSimplified.sol\":1920:1930  msg.sender */\n      caller\n        /* \"contracts/HashRegistrarSimplified.sol\":1920:1962  msg.sender == _entries[_hash].deed.owner() */\n      eq\n        /* \"contracts/HashRegistrarSimplified.sol\":1890:1962  state(_hash) == Mode.Owned && msg.sender == _entries[_hash].deed.owner() */\n    tag_245:\n        /* \"contracts/HashRegistrarSimplified.sol\":1882:1963  require(state(_hash) == Mode.Owned && msg.sender == _entries[_hash].deed.owner()) */\n      iszero\n      iszero\n      tag_249\n      jumpi\n      0x0\n      dup1\n      revert\n    tag_249:\n        /* \"contracts/HashRegistrarSimplified.sol\":9101:9116  _entries[_hash] */\n      0x0\n      dup4\n      dup2\n      mstore\n        /* \"contracts/HashRegistrarSimplified.sol\":9101:9109  _entries */\n      0x2\n        /* \"contracts/HashRegistrarSimplified.sol\":9101:9116  _entries[_hash] */\n      0x20\n      dup2\n      swap1\n      mstore\n      0x40\n      swap1\n      swap2\n      keccak256\n        /* \"contracts/HashRegistrarSimplified.sol\":9233:9240  h.value */\n      swap1\n      dup2\n      add\n      sload\n        /* \"contracts/HashRegistrarSimplified.sol\":9101:9116  _entries[_hash] */\n      swap1\n      swap3\n      pop\n        /* \"contracts/HashRegistrarSimplified.sol\":9229:9251  max(h.value, minPrice) */\n      tag_251\n      swap1\n        /* \"contracts/HashRegistrarSimplified.sol\":1021:1031  0.01 ether */\n      0x2386f26fc10000\n        /* \"contracts/HashRegistrarSimplified.sol\":9229:9232  max */\n      tag_132\n        /* \"contracts/HashRegistrarSimplified.sol\":9229:9251  max(h.value, minPrice) */\n      jump\t// in\n    tag_251:\n        /* \"contracts/HashRegistrarSimplified.sol\":9218:9225  h.value */\n      0x2\n      dup4\n      add\n        /* \"contracts/HashRegistrarSimplified.sol\":9218:9251  h.value =  max(h.value, minPrice) */\n      dup2\n      swap1\n      sstore\n        /* \"contracts/HashRegistrarSimplified.sol\":9262:9268  h.deed */\n      dup3\n      sload\n        /* \"contracts/HashRegistrarSimplified.sol\":9262:9294  h.deed.setBalance(h.value, true) */\n      0x40\n      dup1\n      mload\n      0xb0c8097200000000000000000000000000000000000000000000000000000000\n      dup2\n      mstore\n      0x4\n      dup2\n      add\n      swap4\n      swap1\n      swap4\n      mstore\n        /* \"contracts/HashRegistrarSimplified.sol\":9262:9268  h.deed */\n      0x1\n        /* \"contracts/HashRegistrarSimplified.sol\":9262:9294  h.deed.setBalance(h.value, true) */\n      0x24\n      dup5\n      add\n      mstore\n      mload\n      sub(exp(0x2, 0xa0), 0x1)\n        /* \"contracts/HashRegistrarSimplified.sol\":9262:9268  h.deed */\n      swap1\n      swap2\n      and\n      swap2\n        /* \"contracts/HashRegistrarSimplified.sol\":9262:9279  h.deed.setBalance */\n      0xb0c80972\n      swap2\n        /* \"contracts/HashRegistrarSimplified.sol\":9262:9294  h.deed.setBalance(h.value, true) */\n      0x44\n      dup1\n      dup4\n      add\n      swap3\n        /* \"contracts/HashRegistrarSimplified.sol\":9262:9268  h.deed */\n      0x0\n      swap3\n        /* \"contracts/HashRegistrarSimplified.sol\":9262:9294  h.deed.setBalance(h.value, true) */\n      swap2\n      swap1\n      dup3\n      swap1\n      sub\n      add\n      dup2\n        /* \"contracts/HashRegistrarSimplified.sol\":9262:9268  h.deed */\n      dup4\n      dup8\n        /* \"contracts/HashRegistrarSimplified.sol\":9262:9294  h.deed.setBalance(h.value, true) */\n      dup1\n      extcodesize\n      iszero\n        /* \"--CODEGEN--\":5:7   */\n      dup1\n      iszero\n      tag_252\n      jumpi\n        /* \"--CODEGEN--\":30:31   */\n      0x0\n        /* \"--CODEGEN--\":27:28   */\n      dup1\n        /* \"--CODEGEN--\":20:32   */\n      revert\n        /* \"--CODEGEN--\":5:7   */\n    tag_252:\n        /* \"contracts/HashRegistrarSimplified.sol\":9262:9294  h.deed.setBalance(h.value, true) */\n      pop\n      gas\n      call\n      iszero\n        /* \"--CODEGEN--\":8:17   */\n      dup1\n        /* \"--CODEGEN--\":5:7   */\n      iszero\n      tag_253\n      jumpi\n        /* \"--CODEGEN--\":45:61   */\n      returndatasize\n        /* \"--CODEGEN--\":42:43   */\n      0x0\n        /* \"--CODEGEN--\":39:40   */\n      dup1\n        /* \"--CODEGEN--\":24:62   */\n      returndatacopy\n        /* \"--CODEGEN--\":77:93   */\n      returndatasize\n        /* \"--CODEGEN--\":74:75   */\n      0x0\n        /* \"--CODEGEN--\":67:94   */\n      revert\n        /* \"--CODEGEN--\":5:7   */\n    tag_253:\n        /* \"contracts/HashRegistrarSimplified.sol\":9262:9294  h.deed.setBalance(h.value, true) */\n      pop\n      pop\n      pop\n      pop\n        /* \"contracts/HashRegistrarSimplified.sol\":9307:9348  trySetSubnodeOwner(_hash, h.deed.owner()) */\n      tag_254\n        /* \"contracts/HashRegistrarSimplified.sol\":9326:9331  _hash */\n      dup4\n        /* \"contracts/HashRegistrarSimplified.sol\":9333:9334  h */\n      dup4\n        /* \"contracts/HashRegistrarSimplified.sol\":9333:9339  h.deed */\n      0x0\n      add\n      0x0\n      swap1\n      sload\n      swap1\n      0x100\n      exp\n      swap1\n      div\n      sub(exp(0x2, 0xa0), 0x1)\n      and\n      sub(exp(0x2, 0xa0), 0x1)\n        /* \"contracts/HashRegistrarSimplified.sol\":9333:9345  h.deed.owner */\n      and\n      0x8da5cb5b\n        /* \"contracts/HashRegistrarSimplified.sol\":9333:9347  h.deed.owner() */\n      mload(0x40)\n      dup2\n      0xffffffff\n      and\n      exp(0x2, 0xe0)\n      mul\n      dup2\n      mstore\n      0x4\n      add\n      0x20\n      mload(0x40)\n      dup1\n      dup4\n      sub\n      dup2\n      0x0\n      dup8\n      dup1\n      extcodesize\n      iszero\n        /* \"--CODEGEN--\":8:17   */\n      dup1\n        /* \"--CODEGEN--\":5:7   */\n      iszero\n      tag_255\n      jumpi\n        /* \"--CODEGEN--\":30:31   */\n      0x0\n        /* \"--CODEGEN--\":27:28   */\n      dup1\n        /* \"--CODEGEN--\":20:32   */\n      revert\n        /* \"--CODEGEN--\":5:7   */\n    tag_255:\n        /* \"contracts/HashRegistrarSimplified.sol\":9333:9347  h.deed.owner() */\n      pop\n      gas\n      call\n      iszero\n        /* \"--CODEGEN--\":8:17   */\n      dup1\n        /* \"--CODEGEN--\":5:7   */\n      iszero\n      tag_256\n      jumpi\n        /* \"--CODEGEN--\":45:61   */\n      returndatasize\n        /* \"--CODEGEN--\":42:43   */\n      0x0\n        /* \"--CODEGEN--\":39:40   */\n      dup1\n        /* \"--CODEGEN--\":24:62   */\n      returndatacopy\n        /* \"--CODEGEN--\":77:93   */\n      returndatasize\n        /* \"--CODEGEN--\":74:75   */\n      0x0\n        /* \"--CODEGEN--\":67:94   */\n      revert\n        /* \"--CODEGEN--\":5:7   */\n    tag_256:\n        /* \"contracts/HashRegistrarSimplified.sol\":9333:9347  h.deed.owner() */\n      pop\n      pop\n      pop\n      pop\n      mload(0x40)\n      returndatasize\n        /* \"--CODEGEN--\":13:15   */\n      0x20\n        /* \"--CODEGEN--\":8:11   */\n      dup2\n        /* \"--CODEGEN--\":5:16   */\n      lt\n        /* \"--CODEGEN--\":2:4   */\n      iszero\n      tag_257\n      jumpi\n        /* \"--CODEGEN--\":29:30   */\n      0x0\n        /* \"--CODEGEN--\":26:27   */\n      dup1\n        /* \"--CODEGEN--\":19:31   */\n      revert\n        /* \"--CODEGEN--\":2:4   */\n    tag_257:\n      pop\n        /* \"contracts/HashRegistrarSimplified.sol\":9333:9347  h.deed.owner() */\n      mload\n        /* \"contracts/HashRegistrarSimplified.sol\":9307:9325  trySetSubnodeOwner */\n      tag_238\n        /* \"contracts/HashRegistrarSimplified.sol\":9307:9348  trySetSubnodeOwner(_hash, h.deed.owner()) */\n      jump\t// in\n    tag_254:\n        /* \"contracts/HashRegistrarSimplified.sol\":9381:9387  h.deed */\n      dup2\n      sload\n        /* \"contracts/HashRegistrarSimplified.sol\":9381:9395  h.deed.owner() */\n      0x40\n      dup1\n      mload\n      mul(0x8da5cb5b, exp(0x2, 0xe0))\n      dup2\n      mstore\n      swap1\n      mload\n      sub(exp(0x2, 0xa0), 0x1)\n        /* \"contracts/HashRegistrarSimplified.sol\":9381:9387  h.deed */\n      swap1\n      swap3\n      and\n      swap2\n        /* \"contracts/HashRegistrarSimplified.sol\":9381:9393  h.deed.owner */\n      0x8da5cb5b\n      swap2\n        /* \"contracts/HashRegistrarSimplified.sol\":9381:9395  h.deed.owner() */\n      0x4\n      dup1\n      dup3\n      add\n      swap3\n      0x20\n      swap3\n      swap1\n      swap2\n      swap1\n      dup3\n      swap1\n      sub\n      add\n      dup2\n        /* \"contracts/HashRegistrarSimplified.sol\":9381:9387  h.deed */\n      0x0\n      dup8\n        /* \"contracts/HashRegistrarSimplified.sol\":9381:9395  h.deed.owner() */\n      dup1\n      extcodesize\n      iszero\n        /* \"--CODEGEN--\":5:7   */\n      dup1\n      iszero\n      tag_258\n      jumpi\n        /* \"--CODEGEN--\":30:31   */\n      0x0\n        /* \"--CODEGEN--\":27:28   */\n      dup1\n        /* \"--CODEGEN--\":20:32   */\n      revert\n        /* \"--CODEGEN--\":5:7   */\n    tag_258:\n        /* \"contracts/HashRegistrarSimplified.sol\":9381:9395  h.deed.owner() */\n      pop\n      gas\n      call\n      iszero\n        /* \"--CODEGEN--\":8:17   */\n      dup1\n        /* \"--CODEGEN--\":5:7   */\n      iszero\n      tag_259\n      jumpi\n        /* \"--CODEGEN--\":45:61   */\n      returndatasize\n        /* \"--CODEGEN--\":42:43   */\n      0x0\n        /* \"--CODEGEN--\":39:40   */\n      dup1\n        /* \"--CODEGEN--\":24:62   */\n      returndatacopy\n        /* \"--CODEGEN--\":77:93   */\n      returndatasize\n        /* \"--CODEGEN--\":74:75   */\n      0x0\n        /* \"--CODEGEN--\":67:94   */\n      revert\n        /* \"--CODEGEN--\":5:7   */\n    tag_259:\n        /* \"contracts/HashRegistrarSimplified.sol\":9381:9395  h.deed.owner() */\n      pop\n      pop\n      pop\n      pop\n      mload(0x40)\n      returndatasize\n        /* \"--CODEGEN--\":13:15   */\n      0x20\n        /* \"--CODEGEN--\":8:11   */\n      dup2\n        /* \"--CODEGEN--\":5:16   */\n      lt\n        /* \"--CODEGEN--\":2:4   */\n      iszero\n      tag_260\n      jumpi\n        /* \"--CODEGEN--\":29:30   */\n      0x0\n        /* \"--CODEGEN--\":26:27   */\n      dup1\n        /* \"--CODEGEN--\":19:31   */\n      revert\n        /* \"--CODEGEN--\":2:4   */\n    tag_260:\n      pop\n        /* \"contracts/HashRegistrarSimplified.sol\":9381:9395  h.deed.owner() */\n      mload\n        /* \"contracts/HashRegistrarSimplified.sol\":9397:9404  h.value */\n      0x2\n      dup4\n      add\n      sload\n        /* \"contracts/HashRegistrarSimplified.sol\":9406:9424  h.registrationDate */\n      0x1\n      dup5\n      add\n      sload\n        /* \"contracts/HashRegistrarSimplified.sol\":9359:9425  HashRegistered(_hash, h.deed.owner(), h.value, h.registrationDate) */\n      0x40\n      dup1\n      mload\n      swap3\n      dup4\n      mstore\n        /* \"contracts/HashRegistrarSimplified.sol\":9381:9395  h.deed.owner() */\n      0x20\n        /* \"contracts/HashRegistrarSimplified.sol\":9359:9425  HashRegistered(_hash, h.deed.owner(), h.value, h.registrationDate) */\n      dup4\n      add\n      swap2\n      swap1\n      swap2\n      mstore\n      dup1\n      mload\n      sub(exp(0x2, 0xa0), 0x1)\n      swap1\n      swap4\n      and\n      swap3\n        /* \"contracts/HashRegistrarSimplified.sol\":9374:9379  _hash */\n      dup7\n      swap3\n        /* \"contracts/HashRegistrarSimplified.sol\":9359:9425  HashRegistered(_hash, h.deed.owner(), h.value, h.registrationDate) */\n      0xf0c27adfd84b60b6f456b0e87cdccb1e5fb9603991588d87fa99f5b6b61e670\n      swap3\n      swap1\n      dup3\n      swap1\n      sub\n      add\n      swap1\n      log3\n        /* \"contracts/HashRegistrarSimplified.sol\":9008:9433  function finalizeAuction(bytes32 _hash) public onlyOwner(_hash) {\r... */\n      pop\n      pop\n      pop\n      jump\t// out\n        /* \"contracts/HashRegistrarSimplified.sol\":1038:1065  uint public registryStarted */\n    tag_71:\n      sload(0x4)\n      dup2\n      jump\t// out\n        /* \"contracts/HashRegistrarSimplified.sol\":942:987  uint32 public constant launchLength = 8 weeks */\n    tag_74:\n        /* \"contracts/HashRegistrarSimplified.sol\":980:987  8 weeks */\n      0x49d400\n        /* \"contracts/HashRegistrarSimplified.sol\":942:987  uint32 public constant launchLength = 8 weeks */\n      dup2\n      jump\t// out\n        /* \"contracts/HashRegistrarSimplified.sol\":4781:5174  function newBid(bytes32 sealedBid) public payable {\r... */\n    tag_76:\n        /* \"contracts/HashRegistrarSimplified.sol\":4869:4879  msg.sender */\n      caller\n        /* \"contracts/HashRegistrarSimplified.sol\":5009:5020  Deed newBid */\n      0x0\n        /* \"contracts/HashRegistrarSimplified.sol\":4858:4880  sealedBids[msg.sender] */\n      swap1\n      dup2\n      mstore\n        /* \"contracts/HashRegistrarSimplified.sol\":4858:4868  sealedBids */\n      0x3\n        /* \"contracts/HashRegistrarSimplified.sol\":4858:4880  sealedBids[msg.sender] */\n      0x20\n      swap1\n      dup2\n      mstore\n      0x40\n      dup1\n      dup4\n      keccak256\n        /* \"contracts/HashRegistrarSimplified.sol\":4858:4891  sealedBids[msg.sender][sealedBid] */\n      dup5\n      dup5\n      mstore\n      swap1\n      swap2\n      mstore\n      dup2\n      keccak256\n      sload\n      sub(exp(0x2, 0xa0), 0x1)\n      and\n        /* \"contracts/HashRegistrarSimplified.sol\":4850:4899  address(sealedBids[msg.sender][sealedBid]) == 0x0 */\n      iszero\n        /* \"contracts/HashRegistrarSimplified.sol\":4842:4900  require(address(sealedBids[msg.sender][sealedBid]) == 0x0) */\n      tag_262\n      jumpi\n      0x0\n      dup1\n      revert\n    tag_262:\n        /* \"contracts/HashRegistrarSimplified.sol\":1021:1031  0.01 ether */\n      0x2386f26fc10000\n        /* \"contracts/HashRegistrarSimplified.sol\":4919:4928  msg.value */\n      callvalue\n        /* \"contracts/HashRegistrarSimplified.sol\":4919:4940  msg.value >= minPrice */\n      lt\n      iszero\n        /* \"contracts/HashRegistrarSimplified.sol\":4911:4941  require(msg.value >= minPrice) */\n      tag_263\n      jumpi\n      0x0\n      dup1\n      revert\n    tag_263:\n        /* \"contracts/HashRegistrarSimplified.sol\":5040:5049  msg.value */\n      callvalue\n        /* \"contracts/HashRegistrarSimplified.sol\":5051:5061  msg.sender */\n      caller\n        /* \"contracts/HashRegistrarSimplified.sol\":5023:5062  (new Deed).value(msg.value)(msg.sender) */\n      tag_264\n      jump\t// in(tag_265)\n    tag_264:\n      sub(exp(0x2, 0xa0), 0x1)\n      swap1\n      swap2\n      and\n      dup2\n      mstore\n      mload(0x40)\n      swap1\n      dup2\n      swap1\n      sub\n      0x20\n      add\n      swap1\n      dup3\n      create\n      dup1\n      iszero\n        /* \"--CODEGEN--\":8:17   */\n      dup1\n        /* \"--CODEGEN--\":5:7   */\n      iszero\n      tag_266\n      jumpi\n        /* \"--CODEGEN--\":45:61   */\n      returndatasize\n        /* \"--CODEGEN--\":42:43   */\n      0x0\n        /* \"--CODEGEN--\":39:40   */\n      dup1\n        /* \"--CODEGEN--\":24:62   */\n      returndatacopy\n        /* \"--CODEGEN--\":77:93   */\n      returndatasize\n        /* \"--CODEGEN--\":74:75   */\n      0x0\n        /* \"--CODEGEN--\":67:94   */\n      revert\n        /* \"--CODEGEN--\":5:7   */\n    tag_266:\n      pop\n        /* \"contracts/HashRegistrarSimplified.sol\":5084:5094  msg.sender */\n      caller\n        /* \"contracts/HashRegistrarSimplified.sol\":5073:5095  sealedBids[msg.sender] */\n      0x0\n      dup2\n      dup2\n      mstore\n        /* \"contracts/HashRegistrarSimplified.sol\":5073:5083  sealedBids */\n      0x3\n        /* \"contracts/HashRegistrarSimplified.sol\":5073:5095  sealedBids[msg.sender] */\n      0x20\n      swap1\n      dup2\n      mstore\n      0x40\n      dup1\n      dup4\n      keccak256\n        /* \"contracts/HashRegistrarSimplified.sol\":5073:5106  sealedBids[msg.sender][sealedBid] */\n      dup9\n      dup5\n      mstore\n      dup3\n      mstore\n      swap2\n      dup3\n      swap1\n      keccak256\n        /* \"contracts/HashRegistrarSimplified.sol\":5073:5115  sealedBids[msg.sender][sealedBid] = newBid */\n      dup1\n      sload\n      not(sub(exp(0x2, 0xa0), 0x1))\n      and\n      sub(exp(0x2, 0xa0), 0x1)\n      dup7\n      and\n      or\n      swap1\n      sstore\n        /* \"contracts/HashRegistrarSimplified.sol\":5126:5166  NewBid(sealedBid, msg.sender, msg.value) */\n      dup2\n      mload\n        /* \"contracts/HashRegistrarSimplified.sol\":5156:5165  msg.value */\n      callvalue\n        /* \"contracts/HashRegistrarSimplified.sol\":5126:5166  NewBid(sealedBid, msg.sender, msg.value) */\n      dup2\n      mstore\n      swap2\n      mload\n        /* \"contracts/HashRegistrarSimplified.sol\":5073:5115  sealedBids[msg.sender][sealedBid] = newBid */\n      swap4\n      swap6\n      pop\n        /* \"contracts/HashRegistrarSimplified.sol\":5084:5094  msg.sender */\n      swap2\n      swap4\n      pop\n        /* \"contracts/HashRegistrarSimplified.sol\":5073:5106  sealedBids[msg.sender][sealedBid] */\n      dup6\n      swap3\n        /* \"contracts/HashRegistrarSimplified.sol\":5126:5166  NewBid(sealedBid, msg.sender, msg.value) */\n      0xb556ff269c1b6714f432c36431e2041d28436a73b6c3f19c021827bbdc6bfc29\n      swap3\n      swap2\n      dup2\n      swap1\n      sub\n      swap1\n      swap2\n      add\n      swap1\n      log3\n        /* \"contracts/HashRegistrarSimplified.sol\":4781:5174  function newBid(bytes32 sealedBid) public payable {\r... */\n      pop\n      pop\n      jump\t// out\n        /* \"contracts/HashRegistrarSimplified.sol\":12358:12583  function eraseNode(bytes32[] labels) public {\r... */\n    tag_79:\n        /* \"contracts/HashRegistrarSimplified.sol\":12421:12434  labels.length */\n      dup1\n      mload\n        /* \"contracts/HashRegistrarSimplified.sol\":12421:12439  labels.length != 0 */\n      iszero\n      iszero\n        /* \"contracts/HashRegistrarSimplified.sol\":12413:12440  require(labels.length != 0) */\n      tag_268\n      jumpi\n      0x0\n      dup1\n      revert\n    tag_268:\n        /* \"contracts/HashRegistrarSimplified.sol\":12495:12505  Mode.Owned */\n      0x2\n        /* \"contracts/HashRegistrarSimplified.sol\":12459:12491  state(labels[labels.length - 1]) */\n      tag_270\n        /* \"contracts/HashRegistrarSimplified.sol\":12465:12471  labels */\n      dup3\n        /* \"contracts/HashRegistrarSimplified.sol\":12488:12489  1 */\n      0x1\n        /* \"contracts/HashRegistrarSimplified.sol\":12472:12478  labels */\n      dup5\n        /* \"contracts/HashRegistrarSimplified.sol\":12472:12485  labels.length */\n      mload\n        /* \"contracts/HashRegistrarSimplified.sol\":12472:12489  labels.length - 1 */\n      sub\n        /* \"contracts/HashRegistrarSimplified.sol\":12465:12490  labels[labels.length - 1] */\n      dup2\n      mload\n      dup2\n      lt\n      iszero\n      iszero\n      tag_271\n      jumpi\n      invalid\n    tag_271:\n      swap1\n      0x20\n      add\n      swap1\n      0x20\n      mul\n      add\n      mload\n        /* \"contracts/HashRegistrarSimplified.sol\":12459:12464  state */\n      tag_58\n        /* \"contracts/HashRegistrarSimplified.sol\":12459:12491  state(labels[labels.length - 1]) */\n      jump\t// in\n    tag_270:\n        /* \"contracts/HashRegistrarSimplified.sol\":12459:12505  state(labels[labels.length - 1]) != Mode.Owned */\n      0x5\n      dup2\n      gt\n      iszero\n      tag_272\n      jumpi\n      invalid\n    tag_272:\n      eq\n      iszero\n        /* \"contracts/HashRegistrarSimplified.sol\":12451:12506  require(state(labels[labels.length - 1]) != Mode.Owned) */\n      tag_273\n      jumpi\n      0x0\n      dup1\n      revert\n    tag_273:\n        /* \"contracts/HashRegistrarSimplified.sol\":12519:12575  _eraseNodeHierarchy(labels.length - 1, labels, rootNode) */\n      tag_274\n        /* \"contracts/HashRegistrarSimplified.sol\":12555:12556  1 */\n      0x1\n        /* \"contracts/HashRegistrarSimplified.sol\":12539:12545  labels */\n      dup3\n        /* \"contracts/HashRegistrarSimplified.sol\":12539:12552  labels.length */\n      mload\n        /* \"contracts/HashRegistrarSimplified.sol\":12539:12556  labels.length - 1 */\n      sub\n        /* \"contracts/HashRegistrarSimplified.sol\":12558:12564  labels */\n      dup3\n        /* \"contracts/HashRegistrarSimplified.sol\":12566:12574  rootNode */\n      sload(0x1)\n        /* \"contracts/HashRegistrarSimplified.sol\":12519:12538  _eraseNodeHierarchy */\n      tag_275\n        /* \"contracts/HashRegistrarSimplified.sol\":12519:12575  _eraseNodeHierarchy(labels.length - 1, labels, rootNode) */\n      jump\t// in\n    tag_274:\n        /* \"contracts/HashRegistrarSimplified.sol\":12358:12583  function eraseNode(bytes32[] labels) public {\r... */\n      pop\n      jump\t// out\n        /* \"contracts/HashRegistrarSimplified.sol\":3749:3910  function startAuctions(bytes32[] _hashes) public {\r... */\n    tag_82:\n        /* \"contracts/HashRegistrarSimplified.sol\":3814:3820  uint i */\n      0x0\n        /* \"contracts/HashRegistrarSimplified.sol\":3809:3903  for (uint i = 0; i < _hashes.length; i ++) {\r... */\n    tag_277:\n        /* \"contracts/HashRegistrarSimplified.sol\":3830:3837  _hashes */\n      dup2\n        /* \"contracts/HashRegistrarSimplified.sol\":3830:3844  _hashes.length */\n      mload\n        /* \"contracts/HashRegistrarSimplified.sol\":3826:3827  i */\n      dup2\n        /* \"contracts/HashRegistrarSimplified.sol\":3826:3844  i < _hashes.length */\n      lt\n        /* \"contracts/HashRegistrarSimplified.sol\":3809:3903  for (uint i = 0; i < _hashes.length; i ++) {\r... */\n      iszero\n      tag_278\n      jumpi\n        /* \"contracts/HashRegistrarSimplified.sol\":3867:3891  startAuction(_hashes[i]) */\n      tag_280\n        /* \"contracts/HashRegistrarSimplified.sol\":3880:3887  _hashes */\n      dup3\n        /* \"contracts/HashRegistrarSimplified.sol\":3888:3889  i */\n      dup3\n        /* \"contracts/HashRegistrarSimplified.sol\":3880:3890  _hashes[i] */\n      dup2\n      mload\n      dup2\n      lt\n      iszero\n      iszero\n      tag_281\n      jumpi\n      invalid\n    tag_281:\n      swap1\n      0x20\n      add\n      swap1\n      0x20\n      mul\n      add\n      mload\n        /* \"contracts/HashRegistrarSimplified.sol\":3867:3879  startAuction */\n      tag_88\n        /* \"contracts/HashRegistrarSimplified.sol\":3867:3891  startAuction(_hashes[i]) */\n      jump\t// in\n    tag_280:\n        /* \"contracts/HashRegistrarSimplified.sol\":3846:3850  i ++ */\n      0x1\n      add\n        /* \"contracts/HashRegistrarSimplified.sol\":3809:3903  for (uint i = 0; i < _hashes.length; i ++) {\r... */\n      jump(tag_277)\n    tag_278:\n        /* \"contracts/HashRegistrarSimplified.sol\":3749:3910  function startAuctions(bytes32[] _hashes) public {\r... */\n      pop\n      pop\n      jump\t// out\n        /* \"contracts/HashRegistrarSimplified.sol\":13810:13982  function acceptRegistrarTransfer(bytes32 hash, Deed deed, uint registrationDate) public {\r... */\n    tag_85:\n      pop\n      pop\n      pop\n      jump\t// out\n        /* \"contracts/HashRegistrarSimplified.sol\":2712:3142  function startAuction(bytes32 _hash) public registryOpen() {\r... */\n    tag_88:\n        /* \"contracts/HashRegistrarSimplified.sol\":2782:2791  Mode mode */\n      0x0\n        /* \"contracts/HashRegistrarSimplified.sol\":2899:2923  Entry storage newAuction */\n      dup1\n        /* \"contracts/HashRegistrarSimplified.sol\":2041:2056  registryStarted */\n      sload(0x4)\n        /* \"contracts/HashRegistrarSimplified.sol\":2034:2037  now */\n      timestamp\n        /* \"contracts/HashRegistrarSimplified.sol\":2034:2056  now >= registryStarted */\n      lt\n      iszero\n        /* \"contracts/HashRegistrarSimplified.sol\":2034:2092  now >= registryStarted && now <= registryStarted + 4 years */\n      dup1\n      iszero\n      tag_284\n      jumpi\n      pop\n        /* \"contracts/HashRegistrarSimplified.sol\":2067:2082  registryStarted */\n      sload(0x4)\n        /* \"contracts/HashRegistrarSimplified.sol\":2085:2092  4 years */\n      0x784ce00\n        /* \"contracts/HashRegistrarSimplified.sol\":2067:2092  registryStarted + 4 years */\n      add\n        /* \"contracts/HashRegistrarSimplified.sol\":2060:2063  now */\n      timestamp\n        /* \"contracts/HashRegistrarSimplified.sol\":2060:2092  now <= registryStarted + 4 years */\n      gt\n      iszero\n        /* \"contracts/HashRegistrarSimplified.sol\":2034:2092  now >= registryStarted && now <= registryStarted + 4 years */\n    tag_284:\n        /* \"contracts/HashRegistrarSimplified.sol\":2034:2132  now >= registryStarted && now <= registryStarted + 4 years && ens.owner(rootNode) == address(this) */\n      dup1\n      iszero\n      tag_285\n      jumpi\n      pop\n        /* \"contracts/HashRegistrarSimplified.sol\":2096:2099  ens */\n      0x0\n      dup1\n      sload\n      0x1\n        /* \"contracts/HashRegistrarSimplified.sol\":2106:2114  rootNode */\n      sload\n        /* \"contracts/HashRegistrarSimplified.sol\":2096:2115  ens.owner(rootNode) */\n      0x40\n      dup1\n      mload\n      mul(0x2571be3, exp(0x2, 0xe0))\n      dup2\n      mstore\n      0x4\n      dup2\n      add\n      swap3\n      swap1\n      swap3\n      mstore\n      mload\n        /* \"contracts/HashRegistrarSimplified.sol\":2127:2131  this */\n      address\n      swap4\n      sub(exp(0x2, 0xa0), 0x1)\n        /* \"contracts/HashRegistrarSimplified.sol\":2096:2099  ens */\n      swap1\n      swap4\n      and\n      swap3\n        /* \"contracts/HashRegistrarSimplified.sol\":2096:2105  ens.owner */\n      0x2571be3\n      swap3\n        /* \"contracts/HashRegistrarSimplified.sol\":2096:2115  ens.owner(rootNode) */\n      0x24\n      dup1\n      dup3\n      add\n      swap4\n      0x20\n      swap4\n      swap1\n      swap3\n      dup4\n      swap1\n      sub\n      swap1\n      swap2\n      add\n      swap1\n      dup3\n      swap1\n        /* \"contracts/HashRegistrarSimplified.sol\":2096:2099  ens */\n      dup8\n        /* \"contracts/HashRegistrarSimplified.sol\":2096:2115  ens.owner(rootNode) */\n      dup1\n      extcodesize\n      iszero\n        /* \"--CODEGEN--\":5:7   */\n      dup1\n      iszero\n      tag_286\n      jumpi\n        /* \"--CODEGEN--\":30:31   */\n      0x0\n        /* \"--CODEGEN--\":27:28   */\n      dup1\n        /* \"--CODEGEN--\":20:32   */\n      revert\n        /* \"--CODEGEN--\":5:7   */\n    tag_286:\n        /* \"contracts/HashRegistrarSimplified.sol\":2096:2115  ens.owner(rootNode) */\n      pop\n      gas\n      call\n      iszero\n        /* \"--CODEGEN--\":8:17   */\n      dup1\n        /* \"--CODEGEN--\":5:7   */\n      iszero\n      tag_287\n      jumpi\n        /* \"--CODEGEN--\":45:61   */\n      returndatasize\n        /* \"--CODEGEN--\":42:43   */\n      0x0\n        /* \"--CODEGEN--\":39:40   */\n      dup1\n        /* \"--CODEGEN--\":24:62   */\n      returndatacopy\n        /* \"--CODEGEN--\":77:93   */\n      returndatasize\n        /* \"--CODEGEN--\":74:75   */\n      0x0\n        /* \"--CODEGEN--\":67:94   */\n      revert\n        /* \"--CODEGEN--\":5:7   */\n    tag_287:\n        /* \"contracts/HashRegistrarSimplified.sol\":2096:2115  ens.owner(rootNode) */\n      pop\n      pop\n      pop\n      pop\n      mload(0x40)\n      returndatasize\n        /* \"--CODEGEN--\":13:15   */\n      0x20\n        /* \"--CODEGEN--\":8:11   */\n      dup2\n        /* \"--CODEGEN--\":5:16   */\n      lt\n        /* \"--CODEGEN--\":2:4   */\n      iszero\n      tag_288\n      jumpi\n        /* \"--CODEGEN--\":29:30   */\n      0x0\n        /* \"--CODEGEN--\":26:27   */\n      dup1\n        /* \"--CODEGEN--\":19:31   */\n      revert\n        /* \"--CODEGEN--\":2:4   */\n    tag_288:\n      pop\n        /* \"contracts/HashRegistrarSimplified.sol\":2096:2115  ens.owner(rootNode) */\n      mload\n      sub(exp(0x2, 0xa0), 0x1)\n        /* \"contracts/HashRegistrarSimplified.sol\":2096:2132  ens.owner(rootNode) == address(this) */\n      and\n      eq\n        /* \"contracts/HashRegistrarSimplified.sol\":2034:2132  now >= registryStarted && now <= registryStarted + 4 years && ens.owner(rootNode) == address(this) */\n    tag_285:\n        /* \"contracts/HashRegistrarSimplified.sol\":2026:2133  require(now >= registryStarted && now <= registryStarted + 4 years && ens.owner(rootNode) == address(this)) */\n      iszero\n      iszero\n      tag_289\n      jumpi\n      0x0\n      dup1\n      revert\n    tag_289:\n        /* \"contracts/HashRegistrarSimplified.sol\":2794:2806  state(_hash) */\n      tag_291\n        /* \"contracts/HashRegistrarSimplified.sol\":2800:2805  _hash */\n      dup4\n        /* \"contracts/HashRegistrarSimplified.sol\":2794:2799  state */\n      tag_58\n        /* \"contracts/HashRegistrarSimplified.sol\":2794:2806  state(_hash) */\n      jump\t// in\n    tag_291:\n        /* \"contracts/HashRegistrarSimplified.sol\":2782:2806  Mode mode = state(_hash) */\n      swap2\n      pop\n        /* \"contracts/HashRegistrarSimplified.sol\":2829:2841  Mode.Auction */\n      0x1\n        /* \"contracts/HashRegistrarSimplified.sol\":2821:2825  mode */\n      dup3\n        /* \"contracts/HashRegistrarSimplified.sol\":2821:2841  mode == Mode.Auction */\n      0x5\n      dup2\n      gt\n      iszero\n      tag_293\n      jumpi\n      invalid\n    tag_293:\n      eq\n        /* \"contracts/HashRegistrarSimplified.sol\":2817:2850  if (mode == Mode.Auction) return; */\n      iszero\n      tag_294\n      jumpi\n        /* \"contracts/HashRegistrarSimplified.sol\":2843:2850  return; */\n      jump(tag_85)\n        /* \"contracts/HashRegistrarSimplified.sol\":2817:2850  if (mode == Mode.Auction) return; */\n    tag_294:\n        /* \"contracts/HashRegistrarSimplified.sol\":2876:2885  Mode.Open */\n      0x0\n        /* \"contracts/HashRegistrarSimplified.sol\":2868:2872  mode */\n      dup3\n        /* \"contracts/HashRegistrarSimplified.sol\":2868:2885  mode == Mode.Open */\n      0x5\n      dup2\n      gt\n      iszero\n      tag_296\n      jumpi\n      invalid\n    tag_296:\n      eq\n        /* \"contracts/HashRegistrarSimplified.sol\":2860:2886  require(mode == Mode.Open) */\n      tag_297\n      jumpi\n      0x0\n      dup1\n      revert\n    tag_297:\n      pop\n        /* \"contracts/HashRegistrarSimplified.sol\":2926:2941  _entries[_hash] */\n      0x0\n      dup3\n      dup2\n      mstore\n        /* \"contracts/HashRegistrarSimplified.sol\":2926:2934  _entries */\n      0x2\n        /* \"contracts/HashRegistrarSimplified.sol\":2926:2941  _entries[_hash] */\n      0x20\n      dup2\n      dup2\n      mstore\n      0x40\n      dup1\n      dup5\n      keccak256\n        /* \"contracts/HashRegistrarSimplified.sol\":2982:2985  now */\n      timestamp\n        /* \"contracts/HashRegistrarSimplified.sol\":883:889  5 days */\n      0x69780\n        /* \"contracts/HashRegistrarSimplified.sol\":2982:3006  now + totalAuctionLength */\n      add\n        /* \"contracts/HashRegistrarSimplified.sol\":2952:2979  newAuction.registrationDate */\n      0x1\n      dup3\n      add\n        /* \"contracts/HashRegistrarSimplified.sol\":2952:3006  newAuction.registrationDate = now + totalAuctionLength */\n      dup2\n      swap1\n      sstore\n        /* \"contracts/HashRegistrarSimplified.sol\":3017:3033  newAuction.value */\n      swap4\n      dup2\n      add\n        /* \"contracts/HashRegistrarSimplified.sol\":3017:3037  newAuction.value = 0 */\n      dup6\n      swap1\n      sstore\n        /* \"contracts/HashRegistrarSimplified.sol\":3048:3069  newAuction.highestBid */\n      0x3\n      dup2\n      add\n        /* \"contracts/HashRegistrarSimplified.sol\":3048:3073  newAuction.highestBid = 0 */\n      swap5\n      swap1\n      swap5\n      sstore\n        /* \"contracts/HashRegistrarSimplified.sol\":3084:3134  AuctionStarted(_hash, newAuction.registrationDate) */\n      dup1\n      mload\n      swap3\n      dup4\n      mstore\n      mload\n        /* \"contracts/HashRegistrarSimplified.sol\":2935:2940  _hash */\n      dup6\n      swap3\n        /* \"contracts/HashRegistrarSimplified.sol\":3084:3134  AuctionStarted(_hash, newAuction.registrationDate) */\n      0x87e97e825a1d1fa0c54e1d36c7506c1dea8b1efd451fe68b000cf96f7cf40003\n      swap3\n      swap1\n      dup3\n      swap1\n      sub\n      add\n      swap1\n      log2\n        /* \"contracts/HashRegistrarSimplified.sol\":2712:3142  function startAuction(bytes32 _hash) public registryOpen() {\r... */\n      pop\n      pop\n      pop\n      jump\t// out\n        /* \"contracts/HashRegistrarSimplified.sol\":617:640  bytes32 public rootNode */\n    tag_91:\n      sload(0x1)\n      dup2\n      jump\t// out\n        /* \"contracts/HashRegistrarSimplified.sol\":5527:5676  function startAuctionsAndBid(bytes32[] hashes, bytes32 sealedBid) public payable {\r... */\n    tag_93:\n        /* \"contracts/HashRegistrarSimplified.sol\":5619:5640  startAuctions(hashes) */\n      tag_299\n        /* \"contracts/HashRegistrarSimplified.sol\":5633:5639  hashes */\n      dup3\n        /* \"contracts/HashRegistrarSimplified.sol\":5619:5632  startAuctions */\n      tag_82\n        /* \"contracts/HashRegistrarSimplified.sol\":5619:5640  startAuctions(hashes) */\n      jump\t// in\n    tag_299:\n        /* \"contracts/HashRegistrarSimplified.sol\":5651:5668  newBid(sealedBid) */\n      tag_278\n        /* \"contracts/HashRegistrarSimplified.sol\":5658:5667  sealedBid */\n      dup2\n        /* \"contracts/HashRegistrarSimplified.sol\":5651:5657  newBid */\n      tag_76\n        /* \"contracts/HashRegistrarSimplified.sol\":5651:5668  newBid(sealedBid) */\n      jump\t// in\n        /* \"contracts/HashRegistrarSimplified.sol\":16456:16778  function _tryEraseSingleNode(bytes32 label) internal {\r... */\n    tag_110:\n        /* \"contracts/HashRegistrarSimplified.sol\":16643:16655  bytes32 node */\n      0x0\n        /* \"contracts/HashRegistrarSimplified.sol\":16524:16527  ens */\n      dup1\n      sload\n      0x1\n        /* \"contracts/HashRegistrarSimplified.sol\":16534:16542  rootNode */\n      sload\n        /* \"contracts/HashRegistrarSimplified.sol\":16524:16543  ens.owner(rootNode) */\n      0x40\n      dup1\n      mload\n      mul(0x2571be3, exp(0x2, 0xe0))\n      dup2\n      mstore\n      0x4\n      dup2\n      add\n      swap3\n      swap1\n      swap3\n      mstore\n      mload\n        /* \"contracts/HashRegistrarSimplified.sol\":16555:16559  this */\n      address\n      swap3\n      sub(exp(0x2, 0xa0), 0x1)\n        /* \"contracts/HashRegistrarSimplified.sol\":16524:16527  ens */\n      and\n      swap2\n        /* \"contracts/HashRegistrarSimplified.sol\":16524:16533  ens.owner */\n      0x2571be3\n      swap2\n        /* \"contracts/HashRegistrarSimplified.sol\":16524:16543  ens.owner(rootNode) */\n      0x24\n      dup1\n      dup4\n      add\n      swap3\n      0x20\n      swap3\n      swap2\n      swap1\n      dup3\n      swap1\n      sub\n      add\n      dup2\n        /* \"contracts/HashRegistrarSimplified.sol\":16643:16655  bytes32 node */\n      dup9\n        /* \"contracts/HashRegistrarSimplified.sol\":16524:16527  ens */\n      dup8\n        /* \"contracts/HashRegistrarSimplified.sol\":16524:16543  ens.owner(rootNode) */\n      dup1\n      extcodesize\n      iszero\n        /* \"--CODEGEN--\":5:7   */\n      dup1\n      iszero\n      tag_302\n      jumpi\n        /* \"--CODEGEN--\":30:31   */\n      0x0\n        /* \"--CODEGEN--\":27:28   */\n      dup1\n        /* \"--CODEGEN--\":20:32   */\n      revert\n        /* \"--CODEGEN--\":5:7   */\n    tag_302:\n        /* \"contracts/HashRegistrarSimplified.sol\":16524:16543  ens.owner(rootNode) */\n      pop\n      gas\n      call\n      iszero\n        /* \"--CODEGEN--\":8:17   */\n      dup1\n        /* \"--CODEGEN--\":5:7   */\n      iszero\n      tag_303\n      jumpi\n        /* \"--CODEGEN--\":45:61   */\n      returndatasize\n        /* \"--CODEGEN--\":42:43   */\n      0x0\n        /* \"--CODEGEN--\":39:40   */\n      dup1\n        /* \"--CODEGEN--\":24:62   */\n      returndatacopy\n        /* \"--CODEGEN--\":77:93   */\n      returndatasize\n        /* \"--CODEGEN--\":74:75   */\n      0x0\n        /* \"--CODEGEN--\":67:94   */\n      revert\n        /* \"--CODEGEN--\":5:7   */\n    tag_303:\n        /* \"contracts/HashRegistrarSimplified.sol\":16524:16543  ens.owner(rootNode) */\n      pop\n      pop\n      pop\n      pop\n      mload(0x40)\n      returndatasize\n        /* \"--CODEGEN--\":13:15   */\n      0x20\n        /* \"--CODEGEN--\":8:11   */\n      dup2\n        /* \"--CODEGEN--\":5:16   */\n      lt\n        /* \"--CODEGEN--\":2:4   */\n      iszero\n      tag_304\n      jumpi\n        /* \"--CODEGEN--\":29:30   */\n      0x0\n        /* \"--CODEGEN--\":26:27   */\n      dup1\n        /* \"--CODEGEN--\":19:31   */\n      revert\n        /* \"--CODEGEN--\":2:4   */\n    tag_304:\n      pop\n        /* \"contracts/HashRegistrarSimplified.sol\":16524:16543  ens.owner(rootNode) */\n      mload\n      sub(exp(0x2, 0xa0), 0x1)\n        /* \"contracts/HashRegistrarSimplified.sol\":16524:16560  ens.owner(rootNode) == address(this) */\n      and\n      eq\n        /* \"contracts/HashRegistrarSimplified.sol\":16520:16771  if (ens.owner(rootNode) == address(this)) {\r... */\n      iszero\n      tag_278\n      jumpi\n        /* \"contracts/HashRegistrarSimplified.sol\":16577:16580  ens */\n      0x0\n      dup1\n      sload\n      0x1\n        /* \"contracts/HashRegistrarSimplified.sol\":16597:16605  rootNode */\n      sload\n        /* \"contracts/HashRegistrarSimplified.sol\":16577:16628  ens.setSubnodeOwner(rootNode, label, address(this)) */\n      0x40\n      dup1\n      mload\n      0x6ab592300000000000000000000000000000000000000000000000000000000\n      dup2\n      mstore\n      0x4\n      dup2\n      add\n      swap3\n      swap1\n      swap3\n      mstore\n      0x24\n      dup3\n      add\n      dup7\n      swap1\n      mstore\n        /* \"contracts/HashRegistrarSimplified.sol\":16622:16626  this */\n      address\n        /* \"contracts/HashRegistrarSimplified.sol\":16577:16628  ens.setSubnodeOwner(rootNode, label, address(this)) */\n      0x44\n      dup4\n      add\n      mstore\n      mload\n      sub(exp(0x2, 0xa0), 0x1)\n        /* \"contracts/HashRegistrarSimplified.sol\":16577:16580  ens */\n      swap1\n      swap3\n      and\n      swap3\n        /* \"contracts/HashRegistrarSimplified.sol\":16577:16596  ens.setSubnodeOwner */\n      0x6ab5923\n      swap3\n        /* \"contracts/HashRegistrarSimplified.sol\":16577:16628  ens.setSubnodeOwner(rootNode, label, address(this)) */\n      0x64\n      dup1\n      dup5\n      add\n      swap4\n      dup3\n      swap1\n      sub\n      add\n      dup2\n        /* \"contracts/HashRegistrarSimplified.sol\":16577:16580  ens */\n      dup4\n      dup8\n        /* \"contracts/HashRegistrarSimplified.sol\":16577:16628  ens.setSubnodeOwner(rootNode, label, address(this)) */\n      dup1\n      extcodesize\n      iszero\n        /* \"--CODEGEN--\":5:7   */\n      dup1\n      iszero\n      tag_306\n      jumpi\n        /* \"--CODEGEN--\":30:31   */\n      0x0\n        /* \"--CODEGEN--\":27:28   */\n      dup1\n        /* \"--CODEGEN--\":20:32   */\n      revert\n        /* \"--CODEGEN--\":5:7   */\n    tag_306:\n        /* \"contracts/HashRegistrarSimplified.sol\":16577:16628  ens.setSubnodeOwner(rootNode, label, address(this)) */\n      pop\n      gas\n      call\n      iszero\n        /* \"--CODEGEN--\":8:17   */\n      dup1\n        /* \"--CODEGEN--\":5:7   */\n      iszero\n      tag_307\n      jumpi\n        /* \"--CODEGEN--\":45:61   */\n      returndatasize\n        /* \"--CODEGEN--\":42:43   */\n      0x0\n        /* \"--CODEGEN--\":39:40   */\n      dup1\n        /* \"--CODEGEN--\":24:62   */\n      returndatacopy\n        /* \"--CODEGEN--\":77:93   */\n      returndatasize\n        /* \"--CODEGEN--\":74:75   */\n      0x0\n        /* \"--CODEGEN--\":67:94   */\n      revert\n        /* \"--CODEGEN--\":5:7   */\n    tag_307:\n      pop\n      pop\n        /* \"contracts/HashRegistrarSimplified.sol\":16668:16676  rootNode */\n      sload(0x1)\n        /* \"contracts/HashRegistrarSimplified.sol\":16658:16684  keccak256(rootNode, label) */\n      0x40\n      dup1\n      mload\n      swap2\n      dup3\n      mstore\n      0x20\n      dup3\n      add\n      dup7\n      swap1\n      mstore\n      dup1\n      mload\n      swap2\n      dup3\n      swap1\n      sub\n      dup2\n      add\n      dup3\n      keccak256\n      0x0\n        /* \"contracts/HashRegistrarSimplified.sol\":16699:16702  ens */\n      dup1\n      sload\n        /* \"contracts/HashRegistrarSimplified.sol\":16699:16723  ens.setResolver(node, 0) */\n      0x1896f70a00000000000000000000000000000000000000000000000000000000\n      dup6\n      mstore\n      0x4\n      dup6\n      add\n      dup4\n      swap1\n      mstore\n      0x24\n      dup6\n      add\n      dup3\n      swap1\n      mstore\n      swap3\n      mload\n        /* \"contracts/HashRegistrarSimplified.sol\":16658:16684  keccak256(rootNode, label) */\n      swap2\n      swap7\n      pop\n      sub(exp(0x2, 0xa0), 0x1)\n        /* \"contracts/HashRegistrarSimplified.sol\":16699:16702  ens */\n      swap1\n      swap3\n      and\n      swap5\n      pop\n        /* \"contracts/HashRegistrarSimplified.sol\":16699:16714  ens.setResolver */\n      0x1896f70a\n      swap4\n      pop\n        /* \"contracts/HashRegistrarSimplified.sol\":16699:16723  ens.setResolver(node, 0) */\n      0x44\n      dup1\n      dup5\n      add\n      swap4\n      dup3\n      swap1\n      sub\n      add\n      dup2\n        /* \"contracts/HashRegistrarSimplified.sol\":16658:16684  keccak256(rootNode, label) */\n      dup4\n        /* \"contracts/HashRegistrarSimplified.sol\":16699:16702  ens */\n      dup8\n        /* \"contracts/HashRegistrarSimplified.sol\":16699:16723  ens.setResolver(node, 0) */\n      dup1\n      extcodesize\n      iszero\n        /* \"--CODEGEN--\":5:7   */\n      dup1\n      iszero\n      tag_308\n      jumpi\n        /* \"--CODEGEN--\":30:31   */\n      0x0\n        /* \"--CODEGEN--\":27:28   */\n      dup1\n        /* \"--CODEGEN--\":20:32   */\n      revert\n        /* \"--CODEGEN--\":5:7   */\n    tag_308:\n        /* \"contracts/HashRegistrarSimplified.sol\":16699:16723  ens.setResolver(node, 0) */\n      pop\n      gas\n      call\n      iszero\n        /* \"--CODEGEN--\":8:17   */\n      dup1\n        /* \"--CODEGEN--\":5:7   */\n      iszero\n      tag_309\n      jumpi\n        /* \"--CODEGEN--\":45:61   */\n      returndatasize\n        /* \"--CODEGEN--\":42:43   */\n      0x0\n        /* \"--CODEGEN--\":39:40   */\n      dup1\n        /* \"--CODEGEN--\":24:62   */\n      returndatacopy\n        /* \"--CODEGEN--\":77:93   */\n      returndatasize\n        /* \"--CODEGEN--\":74:75   */\n      0x0\n        /* \"--CODEGEN--\":67:94   */\n      revert\n        /* \"--CODEGEN--\":5:7   */\n    tag_309:\n      pop\n      pop\n        /* \"contracts/HashRegistrarSimplified.sol\":16738:16741  ens */\n      0x0\n      dup1\n      sload\n        /* \"contracts/HashRegistrarSimplified.sol\":16738:16759  ens.setOwner(node, 0) */\n      0x40\n      dup1\n      mload\n      0x5b0fc9c300000000000000000000000000000000000000000000000000000000\n      dup2\n      mstore\n      0x4\n      dup2\n      add\n      dup8\n      swap1\n      mstore\n      0x24\n      dup2\n      add\n      dup5\n      swap1\n      mstore\n      swap1\n      mload\n      sub(exp(0x2, 0xa0), 0x1)\n        /* \"contracts/HashRegistrarSimplified.sol\":16738:16741  ens */\n      swap1\n      swap3\n      and\n      swap5\n      pop\n        /* \"contracts/HashRegistrarSimplified.sol\":16738:16750  ens.setOwner */\n      0x5b0fc9c3\n      swap4\n      pop\n        /* \"contracts/HashRegistrarSimplified.sol\":16738:16759  ens.setOwner(node, 0) */\n      0x44\n      dup1\n      dup3\n      add\n      swap4\n        /* \"contracts/HashRegistrarSimplified.sol\":16738:16741  ens */\n      swap3\n        /* \"contracts/HashRegistrarSimplified.sol\":16738:16759  ens.setOwner(node, 0) */\n      swap2\n      dup3\n      swap1\n      sub\n      add\n      dup2\n        /* \"contracts/HashRegistrarSimplified.sol\":16738:16741  ens */\n      dup4\n      dup8\n        /* \"contracts/HashRegistrarSimplified.sol\":16738:16759  ens.setOwner(node, 0) */\n      dup1\n      extcodesize\n      iszero\n        /* \"--CODEGEN--\":5:7   */\n      dup1\n      iszero\n      tag_310\n      jumpi\n        /* \"--CODEGEN--\":30:31   */\n      0x0\n        /* \"--CODEGEN--\":27:28   */\n      dup1\n        /* \"--CODEGEN--\":20:32   */\n      revert\n        /* \"--CODEGEN--\":5:7   */\n    tag_310:\n        /* \"contracts/HashRegistrarSimplified.sol\":16738:16759  ens.setOwner(node, 0) */\n      pop\n      gas\n      call\n      iszero\n        /* \"--CODEGEN--\":8:17   */\n      dup1\n        /* \"--CODEGEN--\":5:7   */\n      iszero\n      tag_311\n      jumpi\n        /* \"--CODEGEN--\":45:61   */\n      returndatasize\n        /* \"--CODEGEN--\":42:43   */\n      0x0\n        /* \"--CODEGEN--\":39:40   */\n      dup1\n        /* \"--CODEGEN--\":24:62   */\n      returndatacopy\n        /* \"--CODEGEN--\":77:93   */\n      returndatasize\n        /* \"--CODEGEN--\":74:75   */\n      0x0\n        /* \"--CODEGEN--\":67:94   */\n      revert\n        /* \"--CODEGEN--\":5:7   */\n    tag_311:\n        /* \"contracts/HashRegistrarSimplified.sol\":16738:16759  ens.setOwner(node, 0) */\n      pop\n      pop\n      pop\n      pop\n        /* \"contracts/HashRegistrarSimplified.sol\":16456:16778  function _tryEraseSingleNode(bytes32 label) internal {\r... */\n      pop\n      pop\n      jump\t// out\n        /* \"contracts/HashRegistrarSimplified.sol\":18579:19427  function strlen(string s) internal pure returns (uint) {\r... */\n    tag_124:\n        /* \"contracts/HashRegistrarSimplified.sol\":18868:18876  mload(s) */\n      dup1\n      mload\n        /* \"contracts/HashRegistrarSimplified.sol\":18628:18632  uint */\n      0x0\n      swap1\n        /* \"contracts/HashRegistrarSimplified.sol\":18841:18842  1 */\n      0x1\n        /* \"contracts/HashRegistrarSimplified.sol\":18834:18843  add(s, 1) */\n      dup4\n      dup2\n      add\n      swap2\n        /* \"contracts/HashRegistrarSimplified.sol\":18864:18882  add(mload(s), ptr) */\n      dup5\n      add\n      add\n        /* \"contracts/HashRegistrarSimplified.sol\":18628:18632  uint */\n      dup3\n      dup1\n        /* \"contracts/HashRegistrarSimplified.sol\":18903:19399  for (uint len = 0; ptr < end; len++) {\r... */\n    tag_313:\n        /* \"contracts/HashRegistrarSimplified.sol\":18928:18931  end */\n      dup3\n        /* \"contracts/HashRegistrarSimplified.sol\":18922:18925  ptr */\n      dup5\n        /* \"contracts/HashRegistrarSimplified.sol\":18922:18931  ptr < end */\n      lt\n        /* \"contracts/HashRegistrarSimplified.sol\":18903:19399  for (uint len = 0; ptr < end; len++) {\r... */\n      iszero\n      tag_314\n      jumpi\n      pop\n        /* \"contracts/HashRegistrarSimplified.sol\":18997:19007  mload(ptr) */\n      dup3\n      mload\n        /* \"contracts/HashRegistrarSimplified.sol\":19009:19013  0xFF */\n      0xff\n        /* \"contracts/HashRegistrarSimplified.sol\":18993:19014  and(mload(ptr), 0xFF) */\n      and\n        /* \"contracts/HashRegistrarSimplified.sol\":19038:19042  0x80 */\n      0x80\n        /* \"contracts/HashRegistrarSimplified.sol\":19034:19042  b < 0x80 */\n      dup2\n      lt\n        /* \"contracts/HashRegistrarSimplified.sol\":19030:19388  if (b < 0x80) {\r... */\n      iszero\n      tag_316\n      jumpi\n        /* \"contracts/HashRegistrarSimplified.sol\":19070:19071  1 */\n      0x1\n        /* \"contracts/HashRegistrarSimplified.sol\":19063:19071  ptr += 1 */\n      dup5\n      add\n      swap4\n      pop\n        /* \"contracts/HashRegistrarSimplified.sol\":19030:19388  if (b < 0x80) {\r... */\n      jump(tag_325)\n    tag_316:\n        /* \"contracts/HashRegistrarSimplified.sol\":19101:19105  0xE0 */\n      0xe0\n        /* \"contracts/HashRegistrarSimplified.sol\":19097:19098  b */\n      dup2\n        /* \"contracts/HashRegistrarSimplified.sol\":19097:19105  b < 0xE0 */\n      0xff\n      and\n      lt\n        /* \"contracts/HashRegistrarSimplified.sol\":19093:19388  if (b < 0xE0) {\r... */\n      iszero\n      tag_318\n      jumpi\n        /* \"contracts/HashRegistrarSimplified.sol\":19133:19134  2 */\n      0x2\n        /* \"contracts/HashRegistrarSimplified.sol\":19126:19134  ptr += 2 */\n      dup5\n      add\n      swap4\n      pop\n        /* \"contracts/HashRegistrarSimplified.sol\":19093:19388  if (b < 0xE0) {\r... */\n      jump(tag_325)\n    tag_318:\n        /* \"contracts/HashRegistrarSimplified.sol\":19164:19168  0xF0 */\n      0xf0\n        /* \"contracts/HashRegistrarSimplified.sol\":19160:19161  b */\n      dup2\n        /* \"contracts/HashRegistrarSimplified.sol\":19160:19168  b < 0xF0 */\n      0xff\n      and\n      lt\n        /* \"contracts/HashRegistrarSimplified.sol\":19156:19388  if (b < 0xF0) {\r... */\n      iszero\n      tag_320\n      jumpi\n        /* \"contracts/HashRegistrarSimplified.sol\":19196:19197  3 */\n      0x3\n        /* \"contracts/HashRegistrarSimplified.sol\":19189:19197  ptr += 3 */\n      dup5\n      add\n      swap4\n      pop\n        /* \"contracts/HashRegistrarSimplified.sol\":19156:19388  if (b < 0xF0) {\r... */\n      jump(tag_325)\n    tag_320:\n        /* \"contracts/HashRegistrarSimplified.sol\":19227:19231  0xF8 */\n      0xf8\n        /* \"contracts/HashRegistrarSimplified.sol\":19223:19224  b */\n      dup2\n        /* \"contracts/HashRegistrarSimplified.sol\":19223:19231  b < 0xF8 */\n      0xff\n      and\n      lt\n        /* \"contracts/HashRegistrarSimplified.sol\":19219:19388  if (b < 0xF8) {\r... */\n      iszero\n      tag_322\n      jumpi\n        /* \"contracts/HashRegistrarSimplified.sol\":19259:19260  4 */\n      0x4\n        /* \"contracts/HashRegistrarSimplified.sol\":19252:19260  ptr += 4 */\n      dup5\n      add\n      swap4\n      pop\n        /* \"contracts/HashRegistrarSimplified.sol\":19219:19388  if (b < 0xF8) {\r... */\n      jump(tag_325)\n    tag_322:\n        /* \"contracts/HashRegistrarSimplified.sol\":19290:19294  0xFC */\n      0xfc\n        /* \"contracts/HashRegistrarSimplified.sol\":19286:19287  b */\n      dup2\n        /* \"contracts/HashRegistrarSimplified.sol\":19286:19294  b < 0xFC */\n      0xff\n      and\n      lt\n        /* \"contracts/HashRegistrarSimplified.sol\":19282:19388  if (b < 0xFC) {\r... */\n      iszero\n      tag_324\n      jumpi\n        /* \"contracts/HashRegistrarSimplified.sol\":19322:19323  5 */\n      0x5\n        /* \"contracts/HashRegistrarSimplified.sol\":19315:19323  ptr += 5 */\n      dup5\n      add\n      swap4\n      pop\n        /* \"contracts/HashRegistrarSimplified.sol\":19282:19388  if (b < 0xFC) {\r... */\n      jump(tag_325)\n    tag_324:\n        /* \"contracts/HashRegistrarSimplified.sol\":19371:19372  6 */\n      0x6\n        /* \"contracts/HashRegistrarSimplified.sol\":19364:19372  ptr += 6 */\n      dup5\n      add\n      swap4\n      pop\n        /* \"contracts/HashRegistrarSimplified.sol\":19282:19388  if (b < 0xFC) {\r... */\n    tag_325:\n        /* \"contracts/HashRegistrarSimplified.sol\":18933:18938  len++ */\n      0x1\n      swap1\n      swap2\n      add\n      swap1\n        /* \"contracts/HashRegistrarSimplified.sol\":18903:19399  for (uint len = 0; ptr < end; len++) {\r... */\n      jump(tag_313)\n    tag_314:\n      pop\n        /* \"contracts/HashRegistrarSimplified.sol\":19416:19419  len */\n      swap5\n        /* \"contracts/HashRegistrarSimplified.sol\":18579:19427  function strlen(string s) internal pure returns (uint) {\r... */\n      swap4\n      pop\n      pop\n      pop\n      pop\n      jump\t// out\n        /* \"contracts/HashRegistrarSimplified.sol\":17884:18030  function max(uint a, uint b) internal pure returns (uint) {\r... */\n    tag_132:\n        /* \"contracts/HashRegistrarSimplified.sol\":17936:17940  uint */\n      0x0\n        /* \"contracts/HashRegistrarSimplified.sol\":17961:17962  b */\n      dup2\n        /* \"contracts/HashRegistrarSimplified.sol\":17957:17958  a */\n      dup4\n        /* \"contracts/HashRegistrarSimplified.sol\":17957:17962  a > b */\n      gt\n        /* \"contracts/HashRegistrarSimplified.sol\":17953:18022  if (a > b)\r... */\n      iszero\n      tag_327\n      jumpi\n      pop\n        /* \"contracts/HashRegistrarSimplified.sol\":17984:17985  a */\n      dup2\n        /* \"contracts/HashRegistrarSimplified.sol\":17977:17985  return a */\n      jump(tag_239)\n        /* \"contracts/HashRegistrarSimplified.sol\":17953:18022  if (a > b)\r... */\n    tag_327:\n      pop\n        /* \"contracts/HashRegistrarSimplified.sol\":18021:18022  b */\n      dup1\n        /* \"contracts/HashRegistrarSimplified.sol\":18014:18022  return b */\n      jump(tag_239)\n        /* \"contracts/HashRegistrarSimplified.sol\":18249:18395  function min(uint a, uint b) internal pure returns (uint) {\r... */\n    tag_163:\n        /* \"contracts/HashRegistrarSimplified.sol\":18301:18305  uint */\n      0x0\n        /* \"contracts/HashRegistrarSimplified.sol\":18326:18327  b */\n      dup2\n        /* \"contracts/HashRegistrarSimplified.sol\":18322:18323  a */\n      dup4\n        /* \"contracts/HashRegistrarSimplified.sol\":18322:18327  a < b */\n      lt\n        /* \"contracts/HashRegistrarSimplified.sol\":18318:18387  if (a < b)\r... */\n      iszero\n      tag_327\n      jumpi\n      pop\n        /* \"contracts/HashRegistrarSimplified.sol\":18349:18350  a */\n      dup2\n        /* \"contracts/HashRegistrarSimplified.sol\":18342:18350  return a */\n      jump(tag_239)\n        /* \"contracts/HashRegistrarSimplified.sol\":17473:17665  function trySetSubnodeOwner(bytes32 _hash, address _newOwner) internal {\r... */\n    tag_238:\n        /* \"contracts/HashRegistrarSimplified.sol\":17559:17562  ens */\n      0x0\n      dup1\n      sload\n      0x1\n        /* \"contracts/HashRegistrarSimplified.sol\":17569:17577  rootNode */\n      sload\n        /* \"contracts/HashRegistrarSimplified.sol\":17559:17578  ens.owner(rootNode) */\n      0x40\n      dup1\n      mload\n      mul(0x2571be3, exp(0x2, 0xe0))\n      dup2\n      mstore\n      0x4\n      dup2\n      add\n      swap3\n      swap1\n      swap3\n      mstore\n      mload\n        /* \"contracts/HashRegistrarSimplified.sol\":17590:17594  this */\n      address\n      swap4\n      sub(exp(0x2, 0xa0), 0x1)\n        /* \"contracts/HashRegistrarSimplified.sol\":17559:17562  ens */\n      swap1\n      swap4\n      and\n      swap3\n        /* \"contracts/HashRegistrarSimplified.sol\":17559:17568  ens.owner */\n      0x2571be3\n      swap3\n        /* \"contracts/HashRegistrarSimplified.sol\":17559:17578  ens.owner(rootNode) */\n      0x24\n      dup1\n      dup3\n      add\n      swap4\n      0x20\n      swap4\n      swap1\n      swap3\n      dup4\n      swap1\n      sub\n      swap1\n      swap2\n      add\n      swap1\n      dup3\n      swap1\n        /* \"contracts/HashRegistrarSimplified.sol\":17559:17562  ens */\n      dup8\n        /* \"contracts/HashRegistrarSimplified.sol\":17559:17578  ens.owner(rootNode) */\n      dup1\n      extcodesize\n      iszero\n        /* \"--CODEGEN--\":5:7   */\n      dup1\n      iszero\n      tag_333\n      jumpi\n        /* \"--CODEGEN--\":30:31   */\n      0x0\n        /* \"--CODEGEN--\":27:28   */\n      dup1\n        /* \"--CODEGEN--\":20:32   */\n      revert\n        /* \"--CODEGEN--\":5:7   */\n    tag_333:\n        /* \"contracts/HashRegistrarSimplified.sol\":17559:17578  ens.owner(rootNode) */\n      pop\n      gas\n      call\n      iszero\n        /* \"--CODEGEN--\":8:17   */\n      dup1\n        /* \"--CODEGEN--\":5:7   */\n      iszero\n      tag_334\n      jumpi\n        /* \"--CODEGEN--\":45:61   */\n      returndatasize\n        /* \"--CODEGEN--\":42:43   */\n      0x0\n        /* \"--CODEGEN--\":39:40   */\n      dup1\n        /* \"--CODEGEN--\":24:62   */\n      returndatacopy\n        /* \"--CODEGEN--\":77:93   */\n      returndatasize\n        /* \"--CODEGEN--\":74:75   */\n      0x0\n        /* \"--CODEGEN--\":67:94   */\n      revert\n        /* \"--CODEGEN--\":5:7   */\n    tag_334:\n        /* \"contracts/HashRegistrarSimplified.sol\":17559:17578  ens.owner(rootNode) */\n      pop\n      pop\n      pop\n      pop\n      mload(0x40)\n      returndatasize\n        /* \"--CODEGEN--\":13:15   */\n      0x20\n        /* \"--CODEGEN--\":8:11   */\n      dup2\n        /* \"--CODEGEN--\":5:16   */\n      lt\n        /* \"--CODEGEN--\":2:4   */\n      iszero\n      tag_335\n      jumpi\n        /* \"--CODEGEN--\":29:30   */\n      0x0\n        /* \"--CODEGEN--\":26:27   */\n      dup1\n        /* \"--CODEGEN--\":19:31   */\n      revert\n        /* \"--CODEGEN--\":2:4   */\n    tag_335:\n      pop\n        /* \"contracts/HashRegistrarSimplified.sol\":17559:17578  ens.owner(rootNode) */\n      mload\n      sub(exp(0x2, 0xa0), 0x1)\n        /* \"contracts/HashRegistrarSimplified.sol\":17559:17595  ens.owner(rootNode) == address(this) */\n      and\n      eq\n        /* \"contracts/HashRegistrarSimplified.sol\":17555:17657  if (ens.owner(rootNode) == address(this))\r... */\n      iszero\n      tag_278\n      jumpi\n        /* \"contracts/HashRegistrarSimplified.sol\":17610:17613  ens */\n      0x0\n      dup1\n      sload\n      0x1\n        /* \"contracts/HashRegistrarSimplified.sol\":17630:17638  rootNode */\n      sload\n        /* \"contracts/HashRegistrarSimplified.sol\":17610:17657  ens.setSubnodeOwner(rootNode, _hash, _newOwner) */\n      0x40\n      dup1\n      mload\n      0x6ab592300000000000000000000000000000000000000000000000000000000\n      dup2\n      mstore\n      0x4\n      dup2\n      add\n      swap3\n      swap1\n      swap3\n      mstore\n      0x24\n      dup3\n      add\n      dup7\n      swap1\n      mstore\n      sub(exp(0x2, 0xa0), 0x1)\n      dup6\n      dup2\n      and\n      0x44\n      dup5\n      add\n      mstore\n      swap1\n      mload\n        /* \"contracts/HashRegistrarSimplified.sol\":17610:17613  ens */\n      swap3\n      and\n      swap3\n        /* \"contracts/HashRegistrarSimplified.sol\":17610:17629  ens.setSubnodeOwner */\n      0x6ab5923\n      swap3\n        /* \"contracts/HashRegistrarSimplified.sol\":17610:17657  ens.setSubnodeOwner(rootNode, _hash, _newOwner) */\n      0x64\n      dup1\n      dup5\n      add\n      swap4\n      dup3\n      swap1\n      sub\n      add\n      dup2\n        /* \"contracts/HashRegistrarSimplified.sol\":17610:17613  ens */\n      dup4\n      dup8\n        /* \"contracts/HashRegistrarSimplified.sol\":17610:17657  ens.setSubnodeOwner(rootNode, _hash, _newOwner) */\n      dup1\n      extcodesize\n      iszero\n        /* \"--CODEGEN--\":5:7   */\n      dup1\n      iszero\n      tag_310\n      jumpi\n        /* \"--CODEGEN--\":30:31   */\n      0x0\n        /* \"--CODEGEN--\":27:28   */\n      dup1\n        /* \"--CODEGEN--\":20:32   */\n      revert\n        /* \"contracts/HashRegistrarSimplified.sol\":16786:17280  function _eraseNodeHierarchy(uint idx, bytes32[] labels, bytes32 node) internal {\r... */\n    tag_275:\n        /* \"contracts/HashRegistrarSimplified.sol\":16916:16919  ens */\n      sload(0x0)\n        /* \"contracts/HashRegistrarSimplified.sol\":16942:16953  labels[idx] */\n      dup3\n      mload\n      sub(exp(0x2, 0xa0), 0x1)\n        /* \"contracts/HashRegistrarSimplified.sol\":16916:16919  ens */\n      swap1\n      swap2\n      and\n      swap1\n        /* \"contracts/HashRegistrarSimplified.sol\":16916:16935  ens.setSubnodeOwner */\n      0x6ab5923\n      swap1\n        /* \"contracts/HashRegistrarSimplified.sol\":16936:16940  node */\n      dup4\n      swap1\n        /* \"contracts/HashRegistrarSimplified.sol\":16942:16948  labels */\n      dup6\n      swap1\n        /* \"contracts/HashRegistrarSimplified.sol\":16949:16952  idx */\n      dup8\n      swap1\n        /* \"contracts/HashRegistrarSimplified.sol\":16942:16953  labels[idx] */\n      dup2\n      lt\n      tag_340\n      jumpi\n      invalid\n    tag_340:\n      0x20\n      swap1\n      dup2\n      mul\n      swap1\n      swap2\n      add\n      add\n      mload\n        /* \"contracts/HashRegistrarSimplified.sol\":16916:16969  ens.setSubnodeOwner(node, labels[idx], address(this)) */\n      0x40\n      dup1\n      mload\n      exp(0x2, 0xe0)\n      0xffffffff\n      dup7\n      and\n      mul\n      dup2\n      mstore\n      0x4\n      dup2\n      add\n      swap4\n      swap1\n      swap4\n      mstore\n      0x24\n      dup4\n      add\n      swap2\n      swap1\n      swap2\n      mstore\n        /* \"contracts/HashRegistrarSimplified.sol\":16963:16967  this */\n      address\n        /* \"contracts/HashRegistrarSimplified.sol\":16916:16969  ens.setSubnodeOwner(node, labels[idx], address(this)) */\n      0x44\n      dup4\n      add\n      mstore\n      mload\n      0x64\n      dup1\n      dup4\n      add\n      swap3\n      0x0\n      swap3\n      swap2\n      swap1\n      dup3\n      swap1\n      sub\n      add\n      dup2\n      dup4\n      dup8\n      dup1\n      extcodesize\n      iszero\n        /* \"--CODEGEN--\":5:7   */\n      dup1\n      iszero\n      tag_341\n      jumpi\n        /* \"--CODEGEN--\":30:31   */\n      0x0\n        /* \"--CODEGEN--\":27:28   */\n      dup1\n        /* \"--CODEGEN--\":20:32   */\n      revert\n        /* \"--CODEGEN--\":5:7   */\n    tag_341:\n        /* \"contracts/HashRegistrarSimplified.sol\":16916:16969  ens.setSubnodeOwner(node, labels[idx], address(this)) */\n      pop\n      gas\n      call\n      iszero\n        /* \"--CODEGEN--\":8:17   */\n      dup1\n        /* \"--CODEGEN--\":5:7   */\n      iszero\n      tag_342\n      jumpi\n        /* \"--CODEGEN--\":45:61   */\n      returndatasize\n        /* \"--CODEGEN--\":42:43   */\n      0x0\n        /* \"--CODEGEN--\":39:40   */\n      dup1\n        /* \"--CODEGEN--\":24:62   */\n      returndatacopy\n        /* \"--CODEGEN--\":77:93   */\n      returndatasize\n        /* \"--CODEGEN--\":74:75   */\n      0x0\n        /* \"--CODEGEN--\":67:94   */\n      revert\n        /* \"--CODEGEN--\":5:7   */\n    tag_342:\n        /* \"contracts/HashRegistrarSimplified.sol\":16916:16969  ens.setSubnodeOwner(node, labels[idx], address(this)) */\n      pop\n      pop\n      pop\n      pop\n        /* \"contracts/HashRegistrarSimplified.sol\":16997:17001  node */\n      dup1\n        /* \"contracts/HashRegistrarSimplified.sol\":17003:17009  labels */\n      dup3\n        /* \"contracts/HashRegistrarSimplified.sol\":17010:17013  idx */\n      dup5\n        /* \"contracts/HashRegistrarSimplified.sol\":17003:17014  labels[idx] */\n      dup2\n      mload\n      dup2\n      lt\n      iszero\n      iszero\n      tag_343\n      jumpi\n      invalid\n    tag_343:\n      0x20\n      swap1\n      dup2\n      mul\n      swap1\n      swap2\n      add\n      dup2\n      add\n      mload\n        /* \"contracts/HashRegistrarSimplified.sol\":16987:17015  keccak256(node, labels[idx]) */\n      0x40\n      dup1\n      mload\n      swap4\n      dup5\n      mstore\n      swap2\n      dup4\n      add\n      mstore\n      dup1\n      mload\n      swap2\n      dup3\n      swap1\n      sub\n      add\n      swap1\n      keccak256\n      swap1\n      pop\n      0x0\n        /* \"contracts/HashRegistrarSimplified.sol\":17077:17084  idx > 0 */\n      dup4\n      gt\n        /* \"contracts/HashRegistrarSimplified.sol\":17073:17155  if (idx > 0) {\r... */\n      iszero\n      tag_345\n      jumpi\n        /* \"contracts/HashRegistrarSimplified.sol\":17101:17143  _eraseNodeHierarchy(idx - 1, labels, node) */\n      tag_345\n        /* \"contracts/HashRegistrarSimplified.sol\":17127:17128  1 */\n      0x1\n        /* \"contracts/HashRegistrarSimplified.sol\":17121:17124  idx */\n      dup5\n        /* \"contracts/HashRegistrarSimplified.sol\":17121:17128  idx - 1 */\n      sub\n        /* \"contracts/HashRegistrarSimplified.sol\":17130:17136  labels */\n      dup4\n        /* \"contracts/HashRegistrarSimplified.sol\":17138:17142  node */\n      dup4\n        /* \"contracts/HashRegistrarSimplified.sol\":17101:17120  _eraseNodeHierarchy */\n      tag_275\n        /* \"contracts/HashRegistrarSimplified.sol\":17101:17143  _eraseNodeHierarchy(idx - 1, labels, node) */\n      jump\t// in\n    tag_345:\n        /* \"contracts/HashRegistrarSimplified.sol\":17216:17219  ens */\n      0x0\n      dup1\n      sload\n        /* \"contracts/HashRegistrarSimplified.sol\":17216:17240  ens.setResolver(node, 0) */\n      0x40\n      dup1\n      mload\n      0x1896f70a00000000000000000000000000000000000000000000000000000000\n      dup2\n      mstore\n      0x4\n      dup2\n      add\n      dup6\n      swap1\n      mstore\n      0x24\n      dup2\n      add\n      dup5\n      swap1\n      mstore\n      swap1\n      mload\n      sub(exp(0x2, 0xa0), 0x1)\n        /* \"contracts/HashRegistrarSimplified.sol\":17216:17219  ens */\n      swap1\n      swap3\n      and\n      swap3\n        /* \"contracts/HashRegistrarSimplified.sol\":17216:17231  ens.setResolver */\n      0x1896f70a\n      swap3\n        /* \"contracts/HashRegistrarSimplified.sol\":17216:17240  ens.setResolver(node, 0) */\n      0x44\n      dup1\n      dup5\n      add\n      swap4\n      dup3\n      swap1\n      sub\n      add\n      dup2\n        /* \"contracts/HashRegistrarSimplified.sol\":17216:17219  ens */\n      dup4\n      dup8\n        /* \"contracts/HashRegistrarSimplified.sol\":17216:17240  ens.setResolver(node, 0) */\n      dup1\n      extcodesize\n      iszero\n        /* \"--CODEGEN--\":5:7   */\n      dup1\n      iszero\n      tag_346\n      jumpi\n        /* \"--CODEGEN--\":30:31   */\n      0x0\n        /* \"--CODEGEN--\":27:28   */\n      dup1\n        /* \"--CODEGEN--\":20:32   */\n      revert\n        /* \"--CODEGEN--\":5:7   */\n    tag_346:\n        /* \"contracts/HashRegistrarSimplified.sol\":17216:17240  ens.setResolver(node, 0) */\n      pop\n      gas\n      call\n      iszero\n        /* \"--CODEGEN--\":8:17   */\n      dup1\n        /* \"--CODEGEN--\":5:7   */\n      iszero\n      tag_347\n      jumpi\n        /* \"--CODEGEN--\":45:61   */\n      returndatasize\n        /* \"--CODEGEN--\":42:43   */\n      0x0\n        /* \"--CODEGEN--\":39:40   */\n      dup1\n        /* \"--CODEGEN--\":24:62   */\n      returndatacopy\n        /* \"--CODEGEN--\":77:93   */\n      returndatasize\n        /* \"--CODEGEN--\":74:75   */\n      0x0\n        /* \"--CODEGEN--\":67:94   */\n      revert\n        /* \"--CODEGEN--\":5:7   */\n    tag_347:\n      pop\n      pop\n        /* \"contracts/HashRegistrarSimplified.sol\":17251:17254  ens */\n      0x0\n      dup1\n      sload\n        /* \"contracts/HashRegistrarSimplified.sol\":17251:17272  ens.setOwner(node, 0) */\n      0x40\n      dup1\n      mload\n      0x5b0fc9c300000000000000000000000000000000000000000000000000000000\n      dup2\n      mstore\n      0x4\n      dup2\n      add\n      dup8\n      swap1\n      mstore\n      0x24\n      dup2\n      add\n      dup5\n      swap1\n      mstore\n      swap1\n      mload\n      sub(exp(0x2, 0xa0), 0x1)\n        /* \"contracts/HashRegistrarSimplified.sol\":17251:17254  ens */\n      swap1\n      swap3\n      and\n      swap5\n      pop\n        /* \"contracts/HashRegistrarSimplified.sol\":17251:17263  ens.setOwner */\n      0x5b0fc9c3\n      swap4\n      pop\n        /* \"contracts/HashRegistrarSimplified.sol\":17251:17272  ens.setOwner(node, 0) */\n      0x44\n      dup1\n      dup3\n      add\n      swap4\n        /* \"contracts/HashRegistrarSimplified.sol\":17251:17254  ens */\n      swap3\n        /* \"contracts/HashRegistrarSimplified.sol\":17251:17272  ens.setOwner(node, 0) */\n      swap2\n      dup3\n      swap1\n      sub\n      add\n      dup2\n        /* \"contracts/HashRegistrarSimplified.sol\":17251:17254  ens */\n      dup4\n      dup8\n        /* \"contracts/HashRegistrarSimplified.sol\":17251:17272  ens.setOwner(node, 0) */\n      dup1\n      extcodesize\n      iszero\n        /* \"--CODEGEN--\":5:7   */\n      dup1\n      iszero\n      tag_348\n      jumpi\n        /* \"--CODEGEN--\":30:31   */\n      0x0\n        /* \"--CODEGEN--\":27:28   */\n      dup1\n        /* \"--CODEGEN--\":20:32   */\n      revert\n        /* \"--CODEGEN--\":5:7   */\n    tag_348:\n        /* \"contracts/HashRegistrarSimplified.sol\":17251:17272  ens.setOwner(node, 0) */\n      pop\n      gas\n      call\n      iszero\n        /* \"--CODEGEN--\":8:17   */\n      dup1\n        /* \"--CODEGEN--\":5:7   */\n      iszero\n      tag_349\n      jumpi\n        /* \"--CODEGEN--\":45:61   */\n      returndatasize\n        /* \"--CODEGEN--\":42:43   */\n      0x0\n        /* \"--CODEGEN--\":39:40   */\n      dup1\n        /* \"--CODEGEN--\":24:62   */\n      returndatacopy\n        /* \"--CODEGEN--\":77:93   */\n      returndatasize\n        /* \"--CODEGEN--\":74:75   */\n      0x0\n        /* \"--CODEGEN--\":67:94   */\n      revert\n        /* \"--CODEGEN--\":5:7   */\n    tag_349:\n        /* \"contracts/HashRegistrarSimplified.sol\":17251:17272  ens.setOwner(node, 0) */\n      pop\n      pop\n      pop\n      pop\n        /* \"contracts/HashRegistrarSimplified.sol\":16786:17280  function _eraseNodeHierarchy(uint idx, bytes32[] labels, bytes32 node) internal {\r... */\n      pop\n      pop\n      pop\n      jump\t// out\n        /* \"contracts/HashRegistrarSimplified.sol\":570:19432  contract Registrar {\r... */\n    tag_265:\n      mload(0x40)\n      dataSize(sub_0)\n      dup1\n      dataOffset(sub_0)\n      dup4\n      codecopy\n      add\n      swap1\n      jump\t// out\n    stop\n    data_99993fb1d97f8559098da9a8f3c0db02c0c0dd21e2f2208f8099175d4cf96c32 7b6c4b278d165a6b33958f8ea5dfb00c8c9d4d0acf1985bef5d10786898bc3e7\n\n    sub_0: assembly {\n            /* \"contracts/Deed.sol\":205:2505  contract Deed {\r... */\n          mstore(0x40, 0x80)\n            /* \"contracts/Deed.sol\":713:905  function Deed(address _owner) public payable {\r... */\n          mload(0x40)\n          0x20\n          dup1\n          bytecodeSize\n          dup4\n          codecopy\n          dup2\n          add\n          0x40\n          mstore\n          mload\n            /* \"contracts/Deed.sol\":769:774  owner */\n          0x1\n            /* \"contracts/Deed.sol\":769:783  owner = _owner */\n          dup1\n          sload\n          0xffffffffffffffffffffffffffffffffffffffff\n          swap1\n          swap3\n          and\n          not(0xffffffffffffffffffffffffffffffffffffffff)\n          swap3\n          dup4\n          and\n          or\n          dup2\n          sstore\n          0x0\n            /* \"contracts/Deed.sol\":794:816  registrar = msg.sender */\n          dup1\n          sload\n          swap1\n          swap3\n          and\n            /* \"contracts/Deed.sol\":806:816  msg.sender */\n          caller\n            /* \"contracts/Deed.sol\":794:816  registrar = msg.sender */\n          or\n          dup3\n          sstore\n            /* \"contracts/Deed.sol\":842:845  now */\n          timestamp\n            /* \"contracts/Deed.sol\":827:839  creationDate */\n          0x3\n            /* \"contracts/Deed.sol\":827:845  creationDate = now */\n          sstore\n            /* \"contracts/Deed.sol\":856:862  active */\n          0x5\n            /* \"contracts/Deed.sol\":856:869  active = true */\n          dup1\n          sload\n          not(0xff)\n          and\n          swap1\n          swap2\n          or\n          swap1\n          sstore\n            /* \"contracts/Deed.sol\":888:897  msg.value */\n          callvalue\n            /* \"contracts/Deed.sol\":880:885  value */\n          0x4\n            /* \"contracts/Deed.sol\":880:897  value = msg.value */\n          sstore\n          0x496\n          swap1\n          dup2\n          swap1\n            /* \"contracts/Deed.sol\":205:2505  contract Deed {\r... */\n          dataOffset(sub_0)\n          swap1\n          codecopy\n          0x0\n          return\n        stop\n\n        sub_0: assembly {\n                /* \"contracts/Deed.sol\":205:2505  contract Deed {\r... */\n              mstore(0x40, 0x80)\n              jumpi(tag_1, lt(calldatasize, 0x4))\n              and(div(calldataload(0x0), 0x100000000000000000000000000000000000000000000000000000000), 0xffffffff)\n              0x5b34410\n              dup2\n              eq\n              tag_2\n              jumpi\n              dup1\n              0xb5ab3d5\n              eq\n              tag_3\n              jumpi\n              dup1\n              0x13af4035\n              eq\n              tag_4\n              jumpi\n              dup1\n              0x2b20e397\n              eq\n              tag_5\n              jumpi\n              dup1\n              0x3fa4f245\n              eq\n              tag_6\n              jumpi\n              dup1\n              0x674f220f\n              eq\n              tag_7\n              jumpi\n              dup1\n              0x8da5cb5b\n              eq\n              tag_8\n              jumpi\n              dup1\n              0xb0c80972\n              eq\n              tag_9\n              jumpi\n              dup1\n              0xbbe42771\n              eq\n              tag_10\n              jumpi\n              dup1\n              0xfaab9d39\n              eq\n              tag_11\n              jumpi\n            tag_1:\n              0x0\n              dup1\n              revert\n                /* \"contracts/Deed.sol\":398:422  uint public creationDate */\n            tag_2:\n              callvalue\n                /* \"--CODEGEN--\":8:17   */\n              dup1\n                /* \"--CODEGEN--\":5:7   */\n              iszero\n              tag_12\n              jumpi\n                /* \"--CODEGEN--\":30:31   */\n              0x0\n                /* \"--CODEGEN--\":27:28   */\n              dup1\n                /* \"--CODEGEN--\":20:32   */\n              revert\n                /* \"--CODEGEN--\":5:7   */\n            tag_12:\n                /* \"contracts/Deed.sol\":398:422  uint public creationDate */\n              pop\n              tag_13\n              jump(tag_14)\n            tag_13:\n              0x40\n              dup1\n              mload\n              swap2\n              dup3\n              mstore\n              mload\n              swap1\n              dup2\n              swap1\n              sub\n              0x20\n              add\n              swap1\n              return\n                /* \"contracts/Deed.sol\":2116:2502  function destroyDeed() public {\r... */\n            tag_3:\n              callvalue\n                /* \"--CODEGEN--\":8:17   */\n              dup1\n                /* \"--CODEGEN--\":5:7   */\n              iszero\n              tag_15\n              jumpi\n                /* \"--CODEGEN--\":30:31   */\n              0x0\n                /* \"--CODEGEN--\":27:28   */\n              dup1\n                /* \"--CODEGEN--\":20:32   */\n              revert\n                /* \"--CODEGEN--\":5:7   */\n            tag_15:\n                /* \"contracts/Deed.sol\":2116:2502  function destroyDeed() public {\r... */\n              pop\n              tag_16\n              jump(tag_17)\n            tag_16:\n              stop\n                /* \"contracts/Deed.sol\":913:1166  function setOwner(address newOwner) public onlyRegistrar {\r... */\n            tag_4:\n              callvalue\n                /* \"--CODEGEN--\":8:17   */\n              dup1\n                /* \"--CODEGEN--\":5:7   */\n              iszero\n              tag_18\n              jumpi\n                /* \"--CODEGEN--\":30:31   */\n              0x0\n                /* \"--CODEGEN--\":27:28   */\n              dup1\n                /* \"--CODEGEN--\":20:32   */\n              revert\n                /* \"--CODEGEN--\":5:7   */\n            tag_18:\n              pop\n                /* \"contracts/Deed.sol\":913:1166  function setOwner(address newOwner) public onlyRegistrar {\r... */\n              tag_16\n              and(sub(exp(0x2, 0xa0), 0x1), calldataload(0x4))\n              jump(tag_20)\n                /* \"contracts/Deed.sol\":303:327  address public registrar */\n            tag_5:\n              callvalue\n                /* \"--CODEGEN--\":8:17   */\n              dup1\n                /* \"--CODEGEN--\":5:7   */\n              iszero\n              tag_21\n              jumpi\n                /* \"--CODEGEN--\":30:31   */\n              0x0\n                /* \"--CODEGEN--\":27:28   */\n              dup1\n                /* \"--CODEGEN--\":20:32   */\n              revert\n                /* \"--CODEGEN--\":5:7   */\n            tag_21:\n                /* \"contracts/Deed.sol\":303:327  address public registrar */\n              pop\n              tag_22\n              jump(tag_23)\n            tag_22:\n              0x40\n              dup1\n              mload\n              sub(exp(0x2, 0xa0), 0x1)\n              swap1\n              swap3\n              and\n              dup3\n              mstore\n              mload\n              swap1\n              dup2\n              swap1\n              sub\n              0x20\n              add\n              swap1\n              return\n                /* \"contracts/Deed.sol\":429:446  uint public value */\n            tag_6:\n              callvalue\n                /* \"--CODEGEN--\":8:17   */\n              dup1\n                /* \"--CODEGEN--\":5:7   */\n              iszero\n              tag_24\n              jumpi\n                /* \"--CODEGEN--\":30:31   */\n              0x0\n                /* \"--CODEGEN--\":27:28   */\n              dup1\n                /* \"--CODEGEN--\":20:32   */\n              revert\n                /* \"--CODEGEN--\":5:7   */\n            tag_24:\n                /* \"contracts/Deed.sol\":429:446  uint public value */\n              pop\n              tag_13\n              jump(tag_26)\n                /* \"contracts/Deed.sol\":361:389  address public previousOwner */\n            tag_7:\n              callvalue\n                /* \"--CODEGEN--\":8:17   */\n              dup1\n                /* \"--CODEGEN--\":5:7   */\n              iszero\n              tag_27\n              jumpi\n                /* \"--CODEGEN--\":30:31   */\n              0x0\n                /* \"--CODEGEN--\":27:28   */\n              dup1\n                /* \"--CODEGEN--\":20:32   */\n              revert\n                /* \"--CODEGEN--\":5:7   */\n            tag_27:\n                /* \"contracts/Deed.sol\":361:389  address public previousOwner */\n              pop\n              tag_22\n              jump(tag_29)\n                /* \"contracts/Deed.sol\":334:354  address public owner */\n            tag_8:\n              callvalue\n                /* \"--CODEGEN--\":8:17   */\n              dup1\n                /* \"--CODEGEN--\":5:7   */\n              iszero\n              tag_30\n              jumpi\n                /* \"--CODEGEN--\":30:31   */\n              0x0\n                /* \"--CODEGEN--\":27:28   */\n              dup1\n                /* \"--CODEGEN--\":20:32   */\n              revert\n                /* \"--CODEGEN--\":5:7   */\n            tag_30:\n                /* \"contracts/Deed.sol\":334:354  address public owner */\n              pop\n              tag_22\n              jump(tag_32)\n                /* \"contracts/Deed.sol\":1290:1629  function setBalance(uint newValue, bool throwOnFailure) public onlyRegistrar onlyActive {\r... */\n            tag_9:\n              callvalue\n                /* \"--CODEGEN--\":8:17   */\n              dup1\n                /* \"--CODEGEN--\":5:7   */\n              iszero\n              tag_33\n              jumpi\n                /* \"--CODEGEN--\":30:31   */\n              0x0\n                /* \"--CODEGEN--\":27:28   */\n              dup1\n                /* \"--CODEGEN--\":20:32   */\n              revert\n                /* \"--CODEGEN--\":5:7   */\n            tag_33:\n              pop\n                /* \"contracts/Deed.sol\":1290:1629  function setBalance(uint newValue, bool throwOnFailure) public onlyRegistrar onlyActive {\r... */\n              tag_16\n              calldataload(0x4)\n              iszero(iszero(calldataload(0x24)))\n              jump(tag_35)\n                /* \"contracts/Deed.sol\":1793:2015  function closeDeed(uint refundRatio) public onlyRegistrar onlyActive {\r... */\n            tag_10:\n              callvalue\n                /* \"--CODEGEN--\":8:17   */\n              dup1\n                /* \"--CODEGEN--\":5:7   */\n              iszero\n              tag_36\n              jumpi\n                /* \"--CODEGEN--\":30:31   */\n              0x0\n                /* \"--CODEGEN--\":27:28   */\n              dup1\n                /* \"--CODEGEN--\":20:32   */\n              revert\n                /* \"--CODEGEN--\":5:7   */\n            tag_36:\n              pop\n                /* \"contracts/Deed.sol\":1793:2015  function closeDeed(uint refundRatio) public onlyRegistrar onlyActive {\r... */\n              tag_16\n              calldataload(0x4)\n              jump(tag_38)\n                /* \"contracts/Deed.sol\":1174:1282  function setRegistrar(address newRegistrar) public onlyRegistrar {\r... */\n            tag_11:\n              callvalue\n                /* \"--CODEGEN--\":8:17   */\n              dup1\n                /* \"--CODEGEN--\":5:7   */\n              iszero\n              tag_39\n              jumpi\n                /* \"--CODEGEN--\":30:31   */\n              0x0\n                /* \"--CODEGEN--\":27:28   */\n              dup1\n                /* \"--CODEGEN--\":20:32   */\n              revert\n                /* \"--CODEGEN--\":5:7   */\n            tag_39:\n              pop\n                /* \"contracts/Deed.sol\":1174:1282  function setRegistrar(address newRegistrar) public onlyRegistrar {\r... */\n              tag_16\n              and(sub(exp(0x2, 0xa0), 0x1), calldataload(0x4))\n              jump(tag_41)\n                /* \"contracts/Deed.sol\":398:422  uint public creationDate */\n            tag_14:\n              sload(0x3)\n              dup2\n              jump\t// out\n                /* \"contracts/Deed.sol\":2116:2502  function destroyDeed() public {\r... */\n            tag_17:\n                /* \"contracts/Deed.sol\":2166:2172  active */\n              and(0xff, sload(0x5))\n                /* \"contracts/Deed.sol\":2165:2172  !active */\n              iszero\n                /* \"contracts/Deed.sol\":2157:2173  require(!active) */\n              tag_43\n              jumpi\n              0x0\n              dup1\n              revert\n            tag_43:\n                /* \"contracts/Deed.sol\":2424:2429  owner */\n              sload(0x1)\n                /* \"contracts/Deed.sol\":2424:2448  owner.send(this.balance) */\n              mload(0x40)\n              sub(exp(0x2, 0xa0), 0x1)\n                /* \"contracts/Deed.sol\":2424:2429  owner */\n              swap1\n              swap2\n              and\n              swap1\n                /* \"contracts/Deed.sol\":2435:2439  this */\n              address\n                /* \"contracts/Deed.sol\":2435:2447  this.balance */\n              balance\n                /* \"contracts/Deed.sol\":2424:2448  owner.send(this.balance) */\n              dup1\n              iszero\n              0x8fc\n              mul\n              swap2\n                /* \"contracts/Deed.sol\":2424:2429  owner */\n              0x0\n                /* \"contracts/Deed.sol\":2424:2448  owner.send(this.balance) */\n              dup2\n                /* \"contracts/Deed.sol\":2424:2429  owner */\n              dup2\n                /* \"contracts/Deed.sol\":2424:2448  owner.send(this.balance) */\n              dup2\n                /* \"contracts/Deed.sol\":2435:2447  this.balance */\n              dup6\n                /* \"contracts/Deed.sol\":2424:2429  owner */\n              dup9\n                /* \"contracts/Deed.sol\":2424:2448  owner.send(this.balance) */\n              dup9\n              call\n              swap4\n              pop\n              pop\n              pop\n              pop\n                /* \"contracts/Deed.sol\":2420:2495  if (owner.send(this.balance)) {\r... */\n              iszero\n              tag_44\n              jumpi\n                /* \"contracts/Deed.sol\":252:294  0x5B38Da6a701c568545dCfcB03FcB875f56beddC4 */\n              0x5b38da6a701c568545dcfcb03fcb875f56beddc4\n                /* \"contracts/Deed.sol\":2465:2483  selfdestruct(burn) */\n              selfdestruct\n                /* \"contracts/Deed.sol\":2420:2495  if (owner.send(this.balance)) {\r... */\n            tag_44:\n                /* \"contracts/Deed.sol\":2116:2502  function destroyDeed() public {\r... */\n              jump\t// out\n                /* \"contracts/Deed.sol\":913:1166  function setOwner(address newOwner) public onlyRegistrar {\r... */\n            tag_20:\n                /* \"contracts/Deed.sol\":601:610  registrar */\n              and(sub(exp(0x2, 0xa0), 0x1), sload(0x0))\n                /* \"contracts/Deed.sol\":587:597  msg.sender */\n              caller\n                /* \"contracts/Deed.sol\":587:610  msg.sender == registrar */\n              eq\n                /* \"contracts/Deed.sol\":579:611  require(msg.sender == registrar) */\n              tag_46\n              jumpi\n              0x0\n              dup1\n              revert\n            tag_46:\n              sub(exp(0x2, 0xa0), 0x1)\n                /* \"contracts/Deed.sol\":989:1002  newOwner != 0 */\n              dup2\n              and\n              iszero\n              iszero\n                /* \"contracts/Deed.sol\":981:1003  require(newOwner != 0) */\n              tag_48\n              jumpi\n              0x0\n              dup1\n              revert\n            tag_48:\n                /* \"contracts/Deed.sol\":1030:1035  owner */\n              0x1\n              dup1\n              sload\n                /* \"contracts/Deed.sol\":1014:1027  previousOwner */\n              0x2\n                /* \"contracts/Deed.sol\":1014:1035  previousOwner = owner */\n              dup1\n              sload\n              sub(exp(0x2, 0xa0), 0x1)\n                /* \"contracts/Deed.sol\":1030:1035  owner */\n              dup1\n              dup5\n              and\n              not(0xffffffffffffffffffffffffffffffffffffffff)\n                /* \"contracts/Deed.sol\":1014:1035  previousOwner = owner */\n              swap3\n              dup4\n              and\n              or\n              swap1\n              swap3\n              sstore\n                /* \"contracts/Deed.sol\":1109:1125  owner = newOwner */\n              swap1\n              swap2\n              and\n              swap1\n              dup4\n              and\n              swap1\n              dup2\n              or\n              swap1\n              swap2\n              sstore\n                /* \"contracts/Deed.sol\":1136:1158  OwnerChanged(newOwner) */\n              0x40\n              dup1\n              mload\n              swap2\n              dup3\n              mstore\n              mload\n              0xa2ea9883a321a3e97b8266c2b078bfeec6d50c711ed71f874a90d500ae2eaf36\n              swap2\n              0x20\n              swap1\n              dup3\n              swap1\n              sub\n              add\n              swap1\n              log1\n                /* \"contracts/Deed.sol\":913:1166  function setOwner(address newOwner) public onlyRegistrar {\r... */\n              pop\n              jump\t// out\n                /* \"contracts/Deed.sol\":303:327  address public registrar */\n            tag_23:\n              and(sub(exp(0x2, 0xa0), 0x1), sload(0x0))\n              dup2\n              jump\t// out\n                /* \"contracts/Deed.sol\":429:446  uint public value */\n            tag_26:\n              sload(0x4)\n              dup2\n              jump\t// out\n                /* \"contracts/Deed.sol\":361:389  address public previousOwner */\n            tag_29:\n              and(sub(exp(0x2, 0xa0), 0x1), sload(0x2))\n              dup2\n              jump\t// out\n                /* \"contracts/Deed.sol\":334:354  address public owner */\n            tag_32:\n              and(sub(exp(0x2, 0xa0), 0x1), sload(0x1))\n              dup2\n              jump\t// out\n                /* \"contracts/Deed.sol\":1290:1629  function setBalance(uint newValue, bool throwOnFailure) public onlyRegistrar onlyActive {\r... */\n            tag_35:\n                /* \"contracts/Deed.sol\":601:610  registrar */\n              and(sub(exp(0x2, 0xa0), 0x1), sload(0x0))\n                /* \"contracts/Deed.sol\":587:597  msg.sender */\n              caller\n                /* \"contracts/Deed.sol\":587:610  msg.sender == registrar */\n              eq\n                /* \"contracts/Deed.sol\":579:611  require(msg.sender == registrar) */\n              tag_50\n              jumpi\n              0x0\n              dup1\n              revert\n            tag_50:\n                /* \"contracts/Deed.sol\":678:684  active */\n              and(0xff, sload(0x5))\n                /* \"contracts/Deed.sol\":670:685  require(active) */\n              iszero\n              iszero\n              tag_52\n              jumpi\n              0x0\n              dup1\n              revert\n            tag_52:\n                /* \"contracts/Deed.sol\":1457:1462  value */\n              sload(0x4)\n                /* \"contracts/Deed.sol\":1457:1474  value >= newValue */\n              dup3\n              gt\n              iszero\n                /* \"contracts/Deed.sol\":1449:1475  require(value >= newValue) */\n              tag_54\n              jumpi\n              0x0\n              dup1\n              revert\n            tag_54:\n                /* \"contracts/Deed.sol\":1486:1491  value */\n              0x4\n                /* \"contracts/Deed.sol\":1486:1502  value = newValue */\n              dup3\n              swap1\n              sstore\n                /* \"contracts/Deed.sol\":1566:1571  owner */\n              sload(0x1)\n                /* \"contracts/Deed.sol\":1566:1601  owner.send(this.balance - newValue) */\n              mload(0x40)\n              sub(exp(0x2, 0xa0), 0x1)\n                /* \"contracts/Deed.sol\":1566:1571  owner */\n              swap1\n              swap2\n              and\n              swap1\n                /* \"contracts/Deed.sol\":1577:1581  this */\n              address\n                /* \"contracts/Deed.sol\":1577:1589  this.balance */\n              balance\n                /* \"contracts/Deed.sol\":1577:1600  this.balance - newValue */\n              dup5\n              swap1\n              sub\n                /* \"contracts/Deed.sol\":1566:1601  owner.send(this.balance - newValue) */\n              dup1\n              iszero\n              0x8fc\n              mul\n              swap2\n                /* \"contracts/Deed.sol\":1566:1571  owner */\n              0x0\n                /* \"contracts/Deed.sol\":1566:1601  owner.send(this.balance - newValue) */\n              dup2\n                /* \"contracts/Deed.sol\":1566:1571  owner */\n              dup2\n                /* \"contracts/Deed.sol\":1566:1601  owner.send(this.balance - newValue) */\n              dup2\n                /* \"contracts/Deed.sol\":1577:1600  this.balance - newValue */\n              dup6\n                /* \"contracts/Deed.sol\":1566:1571  owner */\n              dup9\n                /* \"contracts/Deed.sol\":1566:1601  owner.send(this.balance - newValue) */\n              dup9\n              call\n              swap4\n              pop\n              pop\n              pop\n              pop\n                /* \"contracts/Deed.sol\":1566:1620  owner.send(this.balance - newValue) || !throwOnFailure */\n              dup1\n              tag_55\n              jumpi\n              pop\n                /* \"contracts/Deed.sol\":1606:1620  throwOnFailure */\n              dup1\n                /* \"contracts/Deed.sol\":1605:1620  !throwOnFailure */\n              iszero\n                /* \"contracts/Deed.sol\":1566:1620  owner.send(this.balance - newValue) || !throwOnFailure */\n            tag_55:\n                /* \"contracts/Deed.sol\":1558:1621  require(owner.send(this.balance - newValue) || !throwOnFailure) */\n              iszero\n              iszero\n              tag_56\n              jumpi\n              0x0\n              dup1\n              revert\n            tag_56:\n                /* \"contracts/Deed.sol\":1290:1629  function setBalance(uint newValue, bool throwOnFailure) public onlyRegistrar onlyActive {\r... */\n              pop\n              pop\n              jump\t// out\n                /* \"contracts/Deed.sol\":1793:2015  function closeDeed(uint refundRatio) public onlyRegistrar onlyActive {\r... */\n            tag_38:\n                /* \"contracts/Deed.sol\":601:610  registrar */\n              and(sub(exp(0x2, 0xa0), 0x1), sload(0x0))\n                /* \"contracts/Deed.sol\":587:597  msg.sender */\n              caller\n                /* \"contracts/Deed.sol\":587:610  msg.sender == registrar */\n              eq\n                /* \"contracts/Deed.sol\":579:611  require(msg.sender == registrar) */\n              tag_58\n              jumpi\n              0x0\n              dup1\n              revert\n            tag_58:\n                /* \"contracts/Deed.sol\":678:684  active */\n              and(0xff, sload(0x5))\n                /* \"contracts/Deed.sol\":670:685  require(active) */\n              iszero\n              iszero\n              tag_60\n              jumpi\n              0x0\n              dup1\n              revert\n            tag_60:\n                /* \"contracts/Deed.sol\":1873:1879  active */\n              0x5\n                /* \"contracts/Deed.sol\":1873:1887  active = false */\n              dup1\n              sload\n              not(0xff)\n              and\n              swap1\n              sstore\n                /* \"contracts/Deed.sol\":1906:1959  burn.send(((1000 - refundRatio) * this.balance)/1000) */\n              mload(0x40)\n                /* \"contracts/Deed.sol\":252:294  0x5B38Da6a701c568545dCfcB03FcB875f56beddC4 */\n              0x5b38da6a701c568545dcfcb03fcb875f56beddc4\n              swap1\n                /* \"contracts/Deed.sol\":1954:1958  1000 */\n              0x3e8\n                /* \"contracts/Deed.sol\":1940:1944  this */\n              address\n                /* \"contracts/Deed.sol\":1940:1952  this.balance */\n              balance\n                /* \"contracts/Deed.sol\":1918:1936  1000 - refundRatio */\n              dup5\n              dup3\n              sub\n                /* \"contracts/Deed.sol\":1917:1952  (1000 - refundRatio) * this.balance */\n              mul\n                /* \"contracts/Deed.sol\":1916:1958  ((1000 - refundRatio) * this.balance)/1000 */\n              div\n                /* \"contracts/Deed.sol\":1906:1959  burn.send(((1000 - refundRatio) * this.balance)/1000) */\n              dup1\n              iszero\n              0x8fc\n              mul\n              swap2\n              0x0\n              dup2\n              dup2\n              dup2\n                /* \"contracts/Deed.sol\":1916:1958  ((1000 - refundRatio) * this.balance)/1000 */\n              dup6\n                /* \"contracts/Deed.sol\":252:294  0x5B38Da6a701c568545dCfcB03FcB875f56beddC4 */\n              dup9\n                /* \"contracts/Deed.sol\":1906:1959  burn.send(((1000 - refundRatio) * this.balance)/1000) */\n              dup9\n              call\n              swap4\n              pop\n              pop\n              pop\n              pop\n                /* \"contracts/Deed.sol\":1898:1960  require(burn.send(((1000 - refundRatio) * this.balance)/1000)) */\n              iszero\n              iszero\n              tag_63\n              jumpi\n              0x0\n              dup1\n              revert\n            tag_63:\n                /* \"contracts/Deed.sol\":1971:1983  DeedClosed() */\n              mload(0x40)\n              0xbb2ce2f51803bba16bc85282b47deeea9a5c6223eabea1077be696b3f265cf13\n              swap1\n              0x0\n              swap1\n              log1\n                /* \"contracts/Deed.sol\":1994:2007  destroyDeed() */\n              tag_64\n                /* \"contracts/Deed.sol\":1994:2005  destroyDeed */\n              tag_17\n                /* \"contracts/Deed.sol\":1994:2007  destroyDeed() */\n              jump\t// in\n            tag_64:\n                /* \"contracts/Deed.sol\":1793:2015  function closeDeed(uint refundRatio) public onlyRegistrar onlyActive {\r... */\n              pop\n              jump\t// out\n                /* \"contracts/Deed.sol\":1174:1282  function setRegistrar(address newRegistrar) public onlyRegistrar {\r... */\n            tag_41:\n                /* \"contracts/Deed.sol\":601:610  registrar */\n              and(sub(exp(0x2, 0xa0), 0x1), sload(0x0))\n                /* \"contracts/Deed.sol\":587:597  msg.sender */\n              caller\n                /* \"contracts/Deed.sol\":587:610  msg.sender == registrar */\n              eq\n                /* \"contracts/Deed.sol\":579:611  require(msg.sender == registrar) */\n              tag_66\n              jumpi\n              0x0\n              dup1\n              revert\n            tag_66:\n                /* \"contracts/Deed.sol\":1250:1259  registrar */\n              0x0\n                /* \"contracts/Deed.sol\":1250:1274  registrar = newRegistrar */\n              dup1\n              sload\n              not(0xffffffffffffffffffffffffffffffffffffffff)\n              and\n              sub(exp(0x2, 0xa0), 0x1)\n              swap3\n              swap1\n              swap3\n              and\n              swap2\n              swap1\n              swap2\n              or\n              swap1\n              sstore\n                /* \"contracts/Deed.sol\":1174:1282  function setRegistrar(address newRegistrar) public onlyRegistrar {\r... */\n              jump\t// out\n\n            auxdata: 0xa165627a7a72305820c84dae2d281dfe49b11b1fd6c5afc49a94cfddd158702d8bb3a75afc90d991680029\n        }\n    }\n\n    auxdata: 0xa165627a7a72305820c127b7d9ad4fe675b20907a7de40bfde11eec63764ed4ba397f2f3e7060de13c0029\n}\n",
				"bytecode": {
					"linkReferences": {},
					"object": "608060405234801561001057600080fd5b506040516060806129b883398101604090815281516020830151919092015160008054600160a060020a031916600160a060020a0385161781556001839055811161005b574261005d565b805b600455505050612946806100726000396000f3006080604052600436106101195763ffffffff60e060020a6000350416630230a07c811461011e57806313c89a8f1461013857806315f733311461016257806322ec1244146101bb5780632525f5c1146101e5578063267b6922146102095780633f15457f1461026957806347872b421461029a5780635ddae283146102b85780635e431709146102d057806361d585da146102f457806379ce9fac146103305780639350333714610354578063983b94fb146103835780639c67f06f1461039b578063ae1a0b0c146103b0578063ce92dced146103de578063de10f04b146103e9578063e27fe50f1461043e578063ea9e107a14610493578063ede8acdb146104ba578063faff50a8146104d2578063febefd61146104e7575b600080fd5b34801561012a57600080fd5b50610136600435610531565b005b34801561014457600080fd5b5061015060043561077f565b60408051918252519081900360200190f35b34801561016e57600080fd5b506040805160206004803580820135601f81018490048402850184019095528484526101369436949293602493928401919081908401838280828437509497506107a39650505050505050565b3480156101c757600080fd5b50610150600435600160a060020a0360243516604435606435610b22565b3480156101f157600080fd5b50610136600160a060020a0360043516602435610b66565b34801561021557600080fd5b50610221600435610d58565b6040518086600581111561023157fe5b60ff168152600160a060020a0390951660208601525060408085019390935260608401919091526080830152519081900360a0019150f35b34801561027557600080fd5b5061027e610da4565b60408051600160a060020a039092168252519081900360200190f35b3480156102a657600080fd5b50610136600435602435604435610db3565b3480156102c457600080fd5b50610136600435611389565b3480156102dc57600080fd5b5061027e600160a060020a0360043516602435611621565b34801561030057600080fd5b5061030c600435611647565b6040518082600581111561031c57fe5b60ff16815260200191505060405180910390f35b34801561033c57600080fd5b50610136600435600160a060020a03602435166116bd565b34801561036057600080fd5b5061036f600435602435611823565b604080519115158252519081900360200190f35b34801561038f57600080fd5b50610136600435611839565b3480156103a757600080fd5b50610150611afb565b3480156103bc57600080fd5b506103c5611b01565b6040805163ffffffff9092168252519081900360200190f35b610136600435611b08565b3480156103f557600080fd5b506040805160206004803580820135838102808601850190965280855261013695369593946024949385019291829185019084908082843750949750611bf39650505050505050565b34801561044a57600080fd5b506040805160206004803580820135838102808601850190965280855261013695369593946024949385019291829185019084908082843750949750611c509650505050505050565b34801561049f57600080fd5b50610136600435600160a060020a0360243516604435611c88565b3480156104c657600080fd5b50610136600435611c8d565b3480156104de57600080fd5b50610150611dea565b60408051602060048035808201358381028086018501909652808552610136953695939460249493850192918291850190849080828437509497505093359450611df09350505050565b60008082600261054082611647565b600581111561054b57fe5b1480156105e05750600081815260026020908152604080832054815160e060020a638da5cb5b0281529151600160a060020a0390911693638da5cb5b93600480850194919392918390030190829087803b1580156105a857600080fd5b505af11580156105bc573d6000803e3d6000fd5b505050506040513d60208110156105d257600080fd5b5051600160a060020a031633145b15156105eb57600080fd5b600084815260026020526040902080546001820154919450600160a060020a031692506301e1338001421015806106ad5750600080546001546040805160e060020a6302571be30281526004810192909252513093600160a060020a03909316926302571be392602480820193602093909283900390910190829087803b15801561067557600080fd5b505af1158015610689573d6000803e3d6000fd5b505050506040513d602081101561069f57600080fd5b5051600160a060020a031614155b15156106b857600080fd5b60006002840181905560038401558254600160a060020a03191683556106dd84611e02565b81600160a060020a031663bbe427716103e86040518263ffffffff1660e060020a02815260040180828152602001915050600060405180830381600087803b15801561072857600080fd5b505af115801561073c573d6000803e3d6000fd5b505050600284015460408051918252518692507f292b79b9246fa2c8e77d3fe195b251f9cb839d7d038e667c069ee7708c631e169181900360200190a250505050565b6004547001000000000000000000000000000000006249d400818404020401919050565b600080826040518082805190602001908083835b602083106107d65780518252601f1990920191602091820191016107b7565b5181516020939093036101000a6000190180199091169216919091179052604051920182900390912092506002915081905061081183611647565b600581111561081c57fe5b1461082657600080fd5b600661083186612039565b111561083c57600080fd5b846040518082805190602001908083835b6020831061086c5780518252601f19909201916020918201910161084d565b51815160209384036101000a60001901801990921691161790526040805192909401829003909120600081815260029092529290209197509095506108b69250869150611e029050565b8254600160a060020a031615610a61576108db8360020154662386f26fc100006120e3565b60028481018290558454604080517fb0c809720000000000000000000000000000000000000000000000000000000081529290930460048301526000602483018190529251600160a060020a039091169263b0c80972926044808201939182900301818387803b15801561094e57600080fd5b505af1158015610962573d6000803e3d6000fd5b50508454604080517f13af40350000000000000000000000000000000000000000000000000000000081523360048201529051600160a060020a0390921693506313af4035925060248082019260009290919082900301818387803b1580156109ca57600080fd5b505af11580156109de573d6000803e3d6000fd5b50508454604080517fbbe427710000000000000000000000000000000000000000000000000000000081526103e860048201529051600160a060020a03909216935063bbe42771925060248082019260009290919082900301818387803b158015610a4857600080fd5b505af1158015610a5c573d6000803e3d6000fd5b505050505b846040518082805190602001908083835b60208310610a915780518252601f199092019160209182019101610a72565b51815160209384036101000a60001901801990921691161790526040805192909401829003822060028a015460018b01549084529183019190915283519095508994507f1f9c649fe47e58bb60f4e52f0d90e4c47a526c9f90c5113df842c025970b66ad93918190039091019150a3505060006002820181905560038201558054600160a060020a03191690555050565b60408051948552600160a060020a03939093166c01000000000000000000000000026020850152603484019190915260548301525160749181900391909101902090565b600160a060020a038083166000908152600360209081526040808320858452909152902054168015801590610c1457506206978063ffffffff1681600160a060020a03166305b344106040518163ffffffff1660e060020a028152600401602060405180830381600087803b158015610bde57600080fd5b505af1158015610bf2573d6000803e3d6000fd5b505050506040513d6020811015610c0857600080fd5b50510162127500014210155b1515610c1f57600080fd5b604080517f13af40350000000000000000000000000000000000000000000000000000000081523360048201529051600160a060020a038316916313af403591602480830192600092919082900301818387803b158015610c7f57600080fd5b505af1158015610c93573d6000803e3d6000fd5b5050505080600160a060020a031663bbe4277160056040518263ffffffff1660e060020a02815260040180828152602001915050600060405180830381600087803b158015610ce157600080fd5b505af1158015610cf5573d6000803e3d6000fd5b50505050600160a060020a038316600081815260036020908152604080832086845282528083208054600160a060020a03191690558051928352600591830191909152805185926000805160206128fb83398151915292908290030190a3505050565b60008181526002602052604081208190819081908190610d7787611647565b815460018301546002840154600390940154929a600160a060020a03909216995097509195509350915050565b600054600160a060020a031681565b600080600080600080610dc889338a8a610b22565b336000908152600360209081526040808320848452909152902054909650600160a060020a03169450841515610dfd57600080fd5b33600090815260036020908152604080832089845282528083208054600160a060020a03191690558b83526002825280832081517f3fa4f2450000000000000000000000000000000000000000000000000000000081529151909750610ebf938c93600160a060020a038b1693633fa4f2459360048083019491928390030190829087803b158015610e8e57600080fd5b505af1158015610ea2573d6000803e3d6000fd5b505050506040513d6020811015610eb857600080fd5b50516120fb565b604080517fb0c8097200000000000000000000000000000000000000000000000000000000815260048101839052600160248201529051919450600160a060020a0387169163b0c809729160448082019260009290919082900301818387803b158015610f2b57600080fd5b505af1158015610f3f573d6000803e3d6000fd5b50505050610f4c89611647565b91506002826005811115610f5c57fe5b1415610ff65784600160a060020a031663bbe4277160056040518263ffffffff1660e060020a02815260040180828152602001915050600060405180830381600087803b158015610fac57600080fd5b505af1158015610fc0573d6000803e3d6000fd5b5050604080518681526001602082015281513394508d93506000805160206128fb833981519152929181900390910190a361137e565b600482600581111561100457fe5b1461100e57600080fd5b662386f26fc1000083108061109a57506202a30063ffffffff1684600101540385600160a060020a03166305b344106040518163ffffffff1660e060020a028152600401602060405180830381600087803b15801561106c57600080fd5b505af1158015611080573d6000803e3d6000fd5b505050506040513d602081101561109657600080fd5b5051115b156111345784600160a060020a031663bbe427716103e36040518263ffffffff1660e060020a02815260040180828152602001915050600060405180830381600087803b1580156110ea57600080fd5b505af11580156110fe573d6000803e3d6000fd5b5050604080518681526000602082015281513394508d93506000805160206128fb833981519152929181900390910190a361137e565b836003015483111561122e578354600160a060020a0316156111d157508254604080517fbbe427710000000000000000000000000000000000000000000000000000000081526103e360048201529051600160a060020a0390921691829163bbe4277191602480830192600092919082900301818387803b1580156111b857600080fd5b505af11580156111cc573d6000803e3d6000fd5b505050505b600384018054600280870191909155908490558454600160a060020a031916600160a060020a038716178555604080518581526020810192909252805133928c926000805160206128fb83398151915292918290030190a361137e565b83600201548311156112ed5760028401839055604080517fbbe427710000000000000000000000000000000000000000000000000000000081526103e360048201529051600160a060020a0387169163bbe4277191602480830192600092919082900301818387803b1580156112a357600080fd5b505af11580156112b7573d6000803e3d6000fd5b5050604080518681526003602082015281513394508d93506000805160206128fb833981519152929181900390910190a361137e565b84600160a060020a031663bbe427716103e36040518263ffffffff1660e060020a02815260040180828152602001915050600060405180830381600087803b15801561133857600080fd5b505af115801561134c573d6000803e3d6000fd5b5050604080518681526004602082015281513394508d93506000805160206128fb833981519152929181900390910190a35b505050505050505050565b60008082600261139882611647565b60058111156113a357fe5b1480156114385750600081815260026020908152604080832054815160e060020a638da5cb5b0281529151600160a060020a0390911693638da5cb5b93600480850194919392918390030190829087803b15801561140057600080fd5b505af1158015611414573d6000803e3d6000fd5b505050506040513d602081101561142a57600080fd5b5051600160a060020a031633145b151561144357600080fd5b600080546001546040805160e060020a6302571be3028152600481019290925251600160a060020a03909216926302571be3926024808401936020939083900390910190829087803b15801561149857600080fd5b505af11580156114ac573d6000803e3d6000fd5b505050506040513d60208110156114c257600080fd5b50519250600160a060020a0383163014156114dc57600080fd5b600084815260026020526040808220805482517ffaab9d39000000000000000000000000000000000000000000000000000000008152600160a060020a038881166004830152935192965092169263faab9d39926024808201939182900301818387803b15801561154c57600080fd5b505af1158015611560573d6000803e3d6000fd5b505083546001850154604080517fea9e107a000000000000000000000000000000000000000000000000000000008152600481018a9052600160a060020a039384166024820152604481019290925251918716935063ea9e107a925060648082019260009290919082900301818387803b1580156115dd57600080fd5b505af11580156115f1573d6000803e3d6000fd5b50508354600160a060020a0319168455505060006001830181905560028301819055600390920191909155505050565b6003602090815260009283526040808420909152908252902054600160a060020a031681565b600081815260026020526040812061165f8342611823565b151561166e57600591506116b7565b806001015442101561169e5760018101546202a2ff190142101561169557600191506116b7565b600491506116b7565b600381015415156116b257600091506116b7565b600291505b50919050565b60008260026116cb82611647565b60058111156116d657fe5b14801561176b5750600081815260026020908152604080832054815160e060020a638da5cb5b0281529151600160a060020a0390911693638da5cb5b93600480850194919392918390030190829087803b15801561173357600080fd5b505af1158015611747573d6000803e3d6000fd5b505050506040513d602081101561175d57600080fd5b5051600160a060020a031633145b151561177657600080fd5b600160a060020a038316151561178b57600080fd5b600084815260026020526040808220805482517f13af4035000000000000000000000000000000000000000000000000000000008152600160a060020a03888116600483015293519296509216926313af4035926024808201939182900301818387803b1580156117fb57600080fd5b505af115801561180f573d6000803e3d6000fd5b5050505061181d848461210c565b50505050565b600061182e8361077f565b821190505b92915050565b600081600261184782611647565b600581111561185257fe5b1480156118e75750600081815260026020908152604080832054815160e060020a638da5cb5b0281529151600160a060020a0390911693638da5cb5b93600480850194919392918390030190829087803b1580156118af57600080fd5b505af11580156118c3573d6000803e3d6000fd5b505050506040513d60208110156118d957600080fd5b5051600160a060020a031633145b15156118f257600080fd5b60008381526002602081905260409091209081015490925061191b90662386f26fc100006120e3565b600283018190558254604080517fb0c8097200000000000000000000000000000000000000000000000000000000815260048101939093526001602484015251600160a060020a039091169163b0c8097291604480830192600092919082900301818387803b15801561198d57600080fd5b505af11580156119a1573d6000803e3d6000fd5b50505050611a2f838360000160009054906101000a9004600160a060020a0316600160a060020a0316638da5cb5b6040518163ffffffff1660e060020a028152600401602060405180830381600087803b1580156119fe57600080fd5b505af1158015611a12573d6000803e3d6000fd5b505050506040513d6020811015611a2857600080fd5b505161210c565b81546040805160e060020a638da5cb5b0281529051600160a060020a0390921691638da5cb5b916004808201926020929091908290030181600087803b158015611a7857600080fd5b505af1158015611a8c573d6000803e3d6000fd5b505050506040513d6020811015611aa257600080fd5b5051600283015460018401546040805192835260208301919091528051600160a060020a039093169286927f0f0c27adfd84b60b6f456b0e87cdccb1e5fb9603991588d87fa99f5b6b61e67092908290030190a3505050565b60045481565b6249d40081565b336000908152600360209081526040808320848452909152812054600160a060020a031615611b3657600080fd5b662386f26fc10000341015611b4a57600080fd5b3433611b546123f1565b600160a060020a039091168152604051908190036020019082f080158015611b80573d6000803e3d6000fd5b503360008181526003602090815260408083208884528252918290208054600160a060020a031916600160a060020a0386161790558151348152915193955091935085927fb556ff269c1b6714f432c36431e2041d28436a73b6c3f19c021827bbdc6bfc29929181900390910190a35050565b80511515611c0057600080fd5b6002611c26826001845103815181101515611c1757fe5b90602001906020020151611647565b6005811115611c3157fe5b1415611c3c57600080fd5b611c4d600182510382600154612212565b50565b60005b8151811015611c8457611c7c8282815181101515611c6d57fe5b90602001906020020151611c8d565b600101611c53565b5050565b505050565b6000806004544210158015611caa5750600454630784ce00014211155b8015611d405750600080546001546040805160e060020a6302571be30281526004810192909252513093600160a060020a03909316926302571be392602480820193602093909283900390910190829087803b158015611d0957600080fd5b505af1158015611d1d573d6000803e3d6000fd5b505050506040513d6020811015611d3357600080fd5b5051600160a060020a0316145b1515611d4b57600080fd5b611d5483611647565b91506001826005811115611d6457fe5b1415611d6f57611c88565b6000826005811115611d7d57fe5b14611d8757600080fd5b50600082815260026020818152604080842042620697800160018201819055938101859055600381019490945580519283525185927f87e97e825a1d1fa0c54e1d36c7506c1dea8b1efd451fe68b000cf96f7cf4000392908290030190a2505050565b60015481565b611df982611c50565b611c8481611b08565b600080546001546040805160e060020a6302571be30281526004810192909252513092600160a060020a0316916302571be391602480830192602092919082900301818887803b158015611e5557600080fd5b505af1158015611e69573d6000803e3d6000fd5b505050506040513d6020811015611e7f57600080fd5b5051600160a060020a03161415611c845760008054600154604080517f06ab592300000000000000000000000000000000000000000000000000000000815260048101929092526024820186905230604483015251600160a060020a03909216926306ab59239260648084019382900301818387803b158015611f0157600080fd5b505af1158015611f15573d6000803e3d6000fd5b5050600154604080519182526020820186905280519182900381018220600080547f1896f70a00000000000000000000000000000000000000000000000000000000855260048501839052602485018290529251919650600160a060020a039092169450631896f70a935060448084019382900301818387803b158015611f9b57600080fd5b505af1158015611faf573d6000803e3d6000fd5b505060008054604080517f5b0fc9c300000000000000000000000000000000000000000000000000000000815260048101879052602481018490529051600160a060020a039092169450635b0fc9c39350604480820193929182900301818387803b15801561201d57600080fd5b505af1158015612031573d6000803e3d6000fd5b505050505050565b805160009060018381019184010182805b828410156120da5750825160ff16608081101561206c576001840193506120cf565b60e08160ff161015612083576002840193506120cf565b60f08160ff16101561209a576003840193506120cf565b60f88160ff1610156120b1576004840193506120cf565b60fc8160ff1610156120c8576005840193506120cf565b6006840193505b60019091019061204a565b50949350505050565b6000818311156120f4575081611833565b5080611833565b6000818310156120f4575081611833565b600080546001546040805160e060020a6302571be30281526004810192909252513093600160a060020a03909316926302571be392602480820193602093909283900390910190829087803b15801561216457600080fd5b505af1158015612178573d6000803e3d6000fd5b505050506040513d602081101561218e57600080fd5b5051600160a060020a03161415611c845760008054600154604080517f06ab5923000000000000000000000000000000000000000000000000000000008152600481019290925260248201869052600160a060020a03858116604484015290519216926306ab59239260648084019382900301818387803b15801561201d57600080fd5b6000548251600160a060020a03909116906306ab592390839085908790811061223757fe5b602090810290910101516040805160e060020a63ffffffff86160281526004810193909352602483019190915230604483015251606480830192600092919082900301818387803b15801561228b57600080fd5b505af115801561229f573d6000803e3d6000fd5b505050508082848151811015156122b257fe5b60209081029091018101516040805193845291830152805191829003019020905060008311156122ea576122ea600184038383612212565b60008054604080517f1896f70a00000000000000000000000000000000000000000000000000000000815260048101859052602481018490529051600160a060020a0390921692631896f70a9260448084019382900301818387803b15801561235257600080fd5b505af1158015612366573d6000803e3d6000fd5b505060008054604080517f5b0fc9c300000000000000000000000000000000000000000000000000000000815260048101879052602481018490529051600160a060020a039092169450635b0fc9c39350604480820193929182900301818387803b1580156123d457600080fd5b505af11580156123e8573d6000803e3d6000fd5b50505050505050565b6040516104f98061240283390190560060806040526040516020806104f9833981016040525160018054600160a060020a03909216600160a060020a0319928316178155600080549092163317909155426003556005805460ff1916909117905534600455610496806100636000396000f3006080604052600436106100a35763ffffffff7c010000000000000000000000000000000000000000000000000000000060003504166305b3441081146100a85780630b5ab3d5146100cf57806313af4035146100e65780632b20e397146101075780633fa4f24514610138578063674f220f1461014d5780638da5cb5b14610162578063b0c8097214610177578063bbe4277114610194578063faab9d39146101ac575b600080fd5b3480156100b457600080fd5b506100bd6101cd565b60408051918252519081900360200190f35b3480156100db57600080fd5b506100e46101d3565b005b3480156100f257600080fd5b506100e4600160a060020a036004351661022a565b34801561011357600080fd5b5061011c6102c8565b60408051600160a060020a039092168252519081900360200190f35b34801561014457600080fd5b506100bd6102d7565b34801561015957600080fd5b5061011c6102dd565b34801561016e57600080fd5b5061011c6102ec565b34801561018357600080fd5b506100e460043560243515156102fb565b3480156101a057600080fd5b506100e460043561037b565b3480156101b857600080fd5b506100e4600160a060020a0360043516610424565b60035481565b60055460ff16156101e357600080fd5b600154604051600160a060020a0390911690303180156108fc02916000818181858888f193505050501561022857735b38da6a701c568545dcfcb03fcb875f56beddc4ff5b565b600054600160a060020a0316331461024157600080fd5b600160a060020a038116151561025657600080fd5b600180546002805473ffffffffffffffffffffffffffffffffffffffff19908116600160a060020a03808516919091179092559084169116811790915560408051918252517fa2ea9883a321a3e97b8266c2b078bfeec6d50c711ed71f874a90d500ae2eaf369181900360200190a150565b600054600160a060020a031681565b60045481565b600254600160a060020a031681565b600154600160a060020a031681565b600054600160a060020a0316331461031257600080fd5b60055460ff16151561032357600080fd5b60045482111561033257600080fd5b6004829055600154604051600160a060020a0390911690303184900380156108fc02916000818181858888f193505050508061036c575080155b151561037757600080fd5b5050565b600054600160a060020a0316331461039257600080fd5b60055460ff1615156103a357600080fd5b6005805460ff19169055604051735b38da6a701c568545dcfcb03fcb875f56beddc4906103e83031848203020480156108fc02916000818181858888f1935050505015156103f057600080fd5b6040517fbb2ce2f51803bba16bc85282b47deeea9a5c6223eabea1077be696b3f265cf1390600090a16104216101d3565b50565b600054600160a060020a0316331461043b57600080fd5b6000805473ffffffffffffffffffffffffffffffffffffffff1916600160a060020a03929092169190911790555600a165627a7a72305820c84dae2d281dfe49b11b1fd6c5afc49a94cfddd158702d8bb3a75afc90d9916800297b6c4b278d165a6b33958f8ea5dfb00c8c9d4d0acf1985bef5d10786898bc3e7a165627a7a72305820c127b7d9ad4fe675b20907a7de40bfde11eec63764ed4ba397f2f3e7060de13c0029",
					"opcodes": "PUSH1 0x80 PUSH1 0x40 MSTORE CALLVALUE DUP1 ISZERO PUSH2 0x10 JUMPI PUSH1 0x0 DUP1 REVERT JUMPDEST POP PUSH1 0x40 MLOAD PUSH1 0x60 DUP1 PUSH2 0x29B8 DUP4 CODECOPY DUP2 ADD PUSH1 0x40 SWAP1 DUP2 MSTORE DUP2 MLOAD PUSH1 0x20 DUP4 ADD MLOAD SWAP2 SWAP1 SWAP3 ADD MLOAD PUSH1 0x0 DUP1 SLOAD PUSH1 0x1 PUSH1 0xA0 PUSH1 0x2 EXP SUB NOT AND PUSH1 0x1 PUSH1 0xA0 PUSH1 0x2 EXP SUB DUP6 AND OR DUP2 SSTORE PUSH1 0x1 DUP4 SWAP1 SSTORE DUP2 GT PUSH2 0x5B JUMPI TIMESTAMP PUSH2 0x5D JUMP JUMPDEST DUP1 JUMPDEST PUSH1 0x4 SSTORE POP POP POP PUSH2 0x2946 DUP1 PUSH2 0x72 PUSH1 0x0 CODECOPY PUSH1 0x0 RETURN STOP PUSH1 0x80 PUSH1 0x40 MSTORE PUSH1 0x4 CALLDATASIZE LT PUSH2 0x119 JUMPI PUSH4 0xFFFFFFFF PUSH1 0xE0 PUSH1 0x2 EXP PUSH1 0x0 CALLDATALOAD DIV AND PUSH4 0x230A07C DUP2 EQ PUSH2 0x11E JUMPI DUP1 PUSH4 0x13C89A8F EQ PUSH2 0x138 JUMPI DUP1 PUSH4 0x15F73331 EQ PUSH2 0x162 JUMPI DUP1 PUSH4 0x22EC1244 EQ PUSH2 0x1BB JUMPI DUP1 PUSH4 0x2525F5C1 EQ PUSH2 0x1E5 JUMPI DUP1 PUSH4 0x267B6922 EQ PUSH2 0x209 JUMPI DUP1 PUSH4 0x3F15457F EQ PUSH2 0x269 JUMPI DUP1 PUSH4 0x47872B42 EQ PUSH2 0x29A JUMPI DUP1 PUSH4 0x5DDAE283 EQ PUSH2 0x2B8 JUMPI DUP1 PUSH4 0x5E431709 EQ PUSH2 0x2D0 JUMPI DUP1 PUSH4 0x61D585DA EQ PUSH2 0x2F4 JUMPI DUP1 PUSH4 0x79CE9FAC EQ PUSH2 0x330 JUMPI DUP1 PUSH4 0x93503337 EQ PUSH2 0x354 JUMPI DUP1 PUSH4 0x983B94FB EQ PUSH2 0x383 JUMPI DUP1 PUSH4 0x9C67F06F EQ PUSH2 0x39B JUMPI DUP1 PUSH4 0xAE1A0B0C EQ PUSH2 0x3B0 JUMPI DUP1 PUSH4 0xCE92DCED EQ PUSH2 0x3DE JUMPI DUP1 PUSH4 0xDE10F04B EQ PUSH2 0x3E9 JUMPI DUP1 PUSH4 0xE27FE50F EQ PUSH2 0x43E JUMPI DUP1 PUSH4 0xEA9E107A EQ PUSH2 0x493 JUMPI DUP1 PUSH4 0xEDE8ACDB EQ PUSH2 0x4BA JUMPI DUP1 PUSH4 0xFAFF50A8 EQ PUSH2 0x4D2 JUMPI DUP1 PUSH4 0xFEBEFD61 EQ PUSH2 0x4E7 JUMPI JUMPDEST PUSH1 0x0 DUP1 REVERT JUMPDEST CALLVALUE DUP1 ISZERO PUSH2 0x12A JUMPI PUSH1 0x0 DUP1 REVERT JUMPDEST POP PUSH2 0x136 PUSH1 0x4 CALLDATALOAD PUSH2 0x531 JUMP JUMPDEST STOP JUMPDEST CALLVALUE DUP1 ISZERO PUSH2 0x144 JUMPI PUSH1 0x0 DUP1 REVERT JUMPDEST POP PUSH2 0x150 PUSH1 0x4 CALLDATALOAD PUSH2 0x77F JUMP JUMPDEST PUSH1 0x40 DUP1 MLOAD SWAP2 DUP3 MSTORE MLOAD SWAP1 DUP2 SWAP1 SUB PUSH1 0x20 ADD SWAP1 RETURN JUMPDEST CALLVALUE DUP1 ISZERO PUSH2 0x16E JUMPI PUSH1 0x0 DUP1 REVERT JUMPDEST POP PUSH1 0x40 DUP1 MLOAD PUSH1 0x20 PUSH1 0x4 DUP1 CALLDATALOAD DUP1 DUP3 ADD CALLDATALOAD PUSH1 0x1F DUP2 ADD DUP5 SWAP1 DIV DUP5 MUL DUP6 ADD DUP5 ADD SWAP1 SWAP6 MSTORE DUP5 DUP5 MSTORE PUSH2 0x136 SWAP5 CALLDATASIZE SWAP5 SWAP3 SWAP4 PUSH1 0x24 SWAP4 SWAP3 DUP5 ADD SWAP2 SWAP1 DUP2 SWAP1 DUP5 ADD DUP4 DUP3 DUP1 DUP3 DUP5 CALLDATACOPY POP SWAP5 SWAP8 POP PUSH2 0x7A3 SWAP7 POP POP POP POP POP POP POP JUMP JUMPDEST CALLVALUE DUP1 ISZERO PUSH2 0x1C7 JUMPI PUSH1 0x0 DUP1 REVERT JUMPDEST POP PUSH2 0x150 PUSH1 0x4 CALLDATALOAD PUSH1 0x1 PUSH1 0xA0 PUSH1 0x2 EXP SUB PUSH1 0x24 CALLDATALOAD AND PUSH1 0x44 CALLDATALOAD PUSH1 0x64 CALLDATALOAD PUSH2 0xB22 JUMP JUMPDEST CALLVALUE DUP1 ISZERO PUSH2 0x1F1 JUMPI PUSH1 0x0 DUP1 REVERT JUMPDEST POP PUSH2 0x136 PUSH1 0x1 PUSH1 0xA0 PUSH1 0x2 EXP SUB PUSH1 0x4 CALLDATALOAD AND PUSH1 0x24 CALLDATALOAD PUSH2 0xB66 JUMP JUMPDEST CALLVALUE DUP1 ISZERO PUSH2 0x215 JUMPI PUSH1 0x0 DUP1 REVERT JUMPDEST POP PUSH2 0x221 PUSH1 0x4 CALLDATALOAD PUSH2 0xD58 JUMP JUMPDEST PUSH1 0x40 MLOAD DUP1 DUP7 PUSH1 0x5 DUP2 GT ISZERO PUSH2 0x231 JUMPI INVALID JUMPDEST PUSH1 0xFF AND DUP2 MSTORE PUSH1 0x1 PUSH1 0xA0 PUSH1 0x2 EXP SUB SWAP1 SWAP6 AND PUSH1 0x20 DUP7 ADD MSTORE POP PUSH1 0x40 DUP1 DUP6 ADD SWAP4 SWAP1 SWAP4 MSTORE PUSH1 0x60 DUP5 ADD SWAP2 SWAP1 SWAP2 MSTORE PUSH1 0x80 DUP4 ADD MSTORE MLOAD SWAP1 DUP2 SWAP1 SUB PUSH1 0xA0 ADD SWAP2 POP RETURN JUMPDEST CALLVALUE DUP1 ISZERO PUSH2 0x275 JUMPI PUSH1 0x0 DUP1 REVERT JUMPDEST POP PUSH2 0x27E PUSH2 0xDA4 JUMP JUMPDEST PUSH1 0x40 DUP1 MLOAD PUSH1 0x1 PUSH1 0xA0 PUSH1 0x2 EXP SUB SWAP1 SWAP3 AND DUP3 MSTORE MLOAD SWAP1 DUP2 SWAP1 SUB PUSH1 0x20 ADD SWAP1 RETURN JUMPDEST CALLVALUE DUP1 ISZERO PUSH2 0x2A6 JUMPI PUSH1 0x0 DUP1 REVERT JUMPDEST POP PUSH2 0x136 PUSH1 0x4 CALLDATALOAD PUSH1 0x24 CALLDATALOAD PUSH1 0x44 CALLDATALOAD PUSH2 0xDB3 JUMP JUMPDEST CALLVALUE DUP1 ISZERO PUSH2 0x2C4 JUMPI PUSH1 0x0 DUP1 REVERT JUMPDEST POP PUSH2 0x136 PUSH1 0x4 CALLDATALOAD PUSH2 0x1389 JUMP JUMPDEST CALLVALUE DUP1 ISZERO PUSH2 0x2DC JUMPI PUSH1 0x0 DUP1 REVERT JUMPDEST POP PUSH2 0x27E PUSH1 0x1 PUSH1 0xA0 PUSH1 0x2 EXP SUB PUSH1 0x4 CALLDATALOAD AND PUSH1 0x24 CALLDATALOAD PUSH2 0x1621 JUMP JUMPDEST CALLVALUE DUP1 ISZERO PUSH2 0x300 JUMPI PUSH1 0x0 DUP1 REVERT JUMPDEST POP PUSH2 0x30C PUSH1 0x4 CALLDATALOAD PUSH2 0x1647 JUMP JUMPDEST PUSH1 0x40 MLOAD DUP1 DUP3 PUSH1 0x5 DUP2 GT ISZERO PUSH2 0x31C JUMPI INVALID JUMPDEST PUSH1 0xFF AND DUP2 MSTORE PUSH1 0x20 ADD SWAP2 POP POP PUSH1 0x40 MLOAD DUP1 SWAP2 SUB SWAP1 RETURN JUMPDEST CALLVALUE DUP1 ISZERO PUSH2 0x33C JUMPI PUSH1 0x0 DUP1 REVERT JUMPDEST POP PUSH2 0x136 PUSH1 0x4 CALLDATALOAD PUSH1 0x1 PUSH1 0xA0 PUSH1 0x2 EXP SUB PUSH1 0x24 CALLDATALOAD AND PUSH2 0x16BD JUMP JUMPDEST CALLVALUE DUP1 ISZERO PUSH2 0x360 JUMPI PUSH1 0x0 DUP1 REVERT JUMPDEST POP PUSH2 0x36F PUSH1 0x4 CALLDATALOAD PUSH1 0x24 CALLDATALOAD PUSH2 0x1823 JUMP JUMPDEST PUSH1 0x40 DUP1 MLOAD SWAP2 ISZERO ISZERO DUP3 MSTORE MLOAD SWAP1 DUP2 SWAP1 SUB PUSH1 0x20 ADD SWAP1 RETURN JUMPDEST CALLVALUE DUP1 ISZERO PUSH2 0x38F JUMPI PUSH1 0x0 DUP1 REVERT JUMPDEST POP PUSH2 0x136 PUSH1 0x4 CALLDATALOAD PUSH2 0x1839 JUMP JUMPDEST CALLVALUE DUP1 ISZERO PUSH2 0x3A7 JUMPI PUSH1 0x0 DUP1 REVERT JUMPDEST POP PUSH2 0x150 PUSH2 0x1AFB JUMP JUMPDEST CALLVALUE DUP1 ISZERO PUSH2 0x3BC JUMPI PUSH1 0x0 DUP1 REVERT JUMPDEST POP PUSH2 0x3C5 PUSH2 0x1B01 JUMP JUMPDEST PUSH1 0x40 DUP1 MLOAD PUSH4 0xFFFFFFFF SWAP1 SWAP3 AND DUP3 MSTORE MLOAD SWAP1 DUP2 SWAP1 SUB PUSH1 0x20 ADD SWAP1 RETURN JUMPDEST PUSH2 0x136 PUSH1 0x4 CALLDATALOAD PUSH2 0x1B08 JUMP JUMPDEST CALLVALUE DUP1 ISZERO PUSH2 0x3F5 JUMPI PUSH1 0x0 DUP1 REVERT JUMPDEST POP PUSH1 0x40 DUP1 MLOAD PUSH1 0x20 PUSH1 0x4 DUP1 CALLDATALOAD DUP1 DUP3 ADD CALLDATALOAD DUP4 DUP2 MUL DUP1 DUP7 ADD DUP6 ADD SWAP1 SWAP7 MSTORE DUP1 DUP6 MSTORE PUSH2 0x136 SWAP6 CALLDATASIZE SWAP6 SWAP4 SWAP5 PUSH1 0x24 SWAP5 SWAP4 DUP6 ADD SWAP3 SWAP2 DUP3 SWAP2 DUP6 ADD SWAP1 DUP5 SWAP1 DUP1 DUP3 DUP5 CALLDATACOPY POP SWAP5 SWAP8 POP PUSH2 0x1BF3 SWAP7 POP POP POP POP POP POP POP JUMP JUMPDEST CALLVALUE DUP1 ISZERO PUSH2 0x44A JUMPI PUSH1 0x0 DUP1 REVERT JUMPDEST POP PUSH1 0x40 DUP1 MLOAD PUSH1 0x20 PUSH1 0x4 DUP1 CALLDATALOAD DUP1 DUP3 ADD CALLDATALOAD DUP4 DUP2 MUL DUP1 DUP7 ADD DUP6 ADD SWAP1 SWAP7 MSTORE DUP1 DUP6 MSTORE PUSH2 0x136 SWAP6 CALLDATASIZE SWAP6 SWAP4 SWAP5 PUSH1 0x24 SWAP5 SWAP4 DUP6 ADD SWAP3 SWAP2 DUP3 SWAP2 DUP6 ADD SWAP1 DUP5 SWAP1 DUP1 DUP3 DUP5 CALLDATACOPY POP SWAP5 SWAP8 POP PUSH2 0x1C50 SWAP7 POP POP POP POP POP POP POP JUMP JUMPDEST CALLVALUE DUP1 ISZERO PUSH2 0x49F JUMPI PUSH1 0x0 DUP1 REVERT JUMPDEST POP PUSH2 0x136 PUSH1 0x4 CALLDATALOAD PUSH1 0x1 PUSH1 0xA0 PUSH1 0x2 EXP SUB PUSH1 0x24 CALLDATALOAD AND PUSH1 0x44 CALLDATALOAD PUSH2 0x1C88 JUMP JUMPDEST CALLVALUE DUP1 ISZERO PUSH2 0x4C6 JUMPI PUSH1 0x0 DUP1 REVERT JUMPDEST POP PUSH2 0x136 PUSH1 0x4 CALLDATALOAD PUSH2 0x1C8D JUMP JUMPDEST CALLVALUE DUP1 ISZERO PUSH2 0x4DE JUMPI PUSH1 0x0 DUP1 REVERT JUMPDEST POP PUSH2 0x150 PUSH2 0x1DEA JUMP JUMPDEST PUSH1 0x40 DUP1 MLOAD PUSH1 0x20 PUSH1 0x4 DUP1 CALLDATALOAD DUP1 DUP3 ADD CALLDATALOAD DUP4 DUP2 MUL DUP1 DUP7 ADD DUP6 ADD SWAP1 SWAP7 MSTORE DUP1 DUP6 MSTORE PUSH2 0x136 SWAP6 CALLDATASIZE SWAP6 SWAP4 SWAP5 PUSH1 0x24 SWAP5 SWAP4 DUP6 ADD SWAP3 SWAP2 DUP3 SWAP2 DUP6 ADD SWAP1 DUP5 SWAP1 DUP1 DUP3 DUP5 CALLDATACOPY POP SWAP5 SWAP8 POP POP SWAP4 CALLDATALOAD SWAP5 POP PUSH2 0x1DF0 SWAP4 POP POP POP POP JUMP JUMPDEST PUSH1 0x0 DUP1 DUP3 PUSH1 0x2 PUSH2 0x540 DUP3 PUSH2 0x1647 JUMP JUMPDEST PUSH1 0x5 DUP2 GT ISZERO PUSH2 0x54B JUMPI INVALID JUMPDEST EQ DUP1 ISZERO PUSH2 0x5E0 JUMPI POP PUSH1 0x0 DUP2 DUP2 MSTORE PUSH1 0x2 PUSH1 0x20 SWAP1 DUP2 MSTORE PUSH1 0x40 DUP1 DUP4 KECCAK256 SLOAD DUP2 MLOAD PUSH1 0xE0 PUSH1 0x2 EXP PUSH4 0x8DA5CB5B MUL DUP2 MSTORE SWAP2 MLOAD PUSH1 0x1 PUSH1 0xA0 PUSH1 0x2 EXP SUB SWAP1 SWAP2 AND SWAP4 PUSH4 0x8DA5CB5B SWAP4 PUSH1 0x4 DUP1 DUP6 ADD SWAP5 SWAP2 SWAP4 SWAP3 SWAP2 DUP4 SWAP1 SUB ADD SWAP1 DUP3 SWAP1 DUP8 DUP1 EXTCODESIZE ISZERO DUP1 ISZERO PUSH2 0x5A8 JUMPI PUSH1 0x0 DUP1 REVERT JUMPDEST POP GAS CALL ISZERO DUP1 ISZERO PUSH2 0x5BC JUMPI RETURNDATASIZE PUSH1 0x0 DUP1 RETURNDATACOPY RETURNDATASIZE PUSH1 0x0 REVERT JUMPDEST POP POP POP POP PUSH1 0x40 MLOAD RETURNDATASIZE PUSH1 0x20 DUP2 LT ISZERO PUSH2 0x5D2 JUMPI PUSH1 0x0 DUP1 REVERT JUMPDEST POP MLOAD PUSH1 0x1 PUSH1 0xA0 PUSH1 0x2 EXP SUB AND CALLER EQ JUMPDEST ISZERO ISZERO PUSH2 0x5EB JUMPI PUSH1 0x0 DUP1 REVERT JUMPDEST PUSH1 0x0 DUP5 DUP2 MSTORE PUSH1 0x2 PUSH1 0x20 MSTORE PUSH1 0x40 SWAP1 KECCAK256 DUP1 SLOAD PUSH1 0x1 DUP3 ADD SLOAD SWAP2 SWAP5 POP PUSH1 0x1 PUSH1 0xA0 PUSH1 0x2 EXP SUB AND SWAP3 POP PUSH4 0x1E13380 ADD TIMESTAMP LT ISZERO DUP1 PUSH2 0x6AD JUMPI POP PUSH1 0x0 DUP1 SLOAD PUSH1 0x1 SLOAD PUSH1 0x40 DUP1 MLOAD PUSH1 0xE0 PUSH1 0x2 EXP PUSH4 0x2571BE3 MUL DUP2 MSTORE PUSH1 0x4 DUP2 ADD SWAP3 SWAP1 SWAP3 MSTORE MLOAD ADDRESS SWAP4 PUSH1 0x1 PUSH1 0xA0 PUSH1 0x2 EXP SUB SWAP1 SWAP4 AND SWAP3 PUSH4 0x2571BE3 SWAP3 PUSH1 0x24 DUP1 DUP3 ADD SWAP4 PUSH1 0x20 SWAP4 SWAP1 SWAP3 DUP4 SWAP1 SUB SWAP1 SWAP2 ADD SWAP1 DUP3 SWAP1 DUP8 DUP1 EXTCODESIZE ISZERO DUP1 ISZERO PUSH2 0x675 JUMPI PUSH1 0x0 DUP1 REVERT JUMPDEST POP GAS CALL ISZERO DUP1 ISZERO PUSH2 0x689 JUMPI RETURNDATASIZE PUSH1 0x0 DUP1 RETURNDATACOPY RETURNDATASIZE PUSH1 0x0 REVERT JUMPDEST POP POP POP POP PUSH1 0x40 MLOAD RETURNDATASIZE PUSH1 0x20 DUP2 LT ISZERO PUSH2 0x69F JUMPI PUSH1 0x0 DUP1 REVERT JUMPDEST POP MLOAD PUSH1 0x1 PUSH1 0xA0 PUSH1 0x2 EXP SUB AND EQ ISZERO JUMPDEST ISZERO ISZERO PUSH2 0x6B8 JUMPI PUSH1 0x0 DUP1 REVERT JUMPDEST PUSH1 0x0 PUSH1 0x2 DUP5 ADD DUP2 SWAP1 SSTORE PUSH1 0x3 DUP5 ADD SSTORE DUP3 SLOAD PUSH1 0x1 PUSH1 0xA0 PUSH1 0x2 EXP SUB NOT AND DUP4 SSTORE PUSH2 0x6DD DUP5 PUSH2 0x1E02 JUMP JUMPDEST DUP2 PUSH1 0x1 PUSH1 0xA0 PUSH1 0x2 EXP SUB AND PUSH4 0xBBE42771 PUSH2 0x3E8 PUSH1 0x40 MLOAD DUP3 PUSH4 0xFFFFFFFF AND PUSH1 0xE0 PUSH1 0x2 EXP MUL DUP2 MSTORE PUSH1 0x4 ADD DUP1 DUP3 DUP2 MSTORE PUSH1 0x20 ADD SWAP2 POP POP PUSH1 0x0 PUSH1 0x40 MLOAD DUP1 DUP4 SUB DUP2 PUSH1 0x0 DUP8 DUP1 EXTCODESIZE ISZERO DUP1 ISZERO PUSH2 0x728 JUMPI PUSH1 0x0 DUP1 REVERT JUMPDEST POP GAS CALL ISZERO DUP1 ISZERO PUSH2 0x73C JUMPI RETURNDATASIZE PUSH1 0x0 DUP1 RETURNDATACOPY RETURNDATASIZE PUSH1 0x0 REVERT JUMPDEST POP POP POP PUSH1 0x2 DUP5 ADD SLOAD PUSH1 0x40 DUP1 MLOAD SWAP2 DUP3 MSTORE MLOAD DUP7 SWAP3 POP PUSH32 0x292B79B9246FA2C8E77D3FE195B251F9CB839D7D038E667C069EE7708C631E16 SWAP2 DUP2 SWAP1 SUB PUSH1 0x20 ADD SWAP1 LOG2 POP POP POP POP JUMP JUMPDEST PUSH1 0x4 SLOAD PUSH17 0x100000000000000000000000000000000 PUSH3 0x49D400 DUP2 DUP5 DIV MUL DIV ADD SWAP2 SWAP1 POP JUMP JUMPDEST PUSH1 0x0 DUP1 DUP3 PUSH1 0x40 MLOAD DUP1 DUP3 DUP1 MLOAD SWAP1 PUSH1 0x20 ADD SWAP1 DUP1 DUP4 DUP4 JUMPDEST PUSH1 0x20 DUP4 LT PUSH2 0x7D6 JUMPI DUP1 MLOAD DUP3 MSTORE PUSH1 0x1F NOT SWAP1 SWAP3 ADD SWAP2 PUSH1 0x20 SWAP2 DUP3 ADD SWAP2 ADD PUSH2 0x7B7 JUMP JUMPDEST MLOAD DUP2 MLOAD PUSH1 0x20 SWAP4 SWAP1 SWAP4 SUB PUSH2 0x100 EXP PUSH1 0x0 NOT ADD DUP1 NOT SWAP1 SWAP2 AND SWAP3 AND SWAP2 SWAP1 SWAP2 OR SWAP1 MSTORE PUSH1 0x40 MLOAD SWAP3 ADD DUP3 SWAP1 SUB SWAP1 SWAP2 KECCAK256 SWAP3 POP PUSH1 0x2 SWAP2 POP DUP2 SWAP1 POP PUSH2 0x811 DUP4 PUSH2 0x1647 JUMP JUMPDEST PUSH1 0x5 DUP2 GT ISZERO PUSH2 0x81C JUMPI INVALID JUMPDEST EQ PUSH2 0x826 JUMPI PUSH1 0x0 DUP1 REVERT JUMPDEST PUSH1 0x6 PUSH2 0x831 DUP7 PUSH2 0x2039 JUMP JUMPDEST GT ISZERO PUSH2 0x83C JUMPI PUSH1 0x0 DUP1 REVERT JUMPDEST DUP5 PUSH1 0x40 MLOAD DUP1 DUP3 DUP1 MLOAD SWAP1 PUSH1 0x20 ADD SWAP1 DUP1 DUP4 DUP4 JUMPDEST PUSH1 0x20 DUP4 LT PUSH2 0x86C JUMPI DUP1 MLOAD DUP3 MSTORE PUSH1 0x1F NOT SWAP1 SWAP3 ADD SWAP2 PUSH1 0x20 SWAP2 DUP3 ADD SWAP2 ADD PUSH2 0x84D JUMP JUMPDEST MLOAD DUP2 MLOAD PUSH1 0x20 SWAP4 DUP5 SUB PUSH2 0x100 EXP PUSH1 0x0 NOT ADD DUP1 NOT SWAP1 SWAP3 AND SWAP2 AND OR SWAP1 MSTORE PUSH1 0x40 DUP1 MLOAD SWAP3 SWAP1 SWAP5 ADD DUP3 SWAP1 SUB SWAP1 SWAP2 KECCAK256 PUSH1 0x0 DUP2 DUP2 MSTORE PUSH1 0x2 SWAP1 SWAP3 MSTORE SWAP3 SWAP1 KECCAK256 SWAP2 SWAP8 POP SWAP1 SWAP6 POP PUSH2 0x8B6 SWAP3 POP DUP7 SWAP2 POP PUSH2 0x1E02 SWAP1 POP JUMP JUMPDEST DUP3 SLOAD PUSH1 0x1 PUSH1 0xA0 PUSH1 0x2 EXP SUB AND ISZERO PUSH2 0xA61 JUMPI PUSH2 0x8DB DUP4 PUSH1 0x2 ADD SLOAD PUSH7 0x2386F26FC10000 PUSH2 0x20E3 JUMP JUMPDEST PUSH1 0x2 DUP5 DUP2 ADD DUP3 SWAP1 SSTORE DUP5 SLOAD PUSH1 0x40 DUP1 MLOAD PUSH32 0xB0C8097200000000000000000000000000000000000000000000000000000000 DUP2 MSTORE SWAP3 SWAP1 SWAP4 DIV PUSH1 0x4 DUP4 ADD MSTORE PUSH1 0x0 PUSH1 0x24 DUP4 ADD DUP2 SWAP1 MSTORE SWAP3 MLOAD PUSH1 0x1 PUSH1 0xA0 PUSH1 0x2 EXP SUB SWAP1 SWAP2 AND SWAP3 PUSH4 0xB0C80972 SWAP3 PUSH1 0x44 DUP1 DUP3 ADD SWAP4 SWAP2 DUP3 SWAP1 SUB ADD DUP2 DUP4 DUP8 DUP1 EXTCODESIZE ISZERO DUP1 ISZERO PUSH2 0x94E JUMPI PUSH1 0x0 DUP1 REVERT JUMPDEST POP GAS CALL ISZERO DUP1 ISZERO PUSH2 0x962 JUMPI RETURNDATASIZE PUSH1 0x0 DUP1 RETURNDATACOPY RETURNDATASIZE PUSH1 0x0 REVERT JUMPDEST POP POP DUP5 SLOAD PUSH1 0x40 DUP1 MLOAD PUSH32 0x13AF403500000000000000000000000000000000000000000000000000000000 DUP2 MSTORE CALLER PUSH1 0x4 DUP3 ADD MSTORE SWAP1 MLOAD PUSH1 0x1 PUSH1 0xA0 PUSH1 0x2 EXP SUB SWAP1 SWAP3 AND SWAP4 POP PUSH4 0x13AF4035 SWAP3 POP PUSH1 0x24 DUP1 DUP3 ADD SWAP3 PUSH1 0x0 SWAP3 SWAP1 SWAP2 SWAP1 DUP3 SWAP1 SUB ADD DUP2 DUP4 DUP8 DUP1 EXTCODESIZE ISZERO DUP1 ISZERO PUSH2 0x9CA JUMPI PUSH1 0x0 DUP1 REVERT JUMPDEST POP GAS CALL ISZERO DUP1 ISZERO PUSH2 0x9DE JUMPI RETURNDATASIZE PUSH1 0x0 DUP1 RETURNDATACOPY RETURNDATASIZE PUSH1 0x0 REVERT JUMPDEST POP POP DUP5 SLOAD PUSH1 0x40 DUP1 MLOAD PUSH32 0xBBE4277100000000000000000000000000000000000000000000000000000000 DUP2 MSTORE PUSH2 0x3E8 PUSH1 0x4 DUP3 ADD MSTORE SWAP1 MLOAD PUSH1 0x1 PUSH1 0xA0 PUSH1 0x2 EXP SUB SWAP1 SWAP3 AND SWAP4 POP PUSH4 0xBBE42771 SWAP3 POP PUSH1 0x24 DUP1 DUP3 ADD SWAP3 PUSH1 0x0 SWAP3 SWAP1 SWAP2 SWAP1 DUP3 SWAP1 SUB ADD DUP2 DUP4 DUP8 DUP1 EXTCODESIZE ISZERO DUP1 ISZERO PUSH2 0xA48 JUMPI PUSH1 0x0 DUP1 REVERT JUMPDEST POP GAS CALL ISZERO DUP1 ISZERO PUSH2 0xA5C JUMPI RETURNDATASIZE PUSH1 0x0 DUP1 RETURNDATACOPY RETURNDATASIZE PUSH1 0x0 REVERT JUMPDEST POP POP POP POP JUMPDEST DUP5 PUSH1 0x40 MLOAD DUP1 DUP3 DUP1 MLOAD SWAP1 PUSH1 0x20 ADD SWAP1 DUP1 DUP4 DUP4 JUMPDEST PUSH1 0x20 DUP4 LT PUSH2 0xA91 JUMPI DUP1 MLOAD DUP3 MSTORE PUSH1 0x1F NOT SWAP1 SWAP3 ADD SWAP2 PUSH1 0x20 SWAP2 DUP3 ADD SWAP2 ADD PUSH2 0xA72 JUMP JUMPDEST MLOAD DUP2 MLOAD PUSH1 0x20 SWAP4 DUP5 SUB PUSH2 0x100 EXP PUSH1 0x0 NOT ADD DUP1 NOT SWAP1 SWAP3 AND SWAP2 AND OR SWAP1 MSTORE PUSH1 0x40 DUP1 MLOAD SWAP3 SWAP1 SWAP5 ADD DUP3 SWAP1 SUB DUP3 KECCAK256 PUSH1 0x2 DUP11 ADD SLOAD PUSH1 0x1 DUP12 ADD SLOAD SWAP1 DUP5 MSTORE SWAP2 DUP4 ADD SWAP2 SWAP1 SWAP2 MSTORE DUP4 MLOAD SWAP1 SWAP6 POP DUP10 SWAP5 POP PUSH32 0x1F9C649FE47E58BB60F4E52F0D90E4C47A526C9F90C5113DF842C025970B66AD SWAP4 SWAP2 DUP2 SWAP1 SUB SWAP1 SWAP2 ADD SWAP2 POP LOG3 POP POP PUSH1 0x0 PUSH1 0x2 DUP3 ADD DUP2 SWAP1 SSTORE PUSH1 0x3 DUP3 ADD SSTORE DUP1 SLOAD PUSH1 0x1 PUSH1 0xA0 PUSH1 0x2 EXP SUB NOT AND SWAP1 SSTORE POP POP JUMP JUMPDEST PUSH1 0x40 DUP1 MLOAD SWAP5 DUP6 MSTORE PUSH1 0x1 PUSH1 0xA0 PUSH1 0x2 EXP SUB SWAP4 SWAP1 SWAP4 AND PUSH13 0x1000000000000000000000000 MUL PUSH1 0x20 DUP6 ADD MSTORE PUSH1 0x34 DUP5 ADD SWAP2 SWAP1 SWAP2 MSTORE PUSH1 0x54 DUP4 ADD MSTORE MLOAD PUSH1 0x74 SWAP2 DUP2 SWAP1 SUB SWAP2 SWAP1 SWAP2 ADD SWAP1 KECCAK256 SWAP1 JUMP JUMPDEST PUSH1 0x1 PUSH1 0xA0 PUSH1 0x2 EXP SUB DUP1 DUP4 AND PUSH1 0x0 SWAP1 DUP2 MSTORE PUSH1 0x3 PUSH1 0x20 SWAP1 DUP2 MSTORE PUSH1 0x40 DUP1 DUP4 KECCAK256 DUP6 DUP5 MSTORE SWAP1 SWAP2 MSTORE SWAP1 KECCAK256 SLOAD AND DUP1 ISZERO DUP1 ISZERO SWAP1 PUSH2 0xC14 JUMPI POP PUSH3 0x69780 PUSH4 0xFFFFFFFF AND DUP2 PUSH1 0x1 PUSH1 0xA0 PUSH1 0x2 EXP SUB AND PUSH4 0x5B34410 PUSH1 0x40 MLOAD DUP2 PUSH4 0xFFFFFFFF AND PUSH1 0xE0 PUSH1 0x2 EXP MUL DUP2 MSTORE PUSH1 0x4 ADD PUSH1 0x20 PUSH1 0x40 MLOAD DUP1 DUP4 SUB DUP2 PUSH1 0x0 DUP8 DUP1 EXTCODESIZE ISZERO DUP1 ISZERO PUSH2 0xBDE JUMPI PUSH1 0x0 DUP1 REVERT JUMPDEST POP GAS CALL ISZERO DUP1 ISZERO PUSH2 0xBF2 JUMPI RETURNDATASIZE PUSH1 0x0 DUP1 RETURNDATACOPY RETURNDATASIZE PUSH1 0x0 REVERT JUMPDEST POP POP POP POP PUSH1 0x40 MLOAD RETURNDATASIZE PUSH1 0x20 DUP2 LT ISZERO PUSH2 0xC08 JUMPI PUSH1 0x0 DUP1 REVERT JUMPDEST POP MLOAD ADD PUSH3 0x127500 ADD TIMESTAMP LT ISZERO JUMPDEST ISZERO ISZERO PUSH2 0xC1F JUMPI PUSH1 0x0 DUP1 REVERT JUMPDEST PUSH1 0x40 DUP1 MLOAD PUSH32 0x13AF403500000000000000000000000000000000000000000000000000000000 DUP2 MSTORE CALLER PUSH1 0x4 DUP3 ADD MSTORE SWAP1 MLOAD PUSH1 0x1 PUSH1 0xA0 PUSH1 0x2 EXP SUB DUP4 AND SWAP2 PUSH4 0x13AF4035 SWAP2 PUSH1 0x24 DUP1 DUP4 ADD SWAP3 PUSH1 0x0 SWAP3 SWAP2 SWAP1 DUP3 SWAP1 SUB ADD DUP2 DUP4 DUP8 DUP1 EXTCODESIZE ISZERO DUP1 ISZERO PUSH2 0xC7F JUMPI PUSH1 0x0 DUP1 REVERT JUMPDEST POP GAS CALL ISZERO DUP1 ISZERO PUSH2 0xC93 JUMPI RETURNDATASIZE PUSH1 0x0 DUP1 RETURNDATACOPY RETURNDATASIZE PUSH1 0x0 REVERT JUMPDEST POP POP POP POP DUP1 PUSH1 0x1 PUSH1 0xA0 PUSH1 0x2 EXP SUB AND PUSH4 0xBBE42771 PUSH1 0x5 PUSH1 0x40 MLOAD DUP3 PUSH4 0xFFFFFFFF AND PUSH1 0xE0 PUSH1 0x2 EXP MUL DUP2 MSTORE PUSH1 0x4 ADD DUP1 DUP3 DUP2 MSTORE PUSH1 0x20 ADD SWAP2 POP POP PUSH1 0x0 PUSH1 0x40 MLOAD DUP1 DUP4 SUB DUP2 PUSH1 0x0 DUP8 DUP1 EXTCODESIZE ISZERO DUP1 ISZERO PUSH2 0xCE1 JUMPI PUSH1 0x0 DUP1 REVERT JUMPDEST POP GAS CALL ISZERO DUP1 ISZERO PUSH2 0xCF5 JUMPI RETURNDATASIZE PUSH1 0x0 DUP1 RETURNDATACOPY RETURNDATASIZE PUSH1 0x0 REVERT JUMPDEST POP POP POP POP PUSH1 0x1 PUSH1 0xA0 PUSH1 0x2 EXP SUB DUP4 AND PUSH1 0x0 DUP2 DUP2 MSTORE PUSH1 0x3 PUSH1 0x20 SWAP1 DUP2 MSTORE PUSH1 0x40 DUP1 DUP4 KECCAK256 DUP7 DUP5 MSTORE DUP3 MSTORE DUP1 DUP4 KECCAK256 DUP1 SLOAD PUSH1 0x1 PUSH1 0xA0 PUSH1 0x2 EXP SUB NOT AND SWAP1 SSTORE DUP1 MLOAD SWAP3 DUP4 MSTORE PUSH1 0x5 SWAP2 DUP4 ADD SWAP2 SWAP1 SWAP2 MSTORE DUP1 MLOAD DUP6 SWAP3 PUSH1 0x0 DUP1 MLOAD PUSH1 0x20 PUSH2 0x28FB DUP4 CODECOPY DUP2 MLOAD SWAP2 MSTORE SWAP3 SWAP1 DUP3 SWAP1 SUB ADD SWAP1 LOG3 POP POP POP JUMP JUMPDEST PUSH1 0x0 DUP2 DUP2 MSTORE PUSH1 0x2 PUSH1 0x20 MSTORE PUSH1 0x40 DUP2 KECCAK256 DUP2 SWAP1 DUP2 SWAP1 DUP2 SWAP1 DUP2 SWAP1 PUSH2 0xD77 DUP8 PUSH2 0x1647 JUMP JUMPDEST DUP2 SLOAD PUSH1 0x1 DUP4 ADD SLOAD PUSH1 0x2 DUP5 ADD SLOAD PUSH1 0x3 SWAP1 SWAP5 ADD SLOAD SWAP3 SWAP11 PUSH1 0x1 PUSH1 0xA0 PUSH1 0x2 EXP SUB SWAP1 SWAP3 AND SWAP10 POP SWAP8 POP SWAP2 SWAP6 POP SWAP4 POP SWAP2 POP POP JUMP JUMPDEST PUSH1 0x0 SLOAD PUSH1 0x1 PUSH1 0xA0 PUSH1 0x2 EXP SUB AND DUP2 JUMP JUMPDEST PUSH1 0x0 DUP1 PUSH1 0x0 DUP1 PUSH1 0x0 DUP1 PUSH2 0xDC8 DUP10 CALLER DUP11 DUP11 PUSH2 0xB22 JUMP JUMPDEST CALLER PUSH1 0x0 SWAP1 DUP2 MSTORE PUSH1 0x3 PUSH1 0x20 SWAP1 DUP2 MSTORE PUSH1 0x40 DUP1 DUP4 KECCAK256 DUP5 DUP5 MSTORE SWAP1 SWAP2 MSTORE SWAP1 KECCAK256 SLOAD SWAP1 SWAP7 POP PUSH1 0x1 PUSH1 0xA0 PUSH1 0x2 EXP SUB AND SWAP5 POP DUP5 ISZERO ISZERO PUSH2 0xDFD JUMPI PUSH1 0x0 DUP1 REVERT JUMPDEST CALLER PUSH1 0x0 SWAP1 DUP2 MSTORE PUSH1 0x3 PUSH1 0x20 SWAP1 DUP2 MSTORE PUSH1 0x40 DUP1 DUP4 KECCAK256 DUP10 DUP5 MSTORE DUP3 MSTORE DUP1 DUP4 KECCAK256 DUP1 SLOAD PUSH1 0x1 PUSH1 0xA0 PUSH1 0x2 EXP SUB NOT AND SWAP1 SSTORE DUP12 DUP4 MSTORE PUSH1 0x2 DUP3 MSTORE DUP1 DUP4 KECCAK256 DUP2 MLOAD PUSH32 0x3FA4F24500000000000000000000000000000000000000000000000000000000 DUP2 MSTORE SWAP2 MLOAD SWAP1 SWAP8 POP PUSH2 0xEBF SWAP4 DUP13 SWAP4 PUSH1 0x1 PUSH1 0xA0 PUSH1 0x2 EXP SUB DUP12 AND SWAP4 PUSH4 0x3FA4F245 SWAP4 PUSH1 0x4 DUP1 DUP4 ADD SWAP5 SWAP2 SWAP3 DUP4 SWAP1 SUB ADD SWAP1 DUP3 SWAP1 DUP8 DUP1 EXTCODESIZE ISZERO DUP1 ISZERO PUSH2 0xE8E JUMPI PUSH1 0x0 DUP1 REVERT JUMPDEST POP GAS CALL ISZERO DUP1 ISZERO PUSH2 0xEA2 JUMPI RETURNDATASIZE PUSH1 0x0 DUP1 RETURNDATACOPY RETURNDATASIZE PUSH1 0x0 REVERT JUMPDEST POP POP POP POP PUSH1 0x40 MLOAD RETURNDATASIZE PUSH1 0x20 DUP2 LT ISZERO PUSH2 0xEB8 JUMPI PUSH1 0x0 DUP1 REVERT JUMPDEST POP MLOAD PUSH2 0x20FB JUMP JUMPDEST PUSH1 0x40 DUP1 MLOAD PUSH32 0xB0C8097200000000000000000000000000000000000000000000000000000000 DUP2 MSTORE PUSH1 0x4 DUP2 ADD DUP4 SWAP1 MSTORE PUSH1 0x1 PUSH1 0x24 DUP3 ADD MSTORE SWAP1 MLOAD SWAP2 SWAP5 POP PUSH1 0x1 PUSH1 0xA0 PUSH1 0x2 EXP SUB DUP8 AND SWAP2 PUSH4 0xB0C80972 SWAP2 PUSH1 0x44 DUP1 DUP3 ADD SWAP3 PUSH1 0x0 SWAP3 SWAP1 SWAP2 SWAP1 DUP3 SWAP1 SUB ADD DUP2 DUP4 DUP8 DUP1 EXTCODESIZE ISZERO DUP1 ISZERO PUSH2 0xF2B JUMPI PUSH1 0x0 DUP1 REVERT JUMPDEST POP GAS CALL ISZERO DUP1 ISZERO PUSH2 0xF3F JUMPI RETURNDATASIZE PUSH1 0x0 DUP1 RETURNDATACOPY RETURNDATASIZE PUSH1 0x0 REVERT JUMPDEST POP POP POP POP PUSH2 0xF4C DUP10 PUSH2 0x1647 JUMP JUMPDEST SWAP2 POP PUSH1 0x2 DUP3 PUSH1 0x5 DUP2 GT ISZERO PUSH2 0xF5C JUMPI INVALID JUMPDEST EQ ISZERO PUSH2 0xFF6 JUMPI DUP5 PUSH1 0x1 PUSH1 0xA0 PUSH1 0x2 EXP SUB AND PUSH4 0xBBE42771 PUSH1 0x5 PUSH1 0x40 MLOAD DUP3 PUSH4 0xFFFFFFFF AND PUSH1 0xE0 PUSH1 0x2 EXP MUL DUP2 MSTORE PUSH1 0x4 ADD DUP1 DUP3 DUP2 MSTORE PUSH1 0x20 ADD SWAP2 POP POP PUSH1 0x0 PUSH1 0x40 MLOAD DUP1 DUP4 SUB DUP2 PUSH1 0x0 DUP8 DUP1 EXTCODESIZE ISZERO DUP1 ISZERO PUSH2 0xFAC JUMPI PUSH1 0x0 DUP1 REVERT JUMPDEST POP GAS CALL ISZERO DUP1 ISZERO PUSH2 0xFC0 JUMPI RETURNDATASIZE PUSH1 0x0 DUP1 RETURNDATACOPY RETURNDATASIZE PUSH1 0x0 REVERT JUMPDEST POP POP PUSH1 0x40 DUP1 MLOAD DUP7 DUP2 MSTORE PUSH1 0x1 PUSH1 0x20 DUP3 ADD MSTORE DUP2 MLOAD CALLER SWAP5 POP DUP14 SWAP4 POP PUSH1 0x0 DUP1 MLOAD PUSH1 0x20 PUSH2 0x28FB DUP4 CODECOPY DUP2 MLOAD SWAP2 MSTORE SWAP3 SWAP2 DUP2 SWAP1 SUB SWAP1 SWAP2 ADD SWAP1 LOG3 PUSH2 0x137E JUMP JUMPDEST PUSH1 0x4 DUP3 PUSH1 0x5 DUP2 GT ISZERO PUSH2 0x1004 JUMPI INVALID JUMPDEST EQ PUSH2 0x100E JUMPI PUSH1 0x0 DUP1 REVERT JUMPDEST PUSH7 0x2386F26FC10000 DUP4 LT DUP1 PUSH2 0x109A JUMPI POP PUSH3 0x2A300 PUSH4 0xFFFFFFFF AND DUP5 PUSH1 0x1 ADD SLOAD SUB DUP6 PUSH1 0x1 PUSH1 0xA0 PUSH1 0x2 EXP SUB AND PUSH4 0x5B34410 PUSH1 0x40 MLOAD DUP2 PUSH4 0xFFFFFFFF AND PUSH1 0xE0 PUSH1 0x2 EXP MUL DUP2 MSTORE PUSH1 0x4 ADD PUSH1 0x20 PUSH1 0x40 MLOAD DUP1 DUP4 SUB DUP2 PUSH1 0x0 DUP8 DUP1 EXTCODESIZE ISZERO DUP1 ISZERO PUSH2 0x106C JUMPI PUSH1 0x0 DUP1 REVERT JUMPDEST POP GAS CALL ISZERO DUP1 ISZERO PUSH2 0x1080 JUMPI RETURNDATASIZE PUSH1 0x0 DUP1 RETURNDATACOPY RETURNDATASIZE PUSH1 0x0 REVERT JUMPDEST POP POP POP POP PUSH1 0x40 MLOAD RETURNDATASIZE PUSH1 0x20 DUP2 LT ISZERO PUSH2 0x1096 JUMPI PUSH1 0x0 DUP1 REVERT JUMPDEST POP MLOAD GT JUMPDEST ISZERO PUSH2 0x1134 JUMPI DUP5 PUSH1 0x1 PUSH1 0xA0 PUSH1 0x2 EXP SUB AND PUSH4 0xBBE42771 PUSH2 0x3E3 PUSH1 0x40 MLOAD DUP3 PUSH4 0xFFFFFFFF AND PUSH1 0xE0 PUSH1 0x2 EXP MUL DUP2 MSTORE PUSH1 0x4 ADD DUP1 DUP3 DUP2 MSTORE PUSH1 0x20 ADD SWAP2 POP POP PUSH1 0x0 PUSH1 0x40 MLOAD DUP1 DUP4 SUB DUP2 PUSH1 0x0 DUP8 DUP1 EXTCODESIZE ISZERO DUP1 ISZERO PUSH2 0x10EA JUMPI PUSH1 0x0 DUP1 REVERT JUMPDEST POP GAS CALL ISZERO DUP1 ISZERO PUSH2 0x10FE JUMPI RETURNDATASIZE PUSH1 0x0 DUP1 RETURNDATACOPY RETURNDATASIZE PUSH1 0x0 REVERT JUMPDEST POP POP PUSH1 0x40 DUP1 MLOAD DUP7 DUP2 MSTORE PUSH1 0x0 PUSH1 0x20 DUP3 ADD MSTORE DUP2 MLOAD CALLER SWAP5 POP DUP14 SWAP4 POP PUSH1 0x0 DUP1 MLOAD PUSH1 0x20 PUSH2 0x28FB DUP4 CODECOPY DUP2 MLOAD SWAP2 MSTORE SWAP3 SWAP2 DUP2 SWAP1 SUB SWAP1 SWAP2 ADD SWAP1 LOG3 PUSH2 0x137E JUMP JUMPDEST DUP4 PUSH1 0x3 ADD SLOAD DUP4 GT ISZERO PUSH2 0x122E JUMPI DUP4 SLOAD PUSH1 0x1 PUSH1 0xA0 PUSH1 0x2 EXP SUB AND ISZERO PUSH2 0x11D1 JUMPI POP DUP3 SLOAD PUSH1 0x40 DUP1 MLOAD PUSH32 0xBBE4277100000000000000000000000000000000000000000000000000000000 DUP2 MSTORE PUSH2 0x3E3 PUSH1 0x4 DUP3 ADD MSTORE SWAP1 MLOAD PUSH1 0x1 PUSH1 0xA0 PUSH1 0x2 EXP SUB SWAP1 SWAP3 AND SWAP2 DUP3 SWAP2 PUSH4 0xBBE42771 SWAP2 PUSH1 0x24 DUP1 DUP4 ADD SWAP3 PUSH1 0x0 SWAP3 SWAP2 SWAP1 DUP3 SWAP1 SUB ADD DUP2 DUP4 DUP8 DUP1 EXTCODESIZE ISZERO DUP1 ISZERO PUSH2 0x11B8 JUMPI PUSH1 0x0 DUP1 REVERT JUMPDEST POP GAS CALL ISZERO DUP1 ISZERO PUSH2 0x11CC JUMPI RETURNDATASIZE PUSH1 0x0 DUP1 RETURNDATACOPY RETURNDATASIZE PUSH1 0x0 REVERT JUMPDEST POP POP POP POP JUMPDEST PUSH1 0x3 DUP5 ADD DUP1 SLOAD PUSH1 0x2 DUP1 DUP8 ADD SWAP2 SWAP1 SWAP2 SSTORE SWAP1 DUP5 SWAP1 SSTORE DUP5 SLOAD PUSH1 0x1 PUSH1 0xA0 PUSH1 0x2 EXP SUB NOT AND PUSH1 0x1 PUSH1 0xA0 PUSH1 0x2 EXP SUB DUP8 AND OR DUP6 SSTORE PUSH1 0x40 DUP1 MLOAD DUP6 DUP2 MSTORE PUSH1 0x20 DUP2 ADD SWAP3 SWAP1 SWAP3 MSTORE DUP1 MLOAD CALLER SWAP3 DUP13 SWAP3 PUSH1 0x0 DUP1 MLOAD PUSH1 0x20 PUSH2 0x28FB DUP4 CODECOPY DUP2 MLOAD SWAP2 MSTORE SWAP3 SWAP2 DUP3 SWAP1 SUB ADD SWAP1 LOG3 PUSH2 0x137E JUMP JUMPDEST DUP4 PUSH1 0x2 ADD SLOAD DUP4 GT ISZERO PUSH2 0x12ED JUMPI PUSH1 0x2 DUP5 ADD DUP4 SWAP1 SSTORE PUSH1 0x40 DUP1 MLOAD PUSH32 0xBBE4277100000000000000000000000000000000000000000000000000000000 DUP2 MSTORE PUSH2 0x3E3 PUSH1 0x4 DUP3 ADD MSTORE SWAP1 MLOAD PUSH1 0x1 PUSH1 0xA0 PUSH1 0x2 EXP SUB DUP8 AND SWAP2 PUSH4 0xBBE42771 SWAP2 PUSH1 0x24 DUP1 DUP4 ADD SWAP3 PUSH1 0x0 SWAP3 SWAP2 SWAP1 DUP3 SWAP1 SUB ADD DUP2 DUP4 DUP8 DUP1 EXTCODESIZE ISZERO DUP1 ISZERO PUSH2 0x12A3 JUMPI PUSH1 0x0 DUP1 REVERT JUMPDEST POP GAS CALL ISZERO DUP1 ISZERO PUSH2 0x12B7 JUMPI RETURNDATASIZE PUSH1 0x0 DUP1 RETURNDATACOPY RETURNDATASIZE PUSH1 0x0 REVERT JUMPDEST POP POP PUSH1 0x40 DUP1 MLOAD DUP7 DUP2 MSTORE PUSH1 0x3 PUSH1 0x20 DUP3 ADD MSTORE DUP2 MLOAD CALLER SWAP5 POP DUP14 SWAP4 POP PUSH1 0x0 DUP1 MLOAD PUSH1 0x20 PUSH2 0x28FB DUP4 CODECOPY DUP2 MLOAD SWAP2 MSTORE SWAP3 SWAP2 DUP2 SWAP1 SUB SWAP1 SWAP2 ADD SWAP1 LOG3 PUSH2 0x137E JUMP JUMPDEST DUP5 PUSH1 0x1 PUSH1 0xA0 PUSH1 0x2 EXP SUB AND PUSH4 0xBBE42771 PUSH2 0x3E3 PUSH1 0x40 MLOAD DUP3 PUSH4 0xFFFFFFFF AND PUSH1 0xE0 PUSH1 0x2 EXP MUL DUP2 MSTORE PUSH1 0x4 ADD DUP1 DUP3 DUP2 MSTORE PUSH1 0x20 ADD SWAP2 POP POP PUSH1 0x0 PUSH1 0x40 MLOAD DUP1 DUP4 SUB DUP2 PUSH1 0x0 DUP8 DUP1 EXTCODESIZE ISZERO DUP1 ISZERO PUSH2 0x1338 JUMPI PUSH1 0x0 DUP1 REVERT JUMPDEST POP GAS CALL ISZERO DUP1 ISZERO PUSH2 0x134C JUMPI RETURNDATASIZE PUSH1 0x0 DUP1 RETURNDATACOPY RETURNDATASIZE PUSH1 0x0 REVERT JUMPDEST POP POP PUSH1 0x40 DUP1 MLOAD DUP7 DUP2 MSTORE PUSH1 0x4 PUSH1 0x20 DUP3 ADD MSTORE DUP2 MLOAD CALLER SWAP5 POP DUP14 SWAP4 POP PUSH1 0x0 DUP1 MLOAD PUSH1 0x20 PUSH2 0x28FB DUP4 CODECOPY DUP2 MLOAD SWAP2 MSTORE SWAP3 SWAP2 DUP2 SWAP1 SUB SWAP1 SWAP2 ADD SWAP1 LOG3 JUMPDEST POP POP POP POP POP POP POP POP POP JUMP JUMPDEST PUSH1 0x0 DUP1 DUP3 PUSH1 0x2 PUSH2 0x1398 DUP3 PUSH2 0x1647 JUMP JUMPDEST PUSH1 0x5 DUP2 GT ISZERO PUSH2 0x13A3 JUMPI INVALID JUMPDEST EQ DUP1 ISZERO PUSH2 0x1438 JUMPI POP PUSH1 0x0 DUP2 DUP2 MSTORE PUSH1 0x2 PUSH1 0x20 SWAP1 DUP2 MSTORE PUSH1 0x40 DUP1 DUP4 KECCAK256 SLOAD DUP2 MLOAD PUSH1 0xE0 PUSH1 0x2 EXP PUSH4 0x8DA5CB5B MUL DUP2 MSTORE SWAP2 MLOAD PUSH1 0x1 PUSH1 0xA0 PUSH1 0x2 EXP SUB SWAP1 SWAP2 AND SWAP4 PUSH4 0x8DA5CB5B SWAP4 PUSH1 0x4 DUP1 DUP6 ADD SWAP5 SWAP2 SWAP4 SWAP3 SWAP2 DUP4 SWAP1 SUB ADD SWAP1 DUP3 SWAP1 DUP8 DUP1 EXTCODESIZE ISZERO DUP1 ISZERO PUSH2 0x1400 JUMPI PUSH1 0x0 DUP1 REVERT JUMPDEST POP GAS CALL ISZERO DUP1 ISZERO PUSH2 0x1414 JUMPI RETURNDATASIZE PUSH1 0x0 DUP1 RETURNDATACOPY RETURNDATASIZE PUSH1 0x0 REVERT JUMPDEST POP POP POP POP PUSH1 0x40 MLOAD RETURNDATASIZE PUSH1 0x20 DUP2 LT ISZERO PUSH2 0x142A JUMPI PUSH1 0x0 DUP1 REVERT JUMPDEST POP MLOAD PUSH1 0x1 PUSH1 0xA0 PUSH1 0x2 EXP SUB AND CALLER EQ JUMPDEST ISZERO ISZERO PUSH2 0x1443 JUMPI PUSH1 0x0 DUP1 REVERT JUMPDEST PUSH1 0x0 DUP1 SLOAD PUSH1 0x1 SLOAD PUSH1 0x40 DUP1 MLOAD PUSH1 0xE0 PUSH1 0x2 EXP PUSH4 0x2571BE3 MUL DUP2 MSTORE PUSH1 0x4 DUP2 ADD SWAP3 SWAP1 SWAP3 MSTORE MLOAD PUSH1 0x1 PUSH1 0xA0 PUSH1 0x2 EXP SUB SWAP1 SWAP3 AND SWAP3 PUSH4 0x2571BE3 SWAP3 PUSH1 0x24 DUP1 DUP5 ADD SWAP4 PUSH1 0x20 SWAP4 SWAP1 DUP4 SWAP1 SUB SWAP1 SWAP2 ADD SWAP1 DUP3 SWAP1 DUP8 DUP1 EXTCODESIZE ISZERO DUP1 ISZERO PUSH2 0x1498 JUMPI PUSH1 0x0 DUP1 REVERT JUMPDEST POP GAS CALL ISZERO DUP1 ISZERO PUSH2 0x14AC JUMPI RETURNDATASIZE PUSH1 0x0 DUP1 RETURNDATACOPY RETURNDATASIZE PUSH1 0x0 REVERT JUMPDEST POP POP POP POP PUSH1 0x40 MLOAD RETURNDATASIZE PUSH1 0x20 DUP2 LT ISZERO PUSH2 0x14C2 JUMPI PUSH1 0x0 DUP1 REVERT JUMPDEST POP MLOAD SWAP3 POP PUSH1 0x1 PUSH1 0xA0 PUSH1 0x2 EXP SUB DUP4 AND ADDRESS EQ ISZERO PUSH2 0x14DC JUMPI PUSH1 0x0 DUP1 REVERT JUMPDEST PUSH1 0x0 DUP5 DUP2 MSTORE PUSH1 0x2 PUSH1 0x20 MSTORE PUSH1 0x40 DUP1 DUP3 KECCAK256 DUP1 SLOAD DUP3 MLOAD PUSH32 0xFAAB9D3900000000000000000000000000000000000000000000000000000000 DUP2 MSTORE PUSH1 0x1 PUSH1 0xA0 PUSH1 0x2 EXP SUB DUP9 DUP2 AND PUSH1 0x4 DUP4 ADD MSTORE SWAP4 MLOAD SWAP3 SWAP7 POP SWAP3 AND SWAP3 PUSH4 0xFAAB9D39 SWAP3 PUSH1 0x24 DUP1 DUP3 ADD SWAP4 SWAP2 DUP3 SWAP1 SUB ADD DUP2 DUP4 DUP8 DUP1 EXTCODESIZE ISZERO DUP1 ISZERO PUSH2 0x154C JUMPI PUSH1 0x0 DUP1 REVERT JUMPDEST POP GAS CALL ISZERO DUP1 ISZERO PUSH2 0x1560 JUMPI RETURNDATASIZE PUSH1 0x0 DUP1 RETURNDATACOPY RETURNDATASIZE PUSH1 0x0 REVERT JUMPDEST POP POP DUP4 SLOAD PUSH1 0x1 DUP6 ADD SLOAD PUSH1 0x40 DUP1 MLOAD PUSH32 0xEA9E107A00000000000000000000000000000000000000000000000000000000 DUP2 MSTORE PUSH1 0x4 DUP2 ADD DUP11 SWAP1 MSTORE PUSH1 0x1 PUSH1 0xA0 PUSH1 0x2 EXP SUB SWAP4 DUP5 AND PUSH1 0x24 DUP3 ADD MSTORE PUSH1 0x44 DUP2 ADD SWAP3 SWAP1 SWAP3 MSTORE MLOAD SWAP2 DUP8 AND SWAP4 POP PUSH4 0xEA9E107A SWAP3 POP PUSH1 0x64 DUP1 DUP3 ADD SWAP3 PUSH1 0x0 SWAP3 SWAP1 SWAP2 SWAP1 DUP3 SWAP1 SUB ADD DUP2 DUP4 DUP8 DUP1 EXTCODESIZE ISZERO DUP1 ISZERO PUSH2 0x15DD JUMPI PUSH1 0x0 DUP1 REVERT JUMPDEST POP GAS CALL ISZERO DUP1 ISZERO PUSH2 0x15F1 JUMPI RETURNDATASIZE PUSH1 0x0 DUP1 RETURNDATACOPY RETURNDATASIZE PUSH1 0x0 REVERT JUMPDEST POP POP DUP4 SLOAD PUSH1 0x1 PUSH1 0xA0 PUSH1 0x2 EXP SUB NOT AND DUP5 SSTORE POP POP PUSH1 0x0 PUSH1 0x1 DUP4 ADD DUP2 SWAP1 SSTORE PUSH1 0x2 DUP4 ADD DUP2 SWAP1 SSTORE PUSH1 0x3 SWAP1 SWAP3 ADD SWAP2 SWAP1 SWAP2 SSTORE POP POP POP JUMP JUMPDEST PUSH1 0x3 PUSH1 0x20 SWAP1 DUP2 MSTORE PUSH1 0x0 SWAP3 DUP4 MSTORE PUSH1 0x40 DUP1 DUP5 KECCAK256 SWAP1 SWAP2 MSTORE SWAP1 DUP3 MSTORE SWAP1 KECCAK256 SLOAD PUSH1 0x1 PUSH1 0xA0 PUSH1 0x2 EXP SUB AND DUP2 JUMP JUMPDEST PUSH1 0x0 DUP2 DUP2 MSTORE PUSH1 0x2 PUSH1 0x20 MSTORE PUSH1 0x40 DUP2 KECCAK256 PUSH2 0x165F DUP4 TIMESTAMP PUSH2 0x1823 JUMP JUMPDEST ISZERO ISZERO PUSH2 0x166E JUMPI PUSH1 0x5 SWAP2 POP PUSH2 0x16B7 JUMP JUMPDEST DUP1 PUSH1 0x1 ADD SLOAD TIMESTAMP LT ISZERO PUSH2 0x169E JUMPI PUSH1 0x1 DUP2 ADD SLOAD PUSH3 0x2A2FF NOT ADD TIMESTAMP LT ISZERO PUSH2 0x1695 JUMPI PUSH1 0x1 SWAP2 POP PUSH2 0x16B7 JUMP JUMPDEST PUSH1 0x4 SWAP2 POP PUSH2 0x16B7 JUMP JUMPDEST PUSH1 0x3 DUP2 ADD SLOAD ISZERO ISZERO PUSH2 0x16B2 JUMPI PUSH1 0x0 SWAP2 POP PUSH2 0x16B7 JUMP JUMPDEST PUSH1 0x2 SWAP2 POP JUMPDEST POP SWAP2 SWAP1 POP JUMP JUMPDEST PUSH1 0x0 DUP3 PUSH1 0x2 PUSH2 0x16CB DUP3 PUSH2 0x1647 JUMP JUMPDEST PUSH1 0x5 DUP2 GT ISZERO PUSH2 0x16D6 JUMPI INVALID JUMPDEST EQ DUP1 ISZERO PUSH2 0x176B JUMPI POP PUSH1 0x0 DUP2 DUP2 MSTORE PUSH1 0x2 PUSH1 0x20 SWAP1 DUP2 MSTORE PUSH1 0x40 DUP1 DUP4 KECCAK256 SLOAD DUP2 MLOAD PUSH1 0xE0 PUSH1 0x2 EXP PUSH4 0x8DA5CB5B MUL DUP2 MSTORE SWAP2 MLOAD PUSH1 0x1 PUSH1 0xA0 PUSH1 0x2 EXP SUB SWAP1 SWAP2 AND SWAP4 PUSH4 0x8DA5CB5B SWAP4 PUSH1 0x4 DUP1 DUP6 ADD SWAP5 SWAP2 SWAP4 SWAP3 SWAP2 DUP4 SWAP1 SUB ADD SWAP1 DUP3 SWAP1 DUP8 DUP1 EXTCODESIZE ISZERO DUP1 ISZERO PUSH2 0x1733 JUMPI PUSH1 0x0 DUP1 REVERT JUMPDEST POP GAS CALL ISZERO DUP1 ISZERO PUSH2 0x1747 JUMPI RETURNDATASIZE PUSH1 0x0 DUP1 RETURNDATACOPY RETURNDATASIZE PUSH1 0x0 REVERT JUMPDEST POP POP POP POP PUSH1 0x40 MLOAD RETURNDATASIZE PUSH1 0x20 DUP2 LT ISZERO PUSH2 0x175D JUMPI PUSH1 0x0 DUP1 REVERT JUMPDEST POP MLOAD PUSH1 0x1 PUSH1 0xA0 PUSH1 0x2 EXP SUB AND CALLER EQ JUMPDEST ISZERO ISZERO PUSH2 0x1776 JUMPI PUSH1 0x0 DUP1 REVERT JUMPDEST PUSH1 0x1 PUSH1 0xA0 PUSH1 0x2 EXP SUB DUP4 AND ISZERO ISZERO PUSH2 0x178B JUMPI PUSH1 0x0 DUP1 REVERT JUMPDEST PUSH1 0x0 DUP5 DUP2 MSTORE PUSH1 0x2 PUSH1 0x20 MSTORE PUSH1 0x40 DUP1 DUP3 KECCAK256 DUP1 SLOAD DUP3 MLOAD PUSH32 0x13AF403500000000000000000000000000000000000000000000000000000000 DUP2 MSTORE PUSH1 0x1 PUSH1 0xA0 PUSH1 0x2 EXP SUB DUP9 DUP2 AND PUSH1 0x4 DUP4 ADD MSTORE SWAP4 MLOAD SWAP3 SWAP7 POP SWAP3 AND SWAP3 PUSH4 0x13AF4035 SWAP3 PUSH1 0x24 DUP1 DUP3 ADD SWAP4 SWAP2 DUP3 SWAP1 SUB ADD DUP2 DUP4 DUP8 DUP1 EXTCODESIZE ISZERO DUP1 ISZERO PUSH2 0x17FB JUMPI PUSH1 0x0 DUP1 REVERT JUMPDEST POP GAS CALL ISZERO DUP1 ISZERO PUSH2 0x180F JUMPI RETURNDATASIZE PUSH1 0x0 DUP1 RETURNDATACOPY RETURNDATASIZE PUSH1 0x0 REVERT JUMPDEST POP POP POP POP PUSH2 0x181D DUP5 DUP5 PUSH2 0x210C JUMP JUMPDEST POP POP POP POP JUMP JUMPDEST PUSH1 0x0 PUSH2 0x182E DUP4 PUSH2 0x77F JUMP JUMPDEST DUP3 GT SWAP1 POP JUMPDEST SWAP3 SWAP2 POP POP JUMP JUMPDEST PUSH1 0x0 DUP2 PUSH1 0x2 PUSH2 0x1847 DUP3 PUSH2 0x1647 JUMP JUMPDEST PUSH1 0x5 DUP2 GT ISZERO PUSH2 0x1852 JUMPI INVALID JUMPDEST EQ DUP1 ISZERO PUSH2 0x18E7 JUMPI POP PUSH1 0x0 DUP2 DUP2 MSTORE PUSH1 0x2 PUSH1 0x20 SWAP1 DUP2 MSTORE PUSH1 0x40 DUP1 DUP4 KECCAK256 SLOAD DUP2 MLOAD PUSH1 0xE0 PUSH1 0x2 EXP PUSH4 0x8DA5CB5B MUL DUP2 MSTORE SWAP2 MLOAD PUSH1 0x1 PUSH1 0xA0 PUSH1 0x2 EXP SUB SWAP1 SWAP2 AND SWAP4 PUSH4 0x8DA5CB5B SWAP4 PUSH1 0x4 DUP1 DUP6 ADD SWAP5 SWAP2 SWAP4 SWAP3 SWAP2 DUP4 SWAP1 SUB ADD SWAP1 DUP3 SWAP1 DUP8 DUP1 EXTCODESIZE ISZERO DUP1 ISZERO PUSH2 0x18AF JUMPI PUSH1 0x0 DUP1 REVERT JUMPDEST POP GAS CALL ISZERO DUP1 ISZERO PUSH2 0x18C3 JUMPI RETURNDATASIZE PUSH1 0x0 DUP1 RETURNDATACOPY RETURNDATASIZE PUSH1 0x0 REVERT JUMPDEST POP POP POP POP PUSH1 0x40 MLOAD RETURNDATASIZE PUSH1 0x20 DUP2 LT ISZERO PUSH2 0x18D9 JUMPI PUSH1 0x0 DUP1 REVERT JUMPDEST POP MLOAD PUSH1 0x1 PUSH1 0xA0 PUSH1 0x2 EXP SUB AND CALLER EQ JUMPDEST ISZERO ISZERO PUSH2 0x18F2 JUMPI PUSH1 0x0 DUP1 REVERT JUMPDEST PUSH1 0x0 DUP4 DUP2 MSTORE PUSH1 0x2 PUSH1 0x20 DUP2 SWAP1 MSTORE PUSH1 0x40 SWAP1 SWAP2 KECCAK256 SWAP1 DUP2 ADD SLOAD SWAP1 SWAP3 POP PUSH2 0x191B SWAP1 PUSH7 0x2386F26FC10000 PUSH2 0x20E3 JUMP JUMPDEST PUSH1 0x2 DUP4 ADD DUP2 SWAP1 SSTORE DUP3 SLOAD PUSH1 0x40 DUP1 MLOAD PUSH32 0xB0C8097200000000000000000000000000000000000000000000000000000000 DUP2 MSTORE PUSH1 0x4 DUP2 ADD SWAP4 SWAP1 SWAP4 MSTORE PUSH1 0x1 PUSH1 0x24 DUP5 ADD MSTORE MLOAD PUSH1 0x1 PUSH1 0xA0 PUSH1 0x2 EXP SUB SWAP1 SWAP2 AND SWAP2 PUSH4 0xB0C80972 SWAP2 PUSH1 0x44 DUP1 DUP4 ADD SWAP3 PUSH1 0x0 SWAP3 SWAP2 SWAP1 DUP3 SWAP1 SUB ADD DUP2 DUP4 DUP8 DUP1 EXTCODESIZE ISZERO DUP1 ISZERO PUSH2 0x198D JUMPI PUSH1 0x0 DUP1 REVERT JUMPDEST POP GAS CALL ISZERO DUP1 ISZERO PUSH2 0x19A1 JUMPI RETURNDATASIZE PUSH1 0x0 DUP1 RETURNDATACOPY RETURNDATASIZE PUSH1 0x0 REVERT JUMPDEST POP POP POP POP PUSH2 0x1A2F DUP4 DUP4 PUSH1 0x0 ADD PUSH1 0x0 SWAP1 SLOAD SWAP1 PUSH2 0x100 EXP SWAP1 DIV PUSH1 0x1 PUSH1 0xA0 PUSH1 0x2 EXP SUB AND PUSH1 0x1 PUSH1 0xA0 PUSH1 0x2 EXP SUB AND PUSH4 0x8DA5CB5B PUSH1 0x40 MLOAD DUP2 PUSH4 0xFFFFFFFF AND PUSH1 0xE0 PUSH1 0x2 EXP MUL DUP2 MSTORE PUSH1 0x4 ADD PUSH1 0x20 PUSH1 0x40 MLOAD DUP1 DUP4 SUB DUP2 PUSH1 0x0 DUP8 DUP1 EXTCODESIZE ISZERO DUP1 ISZERO PUSH2 0x19FE JUMPI PUSH1 0x0 DUP1 REVERT JUMPDEST POP GAS CALL ISZERO DUP1 ISZERO PUSH2 0x1A12 JUMPI RETURNDATASIZE PUSH1 0x0 DUP1 RETURNDATACOPY RETURNDATASIZE PUSH1 0x0 REVERT JUMPDEST POP POP POP POP PUSH1 0x40 MLOAD RETURNDATASIZE PUSH1 0x20 DUP2 LT ISZERO PUSH2 0x1A28 JUMPI PUSH1 0x0 DUP1 REVERT JUMPDEST POP MLOAD PUSH2 0x210C JUMP JUMPDEST DUP2 SLOAD PUSH1 0x40 DUP1 MLOAD PUSH1 0xE0 PUSH1 0x2 EXP PUSH4 0x8DA5CB5B MUL DUP2 MSTORE SWAP1 MLOAD PUSH1 0x1 PUSH1 0xA0 PUSH1 0x2 EXP SUB SWAP1 SWAP3 AND SWAP2 PUSH4 0x8DA5CB5B SWAP2 PUSH1 0x4 DUP1 DUP3 ADD SWAP3 PUSH1 0x20 SWAP3 SWAP1 SWAP2 SWAP1 DUP3 SWAP1 SUB ADD DUP2 PUSH1 0x0 DUP8 DUP1 EXTCODESIZE ISZERO DUP1 ISZERO PUSH2 0x1A78 JUMPI PUSH1 0x0 DUP1 REVERT JUMPDEST POP GAS CALL ISZERO DUP1 ISZERO PUSH2 0x1A8C JUMPI RETURNDATASIZE PUSH1 0x0 DUP1 RETURNDATACOPY RETURNDATASIZE PUSH1 0x0 REVERT JUMPDEST POP POP POP POP PUSH1 0x40 MLOAD RETURNDATASIZE PUSH1 0x20 DUP2 LT ISZERO PUSH2 0x1AA2 JUMPI PUSH1 0x0 DUP1 REVERT JUMPDEST POP MLOAD PUSH1 0x2 DUP4 ADD SLOAD PUSH1 0x1 DUP5 ADD SLOAD PUSH1 0x40 DUP1 MLOAD SWAP3 DUP4 MSTORE PUSH1 0x20 DUP4 ADD SWAP2 SWAP1 SWAP2 MSTORE DUP1 MLOAD PUSH1 0x1 PUSH1 0xA0 PUSH1 0x2 EXP SUB SWAP1 SWAP4 AND SWAP3 DUP7 SWAP3 PUSH32 0xF0C27ADFD84B60B6F456B0E87CDCCB1E5FB9603991588D87FA99F5B6B61E670 SWAP3 SWAP1 DUP3 SWAP1 SUB ADD SWAP1 LOG3 POP POP POP JUMP JUMPDEST PUSH1 0x4 SLOAD DUP2 JUMP JUMPDEST PUSH3 0x49D400 DUP2 JUMP JUMPDEST CALLER PUSH1 0x0 SWAP1 DUP2 MSTORE PUSH1 0x3 PUSH1 0x20 SWAP1 DUP2 MSTORE PUSH1 0x40 DUP1 DUP4 KECCAK256 DUP5 DUP5 MSTORE SWAP1 SWAP2 MSTORE DUP2 KECCAK256 SLOAD PUSH1 0x1 PUSH1 0xA0 PUSH1 0x2 EXP SUB AND ISZERO PUSH2 0x1B36 JUMPI PUSH1 0x0 DUP1 REVERT JUMPDEST PUSH7 0x2386F26FC10000 CALLVALUE LT ISZERO PUSH2 0x1B4A JUMPI PUSH1 0x0 DUP1 REVERT JUMPDEST CALLVALUE CALLER PUSH2 0x1B54 PUSH2 0x23F1 JUMP JUMPDEST PUSH1 0x1 PUSH1 0xA0 PUSH1 0x2 EXP SUB SWAP1 SWAP2 AND DUP2 MSTORE PUSH1 0x40 MLOAD SWAP1 DUP2 SWAP1 SUB PUSH1 0x20 ADD SWAP1 DUP3 CREATE DUP1 ISZERO DUP1 ISZERO PUSH2 0x1B80 JUMPI RETURNDATASIZE PUSH1 0x0 DUP1 RETURNDATACOPY RETURNDATASIZE PUSH1 0x0 REVERT JUMPDEST POP CALLER PUSH1 0x0 DUP2 DUP2 MSTORE PUSH1 0x3 PUSH1 0x20 SWAP1 DUP2 MSTORE PUSH1 0x40 DUP1 DUP4 KECCAK256 DUP9 DUP5 MSTORE DUP3 MSTORE SWAP2 DUP3 SWAP1 KECCAK256 DUP1 SLOAD PUSH1 0x1 PUSH1 0xA0 PUSH1 0x2 EXP SUB NOT AND PUSH1 0x1 PUSH1 0xA0 PUSH1 0x2 EXP SUB DUP7 AND OR SWAP1 SSTORE DUP2 MLOAD CALLVALUE DUP2 MSTORE SWAP2 MLOAD SWAP4 SWAP6 POP SWAP2 SWAP4 POP DUP6 SWAP3 PUSH32 0xB556FF269C1B6714F432C36431E2041D28436A73B6C3F19C021827BBDC6BFC29 SWAP3 SWAP2 DUP2 SWAP1 SUB SWAP1 SWAP2 ADD SWAP1 LOG3 POP POP JUMP JUMPDEST DUP1 MLOAD ISZERO ISZERO PUSH2 0x1C00 JUMPI PUSH1 0x0 DUP1 REVERT JUMPDEST PUSH1 0x2 PUSH2 0x1C26 DUP3 PUSH1 0x1 DUP5 MLOAD SUB DUP2 MLOAD DUP2 LT ISZERO ISZERO PUSH2 0x1C17 JUMPI INVALID JUMPDEST SWAP1 PUSH1 0x20 ADD SWAP1 PUSH1 0x20 MUL ADD MLOAD PUSH2 0x1647 JUMP JUMPDEST PUSH1 0x5 DUP2 GT ISZERO PUSH2 0x1C31 JUMPI INVALID JUMPDEST EQ ISZERO PUSH2 0x1C3C JUMPI PUSH1 0x0 DUP1 REVERT JUMPDEST PUSH2 0x1C4D PUSH1 0x1 DUP3 MLOAD SUB DUP3 PUSH1 0x1 SLOAD PUSH2 0x2212 JUMP JUMPDEST POP JUMP JUMPDEST PUSH1 0x0 JUMPDEST DUP2 MLOAD DUP2 LT ISZERO PUSH2 0x1C84 JUMPI PUSH2 0x1C7C DUP3 DUP3 DUP2 MLOAD DUP2 LT ISZERO ISZERO PUSH2 0x1C6D JUMPI INVALID JUMPDEST SWAP1 PUSH1 0x20 ADD SWAP1 PUSH1 0x20 MUL ADD MLOAD PUSH2 0x1C8D JUMP JUMPDEST PUSH1 0x1 ADD PUSH2 0x1C53 JUMP JUMPDEST POP POP JUMP JUMPDEST POP POP POP JUMP JUMPDEST PUSH1 0x0 DUP1 PUSH1 0x4 SLOAD TIMESTAMP LT ISZERO DUP1 ISZERO PUSH2 0x1CAA JUMPI POP PUSH1 0x4 SLOAD PUSH4 0x784CE00 ADD TIMESTAMP GT ISZERO JUMPDEST DUP1 ISZERO PUSH2 0x1D40 JUMPI POP PUSH1 0x0 DUP1 SLOAD PUSH1 0x1 SLOAD PUSH1 0x40 DUP1 MLOAD PUSH1 0xE0 PUSH1 0x2 EXP PUSH4 0x2571BE3 MUL DUP2 MSTORE PUSH1 0x4 DUP2 ADD SWAP3 SWAP1 SWAP3 MSTORE MLOAD ADDRESS SWAP4 PUSH1 0x1 PUSH1 0xA0 PUSH1 0x2 EXP SUB SWAP1 SWAP4 AND SWAP3 PUSH4 0x2571BE3 SWAP3 PUSH1 0x24 DUP1 DUP3 ADD SWAP4 PUSH1 0x20 SWAP4 SWAP1 SWAP3 DUP4 SWAP1 SUB SWAP1 SWAP2 ADD SWAP1 DUP3 SWAP1 DUP8 DUP1 EXTCODESIZE ISZERO DUP1 ISZERO PUSH2 0x1D09 JUMPI PUSH1 0x0 DUP1 REVERT JUMPDEST POP GAS CALL ISZERO DUP1 ISZERO PUSH2 0x1D1D JUMPI RETURNDATASIZE PUSH1 0x0 DUP1 RETURNDATACOPY RETURNDATASIZE PUSH1 0x0 REVERT JUMPDEST POP POP POP POP PUSH1 0x40 MLOAD RETURNDATASIZE PUSH1 0x20 DUP2 LT ISZERO PUSH2 0x1D33 JUMPI PUSH1 0x0 DUP1 REVERT JUMPDEST POP MLOAD PUSH1 0x1 PUSH1 0xA0 PUSH1 0x2 EXP SUB AND EQ JUMPDEST ISZERO ISZERO PUSH2 0x1D4B JUMPI PUSH1 0x0 DUP1 REVERT JUMPDEST PUSH2 0x1D54 DUP4 PUSH2 0x1647 JUMP JUMPDEST SWAP2 POP PUSH1 0x1 DUP3 PUSH1 0x5 DUP2 GT ISZERO PUSH2 0x1D64 JUMPI INVALID JUMPDEST EQ ISZERO PUSH2 0x1D6F JUMPI PUSH2 0x1C88 JUMP JUMPDEST PUSH1 0x0 DUP3 PUSH1 0x5 DUP2 GT ISZERO PUSH2 0x1D7D JUMPI INVALID JUMPDEST EQ PUSH2 0x1D87 JUMPI PUSH1 0x0 DUP1 REVERT JUMPDEST POP PUSH1 0x0 DUP3 DUP2 MSTORE PUSH1 0x2 PUSH1 0x20 DUP2 DUP2 MSTORE PUSH1 0x40 DUP1 DUP5 KECCAK256 TIMESTAMP PUSH3 0x69780 ADD PUSH1 0x1 DUP3 ADD DUP2 SWAP1 SSTORE SWAP4 DUP2 ADD DUP6 SWAP1 SSTORE PUSH1 0x3 DUP2 ADD SWAP5 SWAP1 SWAP5 SSTORE DUP1 MLOAD SWAP3 DUP4 MSTORE MLOAD DUP6 SWAP3 PUSH32 0x87E97E825A1D1FA0C54E1D36C7506C1DEA8B1EFD451FE68B000CF96F7CF40003 SWAP3 SWAP1 DUP3 SWAP1 SUB ADD SWAP1 LOG2 POP POP POP JUMP JUMPDEST PUSH1 0x1 SLOAD DUP2 JUMP JUMPDEST PUSH2 0x1DF9 DUP3 PUSH2 0x1C50 JUMP JUMPDEST PUSH2 0x1C84 DUP2 PUSH2 0x1B08 JUMP JUMPDEST PUSH1 0x0 DUP1 SLOAD PUSH1 0x1 SLOAD PUSH1 0x40 DUP1 MLOAD PUSH1 0xE0 PUSH1 0x2 EXP PUSH4 0x2571BE3 MUL DUP2 MSTORE PUSH1 0x4 DUP2 ADD SWAP3 SWAP1 SWAP3 MSTORE MLOAD ADDRESS SWAP3 PUSH1 0x1 PUSH1 0xA0 PUSH1 0x2 EXP SUB AND SWAP2 PUSH4 0x2571BE3 SWAP2 PUSH1 0x24 DUP1 DUP4 ADD SWAP3 PUSH1 0x20 SWAP3 SWAP2 SWAP1 DUP3 SWAP1 SUB ADD DUP2 DUP9 DUP8 DUP1 EXTCODESIZE ISZERO DUP1 ISZERO PUSH2 0x1E55 JUMPI PUSH1 0x0 DUP1 REVERT JUMPDEST POP GAS CALL ISZERO DUP1 ISZERO PUSH2 0x1E69 JUMPI RETURNDATASIZE PUSH1 0x0 DUP1 RETURNDATACOPY RETURNDATASIZE PUSH1 0x0 REVERT JUMPDEST POP POP POP POP PUSH1 0x40 MLOAD RETURNDATASIZE PUSH1 0x20 DUP2 LT ISZERO PUSH2 0x1E7F JUMPI PUSH1 0x0 DUP1 REVERT JUMPDEST POP MLOAD PUSH1 0x1 PUSH1 0xA0 PUSH1 0x2 EXP SUB AND EQ ISZERO PUSH2 0x1C84 JUMPI PUSH1 0x0 DUP1 SLOAD PUSH1 0x1 SLOAD PUSH1 0x40 DUP1 MLOAD PUSH32 0x6AB592300000000000000000000000000000000000000000000000000000000 DUP2 MSTORE PUSH1 0x4 DUP2 ADD SWAP3 SWAP1 SWAP3 MSTORE PUSH1 0x24 DUP3 ADD DUP7 SWAP1 MSTORE ADDRESS PUSH1 0x44 DUP4 ADD MSTORE MLOAD PUSH1 0x1 PUSH1 0xA0 PUSH1 0x2 EXP SUB SWAP1 SWAP3 AND SWAP3 PUSH4 0x6AB5923 SWAP3 PUSH1 0x64 DUP1 DUP5 ADD SWAP4 DUP3 SWAP1 SUB ADD DUP2 DUP4 DUP8 DUP1 EXTCODESIZE ISZERO DUP1 ISZERO PUSH2 0x1F01 JUMPI PUSH1 0x0 DUP1 REVERT JUMPDEST POP GAS CALL ISZERO DUP1 ISZERO PUSH2 0x1F15 JUMPI RETURNDATASIZE PUSH1 0x0 DUP1 RETURNDATACOPY RETURNDATASIZE PUSH1 0x0 REVERT JUMPDEST POP POP PUSH1 0x1 SLOAD PUSH1 0x40 DUP1 MLOAD SWAP2 DUP3 MSTORE PUSH1 0x20 DUP3 ADD DUP7 SWAP1 MSTORE DUP1 MLOAD SWAP2 DUP3 SWAP1 SUB DUP2 ADD DUP3 KECCAK256 PUSH1 0x0 DUP1 SLOAD PUSH32 0x1896F70A00000000000000000000000000000000000000000000000000000000 DUP6 MSTORE PUSH1 0x4 DUP6 ADD DUP4 SWAP1 MSTORE PUSH1 0x24 DUP6 ADD DUP3 SWAP1 MSTORE SWAP3 MLOAD SWAP2 SWAP7 POP PUSH1 0x1 PUSH1 0xA0 PUSH1 0x2 EXP SUB SWAP1 SWAP3 AND SWAP5 POP PUSH4 0x1896F70A SWAP4 POP PUSH1 0x44 DUP1 DUP5 ADD SWAP4 DUP3 SWAP1 SUB ADD DUP2 DUP4 DUP8 DUP1 EXTCODESIZE ISZERO DUP1 ISZERO PUSH2 0x1F9B JUMPI PUSH1 0x0 DUP1 REVERT JUMPDEST POP GAS CALL ISZERO DUP1 ISZERO PUSH2 0x1FAF JUMPI RETURNDATASIZE PUSH1 0x0 DUP1 RETURNDATACOPY RETURNDATASIZE PUSH1 0x0 REVERT JUMPDEST POP POP PUSH1 0x0 DUP1 SLOAD PUSH1 0x40 DUP1 MLOAD PUSH32 0x5B0FC9C300000000000000000000000000000000000000000000000000000000 DUP2 MSTORE PUSH1 0x4 DUP2 ADD DUP8 SWAP1 MSTORE PUSH1 0x24 DUP2 ADD DUP5 SWAP1 MSTORE SWAP1 MLOAD PUSH1 0x1 PUSH1 0xA0 PUSH1 0x2 EXP SUB SWAP1 SWAP3 AND SWAP5 POP PUSH4 0x5B0FC9C3 SWAP4 POP PUSH1 0x44 DUP1 DUP3 ADD SWAP4 SWAP3 SWAP2 DUP3 SWAP1 SUB ADD DUP2 DUP4 DUP8 DUP1 EXTCODESIZE ISZERO DUP1 ISZERO PUSH2 0x201D JUMPI PUSH1 0x0 DUP1 REVERT JUMPDEST POP GAS CALL ISZERO DUP1 ISZERO PUSH2 0x2031 JUMPI RETURNDATASIZE PUSH1 0x0 DUP1 RETURNDATACOPY RETURNDATASIZE PUSH1 0x0 REVERT JUMPDEST POP POP POP POP POP POP JUMP JUMPDEST DUP1 MLOAD PUSH1 0x0 SWAP1 PUSH1 0x1 DUP4 DUP2 ADD SWAP2 DUP5 ADD ADD DUP3 DUP1 JUMPDEST DUP3 DUP5 LT ISZERO PUSH2 0x20DA JUMPI POP DUP3 MLOAD PUSH1 0xFF AND PUSH1 0x80 DUP2 LT ISZERO PUSH2 0x206C JUMPI PUSH1 0x1 DUP5 ADD SWAP4 POP PUSH2 0x20CF JUMP JUMPDEST PUSH1 0xE0 DUP2 PUSH1 0xFF AND LT ISZERO PUSH2 0x2083 JUMPI PUSH1 0x2 DUP5 ADD SWAP4 POP PUSH2 0x20CF JUMP JUMPDEST PUSH1 0xF0 DUP2 PUSH1 0xFF AND LT ISZERO PUSH2 0x209A JUMPI PUSH1 0x3 DUP5 ADD SWAP4 POP PUSH2 0x20CF JUMP JUMPDEST PUSH1 0xF8 DUP2 PUSH1 0xFF AND LT ISZERO PUSH2 0x20B1 JUMPI PUSH1 0x4 DUP5 ADD SWAP4 POP PUSH2 0x20CF JUMP JUMPDEST PUSH1 0xFC DUP2 PUSH1 0xFF AND LT ISZERO PUSH2 0x20C8 JUMPI PUSH1 0x5 DUP5 ADD SWAP4 POP PUSH2 0x20CF JUMP JUMPDEST PUSH1 0x6 DUP5 ADD SWAP4 POP JUMPDEST PUSH1 0x1 SWAP1 SWAP2 ADD SWAP1 PUSH2 0x204A JUMP JUMPDEST POP SWAP5 SWAP4 POP POP POP POP JUMP JUMPDEST PUSH1 0x0 DUP2 DUP4 GT ISZERO PUSH2 0x20F4 JUMPI POP DUP2 PUSH2 0x1833 JUMP JUMPDEST POP DUP1 PUSH2 0x1833 JUMP JUMPDEST PUSH1 0x0 DUP2 DUP4 LT ISZERO PUSH2 0x20F4 JUMPI POP DUP2 PUSH2 0x1833 JUMP JUMPDEST PUSH1 0x0 DUP1 SLOAD PUSH1 0x1 SLOAD PUSH1 0x40 DUP1 MLOAD PUSH1 0xE0 PUSH1 0x2 EXP PUSH4 0x2571BE3 MUL DUP2 MSTORE PUSH1 0x4 DUP2 ADD SWAP3 SWAP1 SWAP3 MSTORE MLOAD ADDRESS SWAP4 PUSH1 0x1 PUSH1 0xA0 PUSH1 0x2 EXP SUB SWAP1 SWAP4 AND SWAP3 PUSH4 0x2571BE3 SWAP3 PUSH1 0x24 DUP1 DUP3 ADD SWAP4 PUSH1 0x20 SWAP4 SWAP1 SWAP3 DUP4 SWAP1 SUB SWAP1 SWAP2 ADD SWAP1 DUP3 SWAP1 DUP8 DUP1 EXTCODESIZE ISZERO DUP1 ISZERO PUSH2 0x2164 JUMPI PUSH1 0x0 DUP1 REVERT JUMPDEST POP GAS CALL ISZERO DUP1 ISZERO PUSH2 0x2178 JUMPI RETURNDATASIZE PUSH1 0x0 DUP1 RETURNDATACOPY RETURNDATASIZE PUSH1 0x0 REVERT JUMPDEST POP POP POP POP PUSH1 0x40 MLOAD RETURNDATASIZE PUSH1 0x20 DUP2 LT ISZERO PUSH2 0x218E JUMPI PUSH1 0x0 DUP1 REVERT JUMPDEST POP MLOAD PUSH1 0x1 PUSH1 0xA0 PUSH1 0x2 EXP SUB AND EQ ISZERO PUSH2 0x1C84 JUMPI PUSH1 0x0 DUP1 SLOAD PUSH1 0x1 SLOAD PUSH1 0x40 DUP1 MLOAD PUSH32 0x6AB592300000000000000000000000000000000000000000000000000000000 DUP2 MSTORE PUSH1 0x4 DUP2 ADD SWAP3 SWAP1 SWAP3 MSTORE PUSH1 0x24 DUP3 ADD DUP7 SWAP1 MSTORE PUSH1 0x1 PUSH1 0xA0 PUSH1 0x2 EXP SUB DUP6 DUP2 AND PUSH1 0x44 DUP5 ADD MSTORE SWAP1 MLOAD SWAP3 AND SWAP3 PUSH4 0x6AB5923 SWAP3 PUSH1 0x64 DUP1 DUP5 ADD SWAP4 DUP3 SWAP1 SUB ADD DUP2 DUP4 DUP8 DUP1 EXTCODESIZE ISZERO DUP1 ISZERO PUSH2 0x201D JUMPI PUSH1 0x0 DUP1 REVERT JUMPDEST PUSH1 0x0 SLOAD DUP3 MLOAD PUSH1 0x1 PUSH1 0xA0 PUSH1 0x2 EXP SUB SWAP1 SWAP2 AND SWAP1 PUSH4 0x6AB5923 SWAP1 DUP4 SWAP1 DUP6 SWAP1 DUP8 SWAP1 DUP2 LT PUSH2 0x2237 JUMPI INVALID JUMPDEST PUSH1 0x20 SWAP1 DUP2 MUL SWAP1 SWAP2 ADD ADD MLOAD PUSH1 0x40 DUP1 MLOAD PUSH1 0xE0 PUSH1 0x2 EXP PUSH4 0xFFFFFFFF DUP7 AND MUL DUP2 MSTORE PUSH1 0x4 DUP2 ADD SWAP4 SWAP1 SWAP4 MSTORE PUSH1 0x24 DUP4 ADD SWAP2 SWAP1 SWAP2 MSTORE ADDRESS PUSH1 0x44 DUP4 ADD MSTORE MLOAD PUSH1 0x64 DUP1 DUP4 ADD SWAP3 PUSH1 0x0 SWAP3 SWAP2 SWAP1 DUP3 SWAP1 SUB ADD DUP2 DUP4 DUP8 DUP1 EXTCODESIZE ISZERO DUP1 ISZERO PUSH2 0x228B JUMPI PUSH1 0x0 DUP1 REVERT JUMPDEST POP GAS CALL ISZERO DUP1 ISZERO PUSH2 0x229F JUMPI RETURNDATASIZE PUSH1 0x0 DUP1 RETURNDATACOPY RETURNDATASIZE PUSH1 0x0 REVERT JUMPDEST POP POP POP POP DUP1 DUP3 DUP5 DUP2 MLOAD DUP2 LT ISZERO ISZERO PUSH2 0x22B2 JUMPI INVALID JUMPDEST PUSH1 0x20 SWAP1 DUP2 MUL SWAP1 SWAP2 ADD DUP2 ADD MLOAD PUSH1 0x40 DUP1 MLOAD SWAP4 DUP5 MSTORE SWAP2 DUP4 ADD MSTORE DUP1 MLOAD SWAP2 DUP3 SWAP1 SUB ADD SWAP1 KECCAK256 SWAP1 POP PUSH1 0x0 DUP4 GT ISZERO PUSH2 0x22EA JUMPI PUSH2 0x22EA PUSH1 0x1 DUP5 SUB DUP4 DUP4 PUSH2 0x2212 JUMP JUMPDEST PUSH1 0x0 DUP1 SLOAD PUSH1 0x40 DUP1 MLOAD PUSH32 0x1896F70A00000000000000000000000000000000000000000000000000000000 DUP2 MSTORE PUSH1 0x4 DUP2 ADD DUP6 SWAP1 MSTORE PUSH1 0x24 DUP2 ADD DUP5 SWAP1 MSTORE SWAP1 MLOAD PUSH1 0x1 PUSH1 0xA0 PUSH1 0x2 EXP SUB SWAP1 SWAP3 AND SWAP3 PUSH4 0x1896F70A SWAP3 PUSH1 0x44 DUP1 DUP5 ADD SWAP4 DUP3 SWAP1 SUB ADD DUP2 DUP4 DUP8 DUP1 EXTCODESIZE ISZERO DUP1 ISZERO PUSH2 0x2352 JUMPI PUSH1 0x0 DUP1 REVERT JUMPDEST POP GAS CALL ISZERO DUP1 ISZERO PUSH2 0x2366 JUMPI RETURNDATASIZE PUSH1 0x0 DUP1 RETURNDATACOPY RETURNDATASIZE PUSH1 0x0 REVERT JUMPDEST POP POP PUSH1 0x0 DUP1 SLOAD PUSH1 0x40 DUP1 MLOAD PUSH32 0x5B0FC9C300000000000000000000000000000000000000000000000000000000 DUP2 MSTORE PUSH1 0x4 DUP2 ADD DUP8 SWAP1 MSTORE PUSH1 0x24 DUP2 ADD DUP5 SWAP1 MSTORE SWAP1 MLOAD PUSH1 0x1 PUSH1 0xA0 PUSH1 0x2 EXP SUB SWAP1 SWAP3 AND SWAP5 POP PUSH4 0x5B0FC9C3 SWAP4 POP PUSH1 0x44 DUP1 DUP3 ADD SWAP4 SWAP3 SWAP2 DUP3 SWAP1 SUB ADD DUP2 DUP4 DUP8 DUP1 EXTCODESIZE ISZERO DUP1 ISZERO PUSH2 0x23D4 JUMPI PUSH1 0x0 DUP1 REVERT JUMPDEST POP GAS CALL ISZERO DUP1 ISZERO PUSH2 0x23E8 JUMPI RETURNDATASIZE PUSH1 0x0 DUP1 RETURNDATACOPY RETURNDATASIZE PUSH1 0x0 REVERT JUMPDEST POP POP POP POP POP POP POP JUMP JUMPDEST PUSH1 0x40 MLOAD PUSH2 0x4F9 DUP1 PUSH2 0x2402 DUP4 CODECOPY ADD SWAP1 JUMP STOP PUSH1 0x80 PUSH1 0x40 MSTORE PUSH1 0x40 MLOAD PUSH1 0x20 DUP1 PUSH2 0x4F9 DUP4 CODECOPY DUP2 ADD PUSH1 0x40 MSTORE MLOAD PUSH1 0x1 DUP1 SLOAD PUSH1 0x1 PUSH1 0xA0 PUSH1 0x2 EXP SUB SWAP1 SWAP3 AND PUSH1 0x1 PUSH1 0xA0 PUSH1 0x2 EXP SUB NOT SWAP3 DUP4 AND OR DUP2 SSTORE PUSH1 0x0 DUP1 SLOAD SWAP1 SWAP3 AND CALLER OR SWAP1 SWAP2 SSTORE TIMESTAMP PUSH1 0x3 SSTORE PUSH1 0x5 DUP1 SLOAD PUSH1 0xFF NOT AND SWAP1 SWAP2 OR SWAP1 SSTORE CALLVALUE PUSH1 0x4 SSTORE PUSH2 0x496 DUP1 PUSH2 0x63 PUSH1 0x0 CODECOPY PUSH1 0x0 RETURN STOP PUSH1 0x80 PUSH1 0x40 MSTORE PUSH1 0x4 CALLDATASIZE LT PUSH2 0xA3 JUMPI PUSH4 0xFFFFFFFF PUSH29 0x100000000000000000000000000000000000000000000000000000000 PUSH1 0x0 CALLDATALOAD DIV AND PUSH4 0x5B34410 DUP2 EQ PUSH2 0xA8 JUMPI DUP1 PUSH4 0xB5AB3D5 EQ PUSH2 0xCF JUMPI DUP1 PUSH4 0x13AF4035 EQ PUSH2 0xE6 JUMPI DUP1 PUSH4 0x2B20E397 EQ PUSH2 0x107 JUMPI DUP1 PUSH4 0x3FA4F245 EQ PUSH2 0x138 JUMPI DUP1 PUSH4 0x674F220F EQ PUSH2 0x14D JUMPI DUP1 PUSH4 0x8DA5CB5B EQ PUSH2 0x162 JUMPI DUP1 PUSH4 0xB0C80972 EQ PUSH2 0x177 JUMPI DUP1 PUSH4 0xBBE42771 EQ PUSH2 0x194 JUMPI DUP1 PUSH4 0xFAAB9D39 EQ PUSH2 0x1AC JUMPI JUMPDEST PUSH1 0x0 DUP1 REVERT JUMPDEST CALLVALUE DUP1 ISZERO PUSH2 0xB4 JUMPI PUSH1 0x0 DUP1 REVERT JUMPDEST POP PUSH2 0xBD PUSH2 0x1CD JUMP JUMPDEST PUSH1 0x40 DUP1 MLOAD SWAP2 DUP3 MSTORE MLOAD SWAP1 DUP2 SWAP1 SUB PUSH1 0x20 ADD SWAP1 RETURN JUMPDEST CALLVALUE DUP1 ISZERO PUSH2 0xDB JUMPI PUSH1 0x0 DUP1 REVERT JUMPDEST POP PUSH2 0xE4 PUSH2 0x1D3 JUMP JUMPDEST STOP JUMPDEST CALLVALUE DUP1 ISZERO PUSH2 0xF2 JUMPI PUSH1 0x0 DUP1 REVERT JUMPDEST POP PUSH2 0xE4 PUSH1 0x1 PUSH1 0xA0 PUSH1 0x2 EXP SUB PUSH1 0x4 CALLDATALOAD AND PUSH2 0x22A JUMP JUMPDEST CALLVALUE DUP1 ISZERO PUSH2 0x113 JUMPI PUSH1 0x0 DUP1 REVERT JUMPDEST POP PUSH2 0x11C PUSH2 0x2C8 JUMP JUMPDEST PUSH1 0x40 DUP1 MLOAD PUSH1 0x1 PUSH1 0xA0 PUSH1 0x2 EXP SUB SWAP1 SWAP3 AND DUP3 MSTORE MLOAD SWAP1 DUP2 SWAP1 SUB PUSH1 0x20 ADD SWAP1 RETURN JUMPDEST CALLVALUE DUP1 ISZERO PUSH2 0x144 JUMPI PUSH1 0x0 DUP1 REVERT JUMPDEST POP PUSH2 0xBD PUSH2 0x2D7 JUMP JUMPDEST CALLVALUE DUP1 ISZERO PUSH2 0x159 JUMPI PUSH1 0x0 DUP1 REVERT JUMPDEST POP PUSH2 0x11C PUSH2 0x2DD JUMP JUMPDEST CALLVALUE DUP1 ISZERO PUSH2 0x16E JUMPI PUSH1 0x0 DUP1 REVERT JUMPDEST POP PUSH2 0x11C PUSH2 0x2EC JUMP JUMPDEST CALLVALUE DUP1 ISZERO PUSH2 0x183 JUMPI PUSH1 0x0 DUP1 REVERT JUMPDEST POP PUSH2 0xE4 PUSH1 0x4 CALLDATALOAD PUSH1 0x24 CALLDATALOAD ISZERO ISZERO PUSH2 0x2FB JUMP JUMPDEST CALLVALUE DUP1 ISZERO PUSH2 0x1A0 JUMPI PUSH1 0x0 DUP1 REVERT JUMPDEST POP PUSH2 0xE4 PUSH1 0x4 CALLDATALOAD PUSH2 0x37B JUMP JUMPDEST CALLVALUE DUP1 ISZERO PUSH2 0x1B8 JUMPI PUSH1 0x0 DUP1 REVERT JUMPDEST POP PUSH2 0xE4 PUSH1 0x1 PUSH1 0xA0 PUSH1 0x2 EXP SUB PUSH1 0x4 CALLDATALOAD AND PUSH2 0x424 JUMP JUMPDEST PUSH1 0x3 SLOAD DUP2 JUMP JUMPDEST PUSH1 0x5 SLOAD PUSH1 0xFF AND ISZERO PUSH2 0x1E3 JUMPI PUSH1 0x0 DUP1 REVERT JUMPDEST PUSH1 0x1 SLOAD PUSH1 0x40 MLOAD PUSH1 0x1 PUSH1 0xA0 PUSH1 0x2 EXP SUB SWAP1 SWAP2 AND SWAP1 ADDRESS BALANCE DUP1 ISZERO PUSH2 0x8FC MUL SWAP2 PUSH1 0x0 DUP2 DUP2 DUP2 DUP6 DUP9 DUP9 CALL SWAP4 POP POP POP POP ISZERO PUSH2 0x228 JUMPI PUSH20 0x5B38DA6A701C568545DCFCB03FCB875F56BEDDC4 SELFDESTRUCT JUMPDEST JUMP JUMPDEST PUSH1 0x0 SLOAD PUSH1 0x1 PUSH1 0xA0 PUSH1 0x2 EXP SUB AND CALLER EQ PUSH2 0x241 JUMPI PUSH1 0x0 DUP1 REVERT JUMPDEST PUSH1 0x1 PUSH1 0xA0 PUSH1 0x2 EXP SUB DUP2 AND ISZERO ISZERO PUSH2 0x256 JUMPI PUSH1 0x0 DUP1 REVERT JUMPDEST PUSH1 0x1 DUP1 SLOAD PUSH1 0x2 DUP1 SLOAD PUSH20 0xFFFFFFFFFFFFFFFFFFFFFFFFFFFFFFFFFFFFFFFF NOT SWAP1 DUP2 AND PUSH1 0x1 PUSH1 0xA0 PUSH1 0x2 EXP SUB DUP1 DUP6 AND SWAP2 SWAP1 SWAP2 OR SWAP1 SWAP3 SSTORE SWAP1 DUP5 AND SWAP2 AND DUP2 OR SWAP1 SWAP2 SSTORE PUSH1 0x40 DUP1 MLOAD SWAP2 DUP3 MSTORE MLOAD PUSH32 0xA2EA9883A321A3E97B8266C2B078BFEEC6D50C711ED71F874A90D500AE2EAF36 SWAP2 DUP2 SWAP1 SUB PUSH1 0x20 ADD SWAP1 LOG1 POP JUMP JUMPDEST PUSH1 0x0 SLOAD PUSH1 0x1 PUSH1 0xA0 PUSH1 0x2 EXP SUB AND DUP2 JUMP JUMPDEST PUSH1 0x4 SLOAD DUP2 JUMP JUMPDEST PUSH1 0x2 SLOAD PUSH1 0x1 PUSH1 0xA0 PUSH1 0x2 EXP SUB AND DUP2 JUMP JUMPDEST PUSH1 0x1 SLOAD PUSH1 0x1 PUSH1 0xA0 PUSH1 0x2 EXP SUB AND DUP2 JUMP JUMPDEST PUSH1 0x0 SLOAD PUSH1 0x1 PUSH1 0xA0 PUSH1 0x2 EXP SUB AND CALLER EQ PUSH2 0x312 JUMPI PUSH1 0x0 DUP1 REVERT JUMPDEST PUSH1 0x5 SLOAD PUSH1 0xFF AND ISZERO ISZERO PUSH2 0x323 JUMPI PUSH1 0x0 DUP1 REVERT JUMPDEST PUSH1 0x4 SLOAD DUP3 GT ISZERO PUSH2 0x332 JUMPI PUSH1 0x0 DUP1 REVERT JUMPDEST PUSH1 0x4 DUP3 SWAP1 SSTORE PUSH1 0x1 SLOAD PUSH1 0x40 MLOAD PUSH1 0x1 PUSH1 0xA0 PUSH1 0x2 EXP SUB SWAP1 SWAP2 AND SWAP1 ADDRESS BALANCE DUP5 SWAP1 SUB DUP1 ISZERO PUSH2 0x8FC MUL SWAP2 PUSH1 0x0 DUP2 DUP2 DUP2 DUP6 DUP9 DUP9 CALL SWAP4 POP POP POP POP DUP1 PUSH2 0x36C JUMPI POP DUP1 ISZERO JUMPDEST ISZERO ISZERO PUSH2 0x377 JUMPI PUSH1 0x0 DUP1 REVERT JUMPDEST POP POP JUMP JUMPDEST PUSH1 0x0 SLOAD PUSH1 0x1 PUSH1 0xA0 PUSH1 0x2 EXP SUB AND CALLER EQ PUSH2 0x392 JUMPI PUSH1 0x0 DUP1 REVERT JUMPDEST PUSH1 0x5 SLOAD PUSH1 0xFF AND ISZERO ISZERO PUSH2 0x3A3 JUMPI PUSH1 0x0 DUP1 REVERT JUMPDEST PUSH1 0x5 DUP1 SLOAD PUSH1 0xFF NOT AND SWAP1 SSTORE PUSH1 0x40 MLOAD PUSH20 0x5B38DA6A701C568545DCFCB03FCB875F56BEDDC4 SWAP1 PUSH2 0x3E8 ADDRESS BALANCE DUP5 DUP3 SUB MUL DIV DUP1 ISZERO PUSH2 0x8FC MUL SWAP2 PUSH1 0x0 DUP2 DUP2 DUP2 DUP6 DUP9 DUP9 CALL SWAP4 POP POP POP POP ISZERO ISZERO PUSH2 0x3F0 JUMPI PUSH1 0x0 DUP1 REVERT JUMPDEST PUSH1 0x40 MLOAD PUSH32 0xBB2CE2F51803BBA16BC85282B47DEEEA9A5C6223EABEA1077BE696B3F265CF13 SWAP1 PUSH1 0x0 SWAP1 LOG1 PUSH2 0x421 PUSH2 0x1D3 JUMP JUMPDEST POP JUMP JUMPDEST PUSH1 0x0 SLOAD PUSH1 0x1 PUSH1 0xA0 PUSH1 0x2 EXP SUB AND CALLER EQ PUSH2 0x43B JUMPI PUSH1 0x0 DUP1 REVERT JUMPDEST PUSH1 0x0 DUP1 SLOAD PUSH20 0xFFFFFFFFFFFFFFFFFFFFFFFFFFFFFFFFFFFFFFFF NOT AND PUSH1 0x1 PUSH1 0xA0 PUSH1 0x2 EXP SUB SWAP3 SWAP1 SWAP3 AND SWAP2 SWAP1 SWAP2 OR SWAP1 SSTORE JUMP STOP LOG1 PUSH6 0x627A7A723058 KECCAK256 0xc8 0x4d 0xae 0x2d 0x28 SAR INVALID 0x49 0xb1 SHL 0x1f 0xd6 0xc5 0xaf 0xc4 SWAP11 SWAP5 0xcf 0xdd 0xd1 PC PUSH17 0x2D8BB3A75AFC90D9916800297B6C4B278D AND GAS PUSH12 0x33958F8EA5DFB00C8C9D4D0A 0xcf NOT DUP6 0xbe 0xf5 0xd1 SMOD DUP7 DUP10 DUP12 0xc3 0xe7 LOG1 PUSH6 0x627A7A723058 KECCAK256 0xc1 0x27 0xb7 0xd9 0xad 0x4f 0xe6 PUSH22 0xB20907A7DE40BFDE11EEC63764ED4BA397F2F3E7060D 0xe1 EXTCODECOPY STOP 0x29 "
				},
				"gasEstimates": {
					"creation": {
						"codeDepositCost": "2113200",
						"executionCost": "62750",
						"totalCost": "2175950"
					},
					"external": {
						"acceptRegistrarTransfer(bytes32,address,uint256)": "710",
						"cancelBid(address,bytes32)": "infinite",
						"ens()": "732",
						"entries(bytes32)": "2536",
						"eraseNode(bytes32[])": "infinite",
						"finalizeAuction(bytes32)": "1497",
						"getAllowedTime(bytes32)": "510",
						"invalidateName(string)": "infinite",
						"isAllowed(bytes32,uint256)": "816",
						"launchLength()": "586",
						"newBid(bytes32)": "infinite",
						"registryStarted()": "755",
						"releaseDeed(bytes32)": "1214",
						"rootNode()": "909",
						"sealedBids(address,bytes32)": "1023",
						"shaBid(bytes32,address,uint256,bytes32)": "660",
						"startAuction(bytes32)": "infinite",
						"startAuctions(bytes32[])": "infinite",
						"startAuctionsAndBid(bytes32[],bytes32)": "infinite",
						"state(bytes32)": "1417",
						"transfer(bytes32,address)": "1534",
						"transferRegistrars(bytes32)": "1390",
						"unsealBid(bytes32,uint256,bytes32)": "infinite"
					},
					"internal": {
						"_eraseNodeHierarchy(uint256,bytes32[] memory,bytes32)": "infinite",
						"_tryEraseSingleNode(bytes32)": "infinite",
						"max(uint256,uint256)": "65",
						"min(uint256,uint256)": "65",
						"strlen(string memory)": "infinite",
						"trySetSubnodeOwner(bytes32,address)": "infinite"
					}
				},
				"methodIdentifiers": {
					"acceptRegistrarTransfer(bytes32,address,uint256)": "ea9e107a",
					"cancelBid(address,bytes32)": "2525f5c1",
					"ens()": "3f15457f",
					"entries(bytes32)": "267b6922",
					"eraseNode(bytes32[])": "de10f04b",
					"finalizeAuction(bytes32)": "983b94fb",
					"getAllowedTime(bytes32)": "13c89a8f",
					"invalidateName(string)": "15f73331",
					"isAllowed(bytes32,uint256)": "93503337",
					"launchLength()": "ae1a0b0c",
					"newBid(bytes32)": "ce92dced",
					"registryStarted()": "9c67f06f",
					"releaseDeed(bytes32)": "0230a07c",
					"rootNode()": "faff50a8",
					"sealedBids(address,bytes32)": "5e431709",
					"shaBid(bytes32,address,uint256,bytes32)": "22ec1244",
					"startAuction(bytes32)": "ede8acdb",
					"startAuctions(bytes32[])": "e27fe50f",
					"startAuctionsAndBid(bytes32[],bytes32)": "febefd61",
					"state(bytes32)": "61d585da",
					"transfer(bytes32,address)": "79ce9fac",
					"transferRegistrars(bytes32)": "5ddae283",
					"unsealBid(bytes32,uint256,bytes32)": "47872b42"
				}
			},
			"userdoc": {
				"methods": {}
			}
		}
	}
}