{
	"contracts/Deed.sol": {
		"Deed": {
			"abi": [
				{
					"constant": true,
					"inputs": [],
					"name": "creationDate",
					"outputs": [
						{
							"name": "",
							"type": "uint256"
						}
					],
					"payable": false,
					"stateMutability": "view",
					"type": "function"
				},
				{
					"constant": false,
					"inputs": [],
					"name": "destroyDeed",
					"outputs": [],
					"payable": false,
					"stateMutability": "nonpayable",
					"type": "function"
				},
				{
					"constant": false,
					"inputs": [
						{
							"name": "newOwner",
							"type": "address"
						}
					],
					"name": "setOwner",
					"outputs": [],
					"payable": false,
					"stateMutability": "nonpayable",
					"type": "function"
				},
				{
					"constant": true,
					"inputs": [],
					"name": "registrar",
					"outputs": [
						{
							"name": "",
							"type": "address"
						}
					],
					"payable": false,
					"stateMutability": "view",
					"type": "function"
				},
				{
					"constant": true,
					"inputs": [],
					"name": "value",
					"outputs": [
						{
							"name": "",
							"type": "uint256"
						}
					],
					"payable": false,
					"stateMutability": "view",
					"type": "function"
				},
				{
					"constant": true,
					"inputs": [],
					"name": "previousOwner",
					"outputs": [
						{
							"name": "",
							"type": "address"
						}
					],
					"payable": false,
					"stateMutability": "view",
					"type": "function"
				},
				{
					"constant": true,
					"inputs": [],
					"name": "owner",
					"outputs": [
						{
							"name": "",
							"type": "address"
						}
					],
					"payable": false,
					"stateMutability": "view",
					"type": "function"
				},
				{
					"constant": false,
					"inputs": [
						{
							"name": "newValue",
							"type": "uint256"
						},
						{
							"name": "throwOnFailure",
							"type": "bool"
						}
					],
					"name": "setBalance",
					"outputs": [],
					"payable": false,
					"stateMutability": "nonpayable",
					"type": "function"
				},
				{
					"constant": false,
					"inputs": [
						{
							"name": "refundRatio",
							"type": "uint256"
						}
					],
					"name": "closeDeed",
					"outputs": [],
					"payable": false,
					"stateMutability": "nonpayable",
					"type": "function"
				},
				{
					"constant": false,
					"inputs": [
						{
							"name": "newRegistrar",
							"type": "address"
						}
					],
					"name": "setRegistrar",
					"outputs": [],
					"payable": false,
					"stateMutability": "nonpayable",
					"type": "function"
				},
				{
					"inputs": [
						{
							"name": "_owner",
							"type": "address"
						}
					],
					"payable": true,
					"stateMutability": "payable",
					"type": "constructor"
				},
				{
					"anonymous": false,
					"inputs": [
						{
							"indexed": false,
							"name": "newOwner",
							"type": "address"
						}
					],
					"name": "OwnerChanged",
					"type": "event"
				},
				{
					"anonymous": false,
					"inputs": [],
					"name": "DeedClosed",
					"type": "event"
				}
			],
			"devdoc": {
				"methods": {
					"closeDeed(uint256)": {
						"details": "Close a deed and refund a specified fraction of the bid value\r ",
						"params": {
							"refundRatio": "The amount*1/1000 to refund\r"
						}
					},
					"destroyDeed()": {
						"details": "Close a deed and refund a specified fraction of the bid value\r"
					}
				},
				"title": "Deed to hold ether in exchange for ownership of a node\r"
			},
			"evm": {
				"assembly": "    /* \"contracts/Deed.sol\":205:2505  contract Deed {\r... */\n  mstore(0x40, 0x80)\n    /* \"contracts/Deed.sol\":713:905  function Deed(address _owner) public payable {\r... */\n  mload(0x40)\n  0x20\n  dup1\n  bytecodeSize\n  dup4\n  codecopy\n  dup2\n  add\n  0x40\n  mstore\n  mload\n    /* \"contracts/Deed.sol\":769:774  owner */\n  0x1\n    /* \"contracts/Deed.sol\":769:783  owner = _owner */\n  dup1\n  sload\n  sub(exp(0x2, 0xa0), 0x1)\n  swap1\n  swap3\n  and\n  not(sub(exp(0x2, 0xa0), 0x1))\n  swap3\n  dup4\n  and\n  or\n  dup2\n  sstore\n    /* \"contracts/Deed.sol\":769:774  owner */\n  0x0\n    /* \"contracts/Deed.sol\":794:816  registrar = msg.sender */\n  dup1\n  sload\n  swap1\n  swap3\n  and\n    /* \"contracts/Deed.sol\":806:816  msg.sender */\n  caller\n    /* \"contracts/Deed.sol\":794:816  registrar = msg.sender */\n  or\n  swap1\n  swap2\n  sstore\n    /* \"contracts/Deed.sol\":842:845  now */\n  timestamp\n    /* \"contracts/Deed.sol\":827:839  creationDate */\n  0x3\n    /* \"contracts/Deed.sol\":827:845  creationDate = now */\n  sstore\n    /* \"contracts/Deed.sol\":856:862  active */\n  0x5\n    /* \"contracts/Deed.sol\":856:869  active = true */\n  dup1\n  sload\n  not(0xff)\n  and\n  swap1\n  swap2\n  or\n  swap1\n  sstore\n    /* \"contracts/Deed.sol\":888:897  msg.value */\n  callvalue\n    /* \"contracts/Deed.sol\":880:885  value */\n  0x4\n    /* \"contracts/Deed.sol\":880:897  value = msg.value */\n  sstore\n    /* \"contracts/Deed.sol\":205:2505  contract Deed {\r... */\n  dataSize(sub_0)\n  dup1\n  dataOffset(sub_0)\n  0x0\n  codecopy\n  0x0\n  return\nstop\n\nsub_0: assembly {\n        /* \"contracts/Deed.sol\":205:2505  contract Deed {\r... */\n      mstore(0x40, 0x80)\n      jumpi(tag_1, lt(calldatasize, 0x4))\n      and(div(calldataload(0x0), 0x100000000000000000000000000000000000000000000000000000000), 0xffffffff)\n      0x5b34410\n      dup2\n      eq\n      tag_2\n      jumpi\n      dup1\n      0xb5ab3d5\n      eq\n      tag_3\n      jumpi\n      dup1\n      0x13af4035\n      eq\n      tag_4\n      jumpi\n      dup1\n      0x2b20e397\n      eq\n      tag_5\n      jumpi\n      dup1\n      0x3fa4f245\n      eq\n      tag_6\n      jumpi\n      dup1\n      0x674f220f\n      eq\n      tag_7\n      jumpi\n      dup1\n      0x8da5cb5b\n      eq\n      tag_8\n      jumpi\n      dup1\n      0xb0c80972\n      eq\n      tag_9\n      jumpi\n      dup1\n      0xbbe42771\n      eq\n      tag_10\n      jumpi\n      dup1\n      0xfaab9d39\n      eq\n      tag_11\n      jumpi\n    tag_1:\n      0x0\n      dup1\n      revert\n        /* \"contracts/Deed.sol\":398:422  uint public creationDate */\n    tag_2:\n      callvalue\n        /* \"--CODEGEN--\":8:17   */\n      dup1\n        /* \"--CODEGEN--\":5:7   */\n      iszero\n      tag_12\n      jumpi\n        /* \"--CODEGEN--\":30:31   */\n      0x0\n        /* \"--CODEGEN--\":27:28   */\n      dup1\n        /* \"--CODEGEN--\":20:32   */\n      revert\n        /* \"--CODEGEN--\":5:7   */\n    tag_12:\n        /* \"contracts/Deed.sol\":398:422  uint public creationDate */\n      pop\n      tag_13\n      jump(tag_14)\n    tag_13:\n      0x40\n      dup1\n      mload\n      swap2\n      dup3\n      mstore\n      mload\n      swap1\n      dup2\n      swap1\n      sub\n      0x20\n      add\n      swap1\n      return\n        /* \"contracts/Deed.sol\":2116:2502  function destroyDeed() public {\r... */\n    tag_3:\n      callvalue\n        /* \"--CODEGEN--\":8:17   */\n      dup1\n        /* \"--CODEGEN--\":5:7   */\n      iszero\n      tag_15\n      jumpi\n        /* \"--CODEGEN--\":30:31   */\n      0x0\n        /* \"--CODEGEN--\":27:28   */\n      dup1\n        /* \"--CODEGEN--\":20:32   */\n      revert\n        /* \"--CODEGEN--\":5:7   */\n    tag_15:\n        /* \"contracts/Deed.sol\":2116:2502  function destroyDeed() public {\r... */\n      pop\n      tag_16\n      jump(tag_17)\n    tag_16:\n      stop\n        /* \"contracts/Deed.sol\":913:1166  function setOwner(address newOwner) public onlyRegistrar {\r... */\n    tag_4:\n      callvalue\n        /* \"--CODEGEN--\":8:17   */\n      dup1\n        /* \"--CODEGEN--\":5:7   */\n      iszero\n      tag_18\n      jumpi\n        /* \"--CODEGEN--\":30:31   */\n      0x0\n        /* \"--CODEGEN--\":27:28   */\n      dup1\n        /* \"--CODEGEN--\":20:32   */\n      revert\n        /* \"--CODEGEN--\":5:7   */\n    tag_18:\n      pop\n        /* \"contracts/Deed.sol\":913:1166  function setOwner(address newOwner) public onlyRegistrar {\r... */\n      tag_16\n      and(sub(exp(0x2, 0xa0), 0x1), calldataload(0x4))\n      jump(tag_20)\n        /* \"contracts/Deed.sol\":303:327  address public registrar */\n    tag_5:\n      callvalue\n        /* \"--CODEGEN--\":8:17   */\n      dup1\n        /* \"--CODEGEN--\":5:7   */\n      iszero\n      tag_21\n      jumpi\n        /* \"--CODEGEN--\":30:31   */\n      0x0\n        /* \"--CODEGEN--\":27:28   */\n      dup1\n        /* \"--CODEGEN--\":20:32   */\n      revert\n        /* \"--CODEGEN--\":5:7   */\n    tag_21:\n        /* \"contracts/Deed.sol\":303:327  address public registrar */\n      pop\n      tag_22\n      jump(tag_23)\n    tag_22:\n      0x40\n      dup1\n      mload\n      sub(exp(0x2, 0xa0), 0x1)\n      swap1\n      swap3\n      and\n      dup3\n      mstore\n      mload\n      swap1\n      dup2\n      swap1\n      sub\n      0x20\n      add\n      swap1\n      return\n        /* \"contracts/Deed.sol\":429:446  uint public value */\n    tag_6:\n      callvalue\n        /* \"--CODEGEN--\":8:17   */\n      dup1\n        /* \"--CODEGEN--\":5:7   */\n      iszero\n      tag_24\n      jumpi\n        /* \"--CODEGEN--\":30:31   */\n      0x0\n        /* \"--CODEGEN--\":27:28   */\n      dup1\n        /* \"--CODEGEN--\":20:32   */\n      revert\n        /* \"--CODEGEN--\":5:7   */\n    tag_24:\n        /* \"contracts/Deed.sol\":429:446  uint public value */\n      pop\n      tag_13\n      jump(tag_26)\n        /* \"contracts/Deed.sol\":361:389  address public previousOwner */\n    tag_7:\n      callvalue\n        /* \"--CODEGEN--\":8:17   */\n      dup1\n        /* \"--CODEGEN--\":5:7   */\n      iszero\n      tag_27\n      jumpi\n        /* \"--CODEGEN--\":30:31   */\n      0x0\n        /* \"--CODEGEN--\":27:28   */\n      dup1\n        /* \"--CODEGEN--\":20:32   */\n      revert\n        /* \"--CODEGEN--\":5:7   */\n    tag_27:\n        /* \"contracts/Deed.sol\":361:389  address public previousOwner */\n      pop\n      tag_22\n      jump(tag_29)\n        /* \"contracts/Deed.sol\":334:354  address public owner */\n    tag_8:\n      callvalue\n        /* \"--CODEGEN--\":8:17   */\n      dup1\n        /* \"--CODEGEN--\":5:7   */\n      iszero\n      tag_30\n      jumpi\n        /* \"--CODEGEN--\":30:31   */\n      0x0\n        /* \"--CODEGEN--\":27:28   */\n      dup1\n        /* \"--CODEGEN--\":20:32   */\n      revert\n        /* \"--CODEGEN--\":5:7   */\n    tag_30:\n        /* \"contracts/Deed.sol\":334:354  address public owner */\n      pop\n      tag_22\n      jump(tag_32)\n        /* \"contracts/Deed.sol\":1290:1629  function setBalance(uint newValue, bool throwOnFailure) public onlyRegistrar onlyActive {\r... */\n    tag_9:\n      callvalue\n        /* \"--CODEGEN--\":8:17   */\n      dup1\n        /* \"--CODEGEN--\":5:7   */\n      iszero\n      tag_33\n      jumpi\n        /* \"--CODEGEN--\":30:31   */\n      0x0\n        /* \"--CODEGEN--\":27:28   */\n      dup1\n        /* \"--CODEGEN--\":20:32   */\n      revert\n        /* \"--CODEGEN--\":5:7   */\n    tag_33:\n      pop\n        /* \"contracts/Deed.sol\":1290:1629  function setBalance(uint newValue, bool throwOnFailure) public onlyRegistrar onlyActive {\r... */\n      tag_16\n      calldataload(0x4)\n      iszero(iszero(calldataload(0x24)))\n      jump(tag_35)\n        /* \"contracts/Deed.sol\":1793:2015  function closeDeed(uint refundRatio) public onlyRegistrar onlyActive {\r... */\n    tag_10:\n      callvalue\n        /* \"--CODEGEN--\":8:17   */\n      dup1\n        /* \"--CODEGEN--\":5:7   */\n      iszero\n      tag_36\n      jumpi\n        /* \"--CODEGEN--\":30:31   */\n      0x0\n        /* \"--CODEGEN--\":27:28   */\n      dup1\n        /* \"--CODEGEN--\":20:32   */\n      revert\n        /* \"--CODEGEN--\":5:7   */\n    tag_36:\n      pop\n        /* \"contracts/Deed.sol\":1793:2015  function closeDeed(uint refundRatio) public onlyRegistrar onlyActive {\r... */\n      tag_16\n      calldataload(0x4)\n      jump(tag_38)\n        /* \"contracts/Deed.sol\":1174:1282  function setRegistrar(address newRegistrar) public onlyRegistrar {\r... */\n    tag_11:\n      callvalue\n        /* \"--CODEGEN--\":8:17   */\n      dup1\n        /* \"--CODEGEN--\":5:7   */\n      iszero\n      tag_39\n      jumpi\n        /* \"--CODEGEN--\":30:31   */\n      0x0\n        /* \"--CODEGEN--\":27:28   */\n      dup1\n        /* \"--CODEGEN--\":20:32   */\n      revert\n        /* \"--CODEGEN--\":5:7   */\n    tag_39:\n      pop\n        /* \"contracts/Deed.sol\":1174:1282  function setRegistrar(address newRegistrar) public onlyRegistrar {\r... */\n      tag_16\n      and(sub(exp(0x2, 0xa0), 0x1), calldataload(0x4))\n      jump(tag_41)\n        /* \"contracts/Deed.sol\":398:422  uint public creationDate */\n    tag_14:\n      sload(0x3)\n      dup2\n      jump\t// out\n        /* \"contracts/Deed.sol\":2116:2502  function destroyDeed() public {\r... */\n    tag_17:\n        /* \"contracts/Deed.sol\":2166:2172  active */\n      and(0xff, sload(0x5))\n        /* \"contracts/Deed.sol\":2165:2172  !active */\n      iszero\n        /* \"contracts/Deed.sol\":2157:2173  require(!active) */\n      tag_43\n      jumpi\n      0x0\n      dup1\n      revert\n    tag_43:\n        /* \"contracts/Deed.sol\":2424:2429  owner */\n      sload(0x1)\n        /* \"contracts/Deed.sol\":2424:2448  owner.send(this.balance) */\n      mload(0x40)\n      sub(exp(0x2, 0xa0), 0x1)\n        /* \"contracts/Deed.sol\":2424:2429  owner */\n      swap1\n      swap2\n      and\n      swap1\n        /* \"contracts/Deed.sol\":2435:2439  this */\n      address\n        /* \"contracts/Deed.sol\":2435:2447  this.balance */\n      balance\n        /* \"contracts/Deed.sol\":2424:2448  owner.send(this.balance) */\n      dup1\n      iszero\n      0x8fc\n      mul\n      swap2\n        /* \"contracts/Deed.sol\":2424:2429  owner */\n      0x0\n        /* \"contracts/Deed.sol\":2424:2448  owner.send(this.balance) */\n      dup2\n        /* \"contracts/Deed.sol\":2424:2429  owner */\n      dup2\n        /* \"contracts/Deed.sol\":2424:2448  owner.send(this.balance) */\n      dup2\n        /* \"contracts/Deed.sol\":2435:2447  this.balance */\n      dup6\n        /* \"contracts/Deed.sol\":2424:2429  owner */\n      dup9\n        /* \"contracts/Deed.sol\":2424:2448  owner.send(this.balance) */\n      dup9\n      call\n      swap4\n      pop\n      pop\n      pop\n      pop\n        /* \"contracts/Deed.sol\":2420:2495  if (owner.send(this.balance)) {\r... */\n      iszero\n      tag_44\n      jumpi\n        /* \"contracts/Deed.sol\":252:294  0x5B38Da6a701c568545dCfcB03FcB875f56beddC4 */\n      0x5b38da6a701c568545dcfcb03fcb875f56beddc4\n        /* \"contracts/Deed.sol\":2465:2483  selfdestruct(burn) */\n      selfdestruct\n        /* \"contracts/Deed.sol\":2420:2495  if (owner.send(this.balance)) {\r... */\n    tag_44:\n        /* \"contracts/Deed.sol\":2116:2502  function destroyDeed() public {\r... */\n      jump\t// out\n        /* \"contracts/Deed.sol\":913:1166  function setOwner(address newOwner) public onlyRegistrar {\r... */\n    tag_20:\n        /* \"contracts/Deed.sol\":601:610  registrar */\n      and(sub(exp(0x2, 0xa0), 0x1), sload(0x0))\n        /* \"contracts/Deed.sol\":587:597  msg.sender */\n      caller\n        /* \"contracts/Deed.sol\":587:610  msg.sender == registrar */\n      eq\n        /* \"contracts/Deed.sol\":579:611  require(msg.sender == registrar) */\n      tag_46\n      jumpi\n      0x0\n      dup1\n      revert\n    tag_46:\n      sub(exp(0x2, 0xa0), 0x1)\n        /* \"contracts/Deed.sol\":989:1002  newOwner != 0 */\n      dup2\n      and\n      iszero\n      iszero\n        /* \"contracts/Deed.sol\":981:1003  require(newOwner != 0) */\n      tag_48\n      jumpi\n      0x0\n      dup1\n      revert\n    tag_48:\n        /* \"contracts/Deed.sol\":1030:1035  owner */\n      0x1\n      dup1\n      sload\n        /* \"contracts/Deed.sol\":1014:1027  previousOwner */\n      0x2\n        /* \"contracts/Deed.sol\":1014:1035  previousOwner = owner */\n      dup1\n      sload\n      sub(exp(0x2, 0xa0), 0x1)\n        /* \"contracts/Deed.sol\":1030:1035  owner */\n      dup1\n      dup5\n      and\n      not(0xffffffffffffffffffffffffffffffffffffffff)\n        /* \"contracts/Deed.sol\":1014:1035  previousOwner = owner */\n      swap3\n      dup4\n      and\n      or\n      swap1\n      swap3\n      sstore\n        /* \"contracts/Deed.sol\":1109:1125  owner = newOwner */\n      swap1\n      swap2\n      and\n      swap1\n      dup4\n      and\n      swap1\n      dup2\n      or\n      swap1\n      swap2\n      sstore\n        /* \"contracts/Deed.sol\":1136:1158  OwnerChanged(newOwner) */\n      0x40\n      dup1\n      mload\n      swap2\n      dup3\n      mstore\n      mload\n      0xa2ea9883a321a3e97b8266c2b078bfeec6d50c711ed71f874a90d500ae2eaf36\n      swap2\n      0x20\n      swap1\n      dup3\n      swap1\n      sub\n      add\n      swap1\n      log1\n        /* \"contracts/Deed.sol\":913:1166  function setOwner(address newOwner) public onlyRegistrar {\r... */\n      pop\n      jump\t// out\n        /* \"contracts/Deed.sol\":303:327  address public registrar */\n    tag_23:\n      and(sub(exp(0x2, 0xa0), 0x1), sload(0x0))\n      dup2\n      jump\t// out\n        /* \"contracts/Deed.sol\":429:446  uint public value */\n    tag_26:\n      sload(0x4)\n      dup2\n      jump\t// out\n        /* \"contracts/Deed.sol\":361:389  address public previousOwner */\n    tag_29:\n      and(sub(exp(0x2, 0xa0), 0x1), sload(0x2))\n      dup2\n      jump\t// out\n        /* \"contracts/Deed.sol\":334:354  address public owner */\n    tag_32:\n      and(sub(exp(0x2, 0xa0), 0x1), sload(0x1))\n      dup2\n      jump\t// out\n        /* \"contracts/Deed.sol\":1290:1629  function setBalance(uint newValue, bool throwOnFailure) public onlyRegistrar onlyActive {\r... */\n    tag_35:\n        /* \"contracts/Deed.sol\":601:610  registrar */\n      and(sub(exp(0x2, 0xa0), 0x1), sload(0x0))\n        /* \"contracts/Deed.sol\":587:597  msg.sender */\n      caller\n        /* \"contracts/Deed.sol\":587:610  msg.sender == registrar */\n      eq\n        /* \"contracts/Deed.sol\":579:611  require(msg.sender == registrar) */\n      tag_50\n      jumpi\n      0x0\n      dup1\n      revert\n    tag_50:\n        /* \"contracts/Deed.sol\":678:684  active */\n      and(0xff, sload(0x5))\n        /* \"contracts/Deed.sol\":670:685  require(active) */\n      iszero\n      iszero\n      tag_52\n      jumpi\n      0x0\n      dup1\n      revert\n    tag_52:\n        /* \"contracts/Deed.sol\":1457:1462  value */\n      sload(0x4)\n        /* \"contracts/Deed.sol\":1457:1474  value >= newValue */\n      dup3\n      gt\n      iszero\n        /* \"contracts/Deed.sol\":1449:1475  require(value >= newValue) */\n      tag_54\n      jumpi\n      0x0\n      dup1\n      revert\n    tag_54:\n        /* \"contracts/Deed.sol\":1486:1491  value */\n      0x4\n        /* \"contracts/Deed.sol\":1486:1502  value = newValue */\n      dup3\n      swap1\n      sstore\n        /* \"contracts/Deed.sol\":1566:1571  owner */\n      sload(0x1)\n        /* \"contracts/Deed.sol\":1566:1601  owner.send(this.balance - newValue) */\n      mload(0x40)\n      sub(exp(0x2, 0xa0), 0x1)\n        /* \"contracts/Deed.sol\":1566:1571  owner */\n      swap1\n      swap2\n      and\n      swap1\n        /* \"contracts/Deed.sol\":1577:1581  this */\n      address\n        /* \"contracts/Deed.sol\":1577:1589  this.balance */\n      balance\n        /* \"contracts/Deed.sol\":1577:1600  this.balance - newValue */\n      dup5\n      swap1\n      sub\n        /* \"contracts/Deed.sol\":1566:1601  owner.send(this.balance - newValue) */\n      dup1\n      iszero\n      0x8fc\n      mul\n      swap2\n        /* \"contracts/Deed.sol\":1566:1571  owner */\n      0x0\n        /* \"contracts/Deed.sol\":1566:1601  owner.send(this.balance - newValue) */\n      dup2\n        /* \"contracts/Deed.sol\":1566:1571  owner */\n      dup2\n        /* \"contracts/Deed.sol\":1566:1601  owner.send(this.balance - newValue) */\n      dup2\n        /* \"contracts/Deed.sol\":1577:1600  this.balance - newValue */\n      dup6\n        /* \"contracts/Deed.sol\":1566:1571  owner */\n      dup9\n        /* \"contracts/Deed.sol\":1566:1601  owner.send(this.balance - newValue) */\n      dup9\n      call\n      swap4\n      pop\n      pop\n      pop\n      pop\n        /* \"contracts/Deed.sol\":1566:1620  owner.send(this.balance - newValue) || !throwOnFailure */\n      dup1\n      tag_55\n      jumpi\n      pop\n        /* \"contracts/Deed.sol\":1606:1620  throwOnFailure */\n      dup1\n        /* \"contracts/Deed.sol\":1605:1620  !throwOnFailure */\n      iszero\n        /* \"contracts/Deed.sol\":1566:1620  owner.send(this.balance - newValue) || !throwOnFailure */\n    tag_55:\n        /* \"contracts/Deed.sol\":1558:1621  require(owner.send(this.balance - newValue) || !throwOnFailure) */\n      iszero\n      iszero\n      tag_56\n      jumpi\n      0x0\n      dup1\n      revert\n    tag_56:\n        /* \"contracts/Deed.sol\":1290:1629  function setBalance(uint newValue, bool throwOnFailure) public onlyRegistrar onlyActive {\r... */\n      pop\n      pop\n      jump\t// out\n        /* \"contracts/Deed.sol\":1793:2015  function closeDeed(uint refundRatio) public onlyRegistrar onlyActive {\r... */\n    tag_38:\n        /* \"contracts/Deed.sol\":601:610  registrar */\n      and(sub(exp(0x2, 0xa0), 0x1), sload(0x0))\n        /* \"contracts/Deed.sol\":587:597  msg.sender */\n      caller\n        /* \"contracts/Deed.sol\":587:610  msg.sender == registrar */\n      eq\n        /* \"contracts/Deed.sol\":579:611  require(msg.sender == registrar) */\n      tag_58\n      jumpi\n      0x0\n      dup1\n      revert\n    tag_58:\n        /* \"contracts/Deed.sol\":678:684  active */\n      and(0xff, sload(0x5))\n        /* \"contracts/Deed.sol\":670:685  require(active) */\n      iszero\n      iszero\n      tag_60\n      jumpi\n      0x0\n      dup1\n      revert\n    tag_60:\n        /* \"contracts/Deed.sol\":1873:1879  active */\n      0x5\n        /* \"contracts/Deed.sol\":1873:1887  active = false */\n      dup1\n      sload\n      not(0xff)\n      and\n      swap1\n      sstore\n        /* \"contracts/Deed.sol\":1906:1959  burn.send(((1000 - refundRatio) * this.balance)/1000) */\n      mload(0x40)\n        /* \"contracts/Deed.sol\":252:294  0x5B38Da6a701c568545dCfcB03FcB875f56beddC4 */\n      0x5b38da6a701c568545dcfcb03fcb875f56beddc4\n      swap1\n        /* \"contracts/Deed.sol\":1954:1958  1000 */\n      0x3e8\n        /* \"contracts/Deed.sol\":1940:1944  this */\n      address\n        /* \"contracts/Deed.sol\":1940:1952  this.balance */\n      balance\n        /* \"contracts/Deed.sol\":1918:1936  1000 - refundRatio */\n      dup5\n      dup3\n      sub\n        /* \"contracts/Deed.sol\":1917:1952  (1000 - refundRatio) * this.balance */\n      mul\n        /* \"contracts/Deed.sol\":1916:1958  ((1000 - refundRatio) * this.balance)/1000 */\n      div\n        /* \"contracts/Deed.sol\":1906:1959  burn.send(((1000 - refundRatio) * this.balance)/1000) */\n      dup1\n      iszero\n      0x8fc\n      mul\n      swap2\n      0x0\n      dup2\n      dup2\n      dup2\n        /* \"contracts/Deed.sol\":1916:1958  ((1000 - refundRatio) * this.balance)/1000 */\n      dup6\n        /* \"contracts/Deed.sol\":252:294  0x5B38Da6a701c568545dCfcB03FcB875f56beddC4 */\n      dup9\n        /* \"contracts/Deed.sol\":1906:1959  burn.send(((1000 - refundRatio) * this.balance)/1000) */\n      dup9\n      call\n      swap4\n      pop\n      pop\n      pop\n      pop\n        /* \"contracts/Deed.sol\":1898:1960  require(burn.send(((1000 - refundRatio) * this.balance)/1000)) */\n      iszero\n      iszero\n      tag_63\n      jumpi\n      0x0\n      dup1\n      revert\n    tag_63:\n        /* \"contracts/Deed.sol\":1971:1983  DeedClosed() */\n      mload(0x40)\n      0xbb2ce2f51803bba16bc85282b47deeea9a5c6223eabea1077be696b3f265cf13\n      swap1\n      0x0\n      swap1\n      log1\n        /* \"contracts/Deed.sol\":1994:2007  destroyDeed() */\n      tag_64\n        /* \"contracts/Deed.sol\":1994:2005  destroyDeed */\n      tag_17\n        /* \"contracts/Deed.sol\":1994:2007  destroyDeed() */\n      jump\t// in\n    tag_64:\n        /* \"contracts/Deed.sol\":1793:2015  function closeDeed(uint refundRatio) public onlyRegistrar onlyActive {\r... */\n      pop\n      jump\t// out\n        /* \"contracts/Deed.sol\":1174:1282  function setRegistrar(address newRegistrar) public onlyRegistrar {\r... */\n    tag_41:\n        /* \"contracts/Deed.sol\":601:610  registrar */\n      and(sub(exp(0x2, 0xa0), 0x1), sload(0x0))\n        /* \"contracts/Deed.sol\":587:597  msg.sender */\n      caller\n        /* \"contracts/Deed.sol\":587:610  msg.sender == registrar */\n      eq\n        /* \"contracts/Deed.sol\":579:611  require(msg.sender == registrar) */\n      tag_66\n      jumpi\n      0x0\n      dup1\n      revert\n    tag_66:\n        /* \"contracts/Deed.sol\":1250:1259  registrar */\n      0x0\n        /* \"contracts/Deed.sol\":1250:1274  registrar = newRegistrar */\n      dup1\n      sload\n      not(0xffffffffffffffffffffffffffffffffffffffff)\n      and\n      sub(exp(0x2, 0xa0), 0x1)\n      swap3\n      swap1\n      swap3\n      and\n      swap2\n      swap1\n      swap2\n      or\n      swap1\n      sstore\n        /* \"contracts/Deed.sol\":1174:1282  function setRegistrar(address newRegistrar) public onlyRegistrar {\r... */\n      jump\t// out\n\n    auxdata: 0xa165627a7a72305820c84dae2d281dfe49b11b1fd6c5afc49a94cfddd158702d8bb3a75afc90d991680029\n}\n",
				"bytecode": {
					"linkReferences": {},
					"object": "60806040526040516020806104f9833981016040525160018054600160a060020a03909216600160a060020a0319928316178155600080549092163317909155426003556005805460ff1916909117905534600455610496806100636000396000f3006080604052600436106100a35763ffffffff7c010000000000000000000000000000000000000000000000000000000060003504166305b3441081146100a85780630b5ab3d5146100cf57806313af4035146100e65780632b20e397146101075780633fa4f24514610138578063674f220f1461014d5780638da5cb5b14610162578063b0c8097214610177578063bbe4277114610194578063faab9d39146101ac575b600080fd5b3480156100b457600080fd5b506100bd6101cd565b60408051918252519081900360200190f35b3480156100db57600080fd5b506100e46101d3565b005b3480156100f257600080fd5b506100e4600160a060020a036004351661022a565b34801561011357600080fd5b5061011c6102c8565b60408051600160a060020a039092168252519081900360200190f35b34801561014457600080fd5b506100bd6102d7565b34801561015957600080fd5b5061011c6102dd565b34801561016e57600080fd5b5061011c6102ec565b34801561018357600080fd5b506100e460043560243515156102fb565b3480156101a057600080fd5b506100e460043561037b565b3480156101b857600080fd5b506100e4600160a060020a0360043516610424565b60035481565b60055460ff16156101e357600080fd5b600154604051600160a060020a0390911690303180156108fc02916000818181858888f193505050501561022857735b38da6a701c568545dcfcb03fcb875f56beddc4ff5b565b600054600160a060020a0316331461024157600080fd5b600160a060020a038116151561025657600080fd5b600180546002805473ffffffffffffffffffffffffffffffffffffffff19908116600160a060020a03808516919091179092559084169116811790915560408051918252517fa2ea9883a321a3e97b8266c2b078bfeec6d50c711ed71f874a90d500ae2eaf369181900360200190a150565b600054600160a060020a031681565b60045481565b600254600160a060020a031681565b600154600160a060020a031681565b600054600160a060020a0316331461031257600080fd5b60055460ff16151561032357600080fd5b60045482111561033257600080fd5b6004829055600154604051600160a060020a0390911690303184900380156108fc02916000818181858888f193505050508061036c575080155b151561037757600080fd5b5050565b600054600160a060020a0316331461039257600080fd5b60055460ff1615156103a357600080fd5b6005805460ff19169055604051735b38da6a701c568545dcfcb03fcb875f56beddc4906103e83031848203020480156108fc02916000818181858888f1935050505015156103f057600080fd5b6040517fbb2ce2f51803bba16bc85282b47deeea9a5c6223eabea1077be696b3f265cf1390600090a16104216101d3565b50565b600054600160a060020a0316331461043b57600080fd5b6000805473ffffffffffffffffffffffffffffffffffffffff1916600160a060020a03929092169190911790555600a165627a7a72305820c84dae2d281dfe49b11b1fd6c5afc49a94cfddd158702d8bb3a75afc90d991680029",
					"opcodes": "PUSH1 0x80 PUSH1 0x40 MSTORE PUSH1 0x40 MLOAD PUSH1 0x20 DUP1 PUSH2 0x4F9 DUP4 CODECOPY DUP2 ADD PUSH1 0x40 MSTORE MLOAD PUSH1 0x1 DUP1 SLOAD PUSH1 0x1 PUSH1 0xA0 PUSH1 0x2 EXP SUB SWAP1 SWAP3 AND PUSH1 0x1 PUSH1 0xA0 PUSH1 0x2 EXP SUB NOT SWAP3 DUP4 AND OR DUP2 SSTORE PUSH1 0x0 DUP1 SLOAD SWAP1 SWAP3 AND CALLER OR SWAP1 SWAP2 SSTORE TIMESTAMP PUSH1 0x3 SSTORE PUSH1 0x5 DUP1 SLOAD PUSH1 0xFF NOT AND SWAP1 SWAP2 OR SWAP1 SSTORE CALLVALUE PUSH1 0x4 SSTORE PUSH2 0x496 DUP1 PUSH2 0x63 PUSH1 0x0 CODECOPY PUSH1 0x0 RETURN STOP PUSH1 0x80 PUSH1 0x40 MSTORE PUSH1 0x4 CALLDATASIZE LT PUSH2 0xA3 JUMPI PUSH4 0xFFFFFFFF PUSH29 0x100000000000000000000000000000000000000000000000000000000 PUSH1 0x0 CALLDATALOAD DIV AND PUSH4 0x5B34410 DUP2 EQ PUSH2 0xA8 JUMPI DUP1 PUSH4 0xB5AB3D5 EQ PUSH2 0xCF JUMPI DUP1 PUSH4 0x13AF4035 EQ PUSH2 0xE6 JUMPI DUP1 PUSH4 0x2B20E397 EQ PUSH2 0x107 JUMPI DUP1 PUSH4 0x3FA4F245 EQ PUSH2 0x138 JUMPI DUP1 PUSH4 0x674F220F EQ PUSH2 0x14D JUMPI DUP1 PUSH4 0x8DA5CB5B EQ PUSH2 0x162 JUMPI DUP1 PUSH4 0xB0C80972 EQ PUSH2 0x177 JUMPI DUP1 PUSH4 0xBBE42771 EQ PUSH2 0x194 JUMPI DUP1 PUSH4 0xFAAB9D39 EQ PUSH2 0x1AC JUMPI JUMPDEST PUSH1 0x0 DUP1 REVERT JUMPDEST CALLVALUE DUP1 ISZERO PUSH2 0xB4 JUMPI PUSH1 0x0 DUP1 REVERT JUMPDEST POP PUSH2 0xBD PUSH2 0x1CD JUMP JUMPDEST PUSH1 0x40 DUP1 MLOAD SWAP2 DUP3 MSTORE MLOAD SWAP1 DUP2 SWAP1 SUB PUSH1 0x20 ADD SWAP1 RETURN JUMPDEST CALLVALUE DUP1 ISZERO PUSH2 0xDB JUMPI PUSH1 0x0 DUP1 REVERT JUMPDEST POP PUSH2 0xE4 PUSH2 0x1D3 JUMP JUMPDEST STOP JUMPDEST CALLVALUE DUP1 ISZERO PUSH2 0xF2 JUMPI PUSH1 0x0 DUP1 REVERT JUMPDEST POP PUSH2 0xE4 PUSH1 0x1 PUSH1 0xA0 PUSH1 0x2 EXP SUB PUSH1 0x4 CALLDATALOAD AND PUSH2 0x22A JUMP JUMPDEST CALLVALUE DUP1 ISZERO PUSH2 0x113 JUMPI PUSH1 0x0 DUP1 REVERT JUMPDEST POP PUSH2 0x11C PUSH2 0x2C8 JUMP JUMPDEST PUSH1 0x40 DUP1 MLOAD PUSH1 0x1 PUSH1 0xA0 PUSH1 0x2 EXP SUB SWAP1 SWAP3 AND DUP3 MSTORE MLOAD SWAP1 DUP2 SWAP1 SUB PUSH1 0x20 ADD SWAP1 RETURN JUMPDEST CALLVALUE DUP1 ISZERO PUSH2 0x144 JUMPI PUSH1 0x0 DUP1 REVERT JUMPDEST POP PUSH2 0xBD PUSH2 0x2D7 JUMP JUMPDEST CALLVALUE DUP1 ISZERO PUSH2 0x159 JUMPI PUSH1 0x0 DUP1 REVERT JUMPDEST POP PUSH2 0x11C PUSH2 0x2DD JUMP JUMPDEST CALLVALUE DUP1 ISZERO PUSH2 0x16E JUMPI PUSH1 0x0 DUP1 REVERT JUMPDEST POP PUSH2 0x11C PUSH2 0x2EC JUMP JUMPDEST CALLVALUE DUP1 ISZERO PUSH2 0x183 JUMPI PUSH1 0x0 DUP1 REVERT JUMPDEST POP PUSH2 0xE4 PUSH1 0x4 CALLDATALOAD PUSH1 0x24 CALLDATALOAD ISZERO ISZERO PUSH2 0x2FB JUMP JUMPDEST CALLVALUE DUP1 ISZERO PUSH2 0x1A0 JUMPI PUSH1 0x0 DUP1 REVERT JUMPDEST POP PUSH2 0xE4 PUSH1 0x4 CALLDATALOAD PUSH2 0x37B JUMP JUMPDEST CALLVALUE DUP1 ISZERO PUSH2 0x1B8 JUMPI PUSH1 0x0 DUP1 REVERT JUMPDEST POP PUSH2 0xE4 PUSH1 0x1 PUSH1 0xA0 PUSH1 0x2 EXP SUB PUSH1 0x4 CALLDATALOAD AND PUSH2 0x424 JUMP JUMPDEST PUSH1 0x3 SLOAD DUP2 JUMP JUMPDEST PUSH1 0x5 SLOAD PUSH1 0xFF AND ISZERO PUSH2 0x1E3 JUMPI PUSH1 0x0 DUP1 REVERT JUMPDEST PUSH1 0x1 SLOAD PUSH1 0x40 MLOAD PUSH1 0x1 PUSH1 0xA0 PUSH1 0x2 EXP SUB SWAP1 SWAP2 AND SWAP1 ADDRESS BALANCE DUP1 ISZERO PUSH2 0x8FC MUL SWAP2 PUSH1 0x0 DUP2 DUP2 DUP2 DUP6 DUP9 DUP9 CALL SWAP4 POP POP POP POP ISZERO PUSH2 0x228 JUMPI PUSH20 0x5B38DA6A701C568545DCFCB03FCB875F56BEDDC4 SELFDESTRUCT JUMPDEST JUMP JUMPDEST PUSH1 0x0 SLOAD PUSH1 0x1 PUSH1 0xA0 PUSH1 0x2 EXP SUB AND CALLER EQ PUSH2 0x241 JUMPI PUSH1 0x0 DUP1 REVERT JUMPDEST PUSH1 0x1 PUSH1 0xA0 PUSH1 0x2 EXP SUB DUP2 AND ISZERO ISZERO PUSH2 0x256 JUMPI PUSH1 0x0 DUP1 REVERT JUMPDEST PUSH1 0x1 DUP1 SLOAD PUSH1 0x2 DUP1 SLOAD PUSH20 0xFFFFFFFFFFFFFFFFFFFFFFFFFFFFFFFFFFFFFFFF NOT SWAP1 DUP2 AND PUSH1 0x1 PUSH1 0xA0 PUSH1 0x2 EXP SUB DUP1 DUP6 AND SWAP2 SWAP1 SWAP2 OR SWAP1 SWAP3 SSTORE SWAP1 DUP5 AND SWAP2 AND DUP2 OR SWAP1 SWAP2 SSTORE PUSH1 0x40 DUP1 MLOAD SWAP2 DUP3 MSTORE MLOAD PUSH32 0xA2EA9883A321A3E97B8266C2B078BFEEC6D50C711ED71F874A90D500AE2EAF36 SWAP2 DUP2 SWAP1 SUB PUSH1 0x20 ADD SWAP1 LOG1 POP JUMP JUMPDEST PUSH1 0x0 SLOAD PUSH1 0x1 PUSH1 0xA0 PUSH1 0x2 EXP SUB AND DUP2 JUMP JUMPDEST PUSH1 0x4 SLOAD DUP2 JUMP JUMPDEST PUSH1 0x2 SLOAD PUSH1 0x1 PUSH1 0xA0 PUSH1 0x2 EXP SUB AND DUP2 JUMP JUMPDEST PUSH1 0x1 SLOAD PUSH1 0x1 PUSH1 0xA0 PUSH1 0x2 EXP SUB AND DUP2 JUMP JUMPDEST PUSH1 0x0 SLOAD PUSH1 0x1 PUSH1 0xA0 PUSH1 0x2 EXP SUB AND CALLER EQ PUSH2 0x312 JUMPI PUSH1 0x0 DUP1 REVERT JUMPDEST PUSH1 0x5 SLOAD PUSH1 0xFF AND ISZERO ISZERO PUSH2 0x323 JUMPI PUSH1 0x0 DUP1 REVERT JUMPDEST PUSH1 0x4 SLOAD DUP3 GT ISZERO PUSH2 0x332 JUMPI PUSH1 0x0 DUP1 REVERT JUMPDEST PUSH1 0x4 DUP3 SWAP1 SSTORE PUSH1 0x1 SLOAD PUSH1 0x40 MLOAD PUSH1 0x1 PUSH1 0xA0 PUSH1 0x2 EXP SUB SWAP1 SWAP2 AND SWAP1 ADDRESS BALANCE DUP5 SWAP1 SUB DUP1 ISZERO PUSH2 0x8FC MUL SWAP2 PUSH1 0x0 DUP2 DUP2 DUP2 DUP6 DUP9 DUP9 CALL SWAP4 POP POP POP POP DUP1 PUSH2 0x36C JUMPI POP DUP1 ISZERO JUMPDEST ISZERO ISZERO PUSH2 0x377 JUMPI PUSH1 0x0 DUP1 REVERT JUMPDEST POP POP JUMP JUMPDEST PUSH1 0x0 SLOAD PUSH1 0x1 PUSH1 0xA0 PUSH1 0x2 EXP SUB AND CALLER EQ PUSH2 0x392 JUMPI PUSH1 0x0 DUP1 REVERT JUMPDEST PUSH1 0x5 SLOAD PUSH1 0xFF AND ISZERO ISZERO PUSH2 0x3A3 JUMPI PUSH1 0x0 DUP1 REVERT JUMPDEST PUSH1 0x5 DUP1 SLOAD PUSH1 0xFF NOT AND SWAP1 SSTORE PUSH1 0x40 MLOAD PUSH20 0x5B38DA6A701C568545DCFCB03FCB875F56BEDDC4 SWAP1 PUSH2 0x3E8 ADDRESS BALANCE DUP5 DUP3 SUB MUL DIV DUP1 ISZERO PUSH2 0x8FC MUL SWAP2 PUSH1 0x0 DUP2 DUP2 DUP2 DUP6 DUP9 DUP9 CALL SWAP4 POP POP POP POP ISZERO ISZERO PUSH2 0x3F0 JUMPI PUSH1 0x0 DUP1 REVERT JUMPDEST PUSH1 0x40 MLOAD PUSH32 0xBB2CE2F51803BBA16BC85282B47DEEEA9A5C6223EABEA1077BE696B3F265CF13 SWAP1 PUSH1 0x0 SWAP1 LOG1 PUSH2 0x421 PUSH2 0x1D3 JUMP JUMPDEST POP JUMP JUMPDEST PUSH1 0x0 SLOAD PUSH1 0x1 PUSH1 0xA0 PUSH1 0x2 EXP SUB AND CALLER EQ PUSH2 0x43B JUMPI PUSH1 0x0 DUP1 REVERT JUMPDEST PUSH1 0x0 DUP1 SLOAD PUSH20 0xFFFFFFFFFFFFFFFFFFFFFFFFFFFFFFFFFFFFFFFF NOT AND PUSH1 0x1 PUSH1 0xA0 PUSH1 0x2 EXP SUB SWAP3 SWAP1 SWAP3 AND SWAP2 SWAP1 SWAP2 OR SWAP1 SSTORE JUMP STOP LOG1 PUSH6 0x627A7A723058 KECCAK256 0xc8 0x4d 0xae 0x2d 0x28 SAR INVALID 0x49 0xb1 SHL 0x1f 0xd6 0xc5 0xaf 0xc4 SWAP11 SWAP5 0xcf 0xdd 0xd1 PC PUSH17 0x2D8BB3A75AFC90D9916800290000000000 "
				},
				"gasEstimates": {
					"creation": {
						"codeDepositCost": "234800",
						"executionCost": "101130",
						"totalCost": "335930"
					},
					"external": {
						"closeDeed(uint256)": "infinite",
						"creationDate()": "384",
						"destroyDeed()": "infinite",
						"owner()": "669",
						"previousOwner()": "647",
						"registrar()": "603",
						"setBalance(uint256,bool)": "infinite",
						"setOwner(address)": "42262",
						"setRegistrar(address)": "21020",
						"value()": "472"
					}
				},
				"methodIdentifiers": {
					"closeDeed(uint256)": "bbe42771",
					"creationDate()": "05b34410",
					"destroyDeed()": "0b5ab3d5",
					"owner()": "8da5cb5b",
					"previousOwner()": "674f220f",
					"registrar()": "2b20e397",
					"setBalance(uint256,bool)": "b0c80972",
					"setOwner(address)": "13af4035",
					"setRegistrar(address)": "faab9d39",
					"value()": "3fa4f245"
				}
			},
			"userdoc": {
				"methods": {}
			}
		}
	}
}