{
	"data": {
		"bytecode": {
			"linkReferences": {},
			"object": "6080604052348015600e575f80fd5b506101ec8061001c5f395ff3fe608060405234801561000f575f80fd5b5060043610610034575f3560e01c806347f52cae146100385780634f16ee8f1461004d575b5f80fd5b61004b610046366004610130565b61007e565b005b61006c61005b366004610158565b5f6020819052908152604090205481565b60405190815260200160405180910390f35b5f61008882610103565b9050805f80856001600160a01b03166001600160a01b031681526020019081526020015f205f8282546100bb919061018c565b90915550506040518181526001600160a01b038416907f78bff08dfd55b3e69c746f8a3008ee4d8fd54c88359125d1d869f5087e3c373f9060200160405180910390a2505050565b5f61010f82600a61019f565b92915050565b80356001600160a01b038116811461012b575f80fd5b919050565b5f8060408385031215610141575f80fd5b61014a83610115565b946020939093013593505050565b5f60208284031215610168575f80fd5b61017182610115565b9392505050565b634e487b7160e01b5f52601160045260245ffd5b8082018082111561010f5761010f610178565b808202811582820484141761010f5761010f61017856fea2646970667358221220edf572d45f7a4fc8ac2fa5ab1d2ecf0b1ca4e4f95548655f86f86380c8b80ab164736f6c63430008190033",
			"opcodes": "PUSH1 0x80 PUSH1 0x40 MSTORE CALLVALUE DUP1 ISZERO PUSH1 0xE JUMPI PUSH0 DUP1 REVERT JUMPDEST POP PUSH2 0x1EC DUP1 PUSH2 0x1C PUSH0 CODECOPY PUSH0 RETURN INVALID PUSH1 0x80 PUSH1 0x40 MSTORE CALLVALUE DUP1 ISZERO PUSH2 0xF JUMPI PUSH0 DUP1 REVERT JUMPDEST POP PUSH1 0x4 CALLDATASIZE LT PUSH2 0x34 JUMPI PUSH0 CALLDATALOAD PUSH1 0xE0 SHR DUP1 PUSH4 0x47F52CAE EQ PUSH2 0x38 JUMPI DUP1 PUSH4 0x4F16EE8F EQ PUSH2 0x4D JUMPI JUMPDEST PUSH0 DUP1 REVERT JUMPDEST PUSH2 0x4B PUSH2 0x46 CALLDATASIZE PUSH1 0x4 PUSH2 0x130 JUMP JUMPDEST PUSH2 0x7E JUMP JUMPDEST STOP JUMPDEST PUSH2 0x6C PUSH2 0x5B CALLDATASIZE PUSH1 0x4 PUSH2 0x158 JUMP JUMPDEST PUSH0 PUSH1 0x20 DUP2 SWAP1 MSTORE SWAP1 DUP2 MSTORE PUSH1 0x40 SWAP1 KECCAK256 SLOAD DUP2 JUMP JUMPDEST PUSH1 0x40 MLOAD SWAP1 DUP2 MSTORE PUSH1 0x20 ADD PUSH1 0x40 MLOAD DUP1 SWAP2 SUB SWAP1 RETURN JUMPDEST PUSH0 PUSH2 0x88 DUP3 PUSH2 0x103 JUMP JUMPDEST SWAP1 POP DUP1 PUSH0 DUP1 DUP6 PUSH1 0x1 PUSH1 0x1 PUSH1 0xA0 SHL SUB AND PUSH1 0x1 PUSH1 0x1 PUSH1 0xA0 SHL SUB AND DUP2 MSTORE PUSH1 0x20 ADD SWAP1 DUP2 MSTORE PUSH1 0x20 ADD PUSH0 KECCAK256 PUSH0 DUP3 DUP3 SLOAD PUSH2 0xBB SWAP2 SWAP1 PUSH2 0x18C JUMP JUMPDEST SWAP1 SWAP2 SSTORE POP POP PUSH1 0x40 MLOAD DUP2 DUP2 MSTORE PUSH1 0x1 PUSH1 0x1 PUSH1 0xA0 SHL SUB DUP5 AND SWAP1 PUSH32 0x78BFF08DFD55B3E69C746F8A3008EE4D8FD54C88359125D1D869F5087E3C373F SWAP1 PUSH1 0x20 ADD PUSH1 0x40 MLOAD DUP1 SWAP2 SUB SWAP1 LOG2 POP POP POP JUMP JUMPDEST PUSH0 PUSH2 0x10F DUP3 PUSH1 0xA PUSH2 0x19F JUMP JUMPDEST SWAP3 SWAP2 POP POP JUMP JUMPDEST DUP1 CALLDATALOAD PUSH1 0x1 PUSH1 0x1 PUSH1 0xA0 SHL SUB DUP2 AND DUP2 EQ PUSH2 0x12B JUMPI PUSH0 DUP1 REVERT JUMPDEST SWAP2 SWAP1 POP JUMP JUMPDEST PUSH0 DUP1 PUSH1 0x40 DUP4 DUP6 SUB SLT ISZERO PUSH2 0x141 JUMPI PUSH0 DUP1 REVERT JUMPDEST PUSH2 0x14A DUP4 PUSH2 0x115 JUMP JUMPDEST SWAP5 PUSH1 0x20 SWAP4 SWAP1 SWAP4 ADD CALLDATALOAD SWAP4 POP POP POP JUMP JUMPDEST PUSH0 PUSH1 0x20 DUP3 DUP5 SUB SLT ISZERO PUSH2 0x168 JUMPI PUSH0 DUP1 REVERT JUMPDEST PUSH2 0x171 DUP3 PUSH2 0x115 JUMP JUMPDEST SWAP4 SWAP3 POP POP POP JUMP JUMPDEST PUSH4 0x4E487B71 PUSH1 0xE0 SHL PUSH0 MSTORE PUSH1 0x11 PUSH1 0x4 MSTORE PUSH1 0x24 PUSH0 REVERT JUMPDEST DUP1 DUP3 ADD DUP1 DUP3 GT ISZERO PUSH2 0x10F JUMPI PUSH2 0x10F PUSH2 0x178 JUMP JUMPDEST DUP1 DUP3 MUL DUP2 ISZERO DUP3 DUP3 DIV DUP5 EQ OR PUSH2 0x10F JUMPI PUSH2 0x10F PUSH2 0x178 JUMP INVALID LOG2 PUSH5 0x6970667358 0x22 SLT KECCAK256 0xED CREATE2 PUSH19 0xD45F7A4FC8AC2FA5AB1D2ECF0B1CA4E4F95548 PUSH6 0x5F86F86380C8 0xB8 EXP 0xB1 PUSH5 0x736F6C6343 STOP ADDMOD NOT STOP CALLER "
		},
		"gasEstimates": {
			"creation": {
				"codeDepositCost": "98400",
				"executionCost": "145",
				"totalCost": "98545"
			},
			"external": {
				"recycleWaste(address,uint256)": "infinite",
				"recyclingPoints(address)": "2507"
			},
			"internal": {
				"calculatePoints(uint256)": "infinite"
			}
		},
		"methodIdentifiers": {
			"recycleWaste(address,uint256)": "47f52cae",
			"recyclingPoints(address)": "4f16ee8f"
		}
	},
	"abi": [
		{
			"anonymous": false,
			"inputs": [
				{
					"indexed": true,
					"internalType": "address",
					"name": "user",
					"type": "address"
				},
				{
					"indexed": false,
					"internalType": "uint256",
					"name": "pointsEarned",
					"type": "uint256"
				}
			],
			"name": "WasteRecycled",
			"type": "event"
		},
		{
			"inputs": [
				{
					"internalType": "address",
					"name": "user",
					"type": "address"
				},
				{
					"internalType": "uint256",
					"name": "weight",
					"type": "uint256"
				}
			],
			"name": "recycleWaste",
			"outputs": [],
			"stateMutability": "nonpayable",
			"type": "function"
		},
		{
			"inputs": [
				{
					"internalType": "address",
					"name": "",
					"type": "address"
				}
			],
			"name": "recyclingPoints",
			"outputs": [
				{
					"internalType": "uint256",
					"name": "",
					"type": "uint256"
				}
			],
			"stateMutability": "view",
			"type": "function"
		}
	]
}