{
	"data": {
		"bytecode": {
			"linkReferences": {},
			"object": "608060405234801561001057600080fd5b506040516060806129b883398101604090815281516020830151919092015160008054600160a060020a031916600160a060020a0385161781556001839055811161005b574261005d565b805b600455505050612946806100726000396000f3006080604052600436106101195763ffffffff60e060020a6000350416630230a07c811461011e57806313c89a8f1461013857806315f733311461016257806322ec1244146101bb5780632525f5c1146101e5578063267b6922146102095780633f15457f1461026957806347872b421461029a5780635ddae283146102b85780635e431709146102d057806361d585da146102f457806379ce9fac146103305780639350333714610354578063983b94fb146103835780639c67f06f1461039b578063ae1a0b0c146103b0578063ce92dced146103de578063de10f04b146103e9578063e27fe50f1461043e578063ea9e107a14610493578063ede8acdb146104ba578063faff50a8146104d2578063febefd61146104e7575b600080fd5b34801561012a57600080fd5b50610136600435610531565b005b34801561014457600080fd5b5061015060043561077f565b60408051918252519081900360200190f35b34801561016e57600080fd5b506040805160206004803580820135601f81018490048402850184019095528484526101369436949293602493928401919081908401838280828437509497506107a39650505050505050565b3480156101c757600080fd5b50610150600435600160a060020a0360243516604435606435610b22565b3480156101f157600080fd5b50610136600160a060020a0360043516602435610b66565b34801561021557600080fd5b50610221600435610d58565b6040518086600581111561023157fe5b60ff168152600160a060020a0390951660208601525060408085019390935260608401919091526080830152519081900360a0019150f35b34801561027557600080fd5b5061027e610da4565b60408051600160a060020a039092168252519081900360200190f35b3480156102a657600080fd5b50610136600435602435604435610db3565b3480156102c457600080fd5b50610136600435611389565b3480156102dc57600080fd5b5061027e600160a060020a0360043516602435611621565b34801561030057600080fd5b5061030c600435611647565b6040518082600581111561031c57fe5b60ff16815260200191505060405180910390f35b34801561033c57600080fd5b50610136600435600160a060020a03602435166116bd565b34801561036057600080fd5b5061036f600435602435611823565b604080519115158252519081900360200190f35b34801561038f57600080fd5b50610136600435611839565b3480156103a757600080fd5b50610150611afb565b3480156103bc57600080fd5b506103c5611b01565b6040805163ffffffff9092168252519081900360200190f35b610136600435611b08565b3480156103f557600080fd5b506040805160206004803580820135838102808601850190965280855261013695369593946024949385019291829185019084908082843750949750611bf39650505050505050565b34801561044a57600080fd5b506040805160206004803580820135838102808601850190965280855261013695369593946024949385019291829185019084908082843750949750611c509650505050505050565b34801561049f57600080fd5b50610136600435600160a060020a0360243516604435611c88565b3480156104c657600080fd5b50610136600435611c8d565b3480156104de57600080fd5b50610150611dea565b60408051602060048035808201358381028086018501909652808552610136953695939460249493850192918291850190849080828437509497505093359450611df09350505050565b60008082600261054082611647565b600581111561054b57fe5b1480156105e05750600081815260026020908152604080832054815160e060020a638da5cb5b0281529151600160a060020a0390911693638da5cb5b93600480850194919392918390030190829087803b1580156105a857600080fd5b505af11580156105bc573d6000803e3d6000fd5b505050506040513d60208110156105d257600080fd5b5051600160a060020a031633145b15156105eb57600080fd5b600084815260026020526040902080546001820154919450600160a060020a031692506301e1338001421015806106ad5750600080546001546040805160e060020a6302571be30281526004810192909252513093600160a060020a03909316926302571be392602480820193602093909283900390910190829087803b15801561067557600080fd5b505af1158015610689573d6000803e3d6000fd5b505050506040513d602081101561069f57600080fd5b5051600160a060020a031614155b15156106b857600080fd5b60006002840181905560038401558254600160a060020a03191683556106dd84611e02565b81600160a060020a031663bbe427716103e86040518263ffffffff1660e060020a02815260040180828152602001915050600060405180830381600087803b15801561072857600080fd5b505af115801561073c573d6000803e3d6000fd5b505050600284015460408051918252518692507f292b79b9246fa2c8e77d3fe195b251f9cb839d7d038e667c069ee7708c631e169181900360200190a250505050565b6004547001000000000000000000000000000000006249d400818404020401919050565b600080826040518082805190602001908083835b602083106107d65780518252601f1990920191602091820191016107b7565b5181516020939093036101000a6000190180199091169216919091179052604051920182900390912092506002915081905061081183611647565b600581111561081c57fe5b1461082657600080fd5b600661083186612039565b111561083c57600080fd5b846040518082805190602001908083835b6020831061086c5780518252601f19909201916020918201910161084d565b51815160209384036101000a60001901801990921691161790526040805192909401829003909120600081815260029092529290209197509095506108b69250869150611e029050565b8254600160a060020a031615610a61576108db8360020154662386f26fc100006120e3565b60028481018290558454604080517fb0c809720000000000000000000000000000000000000000000000000000000081529290930460048301526000602483018190529251600160a060020a039091169263b0c80972926044808201939182900301818387803b15801561094e57600080fd5b505af1158015610962573d6000803e3d6000fd5b50508454604080517f13af40350000000000000000000000000000000000000000000000000000000081523360048201529051600160a060020a0390921693506313af4035925060248082019260009290919082900301818387803b1580156109ca57600080fd5b505af11580156109de573d6000803e3d6000fd5b50508454604080517fbbe427710000000000000000000000000000000000000000000000000000000081526103e860048201529051600160a060020a03909216935063bbe42771925060248082019260009290919082900301818387803b158015610a4857600080fd5b505af1158015610a5c573d6000803e3d6000fd5b505050505b846040518082805190602001908083835b60208310610a915780518252601f199092019160209182019101610a72565b51815160209384036101000a60001901801990921691161790526040805192909401829003822060028a015460018b01549084529183019190915283519095508994507f1f9c649fe47e58bb60f4e52f0d90e4c47a526c9f90c5113df842c025970b66ad93918190039091019150a3505060006002820181905560038201558054600160a060020a03191690555050565b60408051948552600160a060020a03939093166c01000000000000000000000000026020850152603484019190915260548301525160749181900391909101902090565b600160a060020a038083166000908152600360209081526040808320858452909152902054168015801590610c1457506206978063ffffffff1681600160a060020a03166305b344106040518163ffffffff1660e060020a028152600401602060405180830381600087803b158015610bde57600080fd5b505af1158015610bf2573d6000803e3d6000fd5b505050506040513d6020811015610c0857600080fd5b50510162127500014210155b1515610c1f57600080fd5b604080517f13af40350000000000000000000000000000000000000000000000000000000081523360048201529051600160a060020a038316916313af403591602480830192600092919082900301818387803b158015610c7f57600080fd5b505af1158015610c93573d6000803e3d6000fd5b5050505080600160a060020a031663bbe4277160056040518263ffffffff1660e060020a02815260040180828152602001915050600060405180830381600087803b158015610ce157600080fd5b505af1158015610cf5573d6000803e3d6000fd5b50505050600160a060020a038316600081815260036020908152604080832086845282528083208054600160a060020a03191690558051928352600591830191909152805185926000805160206128fb83398151915292908290030190a3505050565b60008181526002602052604081208190819081908190610d7787611647565b815460018301546002840154600390940154929a600160a060020a03909216995097509195509350915050565b600054600160a060020a031681565b600080600080600080610dc889338a8a610b22565b336000908152600360209081526040808320848452909152902054909650600160a060020a03169450841515610dfd57600080fd5b33600090815260036020908152604080832089845282528083208054600160a060020a03191690558b83526002825280832081517f3fa4f2450000000000000000000000000000000000000000000000000000000081529151909750610ebf938c93600160a060020a038b1693633fa4f2459360048083019491928390030190829087803b158015610e8e57600080fd5b505af1158015610ea2573d6000803e3d6000fd5b505050506040513d6020811015610eb857600080fd5b50516120fb565b604080517fb0c8097200000000000000000000000000000000000000000000000000000000815260048101839052600160248201529051919450600160a060020a0387169163b0c809729160448082019260009290919082900301818387803b158015610f2b57600080fd5b505af1158015610f3f573d6000803e3d6000fd5b50505050610f4c89611647565b91506002826005811115610f5c57fe5b1415610ff65784600160a060020a031663bbe4277160056040518263ffffffff1660e060020a02815260040180828152602001915050600060405180830381600087803b158015610fac57600080fd5b505af1158015610fc0573d6000803e3d6000fd5b5050604080518681526001602082015281513394508d93506000805160206128fb833981519152929181900390910190a361137e565b600482600581111561100457fe5b1461100e57600080fd5b662386f26fc1000083108061109a57506202a30063ffffffff1684600101540385600160a060020a03166305b344106040518163ffffffff1660e060020a028152600401602060405180830381600087803b15801561106c57600080fd5b505af1158015611080573d6000803e3d6000fd5b505050506040513d602081101561109657600080fd5b5051115b156111345784600160a060020a031663bbe427716103e36040518263ffffffff1660e060020a02815260040180828152602001915050600060405180830381600087803b1580156110ea57600080fd5b505af11580156110fe573d6000803e3d6000fd5b5050604080518681526000602082015281513394508d93506000805160206128fb833981519152929181900390910190a361137e565b836003015483111561122e578354600160a060020a0316156111d157508254604080517fbbe427710000000000000000000000000000000000000000000000000000000081526103e360048201529051600160a060020a0390921691829163bbe4277191602480830192600092919082900301818387803b1580156111b857600080fd5b505af11580156111cc573d6000803e3d6000fd5b505050505b600384018054600280870191909155908490558454600160a060020a031916600160a060020a038716178555604080518581526020810192909252805133928c926000805160206128fb83398151915292918290030190a361137e565b83600201548311156112ed5760028401839055604080517fbbe427710000000000000000000000000000000000000000000000000000000081526103e360048201529051600160a060020a0387169163bbe4277191602480830192600092919082900301818387803b1580156112a357600080fd5b505af11580156112b7573d6000803e3d6000fd5b5050604080518681526003602082015281513394508d93506000805160206128fb833981519152929181900390910190a361137e565b84600160a060020a031663bbe427716103e36040518263ffffffff1660e060020a02815260040180828152602001915050600060405180830381600087803b15801561133857600080fd5b505af115801561134c573d6000803e3d6000fd5b5050604080518681526004602082015281513394508d93506000805160206128fb833981519152929181900390910190a35b505050505050505050565b60008082600261139882611647565b60058111156113a357fe5b1480156114385750600081815260026020908152604080832054815160e060020a638da5cb5b0281529151600160a060020a0390911693638da5cb5b93600480850194919392918390030190829087803b15801561140057600080fd5b505af1158015611414573d6000803e3d6000fd5b505050506040513d602081101561142a57600080fd5b5051600160a060020a031633145b151561144357600080fd5b600080546001546040805160e060020a6302571be3028152600481019290925251600160a060020a03909216926302571be3926024808401936020939083900390910190829087803b15801561149857600080fd5b505af11580156114ac573d6000803e3d6000fd5b505050506040513d60208110156114c257600080fd5b50519250600160a060020a0383163014156114dc57600080fd5b600084815260026020526040808220805482517ffaab9d39000000000000000000000000000000000000000000000000000000008152600160a060020a038881166004830152935192965092169263faab9d39926024808201939182900301818387803b15801561154c57600080fd5b505af1158015611560573d6000803e3d6000fd5b505083546001850154604080517fea9e107a000000000000000000000000000000000000000000000000000000008152600481018a9052600160a060020a039384166024820152604481019290925251918716935063ea9e107a925060648082019260009290919082900301818387803b1580156115dd57600080fd5b505af11580156115f1573d6000803e3d6000fd5b50508354600160a060020a0319168455505060006001830181905560028301819055600390920191909155505050565b6003602090815260009283526040808420909152908252902054600160a060020a031681565b600081815260026020526040812061165f8342611823565b151561166e57600591506116b7565b806001015442101561169e5760018101546202a2ff190142101561169557600191506116b7565b600491506116b7565b600381015415156116b257600091506116b7565b600291505b50919050565b60008260026116cb82611647565b60058111156116d657fe5b14801561176b5750600081815260026020908152604080832054815160e060020a638da5cb5b0281529151600160a060020a0390911693638da5cb5b93600480850194919392918390030190829087803b15801561173357600080fd5b505af1158015611747573d6000803e3d6000fd5b505050506040513d602081101561175d57600080fd5b5051600160a060020a031633145b151561177657600080fd5b600160a060020a038316151561178b57600080fd5b600084815260026020526040808220805482517f13af4035000000000000000000000000000000000000000000000000000000008152600160a060020a03888116600483015293519296509216926313af4035926024808201939182900301818387803b1580156117fb57600080fd5b505af115801561180f573d6000803e3d6000fd5b5050505061181d848461210c565b50505050565b600061182e8361077f565b821190505b92915050565b600081600261184782611647565b600581111561185257fe5b1480156118e75750600081815260026020908152604080832054815160e060020a638da5cb5b0281529151600160a060020a0390911693638da5cb5b93600480850194919392918390030190829087803b1580156118af57600080fd5b505af11580156118c3573d6000803e3d6000fd5b505050506040513d60208110156118d957600080fd5b5051600160a060020a031633145b15156118f257600080fd5b60008381526002602081905260409091209081015490925061191b90662386f26fc100006120e3565b600283018190558254604080517fb0c8097200000000000000000000000000000000000000000000000000000000815260048101939093526001602484015251600160a060020a039091169163b0c8097291604480830192600092919082900301818387803b15801561198d57600080fd5b505af11580156119a1573d6000803e3d6000fd5b50505050611a2f838360000160009054906101000a9004600160a060020a0316600160a060020a0316638da5cb5b6040518163ffffffff1660e060020a028152600401602060405180830381600087803b1580156119fe57600080fd5b505af1158015611a12573d6000803e3d6000fd5b505050506040513d6020811015611a2857600080fd5b505161210c565b81546040805160e060020a638da5cb5b0281529051600160a060020a0390921691638da5cb5b916004808201926020929091908290030181600087803b158015611a7857600080fd5b505af1158015611a8c573d6000803e3d6000fd5b505050506040513d6020811015611aa257600080fd5b5051600283015460018401546040805192835260208301919091528051600160a060020a039093169286927f0f0c27adfd84b60b6f456b0e87cdccb1e5fb9603991588d87fa99f5b6b61e67092908290030190a3505050565b60045481565b6249d40081565b336000908152600360209081526040808320848452909152812054600160a060020a031615611b3657600080fd5b662386f26fc10000341015611b4a57600080fd5b3433611b546123f1565b600160a060020a039091168152604051908190036020019082f080158015611b80573d6000803e3d6000fd5b503360008181526003602090815260408083208884528252918290208054600160a060020a031916600160a060020a0386161790558151348152915193955091935085927fb556ff269c1b6714f432c36431e2041d28436a73b6c3f19c021827bbdc6bfc29929181900390910190a35050565b80511515611c0057600080fd5b6002611c26826001845103815181101515611c1757fe5b90602001906020020151611647565b6005811115611c3157fe5b1415611c3c57600080fd5b611c4d600182510382600154612212565b50565b60005b8151811015611c8457611c7c8282815181101515611c6d57fe5b90602001906020020151611c8d565b600101611c53565b5050565b505050565b6000806004544210158015611caa5750600454630784ce00014211155b8015611d405750600080546001546040805160e060020a6302571be30281526004810192909252513093600160a060020a03909316926302571be392602480820193602093909283900390910190829087803b158015611d0957600080fd5b505af1158015611d1d573d6000803e3d6000fd5b505050506040513d6020811015611d3357600080fd5b5051600160a060020a0316145b1515611d4b57600080fd5b611d5483611647565b91506001826005811115611d6457fe5b1415611d6f57611c88565b6000826005811115611d7d57fe5b14611d8757600080fd5b50600082815260026020818152604080842042620697800160018201819055938101859055600381019490945580519283525185927f87e97e825a1d1fa0c54e1d36c7506c1dea8b1efd451fe68b000cf96f7cf4000392908290030190a2505050565b60015481565b611df982611c50565b611c8481611b08565b600080546001546040805160e060020a6302571be30281526004810192909252513092600160a060020a0316916302571be391602480830192602092919082900301818887803b158015611e5557600080fd5b505af1158015611e69573d6000803e3d6000fd5b505050506040513d6020811015611e7f57600080fd5b5051600160a060020a03161415611c845760008054600154604080517f06ab592300000000000000000000000000000000000000000000000000000000815260048101929092526024820186905230604483015251600160a060020a03909216926306ab59239260648084019382900301818387803b158015611f0157600080fd5b505af1158015611f15573d6000803e3d6000fd5b5050600154604080519182526020820186905280519182900381018220600080547f1896f70a00000000000000000000000000000000000000000000000000000000855260048501839052602485018290529251919650600160a060020a039092169450631896f70a935060448084019382900301818387803b158015611f9b57600080fd5b505af1158015611faf573d6000803e3d6000fd5b505060008054604080517f5b0fc9c300000000000000000000000000000000000000000000000000000000815260048101879052602481018490529051600160a060020a039092169450635b0fc9c39350604480820193929182900301818387803b15801561201d57600080fd5b505af1158015612031573d6000803e3d6000fd5b505050505050565b805160009060018381019184010182805b828410156120da5750825160ff16608081101561206c576001840193506120cf565b60e08160ff161015612083576002840193506120cf565b60f08160ff16101561209a576003840193506120cf565b60f88160ff1610156120b1576004840193506120cf565b60fc8160ff1610156120c8576005840193506120cf565b6006840193505b60019091019061204a565b50949350505050565b6000818311156120f4575081611833565b5080611833565b6000818310156120f4575081611833565b600080546001546040805160e060020a6302571be30281526004810192909252513093600160a060020a03909316926302571be392602480820193602093909283900390910190829087803b15801561216457600080fd5b505af1158015612178573d6000803e3d6000fd5b505050506040513d602081101561218e57600080fd5b5051600160a060020a03161415611c845760008054600154604080517f06ab5923000000000000000000000000000000000000000000000000000000008152600481019290925260248201869052600160a060020a03858116604484015290519216926306ab59239260648084019382900301818387803b15801561201d57600080fd5b6000548251600160a060020a03909116906306ab592390839085908790811061223757fe5b602090810290910101516040805160e060020a63ffffffff86160281526004810193909352602483019190915230604483015251606480830192600092919082900301818387803b15801561228b57600080fd5b505af115801561229f573d6000803e3d6000fd5b505050508082848151811015156122b257fe5b60209081029091018101516040805193845291830152805191829003019020905060008311156122ea576122ea600184038383612212565b60008054604080517f1896f70a00000000000000000000000000000000000000000000000000000000815260048101859052602481018490529051600160a060020a0390921692631896f70a9260448084019382900301818387803b15801561235257600080fd5b505af1158015612366573d6000803e3d6000fd5b505060008054604080517f5b0fc9c300000000000000000000000000000000000000000000000000000000815260048101879052602481018490529051600160a060020a039092169450635b0fc9c39350604480820193929182900301818387803b1580156123d457600080fd5b505af11580156123e8573d6000803e3d6000fd5b50505050505050565b6040516104f98061240283390190560060806040526040516020806104f9833981016040525160018054600160a060020a03909216600160a060020a0319928316178155600080549092163317909155426003556005805460ff1916909117905534600455610496806100636000396000f3006080604052600436106100a35763ffffffff7c010000000000000000000000000000000000000000000000000000000060003504166305b3441081146100a85780630b5ab3d5146100cf57806313af4035146100e65780632b20e397146101075780633fa4f24514610138578063674f220f1461014d5780638da5cb5b14610162578063b0c8097214610177578063bbe4277114610194578063faab9d39146101ac575b600080fd5b3480156100b457600080fd5b506100bd6101cd565b60408051918252519081900360200190f35b3480156100db57600080fd5b506100e46101d3565b005b3480156100f257600080fd5b506100e4600160a060020a036004351661022a565b34801561011357600080fd5b5061011c6102c8565b60408051600160a060020a039092168252519081900360200190f35b34801561014457600080fd5b506100bd6102d7565b34801561015957600080fd5b5061011c6102dd565b34801561016e57600080fd5b5061011c6102ec565b34801561018357600080fd5b506100e460043560243515156102fb565b3480156101a057600080fd5b506100e460043561037b565b3480156101b857600080fd5b506100e4600160a060020a0360043516610424565b60035481565b60055460ff16156101e357600080fd5b600154604051600160a060020a0390911690303180156108fc02916000818181858888f193505050501561022857735b38da6a701c568545dcfcb03fcb875f56beddc4ff5b565b600054600160a060020a0316331461024157600080fd5b600160a060020a038116151561025657600080fd5b600180546002805473ffffffffffffffffffffffffffffffffffffffff19908116600160a060020a03808516919091179092559084169116811790915560408051918252517fa2ea9883a321a3e97b8266c2b078bfeec6d50c711ed71f874a90d500ae2eaf369181900360200190a150565b600054600160a060020a031681565b60045481565b600254600160a060020a031681565b600154600160a060020a031681565b600054600160a060020a0316331461031257600080fd5b60055460ff16151561032357600080fd5b60045482111561033257600080fd5b6004829055600154604051600160a060020a0390911690303184900380156108fc02916000818181858888f193505050508061036c575080155b151561037757600080fd5b5050565b600054600160a060020a0316331461039257600080fd5b60055460ff1615156103a357600080fd5b6005805460ff19169055604051735b38da6a701c568545dcfcb03fcb875f56beddc4906103e83031848203020480156108fc02916000818181858888f1935050505015156103f057600080fd5b6040517fbb2ce2f51803bba16bc85282b47deeea9a5c6223eabea1077be696b3f265cf1390600090a16104216101d3565b50565b600054600160a060020a0316331461043b57600080fd5b6000805473ffffffffffffffffffffffffffffffffffffffff1916600160a060020a03929092169190911790555600a165627a7a72305820c84dae2d281dfe49b11b1fd6c5afc49a94cfddd158702d8bb3a75afc90d9916800297b6c4b278d165a6b33958f8ea5dfb00c8c9d4d0acf1985bef5d10786898bc3e7a165627a7a72305820c127b7d9ad4fe675b20907a7de40bfde11eec63764ed4ba397f2f3e7060de13c0029",
			"opcodes": "PUSH1 0x80 PUSH1 0x40 MSTORE CALLVALUE DUP1 ISZERO PUSH2 0x10 JUMPI PUSH1 0x0 DUP1 REVERT JUMPDEST POP PUSH1 0x40 MLOAD PUSH1 0x60 DUP1 PUSH2 0x29B8 DUP4 CODECOPY DUP2 ADD PUSH1 0x40 SWAP1 DUP2 MSTORE DUP2 MLOAD PUSH1 0x20 DUP4 ADD MLOAD SWAP2 SWAP1 SWAP3 ADD MLOAD PUSH1 0x0 DUP1 SLOAD PUSH1 0x1 PUSH1 0xA0 PUSH1 0x2 EXP SUB NOT AND PUSH1 0x1 PUSH1 0xA0 PUSH1 0x2 EXP SUB DUP6 AND OR DUP2 SSTORE PUSH1 0x1 DUP4 SWAP1 SSTORE DUP2 GT PUSH2 0x5B JUMPI TIMESTAMP PUSH2 0x5D JUMP JUMPDEST DUP1 JUMPDEST PUSH1 0x4 SSTORE POP POP POP PUSH2 0x2946 DUP1 PUSH2 0x72 PUSH1 0x0 CODECOPY PUSH1 0x0 RETURN STOP PUSH1 0x80 PUSH1 0x40 MSTORE PUSH1 0x4 CALLDATASIZE LT PUSH2 0x119 JUMPI PUSH4 0xFFFFFFFF PUSH1 0xE0 PUSH1 0x2 EXP PUSH1 0x0 CALLDATALOAD DIV AND PUSH4 0x230A07C DUP2 EQ PUSH2 0x11E JUMPI DUP1 PUSH4 0x13C89A8F EQ PUSH2 0x138 JUMPI DUP1 PUSH4 0x15F73331 EQ PUSH2 0x162 JUMPI DUP1 PUSH4 0x22EC1244 EQ PUSH2 0x1BB JUMPI DUP1 PUSH4 0x2525F5C1 EQ PUSH2 0x1E5 JUMPI DUP1 PUSH4 0x267B6922 EQ PUSH2 0x209 JUMPI DUP1 PUSH4 0x3F15457F EQ PUSH2 0x269 JUMPI DUP1 PUSH4 0x47872B42 EQ PUSH2 0x29A JUMPI DUP1 PUSH4 0x5DDAE283 EQ PUSH2 0x2B8 JUMPI DUP1 PUSH4 0x5E431709 EQ PUSH2 0x2D0 JUMPI DUP1 PUSH4 0x61D585DA EQ PUSH2 0x2F4 JUMPI DUP1 PUSH4 0x79CE9FAC EQ PUSH2 0x330 JUMPI DUP1 PUSH4 0x93503337 EQ PUSH2 0x354 JUMPI DUP1 PUSH4 0x983B94FB EQ PUSH2 0x383 JUMPI DUP1 PUSH4 0x9C67F06F EQ PUSH2 0x39B JUMPI DUP1 PUSH4 0xAE1A0B0C EQ PUSH2 0x3B0 JUMPI DUP1 PUSH4 0xCE92DCED EQ PUSH2 0x3DE JUMPI DUP1 PUSH4 0xDE10F04B EQ PUSH2 0x3E9 JUMPI DUP1 PUSH4 0xE27FE50F EQ PUSH2 0x43E JUMPI DUP1 PUSH4 0xEA9E107A EQ PUSH2 0x493 JUMPI DUP1 PUSH4 0xEDE8ACDB EQ PUSH2 0x4BA JUMPI DUP1 PUSH4 0xFAFF50A8 EQ PUSH2 0x4D2 JUMPI DUP1 PUSH4 0xFEBEFD61 EQ PUSH2 0x4E7 JUMPI JUMPDEST PUSH1 0x0 DUP1 REVERT JUMPDEST CALLVALUE DUP1 ISZERO PUSH2 0x12A JUMPI PUSH1 0x0 DUP1 REVERT JUMPDEST POP PUSH2 0x136 PUSH1 0x4 CALLDATALOAD PUSH2 0x531 JUMP JUMPDEST STOP JUMPDEST CALLVALUE DUP1 ISZERO PUSH2 0x144 JUMPI PUSH1 0x0 DUP1 REVERT JUMPDEST POP PUSH2 0x150 PUSH1 0x4 CALLDATALOAD PUSH2 0x77F JUMP JUMPDEST PUSH1 0x40 DUP1 MLOAD SWAP2 DUP3 MSTORE MLOAD SWAP1 DUP2 SWAP1 SUB PUSH1 0x20 ADD SWAP1 RETURN JUMPDEST CALLVALUE DUP1 ISZERO PUSH2 0x16E JUMPI PUSH1 0x0 DUP1 REVERT JUMPDEST POP PUSH1 0x40 DUP1 MLOAD PUSH1 0x20 PUSH1 0x4 DUP1 CALLDATALOAD DUP1 DUP3 ADD CALLDATALOAD PUSH1 0x1F DUP2 ADD DUP5 SWAP1 DIV DUP5 MUL DUP6 ADD DUP5 ADD SWAP1 SWAP6 MSTORE DUP5 DUP5 MSTORE PUSH2 0x136 SWAP5 CALLDATASIZE SWAP5 SWAP3 SWAP4 PUSH1 0x24 SWAP4 SWAP3 DUP5 ADD SWAP2 SWAP1 DUP2 SWAP1 DUP5 ADD DUP4 DUP3 DUP1 DUP3 DUP5 CALLDATACOPY POP SWAP5 SWAP8 POP PUSH2 0x7A3 SWAP7 POP POP POP POP POP POP POP JUMP JUMPDEST CALLVALUE DUP1 ISZERO PUSH2 0x1C7 JUMPI PUSH1 0x0 DUP1 REVERT JUMPDEST POP PUSH2 0x150 PUSH1 0x4 CALLDATALOAD PUSH1 0x1 PUSH1 0xA0 PUSH1 0x2 EXP SUB PUSH1 0x24 CALLDATALOAD AND PUSH1 0x44 CALLDATALOAD PUSH1 0x64 CALLDATALOAD PUSH2 0xB22 JUMP JUMPDEST CALLVALUE DUP1 ISZERO PUSH2 0x1F1 JUMPI PUSH1 0x0 DUP1 REVERT JUMPDEST POP PUSH2 0x136 PUSH1 0x1 PUSH1 0xA0 PUSH1 0x2 EXP SUB PUSH1 0x4 CALLDATALOAD AND PUSH1 0x24 CALLDATALOAD PUSH2 0xB66 JUMP JUMPDEST CALLVALUE DUP1 ISZERO PUSH2 0x215 JUMPI PUSH1 0x0 DUP1 REVERT JUMPDEST POP PUSH2 0x221 PUSH1 0x4 CALLDATALOAD PUSH2 0xD58 JUMP JUMPDEST PUSH1 0x40 MLOAD DUP1 DUP7 PUSH1 0x5 DUP2 GT ISZERO PUSH2 0x231 JUMPI INVALID JUMPDEST PUSH1 0xFF AND DUP2 MSTORE PUSH1 0x1 PUSH1 0xA0 PUSH1 0x2 EXP SUB SWAP1 SWAP6 AND PUSH1 0x20 DUP7 ADD MSTORE POP PUSH1 0x40 DUP1 DUP6 ADD SWAP4 SWAP1 SWAP4 MSTORE PUSH1 0x60 DUP5 ADD SWAP2 SWAP1 SWAP2 MSTORE PUSH1 0x80 DUP4 ADD MSTORE MLOAD SWAP1 DUP2 SWAP1 SUB PUSH1 0xA0 ADD SWAP2 POP RETURN JUMPDEST CALLVALUE DUP1 ISZERO PUSH2 0x275 JUMPI PUSH1 0x0 DUP1 REVERT JUMPDEST POP PUSH2 0x27E PUSH2 0xDA4 JUMP JUMPDEST PUSH1 0x40 DUP1 MLOAD PUSH1 0x1 PUSH1 0xA0 PUSH1 0x2 EXP SUB SWAP1 SWAP3 AND DUP3 MSTORE MLOAD SWAP1 DUP2 SWAP1 SUB PUSH1 0x20 ADD SWAP1 RETURN JUMPDEST CALLVALUE DUP1 ISZERO PUSH2 0x2A6 JUMPI PUSH1 0x0 DUP1 REVERT JUMPDEST POP PUSH2 0x136 PUSH1 0x4 CALLDATALOAD PUSH1 0x24 CALLDATALOAD PUSH1 0x44 CALLDATALOAD PUSH2 0xDB3 JUMP JUMPDEST CALLVALUE DUP1 ISZERO PUSH2 0x2C4 JUMPI PUSH1 0x0 DUP1 REVERT JUMPDEST POP PUSH2 0x136 PUSH1 0x4 CALLDATALOAD PUSH2 0x1389 JUMP JUMPDEST CALLVALUE DUP1 ISZERO PUSH2 0x2DC JUMPI PUSH1 0x0 DUP1 REVERT JUMPDEST POP PUSH2 0x27E PUSH1 0x1 PUSH1 0xA0 PUSH1 0x2 EXP SUB PUSH1 0x4 CALLDATALOAD AND PUSH1 0x24 CALLDATALOAD PUSH2 0x1621 JUMP JUMPDEST CALLVALUE DUP1 ISZERO PUSH2 0x300 JUMPI PUSH1 0x0 DUP1 REVERT JUMPDEST POP PUSH2 0x30C PUSH1 0x4 CALLDATALOAD PUSH2 0x1647 JUMP JUMPDEST PUSH1 0x40 MLOAD DUP1 DUP3 PUSH1 0x5 DUP2 GT ISZERO PUSH2 0x31C JUMPI INVALID JUMPDEST PUSH1 0xFF AND DUP2 MSTORE PUSH1 0x20 ADD SWAP2 POP POP PUSH1 0x40 MLOAD DUP1 SWAP2 SUB SWAP1 RETURN JUMPDEST CALLVALUE DUP1 ISZERO PUSH2 0x33C JUMPI PUSH1 0x0 DUP1 REVERT JUMPDEST POP PUSH2 0x136 PUSH1 0x4 CALLDATALOAD PUSH1 0x1 PUSH1 0xA0 PUSH1 0x2 EXP SUB PUSH1 0x24 CALLDATALOAD AND PUSH2 0x16BD JUMP JUMPDEST CALLVALUE DUP1 ISZERO PUSH2 0x360 JUMPI PUSH1 0x0 DUP1 REVERT JUMPDEST POP PUSH2 0x36F PUSH1 0x4 CALLDATALOAD PUSH1 0x24 CALLDATALOAD PUSH2 0x1823 JUMP JUMPDEST PUSH1 0x40 DUP1 MLOAD SWAP2 ISZERO ISZERO DUP3 MSTORE MLOAD SWAP1 DUP2 SWAP1 SUB PUSH1 0x20 ADD SWAP1 RETURN JUMPDEST CALLVALUE DUP1 ISZERO PUSH2 0x38F JUMPI PUSH1 0x0 DUP1 REVERT JUMPDEST POP PUSH2 0x136 PUSH1 0x4 CALLDATALOAD PUSH2 0x1839 JUMP JUMPDEST CALLVALUE DUP1 ISZERO PUSH2 0x3A7 JUMPI PUSH1 0x0 DUP1 REVERT JUMPDEST POP PUSH2 0x150 PUSH2 0x1AFB JUMP JUMPDEST CALLVALUE DUP1 ISZERO PUSH2 0x3BC JUMPI PUSH1 0x0 DUP1 REVERT JUMPDEST POP PUSH2 0x3C5 PUSH2 0x1B01 JUMP JUMPDEST PUSH1 0x40 DUP1 MLOAD PUSH4 0xFFFFFFFF SWAP1 SWAP3 AND DUP3 MSTORE MLOAD SWAP1 DUP2 SWAP1 SUB PUSH1 0x20 ADD SWAP1 RETURN JUMPDEST PUSH2 0x136 PUSH1 0x4 CALLDATALOAD PUSH2 0x1B08 JUMP JUMPDEST CALLVALUE DUP1 ISZERO PUSH2 0x3F5 JUMPI PUSH1 0x0 DUP1 REVERT JUMPDEST POP PUSH1 0x40 DUP1 MLOAD PUSH1 0x20 PUSH1 0x4 DUP1 CALLDATALOAD DUP1 DUP3 ADD CALLDATALOAD DUP4 DUP2 MUL DUP1 DUP7 ADD DUP6 ADD SWAP1 SWAP7 MSTORE DUP1 DUP6 MSTORE PUSH2 0x136 SWAP6 CALLDATASIZE SWAP6 SWAP4 SWAP5 PUSH1 0x24 SWAP5 SWAP4 DUP6 ADD SWAP3 SWAP2 DUP3 SWAP2 DUP6 ADD SWAP1 DUP5 SWAP1 DUP1 DUP3 DUP5 CALLDATACOPY POP SWAP5 SWAP8 POP PUSH2 0x1BF3 SWAP7 POP POP POP POP POP POP POP JUMP JUMPDEST CALLVALUE DUP1 ISZERO PUSH2 0x44A JUMPI PUSH1 0x0 DUP1 REVERT JUMPDEST POP PUSH1 0x40 DUP1 MLOAD PUSH1 0x20 PUSH1 0x4 DUP1 CALLDATALOAD DUP1 DUP3 ADD CALLDATALOAD DUP4 DUP2 MUL DUP1 DUP7 ADD DUP6 ADD SWAP1 SWAP7 MSTORE DUP1 DUP6 MSTORE PUSH2 0x136 SWAP6 CALLDATASIZE SWAP6 SWAP4 SWAP5 PUSH1 0x24 SWAP5 SWAP4 DUP6 ADD SWAP3 SWAP2 DUP3 SWAP2 DUP6 ADD SWAP1 DUP5 SWAP1 DUP1 DUP3 DUP5 CALLDATACOPY POP SWAP5 SWAP8 POP PUSH2 0x1C50 SWAP7 POP POP POP POP POP POP POP JUMP JUMPDEST CALLVALUE DUP1 ISZERO PUSH2 0x49F JUMPI PUSH1 0x0 DUP1 REVERT JUMPDEST POP PUSH2 0x136 PUSH1 0x4 CALLDATALOAD PUSH1 0x1 PUSH1 0xA0 PUSH1 0x2 EXP SUB PUSH1 0x24 CALLDATALOAD AND PUSH1 0x44 CALLDATALOAD PUSH2 0x1C88 JUMP JUMPDEST CALLVALUE DUP1 ISZERO PUSH2 0x4C6 JUMPI PUSH1 0x0 DUP1 REVERT JUMPDEST POP PUSH2 0x136 PUSH1 0x4 CALLDATALOAD PUSH2 0x1C8D JUMP JUMPDEST CALLVALUE DUP1 ISZERO PUSH2 0x4DE JUMPI PUSH1 0x0 DUP1 REVERT JUMPDEST POP PUSH2 0x150 PUSH2 0x1DEA JUMP JUMPDEST PUSH1 0x40 DUP1 MLOAD PUSH1 0x20 PUSH1 0x4 DUP1 CALLDATALOAD DUP1 DUP3 ADD CALLDATALOAD DUP4 DUP2 MUL DUP1 DUP7 ADD DUP6 ADD SWAP1 SWAP7 MSTORE DUP1 DUP6 MSTORE PUSH2 0x136 SWAP6 CALLDATASIZE SWAP6 SWAP4 SWAP5 PUSH1 0x24 SWAP5 SWAP4 DUP6 ADD SWAP3 SWAP2 DUP3 SWAP2 DUP6 ADD SWAP1 DUP5 SWAP1 DUP1 DUP3 DUP5 CALLDATACOPY POP SWAP5 SWAP8 POP POP SWAP4 CALLDATALOAD SWAP5 POP PUSH2 0x1DF0 SWAP4 POP POP POP POP JUMP JUMPDEST PUSH1 0x0 DUP1 DUP3 PUSH1 0x2 PUSH2 0x540 DUP3 PUSH2 0x1647 JUMP JUMPDEST PUSH1 0x5 DUP2 GT ISZERO PUSH2 0x54B JUMPI INVALID JUMPDEST EQ DUP1 ISZERO PUSH2 0x5E0 JUMPI POP PUSH1 0x0 DUP2 DUP2 MSTORE PUSH1 0x2 PUSH1 0x20 SWAP1 DUP2 MSTORE PUSH1 0x40 DUP1 DUP4 KECCAK256 SLOAD DUP2 MLOAD PUSH1 0xE0 PUSH1 0x2 EXP PUSH4 0x8DA5CB5B MUL DUP2 MSTORE SWAP2 MLOAD PUSH1 0x1 PUSH1 0xA0 PUSH1 0x2 EXP SUB SWAP1 SWAP2 AND SWAP4 PUSH4 0x8DA5CB5B SWAP4 PUSH1 0x4 DUP1 DUP6 ADD SWAP5 SWAP2 SWAP4 SWAP3 SWAP2 DUP4 SWAP1 SUB ADD SWAP1 DUP3 SWAP1 DUP8 DUP1 EXTCODESIZE ISZERO DUP1 ISZERO PUSH2 0x5A8 JUMPI PUSH1 0x0 DUP1 REVERT JUMPDEST POP GAS CALL ISZERO DUP1 ISZERO PUSH2 0x5BC JUMPI RETURNDATASIZE PUSH1 0x0 DUP1 RETURNDATACOPY RETURNDATASIZE PUSH1 0x0 REVERT JUMPDEST POP POP POP POP PUSH1 0x40 MLOAD RETURNDATASIZE PUSH1 0x20 DUP2 LT ISZERO PUSH2 0x5D2 JUMPI PUSH1 0x0 DUP1 REVERT JUMPDEST POP MLOAD PUSH1 0x1 PUSH1 0xA0 PUSH1 0x2 EXP SUB AND CALLER EQ JUMPDEST ISZERO ISZERO PUSH2 0x5EB JUMPI PUSH1 0x0 DUP1 REVERT JUMPDEST PUSH1 0x0 DUP5 DUP2 MSTORE PUSH1 0x2 PUSH1 0x20 MSTORE PUSH1 0x40 SWAP1 KECCAK256 DUP1 SLOAD PUSH1 0x1 DUP3 ADD SLOAD SWAP2 SWAP5 POP PUSH1 0x1 PUSH1 0xA0 PUSH1 0x2 EXP SUB AND SWAP3 POP PUSH4 0x1E13380 ADD TIMESTAMP LT ISZERO DUP1 PUSH2 0x6AD JUMPI POP PUSH1 0x0 DUP1 SLOAD PUSH1 0x1 SLOAD PUSH1 0x40 DUP1 MLOAD PUSH1 0xE0 PUSH1 0x2 EXP PUSH4 0x2571BE3 MUL DUP2 MSTORE PUSH1 0x4 DUP2 ADD SWAP3 SWAP1 SWAP3 MSTORE MLOAD ADDRESS SWAP4 PUSH1 0x1 PUSH1 0xA0 PUSH1 0x2 EXP SUB SWAP1 SWAP4 AND SWAP3 PUSH4 0x2571BE3 SWAP3 PUSH1 0x24 DUP1 DUP3 ADD SWAP4 PUSH1 0x20 SWAP4 SWAP1 SWAP3 DUP4 SWAP1 SUB SWAP1 SWAP2 ADD SWAP1 DUP3 SWAP1 DUP8 DUP1 EXTCODESIZE ISZERO DUP1 ISZERO PUSH2 0x675 JUMPI PUSH1 0x0 DUP1 REVERT JUMPDEST POP GAS CALL ISZERO DUP1 ISZERO PUSH2 0x689 JUMPI RETURNDATASIZE PUSH1 0x0 DUP1 RETURNDATACOPY RETURNDATASIZE PUSH1 0x0 REVERT JUMPDEST POP POP POP POP PUSH1 0x40 MLOAD RETURNDATASIZE PUSH1 0x20 DUP2 LT ISZERO PUSH2 0x69F JUMPI PUSH1 0x0 DUP1 REVERT JUMPDEST POP MLOAD PUSH1 0x1 PUSH1 0xA0 PUSH1 0x2 EXP SUB AND EQ ISZERO JUMPDEST ISZERO ISZERO PUSH2 0x6B8 JUMPI PUSH1 0x0 DUP1 REVERT JUMPDEST PUSH1 0x0 PUSH1 0x2 DUP5 ADD DUP2 SWAP1 SSTORE PUSH1 0x3 DUP5 ADD SSTORE DUP3 SLOAD PUSH1 0x1 PUSH1 0xA0 PUSH1 0x2 EXP SUB NOT AND DUP4 SSTORE PUSH2 0x6DD DUP5 PUSH2 0x1E02 JUMP JUMPDEST DUP2 PUSH1 0x1 PUSH1 0xA0 PUSH1 0x2 EXP SUB AND PUSH4 0xBBE42771 PUSH2 0x3E8 PUSH1 0x40 MLOAD DUP3 PUSH4 0xFFFFFFFF AND PUSH1 0xE0 PUSH1 0x2 EXP MUL DUP2 MSTORE PUSH1 0x4 ADD DUP1 DUP3 DUP2 MSTORE PUSH1 0x20 ADD SWAP2 POP POP PUSH1 0x0 PUSH1 0x40 MLOAD DUP1 DUP4 SUB DUP2 PUSH1 0x0 DUP8 DUP1 EXTCODESIZE ISZERO DUP1 ISZERO PUSH2 0x728 JUMPI PUSH1 0x0 DUP1 REVERT JUMPDEST POP GAS CALL ISZERO DUP1 ISZERO PUSH2 0x73C JUMPI RETURNDATASIZE PUSH1 0x0 DUP1 RETURNDATACOPY RETURNDATASIZE PUSH1 0x0 REVERT JUMPDEST POP POP POP PUSH1 0x2 DUP5 ADD SLOAD PUSH1 0x40 DUP1 MLOAD SWAP2 DUP3 MSTORE MLOAD DUP7 SWAP3 POP PUSH32 0x292B79B9246FA2C8E77D3FE195B251F9CB839D7D038E667C069EE7708C631E16 SWAP2 DUP2 SWAP1 SUB PUSH1 0x20 ADD SWAP1 LOG2 POP POP POP POP JUMP JUMPDEST PUSH1 0x4 SLOAD PUSH17 0x100000000000000000000000000000000 PUSH3 0x49D400 DUP2 DUP5 DIV MUL DIV ADD SWAP2 SWAP1 POP JUMP JUMPDEST PUSH1 0x0 DUP1 DUP3 PUSH1 0x40 MLOAD DUP1 DUP3 DUP1 MLOAD SWAP1 PUSH1 0x20 ADD SWAP1 DUP1 DUP4 DUP4 JUMPDEST PUSH1 0x20 DUP4 LT PUSH2 0x7D6 JUMPI DUP1 MLOAD DUP3 MSTORE PUSH1 0x1F NOT SWAP1 SWAP3 ADD SWAP2 PUSH1 0x20 SWAP2 DUP3 ADD SWAP2 ADD PUSH2 0x7B7 JUMP JUMPDEST MLOAD DUP2 MLOAD PUSH1 0x20 SWAP4 SWAP1 SWAP4 SUB PUSH2 0x100 EXP PUSH1 0x0 NOT ADD DUP1 NOT SWAP1 SWAP2 AND SWAP3 AND SWAP2 SWAP1 SWAP2 OR SWAP1 MSTORE PUSH1 0x40 MLOAD SWAP3 ADD DUP3 SWAP1 SUB SWAP1 SWAP2 KECCAK256 SWAP3 POP PUSH1 0x2 SWAP2 POP DUP2 SWAP1 POP PUSH2 0x811 DUP4 PUSH2 0x1647 JUMP JUMPDEST PUSH1 0x5 DUP2 GT ISZERO PUSH2 0x81C JUMPI INVALID JUMPDEST EQ PUSH2 0x826 JUMPI PUSH1 0x0 DUP1 REVERT JUMPDEST PUSH1 0x6 PUSH2 0x831 DUP7 PUSH2 0x2039 JUMP JUMPDEST GT ISZERO PUSH2 0x83C JUMPI PUSH1 0x0 DUP1 REVERT JUMPDEST DUP5 PUSH1 0x40 MLOAD DUP1 DUP3 DUP1 MLOAD SWAP1 PUSH1 0x20 ADD SWAP1 DUP1 DUP4 DUP4 JUMPDEST PUSH1 0x20 DUP4 LT PUSH2 0x86C JUMPI DUP1 MLOAD DUP3 MSTORE PUSH1 0x1F NOT SWAP1 SWAP3 ADD SWAP2 PUSH1 0x20 SWAP2 DUP3 ADD SWAP2 ADD PUSH2 0x84D JUMP JUMPDEST MLOAD DUP2 MLOAD PUSH1 0x20 SWAP4 DUP5 SUB PUSH2 0x100 EXP PUSH1 0x0 NOT ADD DUP1 NOT SWAP1 SWAP3 AND SWAP2 AND OR SWAP1 MSTORE PUSH1 0x40 DUP1 MLOAD SWAP3 SWAP1 SWAP5 ADD DUP3 SWAP1 SUB SWAP1 SWAP2 KECCAK256 PUSH1 0x0 DUP2 DUP2 MSTORE PUSH1 0x2 SWAP1 SWAP3 MSTORE SWAP3 SWAP1 KECCAK256 SWAP2 SWAP8 POP SWAP1 SWAP6 POP PUSH2 0x8B6 SWAP3 POP DUP7 SWAP2 POP PUSH2 0x1E02 SWAP1 POP JUMP JUMPDEST DUP3 SLOAD PUSH1 0x1 PUSH1 0xA0 PUSH1 0x2 EXP SUB AND ISZERO PUSH2 0xA61 JUMPI PUSH2 0x8DB DUP4 PUSH1 0x2 ADD SLOAD PUSH7 0x2386F26FC10000 PUSH2 0x20E3 JUMP JUMPDEST PUSH1 0x2 DUP5 DUP2 ADD DUP3 SWAP1 SSTORE DUP5 SLOAD PUSH1 0x40 DUP1 MLOAD PUSH32 0xB0C8097200000000000000000000000000000000000000000000000000000000 DUP2 MSTORE SWAP3 SWAP1 SWAP4 DIV PUSH1 0x4 DUP4 ADD MSTORE PUSH1 0x0 PUSH1 0x24 DUP4 ADD DUP2 SWAP1 MSTORE SWAP3 MLOAD PUSH1 0x1 PUSH1 0xA0 PUSH1 0x2 EXP SUB SWAP1 SWAP2 AND SWAP3 PUSH4 0xB0C80972 SWAP3 PUSH1 0x44 DUP1 DUP3 ADD SWAP4 SWAP2 DUP3 SWAP1 SUB ADD DUP2 DUP4 DUP8 DUP1 EXTCODESIZE ISZERO DUP1 ISZERO PUSH2 0x94E JUMPI PUSH1 0x0 DUP1 REVERT JUMPDEST POP GAS CALL ISZERO DUP1 ISZERO PUSH2 0x962 JUMPI RETURNDATASIZE PUSH1 0x0 DUP1 RETURNDATACOPY RETURNDATASIZE PUSH1 0x0 REVERT JUMPDEST POP POP DUP5 SLOAD PUSH1 0x40 DUP1 MLOAD PUSH32 0x13AF403500000000000000000000000000000000000000000000000000000000 DUP2 MSTORE CALLER PUSH1 0x4 DUP3 ADD MSTORE SWAP1 MLOAD PUSH1 0x1 PUSH1 0xA0 PUSH1 0x2 EXP SUB SWAP1 SWAP3 AND SWAP4 POP PUSH4 0x13AF4035 SWAP3 POP PUSH1 0x24 DUP1 DUP3 ADD SWAP3 PUSH1 0x0 SWAP3 SWAP1 SWAP2 SWAP1 DUP3 SWAP1 SUB ADD DUP2 DUP4 DUP8 DUP1 EXTCODESIZE ISZERO DUP1 ISZERO PUSH2 0x9CA JUMPI PUSH1 0x0 DUP1 REVERT JUMPDEST POP GAS CALL ISZERO DUP1 ISZERO PUSH2 0x9DE JUMPI RETURNDATASIZE PUSH1 0x0 DUP1 RETURNDATACOPY RETURNDATASIZE PUSH1 0x0 REVERT JUMPDEST POP POP DUP5 SLOAD PUSH1 0x40 DUP1 MLOAD PUSH32 0xBBE4277100000000000000000000000000000000000000000000000000000000 DUP2 MSTORE PUSH2 0x3E8 PUSH1 0x4 DUP3 ADD MSTORE SWAP1 MLOAD PUSH1 0x1 PUSH1 0xA0 PUSH1 0x2 EXP SUB SWAP1 SWAP3 AND SWAP4 POP PUSH4 0xBBE42771 SWAP3 POP PUSH1 0x24 DUP1 DUP3 ADD SWAP3 PUSH1 0x0 SWAP3 SWAP1 SWAP2 SWAP1 DUP3 SWAP1 SUB ADD DUP2 DUP4 DUP8 DUP1 EXTCODESIZE ISZERO DUP1 ISZERO PUSH2 0xA48 JUMPI PUSH1 0x0 DUP1 REVERT JUMPDEST POP GAS CALL ISZERO DUP1 ISZERO PUSH2 0xA5C JUMPI RETURNDATASIZE PUSH1 0x0 DUP1 RETURNDATACOPY RETURNDATASIZE PUSH1 0x0 REVERT JUMPDEST POP POP POP POP JUMPDEST DUP5 PUSH1 0x40 MLOAD DUP1 DUP3 DUP1 MLOAD SWAP1 PUSH1 0x20 ADD SWAP1 DUP1 DUP4 DUP4 JUMPDEST PUSH1 0x20 DUP4 LT PUSH2 0xA91 JUMPI DUP1 MLOAD DUP3 MSTORE PUSH1 0x1F NOT SWAP1 SWAP3 ADD SWAP2 PUSH1 0x20 SWAP2 DUP3 ADD SWAP2 ADD PUSH2 0xA72 JUMP JUMPDEST MLOAD DUP2 MLOAD PUSH1 0x20 SWAP4 DUP5 SUB PUSH2 0x100 EXP PUSH1 0x0 NOT ADD DUP1 NOT SWAP1 SWAP3 AND SWAP2 AND OR SWAP1 MSTORE PUSH1 0x40 DUP1 MLOAD SWAP3 SWAP1 SWAP5 ADD DUP3 SWAP1 SUB DUP3 KECCAK256 PUSH1 0x2 DUP11 ADD SLOAD PUSH1 0x1 DUP12 ADD SLOAD SWAP1 DUP5 MSTORE SWAP2 DUP4 ADD SWAP2 SWAP1 SWAP2 MSTORE DUP4 MLOAD SWAP1 SWAP6 POP DUP10 SWAP5 POP PUSH32 0x1F9C649FE47E58BB60F4E52F0D90E4C47A526C9F90C5113DF842C025970B66AD SWAP4 SWAP2 DUP2 SWAP1 SUB SWAP1 SWAP2 ADD SWAP2 POP LOG3 POP POP PUSH1 0x0 PUSH1 0x2 DUP3 ADD DUP2 SWAP1 SSTORE PUSH1 0x3 DUP3 ADD SSTORE DUP1 SLOAD PUSH1 0x1 PUSH1 0xA0 PUSH1 0x2 EXP SUB NOT AND SWAP1 SSTORE POP POP JUMP JUMPDEST PUSH1 0x40 DUP1 MLOAD SWAP5 DUP6 MSTORE PUSH1 0x1 PUSH1 0xA0 PUSH1 0x2 EXP SUB SWAP4 SWAP1 SWAP4 AND PUSH13 0x1000000000000000000000000 MUL PUSH1 0x20 DUP6 ADD MSTORE PUSH1 0x34 DUP5 ADD SWAP2 SWAP1 SWAP2 MSTORE PUSH1 0x54 DUP4 ADD MSTORE MLOAD PUSH1 0x74 SWAP2 DUP2 SWAP1 SUB SWAP2 SWAP1 SWAP2 ADD SWAP1 KECCAK256 SWAP1 JUMP JUMPDEST PUSH1 0x1 PUSH1 0xA0 PUSH1 0x2 EXP SUB DUP1 DUP4 AND PUSH1 0x0 SWAP1 DUP2 MSTORE PUSH1 0x3 PUSH1 0x20 SWAP1 DUP2 MSTORE PUSH1 0x40 DUP1 DUP4 KECCAK256 DUP6 DUP5 MSTORE SWAP1 SWAP2 MSTORE SWAP1 KECCAK256 SLOAD AND DUP1 ISZERO DUP1 ISZERO SWAP1 PUSH2 0xC14 JUMPI POP PUSH3 0x69780 PUSH4 0xFFFFFFFF AND DUP2 PUSH1 0x1 PUSH1 0xA0 PUSH1 0x2 EXP SUB AND PUSH4 0x5B34410 PUSH1 0x40 MLOAD DUP2 PUSH4 0xFFFFFFFF AND PUSH1 0xE0 PUSH1 0x2 EXP MUL DUP2 MSTORE PUSH1 0x4 ADD PUSH1 0x20 PUSH1 0x40 MLOAD DUP1 DUP4 SUB DUP2 PUSH1 0x0 DUP8 DUP1 EXTCODESIZE ISZERO DUP1 ISZERO PUSH2 0xBDE JUMPI PUSH1 0x0 DUP1 REVERT JUMPDEST POP GAS CALL ISZERO DUP1 ISZERO PUSH2 0xBF2 JUMPI RETURNDATASIZE PUSH1 0x0 DUP1 RETURNDATACOPY RETURNDATASIZE PUSH1 0x0 REVERT JUMPDEST POP POP POP POP PUSH1 0x40 MLOAD RETURNDATASIZE PUSH1 0x20 DUP2 LT ISZERO PUSH2 0xC08 JUMPI PUSH1 0x0 DUP1 REVERT JUMPDEST POP MLOAD ADD PUSH3 0x127500 ADD TIMESTAMP LT ISZERO JUMPDEST ISZERO ISZERO PUSH2 0xC1F JUMPI PUSH1 0x0 DUP1 REVERT JUMPDEST PUSH1 0x40 DUP1 MLOAD PUSH32 0x13AF403500000000000000000000000000000000000000000000000000000000 DUP2 MSTORE CALLER PUSH1 0x4 DUP3 ADD MSTORE SWAP1 MLOAD PUSH1 0x1 PUSH1 0xA0 PUSH1 0x2 EXP SUB DUP4 AND SWAP2 PUSH4 0x13AF4035 SWAP2 PUSH1 0x24 DUP1 DUP4 ADD SWAP3 PUSH1 0x0 SWAP3 SWAP2 SWAP1 DUP3 SWAP1 SUB ADD DUP2 DUP4 DUP8 DUP1 EXTCODESIZE ISZERO DUP1 ISZERO PUSH2 0xC7F JUMPI PUSH1 0x0 DUP1 REVERT JUMPDEST POP GAS CALL ISZERO DUP1 ISZERO PUSH2 0xC93 JUMPI RETURNDATASIZE PUSH1 0x0 DUP1 RETURNDATACOPY RETURNDATASIZE PUSH1 0x0 REVERT JUMPDEST POP POP POP POP DUP1 PUSH1 0x1 PUSH1 0xA0 PUSH1 0x2 EXP SUB AND PUSH4 0xBBE42771 PUSH1 0x5 PUSH1 0x40 MLOAD DUP3 PUSH4 0xFFFFFFFF AND PUSH1 0xE0 PUSH1 0x2 EXP MUL DUP2 MSTORE PUSH1 0x4 ADD DUP1 DUP3 DUP2 MSTORE PUSH1 0x20 ADD SWAP2 POP POP PUSH1 0x0 PUSH1 0x40 MLOAD DUP1 DUP4 SUB DUP2 PUSH1 0x0 DUP8 DUP1 EXTCODESIZE ISZERO DUP1 ISZERO PUSH2 0xCE1 JUMPI PUSH1 0x0 DUP1 REVERT JUMPDEST POP GAS CALL ISZERO DUP1 ISZERO PUSH2 0xCF5 JUMPI RETURNDATASIZE PUSH1 0x0 DUP1 RETURNDATACOPY RETURNDATASIZE PUSH1 0x0 REVERT JUMPDEST POP POP POP POP PUSH1 0x1 PUSH1 0xA0 PUSH1 0x2 EXP SUB DUP4 AND PUSH1 0x0 DUP2 DUP2 MSTORE PUSH1 0x3 PUSH1 0x20 SWAP1 DUP2 MSTORE PUSH1 0x40 DUP1 DUP4 KECCAK256 DUP7 DUP5 MSTORE DUP3 MSTORE DUP1 DUP4 KECCAK256 DUP1 SLOAD PUSH1 0x1 PUSH1 0xA0 PUSH1 0x2 EXP SUB NOT AND SWAP1 SSTORE DUP1 MLOAD SWAP3 DUP4 MSTORE PUSH1 0x5 SWAP2 DUP4 ADD SWAP2 SWAP1 SWAP2 MSTORE DUP1 MLOAD DUP6 SWAP3 PUSH1 0x0 DUP1 MLOAD PUSH1 0x20 PUSH2 0x28FB DUP4 CODECOPY DUP2 MLOAD SWAP2 MSTORE SWAP3 SWAP1 DUP3 SWAP1 SUB ADD SWAP1 LOG3 POP POP POP JUMP JUMPDEST PUSH1 0x0 DUP2 DUP2 MSTORE PUSH1 0x2 PUSH1 0x20 MSTORE PUSH1 0x40 DUP2 KECCAK256 DUP2 SWAP1 DUP2 SWAP1 DUP2 SWAP1 DUP2 SWAP1 PUSH2 0xD77 DUP8 PUSH2 0x1647 JUMP JUMPDEST DUP2 SLOAD PUSH1 0x1 DUP4 ADD SLOAD PUSH1 0x2 DUP5 ADD SLOAD PUSH1 0x3 SWAP1 SWAP5 ADD SLOAD SWAP3 SWAP11 PUSH1 0x1 PUSH1 0xA0 PUSH1 0x2 EXP SUB SWAP1 SWAP3 AND SWAP10 POP SWAP8 POP SWAP2 SWAP6 POP SWAP4 POP SWAP2 POP POP JUMP JUMPDEST PUSH1 0x0 SLOAD PUSH1 0x1 PUSH1 0xA0 PUSH1 0x2 EXP SUB AND DUP2 JUMP JUMPDEST PUSH1 0x0 DUP1 PUSH1 0x0 DUP1 PUSH1 0x0 DUP1 PUSH2 0xDC8 DUP10 CALLER DUP11 DUP11 PUSH2 0xB22 JUMP JUMPDEST CALLER PUSH1 0x0 SWAP1 DUP2 MSTORE PUSH1 0x3 PUSH1 0x20 SWAP1 DUP2 MSTORE PUSH1 0x40 DUP1 DUP4 KECCAK256 DUP5 DUP5 MSTORE SWAP1 SWAP2 MSTORE SWAP1 KECCAK256 SLOAD SWAP1 SWAP7 POP PUSH1 0x1 PUSH1 0xA0 PUSH1 0x2 EXP SUB AND SWAP5 POP DUP5 ISZERO ISZERO PUSH2 0xDFD JUMPI PUSH1 0x0 DUP1 REVERT JUMPDEST CALLER PUSH1 0x0 SWAP1 DUP2 MSTORE PUSH1 0x3 PUSH1 0x20 SWAP1 DUP2 MSTORE PUSH1 0x40 DUP1 DUP4 KECCAK256 DUP10 DUP5 MSTORE DUP3 MSTORE DUP1 DUP4 KECCAK256 DUP1 SLOAD PUSH1 0x1 PUSH1 0xA0 PUSH1 0x2 EXP SUB NOT AND SWAP1 SSTORE DUP12 DUP4 MSTORE PUSH1 0x2 DUP3 MSTORE DUP1 DUP4 KECCAK256 DUP2 MLOAD PUSH32 0x3FA4F24500000000000000000000000000000000000000000000000000000000 DUP2 MSTORE SWAP2 MLOAD SWAP1 SWAP8 POP PUSH2 0xEBF SWAP4 DUP13 SWAP4 PUSH1 0x1 PUSH1 0xA0 PUSH1 0x2 EXP SUB DUP12 AND SWAP4 PUSH4 0x3FA4F245 SWAP4 PUSH1 0x4 DUP1 DUP4 ADD SWAP5 SWAP2 SWAP3 DUP4 SWAP1 SUB ADD SWAP1 DUP3 SWAP1 DUP8 DUP1 EXTCODESIZE ISZERO DUP1 ISZERO PUSH2 0xE8E JUMPI PUSH1 0x0 DUP1 REVERT JUMPDEST POP GAS CALL ISZERO DUP1 ISZERO PUSH2 0xEA2 JUMPI RETURNDATASIZE PUSH1 0x0 DUP1 RETURNDATACOPY RETURNDATASIZE PUSH1 0x0 REVERT JUMPDEST POP POP POP POP PUSH1 0x40 MLOAD RETURNDATASIZE PUSH1 0x20 DUP2 LT ISZERO PUSH2 0xEB8 JUMPI PUSH1 0x0 DUP1 REVERT JUMPDEST POP MLOAD PUSH2 0x20FB JUMP JUMPDEST PUSH1 0x40 DUP1 MLOAD PUSH32 0xB0C8097200000000000000000000000000000000000000000000000000000000 DUP2 MSTORE PUSH1 0x4 DUP2 ADD DUP4 SWAP1 MSTORE PUSH1 0x1 PUSH1 0x24 DUP3 ADD MSTORE SWAP1 MLOAD SWAP2 SWAP5 POP PUSH1 0x1 PUSH1 0xA0 PUSH1 0x2 EXP SUB DUP8 AND SWAP2 PUSH4 0xB0C80972 SWAP2 PUSH1 0x44 DUP1 DUP3 ADD SWAP3 PUSH1 0x0 SWAP3 SWAP1 SWAP2 SWAP1 DUP3 SWAP1 SUB ADD DUP2 DUP4 DUP8 DUP1 EXTCODESIZE ISZERO DUP1 ISZERO PUSH2 0xF2B JUMPI PUSH1 0x0 DUP1 REVERT JUMPDEST POP GAS CALL ISZERO DUP1 ISZERO PUSH2 0xF3F JUMPI RETURNDATASIZE PUSH1 0x0 DUP1 RETURNDATACOPY RETURNDATASIZE PUSH1 0x0 REVERT JUMPDEST POP POP POP POP PUSH2 0xF4C DUP10 PUSH2 0x1647 JUMP JUMPDEST SWAP2 POP PUSH1 0x2 DUP3 PUSH1 0x5 DUP2 GT ISZERO PUSH2 0xF5C JUMPI INVALID JUMPDEST EQ ISZERO PUSH2 0xFF6 JUMPI DUP5 PUSH1 0x1 PUSH1 0xA0 PUSH1 0x2 EXP SUB AND PUSH4 0xBBE42771 PUSH1 0x5 PUSH1 0x40 MLOAD DUP3 PUSH4 0xFFFFFFFF AND PUSH1 0xE0 PUSH1 0x2 EXP MUL DUP2 MSTORE PUSH1 0x4 ADD DUP1 DUP3 DUP2 MSTORE PUSH1 0x20 ADD SWAP2 POP POP PUSH1 0x0 PUSH1 0x40 MLOAD DUP1 DUP4 SUB DUP2 PUSH1 0x0 DUP8 DUP1 EXTCODESIZE ISZERO DUP1 ISZERO PUSH2 0xFAC JUMPI PUSH1 0x0 DUP1 REVERT JUMPDEST POP GAS CALL ISZERO DUP1 ISZERO PUSH2 0xFC0 JUMPI RETURNDATASIZE PUSH1 0x0 DUP1 RETURNDATACOPY RETURNDATASIZE PUSH1 0x0 REVERT JUMPDEST POP POP PUSH1 0x40 DUP1 MLOAD DUP7 DUP2 MSTORE PUSH1 0x1 PUSH1 0x20 DUP3 ADD MSTORE DUP2 MLOAD CALLER SWAP5 POP DUP14 SWAP4 POP PUSH1 0x0 DUP1 MLOAD PUSH1 0x20 PUSH2 0x28FB DUP4 CODECOPY DUP2 MLOAD SWAP2 MSTORE SWAP3 SWAP2 DUP2 SWAP1 SUB SWAP1 SWAP2 ADD SWAP1 LOG3 PUSH2 0x137E JUMP JUMPDEST PUSH1 0x4 DUP3 PUSH1 0x5 DUP2 GT ISZERO PUSH2 0x1004 JUMPI INVALID JUMPDEST EQ PUSH2 0x100E JUMPI PUSH1 0x0 DUP1 REVERT JUMPDEST PUSH7 0x2386F26FC10000 DUP4 LT DUP1 PUSH2 0x109A JUMPI POP PUSH3 0x2A300 PUSH4 0xFFFFFFFF AND DUP5 PUSH1 0x1 ADD SLOAD SUB DUP6 PUSH1 0x1 PUSH1 0xA0 PUSH1 0x2 EXP SUB AND PUSH4 0x5B34410 PUSH1 0x40 MLOAD DUP2 PUSH4 0xFFFFFFFF AND PUSH1 0xE0 PUSH1 0x2 EXP MUL DUP2 MSTORE PUSH1 0x4 ADD PUSH1 0x20 PUSH1 0x40 MLOAD DUP1 DUP4 SUB DUP2 PUSH1 0x0 DUP8 DUP1 EXTCODESIZE ISZERO DUP1 ISZERO PUSH2 0x106C JUMPI PUSH1 0x0 DUP1 REVERT JUMPDEST POP GAS CALL ISZERO DUP1 ISZERO PUSH2 0x1080 JUMPI RETURNDATASIZE PUSH1 0x0 DUP1 RETURNDATACOPY RETURNDATASIZE PUSH1 0x0 REVERT JUMPDEST POP POP POP POP PUSH1 0x40 MLOAD RETURNDATASIZE PUSH1 0x20 DUP2 LT ISZERO PUSH2 0x1096 JUMPI PUSH1 0x0 DUP1 REVERT JUMPDEST POP MLOAD GT JUMPDEST ISZERO PUSH2 0x1134 JUMPI DUP5 PUSH1 0x1 PUSH1 0xA0 PUSH1 0x2 EXP SUB AND PUSH4 0xBBE42771 PUSH2 0x3E3 PUSH1 0x40 MLOAD DUP3 PUSH4 0xFFFFFFFF AND PUSH1 0xE0 PUSH1 0x2 EXP MUL DUP2 MSTORE PUSH1 0x4 ADD DUP1 DUP3 DUP2 MSTORE PUSH1 0x20 ADD SWAP2 POP POP PUSH1 0x0 PUSH1 0x40 MLOAD DUP1 DUP4 SUB DUP2 PUSH1 0x0 DUP8 DUP1 EXTCODESIZE ISZERO DUP1 ISZERO PUSH2 0x10EA JUMPI PUSH1 0x0 DUP1 REVERT JUMPDEST POP GAS CALL ISZERO DUP1 ISZERO PUSH2 0x10FE JUMPI RETURNDATASIZE PUSH1 0x0 DUP1 RETURNDATACOPY RETURNDATASIZE PUSH1 0x0 REVERT JUMPDEST POP POP PUSH1 0x40 DUP1 MLOAD DUP7 DUP2 MSTORE PUSH1 0x0 PUSH1 0x20 DUP3 ADD MSTORE DUP2 MLOAD CALLER SWAP5 POP DUP14 SWAP4 POP PUSH1 0x0 DUP1 MLOAD PUSH1 0x20 PUSH2 0x28FB DUP4 CODECOPY DUP2 MLOAD SWAP2 MSTORE SWAP3 SWAP2 DUP2 SWAP1 SUB SWAP1 SWAP2 ADD SWAP1 LOG3 PUSH2 0x137E JUMP JUMPDEST DUP4 PUSH1 0x3 ADD SLOAD DUP4 GT ISZERO PUSH2 0x122E JUMPI DUP4 SLOAD PUSH1 0x1 PUSH1 0xA0 PUSH1 0x2 EXP SUB AND ISZERO PUSH2 0x11D1 JUMPI POP DUP3 SLOAD PUSH1 0x40 DUP1 MLOAD PUSH32 0xBBE4277100000000000000000000000000000000000000000000000000000000 DUP2 MSTORE PUSH2 0x3E3 PUSH1 0x4 DUP3 ADD MSTORE SWAP1 MLOAD PUSH1 0x1 PUSH1 0xA0 PUSH1 0x2 EXP SUB SWAP1 SWAP3 AND SWAP2 DUP3 SWAP2 PUSH4 0xBBE42771 SWAP2 PUSH1 0x24 DUP1 DUP4 ADD SWAP3 PUSH1 0x0 SWAP3 SWAP2 SWAP1 DUP3 SWAP1 SUB ADD DUP2 DUP4 DUP8 DUP1 EXTCODESIZE ISZERO DUP1 ISZERO PUSH2 0x11B8 JUMPI PUSH1 0x0 DUP1 REVERT JUMPDEST POP GAS CALL ISZERO DUP1 ISZERO PUSH2 0x11CC JUMPI RETURNDATASIZE PUSH1 0x0 DUP1 RETURNDATACOPY RETURNDATASIZE PUSH1 0x0 REVERT JUMPDEST POP POP POP POP JUMPDEST PUSH1 0x3 DUP5 ADD DUP1 SLOAD PUSH1 0x2 DUP1 DUP8 ADD SWAP2 SWAP1 SWAP2 SSTORE SWAP1 DUP5 SWAP1 SSTORE DUP5 SLOAD PUSH1 0x1 PUSH1 0xA0 PUSH1 0x2 EXP SUB NOT AND PUSH1 0x1 PUSH1 0xA0 PUSH1 0x2 EXP SUB DUP8 AND OR DUP6 SSTORE PUSH1 0x40 DUP1 MLOAD DUP6 DUP2 MSTORE PUSH1 0x20 DUP2 ADD SWAP3 SWAP1 SWAP3 MSTORE DUP1 MLOAD CALLER SWAP3 DUP13 SWAP3 PUSH1 0x0 DUP1 MLOAD PUSH1 0x20 PUSH2 0x28FB DUP4 CODECOPY DUP2 MLOAD SWAP2 MSTORE SWAP3 SWAP2 DUP3 SWAP1 SUB ADD SWAP1 LOG3 PUSH2 0x137E JUMP JUMPDEST DUP4 PUSH1 0x2 ADD SLOAD DUP4 GT ISZERO PUSH2 0x12ED JUMPI PUSH1 0x2 DUP5 ADD DUP4 SWAP1 SSTORE PUSH1 0x40 DUP1 MLOAD PUSH32 0xBBE4277100000000000000000000000000000000000000000000000000000000 DUP2 MSTORE PUSH2 0x3E3 PUSH1 0x4 DUP3 ADD MSTORE SWAP1 MLOAD PUSH1 0x1 PUSH1 0xA0 PUSH1 0x2 EXP SUB DUP8 AND SWAP2 PUSH4 0xBBE42771 SWAP2 PUSH1 0x24 DUP1 DUP4 ADD SWAP3 PUSH1 0x0 SWAP3 SWAP2 SWAP1 DUP3 SWAP1 SUB ADD DUP2 DUP4 DUP8 DUP1 EXTCODESIZE ISZERO DUP1 ISZERO PUSH2 0x12A3 JUMPI PUSH1 0x0 DUP1 REVERT JUMPDEST POP GAS CALL ISZERO DUP1 ISZERO PUSH2 0x12B7 JUMPI RETURNDATASIZE PUSH1 0x0 DUP1 RETURNDATACOPY RETURNDATASIZE PUSH1 0x0 REVERT JUMPDEST POP POP PUSH1 0x40 DUP1 MLOAD DUP7 DUP2 MSTORE PUSH1 0x3 PUSH1 0x20 DUP3 ADD MSTORE DUP2 MLOAD CALLER SWAP5 POP DUP14 SWAP4 POP PUSH1 0x0 DUP1 MLOAD PUSH1 0x20 PUSH2 0x28FB DUP4 CODECOPY DUP2 MLOAD SWAP2 MSTORE SWAP3 SWAP2 DUP2 SWAP1 SUB SWAP1 SWAP2 ADD SWAP1 LOG3 PUSH2 0x137E JUMP JUMPDEST DUP5 PUSH1 0x1 PUSH1 0xA0 PUSH1 0x2 EXP SUB AND PUSH4 0xBBE42771 PUSH2 0x3E3 PUSH1 0x40 MLOAD DUP3 PUSH4 0xFFFFFFFF AND PUSH1 0xE0 PUSH1 0x2 EXP MUL DUP2 MSTORE PUSH1 0x4 ADD DUP1 DUP3 DUP2 MSTORE PUSH1 0x20 ADD SWAP2 POP POP PUSH1 0x0 PUSH1 0x40 MLOAD DUP1 DUP4 SUB DUP2 PUSH1 0x0 DUP8 DUP1 EXTCODESIZE ISZERO DUP1 ISZERO PUSH2 0x1338 JUMPI PUSH1 0x0 DUP1 REVERT JUMPDEST POP GAS CALL ISZERO DUP1 ISZERO PUSH2 0x134C JUMPI RETURNDATASIZE PUSH1 0x0 DUP1 RETURNDATACOPY RETURNDATASIZE PUSH1 0x0 REVERT JUMPDEST POP POP PUSH1 0x40 DUP1 MLOAD DUP7 DUP2 MSTORE PUSH1 0x4 PUSH1 0x20 DUP3 ADD MSTORE DUP2 MLOAD CALLER SWAP5 POP DUP14 SWAP4 POP PUSH1 0x0 DUP1 MLOAD PUSH1 0x20 PUSH2 0x28FB DUP4 CODECOPY DUP2 MLOAD SWAP2 MSTORE SWAP3 SWAP2 DUP2 SWAP1 SUB SWAP1 SWAP2 ADD SWAP1 LOG3 JUMPDEST POP POP POP POP POP POP POP POP POP JUMP JUMPDEST PUSH1 0x0 DUP1 DUP3 PUSH1 0x2 PUSH2 0x1398 DUP3 PUSH2 0x1647 JUMP JUMPDEST PUSH1 0x5 DUP2 GT ISZERO PUSH2 0x13A3 JUMPI INVALID JUMPDEST EQ DUP1 ISZERO PUSH2 0x1438 JUMPI POP PUSH1 0x0 DUP2 DUP2 MSTORE PUSH1 0x2 PUSH1 0x20 SWAP1 DUP2 MSTORE PUSH1 0x40 DUP1 DUP4 KECCAK256 SLOAD DUP2 MLOAD PUSH1 0xE0 PUSH1 0x2 EXP PUSH4 0x8DA5CB5B MUL DUP2 MSTORE SWAP2 MLOAD PUSH1 0x1 PUSH1 0xA0 PUSH1 0x2 EXP SUB SWAP1 SWAP2 AND SWAP4 PUSH4 0x8DA5CB5B SWAP4 PUSH1 0x4 DUP1 DUP6 ADD SWAP5 SWAP2 SWAP4 SWAP3 SWAP2 DUP4 SWAP1 SUB ADD SWAP1 DUP3 SWAP1 DUP8 DUP1 EXTCODESIZE ISZERO DUP1 ISZERO PUSH2 0x1400 JUMPI PUSH1 0x0 DUP1 REVERT JUMPDEST POP GAS CALL ISZERO DUP1 ISZERO PUSH2 0x1414 JUMPI RETURNDATASIZE PUSH1 0x0 DUP1 RETURNDATACOPY RETURNDATASIZE PUSH1 0x0 REVERT JUMPDEST POP POP POP POP PUSH1 0x40 MLOAD RETURNDATASIZE PUSH1 0x20 DUP2 LT ISZERO PUSH2 0x142A JUMPI PUSH1 0x0 DUP1 REVERT JUMPDEST POP MLOAD PUSH1 0x1 PUSH1 0xA0 PUSH1 0x2 EXP SUB AND CALLER EQ JUMPDEST ISZERO ISZERO PUSH2 0x1443 JUMPI PUSH1 0x0 DUP1 REVERT JUMPDEST PUSH1 0x0 DUP1 SLOAD PUSH1 0x1 SLOAD PUSH1 0x40 DUP1 MLOAD PUSH1 0xE0 PUSH1 0x2 EXP PUSH4 0x2571BE3 MUL DUP2 MSTORE PUSH1 0x4 DUP2 ADD SWAP3 SWAP1 SWAP3 MSTORE MLOAD PUSH1 0x1 PUSH1 0xA0 PUSH1 0x2 EXP SUB SWAP1 SWAP3 AND SWAP3 PUSH4 0x2571BE3 SWAP3 PUSH1 0x24 DUP1 DUP5 ADD SWAP4 PUSH1 0x20 SWAP4 SWAP1 DUP4 SWAP1 SUB SWAP1 SWAP2 ADD SWAP1 DUP3 SWAP1 DUP8 DUP1 EXTCODESIZE ISZERO DUP1 ISZERO PUSH2 0x1498 JUMPI PUSH1 0x0 DUP1 REVERT JUMPDEST POP GAS CALL ISZERO DUP1 ISZERO PUSH2 0x14AC JUMPI RETURNDATASIZE PUSH1 0x0 DUP1 RETURNDATACOPY RETURNDATASIZE PUSH1 0x0 REVERT JUMPDEST POP POP POP POP PUSH1 0x40 MLOAD RETURNDATASIZE PUSH1 0x20 DUP2 LT ISZERO PUSH2 0x14C2 JUMPI PUSH1 0x0 DUP1 REVERT JUMPDEST POP MLOAD SWAP3 POP PUSH1 0x1 PUSH1 0xA0 PUSH1 0x2 EXP SUB DUP4 AND ADDRESS EQ ISZERO PUSH2 0x14DC JUMPI PUSH1 0x0 DUP1 REVERT JUMPDEST PUSH1 0x0 DUP5 DUP2 MSTORE PUSH1 0x2 PUSH1 0x20 MSTORE PUSH1 0x40 DUP1 DUP3 KECCAK256 DUP1 SLOAD DUP3 MLOAD PUSH32 0xFAAB9D3900000000000000000000000000000000000000000000000000000000 DUP2 MSTORE PUSH1 0x1 PUSH1 0xA0 PUSH1 0x2 EXP SUB DUP9 DUP2 AND PUSH1 0x4 DUP4 ADD MSTORE SWAP4 MLOAD SWAP3 SWAP7 POP SWAP3 AND SWAP3 PUSH4 0xFAAB9D39 SWAP3 PUSH1 0x24 DUP1 DUP3 ADD SWAP4 SWAP2 DUP3 SWAP1 SUB ADD DUP2 DUP4 DUP8 DUP1 EXTCODESIZE ISZERO DUP1 ISZERO PUSH2 0x154C JUMPI PUSH1 0x0 DUP1 REVERT JUMPDEST POP GAS CALL ISZERO DUP1 ISZERO PUSH2 0x1560 JUMPI RETURNDATASIZE PUSH1 0x0 DUP1 RETURNDATACOPY RETURNDATASIZE PUSH1 0x0 REVERT JUMPDEST POP POP DUP4 SLOAD PUSH1 0x1 DUP6 ADD SLOAD PUSH1 0x40 DUP1 MLOAD PUSH32 0xEA9E107A00000000000000000000000000000000000000000000000000000000 DUP2 MSTORE PUSH1 0x4 DUP2 ADD DUP11 SWAP1 MSTORE PUSH1 0x1 PUSH1 0xA0 PUSH1 0x2 EXP SUB SWAP4 DUP5 AND PUSH1 0x24 DUP3 ADD MSTORE PUSH1 0x44 DUP2 ADD SWAP3 SWAP1 SWAP3 MSTORE MLOAD SWAP2 DUP8 AND SWAP4 POP PUSH4 0xEA9E107A SWAP3 POP PUSH1 0x64 DUP1 DUP3 ADD SWAP3 PUSH1 0x0 SWAP3 SWAP1 SWAP2 SWAP1 DUP3 SWAP1 SUB ADD DUP2 DUP4 DUP8 DUP1 EXTCODESIZE ISZERO DUP1 ISZERO PUSH2 0x15DD JUMPI PUSH1 0x0 DUP1 REVERT JUMPDEST POP GAS CALL ISZERO DUP1 ISZERO PUSH2 0x15F1 JUMPI RETURNDATASIZE PUSH1 0x0 DUP1 RETURNDATACOPY RETURNDATASIZE PUSH1 0x0 REVERT JUMPDEST POP POP DUP4 SLOAD PUSH1 0x1 PUSH1 0xA0 PUSH1 0x2 EXP SUB NOT AND DUP5 SSTORE POP POP PUSH1 0x0 PUSH1 0x1 DUP4 ADD DUP2 SWAP1 SSTORE PUSH1 0x2 DUP4 ADD DUP2 SWAP1 SSTORE PUSH1 0x3 SWAP1 SWAP3 ADD SWAP2 SWAP1 SWAP2 SSTORE POP POP POP JUMP JUMPDEST PUSH1 0x3 PUSH1 0x20 SWAP1 DUP2 MSTORE PUSH1 0x0 SWAP3 DUP4 MSTORE PUSH1 0x40 DUP1 DUP5 KECCAK256 SWAP1 SWAP2 MSTORE SWAP1 DUP3 MSTORE SWAP1 KECCAK256 SLOAD PUSH1 0x1 PUSH1 0xA0 PUSH1 0x2 EXP SUB AND DUP2 JUMP JUMPDEST PUSH1 0x0 DUP2 DUP2 MSTORE PUSH1 0x2 PUSH1 0x20 MSTORE PUSH1 0x40 DUP2 KECCAK256 PUSH2 0x165F DUP4 TIMESTAMP PUSH2 0x1823 JUMP JUMPDEST ISZERO ISZERO PUSH2 0x166E JUMPI PUSH1 0x5 SWAP2 POP PUSH2 0x16B7 JUMP JUMPDEST DUP1 PUSH1 0x1 ADD SLOAD TIMESTAMP LT ISZERO PUSH2 0x169E JUMPI PUSH1 0x1 DUP2 ADD SLOAD PUSH3 0x2A2FF NOT ADD TIMESTAMP LT ISZERO PUSH2 0x1695 JUMPI PUSH1 0x1 SWAP2 POP PUSH2 0x16B7 JUMP JUMPDEST PUSH1 0x4 SWAP2 POP PUSH2 0x16B7 JUMP JUMPDEST PUSH1 0x3 DUP2 ADD SLOAD ISZERO ISZERO PUSH2 0x16B2 JUMPI PUSH1 0x0 SWAP2 POP PUSH2 0x16B7 JUMP JUMPDEST PUSH1 0x2 SWAP2 POP JUMPDEST POP SWAP2 SWAP1 POP JUMP JUMPDEST PUSH1 0x0 DUP3 PUSH1 0x2 PUSH2 0x16CB DUP3 PUSH2 0x1647 JUMP JUMPDEST PUSH1 0x5 DUP2 GT ISZERO PUSH2 0x16D6 JUMPI INVALID JUMPDEST EQ DUP1 ISZERO PUSH2 0x176B JUMPI POP PUSH1 0x0 DUP2 DUP2 MSTORE PUSH1 0x2 PUSH1 0x20 SWAP1 DUP2 MSTORE PUSH1 0x40 DUP1 DUP4 KECCAK256 SLOAD DUP2 MLOAD PUSH1 0xE0 PUSH1 0x2 EXP PUSH4 0x8DA5CB5B MUL DUP2 MSTORE SWAP2 MLOAD PUSH1 0x1 PUSH1 0xA0 PUSH1 0x2 EXP SUB SWAP1 SWAP2 AND SWAP4 PUSH4 0x8DA5CB5B SWAP4 PUSH1 0x4 DUP1 DUP6 ADD SWAP5 SWAP2 SWAP4 SWAP3 SWAP2 DUP4 SWAP1 SUB ADD SWAP1 DUP3 SWAP1 DUP8 DUP1 EXTCODESIZE ISZERO DUP1 ISZERO PUSH2 0x1733 JUMPI PUSH1 0x0 DUP1 REVERT JUMPDEST POP GAS CALL ISZERO DUP1 ISZERO PUSH2 0x1747 JUMPI RETURNDATASIZE PUSH1 0x0 DUP1 RETURNDATACOPY RETURNDATASIZE PUSH1 0x0 REVERT JUMPDEST POP POP POP POP PUSH1 0x40 MLOAD RETURNDATASIZE PUSH1 0x20 DUP2 LT ISZERO PUSH2 0x175D JUMPI PUSH1 0x0 DUP1 REVERT JUMPDEST POP MLOAD PUSH1 0x1 PUSH1 0xA0 PUSH1 0x2 EXP SUB AND CALLER EQ JUMPDEST ISZERO ISZERO PUSH2 0x1776 JUMPI PUSH1 0x0 DUP1 REVERT JUMPDEST PUSH1 0x1 PUSH1 0xA0 PUSH1 0x2 EXP SUB DUP4 AND ISZERO ISZERO PUSH2 0x178B JUMPI PUSH1 0x0 DUP1 REVERT JUMPDEST PUSH1 0x0 DUP5 DUP2 MSTORE PUSH1 0x2 PUSH1 0x20 MSTORE PUSH1 0x40 DUP1 DUP3 KECCAK256 DUP1 SLOAD DUP3 MLOAD PUSH32 0x13AF403500000000000000000000000000000000000000000000000000000000 DUP2 MSTORE PUSH1 0x1 PUSH1 0xA0 PUSH1 0x2 EXP SUB DUP9 DUP2 AND PUSH1 0x4 DUP4 ADD MSTORE SWAP4 MLOAD SWAP3 SWAP7 POP SWAP3 AND SWAP3 PUSH4 0x13AF4035 SWAP3 PUSH1 0x24 DUP1 DUP3 ADD SWAP4 SWAP2 DUP3 SWAP1 SUB ADD DUP2 DUP4 DUP8 DUP1 EXTCODESIZE ISZERO DUP1 ISZERO PUSH2 0x17FB JUMPI PUSH1 0x0 DUP1 REVERT JUMPDEST POP GAS CALL ISZERO DUP1 ISZERO PUSH2 0x180F JUMPI RETURNDATASIZE PUSH1 0x0 DUP1 RETURNDATACOPY RETURNDATASIZE PUSH1 0x0 REVERT JUMPDEST POP POP POP POP PUSH2 0x181D DUP5 DUP5 PUSH2 0x210C JUMP JUMPDEST POP POP POP POP JUMP JUMPDEST PUSH1 0x0 PUSH2 0x182E DUP4 PUSH2 0x77F JUMP JUMPDEST DUP3 GT SWAP1 POP JUMPDEST SWAP3 SWAP2 POP POP JUMP JUMPDEST PUSH1 0x0 DUP2 PUSH1 0x2 PUSH2 0x1847 DUP3 PUSH2 0x1647 JUMP JUMPDEST PUSH1 0x5 DUP2 GT ISZERO PUSH2 0x1852 JUMPI INVALID JUMPDEST EQ DUP1 ISZERO PUSH2 0x18E7 JUMPI POP PUSH1 0x0 DUP2 DUP2 MSTORE PUSH1 0x2 PUSH1 0x20 SWAP1 DUP2 MSTORE PUSH1 0x40 DUP1 DUP4 KECCAK256 SLOAD DUP2 MLOAD PUSH1 0xE0 PUSH1 0x2 EXP PUSH4 0x8DA5CB5B MUL DUP2 MSTORE SWAP2 MLOAD PUSH1 0x1 PUSH1 0xA0 PUSH1 0x2 EXP SUB SWAP1 SWAP2 AND SWAP4 PUSH4 0x8DA5CB5B SWAP4 PUSH1 0x4 DUP1 DUP6 ADD SWAP5 SWAP2 SWAP4 SWAP3 SWAP2 DUP4 SWAP1 SUB ADD SWAP1 DUP3 SWAP1 DUP8 DUP1 EXTCODESIZE ISZERO DUP1 ISZERO PUSH2 0x18AF JUMPI PUSH1 0x0 DUP1 REVERT JUMPDEST POP GAS CALL ISZERO DUP1 ISZERO PUSH2 0x18C3 JUMPI RETURNDATASIZE PUSH1 0x0 DUP1 RETURNDATACOPY RETURNDATASIZE PUSH1 0x0 REVERT JUMPDEST POP POP POP POP PUSH1 0x40 MLOAD RETURNDATASIZE PUSH1 0x20 DUP2 LT ISZERO PUSH2 0x18D9 JUMPI PUSH1 0x0 DUP1 REVERT JUMPDEST POP MLOAD PUSH1 0x1 PUSH1 0xA0 PUSH1 0x2 EXP SUB AND CALLER EQ JUMPDEST ISZERO ISZERO PUSH2 0x18F2 JUMPI PUSH1 0x0 DUP1 REVERT JUMPDEST PUSH1 0x0 DUP4 DUP2 MSTORE PUSH1 0x2 PUSH1 0x20 DUP2 SWAP1 MSTORE PUSH1 0x40 SWAP1 SWAP2 KECCAK256 SWAP1 DUP2 ADD SLOAD SWAP1 SWAP3 POP PUSH2 0x191B SWAP1 PUSH7 0x2386F26FC10000 PUSH2 0x20E3 JUMP JUMPDEST PUSH1 0x2 DUP4 ADD DUP2 SWAP1 SSTORE DUP3 SLOAD PUSH1 0x40 DUP1 MLOAD PUSH32 0xB0C8097200000000000000000000000000000000000000000000000000000000 DUP2 MSTORE PUSH1 0x4 DUP2 ADD SWAP4 SWAP1 SWAP4 MSTORE PUSH1 0x1 PUSH1 0x24 DUP5 ADD MSTORE MLOAD PUSH1 0x1 PUSH1 0xA0 PUSH1 0x2 EXP SUB SWAP1 SWAP2 AND SWAP2 PUSH4 0xB0C80972 SWAP2 PUSH1 0x44 DUP1 DUP4 ADD SWAP3 PUSH1 0x0 SWAP3 SWAP2 SWAP1 DUP3 SWAP1 SUB ADD DUP2 DUP4 DUP8 DUP1 EXTCODESIZE ISZERO DUP1 ISZERO PUSH2 0x198D JUMPI PUSH1 0x0 DUP1 REVERT JUMPDEST POP GAS CALL ISZERO DUP1 ISZERO PUSH2 0x19A1 JUMPI RETURNDATASIZE PUSH1 0x0 DUP1 RETURNDATACOPY RETURNDATASIZE PUSH1 0x0 REVERT JUMPDEST POP POP POP POP PUSH2 0x1A2F DUP4 DUP4 PUSH1 0x0 ADD PUSH1 0x0 SWAP1 SLOAD SWAP1 PUSH2 0x100 EXP SWAP1 DIV PUSH1 0x1 PUSH1 0xA0 PUSH1 0x2 EXP SUB AND PUSH1 0x1 PUSH1 0xA0 PUSH1 0x2 EXP SUB AND PUSH4 0x8DA5CB5B PUSH1 0x40 MLOAD DUP2 PUSH4 0xFFFFFFFF AND PUSH1 0xE0 PUSH1 0x2 EXP MUL DUP2 MSTORE PUSH1 0x4 ADD PUSH1 0x20 PUSH1 0x40 MLOAD DUP1 DUP4 SUB DUP2 PUSH1 0x0 DUP8 DUP1 EXTCODESIZE ISZERO DUP1 ISZERO PUSH2 0x19FE JUMPI PUSH1 0x0 DUP1 REVERT JUMPDEST POP GAS CALL ISZERO DUP1 ISZERO PUSH2 0x1A12 JUMPI RETURNDATASIZE PUSH1 0x0 DUP1 RETURNDATACOPY RETURNDATASIZE PUSH1 0x0 REVERT JUMPDEST POP POP POP POP PUSH1 0x40 MLOAD RETURNDATASIZE PUSH1 0x20 DUP2 LT ISZERO PUSH2 0x1A28 JUMPI PUSH1 0x0 DUP1 REVERT JUMPDEST POP MLOAD PUSH2 0x210C JUMP JUMPDEST DUP2 SLOAD PUSH1 0x40 DUP1 MLOAD PUSH1 0xE0 PUSH1 0x2 EXP PUSH4 0x8DA5CB5B MUL DUP2 MSTORE SWAP1 MLOAD PUSH1 0x1 PUSH1 0xA0 PUSH1 0x2 EXP SUB SWAP1 SWAP3 AND SWAP2 PUSH4 0x8DA5CB5B SWAP2 PUSH1 0x4 DUP1 DUP3 ADD SWAP3 PUSH1 0x20 SWAP3 SWAP1 SWAP2 SWAP1 DUP3 SWAP1 SUB ADD DUP2 PUSH1 0x0 DUP8 DUP1 EXTCODESIZE ISZERO DUP1 ISZERO PUSH2 0x1A78 JUMPI PUSH1 0x0 DUP1 REVERT JUMPDEST POP GAS CALL ISZERO DUP1 ISZERO PUSH2 0x1A8C JUMPI RETURNDATASIZE PUSH1 0x0 DUP1 RETURNDATACOPY RETURNDATASIZE PUSH1 0x0 REVERT JUMPDEST POP POP POP POP PUSH1 0x40 MLOAD RETURNDATASIZE PUSH1 0x20 DUP2 LT ISZERO PUSH2 0x1AA2 JUMPI PUSH1 0x0 DUP1 REVERT JUMPDEST POP MLOAD PUSH1 0x2 DUP4 ADD SLOAD PUSH1 0x1 DUP5 ADD SLOAD PUSH1 0x40 DUP1 MLOAD SWAP3 DUP4 MSTORE PUSH1 0x20 DUP4 ADD SWAP2 SWAP1 SWAP2 MSTORE DUP1 MLOAD PUSH1 0x1 PUSH1 0xA0 PUSH1 0x2 EXP SUB SWAP1 SWAP4 AND SWAP3 DUP7 SWAP3 PUSH32 0xF0C27ADFD84B60B6F456B0E87CDCCB1E5FB9603991588D87FA99F5B6B61E670 SWAP3 SWAP1 DUP3 SWAP1 SUB ADD SWAP1 LOG3 POP POP POP JUMP JUMPDEST PUSH1 0x4 SLOAD DUP2 JUMP JUMPDEST PUSH3 0x49D400 DUP2 JUMP JUMPDEST CALLER PUSH1 0x0 SWAP1 DUP2 MSTORE PUSH1 0x3 PUSH1 0x20 SWAP1 DUP2 MSTORE PUSH1 0x40 DUP1 DUP4 KECCAK256 DUP5 DUP5 MSTORE SWAP1 SWAP2 MSTORE DUP2 KECCAK256 SLOAD PUSH1 0x1 PUSH1 0xA0 PUSH1 0x2 EXP SUB AND ISZERO PUSH2 0x1B36 JUMPI PUSH1 0x0 DUP1 REVERT JUMPDEST PUSH7 0x2386F26FC10000 CALLVALUE LT ISZERO PUSH2 0x1B4A JUMPI PUSH1 0x0 DUP1 REVERT JUMPDEST CALLVALUE CALLER PUSH2 0x1B54 PUSH2 0x23F1 JUMP JUMPDEST PUSH1 0x1 PUSH1 0xA0 PUSH1 0x2 EXP SUB SWAP1 SWAP2 AND DUP2 MSTORE PUSH1 0x40 MLOAD SWAP1 DUP2 SWAP1 SUB PUSH1 0x20 ADD SWAP1 DUP3 CREATE DUP1 ISZERO DUP1 ISZERO PUSH2 0x1B80 JUMPI RETURNDATASIZE PUSH1 0x0 DUP1 RETURNDATACOPY RETURNDATASIZE PUSH1 0x0 REVERT JUMPDEST POP CALLER PUSH1 0x0 DUP2 DUP2 MSTORE PUSH1 0x3 PUSH1 0x20 SWAP1 DUP2 MSTORE PUSH1 0x40 DUP1 DUP4 KECCAK256 DUP9 DUP5 MSTORE DUP3 MSTORE SWAP2 DUP3 SWAP1 KECCAK256 DUP1 SLOAD PUSH1 0x1 PUSH1 0xA0 PUSH1 0x2 EXP SUB NOT AND PUSH1 0x1 PUSH1 0xA0 PUSH1 0x2 EXP SUB DUP7 AND OR SWAP1 SSTORE DUP2 MLOAD CALLVALUE DUP2 MSTORE SWAP2 MLOAD SWAP4 SWAP6 POP SWAP2 SWAP4 POP DUP6 SWAP3 PUSH32 0xB556FF269C1B6714F432C36431E2041D28436A73B6C3F19C021827BBDC6BFC29 SWAP3 SWAP2 DUP2 SWAP1 SUB SWAP1 SWAP2 ADD SWAP1 LOG3 POP POP JUMP JUMPDEST DUP1 MLOAD ISZERO ISZERO PUSH2 0x1C00 JUMPI PUSH1 0x0 DUP1 REVERT JUMPDEST PUSH1 0x2 PUSH2 0x1C26 DUP3 PUSH1 0x1 DUP5 MLOAD SUB DUP2 MLOAD DUP2 LT ISZERO ISZERO PUSH2 0x1C17 JUMPI INVALID JUMPDEST SWAP1 PUSH1 0x20 ADD SWAP1 PUSH1 0x20 MUL ADD MLOAD PUSH2 0x1647 JUMP JUMPDEST PUSH1 0x5 DUP2 GT ISZERO PUSH2 0x1C31 JUMPI INVALID JUMPDEST EQ ISZERO PUSH2 0x1C3C JUMPI PUSH1 0x0 DUP1 REVERT JUMPDEST PUSH2 0x1C4D PUSH1 0x1 DUP3 MLOAD SUB DUP3 PUSH1 0x1 SLOAD PUSH2 0x2212 JUMP JUMPDEST POP JUMP JUMPDEST PUSH1 0x0 JUMPDEST DUP2 MLOAD DUP2 LT ISZERO PUSH2 0x1C84 JUMPI PUSH2 0x1C7C DUP3 DUP3 DUP2 MLOAD DUP2 LT ISZERO ISZERO PUSH2 0x1C6D JUMPI INVALID JUMPDEST SWAP1 PUSH1 0x20 ADD SWAP1 PUSH1 0x20 MUL ADD MLOAD PUSH2 0x1C8D JUMP JUMPDEST PUSH1 0x1 ADD PUSH2 0x1C53 JUMP JUMPDEST POP POP JUMP JUMPDEST POP POP POP JUMP JUMPDEST PUSH1 0x0 DUP1 PUSH1 0x4 SLOAD TIMESTAMP LT ISZERO DUP1 ISZERO PUSH2 0x1CAA JUMPI POP PUSH1 0x4 SLOAD PUSH4 0x784CE00 ADD TIMESTAMP GT ISZERO JUMPDEST DUP1 ISZERO PUSH2 0x1D40 JUMPI POP PUSH1 0x0 DUP1 SLOAD PUSH1 0x1 SLOAD PUSH1 0x40 DUP1 MLOAD PUSH1 0xE0 PUSH1 0x2 EXP PUSH4 0x2571BE3 MUL DUP2 MSTORE PUSH1 0x4 DUP2 ADD SWAP3 SWAP1 SWAP3 MSTORE MLOAD ADDRESS SWAP4 PUSH1 0x1 PUSH1 0xA0 PUSH1 0x2 EXP SUB SWAP1 SWAP4 AND SWAP3 PUSH4 0x2571BE3 SWAP3 PUSH1 0x24 DUP1 DUP3 ADD SWAP4 PUSH1 0x20 SWAP4 SWAP1 SWAP3 DUP4 SWAP1 SUB SWAP1 SWAP2 ADD SWAP1 DUP3 SWAP1 DUP8 DUP1 EXTCODESIZE ISZERO DUP1 ISZERO PUSH2 0x1D09 JUMPI PUSH1 0x0 DUP1 REVERT JUMPDEST POP GAS CALL ISZERO DUP1 ISZERO PUSH2 0x1D1D JUMPI RETURNDATASIZE PUSH1 0x0 DUP1 RETURNDATACOPY RETURNDATASIZE PUSH1 0x0 REVERT JUMPDEST POP POP POP POP PUSH1 0x40 MLOAD RETURNDATASIZE PUSH1 0x20 DUP2 LT ISZERO PUSH2 0x1D33 JUMPI PUSH1 0x0 DUP1 REVERT JUMPDEST POP MLOAD PUSH1 0x1 PUSH1 0xA0 PUSH1 0x2 EXP SUB AND EQ JUMPDEST ISZERO ISZERO PUSH2 0x1D4B JUMPI PUSH1 0x0 DUP1 REVERT JUMPDEST PUSH2 0x1D54 DUP4 PUSH2 0x1647 JUMP JUMPDEST SWAP2 POP PUSH1 0x1 DUP3 PUSH1 0x5 DUP2 GT ISZERO PUSH2 0x1D64 JUMPI INVALID JUMPDEST EQ ISZERO PUSH2 0x1D6F JUMPI PUSH2 0x1C88 JUMP JUMPDEST PUSH1 0x0 DUP3 PUSH1 0x5 DUP2 GT ISZERO PUSH2 0x1D7D JUMPI INVALID JUMPDEST EQ PUSH2 0x1D87 JUMPI PUSH1 0x0 DUP1 REVERT JUMPDEST POP PUSH1 0x0 DUP3 DUP2 MSTORE PUSH1 0x2 PUSH1 0x20 DUP2 DUP2 MSTORE PUSH1 0x40 DUP1 DUP5 KECCAK256 TIMESTAMP PUSH3 0x69780 ADD PUSH1 0x1 DUP3 ADD DUP2 SWAP1 SSTORE SWAP4 DUP2 ADD DUP6 SWAP1 SSTORE PUSH1 0x3 DUP2 ADD SWAP5 SWAP1 SWAP5 SSTORE DUP1 MLOAD SWAP3 DUP4 MSTORE MLOAD DUP6 SWAP3 PUSH32 0x87E97E825A1D1FA0C54E1D36C7506C1DEA8B1EFD451FE68B000CF96F7CF40003 SWAP3 SWAP1 DUP3 SWAP1 SUB ADD SWAP1 LOG2 POP POP POP JUMP JUMPDEST PUSH1 0x1 SLOAD DUP2 JUMP JUMPDEST PUSH2 0x1DF9 DUP3 PUSH2 0x1C50 JUMP JUMPDEST PUSH2 0x1C84 DUP2 PUSH2 0x1B08 JUMP JUMPDEST PUSH1 0x0 DUP1 SLOAD PUSH1 0x1 SLOAD PUSH1 0x40 DUP1 MLOAD PUSH1 0xE0 PUSH1 0x2 EXP PUSH4 0x2571BE3 MUL DUP2 MSTORE PUSH1 0x4 DUP2 ADD SWAP3 SWAP1 SWAP3 MSTORE MLOAD ADDRESS SWAP3 PUSH1 0x1 PUSH1 0xA0 PUSH1 0x2 EXP SUB AND SWAP2 PUSH4 0x2571BE3 SWAP2 PUSH1 0x24 DUP1 DUP4 ADD SWAP3 PUSH1 0x20 SWAP3 SWAP2 SWAP1 DUP3 SWAP1 SUB ADD DUP2 DUP9 DUP8 DUP1 EXTCODESIZE ISZERO DUP1 ISZERO PUSH2 0x1E55 JUMPI PUSH1 0x0 DUP1 REVERT JUMPDEST POP GAS CALL ISZERO DUP1 ISZERO PUSH2 0x1E69 JUMPI RETURNDATASIZE PUSH1 0x0 DUP1 RETURNDATACOPY RETURNDATASIZE PUSH1 0x0 REVERT JUMPDEST POP POP POP POP PUSH1 0x40 MLOAD RETURNDATASIZE PUSH1 0x20 DUP2 LT ISZERO PUSH2 0x1E7F JUMPI PUSH1 0x0 DUP1 REVERT JUMPDEST POP MLOAD PUSH1 0x1 PUSH1 0xA0 PUSH1 0x2 EXP SUB AND EQ ISZERO PUSH2 0x1C84 JUMPI PUSH1 0x0 DUP1 SLOAD PUSH1 0x1 SLOAD PUSH1 0x40 DUP1 MLOAD PUSH32 0x6AB592300000000000000000000000000000000000000000000000000000000 DUP2 MSTORE PUSH1 0x4 DUP2 ADD SWAP3 SWAP1 SWAP3 MSTORE PUSH1 0x24 DUP3 ADD DUP7 SWAP1 MSTORE ADDRESS PUSH1 0x44 DUP4 ADD MSTORE MLOAD PUSH1 0x1 PUSH1 0xA0 PUSH1 0x2 EXP SUB SWAP1 SWAP3 AND SWAP3 PUSH4 0x6AB5923 SWAP3 PUSH1 0x64 DUP1 DUP5 ADD SWAP4 DUP3 SWAP1 SUB ADD DUP2 DUP4 DUP8 DUP1 EXTCODESIZE ISZERO DUP1 ISZERO PUSH2 0x1F01 JUMPI PUSH1 0x0 DUP1 REVERT JUMPDEST POP GAS CALL ISZERO DUP1 ISZERO PUSH2 0x1F15 JUMPI RETURNDATASIZE PUSH1 0x0 DUP1 RETURNDATACOPY RETURNDATASIZE PUSH1 0x0 REVERT JUMPDEST POP POP PUSH1 0x1 SLOAD PUSH1 0x40 DUP1 MLOAD SWAP2 DUP3 MSTORE PUSH1 0x20 DUP3 ADD DUP7 SWAP1 MSTORE DUP1 MLOAD SWAP2 DUP3 SWAP1 SUB DUP2 ADD DUP3 KECCAK256 PUSH1 0x0 DUP1 SLOAD PUSH32 0x1896F70A00000000000000000000000000000000000000000000000000000000 DUP6 MSTORE PUSH1 0x4 DUP6 ADD DUP4 SWAP1 MSTORE PUSH1 0x24 DUP6 ADD DUP3 SWAP1 MSTORE SWAP3 MLOAD SWAP2 SWAP7 POP PUSH1 0x1 PUSH1 0xA0 PUSH1 0x2 EXP SUB SWAP1 SWAP3 AND SWAP5 POP PUSH4 0x1896F70A SWAP4 POP PUSH1 0x44 DUP1 DUP5 ADD SWAP4 DUP3 SWAP1 SUB ADD DUP2 DUP4 DUP8 DUP1 EXTCODESIZE ISZERO DUP1 ISZERO PUSH2 0x1F9B JUMPI PUSH1 0x0 DUP1 REVERT JUMPDEST POP GAS CALL ISZERO DUP1 ISZERO PUSH2 0x1FAF JUMPI RETURNDATASIZE PUSH1 0x0 DUP1 RETURNDATACOPY RETURNDATASIZE PUSH1 0x0 REVERT JUMPDEST POP POP PUSH1 0x0 DUP1 SLOAD PUSH1 0x40 DUP1 MLOAD PUSH32 0x5B0FC9C300000000000000000000000000000000000000000000000000000000 DUP2 MSTORE PUSH1 0x4 DUP2 ADD DUP8 SWAP1 MSTORE PUSH1 0x24 DUP2 ADD DUP5 SWAP1 MSTORE SWAP1 MLOAD PUSH1 0x1 PUSH1 0xA0 PUSH1 0x2 EXP SUB SWAP1 SWAP3 AND SWAP5 POP PUSH4 0x5B0FC9C3 SWAP4 POP PUSH1 0x44 DUP1 DUP3 ADD SWAP4 SWAP3 SWAP2 DUP3 SWAP1 SUB ADD DUP2 DUP4 DUP8 DUP1 EXTCODESIZE ISZERO DUP1 ISZERO PUSH2 0x201D JUMPI PUSH1 0x0 DUP1 REVERT JUMPDEST POP GAS CALL ISZERO DUP1 ISZERO PUSH2 0x2031 JUMPI RETURNDATASIZE PUSH1 0x0 DUP1 RETURNDATACOPY RETURNDATASIZE PUSH1 0x0 REVERT JUMPDEST POP POP POP POP POP POP JUMP JUMPDEST DUP1 MLOAD PUSH1 0x0 SWAP1 PUSH1 0x1 DUP4 DUP2 ADD SWAP2 DUP5 ADD ADD DUP3 DUP1 JUMPDEST DUP3 DUP5 LT ISZERO PUSH2 0x20DA JUMPI POP DUP3 MLOAD PUSH1 0xFF AND PUSH1 0x80 DUP2 LT ISZERO PUSH2 0x206C JUMPI PUSH1 0x1 DUP5 ADD SWAP4 POP PUSH2 0x20CF JUMP JUMPDEST PUSH1 0xE0 DUP2 PUSH1 0xFF AND LT ISZERO PUSH2 0x2083 JUMPI PUSH1 0x2 DUP5 ADD SWAP4 POP PUSH2 0x20CF JUMP JUMPDEST PUSH1 0xF0 DUP2 PUSH1 0xFF AND LT ISZERO PUSH2 0x209A JUMPI PUSH1 0x3 DUP5 ADD SWAP4 POP PUSH2 0x20CF JUMP JUMPDEST PUSH1 0xF8 DUP2 PUSH1 0xFF AND LT ISZERO PUSH2 0x20B1 JUMPI PUSH1 0x4 DUP5 ADD SWAP4 POP PUSH2 0x20CF JUMP JUMPDEST PUSH1 0xFC DUP2 PUSH1 0xFF AND LT ISZERO PUSH2 0x20C8 JUMPI PUSH1 0x5 DUP5 ADD SWAP4 POP PUSH2 0x20CF JUMP JUMPDEST PUSH1 0x6 DUP5 ADD SWAP4 POP JUMPDEST PUSH1 0x1 SWAP1 SWAP2 ADD SWAP1 PUSH2 0x204A JUMP JUMPDEST POP SWAP5 SWAP4 POP POP POP POP JUMP JUMPDEST PUSH1 0x0 DUP2 DUP4 GT ISZERO PUSH2 0x20F4 JUMPI POP DUP2 PUSH2 0x1833 JUMP JUMPDEST POP DUP1 PUSH2 0x1833 JUMP JUMPDEST PUSH1 0x0 DUP2 DUP4 LT ISZERO PUSH2 0x20F4 JUMPI POP DUP2 PUSH2 0x1833 JUMP JUMPDEST PUSH1 0x0 DUP1 SLOAD PUSH1 0x1 SLOAD PUSH1 0x40 DUP1 MLOAD PUSH1 0xE0 PUSH1 0x2 EXP PUSH4 0x2571BE3 MUL DUP2 MSTORE PUSH1 0x4 DUP2 ADD SWAP3 SWAP1 SWAP3 MSTORE MLOAD ADDRESS SWAP4 PUSH1 0x1 PUSH1 0xA0 PUSH1 0x2 EXP SUB SWAP1 SWAP4 AND SWAP3 PUSH4 0x2571BE3 SWAP3 PUSH1 0x24 DUP1 DUP3 ADD SWAP4 PUSH1 0x20 SWAP4 SWAP1 SWAP3 DUP4 SWAP1 SUB SWAP1 SWAP2 ADD SWAP1 DUP3 SWAP1 DUP8 DUP1 EXTCODESIZE ISZERO DUP1 ISZERO PUSH2 0x2164 JUMPI PUSH1 0x0 DUP1 REVERT JUMPDEST POP GAS CALL ISZERO DUP1 ISZERO PUSH2 0x2178 JUMPI RETURNDATASIZE PUSH1 0x0 DUP1 RETURNDATACOPY RETURNDATASIZE PUSH1 0x0 REVERT JUMPDEST POP POP POP POP PUSH1 0x40 MLOAD RETURNDATASIZE PUSH1 0x20 DUP2 LT ISZERO PUSH2 0x218E JUMPI PUSH1 0x0 DUP1 REVERT JUMPDEST POP MLOAD PUSH1 0x1 PUSH1 0xA0 PUSH1 0x2 EXP SUB AND EQ ISZERO PUSH2 0x1C84 JUMPI PUSH1 0x0 DUP1 SLOAD PUSH1 0x1 SLOAD PUSH1 0x40 DUP1 MLOAD PUSH32 0x6AB592300000000000000000000000000000000000000000000000000000000 DUP2 MSTORE PUSH1 0x4 DUP2 ADD SWAP3 SWAP1 SWAP3 MSTORE PUSH1 0x24 DUP3 ADD DUP7 SWAP1 MSTORE PUSH1 0x1 PUSH1 0xA0 PUSH1 0x2 EXP SUB DUP6 DUP2 AND PUSH1 0x44 DUP5 ADD MSTORE SWAP1 MLOAD SWAP3 AND SWAP3 PUSH4 0x6AB5923 SWAP3 PUSH1 0x64 DUP1 DUP5 ADD SWAP4 DUP3 SWAP1 SUB ADD DUP2 DUP4 DUP8 DUP1 EXTCODESIZE ISZERO DUP1 ISZERO PUSH2 0x201D JUMPI PUSH1 0x0 DUP1 REVERT JUMPDEST PUSH1 0x0 SLOAD DUP3 MLOAD PUSH1 0x1 PUSH1 0xA0 PUSH1 0x2 EXP SUB SWAP1 SWAP2 AND SWAP1 PUSH4 0x6AB5923 SWAP1 DUP4 SWAP1 DUP6 SWAP1 DUP8 SWAP1 DUP2 LT PUSH2 0x2237 JUMPI INVALID JUMPDEST PUSH1 0x20 SWAP1 DUP2 MUL SWAP1 SWAP2 ADD ADD MLOAD PUSH1 0x40 DUP1 MLOAD PUSH1 0xE0 PUSH1 0x2 EXP PUSH4 0xFFFFFFFF DUP7 AND MUL DUP2 MSTORE PUSH1 0x4 DUP2 ADD SWAP4 SWAP1 SWAP4 MSTORE PUSH1 0x24 DUP4 ADD SWAP2 SWAP1 SWAP2 MSTORE ADDRESS PUSH1 0x44 DUP4 ADD MSTORE MLOAD PUSH1 0x64 DUP1 DUP4 ADD SWAP3 PUSH1 0x0 SWAP3 SWAP2 SWAP1 DUP3 SWAP1 SUB ADD DUP2 DUP4 DUP8 DUP1 EXTCODESIZE ISZERO DUP1 ISZERO PUSH2 0x228B JUMPI PUSH1 0x0 DUP1 REVERT JUMPDEST POP GAS CALL ISZERO DUP1 ISZERO PUSH2 0x229F JUMPI RETURNDATASIZE PUSH1 0x0 DUP1 RETURNDATACOPY RETURNDATASIZE PUSH1 0x0 REVERT JUMPDEST POP POP POP POP DUP1 DUP3 DUP5 DUP2 MLOAD DUP2 LT ISZERO ISZERO PUSH2 0x22B2 JUMPI INVALID JUMPDEST PUSH1 0x20 SWAP1 DUP2 MUL SWAP1 SWAP2 ADD DUP2 ADD MLOAD PUSH1 0x40 DUP1 MLOAD SWAP4 DUP5 MSTORE SWAP2 DUP4 ADD MSTORE DUP1 MLOAD SWAP2 DUP3 SWAP1 SUB ADD SWAP1 KECCAK256 SWAP1 POP PUSH1 0x0 DUP4 GT ISZERO PUSH2 0x22EA JUMPI PUSH2 0x22EA PUSH1 0x1 DUP5 SUB DUP4 DUP4 PUSH2 0x2212 JUMP JUMPDEST PUSH1 0x0 DUP1 SLOAD PUSH1 0x40 DUP1 MLOAD PUSH32 0x1896F70A00000000000000000000000000000000000000000000000000000000 DUP2 MSTORE PUSH1 0x4 DUP2 ADD DUP6 SWAP1 MSTORE PUSH1 0x24 DUP2 ADD DUP5 SWAP1 MSTORE SWAP1 MLOAD PUSH1 0x1 PUSH1 0xA0 PUSH1 0x2 EXP SUB SWAP1 SWAP3 AND SWAP3 PUSH4 0x1896F70A SWAP3 PUSH1 0x44 DUP1 DUP5 ADD SWAP4 DUP3 SWAP1 SUB ADD DUP2 DUP4 DUP8 DUP1 EXTCODESIZE ISZERO DUP1 ISZERO PUSH2 0x2352 JUMPI PUSH1 0x0 DUP1 REVERT JUMPDEST POP GAS CALL ISZERO DUP1 ISZERO PUSH2 0x2366 JUMPI RETURNDATASIZE PUSH1 0x0 DUP1 RETURNDATACOPY RETURNDATASIZE PUSH1 0x0 REVERT JUMPDEST POP POP PUSH1 0x0 DUP1 SLOAD PUSH1 0x40 DUP1 MLOAD PUSH32 0x5B0FC9C300000000000000000000000000000000000000000000000000000000 DUP2 MSTORE PUSH1 0x4 DUP2 ADD DUP8 SWAP1 MSTORE PUSH1 0x24 DUP2 ADD DUP5 SWAP1 MSTORE SWAP1 MLOAD PUSH1 0x1 PUSH1 0xA0 PUSH1 0x2 EXP SUB SWAP1 SWAP3 AND SWAP5 POP PUSH4 0x5B0FC9C3 SWAP4 POP PUSH1 0x44 DUP1 DUP3 ADD SWAP4 SWAP3 SWAP2 DUP3 SWAP1 SUB ADD DUP2 DUP4 DUP8 DUP1 EXTCODESIZE ISZERO DUP1 ISZERO PUSH2 0x23D4 JUMPI PUSH1 0x0 DUP1 REVERT JUMPDEST POP GAS CALL ISZERO DUP1 ISZERO PUSH2 0x23E8 JUMPI RETURNDATASIZE PUSH1 0x0 DUP1 RETURNDATACOPY RETURNDATASIZE PUSH1 0x0 REVERT JUMPDEST POP POP POP POP POP POP POP JUMP JUMPDEST PUSH1 0x40 MLOAD PUSH2 0x4F9 DUP1 PUSH2 0x2402 DUP4 CODECOPY ADD SWAP1 JUMP STOP PUSH1 0x80 PUSH1 0x40 MSTORE PUSH1 0x40 MLOAD PUSH1 0x20 DUP1 PUSH2 0x4F9 DUP4 CODECOPY DUP2 ADD PUSH1 0x40 MSTORE MLOAD PUSH1 0x1 DUP1 SLOAD PUSH1 0x1 PUSH1 0xA0 PUSH1 0x2 EXP SUB SWAP1 SWAP3 AND PUSH1 0x1 PUSH1 0xA0 PUSH1 0x2 EXP SUB NOT SWAP3 DUP4 AND OR DUP2 SSTORE PUSH1 0x0 DUP1 SLOAD SWAP1 SWAP3 AND CALLER OR SWAP1 SWAP2 SSTORE TIMESTAMP PUSH1 0x3 SSTORE PUSH1 0x5 DUP1 SLOAD PUSH1 0xFF NOT AND SWAP1 SWAP2 OR SWAP1 SSTORE CALLVALUE PUSH1 0x4 SSTORE PUSH2 0x496 DUP1 PUSH2 0x63 PUSH1 0x0 CODECOPY PUSH1 0x0 RETURN STOP PUSH1 0x80 PUSH1 0x40 MSTORE PUSH1 0x4 CALLDATASIZE LT PUSH2 0xA3 JUMPI PUSH4 0xFFFFFFFF PUSH29 0x100000000000000000000000000000000000000000000000000000000 PUSH1 0x0 CALLDATALOAD DIV AND PUSH4 0x5B34410 DUP2 EQ PUSH2 0xA8 JUMPI DUP1 PUSH4 0xB5AB3D5 EQ PUSH2 0xCF JUMPI DUP1 PUSH4 0x13AF4035 EQ PUSH2 0xE6 JUMPI DUP1 PUSH4 0x2B20E397 EQ PUSH2 0x107 JUMPI DUP1 PUSH4 0x3FA4F245 EQ PUSH2 0x138 JUMPI DUP1 PUSH4 0x674F220F EQ PUSH2 0x14D JUMPI DUP1 PUSH4 0x8DA5CB5B EQ PUSH2 0x162 JUMPI DUP1 PUSH4 0xB0C80972 EQ PUSH2 0x177 JUMPI DUP1 PUSH4 0xBBE42771 EQ PUSH2 0x194 JUMPI DUP1 PUSH4 0xFAAB9D39 EQ PUSH2 0x1AC JUMPI JUMPDEST PUSH1 0x0 DUP1 REVERT JUMPDEST CALLVALUE DUP1 ISZERO PUSH2 0xB4 JUMPI PUSH1 0x0 DUP1 REVERT JUMPDEST POP PUSH2 0xBD PUSH2 0x1CD JUMP JUMPDEST PUSH1 0x40 DUP1 MLOAD SWAP2 DUP3 MSTORE MLOAD SWAP1 DUP2 SWAP1 SUB PUSH1 0x20 ADD SWAP1 RETURN JUMPDEST CALLVALUE DUP1 ISZERO PUSH2 0xDB JUMPI PUSH1 0x0 DUP1 REVERT JUMPDEST POP PUSH2 0xE4 PUSH2 0x1D3 JUMP JUMPDEST STOP JUMPDEST CALLVALUE DUP1 ISZERO PUSH2 0xF2 JUMPI PUSH1 0x0 DUP1 REVERT JUMPDEST POP PUSH2 0xE4 PUSH1 0x1 PUSH1 0xA0 PUSH1 0x2 EXP SUB PUSH1 0x4 CALLDATALOAD AND PUSH2 0x22A JUMP JUMPDEST CALLVALUE DUP1 ISZERO PUSH2 0x113 JUMPI PUSH1 0x0 DUP1 REVERT JUMPDEST POP PUSH2 0x11C PUSH2 0x2C8 JUMP JUMPDEST PUSH1 0x40 DUP1 MLOAD PUSH1 0x1 PUSH1 0xA0 PUSH1 0x2 EXP SUB SWAP1 SWAP3 AND DUP3 MSTORE MLOAD SWAP1 DUP2 SWAP1 SUB PUSH1 0x20 ADD SWAP1 RETURN JUMPDEST CALLVALUE DUP1 ISZERO PUSH2 0x144 JUMPI PUSH1 0x0 DUP1 REVERT JUMPDEST POP PUSH2 0xBD PUSH2 0x2D7 JUMP JUMPDEST CALLVALUE DUP1 ISZERO PUSH2 0x159 JUMPI PUSH1 0x0 DUP1 REVERT JUMPDEST POP PUSH2 0x11C PUSH2 0x2DD JUMP JUMPDEST CALLVALUE DUP1 ISZERO PUSH2 0x16E JUMPI PUSH1 0x0 DUP1 REVERT JUMPDEST POP PUSH2 0x11C PUSH2 0x2EC JUMP JUMPDEST CALLVALUE DUP1 ISZERO PUSH2 0x183 JUMPI PUSH1 0x0 DUP1 REVERT JUMPDEST POP PUSH2 0xE4 PUSH1 0x4 CALLDATALOAD PUSH1 0x24 CALLDATALOAD ISZERO ISZERO PUSH2 0x2FB JUMP JUMPDEST CALLVALUE DUP1 ISZERO PUSH2 0x1A0 JUMPI PUSH1 0x0 DUP1 REVERT JUMPDEST POP PUSH2 0xE4 PUSH1 0x4 CALLDATALOAD PUSH2 0x37B JUMP JUMPDEST CALLVALUE DUP1 ISZERO PUSH2 0x1B8 JUMPI PUSH1 0x0 DUP1 REVERT JUMPDEST POP PUSH2 0xE4 PUSH1 0x1 PUSH1 0xA0 PUSH1 0x2 EXP SUB PUSH1 0x4 CALLDATALOAD AND PUSH2 0x424 JUMP JUMPDEST PUSH1 0x3 SLOAD DUP2 JUMP JUMPDEST PUSH1 0x5 SLOAD PUSH1 0xFF AND ISZERO PUSH2 0x1E3 JUMPI PUSH1 0x0 DUP1 REVERT JUMPDEST PUSH1 0x1 SLOAD PUSH1 0x40 MLOAD PUSH1 0x1 PUSH1 0xA0 PUSH1 0x2 EXP SUB SWAP1 SWAP2 AND SWAP1 ADDRESS BALANCE DUP1 ISZERO PUSH2 0x8FC MUL SWAP2 PUSH1 0x0 DUP2 DUP2 DUP2 DUP6 DUP9 DUP9 CALL SWAP4 POP POP POP POP ISZERO PUSH2 0x228 JUMPI PUSH20 0x5B38DA6A701C568545DCFCB03FCB875F56BEDDC4 SELFDESTRUCT JUMPDEST JUMP JUMPDEST PUSH1 0x0 SLOAD PUSH1 0x1 PUSH1 0xA0 PUSH1 0x2 EXP SUB AND CALLER EQ PUSH2 0x241 JUMPI PUSH1 0x0 DUP1 REVERT JUMPDEST PUSH1 0x1 PUSH1 0xA0 PUSH1 0x2 EXP SUB DUP2 AND ISZERO ISZERO PUSH2 0x256 JUMPI PUSH1 0x0 DUP1 REVERT JUMPDEST PUSH1 0x1 DUP1 SLOAD PUSH1 0x2 DUP1 SLOAD PUSH20 0xFFFFFFFFFFFFFFFFFFFFFFFFFFFFFFFFFFFFFFFF NOT SWAP1 DUP2 AND PUSH1 0x1 PUSH1 0xA0 PUSH1 0x2 EXP SUB DUP1 DUP6 AND SWAP2 SWAP1 SWAP2 OR SWAP1 SWAP3 SSTORE SWAP1 DUP5 AND SWAP2 AND DUP2 OR SWAP1 SWAP2 SSTORE PUSH1 0x40 DUP1 MLOAD SWAP2 DUP3 MSTORE MLOAD PUSH32 0xA2EA9883A321A3E97B8266C2B078BFEEC6D50C711ED71F874A90D500AE2EAF36 SWAP2 DUP2 SWAP1 SUB PUSH1 0x20 ADD SWAP1 LOG1 POP JUMP JUMPDEST PUSH1 0x0 SLOAD PUSH1 0x1 PUSH1 0xA0 PUSH1 0x2 EXP SUB AND DUP2 JUMP JUMPDEST PUSH1 0x4 SLOAD DUP2 JUMP JUMPDEST PUSH1 0x2 SLOAD PUSH1 0x1 PUSH1 0xA0 PUSH1 0x2 EXP SUB AND DUP2 JUMP JUMPDEST PUSH1 0x1 SLOAD PUSH1 0x1 PUSH1 0xA0 PUSH1 0x2 EXP SUB AND DUP2 JUMP JUMPDEST PUSH1 0x0 SLOAD PUSH1 0x1 PUSH1 0xA0 PUSH1 0x2 EXP SUB AND CALLER EQ PUSH2 0x312 JUMPI PUSH1 0x0 DUP1 REVERT JUMPDEST PUSH1 0x5 SLOAD PUSH1 0xFF AND ISZERO ISZERO PUSH2 0x323 JUMPI PUSH1 0x0 DUP1 REVERT JUMPDEST PUSH1 0x4 SLOAD DUP3 GT ISZERO PUSH2 0x332 JUMPI PUSH1 0x0 DUP1 REVERT JUMPDEST PUSH1 0x4 DUP3 SWAP1 SSTORE PUSH1 0x1 SLOAD PUSH1 0x40 MLOAD PUSH1 0x1 PUSH1 0xA0 PUSH1 0x2 EXP SUB SWAP1 SWAP2 AND SWAP1 ADDRESS BALANCE DUP5 SWAP1 SUB DUP1 ISZERO PUSH2 0x8FC MUL SWAP2 PUSH1 0x0 DUP2 DUP2 DUP2 DUP6 DUP9 DUP9 CALL SWAP4 POP POP POP POP DUP1 PUSH2 0x36C JUMPI POP DUP1 ISZERO JUMPDEST ISZERO ISZERO PUSH2 0x377 JUMPI PUSH1 0x0 DUP1 REVERT JUMPDEST POP POP JUMP JUMPDEST PUSH1 0x0 SLOAD PUSH1 0x1 PUSH1 0xA0 PUSH1 0x2 EXP SUB AND CALLER EQ PUSH2 0x392 JUMPI PUSH1 0x0 DUP1 REVERT JUMPDEST PUSH1 0x5 SLOAD PUSH1 0xFF AND ISZERO ISZERO PUSH2 0x3A3 JUMPI PUSH1 0x0 DUP1 REVERT JUMPDEST PUSH1 0x5 DUP1 SLOAD PUSH1 0xFF NOT AND SWAP1 SSTORE PUSH1 0x40 MLOAD PUSH20 0x5B38DA6A701C568545DCFCB03FCB875F56BEDDC4 SWAP1 PUSH2 0x3E8 ADDRESS BALANCE DUP5 DUP3 SUB MUL DIV DUP1 ISZERO PUSH2 0x8FC MUL SWAP2 PUSH1 0x0 DUP2 DUP2 DUP2 DUP6 DUP9 DUP9 CALL SWAP4 POP POP POP POP ISZERO ISZERO PUSH2 0x3F0 JUMPI PUSH1 0x0 DUP1 REVERT JUMPDEST PUSH1 0x40 MLOAD PUSH32 0xBB2CE2F51803BBA16BC85282B47DEEEA9A5C6223EABEA1077BE696B3F265CF13 SWAP1 PUSH1 0x0 SWAP1 LOG1 PUSH2 0x421 PUSH2 0x1D3 JUMP JUMPDEST POP JUMP JUMPDEST PUSH1 0x0 SLOAD PUSH1 0x1 PUSH1 0xA0 PUSH1 0x2 EXP SUB AND CALLER EQ PUSH2 0x43B JUMPI PUSH1 0x0 DUP1 REVERT JUMPDEST PUSH1 0x0 DUP1 SLOAD PUSH20 0xFFFFFFFFFFFFFFFFFFFFFFFFFFFFFFFFFFFFFFFF NOT AND PUSH1 0x1 PUSH1 0xA0 PUSH1 0x2 EXP SUB SWAP3 SWAP1 SWAP3 AND SWAP2 SWAP1 SWAP2 OR SWAP1 SSTORE JUMP STOP LOG1 PUSH6 0x627A7A723058 KECCAK256 0xc8 0x4d 0xae 0x2d 0x28 SAR INVALID 0x49 0xb1 SHL 0x1f 0xd6 0xc5 0xaf 0xc4 SWAP11 SWAP5 0xcf 0xdd 0xd1 PC PUSH17 0x2D8BB3A75AFC90D9916800297B6C4B278D AND GAS PUSH12 0x33958F8EA5DFB00C8C9D4D0A 0xcf NOT DUP6 0xbe 0xf5 0xd1 SMOD DUP7 DUP10 DUP12 0xc3 0xe7 LOG1 PUSH6 0x627A7A723058 KECCAK256 0xc1 0x27 0xb7 0xd9 0xad 0x4f 0xe6 PUSH22 0xB20907A7DE40BFDE11EEC63764ED4BA397F2F3E7060D 0xe1 EXTCODECOPY STOP 0x29 "
		},
		"gasEstimates": {
			"creation": {
				"codeDepositCost": "2113200",
				"executionCost": "62750",
				"totalCost": "2175950"
			},
			"external": {
				"acceptRegistrarTransfer(bytes32,address,uint256)": "710",
				"cancelBid(address,bytes32)": "infinite",
				"ens()": "732",
				"entries(bytes32)": "2536",
				"eraseNode(bytes32[])": "infinite",
				"finalizeAuction(bytes32)": "1497",
				"getAllowedTime(bytes32)": "510",
				"invalidateName(string)": "infinite",
				"isAllowed(bytes32,uint256)": "816",
				"launchLength()": "586",
				"newBid(bytes32)": "infinite",
				"registryStarted()": "755",
				"releaseDeed(bytes32)": "1214",
				"rootNode()": "909",
				"sealedBids(address,bytes32)": "1023",
				"shaBid(bytes32,address,uint256,bytes32)": "660",
				"startAuction(bytes32)": "infinite",
				"startAuctions(bytes32[])": "infinite",
				"startAuctionsAndBid(bytes32[],bytes32)": "infinite",
				"state(bytes32)": "1417",
				"transfer(bytes32,address)": "1534",
				"transferRegistrars(bytes32)": "1390",
				"unsealBid(bytes32,uint256,bytes32)": "infinite"
			},
			"internal": {
				"_eraseNodeHierarchy(uint256,bytes32[] memory,bytes32)": "infinite",
				"_tryEraseSingleNode(bytes32)": "infinite",
				"max(uint256,uint256)": "65",
				"min(uint256,uint256)": "65",
				"strlen(string memory)": "infinite",
				"trySetSubnodeOwner(bytes32,address)": "infinite"
			}
		},
		"methodIdentifiers": {
			"acceptRegistrarTransfer(bytes32,address,uint256)": "ea9e107a",
			"cancelBid(address,bytes32)": "2525f5c1",
			"ens()": "3f15457f",
			"entries(bytes32)": "267b6922",
			"eraseNode(bytes32[])": "de10f04b",
			"finalizeAuction(bytes32)": "983b94fb",
			"getAllowedTime(bytes32)": "13c89a8f",
			"invalidateName(string)": "15f73331",
			"isAllowed(bytes32,uint256)": "93503337",
			"launchLength()": "ae1a0b0c",
			"newBid(bytes32)": "ce92dced",
			"registryStarted()": "9c67f06f",
			"releaseDeed(bytes32)": "0230a07c",
			"rootNode()": "faff50a8",
			"sealedBids(address,bytes32)": "5e431709",
			"shaBid(bytes32,address,uint256,bytes32)": "22ec1244",
			"startAuction(bytes32)": "ede8acdb",
			"startAuctions(bytes32[])": "e27fe50f",
			"startAuctionsAndBid(bytes32[],bytes32)": "febefd61",
			"state(bytes32)": "61d585da",
			"transfer(bytes32,address)": "79ce9fac",
			"transferRegistrars(bytes32)": "5ddae283",
			"unsealBid(bytes32,uint256,bytes32)": "47872b42"
		}
	},
	"abi": [
		{
			"constant": false,
			"inputs": [
				{
					"name": "_hash",
					"type": "bytes32"
				}
			],
			"name": "releaseDeed",
			"outputs": [],
			"payable": false,
			"stateMutability": "nonpayable",
			"type": "function"
		},
		{
			"constant": true,
			"inputs": [
				{
					"name": "_hash",
					"type": "bytes32"
				}
			],
			"name": "getAllowedTime",
			"outputs": [
				{
					"name": "",
					"type": "uint256"
				}
			],
			"payable": false,
			"stateMutability": "view",
			"type": "function"
		},
		{
			"constant": false,
			"inputs": [
				{
					"name": "unhashedName",
					"type": "string"
				}
			],
			"name": "invalidateName",
			"outputs": [],
			"payable": false,
			"stateMutability": "nonpayable",
			"type": "function"
		},
		{
			"constant": true,
			"inputs": [
				{
					"name": "hash",
					"type": "bytes32"
				},
				{
					"name": "owner",
					"type": "address"
				},
				{
					"name": "value",
					"type": "uint256"
				},
				{
					"name": "salt",
					"type": "bytes32"
				}
			],
			"name": "shaBid",
			"outputs": [
				{
					"name": "",
					"type": "bytes32"
				}
			],
			"payable": false,
			"stateMutability": "view",
			"type": "function"
		},
		{
			"constant": false,
			"inputs": [
				{
					"name": "bidder",
					"type": "address"
				},
				{
					"name": "seal",
					"type": "bytes32"
				}
			],
			"name": "cancelBid",
			"outputs": [],
			"payable": false,
			"stateMutability": "nonpayable",
			"type": "function"
		},
		{
			"constant": true,
			"inputs": [
				{
					"name": "_hash",
					"type": "bytes32"
				}
			],
			"name": "entries",
			"outputs": [
				{
					"name": "",
					"type": "uint8"
				},
				{
					"name": "",
					"type": "address"
				},
				{
					"name": "",
					"type": "uint256"
				},
				{
					"name": "",
					"type": "uint256"
				},
				{
					"name": "",
					"type": "uint256"
				}
			],
			"payable": false,
			"stateMutability": "view",
			"type": "function"
		},
		{
			"constant": true,
			"inputs": [],
			"name": "ens",
			"outputs": [
				{
					"name": "",
					"type": "address"
				}
			],
			"payable": false,
			"stateMutability": "view",
			"type": "function"
		},
		{
			"constant": false,
			"inputs": [
				{
					"name": "_hash",
					"type": "bytes32"
				},
				{
					"name": "_value",
					"type": "uint256"
				},
				{
					"name": "_salt",
					"type": "bytes32"
				}
			],
			"name": "unsealBid",
			"outputs": [],
			"payable": false,
			"stateMutability": "nonpayable",
			"type": "function"
		},
		{
			"constant": false,
			"inputs": [
				{
					"name": "_hash",
					"type": "bytes32"
				}
			],
			"name": "transferRegistrars",
			"outputs": [],
			"payable": false,
			"stateMutability": "nonpayable",
			"type": "function"
		},
		{
			"constant": true,
			"inputs": [
				{
					"name": "",
					"type": "address"
				},
				{
					"name": "",
					"type": "bytes32"
				}
			],
			"name": "sealedBids",
			"outputs": [
				{
					"name": "",
					"type": "address"
				}
			],
			"payable": false,
			"stateMutability": "view",
			"type": "function"
		},
		{
			"constant": true,
			"inputs": [
				{
					"name": "_hash",
					"type": "bytes32"
				}
			],
			"name": "state",
			"outputs": [
				{
					"name": "",
					"type": "uint8"
				}
			],
			"payable": false,
			"stateMutability": "view",
			"type": "function"
		},
		{
			"constant": false,
			"inputs": [
				{
					"name": "_hash",
					"type": "bytes32"
				},
				{
					"name": "newOwner",
					"type": "address"
				}
			],
			"name": "transfer",
			"outputs": [],
			"payable": false,
			"stateMutability": "nonpayable",
			"type": "function"
		},
		{
			"constant": true,
			"inputs": [
				{
					"name": "_hash",
					"type": "bytes32"
				},
				{
					"name": "_timestamp",
					"type": "uint256"
				}
			],
			"name": "isAllowed",
			"outputs": [
				{
					"name": "allowed",
					"type": "bool"
				}
			],
			"payable": false,
			"stateMutability": "view",
			"type": "function"
		},
		{
			"constant": false,
			"inputs": [
				{
					"name": "_hash",
					"type": "bytes32"
				}
			],
			"name": "finalizeAuction",
			"outputs": [],
			"payable": false,
			"stateMutability": "nonpayable",
			"type": "function"
		},
		{
			"constant": true,
			"inputs": [],
			"name": "registryStarted",
			"outputs": [
				{
					"name": "",
					"type": "uint256"
				}
			],
			"payable": false,
			"stateMutability": "view",
			"type": "function"
		},
		{
			"constant": true,
			"inputs": [],
			"name": "launchLength",
			"outputs": [
				{
					"name": "",
					"type": "uint32"
				}
			],
			"payable": false,
			"stateMutability": "view",
			"type": "function"
		},
		{
			"constant": false,
			"inputs": [
				{
					"name": "sealedBid",
					"type": "bytes32"
				}
			],
			"name": "newBid",
			"outputs": [],
			"payable": true,
			"stateMutability": "payable",
			"type": "function"
		},
		{
			"constant": false,
			"inputs": [
				{
					"name": "labels",
					"type": "bytes32[]"
				}
			],
			"name": "eraseNode",
			"outputs": [],
			"payable": false,
			"stateMutability": "nonpayable",
			"type": "function"
		},
		{
			"constant": false,
			"inputs": [
				{
					"name": "_hashes",
					"type": "bytes32[]"
				}
			],
			"name": "startAuctions",
			"outputs": [],
			"payable": false,
			"stateMutability": "nonpayable",
			"type": "function"
		},
		{
			"constant": false,
			"inputs": [
				{
					"name": "hash",
					"type": "bytes32"
				},
				{
					"name": "deed",
					"type": "address"
				},
				{
					"name": "registrationDate",
					"type": "uint256"
				}
			],
			"name": "acceptRegistrarTransfer",
			"outputs": [],
			"payable": false,
			"stateMutability": "nonpayable",
			"type": "function"
		},
		{
			"constant": false,
			"inputs": [
				{
					"name": "_hash",
					"type": "bytes32"
				}
			],
			"name": "startAuction",
			"outputs": [],
			"payable": false,
			"stateMutability": "nonpayable",
			"type": "function"
		},
		{
			"constant": true,
			"inputs": [],
			"name": "rootNode",
			"outputs": [
				{
					"name": "",
					"type": "bytes32"
				}
			],
			"payable": false,
			"stateMutability": "view",
			"type": "function"
		},
		{
			"constant": false,
			"inputs": [
				{
					"name": "hashes",
					"type": "bytes32[]"
				},
				{
					"name": "sealedBid",
					"type": "bytes32"
				}
			],
			"name": "startAuctionsAndBid",
			"outputs": [],
			"payable": true,
			"stateMutability": "payable",
			"type": "function"
		},
		{
			"inputs": [
				{
					"name": "_ens",
					"type": "address"
				},
				{
					"name": "_rootNode",
					"type": "bytes32"
				},
				{
					"name": "_startDate",
					"type": "uint256"
				}
			],
			"payable": false,
			"stateMutability": "nonpayable",
			"type": "constructor"
		},
		{
			"anonymous": false,
			"inputs": [
				{
					"indexed": true,
					"name": "hash",
					"type": "bytes32"
				},
				{
					"indexed": false,
					"name": "registrationDate",
					"type": "uint256"
				}
			],
			"name": "AuctionStarted",
			"type": "event"
		},
		{
			"anonymous": false,
			"inputs": [
				{
					"indexed": true,
					"name": "hash",
					"type": "bytes32"
				},
				{
					"indexed": true,
					"name": "bidder",
					"type": "address"
				},
				{
					"indexed": false,
					"name": "deposit",
					"type": "uint256"
				}
			],
			"name": "NewBid",
			"type": "event"
		},
		{
			"anonymous": false,
			"inputs": [
				{
					"indexed": true,
					"name": "hash",
					"type": "bytes32"
				},
				{
					"indexed": true,
					"name": "owner",
					"type": "address"
				},
				{
					"indexed": false,
					"name": "value",
					"type": "uint256"
				},
				{
					"indexed": false,
					"name": "status",
					"type": "uint8"
				}
			],
			"name": "BidRevealed",
			"type": "event"
		},
		{
			"anonymous": false,
			"inputs": [
				{
					"indexed": true,
					"name": "hash",
					"type": "bytes32"
				},
				{
					"indexed": true,
					"name": "owner",
					"type": "address"
				},
				{
					"indexed": false,
					"name": "value",
					"type": "uint256"
				},
				{
					"indexed": false,
					"name": "registrationDate",
					"type": "uint256"
				}
			],
			"name": "HashRegistered",
			"type": "event"
		},
		{
			"anonymous": false,
			"inputs": [
				{
					"indexed": true,
					"name": "hash",
					"type": "bytes32"
				},
				{
					"indexed": false,
					"name": "value",
					"type": "uint256"
				}
			],
			"name": "HashReleased",
			"type": "event"
		},
		{
			"anonymous": false,
			"inputs": [
				{
					"indexed": true,
					"name": "hash",
					"type": "bytes32"
				},
				{
					"indexed": true,
					"name": "name",
					"type": "string"
				},
				{
					"indexed": false,
					"name": "value",
					"type": "uint256"
				},
				{
					"indexed": false,
					"name": "registrationDate",
					"type": "uint256"
				}
			],
			"name": "HashInvalidated",
			"type": "event"
		}
	]
}