{
	"data": {
		"bytecode": {
			"linkReferences": {},
			"object": "608060405234801561001057600080fd5b506040516040806108c7833981016040818152825160209384015160008054600160a060020a03808516600160a060020a031992831617808455600180548387169416939093179092557f02571be30000000000000000000000000000000000000000000000000000000087527f91d1777781884d03a6757a803996e38de2a42967fb37eeaca72729271025a9e26004880152945193969295919416926302571be39260248084019391929182900301818787803b1580156100d157600080fd5b505af11580156100e5573d6000803e3d6000fd5b505050506040513d60208110156100fb57600080fd5b50519050600160a060020a0381161561019c57604080517f1e83409a0000000000000000000000000000000000000000000000000000000081523360048201529051600160a060020a03831691631e83409a9160248083019260209291908290030181600087803b15801561016f57600080fd5b505af1158015610183573d6000803e3d6000fd5b505050506040513d602081101561019957600080fd5b50505b505050610719806101ae6000396000f3006080604052600436106100775763ffffffff7c01000000000000000000000000000000000000000000000000000000006000350416630f5a5466811461007c5780631e83409a146100b55780633f15457f146100d6578063828eab0e14610107578063bffbe61c1461011c578063c47f00271461013d575b600080fd5b34801561008857600080fd5b506100a3600160a060020a0360043581169060243516610196565b60408051918252519081900360200190f35b3480156100c157600080fd5b506100a3600160a060020a03600435166104f9565b3480156100e257600080fd5b506100eb61050c565b60408051600160a060020a039092168252519081900360200190f35b34801561011357600080fd5b506100eb61051b565b34801561012857600080fd5b506100a3600160a060020a036004351661052a565b34801561014957600080fd5b506040805160206004803580820135601f81018490048402850184019095528484526100a39436949293602493928401919081908401838280828437509497506105629650505050505050565b6000806000806101a53361066f565b604080516000805160206106ce8339815191528152602080820184905282519182900383018220600080547f02571be3000000000000000000000000000000000000000000000000000000008552600485018390529451959850909650600160a060020a03909316936302571be3936024808501948390030190829087803b15801561023057600080fd5b505af1158015610244573d6000803e3d6000fd5b505050506040513d602081101561025a57600080fd5b50519050600160a060020a03851615801590610315575060008054604080517f0178b8bf000000000000000000000000000000000000000000000000000000008152600481018690529051600160a060020a0390921692630178b8bf926024808401936020939083900390910190829087803b1580156102d957600080fd5b505af11580156102ed573d6000803e3d6000fd5b505050506040513d602081101561030357600080fd5b5051600160a060020a03868116911614155b1561044557600160a060020a03811630146103c15760008054604080517f06ab59230000000000000000000000000000000000000000000000000000000081526000805160206106ce8339815191526004820152602481018790523060448201529051600160a060020a03909216926306ab59239260648084019382900301818387803b1580156103a557600080fd5b505af11580156103b9573d6000803e3d6000fd5b505050503090505b60008054604080517f1896f70a00000000000000000000000000000000000000000000000000000000815260048101869052600160a060020a03898116602483015291519190921692631896f70a926044808201939182900301818387803b15801561042c57600080fd5b505af1158015610440573d6000803e3d6000fd5b505050505b600160a060020a03818116908716146104f05760008054604080517f06ab59230000000000000000000000000000000000000000000000000000000081526000805160206106ce833981519152600482015260248101879052600160a060020a038a81166044830152915191909216926306ab5923926064808201939182900301818387803b1580156104d757600080fd5b505af11580156104eb573d6000803e3d6000fd5b505050505b50949350505050565b6000610506826000610196565b92915050565b600054600160a060020a031681565b600154600160a060020a031681565b60006000805160206106ce8339815191526105448361066f565b60408051928352602083019190915280519182900301902092915050565b600154600090819061057e903090600160a060020a0316610196565b600154604080517f773722130000000000000000000000000000000000000000000000000000000081526004810184815260248201928352875160448301528751949550600160a060020a0390931693637737221393869389939192909160640190602085019080838360005b838110156106035781810151838201526020016105eb565b50505050905090810190601f1680156106305780820380516001836020036101000a031916815260200191505b509350505050600060405180830381600087803b15801561065057600080fd5b505af1158015610664573d6000803e3d6000fd5b509295945050505050565b60007f303132333435363738396162636465660000000000000000000000000000000060285b60001901600f841682901a815360109093049260001901600f841682901a815360108404935080610695575050602860002092915050560091d1777781884d03a6757a803996e38de2a42967fb37eeaca72729271025a9e2a165627a7a72305820520e6a64443a43e216c00dbf05db851f1cba6370fec1753b18307a9e6995ff150029",
			"opcodes": "PUSH1 0x80 PUSH1 0x40 MSTORE CALLVALUE DUP1 ISZERO PUSH2 0x10 JUMPI PUSH1 0x0 DUP1 REVERT JUMPDEST POP PUSH1 0x40 MLOAD PUSH1 0x40 DUP1 PUSH2 0x8C7 DUP4 CODECOPY DUP2 ADD PUSH1 0x40 DUP2 DUP2 MSTORE DUP3 MLOAD PUSH1 0x20 SWAP4 DUP5 ADD MLOAD PUSH1 0x0 DUP1 SLOAD PUSH1 0x1 PUSH1 0xA0 PUSH1 0x2 EXP SUB DUP1 DUP6 AND PUSH1 0x1 PUSH1 0xA0 PUSH1 0x2 EXP SUB NOT SWAP3 DUP4 AND OR DUP1 DUP5 SSTORE PUSH1 0x1 DUP1 SLOAD DUP4 DUP8 AND SWAP5 AND SWAP4 SWAP1 SWAP4 OR SWAP1 SWAP3 SSTORE PUSH32 0x2571BE300000000000000000000000000000000000000000000000000000000 DUP8 MSTORE PUSH32 0x91D1777781884D03A6757A803996E38DE2A42967FB37EEACA72729271025A9E2 PUSH1 0x4 DUP9 ADD MSTORE SWAP5 MLOAD SWAP4 SWAP7 SWAP3 SWAP6 SWAP2 SWAP5 AND SWAP3 PUSH4 0x2571BE3 SWAP3 PUSH1 0x24 DUP1 DUP5 ADD SWAP4 SWAP2 SWAP3 SWAP2 DUP3 SWAP1 SUB ADD DUP2 DUP8 DUP8 DUP1 EXTCODESIZE ISZERO DUP1 ISZERO PUSH2 0xD1 JUMPI PUSH1 0x0 DUP1 REVERT JUMPDEST POP GAS CALL ISZERO DUP1 ISZERO PUSH2 0xE5 JUMPI RETURNDATASIZE PUSH1 0x0 DUP1 RETURNDATACOPY RETURNDATASIZE PUSH1 0x0 REVERT JUMPDEST POP POP POP POP PUSH1 0x40 MLOAD RETURNDATASIZE PUSH1 0x20 DUP2 LT ISZERO PUSH2 0xFB JUMPI PUSH1 0x0 DUP1 REVERT JUMPDEST POP MLOAD SWAP1 POP PUSH1 0x1 PUSH1 0xA0 PUSH1 0x2 EXP SUB DUP2 AND ISZERO PUSH2 0x19C JUMPI PUSH1 0x40 DUP1 MLOAD PUSH32 0x1E83409A00000000000000000000000000000000000000000000000000000000 DUP2 MSTORE CALLER PUSH1 0x4 DUP3 ADD MSTORE SWAP1 MLOAD PUSH1 0x1 PUSH1 0xA0 PUSH1 0x2 EXP SUB DUP4 AND SWAP2 PUSH4 0x1E83409A SWAP2 PUSH1 0x24 DUP1 DUP4 ADD SWAP3 PUSH1 0x20 SWAP3 SWAP2 SWAP1 DUP3 SWAP1 SUB ADD DUP2 PUSH1 0x0 DUP8 DUP1 EXTCODESIZE ISZERO DUP1 ISZERO PUSH2 0x16F JUMPI PUSH1 0x0 DUP1 REVERT JUMPDEST POP GAS CALL ISZERO DUP1 ISZERO PUSH2 0x183 JUMPI RETURNDATASIZE PUSH1 0x0 DUP1 RETURNDATACOPY RETURNDATASIZE PUSH1 0x0 REVERT JUMPDEST POP POP POP POP PUSH1 0x40 MLOAD RETURNDATASIZE PUSH1 0x20 DUP2 LT ISZERO PUSH2 0x199 JUMPI PUSH1 0x0 DUP1 REVERT JUMPDEST POP POP JUMPDEST POP POP POP PUSH2 0x719 DUP1 PUSH2 0x1AE PUSH1 0x0 CODECOPY PUSH1 0x0 RETURN STOP PUSH1 0x80 PUSH1 0x40 MSTORE PUSH1 0x4 CALLDATASIZE LT PUSH2 0x77 JUMPI PUSH4 0xFFFFFFFF PUSH29 0x100000000000000000000000000000000000000000000000000000000 PUSH1 0x0 CALLDATALOAD DIV AND PUSH4 0xF5A5466 DUP2 EQ PUSH2 0x7C JUMPI DUP1 PUSH4 0x1E83409A EQ PUSH2 0xB5 JUMPI DUP1 PUSH4 0x3F15457F EQ PUSH2 0xD6 JUMPI DUP1 PUSH4 0x828EAB0E EQ PUSH2 0x107 JUMPI DUP1 PUSH4 0xBFFBE61C EQ PUSH2 0x11C JUMPI DUP1 PUSH4 0xC47F0027 EQ PUSH2 0x13D JUMPI JUMPDEST PUSH1 0x0 DUP1 REVERT JUMPDEST CALLVALUE DUP1 ISZERO PUSH2 0x88 JUMPI PUSH1 0x0 DUP1 REVERT JUMPDEST POP PUSH2 0xA3 PUSH1 0x1 PUSH1 0xA0 PUSH1 0x2 EXP SUB PUSH1 0x4 CALLDATALOAD DUP2 AND SWAP1 PUSH1 0x24 CALLDATALOAD AND PUSH2 0x196 JUMP JUMPDEST PUSH1 0x40 DUP1 MLOAD SWAP2 DUP3 MSTORE MLOAD SWAP1 DUP2 SWAP1 SUB PUSH1 0x20 ADD SWAP1 RETURN JUMPDEST CALLVALUE DUP1 ISZERO PUSH2 0xC1 JUMPI PUSH1 0x0 DUP1 REVERT JUMPDEST POP PUSH2 0xA3 PUSH1 0x1 PUSH1 0xA0 PUSH1 0x2 EXP SUB PUSH1 0x4 CALLDATALOAD AND PUSH2 0x4F9 JUMP JUMPDEST CALLVALUE DUP1 ISZERO PUSH2 0xE2 JUMPI PUSH1 0x0 DUP1 REVERT JUMPDEST POP PUSH2 0xEB PUSH2 0x50C JUMP JUMPDEST PUSH1 0x40 DUP1 MLOAD PUSH1 0x1 PUSH1 0xA0 PUSH1 0x2 EXP SUB SWAP1 SWAP3 AND DUP3 MSTORE MLOAD SWAP1 DUP2 SWAP1 SUB PUSH1 0x20 ADD SWAP1 RETURN JUMPDEST CALLVALUE DUP1 ISZERO PUSH2 0x113 JUMPI PUSH1 0x0 DUP1 REVERT JUMPDEST POP PUSH2 0xEB PUSH2 0x51B JUMP JUMPDEST CALLVALUE DUP1 ISZERO PUSH2 0x128 JUMPI PUSH1 0x0 DUP1 REVERT JUMPDEST POP PUSH2 0xA3 PUSH1 0x1 PUSH1 0xA0 PUSH1 0x2 EXP SUB PUSH1 0x4 CALLDATALOAD AND PUSH2 0x52A JUMP JUMPDEST CALLVALUE DUP1 ISZERO PUSH2 0x149 JUMPI PUSH1 0x0 DUP1 REVERT JUMPDEST POP PUSH1 0x40 DUP1 MLOAD PUSH1 0x20 PUSH1 0x4 DUP1 CALLDATALOAD DUP1 DUP3 ADD CALLDATALOAD PUSH1 0x1F DUP2 ADD DUP5 SWAP1 DIV DUP5 MUL DUP6 ADD DUP5 ADD SWAP1 SWAP6 MSTORE DUP5 DUP5 MSTORE PUSH2 0xA3 SWAP5 CALLDATASIZE SWAP5 SWAP3 SWAP4 PUSH1 0x24 SWAP4 SWAP3 DUP5 ADD SWAP2 SWAP1 DUP2 SWAP1 DUP5 ADD DUP4 DUP3 DUP1 DUP3 DUP5 CALLDATACOPY POP SWAP5 SWAP8 POP PUSH2 0x562 SWAP7 POP POP POP POP POP POP POP JUMP JUMPDEST PUSH1 0x0 DUP1 PUSH1 0x0 DUP1 PUSH2 0x1A5 CALLER PUSH2 0x66F JUMP JUMPDEST PUSH1 0x40 DUP1 MLOAD PUSH1 0x0 DUP1 MLOAD PUSH1 0x20 PUSH2 0x6CE DUP4 CODECOPY DUP2 MLOAD SWAP2 MSTORE DUP2 MSTORE PUSH1 0x20 DUP1 DUP3 ADD DUP5 SWAP1 MSTORE DUP3 MLOAD SWAP2 DUP3 SWAP1 SUB DUP4 ADD DUP3 KECCAK256 PUSH1 0x0 DUP1 SLOAD PUSH32 0x2571BE300000000000000000000000000000000000000000000000000000000 DUP6 MSTORE PUSH1 0x4 DUP6 ADD DUP4 SWAP1 MSTORE SWAP5 MLOAD SWAP6 SWAP9 POP SWAP1 SWAP7 POP PUSH1 0x1 PUSH1 0xA0 PUSH1 0x2 EXP SUB SWAP1 SWAP4 AND SWAP4 PUSH4 0x2571BE3 SWAP4 PUSH1 0x24 DUP1 DUP6 ADD SWAP5 DUP4 SWAP1 SUB ADD SWAP1 DUP3 SWAP1 DUP8 DUP1 EXTCODESIZE ISZERO DUP1 ISZERO PUSH2 0x230 JUMPI PUSH1 0x0 DUP1 REVERT JUMPDEST POP GAS CALL ISZERO DUP1 ISZERO PUSH2 0x244 JUMPI RETURNDATASIZE PUSH1 0x0 DUP1 RETURNDATACOPY RETURNDATASIZE PUSH1 0x0 REVERT JUMPDEST POP POP POP POP PUSH1 0x40 MLOAD RETURNDATASIZE PUSH1 0x20 DUP2 LT ISZERO PUSH2 0x25A JUMPI PUSH1 0x0 DUP1 REVERT JUMPDEST POP MLOAD SWAP1 POP PUSH1 0x1 PUSH1 0xA0 PUSH1 0x2 EXP SUB DUP6 AND ISZERO DUP1 ISZERO SWAP1 PUSH2 0x315 JUMPI POP PUSH1 0x0 DUP1 SLOAD PUSH1 0x40 DUP1 MLOAD PUSH32 0x178B8BF00000000000000000000000000000000000000000000000000000000 DUP2 MSTORE PUSH1 0x4 DUP2 ADD DUP7 SWAP1 MSTORE SWAP1 MLOAD PUSH1 0x1 PUSH1 0xA0 PUSH1 0x2 EXP SUB SWAP1 SWAP3 AND SWAP3 PUSH4 0x178B8BF SWAP3 PUSH1 0x24 DUP1 DUP5 ADD SWAP4 PUSH1 0x20 SWAP4 SWAP1 DUP4 SWAP1 SUB SWAP1 SWAP2 ADD SWAP1 DUP3 SWAP1 DUP8 DUP1 EXTCODESIZE ISZERO DUP1 ISZERO PUSH2 0x2D9 JUMPI PUSH1 0x0 DUP1 REVERT JUMPDEST POP GAS CALL ISZERO DUP1 ISZERO PUSH2 0x2ED JUMPI RETURNDATASIZE PUSH1 0x0 DUP1 RETURNDATACOPY RETURNDATASIZE PUSH1 0x0 REVERT JUMPDEST POP POP POP POP PUSH1 0x40 MLOAD RETURNDATASIZE PUSH1 0x20 DUP2 LT ISZERO PUSH2 0x303 JUMPI PUSH1 0x0 DUP1 REVERT JUMPDEST POP MLOAD PUSH1 0x1 PUSH1 0xA0 PUSH1 0x2 EXP SUB DUP7 DUP2 AND SWAP2 AND EQ ISZERO JUMPDEST ISZERO PUSH2 0x445 JUMPI PUSH1 0x1 PUSH1 0xA0 PUSH1 0x2 EXP SUB DUP2 AND ADDRESS EQ PUSH2 0x3C1 JUMPI PUSH1 0x0 DUP1 SLOAD PUSH1 0x40 DUP1 MLOAD PUSH32 0x6AB592300000000000000000000000000000000000000000000000000000000 DUP2 MSTORE PUSH1 0x0 DUP1 MLOAD PUSH1 0x20 PUSH2 0x6CE DUP4 CODECOPY DUP2 MLOAD SWAP2 MSTORE PUSH1 0x4 DUP3 ADD MSTORE PUSH1 0x24 DUP2 ADD DUP8 SWAP1 MSTORE ADDRESS PUSH1 0x44 DUP3 ADD MSTORE SWAP1 MLOAD PUSH1 0x1 PUSH1 0xA0 PUSH1 0x2 EXP SUB SWAP1 SWAP3 AND SWAP3 PUSH4 0x6AB5923 SWAP3 PUSH1 0x64 DUP1 DUP5 ADD SWAP4 DUP3 SWAP1 SUB ADD DUP2 DUP4 DUP8 DUP1 EXTCODESIZE ISZERO DUP1 ISZERO PUSH2 0x3A5 JUMPI PUSH1 0x0 DUP1 REVERT JUMPDEST POP GAS CALL ISZERO DUP1 ISZERO PUSH2 0x3B9 JUMPI RETURNDATASIZE PUSH1 0x0 DUP1 RETURNDATACOPY RETURNDATASIZE PUSH1 0x0 REVERT JUMPDEST POP POP POP POP ADDRESS SWAP1 POP JUMPDEST PUSH1 0x0 DUP1 SLOAD PUSH1 0x40 DUP1 MLOAD PUSH32 0x1896F70A00000000000000000000000000000000000000000000000000000000 DUP2 MSTORE PUSH1 0x4 DUP2 ADD DUP7 SWAP1 MSTORE PUSH1 0x1 PUSH1 0xA0 PUSH1 0x2 EXP SUB DUP10 DUP2 AND PUSH1 0x24 DUP4 ADD MSTORE SWAP2 MLOAD SWAP2 SWAP1 SWAP3 AND SWAP3 PUSH4 0x1896F70A SWAP3 PUSH1 0x44 DUP1 DUP3 ADD SWAP4 SWAP2 DUP3 SWAP1 SUB ADD DUP2 DUP4 DUP8 DUP1 EXTCODESIZE ISZERO DUP1 ISZERO PUSH2 0x42C JUMPI PUSH1 0x0 DUP1 REVERT JUMPDEST POP GAS CALL ISZERO DUP1 ISZERO PUSH2 0x440 JUMPI RETURNDATASIZE PUSH1 0x0 DUP1 RETURNDATACOPY RETURNDATASIZE PUSH1 0x0 REVERT JUMPDEST POP POP POP POP JUMPDEST PUSH1 0x1 PUSH1 0xA0 PUSH1 0x2 EXP SUB DUP2 DUP2 AND SWAP1 DUP8 AND EQ PUSH2 0x4F0 JUMPI PUSH1 0x0 DUP1 SLOAD PUSH1 0x40 DUP1 MLOAD PUSH32 0x6AB592300000000000000000000000000000000000000000000000000000000 DUP2 MSTORE PUSH1 0x0 DUP1 MLOAD PUSH1 0x20 PUSH2 0x6CE DUP4 CODECOPY DUP2 MLOAD SWAP2 MSTORE PUSH1 0x4 DUP3 ADD MSTORE PUSH1 0x24 DUP2 ADD DUP8 SWAP1 MSTORE PUSH1 0x1 PUSH1 0xA0 PUSH1 0x2 EXP SUB DUP11 DUP2 AND PUSH1 0x44 DUP4 ADD MSTORE SWAP2 MLOAD SWAP2 SWAP1 SWAP3 AND SWAP3 PUSH4 0x6AB5923 SWAP3 PUSH1 0x64 DUP1 DUP3 ADD SWAP4 SWAP2 DUP3 SWAP1 SUB ADD DUP2 DUP4 DUP8 DUP1 EXTCODESIZE ISZERO DUP1 ISZERO PUSH2 0x4D7 JUMPI PUSH1 0x0 DUP1 REVERT JUMPDEST POP GAS CALL ISZERO DUP1 ISZERO PUSH2 0x4EB JUMPI RETURNDATASIZE PUSH1 0x0 DUP1 RETURNDATACOPY RETURNDATASIZE PUSH1 0x0 REVERT JUMPDEST POP POP POP POP JUMPDEST POP SWAP5 SWAP4 POP POP POP POP JUMP JUMPDEST PUSH1 0x0 PUSH2 0x506 DUP3 PUSH1 0x0 PUSH2 0x196 JUMP JUMPDEST SWAP3 SWAP2 POP POP JUMP JUMPDEST PUSH1 0x0 SLOAD PUSH1 0x1 PUSH1 0xA0 PUSH1 0x2 EXP SUB AND DUP2 JUMP JUMPDEST PUSH1 0x1 SLOAD PUSH1 0x1 PUSH1 0xA0 PUSH1 0x2 EXP SUB AND DUP2 JUMP JUMPDEST PUSH1 0x0 PUSH1 0x0 DUP1 MLOAD PUSH1 0x20 PUSH2 0x6CE DUP4 CODECOPY DUP2 MLOAD SWAP2 MSTORE PUSH2 0x544 DUP4 PUSH2 0x66F JUMP JUMPDEST PUSH1 0x40 DUP1 MLOAD SWAP3 DUP4 MSTORE PUSH1 0x20 DUP4 ADD SWAP2 SWAP1 SWAP2 MSTORE DUP1 MLOAD SWAP2 DUP3 SWAP1 SUB ADD SWAP1 KECCAK256 SWAP3 SWAP2 POP POP JUMP JUMPDEST PUSH1 0x1 SLOAD PUSH1 0x0 SWAP1 DUP2 SWAP1 PUSH2 0x57E SWAP1 ADDRESS SWAP1 PUSH1 0x1 PUSH1 0xA0 PUSH1 0x2 EXP SUB AND PUSH2 0x196 JUMP JUMPDEST PUSH1 0x1 SLOAD PUSH1 0x40 DUP1 MLOAD PUSH32 0x7737221300000000000000000000000000000000000000000000000000000000 DUP2 MSTORE PUSH1 0x4 DUP2 ADD DUP5 DUP2 MSTORE PUSH1 0x24 DUP3 ADD SWAP3 DUP4 MSTORE DUP8 MLOAD PUSH1 0x44 DUP4 ADD MSTORE DUP8 MLOAD SWAP5 SWAP6 POP PUSH1 0x1 PUSH1 0xA0 PUSH1 0x2 EXP SUB SWAP1 SWAP4 AND SWAP4 PUSH4 0x77372213 SWAP4 DUP7 SWAP4 DUP10 SWAP4 SWAP2 SWAP3 SWAP1 SWAP2 PUSH1 0x64 ADD SWAP1 PUSH1 0x20 DUP6 ADD SWAP1 DUP1 DUP4 DUP4 PUSH1 0x0 JUMPDEST DUP4 DUP2 LT ISZERO PUSH2 0x603 JUMPI DUP2 DUP2 ADD MLOAD DUP4 DUP3 ADD MSTORE PUSH1 0x20 ADD PUSH2 0x5EB JUMP JUMPDEST POP POP POP POP SWAP1 POP SWAP1 DUP2 ADD SWAP1 PUSH1 0x1F AND DUP1 ISZERO PUSH2 0x630 JUMPI DUP1 DUP3 SUB DUP1 MLOAD PUSH1 0x1 DUP4 PUSH1 0x20 SUB PUSH2 0x100 EXP SUB NOT AND DUP2 MSTORE PUSH1 0x20 ADD SWAP2 POP JUMPDEST POP SWAP4 POP POP POP POP PUSH1 0x0 PUSH1 0x40 MLOAD DUP1 DUP4 SUB DUP2 PUSH1 0x0 DUP8 DUP1 EXTCODESIZE ISZERO DUP1 ISZERO PUSH2 0x650 JUMPI PUSH1 0x0 DUP1 REVERT JUMPDEST POP GAS CALL ISZERO DUP1 ISZERO PUSH2 0x664 JUMPI RETURNDATASIZE PUSH1 0x0 DUP1 RETURNDATACOPY RETURNDATASIZE PUSH1 0x0 REVERT JUMPDEST POP SWAP3 SWAP6 SWAP5 POP POP POP POP POP JUMP JUMPDEST PUSH1 0x0 PUSH32 0x3031323334353637383961626364656600000000000000000000000000000000 PUSH1 0x28 JUMPDEST PUSH1 0x0 NOT ADD PUSH1 0xF DUP5 AND DUP3 SWAP1 BYTE DUP2 MSTORE8 PUSH1 0x10 SWAP1 SWAP4 DIV SWAP3 PUSH1 0x0 NOT ADD PUSH1 0xF DUP5 AND DUP3 SWAP1 BYTE DUP2 MSTORE8 PUSH1 0x10 DUP5 DIV SWAP4 POP DUP1 PUSH2 0x695 JUMPI POP POP PUSH1 0x28 PUSH1 0x0 KECCAK256 SWAP3 SWAP2 POP POP JUMP STOP SWAP2 0xd1 PUSH24 0x7781884D03A6757A803996E38DE2A42967FB37EEACA72729 0x27 LT 0x25 0xa9 0xe2 LOG1 PUSH6 0x627A7A723058 KECCAK256 MSTORE 0xe PUSH11 0x64443A43E216C00DBF05DB DUP6 0x1f SHR 0xba PUSH4 0x70FEC175 EXTCODESIZE XOR ADDRESS PUSH27 0x9E6995FF1500290000000000000000000000000000000000000000 "
		},
		"gasEstimates": {
			"creation": {
				"codeDepositCost": "363400",
				"executionCost": "infinite",
				"totalCost": "infinite"
			},
			"external": {
				"claim(address)": "infinite",
				"claimWithResolver(address,address)": "infinite",
				"defaultResolver()": "603",
				"ens()": "581",
				"node(address)": "infinite",
				"setName(string)": "infinite"
			},
			"internal": {
				"sha3HexAddress(address)": "infinite"
			}
		},
		"methodIdentifiers": {
			"claim(address)": "1e83409a",
			"claimWithResolver(address,address)": "0f5a5466",
			"defaultResolver()": "828eab0e",
			"ens()": "3f15457f",
			"node(address)": "bffbe61c",
			"setName(string)": "c47f0027"
		}
	},
	"abi": [
		{
			"constant": false,
			"inputs": [
				{
					"name": "owner",
					"type": "address"
				},
				{
					"name": "resolver",
					"type": "address"
				}
			],
			"name": "claimWithResolver",
			"outputs": [
				{
					"name": "",
					"type": "bytes32"
				}
			],
			"payable": false,
			"stateMutability": "nonpayable",
			"type": "function"
		},
		{
			"constant": false,
			"inputs": [
				{
					"name": "owner",
					"type": "address"
				}
			],
			"name": "claim",
			"outputs": [
				{
					"name": "",
					"type": "bytes32"
				}
			],
			"payable": false,
			"stateMutability": "nonpayable",
			"type": "function"
		},
		{
			"constant": true,
			"inputs": [],
			"name": "ens",
			"outputs": [
				{
					"name": "",
					"type": "address"
				}
			],
			"payable": false,
			"stateMutability": "view",
			"type": "function"
		},
		{
			"constant": true,
			"inputs": [],
			"name": "defaultResolver",
			"outputs": [
				{
					"name": "",
					"type": "address"
				}
			],
			"payable": false,
			"stateMutability": "view",
			"type": "function"
		},
		{
			"constant": true,
			"inputs": [
				{
					"name": "addr",
					"type": "address"
				}
			],
			"name": "node",
			"outputs": [
				{
					"name": "",
					"type": "bytes32"
				}
			],
			"payable": false,
			"stateMutability": "view",
			"type": "function"
		},
		{
			"constant": false,
			"inputs": [
				{
					"name": "name",
					"type": "string"
				}
			],
			"name": "setName",
			"outputs": [
				{
					"name": "",
					"type": "bytes32"
				}
			],
			"payable": false,
			"stateMutability": "nonpayable",
			"type": "function"
		},
		{
			"inputs": [
				{
					"name": "ensAddr",
					"type": "address"
				},
				{
					"name": "resolverAddr",
					"type": "address"
				}
			],
			"payable": false,
			"stateMutability": "nonpayable",
			"type": "constructor"
		}
	]
}