{
	"artifacts/Educationdegreevericication.sol": {
		"EducationVerification": {
			"abi": [
				{
					"inputs": [
						{
							"internalType": "address",
							"name": "user",
							"type": "address"
						},
						{
							"internalType": "string",
							"name": "name",
							"type": "string"
						},
						{
							"internalType": "string",
							"name": "issuer",
							"type": "string"
						}
					],
					"name": "issueCredential",
					"outputs": [],
					"stateMutability": "nonpayable",
					"type": "function"
				},
				{
					"inputs": [
						{
							"internalType": "address",
							"name": "",
							"type": "address"
						},
						{
							"internalType": "uint256",
							"name": "",
							"type": "uint256"
						}
					],
					"name": "userCredentials",
					"outputs": [
						{
							"internalType": "string",
							"name": "name",
							"type": "string"
						},
						{
							"internalType": "string",
							"name": "issuer",
							"type": "string"
						},
						{
							"internalType": "bool",
							"name": "verified",
							"type": "bool"
						}
					],
					"stateMutability": "view",
					"type": "function"
				}
			],
			"devdoc": {
				"kind": "dev",
				"methods": {},
				"version": 1
			},
			"evm": {
				"assembly": "    /* \"artifacts/Educationdegreevericication.sol\":27:401  contract EducationVerification {... */\n  mstore(0x40, 0x80)\n  callvalue\n  dup1\n  iszero\n  tag_1\n  jumpi\n  0x00\n  dup1\n  revert\ntag_1:\n  pop\n  dataSize(sub_0)\n  dup1\n  dataOffset(sub_0)\n  0x00\n  codecopy\n  0x00\n  return\nstop\n\nsub_0: assembly {\n        /* \"artifacts/Educationdegreevericication.sol\":27:401  contract EducationVerification {... */\n      mstore(0x40, 0x80)\n      callvalue\n      dup1\n      iszero\n      tag_1\n      jumpi\n      0x00\n      dup1\n      revert\n    tag_1:\n      pop\n      jumpi(tag_2, lt(calldatasize, 0x04))\n      shr(0xe0, calldataload(0x00))\n      dup1\n      0x9364ace9\n      eq\n      tag_3\n      jumpi\n      dup1\n      0x9f4ed4fb\n      eq\n      tag_4\n      jumpi\n    tag_2:\n      0x00\n      dup1\n      revert\n        /* \"artifacts/Educationdegreevericication.sol\":169:224  mapping(address => Credential[]) public userCredentials */\n    tag_3:\n      tag_5\n      tag_6\n      calldatasize\n      0x04\n      tag_7\n      jump\t// in\n    tag_6:\n      tag_8\n      jump\t// in\n    tag_5:\n      mload(0x40)\n      tag_9\n      swap4\n      swap3\n      swap2\n      swap1\n      tag_10\n      jump\t// in\n    tag_9:\n      mload(0x40)\n      dup1\n      swap2\n      sub\n      swap1\n      return\n        /* \"artifacts/Educationdegreevericication.sol\":233:398  function issueCredential(address user, string memory name, string memory issuer) public {... */\n    tag_4:\n      tag_11\n      tag_12\n      calldatasize\n      0x04\n      tag_13\n      jump\t// in\n    tag_12:\n      tag_14\n      jump\t// in\n    tag_11:\n      stop\n        /* \"artifacts/Educationdegreevericication.sol\":169:224  mapping(address => Credential[]) public userCredentials */\n    tag_8:\n      mstore(0x20, 0x00)\n      dup2\n      0x00\n      mstore\n      keccak256(0x00, 0x40)\n      dup2\n      dup2\n      sload\n      dup2\n      lt\n      tag_15\n      jumpi\n      0x00\n      dup1\n      revert\n    tag_15:\n      swap1\n      0x00\n      mstore\n      keccak256(0x00, 0x20)\n      swap1\n      0x03\n      mul\n      add\n      0x00\n      swap2\n      pop\n      swap2\n      pop\n      pop\n      dup1\n      0x00\n      add\n      dup1\n      sload\n      tag_17\n      swap1\n      tag_18\n      jump\t// in\n    tag_17:\n      dup1\n      0x1f\n      add\n      0x20\n      dup1\n      swap2\n      div\n      mul\n      0x20\n      add\n      mload(0x40)\n      swap1\n      dup2\n      add\n      0x40\n      mstore\n      dup1\n      swap3\n      swap2\n      swap1\n      dup2\n      dup2\n      mstore\n      0x20\n      add\n      dup3\n      dup1\n      sload\n      tag_19\n      swap1\n      tag_18\n      jump\t// in\n    tag_19:\n      dup1\n      iszero\n      tag_20\n      jumpi\n      dup1\n      0x1f\n      lt\n      tag_21\n      jumpi\n      0x0100\n      dup1\n      dup4\n      sload\n      div\n      mul\n      dup4\n      mstore\n      swap2\n      0x20\n      add\n      swap2\n      jump(tag_20)\n    tag_21:\n      dup3\n      add\n      swap2\n      swap1\n      0x00\n      mstore\n      keccak256(0x00, 0x20)\n      swap1\n    tag_22:\n      dup2\n      sload\n      dup2\n      mstore\n      swap1\n      0x01\n      add\n      swap1\n      0x20\n      add\n      dup1\n      dup4\n      gt\n      tag_22\n      jumpi\n      dup3\n      swap1\n      sub\n      0x1f\n      and\n      dup3\n      add\n      swap2\n    tag_20:\n      pop\n      pop\n      pop\n      pop\n      pop\n      swap1\n      dup1\n      0x01\n      add\n      dup1\n      sload\n      tag_23\n      swap1\n      tag_18\n      jump\t// in\n    tag_23:\n      dup1\n      0x1f\n      add\n      0x20\n      dup1\n      swap2\n      div\n      mul\n      0x20\n      add\n      mload(0x40)\n      swap1\n      dup2\n      add\n      0x40\n      mstore\n      dup1\n      swap3\n      swap2\n      swap1\n      dup2\n      dup2\n      mstore\n      0x20\n      add\n      dup3\n      dup1\n      sload\n      tag_24\n      swap1\n      tag_18\n      jump\t// in\n    tag_24:\n      dup1\n      iszero\n      tag_25\n      jumpi\n      dup1\n      0x1f\n      lt\n      tag_26\n      jumpi\n      0x0100\n      dup1\n      dup4\n      sload\n      div\n      mul\n      dup4\n      mstore\n      swap2\n      0x20\n      add\n      swap2\n      jump(tag_25)\n    tag_26:\n      dup3\n      add\n      swap2\n      swap1\n      0x00\n      mstore\n      keccak256(0x00, 0x20)\n      swap1\n    tag_27:\n      dup2\n      sload\n      dup2\n      mstore\n      swap1\n      0x01\n      add\n      swap1\n      0x20\n      add\n      dup1\n      dup4\n      gt\n      tag_27\n      jumpi\n      dup3\n      swap1\n      sub\n      0x1f\n      and\n      dup3\n      add\n      swap2\n    tag_25:\n      pop\n      pop\n      pop\n      0x02\n      swap1\n      swap4\n      add\n      sload\n      swap2\n      swap3\n      pop\n      pop\n      0xff\n      and\n      dup4\n      jump\t// out\n        /* \"artifacts/Educationdegreevericication.sol\":233:398  function issueCredential(address user, string memory name, string memory issuer) public {... */\n    tag_14:\n      sub(shl(0xa0, 0x01), 0x01)\n        /* \"artifacts/Educationdegreevericication.sol\":332:353  userCredentials[user] */\n      dup4\n      and\n        /* \"artifacts/Educationdegreevericication.sol\":332:347  userCredentials */\n      0x00\n        /* \"artifacts/Educationdegreevericication.sol\":332:353  userCredentials[user] */\n      swap1\n      dup2\n      mstore\n      0x20\n      dup2\n      dup2\n      mstore\n      0x40\n      dup1\n      dup4\n      keccak256\n        /* \"artifacts/Educationdegreevericication.sol\":359:389  Credential(name, issuer, true) */\n      dup2\n      mload\n      0x60\n      dup2\n      add\n      dup4\n      mstore\n      dup7\n      dup2\n      mstore\n      dup1\n      dup5\n      add\n      dup7\n      swap1\n      mstore\n        /* \"artifacts/Educationdegreevericication.sol\":384:388  true */\n      0x01\n        /* \"artifacts/Educationdegreevericication.sol\":359:389  Credential(name, issuer, true) */\n      swap3\n      dup2\n      add\n      dup4\n      swap1\n      mstore\n        /* \"artifacts/Educationdegreevericication.sol\":332:390  userCredentials[user].push(Credential(name, issuer, true)) */\n      dup2\n      sload\n      swap3\n      dup4\n      add\n      dup3\n      sstore\n      swap1\n      dup5\n      mstore\n      swap2\n      swap1\n      swap3\n      keccak256\n      dup2\n      mload\n        /* \"artifacts/Educationdegreevericication.sol\":359:389  Credential(name, issuer, true) */\n      swap2\n      swap3\n        /* \"artifacts/Educationdegreevericication.sol\":332:390  userCredentials[user].push(Credential(name, issuer, true)) */\n      0x03\n      mul\n      add\n      swap1\n      dup2\n      swap1\n      tag_30\n      swap1\n      dup3\n      tag_31\n      jump\t// in\n    tag_30:\n      pop\n      0x20\n      dup3\n      add\n      mload\n      0x01\n      dup3\n      add\n      swap1\n      tag_32\n      swap1\n      dup3\n      tag_31\n      jump\t// in\n    tag_32:\n      pop\n      0x40\n      swap2\n      swap1\n      swap2\n      add\n      mload\n      0x02\n      swap1\n      swap2\n      add\n      dup1\n      sload\n      not(0xff)\n      and\n      swap2\n      iszero\n      iszero\n      swap2\n      swap1\n      swap2\n      or\n      swap1\n      sstore\n      pop\n      pop\n      pop\n        /* \"artifacts/Educationdegreevericication.sol\":233:398  function issueCredential(address user, string memory name, string memory issuer) public {... */\n      jump\t// out\n        /* \"#utility.yul\":14:187   */\n    tag_33:\n        /* \"#utility.yul\":82:102   */\n      dup1\n      calldataload\n      sub(shl(0xa0, 0x01), 0x01)\n        /* \"#utility.yul\":131:162   */\n      dup2\n      and\n        /* \"#utility.yul\":121:163   */\n      dup2\n      eq\n        /* \"#utility.yul\":111:181   */\n      tag_42\n      jumpi\n        /* \"#utility.yul\":177:178   */\n      0x00\n        /* \"#utility.yul\":174:175   */\n      dup1\n        /* \"#utility.yul\":167:179   */\n      revert\n        /* \"#utility.yul\":111:181   */\n    tag_42:\n        /* \"#utility.yul\":14:187   */\n      swap2\n      swap1\n      pop\n      jump\t// out\n        /* \"#utility.yul\":192:446   */\n    tag_7:\n        /* \"#utility.yul\":260:266   */\n      0x00\n        /* \"#utility.yul\":268:274   */\n      dup1\n        /* \"#utility.yul\":321:323   */\n      0x40\n        /* \"#utility.yul\":309:318   */\n      dup4\n        /* \"#utility.yul\":300:307   */\n      dup6\n        /* \"#utility.yul\":296:319   */\n      sub\n        /* \"#utility.yul\":292:324   */\n      slt\n        /* \"#utility.yul\":289:341   */\n      iszero\n      tag_44\n      jumpi\n        /* \"#utility.yul\":337:338   */\n      0x00\n        /* \"#utility.yul\":334:335   */\n      dup1\n        /* \"#utility.yul\":327:339   */\n      revert\n        /* \"#utility.yul\":289:341   */\n    tag_44:\n        /* \"#utility.yul\":360:389   */\n      tag_45\n        /* \"#utility.yul\":379:388   */\n      dup4\n        /* \"#utility.yul\":360:389   */\n      tag_33\n      jump\t// in\n    tag_45:\n        /* \"#utility.yul\":350:389   */\n      swap5\n        /* \"#utility.yul\":436:438   */\n      0x20\n        /* \"#utility.yul\":421:439   */\n      swap4\n      swap1\n      swap4\n      add\n        /* \"#utility.yul\":408:440   */\n      calldataload\n      swap4\n      pop\n      pop\n      pop\n        /* \"#utility.yul\":192:446   */\n      jump\t// out\n        /* \"#utility.yul\":451:740   */\n    tag_34:\n        /* \"#utility.yul\":493:496   */\n      0x00\n        /* \"#utility.yul\":531:536   */\n      dup2\n        /* \"#utility.yul\":525:537   */\n      mload\n        /* \"#utility.yul\":558:564   */\n      dup1\n        /* \"#utility.yul\":553:556   */\n      dup5\n        /* \"#utility.yul\":546:565   */\n      mstore\n        /* \"#utility.yul\":614:620   */\n      dup1\n        /* \"#utility.yul\":607:611   */\n      0x20\n        /* \"#utility.yul\":600:605   */\n      dup5\n        /* \"#utility.yul\":596:612   */\n      add\n        /* \"#utility.yul\":589:593   */\n      0x20\n        /* \"#utility.yul\":584:587   */\n      dup7\n        /* \"#utility.yul\":580:594   */\n      add\n        /* \"#utility.yul\":574:621   */\n      mcopy\n        /* \"#utility.yul\":666:667   */\n      0x00\n        /* \"#utility.yul\":659:663   */\n      0x20\n        /* \"#utility.yul\":650:656   */\n      dup3\n        /* \"#utility.yul\":645:648   */\n      dup7\n        /* \"#utility.yul\":641:657   */\n      add\n        /* \"#utility.yul\":637:664   */\n      add\n        /* \"#utility.yul\":630:668   */\n      mstore\n        /* \"#utility.yul\":729:733   */\n      0x20\n        /* \"#utility.yul\":722:724   */\n      0x1f\n        /* \"#utility.yul\":718:725   */\n      not\n        /* \"#utility.yul\":713:715   */\n      0x1f\n        /* \"#utility.yul\":705:711   */\n      dup4\n        /* \"#utility.yul\":701:716   */\n      add\n        /* \"#utility.yul\":697:726   */\n      and\n        /* \"#utility.yul\":692:695   */\n      dup6\n        /* \"#utility.yul\":688:727   */\n      add\n        /* \"#utility.yul\":684:734   */\n      add\n        /* \"#utility.yul\":677:734   */\n      swap2\n      pop\n      pop\n        /* \"#utility.yul\":451:740   */\n      swap3\n      swap2\n      pop\n      pop\n      jump\t// out\n        /* \"#utility.yul\":745:1209   */\n    tag_10:\n        /* \"#utility.yul\":964:966   */\n      0x60\n        /* \"#utility.yul\":953:962   */\n      dup2\n        /* \"#utility.yul\":946:967   */\n      mstore\n        /* \"#utility.yul\":927:931   */\n      0x00\n        /* \"#utility.yul\":990:1035   */\n      tag_48\n        /* \"#utility.yul\":1031:1033   */\n      0x60\n        /* \"#utility.yul\":1020:1029   */\n      dup4\n        /* \"#utility.yul\":1016:1034   */\n      add\n        /* \"#utility.yul\":1008:1014   */\n      dup7\n        /* \"#utility.yul\":990:1035   */\n      tag_34\n      jump\t// in\n    tag_48:\n        /* \"#utility.yul\":1083:1092   */\n      dup3\n        /* \"#utility.yul\":1075:1081   */\n      dup2\n        /* \"#utility.yul\":1071:1093   */\n      sub\n        /* \"#utility.yul\":1066:1068   */\n      0x20\n        /* \"#utility.yul\":1055:1064   */\n      dup5\n        /* \"#utility.yul\":1051:1069   */\n      add\n        /* \"#utility.yul\":1044:1094   */\n      mstore\n        /* \"#utility.yul\":1111:1144   */\n      tag_49\n        /* \"#utility.yul\":1137:1143   */\n      dup2\n        /* \"#utility.yul\":1129:1135   */\n      dup7\n        /* \"#utility.yul\":1111:1144   */\n      tag_34\n      jump\t// in\n    tag_49:\n        /* \"#utility.yul\":1103:1144   */\n      swap2\n      pop\n      pop\n        /* \"#utility.yul\":1194:1200   */\n      dup3\n        /* \"#utility.yul\":1187:1201   */\n      iszero\n        /* \"#utility.yul\":1180:1202   */\n      iszero\n        /* \"#utility.yul\":1175:1177   */\n      0x40\n        /* \"#utility.yul\":1164:1173   */\n      dup4\n        /* \"#utility.yul\":1160:1178   */\n      add\n        /* \"#utility.yul\":1153:1203   */\n      mstore\n        /* \"#utility.yul\":745:1209   */\n      swap5\n      swap4\n      pop\n      pop\n      pop\n      pop\n      jump\t// out\n        /* \"#utility.yul\":1214:1341   */\n    tag_35:\n        /* \"#utility.yul\":1275:1285   */\n      0x4e487b71\n        /* \"#utility.yul\":1270:1273   */\n      0xe0\n        /* \"#utility.yul\":1266:1286   */\n      shl\n        /* \"#utility.yul\":1263:1264   */\n      0x00\n        /* \"#utility.yul\":1256:1287   */\n      mstore\n        /* \"#utility.yul\":1306:1310   */\n      0x41\n        /* \"#utility.yul\":1303:1304   */\n      0x04\n        /* \"#utility.yul\":1296:1311   */\n      mstore\n        /* \"#utility.yul\":1330:1334   */\n      0x24\n        /* \"#utility.yul\":1327:1328   */\n      0x00\n        /* \"#utility.yul\":1320:1335   */\n      revert\n        /* \"#utility.yul\":1346:2065   */\n    tag_36:\n        /* \"#utility.yul\":1389:1394   */\n      0x00\n        /* \"#utility.yul\":1442:1445   */\n      dup3\n        /* \"#utility.yul\":1435:1439   */\n      0x1f\n        /* \"#utility.yul\":1427:1433   */\n      dup4\n        /* \"#utility.yul\":1423:1440   */\n      add\n        /* \"#utility.yul\":1419:1446   */\n      slt\n        /* \"#utility.yul\":1409:1464   */\n      tag_52\n      jumpi\n        /* \"#utility.yul\":1460:1461   */\n      0x00\n        /* \"#utility.yul\":1457:1458   */\n      dup1\n        /* \"#utility.yul\":1450:1462   */\n      revert\n        /* \"#utility.yul\":1409:1464   */\n    tag_52:\n        /* \"#utility.yul\":1496:1502   */\n      dup2\n        /* \"#utility.yul\":1483:1503   */\n      calldataload\n        /* \"#utility.yul\":1522:1540   */\n      0xffffffffffffffff\n        /* \"#utility.yul\":1559:1561   */\n      dup1\n        /* \"#utility.yul\":1555:1557   */\n      dup3\n        /* \"#utility.yul\":1552:1562   */\n      gt\n        /* \"#utility.yul\":1549:1585   */\n      iszero\n      tag_54\n      jumpi\n        /* \"#utility.yul\":1565:1583   */\n      tag_54\n      tag_35\n      jump\t// in\n    tag_54:\n        /* \"#utility.yul\":1640:1642   */\n      0x40\n        /* \"#utility.yul\":1634:1643   */\n      mload\n        /* \"#utility.yul\":1608:1610   */\n      0x1f\n        /* \"#utility.yul\":1694:1707   */\n      dup4\n      add\n      not(0x1f)\n        /* \"#utility.yul\":1690:1712   */\n      swap1\n      dup2\n      and\n        /* \"#utility.yul\":1714:1716   */\n      0x3f\n        /* \"#utility.yul\":1686:1717   */\n      add\n        /* \"#utility.yul\":1682:1722   */\n      and\n        /* \"#utility.yul\":1670:1723   */\n      dup2\n      add\n      swap1\n        /* \"#utility.yul\":1738:1756   */\n      dup3\n      dup3\n      gt\n        /* \"#utility.yul\":1758:1780   */\n      dup2\n      dup4\n      lt\n        /* \"#utility.yul\":1735:1781   */\n      or\n        /* \"#utility.yul\":1732:1804   */\n      iszero\n      tag_56\n      jumpi\n        /* \"#utility.yul\":1784:1802   */\n      tag_56\n      tag_35\n      jump\t// in\n    tag_56:\n        /* \"#utility.yul\":1824:1834   */\n      dup2\n        /* \"#utility.yul\":1820:1822   */\n      0x40\n        /* \"#utility.yul\":1813:1835   */\n      mstore\n        /* \"#utility.yul\":1859:1861   */\n      dup4\n        /* \"#utility.yul\":1851:1857   */\n      dup2\n        /* \"#utility.yul\":1844:1862   */\n      mstore\n        /* \"#utility.yul\":1905:1908   */\n      dup7\n        /* \"#utility.yul\":1898:1902   */\n      0x20\n        /* \"#utility.yul\":1893:1895   */\n      dup6\n        /* \"#utility.yul\":1885:1891   */\n      dup9\n        /* \"#utility.yul\":1881:1896   */\n      add\n        /* \"#utility.yul\":1877:1903   */\n      add\n        /* \"#utility.yul\":1874:1909   */\n      gt\n        /* \"#utility.yul\":1871:1926   */\n      iszero\n      tag_57\n      jumpi\n        /* \"#utility.yul\":1922:1923   */\n      0x00\n        /* \"#utility.yul\":1919:1920   */\n      dup1\n        /* \"#utility.yul\":1912:1924   */\n      revert\n        /* \"#utility.yul\":1871:1926   */\n    tag_57:\n        /* \"#utility.yul\":1986:1988   */\n      dup4\n        /* \"#utility.yul\":1979:1983   */\n      0x20\n        /* \"#utility.yul\":1971:1977   */\n      dup8\n        /* \"#utility.yul\":1967:1984   */\n      add\n        /* \"#utility.yul\":1960:1964   */\n      0x20\n        /* \"#utility.yul\":1952:1958   */\n      dup4\n        /* \"#utility.yul\":1948:1965   */\n      add\n        /* \"#utility.yul\":1935:1989   */\n      calldatacopy\n        /* \"#utility.yul\":2033:2034   */\n      0x00\n        /* \"#utility.yul\":2026:2030   */\n      0x20\n        /* \"#utility.yul\":2021:2023   */\n      dup6\n        /* \"#utility.yul\":2013:2019   */\n      dup4\n        /* \"#utility.yul\":2009:2024   */\n      add\n        /* \"#utility.yul\":2005:2031   */\n      add\n        /* \"#utility.yul\":1998:2035   */\n      mstore\n        /* \"#utility.yul\":2053:2059   */\n      dup1\n        /* \"#utility.yul\":2044:2059   */\n      swap5\n      pop\n      pop\n      pop\n      pop\n      pop\n        /* \"#utility.yul\":1346:2065   */\n      swap3\n      swap2\n      pop\n      pop\n      jump\t// out\n        /* \"#utility.yul\":2070:2687   */\n    tag_13:\n        /* \"#utility.yul\":2167:2173   */\n      0x00\n        /* \"#utility.yul\":2175:2181   */\n      dup1\n        /* \"#utility.yul\":2183:2189   */\n      0x00\n        /* \"#utility.yul\":2236:2238   */\n      0x60\n        /* \"#utility.yul\":2224:2233   */\n      dup5\n        /* \"#utility.yul\":2215:2222   */\n      dup7\n        /* \"#utility.yul\":2211:2234   */\n      sub\n        /* \"#utility.yul\":2207:2239   */\n      slt\n        /* \"#utility.yul\":2204:2256   */\n      iszero\n      tag_59\n      jumpi\n        /* \"#utility.yul\":2252:2253   */\n      0x00\n        /* \"#utility.yul\":2249:2250   */\n      dup1\n        /* \"#utility.yul\":2242:2254   */\n      revert\n        /* \"#utility.yul\":2204:2256   */\n    tag_59:\n        /* \"#utility.yul\":2275:2304   */\n      tag_60\n        /* \"#utility.yul\":2294:2303   */\n      dup5\n        /* \"#utility.yul\":2275:2304   */\n      tag_33\n      jump\t// in\n    tag_60:\n        /* \"#utility.yul\":2265:2304   */\n      swap3\n      pop\n        /* \"#utility.yul\":2355:2357   */\n      0x20\n        /* \"#utility.yul\":2344:2353   */\n      dup5\n        /* \"#utility.yul\":2340:2358   */\n      add\n        /* \"#utility.yul\":2327:2359   */\n      calldataload\n        /* \"#utility.yul\":2378:2396   */\n      0xffffffffffffffff\n        /* \"#utility.yul\":2419:2421   */\n      dup1\n        /* \"#utility.yul\":2411:2417   */\n      dup3\n        /* \"#utility.yul\":2408:2422   */\n      gt\n        /* \"#utility.yul\":2405:2439   */\n      iszero\n      tag_61\n      jumpi\n        /* \"#utility.yul\":2435:2436   */\n      0x00\n        /* \"#utility.yul\":2432:2433   */\n      dup1\n        /* \"#utility.yul\":2425:2437   */\n      revert\n        /* \"#utility.yul\":2405:2439   */\n    tag_61:\n        /* \"#utility.yul\":2458:2508   */\n      tag_62\n        /* \"#utility.yul\":2500:2507   */\n      dup8\n        /* \"#utility.yul\":2491:2497   */\n      dup4\n        /* \"#utility.yul\":2480:2489   */\n      dup9\n        /* \"#utility.yul\":2476:2498   */\n      add\n        /* \"#utility.yul\":2458:2508   */\n      tag_36\n      jump\t// in\n    tag_62:\n        /* \"#utility.yul\":2448:2508   */\n      swap4\n      pop\n        /* \"#utility.yul\":2561:2563   */\n      0x40\n        /* \"#utility.yul\":2550:2559   */\n      dup7\n        /* \"#utility.yul\":2546:2564   */\n      add\n        /* \"#utility.yul\":2533:2565   */\n      calldataload\n        /* \"#utility.yul\":2517:2565   */\n      swap2\n      pop\n        /* \"#utility.yul\":2590:2592   */\n      dup1\n        /* \"#utility.yul\":2580:2588   */\n      dup3\n        /* \"#utility.yul\":2577:2593   */\n      gt\n        /* \"#utility.yul\":2574:2610   */\n      iszero\n      tag_63\n      jumpi\n        /* \"#utility.yul\":2606:2607   */\n      0x00\n        /* \"#utility.yul\":2603:2604   */\n      dup1\n        /* \"#utility.yul\":2596:2608   */\n      revert\n        /* \"#utility.yul\":2574:2610   */\n    tag_63:\n      pop\n        /* \"#utility.yul\":2629:2681   */\n      tag_64\n        /* \"#utility.yul\":2673:2680   */\n      dup7\n        /* \"#utility.yul\":2662:2670   */\n      dup3\n        /* \"#utility.yul\":2651:2660   */\n      dup8\n        /* \"#utility.yul\":2647:2671   */\n      add\n        /* \"#utility.yul\":2629:2681   */\n      tag_36\n      jump\t// in\n    tag_64:\n        /* \"#utility.yul\":2619:2681   */\n      swap2\n      pop\n      pop\n        /* \"#utility.yul\":2070:2687   */\n      swap3\n      pop\n      swap3\n      pop\n      swap3\n      jump\t// out\n        /* \"#utility.yul\":2692:3072   */\n    tag_18:\n        /* \"#utility.yul\":2771:2772   */\n      0x01\n        /* \"#utility.yul\":2767:2779   */\n      dup2\n      dup2\n      shr\n      swap1\n        /* \"#utility.yul\":2814:2826   */\n      dup3\n      and\n      dup1\n        /* \"#utility.yul\":2835:2896   */\n      tag_66\n      jumpi\n        /* \"#utility.yul\":2889:2893   */\n      0x7f\n        /* \"#utility.yul\":2881:2887   */\n      dup3\n        /* \"#utility.yul\":2877:2894   */\n      and\n        /* \"#utility.yul\":2867:2894   */\n      swap2\n      pop\n        /* \"#utility.yul\":2835:2896   */\n    tag_66:\n        /* \"#utility.yul\":2942:2944   */\n      0x20\n        /* \"#utility.yul\":2934:2940   */\n      dup3\n        /* \"#utility.yul\":2931:2945   */\n      lt\n        /* \"#utility.yul\":2911:2929   */\n      dup2\n        /* \"#utility.yul\":2908:2946   */\n      sub\n        /* \"#utility.yul\":2905:3066   */\n      tag_67\n      jumpi\n        /* \"#utility.yul\":2988:2998   */\n      0x4e487b71\n        /* \"#utility.yul\":2983:2986   */\n      0xe0\n        /* \"#utility.yul\":2979:2999   */\n      shl\n        /* \"#utility.yul\":2976:2977   */\n      0x00\n        /* \"#utility.yul\":2969:3000   */\n      mstore\n        /* \"#utility.yul\":3023:3027   */\n      0x22\n        /* \"#utility.yul\":3020:3021   */\n      0x04\n        /* \"#utility.yul\":3013:3028   */\n      mstore\n        /* \"#utility.yul\":3051:3055   */\n      0x24\n        /* \"#utility.yul\":3048:3049   */\n      0x00\n        /* \"#utility.yul\":3041:3056   */\n      revert\n        /* \"#utility.yul\":2905:3066   */\n    tag_67:\n      pop\n        /* \"#utility.yul\":2692:3072   */\n      swap2\n      swap1\n      pop\n      jump\t// out\n        /* \"#utility.yul\":3203:3721   */\n    tag_38:\n        /* \"#utility.yul\":3305:3307   */\n      0x1f\n        /* \"#utility.yul\":3300:3303   */\n      dup3\n        /* \"#utility.yul\":3297:3308   */\n      gt\n        /* \"#utility.yul\":3294:3715   */\n      iszero\n      tag_70\n      jumpi\n        /* \"#utility.yul\":3341:3346   */\n      dup1\n        /* \"#utility.yul\":3338:3339   */\n      0x00\n        /* \"#utility.yul\":3331:3347   */\n      mstore\n        /* \"#utility.yul\":3385:3389   */\n      0x20\n        /* \"#utility.yul\":3382:3383   */\n      0x00\n        /* \"#utility.yul\":3372:3390   */\n      keccak256\n        /* \"#utility.yul\":3455:3457   */\n      0x1f\n        /* \"#utility.yul\":3443:3453   */\n      dup5\n        /* \"#utility.yul\":3439:3458   */\n      add\n        /* \"#utility.yul\":3436:3437   */\n      0x05\n        /* \"#utility.yul\":3432:3459   */\n      shr\n        /* \"#utility.yul\":3426:3430   */\n      dup2\n        /* \"#utility.yul\":3422:3460   */\n      add\n        /* \"#utility.yul\":3491:3495   */\n      0x20\n        /* \"#utility.yul\":3479:3489   */\n      dup6\n        /* \"#utility.yul\":3476:3496   */\n      lt\n        /* \"#utility.yul\":3473:3520   */\n      iszero\n      tag_71\n      jumpi\n      pop\n        /* \"#utility.yul\":3514:3518   */\n      dup1\n        /* \"#utility.yul\":3473:3520   */\n    tag_71:\n        /* \"#utility.yul\":3569:3571   */\n      0x1f\n        /* \"#utility.yul\":3564:3567   */\n      dup5\n        /* \"#utility.yul\":3560:3572   */\n      add\n        /* \"#utility.yul\":3557:3558   */\n      0x05\n        /* \"#utility.yul\":3553:3573   */\n      shr\n        /* \"#utility.yul\":3547:3551   */\n      dup3\n        /* \"#utility.yul\":3543:3574   */\n      add\n        /* \"#utility.yul\":3533:3574   */\n      swap2\n      pop\n        /* \"#utility.yul\":3624:3705   */\n    tag_72:\n        /* \"#utility.yul\":3642:3644   */\n      dup2\n        /* \"#utility.yul\":3635:3640   */\n      dup2\n        /* \"#utility.yul\":3632:3645   */\n      lt\n        /* \"#utility.yul\":3624:3705   */\n      iszero\n      tag_74\n      jumpi\n        /* \"#utility.yul\":3701:3702   */\n      0x00\n        /* \"#utility.yul\":3687:3703   */\n      dup2\n      sstore\n        /* \"#utility.yul\":3668:3669   */\n      0x01\n        /* \"#utility.yul\":3657:3670   */\n      add\n        /* \"#utility.yul\":3624:3705   */\n      jump(tag_72)\n    tag_74:\n        /* \"#utility.yul\":3628:3631   */\n      pop\n      pop\n        /* \"#utility.yul\":3294:3715   */\n    tag_70:\n        /* \"#utility.yul\":3203:3721   */\n      pop\n      pop\n      pop\n      jump\t// out\n        /* \"#utility.yul\":3897:5242   */\n    tag_31:\n        /* \"#utility.yul\":4023:4026   */\n      dup2\n        /* \"#utility.yul\":4017:4027   */\n      mload\n        /* \"#utility.yul\":4050:4068   */\n      0xffffffffffffffff\n        /* \"#utility.yul\":4042:4048   */\n      dup2\n        /* \"#utility.yul\":4039:4069   */\n      gt\n        /* \"#utility.yul\":4036:4092   */\n      iszero\n      tag_78\n      jumpi\n        /* \"#utility.yul\":4072:4090   */\n      tag_78\n      tag_35\n      jump\t// in\n    tag_78:\n        /* \"#utility.yul\":4101:4198   */\n      tag_79\n        /* \"#utility.yul\":4191:4197   */\n      dup2\n        /* \"#utility.yul\":4151:4189   */\n      tag_80\n        /* \"#utility.yul\":4183:4187   */\n      dup5\n        /* \"#utility.yul\":4177:4188   */\n      sload\n        /* \"#utility.yul\":4151:4189   */\n      tag_18\n      jump\t// in\n    tag_80:\n        /* \"#utility.yul\":4145:4149   */\n      dup5\n        /* \"#utility.yul\":4101:4198   */\n      tag_38\n      jump\t// in\n    tag_79:\n        /* \"#utility.yul\":4253:4257   */\n      0x20\n      dup1\n        /* \"#utility.yul\":4310:4312   */\n      0x1f\n        /* \"#utility.yul\":4299:4313   */\n      dup4\n      gt\n        /* \"#utility.yul\":4327:4328   */\n      0x01\n        /* \"#utility.yul\":4322:4985   */\n      dup2\n      eq\n      tag_82\n      jumpi\n        /* \"#utility.yul\":5029:5030   */\n      0x00\n        /* \"#utility.yul\":5046:5052   */\n      dup5\n        /* \"#utility.yul\":5043:5132   */\n      iszero\n      tag_83\n      jumpi\n      pop\n        /* \"#utility.yul\":5098:5117   */\n      dup6\n      dup4\n      add\n        /* \"#utility.yul\":5092:5118   */\n      mload\n        /* \"#utility.yul\":5043:5132   */\n    tag_83:\n      not(0x00)\n        /* \"#utility.yul\":3854:3855   */\n      0x03\n        /* \"#utility.yul\":3850:3861   */\n      dup7\n      swap1\n      shl\n        /* \"#utility.yul\":3846:3870   */\n      shr\n        /* \"#utility.yul\":3842:3871   */\n      not\n        /* \"#utility.yul\":3832:3872   */\n      and\n        /* \"#utility.yul\":3878:3879   */\n      0x01\n        /* \"#utility.yul\":3874:3885   */\n      dup6\n      swap1\n      shl\n        /* \"#utility.yul\":3829:3886   */\n      or\n        /* \"#utility.yul\":5145:5226   */\n      dup6\n      sstore\n        /* \"#utility.yul\":4292:5236   */\n      jump(tag_81)\n        /* \"#utility.yul\":4322:4985   */\n    tag_82:\n        /* \"#utility.yul\":3150:3151   */\n      0x00\n        /* \"#utility.yul\":3143:3157   */\n      dup6\n      dup2\n      mstore\n        /* \"#utility.yul\":3187:3191   */\n      0x20\n        /* \"#utility.yul\":3174:3192   */\n      dup2\n      keccak256\n      not(0x1f)\n        /* \"#utility.yul\":4358:4378   */\n      dup7\n      and\n      swap2\n        /* \"#utility.yul\":4476:4712   */\n    tag_86:\n        /* \"#utility.yul\":4490:4497   */\n      dup3\n        /* \"#utility.yul\":4487:4488   */\n      dup2\n        /* \"#utility.yul\":4484:4498   */\n      lt\n        /* \"#utility.yul\":4476:4712   */\n      iszero\n      tag_88\n      jumpi\n        /* \"#utility.yul\":4579:4598   */\n      dup9\n      dup7\n      add\n        /* \"#utility.yul\":4573:4599   */\n      mload\n        /* \"#utility.yul\":4558:4600   */\n      dup3\n      sstore\n        /* \"#utility.yul\":4671:4698   */\n      swap5\n      dup5\n      add\n      swap5\n        /* \"#utility.yul\":4639:4640   */\n      0x01\n        /* \"#utility.yul\":4627:4641   */\n      swap1\n      swap2\n      add\n      swap1\n        /* \"#utility.yul\":4506:4525   */\n      dup5\n      add\n        /* \"#utility.yul\":4476:4712   */\n      jump(tag_86)\n    tag_88:\n        /* \"#utility.yul\":4480:4483   */\n      pop\n        /* \"#utility.yul\":4740:4746   */\n      dup6\n        /* \"#utility.yul\":4731:4738   */\n      dup3\n        /* \"#utility.yul\":4728:4747   */\n      lt\n        /* \"#utility.yul\":4725:4926   */\n      iszero\n      tag_89\n      jumpi\n        /* \"#utility.yul\":4801:4820   */\n      dup8\n      dup6\n      add\n        /* \"#utility.yul\":4795:4821   */\n      mload\n      not(0x00)\n        /* \"#utility.yul\":4884:4885   */\n      0x03\n        /* \"#utility.yul\":4880:4894   */\n      dup9\n      swap1\n      shl\n        /* \"#utility.yul\":4896:4899   */\n      0xf8\n        /* \"#utility.yul\":4876:4900   */\n      and\n        /* \"#utility.yul\":4872:4909   */\n      shr\n        /* \"#utility.yul\":4868:4910   */\n      not\n        /* \"#utility.yul\":4853:4911   */\n      and\n        /* \"#utility.yul\":4838:4912   */\n      dup2\n      sstore\n        /* \"#utility.yul\":4725:4926   */\n    tag_89:\n      pop\n      pop\n        /* \"#utility.yul\":4972:4973   */\n      0x01\n        /* \"#utility.yul\":4963:4969   */\n      dup5\n        /* \"#utility.yul\":4960:4961   */\n      0x01\n        /* \"#utility.yul\":4956:4970   */\n      shl\n        /* \"#utility.yul\":4952:4974   */\n      add\n        /* \"#utility.yul\":4946:4950   */\n      dup6\n        /* \"#utility.yul\":4939:4975   */\n      sstore\n        /* \"#utility.yul\":4292:5236   */\n    tag_81:\n      pop\n      pop\n      pop\n      pop\n        /* \"#utility.yul\":3897:5242   */\n      pop\n      pop\n      jump\t// out\n\n    auxdata: 0xa26469706673582212201a10b553aff5dbecf95b22405ac3c9a03a64eb3f6ab258706ed8c8996926a31564736f6c63430008190033\n}\n",
				"bytecode": {
					"linkReferences": {},
					"object": "6080604052348015600e575f80fd5b5061057e8061001c5f395ff3fe608060405234801561000f575f80fd5b5060043610610034575f3560e01c80639364ace9146100385780639f4ed4fb14610063575b5f80fd5b61004b61004636600461026b565b610078565b60405161005a939291906102c1565b60405180910390f35b610076610071366004610395565b6101c6565b005b5f602052815f5260405f208181548110610090575f80fd5b905f5260205f2090600302015f9150915050805f0180546100b090610404565b80601f01602080910402602001604051908101604052809291908181526020018280546100dc90610404565b80156101275780601f106100fe57610100808354040283529160200191610127565b820191905f5260205f20905b81548152906001019060200180831161010a57829003601f168201915b50505050509080600101805461013c90610404565b80601f016020809104026020016040519081016040528092919081815260200182805461016890610404565b80156101b35780601f1061018a576101008083540402835291602001916101b3565b820191905f5260205f20905b81548152906001019060200180831161019657829003601f168201915b5050506002909301549192505060ff1683565b6001600160a01b0383165f90815260208181526040808320815160608101835286815280840186905260019281018390528154928301825590845291909220815191926003020190819061021a9082610488565b506020820151600182019061022f9082610488565b50604091909101516002909101805460ff1916911515919091179055505050565b80356001600160a01b0381168114610266575f80fd5b919050565b5f806040838503121561027c575f80fd5b61028583610250565b946020939093013593505050565b5f81518084528060208401602086015e5f602082860101526020601f19601f83011685010191505092915050565b606081525f6102d36060830186610293565b82810360208401526102e58186610293565b9150508215156040830152949350505050565b634e487b7160e01b5f52604160045260245ffd5b5f82601f83011261031b575f80fd5b813567ffffffffffffffff80821115610336576103366102f8565b604051601f8301601f19908116603f0116810190828211818310171561035e5761035e6102f8565b81604052838152866020858801011115610376575f80fd5b836020870160208301375f602085830101528094505050505092915050565b5f805f606084860312156103a7575f80fd5b6103b084610250565b9250602084013567ffffffffffffffff808211156103cc575f80fd5b6103d88783880161030c565b935060408601359150808211156103ed575f80fd5b506103fa8682870161030c565b9150509250925092565b600181811c9082168061041857607f821691505b60208210810361043657634e487b7160e01b5f52602260045260245ffd5b50919050565b601f82111561048357805f5260205f20601f840160051c810160208510156104615750805b601f840160051c820191505b81811015610480575f815560010161046d565b50505b505050565b815167ffffffffffffffff8111156104a2576104a26102f8565b6104b6816104b08454610404565b8461043c565b602080601f8311600181146104e9575f84156104d25750858301515b5f19600386901b1c1916600185901b178555610540565b5f85815260208120601f198616915b82811015610517578886015182559484019460019091019084016104f8565b508582101561053457878501515f19600388901b60f8161c191681555b505060018460011b0185555b50505050505056fea26469706673582212201a10b553aff5dbecf95b22405ac3c9a03a64eb3f6ab258706ed8c8996926a31564736f6c63430008190033",
					"opcodes": "PUSH1 0x80 PUSH1 0x40 MSTORE CALLVALUE DUP1 ISZERO PUSH1 0xE JUMPI PUSH0 DUP1 REVERT JUMPDEST POP PUSH2 0x57E DUP1 PUSH2 0x1C PUSH0 CODECOPY PUSH0 RETURN INVALID PUSH1 0x80 PUSH1 0x40 MSTORE CALLVALUE DUP1 ISZERO PUSH2 0xF JUMPI PUSH0 DUP1 REVERT JUMPDEST POP PUSH1 0x4 CALLDATASIZE LT PUSH2 0x34 JUMPI PUSH0 CALLDATALOAD PUSH1 0xE0 SHR DUP1 PUSH4 0x9364ACE9 EQ PUSH2 0x38 JUMPI DUP1 PUSH4 0x9F4ED4FB EQ PUSH2 0x63 JUMPI JUMPDEST PUSH0 DUP1 REVERT JUMPDEST PUSH2 0x4B PUSH2 0x46 CALLDATASIZE PUSH1 0x4 PUSH2 0x26B JUMP JUMPDEST PUSH2 0x78 JUMP JUMPDEST PUSH1 0x40 MLOAD PUSH2 0x5A SWAP4 SWAP3 SWAP2 SWAP1 PUSH2 0x2C1 JUMP JUMPDEST PUSH1 0x40 MLOAD DUP1 SWAP2 SUB SWAP1 RETURN JUMPDEST PUSH2 0x76 PUSH2 0x71 CALLDATASIZE PUSH1 0x4 PUSH2 0x395 JUMP JUMPDEST PUSH2 0x1C6 JUMP JUMPDEST STOP JUMPDEST PUSH0 PUSH1 0x20 MSTORE DUP2 PUSH0 MSTORE PUSH1 0x40 PUSH0 KECCAK256 DUP2 DUP2 SLOAD DUP2 LT PUSH2 0x90 JUMPI PUSH0 DUP1 REVERT JUMPDEST SWAP1 PUSH0 MSTORE PUSH1 0x20 PUSH0 KECCAK256 SWAP1 PUSH1 0x3 MUL ADD PUSH0 SWAP2 POP SWAP2 POP POP DUP1 PUSH0 ADD DUP1 SLOAD PUSH2 0xB0 SWAP1 PUSH2 0x404 JUMP JUMPDEST DUP1 PUSH1 0x1F ADD PUSH1 0x20 DUP1 SWAP2 DIV MUL PUSH1 0x20 ADD PUSH1 0x40 MLOAD SWAP1 DUP2 ADD PUSH1 0x40 MSTORE DUP1 SWAP3 SWAP2 SWAP1 DUP2 DUP2 MSTORE PUSH1 0x20 ADD DUP3 DUP1 SLOAD PUSH2 0xDC SWAP1 PUSH2 0x404 JUMP JUMPDEST DUP1 ISZERO PUSH2 0x127 JUMPI DUP1 PUSH1 0x1F LT PUSH2 0xFE JUMPI PUSH2 0x100 DUP1 DUP4 SLOAD DIV MUL DUP4 MSTORE SWAP2 PUSH1 0x20 ADD SWAP2 PUSH2 0x127 JUMP JUMPDEST DUP3 ADD SWAP2 SWAP1 PUSH0 MSTORE PUSH1 0x20 PUSH0 KECCAK256 SWAP1 JUMPDEST DUP2 SLOAD DUP2 MSTORE SWAP1 PUSH1 0x1 ADD SWAP1 PUSH1 0x20 ADD DUP1 DUP4 GT PUSH2 0x10A JUMPI DUP3 SWAP1 SUB PUSH1 0x1F AND DUP3 ADD SWAP2 JUMPDEST POP POP POP POP POP SWAP1 DUP1 PUSH1 0x1 ADD DUP1 SLOAD PUSH2 0x13C SWAP1 PUSH2 0x404 JUMP JUMPDEST DUP1 PUSH1 0x1F ADD PUSH1 0x20 DUP1 SWAP2 DIV MUL PUSH1 0x20 ADD PUSH1 0x40 MLOAD SWAP1 DUP2 ADD PUSH1 0x40 MSTORE DUP1 SWAP3 SWAP2 SWAP1 DUP2 DUP2 MSTORE PUSH1 0x20 ADD DUP3 DUP1 SLOAD PUSH2 0x168 SWAP1 PUSH2 0x404 JUMP JUMPDEST DUP1 ISZERO PUSH2 0x1B3 JUMPI DUP1 PUSH1 0x1F LT PUSH2 0x18A JUMPI PUSH2 0x100 DUP1 DUP4 SLOAD DIV MUL DUP4 MSTORE SWAP2 PUSH1 0x20 ADD SWAP2 PUSH2 0x1B3 JUMP JUMPDEST DUP3 ADD SWAP2 SWAP1 PUSH0 MSTORE PUSH1 0x20 PUSH0 KECCAK256 SWAP1 JUMPDEST DUP2 SLOAD DUP2 MSTORE SWAP1 PUSH1 0x1 ADD SWAP1 PUSH1 0x20 ADD DUP1 DUP4 GT PUSH2 0x196 JUMPI DUP3 SWAP1 SUB PUSH1 0x1F AND DUP3 ADD SWAP2 JUMPDEST POP POP POP PUSH1 0x2 SWAP1 SWAP4 ADD SLOAD SWAP2 SWAP3 POP POP PUSH1 0xFF AND DUP4 JUMP JUMPDEST PUSH1 0x1 PUSH1 0x1 PUSH1 0xA0 SHL SUB DUP4 AND PUSH0 SWAP1 DUP2 MSTORE PUSH1 0x20 DUP2 DUP2 MSTORE PUSH1 0x40 DUP1 DUP4 KECCAK256 DUP2 MLOAD PUSH1 0x60 DUP2 ADD DUP4 MSTORE DUP7 DUP2 MSTORE DUP1 DUP5 ADD DUP7 SWAP1 MSTORE PUSH1 0x1 SWAP3 DUP2 ADD DUP4 SWAP1 MSTORE DUP2 SLOAD SWAP3 DUP4 ADD DUP3 SSTORE SWAP1 DUP5 MSTORE SWAP2 SWAP1 SWAP3 KECCAK256 DUP2 MLOAD SWAP2 SWAP3 PUSH1 0x3 MUL ADD SWAP1 DUP2 SWAP1 PUSH2 0x21A SWAP1 DUP3 PUSH2 0x488 JUMP JUMPDEST POP PUSH1 0x20 DUP3 ADD MLOAD PUSH1 0x1 DUP3 ADD SWAP1 PUSH2 0x22F SWAP1 DUP3 PUSH2 0x488 JUMP JUMPDEST POP PUSH1 0x40 SWAP2 SWAP1 SWAP2 ADD MLOAD PUSH1 0x2 SWAP1 SWAP2 ADD DUP1 SLOAD PUSH1 0xFF NOT AND SWAP2 ISZERO ISZERO SWAP2 SWAP1 SWAP2 OR SWAP1 SSTORE POP POP POP JUMP JUMPDEST DUP1 CALLDATALOAD PUSH1 0x1 PUSH1 0x1 PUSH1 0xA0 SHL SUB DUP2 AND DUP2 EQ PUSH2 0x266 JUMPI PUSH0 DUP1 REVERT JUMPDEST SWAP2 SWAP1 POP JUMP JUMPDEST PUSH0 DUP1 PUSH1 0x40 DUP4 DUP6 SUB SLT ISZERO PUSH2 0x27C JUMPI PUSH0 DUP1 REVERT JUMPDEST PUSH2 0x285 DUP4 PUSH2 0x250 JUMP JUMPDEST SWAP5 PUSH1 0x20 SWAP4 SWAP1 SWAP4 ADD CALLDATALOAD SWAP4 POP POP POP JUMP JUMPDEST PUSH0 DUP2 MLOAD DUP1 DUP5 MSTORE DUP1 PUSH1 0x20 DUP5 ADD PUSH1 0x20 DUP7 ADD MCOPY PUSH0 PUSH1 0x20 DUP3 DUP7 ADD ADD MSTORE PUSH1 0x20 PUSH1 0x1F NOT PUSH1 0x1F DUP4 ADD AND DUP6 ADD ADD SWAP2 POP POP SWAP3 SWAP2 POP POP JUMP JUMPDEST PUSH1 0x60 DUP2 MSTORE PUSH0 PUSH2 0x2D3 PUSH1 0x60 DUP4 ADD DUP7 PUSH2 0x293 JUMP JUMPDEST DUP3 DUP2 SUB PUSH1 0x20 DUP5 ADD MSTORE PUSH2 0x2E5 DUP2 DUP7 PUSH2 0x293 JUMP JUMPDEST SWAP2 POP POP DUP3 ISZERO ISZERO PUSH1 0x40 DUP4 ADD MSTORE SWAP5 SWAP4 POP POP POP POP JUMP JUMPDEST PUSH4 0x4E487B71 PUSH1 0xE0 SHL PUSH0 MSTORE PUSH1 0x41 PUSH1 0x4 MSTORE PUSH1 0x24 PUSH0 REVERT JUMPDEST PUSH0 DUP3 PUSH1 0x1F DUP4 ADD SLT PUSH2 0x31B JUMPI PUSH0 DUP1 REVERT JUMPDEST DUP2 CALLDATALOAD PUSH8 0xFFFFFFFFFFFFFFFF DUP1 DUP3 GT ISZERO PUSH2 0x336 JUMPI PUSH2 0x336 PUSH2 0x2F8 JUMP JUMPDEST PUSH1 0x40 MLOAD PUSH1 0x1F DUP4 ADD PUSH1 0x1F NOT SWAP1 DUP2 AND PUSH1 0x3F ADD AND DUP2 ADD SWAP1 DUP3 DUP3 GT DUP2 DUP4 LT OR ISZERO PUSH2 0x35E JUMPI PUSH2 0x35E PUSH2 0x2F8 JUMP JUMPDEST DUP2 PUSH1 0x40 MSTORE DUP4 DUP2 MSTORE DUP7 PUSH1 0x20 DUP6 DUP9 ADD ADD GT ISZERO PUSH2 0x376 JUMPI PUSH0 DUP1 REVERT JUMPDEST DUP4 PUSH1 0x20 DUP8 ADD PUSH1 0x20 DUP4 ADD CALLDATACOPY PUSH0 PUSH1 0x20 DUP6 DUP4 ADD ADD MSTORE DUP1 SWAP5 POP POP POP POP POP SWAP3 SWAP2 POP POP JUMP JUMPDEST PUSH0 DUP1 PUSH0 PUSH1 0x60 DUP5 DUP7 SUB SLT ISZERO PUSH2 0x3A7 JUMPI PUSH0 DUP1 REVERT JUMPDEST PUSH2 0x3B0 DUP5 PUSH2 0x250 JUMP JUMPDEST SWAP3 POP PUSH1 0x20 DUP5 ADD CALLDATALOAD PUSH8 0xFFFFFFFFFFFFFFFF DUP1 DUP3 GT ISZERO PUSH2 0x3CC JUMPI PUSH0 DUP1 REVERT JUMPDEST PUSH2 0x3D8 DUP8 DUP4 DUP9 ADD PUSH2 0x30C JUMP JUMPDEST SWAP4 POP PUSH1 0x40 DUP7 ADD CALLDATALOAD SWAP2 POP DUP1 DUP3 GT ISZERO PUSH2 0x3ED JUMPI PUSH0 DUP1 REVERT JUMPDEST POP PUSH2 0x3FA DUP7 DUP3 DUP8 ADD PUSH2 0x30C JUMP JUMPDEST SWAP2 POP POP SWAP3 POP SWAP3 POP SWAP3 JUMP JUMPDEST PUSH1 0x1 DUP2 DUP2 SHR SWAP1 DUP3 AND DUP1 PUSH2 0x418 JUMPI PUSH1 0x7F DUP3 AND SWAP2 POP JUMPDEST PUSH1 0x20 DUP3 LT DUP2 SUB PUSH2 0x436 JUMPI PUSH4 0x4E487B71 PUSH1 0xE0 SHL PUSH0 MSTORE PUSH1 0x22 PUSH1 0x4 MSTORE PUSH1 0x24 PUSH0 REVERT JUMPDEST POP SWAP2 SWAP1 POP JUMP JUMPDEST PUSH1 0x1F DUP3 GT ISZERO PUSH2 0x483 JUMPI DUP1 PUSH0 MSTORE PUSH1 0x20 PUSH0 KECCAK256 PUSH1 0x1F DUP5 ADD PUSH1 0x5 SHR DUP2 ADD PUSH1 0x20 DUP6 LT ISZERO PUSH2 0x461 JUMPI POP DUP1 JUMPDEST PUSH1 0x1F DUP5 ADD PUSH1 0x5 SHR DUP3 ADD SWAP2 POP JUMPDEST DUP2 DUP2 LT ISZERO PUSH2 0x480 JUMPI PUSH0 DUP2 SSTORE PUSH1 0x1 ADD PUSH2 0x46D JUMP JUMPDEST POP POP JUMPDEST POP POP POP JUMP JUMPDEST DUP2 MLOAD PUSH8 0xFFFFFFFFFFFFFFFF DUP2 GT ISZERO PUSH2 0x4A2 JUMPI PUSH2 0x4A2 PUSH2 0x2F8 JUMP JUMPDEST PUSH2 0x4B6 DUP2 PUSH2 0x4B0 DUP5 SLOAD PUSH2 0x404 JUMP JUMPDEST DUP5 PUSH2 0x43C JUMP JUMPDEST PUSH1 0x20 DUP1 PUSH1 0x1F DUP4 GT PUSH1 0x1 DUP2 EQ PUSH2 0x4E9 JUMPI PUSH0 DUP5 ISZERO PUSH2 0x4D2 JUMPI POP DUP6 DUP4 ADD MLOAD JUMPDEST PUSH0 NOT PUSH1 0x3 DUP7 SWAP1 SHL SHR NOT AND PUSH1 0x1 DUP6 SWAP1 SHL OR DUP6 SSTORE PUSH2 0x540 JUMP JUMPDEST PUSH0 DUP6 DUP2 MSTORE PUSH1 0x20 DUP2 KECCAK256 PUSH1 0x1F NOT DUP7 AND SWAP2 JUMPDEST DUP3 DUP2 LT ISZERO PUSH2 0x517 JUMPI DUP9 DUP7 ADD MLOAD DUP3 SSTORE SWAP5 DUP5 ADD SWAP5 PUSH1 0x1 SWAP1 SWAP2 ADD SWAP1 DUP5 ADD PUSH2 0x4F8 JUMP JUMPDEST POP DUP6 DUP3 LT ISZERO PUSH2 0x534 JUMPI DUP8 DUP6 ADD MLOAD PUSH0 NOT PUSH1 0x3 DUP9 SWAP1 SHL PUSH1 0xF8 AND SHR NOT AND DUP2 SSTORE JUMPDEST POP POP PUSH1 0x1 DUP5 PUSH1 0x1 SHL ADD DUP6 SSTORE JUMPDEST POP POP POP POP POP POP JUMP INVALID LOG2 PUSH5 0x6970667358 0x22 SLT KECCAK256 BYTE LT 0xB5 MSTORE8 0xAF CREATE2 0xDB 0xEC 0xF9 JUMPDEST 0x22 BLOCKHASH GAS 0xC3 0xC9 LOG0 GASPRICE PUSH5 0xEB3F6AB258 PUSH17 0x6ED8C8996926A31564736F6C6343000819 STOP CALLER "
				},
				"gasEstimates": {
					"creation": {
						"codeDepositCost": "281200",
						"executionCost": "316",
						"totalCost": "281516"
					},
					"external": {
						"issueCredential(address,string,string)": "infinite",
						"userCredentials(address,uint256)": "infinite"
					}
				},
				"methodIdentifiers": {
					"issueCredential(address,string,string)": "9f4ed4fb",
					"userCredentials(address,uint256)": "9364ace9"
				}
			},
			"storageLayout": {
				"storage": [
					{
						"astId": 14,
						"contract": "artifacts/Educationdegreevericication.sol:EducationVerification",
						"label": "userCredentials",
						"offset": 0,
						"slot": "0",
						"type": "t_mapping(t_address,t_array(t_struct(Credential)8_storage)dyn_storage)"
					}
				],
				"types": {
					"t_address": {
						"encoding": "inplace",
						"label": "address",
						"numberOfBytes": "20"
					},
					"t_array(t_struct(Credential)8_storage)dyn_storage": {
						"base": "t_struct(Credential)8_storage",
						"encoding": "dynamic_array",
						"label": "struct EducationVerification.Credential[]",
						"numberOfBytes": "32"
					},
					"t_bool": {
						"encoding": "inplace",
						"label": "bool",
						"numberOfBytes": "1"
					},
					"t_mapping(t_address,t_array(t_struct(Credential)8_storage)dyn_storage)": {
						"encoding": "mapping",
						"key": "t_address",
						"label": "mapping(address => struct EducationVerification.Credential[])",
						"numberOfBytes": "32",
						"value": "t_array(t_struct(Credential)8_storage)dyn_storage"
					},
					"t_string_storage": {
						"encoding": "bytes",
						"label": "string",
						"numberOfBytes": "32"
					},
					"t_struct(Credential)8_storage": {
						"encoding": "inplace",
						"label": "struct EducationVerification.Credential",
						"members": [
							{
								"astId": 3,
								"contract": "artifacts/Educationdegreevericication.sol:EducationVerification",
								"label": "name",
								"offset": 0,
								"slot": "0",
								"type": "t_string_storage"
							},
							{
								"astId": 5,
								"contract": "artifacts/Educationdegreevericication.sol:EducationVerification",
								"label": "issuer",
								"offset": 0,
								"slot": "1",
								"type": "t_string_storage"
							},
							{
								"astId": 7,
								"contract": "artifacts/Educationdegreevericication.sol:EducationVerification",
								"label": "verified",
								"offset": 0,
								"slot": "2",
								"type": "t_bool"
							}
						],
						"numberOfBytes": "96"
					}
				}
			},
			"userdoc": {
				"kind": "user",
				"methods": {},
				"version": 1
			}
		}
	}
}