{
	"artifacts/Carlease.sol": {
		"AutonomousVehicleLease": {
			"abi": [
				{
					"inputs": [
						{
							"internalType": "uint256",
							"name": "_vehicleId",
							"type": "uint256"
						},
						{
							"internalType": "uint256",
							"name": "_duration",
							"type": "uint256"
						},
						{
							"internalType": "uint256",
							"name": "_cost",
							"type": "uint256"
						}
					],
					"name": "createLease",
					"outputs": [],
					"stateMutability": "nonpayable",
					"type": "function"
				},
				{
					"inputs": [
						{
							"internalType": "uint256",
							"name": "_vehicleId",
							"type": "uint256"
						}
					],
					"name": "endLease",
					"outputs": [],
					"stateMutability": "nonpayable",
					"type": "function"
				},
				{
					"inputs": [
						{
							"internalType": "uint256",
							"name": "",
							"type": "uint256"
						}
					],
					"name": "vehicleLeases",
					"outputs": [
						{
							"internalType": "address",
							"name": "lessee",
							"type": "address"
						},
						{
							"internalType": "uint256",
							"name": "leaseDuration",
							"type": "uint256"
						},
						{
							"internalType": "uint256",
							"name": "leaseCost",
							"type": "uint256"
						},
						{
							"internalType": "bool",
							"name": "isActive",
							"type": "bool"
						}
					],
					"stateMutability": "view",
					"type": "function"
				}
			],
			"devdoc": {
				"kind": "dev",
				"methods": {},
				"version": 1
			},
			"evm": {
				"assembly": "    /* \"artifacts/Carlease.sol\":0:582  contract AutonomousVehicleLease {... */\n  mstore(0x40, 0x80)\n  callvalue\n  dup1\n  iszero\n  tag_1\n  jumpi\n  0x00\n  dup1\n  revert\ntag_1:\n  pop\n  dataSize(sub_0)\n  dup1\n  dataOffset(sub_0)\n  0x00\n  codecopy\n  0x00\n  return\nstop\n\nsub_0: assembly {\n        /* \"artifacts/Carlease.sol\":0:582  contract AutonomousVehicleLease {... */\n      mstore(0x40, 0x80)\n      callvalue\n      dup1\n      iszero\n      tag_1\n      jumpi\n      0x00\n      dup1\n      revert\n    tag_1:\n      pop\n      jumpi(tag_2, lt(calldatasize, 0x04))\n      shr(0xe0, calldataload(0x00))\n      dup1\n      0x78486091\n      eq\n      tag_3\n      jumpi\n      dup1\n      0x91ef935c\n      eq\n      tag_4\n      jumpi\n      dup1\n      0xaaf3b888\n      eq\n      tag_5\n      jumpi\n    tag_2:\n      0x00\n      dup1\n      revert\n        /* \"artifacts/Carlease.sol\":223:384  function createLease(uint _vehicleId, uint _duration, uint _cost) public {... */\n    tag_3:\n      tag_6\n      tag_7\n      calldatasize\n      0x04\n      tag_8\n      jump\t// in\n    tag_7:\n        /* \"artifacts/Carlease.sol\":335:376  Lease(msg.sender, _duration, _cost, true) */\n      0x40\n      dup1\n      mload\n      0x80\n      dup2\n      add\n      dup3\n      mstore\n        /* \"artifacts/Carlease.sol\":341:351  msg.sender */\n      caller\n        /* \"artifacts/Carlease.sol\":335:376  Lease(msg.sender, _duration, _cost, true) */\n      dup2\n      mstore\n      0x20\n      dup1\n      dup3\n      add\n      swap5\n      dup6\n      mstore\n      dup2\n      dup4\n      add\n      swap4\n      dup5\n      mstore\n        /* \"artifacts/Carlease.sol\":371:375  true */\n      0x01\n        /* \"artifacts/Carlease.sol\":335:376  Lease(msg.sender, _duration, _cost, true) */\n      0x60\n      dup4\n      add\n      dup2\n      dup2\n      mstore\n      0x00\n        /* \"artifacts/Carlease.sol\":307:332  vehicleLeases[_vehicleId] */\n      swap8\n      dup9\n      mstore\n      swap2\n      dup8\n      swap1\n      mstore\n      swap3\n      swap1\n      swap6\n      keccak256\n        /* \"artifacts/Carlease.sol\":307:376  vehicleLeases[_vehicleId] = Lease(msg.sender, _duration, _cost, true) */\n      swap1\n      mload\n      dup2\n      sload\n      not(sub(shl(0xa0, 0x01), 0x01))\n      and\n      sub(shl(0xa0, 0x01), 0x01)\n      swap1\n      swap2\n      and\n      or\n      dup2\n      sstore\n      swap3\n      mload\n      swap1\n      dup4\n      add\n      sstore\n      mload\n      0x02\n      dup3\n      add\n      sstore\n      swap1\n      mload\n      0x03\n      swap1\n      swap2\n      add\n      dup1\n      sload\n      not(0xff)\n      and\n      swap2\n      iszero\n      iszero\n      swap2\n      swap1\n      swap2\n      or\n      swap1\n      sstore\n        /* \"artifacts/Carlease.sol\":223:384  function createLease(uint _vehicleId, uint _duration, uint _cost) public {... */\n      jump\n    tag_6:\n      stop\n        /* \"artifacts/Carlease.sol\":392:579  function endLease(uint _vehicleId) public {... */\n    tag_4:\n      tag_6\n      tag_11\n      calldatasize\n      0x04\n      tag_12\n      jump\t// in\n    tag_11:\n      tag_13\n      jump\t// in\n        /* \"artifacts/Carlease.sol\":171:214  mapping(uint => Lease) public vehicleLeases */\n    tag_5:\n      tag_14\n      tag_15\n      calldatasize\n      0x04\n      tag_12\n      jump\t// in\n    tag_15:\n      0x00\n      0x20\n      dup2\n      swap1\n      mstore\n      swap1\n      dup2\n      mstore\n      0x40\n      swap1\n      keccak256\n      dup1\n      sload\n      0x01\n      dup3\n      add\n      sload\n      0x02\n      dup4\n      add\n      sload\n      0x03\n      swap1\n      swap4\n      add\n      sload\n      sub(shl(0xa0, 0x01), 0x01)\n      swap1\n      swap3\n      and\n      swap3\n      swap1\n      swap2\n      0xff\n      and\n      dup5\n      jump\n    tag_14:\n      0x40\n      dup1\n      mload\n      sub(shl(0xa0, 0x01), 0x01)\n        /* \"#utility.yul\":763:795   */\n      swap1\n      swap6\n      and\n        /* \"#utility.yul\":745:796   */\n      dup6\n      mstore\n        /* \"#utility.yul\":827:829   */\n      0x20\n        /* \"#utility.yul\":812:830   */\n      dup6\n      add\n        /* \"#utility.yul\":805:839   */\n      swap4\n      swap1\n      swap4\n      mstore\n        /* \"#utility.yul\":855:873   */\n      swap2\n      dup4\n      add\n        /* \"#utility.yul\":848:882   */\n      mstore\n        /* \"#utility.yul\":925:939   */\n      iszero\n        /* \"#utility.yul\":918:940   */\n      iszero\n        /* \"#utility.yul\":913:915   */\n      0x60\n        /* \"#utility.yul\":898:916   */\n      dup3\n      add\n        /* \"#utility.yul\":891:941   */\n      mstore\n        /* \"#utility.yul\":732:735   */\n      0x80\n        /* \"#utility.yul\":717:736   */\n      add\n        /* \"artifacts/Carlease.sol\":171:214  mapping(uint => Lease) public vehicleLeases */\n      mload(0x40)\n      dup1\n      swap2\n      sub\n      swap1\n      return\n        /* \"artifacts/Carlease.sol\":392:579  function endLease(uint _vehicleId) public {... */\n    tag_13:\n        /* \"artifacts/Carlease.sol\":453:466  vehicleLeases */\n      0x00\n        /* \"artifacts/Carlease.sol\":453:478  vehicleLeases[_vehicleId] */\n      dup2\n      dup2\n      mstore\n      0x20\n      dup2\n      swap1\n      mstore\n      0x40\n      swap1\n      keccak256\n        /* \"artifacts/Carlease.sol\":453:485  vehicleLeases[_vehicleId].lessee */\n      sload\n      sub(shl(0xa0, 0x01), 0x01)\n      and\n        /* \"artifacts/Carlease.sol\":489:499  msg.sender */\n      caller\n        /* \"artifacts/Carlease.sol\":453:499  vehicleLeases[_vehicleId].lessee == msg.sender */\n      eq\n        /* \"artifacts/Carlease.sol\":445:518  require(vehicleLeases[_vehicleId].lessee == msg.sender, \"Not the lessee\") */\n      tag_21\n      jumpi\n      mload(0x40)\n      shl(0xe5, 0x461bcd)\n      dup2\n      mstore\n        /* \"#utility.yul\":1154:1156   */\n      0x20\n        /* \"artifacts/Carlease.sol\":445:518  require(vehicleLeases[_vehicleId].lessee == msg.sender, \"Not the lessee\") */\n      0x04\n      dup3\n      add\n        /* \"#utility.yul\":1136:1157   */\n      mstore\n        /* \"#utility.yul\":1193:1195   */\n      0x0e\n        /* \"#utility.yul\":1173:1191   */\n      0x24\n      dup3\n      add\n        /* \"#utility.yul\":1166:1196   */\n      mstore\n      shl(0x90, 0x4e6f7420746865206c6573736565)\n        /* \"#utility.yul\":1212:1230   */\n      0x44\n      dup3\n      add\n        /* \"#utility.yul\":1205:1249   */\n      mstore\n        /* \"#utility.yul\":1266:1284   */\n      0x64\n      add\n        /* \"artifacts/Carlease.sol\":445:518  require(vehicleLeases[_vehicleId].lessee == msg.sender, \"Not the lessee\") */\n      mload(0x40)\n      dup1\n      swap2\n      sub\n      swap1\n      revert\n    tag_21:\n        /* \"artifacts/Carlease.sol\":566:571  false */\n      0x00\n        /* \"artifacts/Carlease.sol\":529:554  vehicleLeases[_vehicleId] */\n      swap1\n      dup2\n      mstore\n      0x20\n      dup2\n      swap1\n      mstore\n      0x40\n      swap1\n      keccak256\n        /* \"artifacts/Carlease.sol\":529:563  vehicleLeases[_vehicleId].isActive */\n      0x03\n      add\n        /* \"artifacts/Carlease.sol\":529:571  vehicleLeases[_vehicleId].isActive = false */\n      dup1\n      sload\n      not(0xff)\n      and\n      swap1\n      sstore\n        /* \"artifacts/Carlease.sol\":392:579  function endLease(uint _vehicleId) public {... */\n      jump\t// out\n        /* \"#utility.yul\":14:330   */\n    tag_8:\n        /* \"#utility.yul\":91:97   */\n      0x00\n        /* \"#utility.yul\":99:105   */\n      dup1\n        /* \"#utility.yul\":107:113   */\n      0x00\n        /* \"#utility.yul\":160:162   */\n      0x60\n        /* \"#utility.yul\":148:157   */\n      dup5\n        /* \"#utility.yul\":139:146   */\n      dup7\n        /* \"#utility.yul\":135:158   */\n      sub\n        /* \"#utility.yul\":131:163   */\n      slt\n        /* \"#utility.yul\":128:180   */\n      iszero\n      tag_26\n      jumpi\n        /* \"#utility.yul\":176:177   */\n      0x00\n        /* \"#utility.yul\":173:174   */\n      dup1\n        /* \"#utility.yul\":166:178   */\n      revert\n        /* \"#utility.yul\":128:180   */\n    tag_26:\n      pop\n      pop\n        /* \"#utility.yul\":199:222   */\n      dup2\n      calldataload\n      swap4\n        /* \"#utility.yul\":269:271   */\n      0x20\n        /* \"#utility.yul\":254:272   */\n      dup4\n      add\n        /* \"#utility.yul\":241:273   */\n      calldataload\n      swap4\n      pop\n        /* \"#utility.yul\":320:322   */\n      0x40\n        /* \"#utility.yul\":305:323   */\n      swap1\n      swap3\n      add\n        /* \"#utility.yul\":292:324   */\n      calldataload\n      swap2\n        /* \"#utility.yul\":14:330   */\n      swap1\n      pop\n      jump\t// out\n        /* \"#utility.yul\":335:515   */\n    tag_12:\n        /* \"#utility.yul\":394:400   */\n      0x00\n        /* \"#utility.yul\":447:449   */\n      0x20\n        /* \"#utility.yul\":435:444   */\n      dup3\n        /* \"#utility.yul\":426:433   */\n      dup5\n        /* \"#utility.yul\":422:445   */\n      sub\n        /* \"#utility.yul\":418:450   */\n      slt\n        /* \"#utility.yul\":415:467   */\n      iszero\n      tag_28\n      jumpi\n        /* \"#utility.yul\":463:464   */\n      0x00\n        /* \"#utility.yul\":460:461   */\n      dup1\n        /* \"#utility.yul\":453:465   */\n      revert\n        /* \"#utility.yul\":415:467   */\n    tag_28:\n      pop\n        /* \"#utility.yul\":486:509   */\n      calldataload\n      swap2\n        /* \"#utility.yul\":335:515   */\n      swap1\n      pop\n      jump\t// out\n\n    auxdata: 0xa26469706673582212207b1bf6a0045dd8ffe780bf86a7d1724bae63b6800b49033aaad7005c14c63db864736f6c63430008190033\n}\n",
				"bytecode": {
					"linkReferences": {},
					"object": "6080604052348015600e575f80fd5b506102318061001c5f395ff3fe608060405234801561000f575f80fd5b506004361061003f575f3560e01c8063784860911461004357806391ef935c146100c3578063aaf3b888146100d6575b5f80fd5b6100c16100513660046101bb565b6040805160808101825233815260208082019485528183019384526001606083018181525f9788529187905292909520905181546001600160a01b0319166001600160a01b0390911617815592519083015551600282015590516003909101805460ff1916911515919091179055565b005b6100c16100d13660046101e4565b610147565b6101176100e43660046101e4565b5f6020819052908152604090208054600182015460028301546003909301546001600160a01b0390921692909160ff1684565b604080516001600160a01b0390951685526020850193909352918301521515606082015260800160405180910390f35b5f818152602081905260409020546001600160a01b031633146101a15760405162461bcd60e51b815260206004820152600e60248201526d4e6f7420746865206c657373656560901b604482015260640160405180910390fd5b5f908152602081905260409020600301805460ff19169055565b5f805f606084860312156101cd575f80fd5b505081359360208301359350604090920135919050565b5f602082840312156101f4575f80fd5b503591905056fea26469706673582212207b1bf6a0045dd8ffe780bf86a7d1724bae63b6800b49033aaad7005c14c63db864736f6c63430008190033",
					"opcodes": "PUSH1 0x80 PUSH1 0x40 MSTORE CALLVALUE DUP1 ISZERO PUSH1 0xE JUMPI PUSH0 DUP1 REVERT JUMPDEST POP PUSH2 0x231 DUP1 PUSH2 0x1C PUSH0 CODECOPY PUSH0 RETURN INVALID PUSH1 0x80 PUSH1 0x40 MSTORE CALLVALUE DUP1 ISZERO PUSH2 0xF JUMPI PUSH0 DUP1 REVERT JUMPDEST POP PUSH1 0x4 CALLDATASIZE LT PUSH2 0x3F JUMPI PUSH0 CALLDATALOAD PUSH1 0xE0 SHR DUP1 PUSH4 0x78486091 EQ PUSH2 0x43 JUMPI DUP1 PUSH4 0x91EF935C EQ PUSH2 0xC3 JUMPI DUP1 PUSH4 0xAAF3B888 EQ PUSH2 0xD6 JUMPI JUMPDEST PUSH0 DUP1 REVERT JUMPDEST PUSH2 0xC1 PUSH2 0x51 CALLDATASIZE PUSH1 0x4 PUSH2 0x1BB JUMP JUMPDEST PUSH1 0x40 DUP1 MLOAD PUSH1 0x80 DUP2 ADD DUP3 MSTORE CALLER DUP2 MSTORE PUSH1 0x20 DUP1 DUP3 ADD SWAP5 DUP6 MSTORE DUP2 DUP4 ADD SWAP4 DUP5 MSTORE PUSH1 0x1 PUSH1 0x60 DUP4 ADD DUP2 DUP2 MSTORE PUSH0 SWAP8 DUP9 MSTORE SWAP2 DUP8 SWAP1 MSTORE SWAP3 SWAP1 SWAP6 KECCAK256 SWAP1 MLOAD DUP2 SLOAD PUSH1 0x1 PUSH1 0x1 PUSH1 0xA0 SHL SUB NOT AND PUSH1 0x1 PUSH1 0x1 PUSH1 0xA0 SHL SUB SWAP1 SWAP2 AND OR DUP2 SSTORE SWAP3 MLOAD SWAP1 DUP4 ADD SSTORE MLOAD PUSH1 0x2 DUP3 ADD SSTORE SWAP1 MLOAD PUSH1 0x3 SWAP1 SWAP2 ADD DUP1 SLOAD PUSH1 0xFF NOT AND SWAP2 ISZERO ISZERO SWAP2 SWAP1 SWAP2 OR SWAP1 SSTORE JUMP JUMPDEST STOP JUMPDEST PUSH2 0xC1 PUSH2 0xD1 CALLDATASIZE PUSH1 0x4 PUSH2 0x1E4 JUMP JUMPDEST PUSH2 0x147 JUMP JUMPDEST PUSH2 0x117 PUSH2 0xE4 CALLDATASIZE PUSH1 0x4 PUSH2 0x1E4 JUMP JUMPDEST PUSH0 PUSH1 0x20 DUP2 SWAP1 MSTORE SWAP1 DUP2 MSTORE PUSH1 0x40 SWAP1 KECCAK256 DUP1 SLOAD PUSH1 0x1 DUP3 ADD SLOAD PUSH1 0x2 DUP4 ADD SLOAD PUSH1 0x3 SWAP1 SWAP4 ADD SLOAD PUSH1 0x1 PUSH1 0x1 PUSH1 0xA0 SHL SUB SWAP1 SWAP3 AND SWAP3 SWAP1 SWAP2 PUSH1 0xFF AND DUP5 JUMP JUMPDEST PUSH1 0x40 DUP1 MLOAD PUSH1 0x1 PUSH1 0x1 PUSH1 0xA0 SHL SUB SWAP1 SWAP6 AND DUP6 MSTORE PUSH1 0x20 DUP6 ADD SWAP4 SWAP1 SWAP4 MSTORE SWAP2 DUP4 ADD MSTORE ISZERO ISZERO PUSH1 0x60 DUP3 ADD MSTORE PUSH1 0x80 ADD PUSH1 0x40 MLOAD DUP1 SWAP2 SUB SWAP1 RETURN JUMPDEST PUSH0 DUP2 DUP2 MSTORE PUSH1 0x20 DUP2 SWAP1 MSTORE PUSH1 0x40 SWAP1 KECCAK256 SLOAD PUSH1 0x1 PUSH1 0x1 PUSH1 0xA0 SHL SUB AND CALLER EQ PUSH2 0x1A1 JUMPI PUSH1 0x40 MLOAD PUSH3 0x461BCD PUSH1 0xE5 SHL DUP2 MSTORE PUSH1 0x20 PUSH1 0x4 DUP3 ADD MSTORE PUSH1 0xE PUSH1 0x24 DUP3 ADD MSTORE PUSH14 0x4E6F7420746865206C6573736565 PUSH1 0x90 SHL PUSH1 0x44 DUP3 ADD MSTORE PUSH1 0x64 ADD PUSH1 0x40 MLOAD DUP1 SWAP2 SUB SWAP1 REVERT JUMPDEST PUSH0 SWAP1 DUP2 MSTORE PUSH1 0x20 DUP2 SWAP1 MSTORE PUSH1 0x40 SWAP1 KECCAK256 PUSH1 0x3 ADD DUP1 SLOAD PUSH1 0xFF NOT AND SWAP1 SSTORE JUMP JUMPDEST PUSH0 DUP1 PUSH0 PUSH1 0x60 DUP5 DUP7 SUB SLT ISZERO PUSH2 0x1CD JUMPI PUSH0 DUP1 REVERT JUMPDEST POP POP DUP2 CALLDATALOAD SWAP4 PUSH1 0x20 DUP4 ADD CALLDATALOAD SWAP4 POP PUSH1 0x40 SWAP1 SWAP3 ADD CALLDATALOAD SWAP2 SWAP1 POP JUMP JUMPDEST PUSH0 PUSH1 0x20 DUP3 DUP5 SUB SLT ISZERO PUSH2 0x1F4 JUMPI PUSH0 DUP1 REVERT JUMPDEST POP CALLDATALOAD SWAP2 SWAP1 POP JUMP INVALID LOG2 PUSH5 0x6970667358 0x22 SLT KECCAK256 PUSH28 0x1BF6A0045DD8FFE780BF86A7D1724BAE63B6800B49033AAAD7005C14 0xC6 RETURNDATASIZE 0xB8 PUSH5 0x736F6C6343 STOP ADDMOD NOT STOP CALLER "
				},
				"gasEstimates": {
					"creation": {
						"codeDepositCost": "112200",
						"executionCost": "157",
						"totalCost": "112357"
					},
					"external": {
						"createLease(uint256,uint256,uint256)": "93152",
						"endLease(uint256)": "26719",
						"vehicleLeases(uint256)": "8904"
					}
				},
				"methodIdentifiers": {
					"createLease(uint256,uint256,uint256)": "78486091",
					"endLease(uint256)": "91ef935c",
					"vehicleLeases(uint256)": "aaf3b888"
				}
			},
			"storageLayout": {
				"storage": [
					{
						"astId": 14,
						"contract": "artifacts/Carlease.sol:AutonomousVehicleLease",
						"label": "vehicleLeases",
						"offset": 0,
						"slot": "0",
						"type": "t_mapping(t_uint256,t_struct(Lease)9_storage)"
					}
				],
				"types": {
					"t_address": {
						"encoding": "inplace",
						"label": "address",
						"numberOfBytes": "20"
					},
					"t_bool": {
						"encoding": "inplace",
						"label": "bool",
						"numberOfBytes": "1"
					},
					"t_mapping(t_uint256,t_struct(Lease)9_storage)": {
						"encoding": "mapping",
						"key": "t_uint256",
						"label": "mapping(uint256 => struct AutonomousVehicleLease.Lease)",
						"numberOfBytes": "32",
						"value": "t_struct(Lease)9_storage"
					},
					"t_struct(Lease)9_storage": {
						"encoding": "inplace",
						"label": "struct AutonomousVehicleLease.Lease",
						"members": [
							{
								"astId": 2,
								"contract": "artifacts/Carlease.sol:AutonomousVehicleLease",
								"label": "lessee",
								"offset": 0,
								"slot": "0",
								"type": "t_address"
							},
							{
								"astId": 4,
								"contract": "artifacts/Carlease.sol:AutonomousVehicleLease",
								"label": "leaseDuration",
								"offset": 0,
								"slot": "1",
								"type": "t_uint256"
							},
							{
								"astId": 6,
								"contract": "artifacts/Carlease.sol:AutonomousVehicleLease",
								"label": "leaseCost",
								"offset": 0,
								"slot": "2",
								"type": "t_uint256"
							},
							{
								"astId": 8,
								"contract": "artifacts/Carlease.sol:AutonomousVehicleLease",
								"label": "isActive",
								"offset": 0,
								"slot": "3",
								"type": "t_bool"
							}
						],
						"numberOfBytes": "128"
					},
					"t_uint256": {
						"encoding": "inplace",
						"label": "uint256",
						"numberOfBytes": "32"
					}
				}
			},
			"userdoc": {
				"kind": "user",
				"methods": {},
				"version": 1
			}
		}
	}
}