{
	"artifacts/Ip.sol": {
		"IPManagement": {
			"abi": [
				{
					"inputs": [
						{
							"internalType": "uint256",
							"name": "",
							"type": "uint256"
						}
					],
					"name": "IPs",
					"outputs": [
						{
							"internalType": "string",
							"name": "name",
							"type": "string"
						},
						{
							"internalType": "address",
							"name": "owner",
							"type": "address"
						},
						{
							"internalType": "uint256",
							"name": "registrationDate",
							"type": "uint256"
						}
					],
					"stateMutability": "view",
					"type": "function"
				},
				{
					"inputs": [],
					"name": "ipCount",
					"outputs": [
						{
							"internalType": "uint256",
							"name": "",
							"type": "uint256"
						}
					],
					"stateMutability": "view",
					"type": "function"
				},
				{
					"inputs": [
						{
							"internalType": "string",
							"name": "_name",
							"type": "string"
						}
					],
					"name": "registerIP",
					"outputs": [],
					"stateMutability": "nonpayable",
					"type": "function"
				}
			],
			"devdoc": {
				"kind": "dev",
				"methods": {},
				"version": 1
			},
			"evm": {
				"assembly": "    /* \"artifacts/Ip.sol\":0:344  contract IPManagement {... */\n  mstore(0x40, 0x80)\n  callvalue\n  dup1\n  iszero\n  tag_1\n  jumpi\n  0x00\n  dup1\n  revert\ntag_1:\n  pop\n  dataSize(sub_0)\n  dup1\n  dataOffset(sub_0)\n  0x00\n  codecopy\n  0x00\n  return\nstop\n\nsub_0: assembly {\n        /* \"artifacts/Ip.sol\":0:344  contract IPManagement {... */\n      mstore(0x40, 0x80)\n      callvalue\n      dup1\n      iszero\n      tag_1\n      jumpi\n      0x00\n      dup1\n      revert\n    tag_1:\n      pop\n      jumpi(tag_2, lt(calldatasize, 0x04))\n      shr(0xe0, calldataload(0x00))\n      dup1\n      0x907e67fe\n      eq\n      tag_3\n      jumpi\n      dup1\n      0x9cd28262\n      eq\n      tag_4\n      jumpi\n      dup1\n      0xc7f19355\n      eq\n      tag_5\n      jumpi\n    tag_2:\n      0x00\n      dup1\n      revert\n        /* \"artifacts/Ip.sol\":170:189  uint public ipCount */\n    tag_3:\n      tag_6\n      sload(0x01)\n      dup2\n      jump\n    tag_6:\n      mload(0x40)\n        /* \"#utility.yul\":160:185   */\n      swap1\n      dup2\n      mstore\n        /* \"#utility.yul\":148:150   */\n      0x20\n        /* \"#utility.yul\":133:151   */\n      add\n        /* \"artifacts/Ip.sol\":170:189  uint public ipCount */\n    tag_8:\n      mload(0x40)\n      dup1\n      swap2\n      sub\n      swap1\n      return\n        /* \"artifacts/Ip.sol\":133:163  mapping(uint => IP) public IPs */\n    tag_4:\n      tag_10\n      tag_11\n      calldatasize\n      0x04\n      tag_12\n      jump\t// in\n    tag_11:\n      tag_13\n      jump\t// in\n    tag_10:\n      mload(0x40)\n      tag_8\n      swap4\n      swap3\n      swap2\n      swap1\n      tag_15\n      jump\t// in\n        /* \"artifacts/Ip.sol\":198:341  function registerIP(string memory _name) public {... */\n    tag_5:\n      tag_16\n      tag_17\n      calldatasize\n      0x04\n      tag_18\n      jump\t// in\n    tag_17:\n      tag_19\n      jump\t// in\n    tag_16:\n      stop\n        /* \"artifacts/Ip.sol\":133:163  mapping(uint => IP) public IPs */\n    tag_13:\n      0x00\n      0x20\n      dup2\n      swap1\n      mstore\n      swap1\n      dup2\n      mstore\n      0x40\n      swap1\n      keccak256\n      dup1\n      sload\n      dup2\n      swap1\n      tag_20\n      swap1\n      tag_21\n      jump\t// in\n    tag_20:\n      dup1\n      0x1f\n      add\n      0x20\n      dup1\n      swap2\n      div\n      mul\n      0x20\n      add\n      mload(0x40)\n      swap1\n      dup2\n      add\n      0x40\n      mstore\n      dup1\n      swap3\n      swap2\n      swap1\n      dup2\n      dup2\n      mstore\n      0x20\n      add\n      dup3\n      dup1\n      sload\n      tag_22\n      swap1\n      tag_21\n      jump\t// in\n    tag_22:\n      dup1\n      iszero\n      tag_23\n      jumpi\n      dup1\n      0x1f\n      lt\n      tag_24\n      jumpi\n      0x0100\n      dup1\n      dup4\n      sload\n      div\n      mul\n      dup4\n      mstore\n      swap2\n      0x20\n      add\n      swap2\n      jump(tag_23)\n    tag_24:\n      dup3\n      add\n      swap2\n      swap1\n      0x00\n      mstore\n      keccak256(0x00, 0x20)\n      swap1\n    tag_25:\n      dup2\n      sload\n      dup2\n      mstore\n      swap1\n      0x01\n      add\n      swap1\n      0x20\n      add\n      dup1\n      dup4\n      gt\n      tag_25\n      jumpi\n      dup3\n      swap1\n      sub\n      0x1f\n      and\n      dup3\n      add\n      swap2\n    tag_23:\n      pop\n      pop\n      pop\n      pop\n      0x01\n      dup4\n      add\n      sload\n      0x02\n      swap1\n      swap4\n      add\n      sload\n      swap2\n      swap3\n      sub(shl(0xa0, 0x01), 0x01)\n      and\n      swap2\n      swap1\n      pop\n      dup4\n      jump\t// out\n        /* \"artifacts/Ip.sol\":198:341  function registerIP(string memory _name) public {... */\n    tag_19:\n        /* \"artifacts/Ip.sol\":268:269  1 */\n      0x01\n        /* \"artifacts/Ip.sol\":257:264  ipCount */\n      dup1\n      0x00\n        /* \"artifacts/Ip.sol\":257:269  ipCount += 1 */\n      dup3\n      dup3\n      sload\n      tag_27\n      swap2\n      swap1\n      tag_28\n      jump\t// in\n    tag_27:\n      swap1\n      swap2\n      sstore\n      pop\n      pop\n        /* \"artifacts/Ip.sol\":295:333  IP(_name, msg.sender, block.timestamp) */\n      0x40\n      dup1\n      mload\n      0x60\n      dup2\n      add\n      dup3\n      mstore\n      dup3\n      dup2\n      mstore\n        /* \"artifacts/Ip.sol\":305:315  msg.sender */\n      caller\n        /* \"artifacts/Ip.sol\":295:333  IP(_name, msg.sender, block.timestamp) */\n      0x20\n      dup1\n      dup4\n      add\n      swap2\n      swap1\n      swap2\n      mstore\n        /* \"artifacts/Ip.sol\":317:332  block.timestamp */\n      timestamp\n        /* \"artifacts/Ip.sol\":295:333  IP(_name, msg.sender, block.timestamp) */\n      dup3\n      dup5\n      add\n      mstore\n        /* \"artifacts/Ip.sol\":284:291  ipCount */\n      sload(0x01)\n      0x00\n        /* \"artifacts/Ip.sol\":280:292  IPs[ipCount] */\n      swap1\n      dup2\n      mstore\n      swap1\n      dup2\n      swap1\n      mstore\n      swap2\n      swap1\n      swap2\n      keccak256\n        /* \"artifacts/Ip.sol\":280:333  IPs[ipCount] = IP(_name, msg.sender, block.timestamp) */\n      dup2\n      mload\n        /* \"artifacts/Ip.sol\":280:292  IPs[ipCount] */\n      dup2\n      swap1\n        /* \"artifacts/Ip.sol\":280:333  IPs[ipCount] = IP(_name, msg.sender, block.timestamp) */\n      tag_29\n      swap1\n        /* \"artifacts/Ip.sol\":280:292  IPs[ipCount] */\n      dup3\n        /* \"artifacts/Ip.sol\":280:333  IPs[ipCount] = IP(_name, msg.sender, block.timestamp) */\n      tag_30\n      jump\t// in\n    tag_29:\n      pop\n      0x20\n      dup3\n      add\n      mload\n      0x01\n      dup3\n      add\n      dup1\n      sload\n      not(sub(shl(0xa0, 0x01), 0x01))\n      and\n      sub(shl(0xa0, 0x01), 0x01)\n      swap1\n      swap3\n      and\n      swap2\n      swap1\n      swap2\n      or\n      swap1\n      sstore\n      0x40\n      swap1\n      swap2\n      add\n      mload\n      0x02\n      swap1\n      swap2\n      add\n      sstore\n      pop\n        /* \"artifacts/Ip.sol\":198:341  function registerIP(string memory _name) public {... */\n      jump\t// out\n        /* \"#utility.yul\":196:376   */\n    tag_12:\n        /* \"#utility.yul\":255:261   */\n      0x00\n        /* \"#utility.yul\":308:310   */\n      0x20\n        /* \"#utility.yul\":296:305   */\n      dup3\n        /* \"#utility.yul\":287:294   */\n      dup5\n        /* \"#utility.yul\":283:306   */\n      sub\n        /* \"#utility.yul\":279:311   */\n      slt\n        /* \"#utility.yul\":276:328   */\n      iszero\n      tag_38\n      jumpi\n        /* \"#utility.yul\":324:325   */\n      0x00\n        /* \"#utility.yul\":321:322   */\n      dup1\n        /* \"#utility.yul\":314:326   */\n      revert\n        /* \"#utility.yul\":276:328   */\n    tag_38:\n      pop\n        /* \"#utility.yul\":347:370   */\n      calldataload\n      swap2\n        /* \"#utility.yul\":196:376   */\n      swap1\n      pop\n      jump\t// out\n        /* \"#utility.yul\":381:974   */\n    tag_15:\n        /* \"#utility.yul\":586:588   */\n      0x60\n        /* \"#utility.yul\":575:584   */\n      dup2\n        /* \"#utility.yul\":568:589   */\n      mstore\n        /* \"#utility.yul\":549:553   */\n      0x00\n        /* \"#utility.yul\":618:624   */\n      dup5\n        /* \"#utility.yul\":612:625   */\n      mload\n        /* \"#utility.yul\":661:667   */\n      dup1\n        /* \"#utility.yul\":656:658   */\n      0x60\n        /* \"#utility.yul\":645:654   */\n      dup5\n        /* \"#utility.yul\":641:659   */\n      add\n        /* \"#utility.yul\":634:668   */\n      mstore\n        /* \"#utility.yul\":723:729   */\n      dup1\n        /* \"#utility.yul\":716:720   */\n      0x20\n        /* \"#utility.yul\":708:714   */\n      dup8\n        /* \"#utility.yul\":704:721   */\n      add\n        /* \"#utility.yul\":698:701   */\n      0x80\n        /* \"#utility.yul\":687:696   */\n      dup6\n        /* \"#utility.yul\":683:702   */\n      add\n        /* \"#utility.yul\":677:730   */\n      mcopy\n        /* \"#utility.yul\":780:781   */\n      0x00\n        /* \"#utility.yul\":774:777   */\n      0x80\n        /* \"#utility.yul\":750:772   */\n      dup3\n      dup6\n      add\n        /* \"#utility.yul\":746:778   */\n      dup2\n      add\n        /* \"#utility.yul\":739:782   */\n      swap2\n      swap1\n      swap2\n      mstore\n      sub(shl(0xa0, 0x01), 0x01)\n        /* \"#utility.yul\":892:924   */\n      swap6\n      swap1\n      swap6\n      and\n        /* \"#utility.yul\":885:889   */\n      0x20\n        /* \"#utility.yul\":870:890   */\n      dup5\n      add\n        /* \"#utility.yul\":863:925   */\n      mstore\n        /* \"#utility.yul\":956:958   */\n      0x40\n        /* \"#utility.yul\":941:959   */\n      dup4\n      add\n        /* \"#utility.yul\":934:968   */\n      swap4\n      swap1\n      swap4\n      mstore\n      pop\n        /* \"#utility.yul\":843:845   */\n      0x1f\n        /* \"#utility.yul\":822:837   */\n      swap1\n      swap2\n      add\n      not(0x1f)\n        /* \"#utility.yul\":818:847   */\n      and\n        /* \"#utility.yul\":803:848   */\n      add\n        /* \"#utility.yul\":799:854   */\n      add\n      swap2\n      swap1\n      pop\n        /* \"#utility.yul\":381:974   */\n      jump\t// out\n        /* \"#utility.yul\":979:1106   */\n    tag_31:\n        /* \"#utility.yul\":1040:1050   */\n      0x4e487b71\n        /* \"#utility.yul\":1035:1038   */\n      0xe0\n        /* \"#utility.yul\":1031:1051   */\n      shl\n        /* \"#utility.yul\":1028:1029   */\n      0x00\n        /* \"#utility.yul\":1021:1052   */\n      mstore\n        /* \"#utility.yul\":1071:1075   */\n      0x41\n        /* \"#utility.yul\":1068:1069   */\n      0x04\n        /* \"#utility.yul\":1061:1076   */\n      mstore\n        /* \"#utility.yul\":1095:1099   */\n      0x24\n        /* \"#utility.yul\":1092:1093   */\n      0x00\n        /* \"#utility.yul\":1085:1100   */\n      revert\n        /* \"#utility.yul\":1111:2033   */\n    tag_18:\n        /* \"#utility.yul\":1180:1186   */\n      0x00\n        /* \"#utility.yul\":1233:1235   */\n      0x20\n        /* \"#utility.yul\":1221:1230   */\n      dup3\n        /* \"#utility.yul\":1212:1219   */\n      dup5\n        /* \"#utility.yul\":1208:1231   */\n      sub\n        /* \"#utility.yul\":1204:1236   */\n      slt\n        /* \"#utility.yul\":1201:1253   */\n      iszero\n      tag_42\n      jumpi\n        /* \"#utility.yul\":1249:1250   */\n      0x00\n        /* \"#utility.yul\":1246:1247   */\n      dup1\n        /* \"#utility.yul\":1239:1251   */\n      revert\n        /* \"#utility.yul\":1201:1253   */\n    tag_42:\n        /* \"#utility.yul\":1289:1298   */\n      dup2\n        /* \"#utility.yul\":1276:1299   */\n      calldataload\n        /* \"#utility.yul\":1318:1336   */\n      0xffffffffffffffff\n        /* \"#utility.yul\":1359:1361   */\n      dup1\n        /* \"#utility.yul\":1351:1357   */\n      dup3\n        /* \"#utility.yul\":1348:1362   */\n      gt\n        /* \"#utility.yul\":1345:1379   */\n      iszero\n      tag_43\n      jumpi\n        /* \"#utility.yul\":1375:1376   */\n      0x00\n        /* \"#utility.yul\":1372:1373   */\n      dup1\n        /* \"#utility.yul\":1365:1377   */\n      revert\n        /* \"#utility.yul\":1345:1379   */\n    tag_43:\n        /* \"#utility.yul\":1413:1419   */\n      dup2\n        /* \"#utility.yul\":1402:1411   */\n      dup5\n        /* \"#utility.yul\":1398:1420   */\n      add\n        /* \"#utility.yul\":1388:1420   */\n      swap2\n      pop\n        /* \"#utility.yul\":1458:1465   */\n      dup5\n        /* \"#utility.yul\":1451:1455   */\n      0x1f\n        /* \"#utility.yul\":1447:1449   */\n      dup4\n        /* \"#utility.yul\":1443:1456   */\n      add\n        /* \"#utility.yul\":1439:1466   */\n      slt\n        /* \"#utility.yul\":1429:1484   */\n      tag_44\n      jumpi\n        /* \"#utility.yul\":1480:1481   */\n      0x00\n        /* \"#utility.yul\":1477:1478   */\n      dup1\n        /* \"#utility.yul\":1470:1482   */\n      revert\n        /* \"#utility.yul\":1429:1484   */\n    tag_44:\n        /* \"#utility.yul\":1516:1518   */\n      dup2\n        /* \"#utility.yul\":1503:1519   */\n      calldataload\n        /* \"#utility.yul\":1538:1540   */\n      dup2\n        /* \"#utility.yul\":1534:1536   */\n      dup2\n        /* \"#utility.yul\":1531:1541   */\n      gt\n        /* \"#utility.yul\":1528:1564   */\n      iszero\n      tag_46\n      jumpi\n        /* \"#utility.yul\":1544:1562   */\n      tag_46\n      tag_31\n      jump\t// in\n    tag_46:\n        /* \"#utility.yul\":1619:1621   */\n      0x40\n        /* \"#utility.yul\":1613:1622   */\n      mload\n        /* \"#utility.yul\":1587:1589   */\n      0x1f\n        /* \"#utility.yul\":1673:1686   */\n      dup3\n      add\n      not(0x1f)\n        /* \"#utility.yul\":1669:1691   */\n      swap1\n      dup2\n      and\n        /* \"#utility.yul\":1693:1695   */\n      0x3f\n        /* \"#utility.yul\":1665:1696   */\n      add\n        /* \"#utility.yul\":1661:1701   */\n      and\n        /* \"#utility.yul\":1649:1702   */\n      dup2\n      add\n      swap1\n        /* \"#utility.yul\":1717:1735   */\n      dup4\n      dup3\n      gt\n        /* \"#utility.yul\":1737:1759   */\n      dup2\n      dup4\n      lt\n        /* \"#utility.yul\":1714:1760   */\n      or\n        /* \"#utility.yul\":1711:1783   */\n      iszero\n      tag_48\n      jumpi\n        /* \"#utility.yul\":1763:1781   */\n      tag_48\n      tag_31\n      jump\t// in\n    tag_48:\n        /* \"#utility.yul\":1803:1813   */\n      dup2\n        /* \"#utility.yul\":1799:1801   */\n      0x40\n        /* \"#utility.yul\":1792:1814   */\n      mstore\n        /* \"#utility.yul\":1838:1840   */\n      dup3\n        /* \"#utility.yul\":1830:1836   */\n      dup2\n        /* \"#utility.yul\":1823:1841   */\n      mstore\n        /* \"#utility.yul\":1878:1885   */\n      dup8\n        /* \"#utility.yul\":1873:1875   */\n      0x20\n        /* \"#utility.yul\":1868:1870   */\n      dup5\n        /* \"#utility.yul\":1864:1866   */\n      dup8\n        /* \"#utility.yul\":1860:1871   */\n      add\n        /* \"#utility.yul\":1856:1876   */\n      add\n        /* \"#utility.yul\":1853:1886   */\n      gt\n        /* \"#utility.yul\":1850:1903   */\n      iszero\n      tag_49\n      jumpi\n        /* \"#utility.yul\":1899:1900   */\n      0x00\n        /* \"#utility.yul\":1896:1897   */\n      dup1\n        /* \"#utility.yul\":1889:1901   */\n      revert\n        /* \"#utility.yul\":1850:1903   */\n    tag_49:\n        /* \"#utility.yul\":1955:1957   */\n      dup3\n        /* \"#utility.yul\":1950:1952   */\n      0x20\n        /* \"#utility.yul\":1946:1948   */\n      dup7\n        /* \"#utility.yul\":1942:1953   */\n      add\n        /* \"#utility.yul\":1937:1939   */\n      0x20\n        /* \"#utility.yul\":1929:1935   */\n      dup4\n        /* \"#utility.yul\":1925:1940   */\n      add\n        /* \"#utility.yul\":1912:1958   */\n      calldatacopy\n        /* \"#utility.yul\":2000:2001   */\n      0x00\n        /* \"#utility.yul\":1978:1993   */\n      swap3\n      dup2\n      add\n        /* \"#utility.yul\":1995:1997   */\n      0x20\n        /* \"#utility.yul\":1974:1998   */\n      add\n        /* \"#utility.yul\":1967:2002   */\n      swap3\n      swap1\n      swap3\n      mstore\n      pop\n        /* \"#utility.yul\":1982:1988   */\n      swap6\n        /* \"#utility.yul\":1111:2033   */\n      swap5\n      pop\n      pop\n      pop\n      pop\n      pop\n      jump\t// out\n        /* \"#utility.yul\":2038:2418   */\n    tag_21:\n        /* \"#utility.yul\":2117:2118   */\n      0x01\n        /* \"#utility.yul\":2113:2125   */\n      dup2\n      dup2\n      shr\n      swap1\n        /* \"#utility.yul\":2160:2172   */\n      dup3\n      and\n      dup1\n        /* \"#utility.yul\":2181:2242   */\n      tag_51\n      jumpi\n        /* \"#utility.yul\":2235:2239   */\n      0x7f\n        /* \"#utility.yul\":2227:2233   */\n      dup3\n        /* \"#utility.yul\":2223:2240   */\n      and\n        /* \"#utility.yul\":2213:2240   */\n      swap2\n      pop\n        /* \"#utility.yul\":2181:2242   */\n    tag_51:\n        /* \"#utility.yul\":2288:2290   */\n      0x20\n        /* \"#utility.yul\":2280:2286   */\n      dup3\n        /* \"#utility.yul\":2277:2291   */\n      lt\n        /* \"#utility.yul\":2257:2275   */\n      dup2\n        /* \"#utility.yul\":2254:2292   */\n      sub\n        /* \"#utility.yul\":2251:2412   */\n      tag_52\n      jumpi\n        /* \"#utility.yul\":2334:2344   */\n      0x4e487b71\n        /* \"#utility.yul\":2329:2332   */\n      0xe0\n        /* \"#utility.yul\":2325:2345   */\n      shl\n        /* \"#utility.yul\":2322:2323   */\n      0x00\n        /* \"#utility.yul\":2315:2346   */\n      mstore\n        /* \"#utility.yul\":2369:2373   */\n      0x22\n        /* \"#utility.yul\":2366:2367   */\n      0x04\n        /* \"#utility.yul\":2359:2374   */\n      mstore\n        /* \"#utility.yul\":2397:2401   */\n      0x24\n        /* \"#utility.yul\":2394:2395   */\n      0x00\n        /* \"#utility.yul\":2387:2402   */\n      revert\n        /* \"#utility.yul\":2251:2412   */\n    tag_52:\n      pop\n        /* \"#utility.yul\":2038:2418   */\n      swap2\n      swap1\n      pop\n      jump\t// out\n        /* \"#utility.yul\":2423:2645   */\n    tag_28:\n        /* \"#utility.yul\":2488:2497   */\n      dup1\n      dup3\n      add\n        /* \"#utility.yul\":2509:2519   */\n      dup1\n      dup3\n      gt\n        /* \"#utility.yul\":2506:2639   */\n      iszero\n      tag_54\n      jumpi\n        /* \"#utility.yul\":2561:2571   */\n      0x4e487b71\n        /* \"#utility.yul\":2556:2559   */\n      0xe0\n        /* \"#utility.yul\":2552:2572   */\n      shl\n        /* \"#utility.yul\":2549:2550   */\n      0x00\n        /* \"#utility.yul\":2542:2573   */\n      mstore\n        /* \"#utility.yul\":2596:2600   */\n      0x11\n        /* \"#utility.yul\":2593:2594   */\n      0x04\n        /* \"#utility.yul\":2586:2601   */\n      mstore\n        /* \"#utility.yul\":2624:2628   */\n      0x24\n        /* \"#utility.yul\":2621:2622   */\n      0x00\n        /* \"#utility.yul\":2614:2629   */\n      revert\n        /* \"#utility.yul\":2506:2639   */\n    tag_54:\n        /* \"#utility.yul\":2423:2645   */\n      swap3\n      swap2\n      pop\n      pop\n      jump\t// out\n        /* \"#utility.yul\":2776:3294   */\n    tag_33:\n        /* \"#utility.yul\":2878:2880   */\n      0x1f\n        /* \"#utility.yul\":2873:2876   */\n      dup3\n        /* \"#utility.yul\":2870:2881   */\n      gt\n        /* \"#utility.yul\":2867:3288   */\n      iszero\n      tag_57\n      jumpi\n        /* \"#utility.yul\":2914:2919   */\n      dup1\n        /* \"#utility.yul\":2911:2912   */\n      0x00\n        /* \"#utility.yul\":2904:2920   */\n      mstore\n        /* \"#utility.yul\":2958:2962   */\n      0x20\n        /* \"#utility.yul\":2955:2956   */\n      0x00\n        /* \"#utility.yul\":2945:2963   */\n      keccak256\n        /* \"#utility.yul\":3028:3030   */\n      0x1f\n        /* \"#utility.yul\":3016:3026   */\n      dup5\n        /* \"#utility.yul\":3012:3031   */\n      add\n        /* \"#utility.yul\":3009:3010   */\n      0x05\n        /* \"#utility.yul\":3005:3032   */\n      shr\n        /* \"#utility.yul\":2999:3003   */\n      dup2\n        /* \"#utility.yul\":2995:3033   */\n      add\n        /* \"#utility.yul\":3064:3068   */\n      0x20\n        /* \"#utility.yul\":3052:3062   */\n      dup6\n        /* \"#utility.yul\":3049:3069   */\n      lt\n        /* \"#utility.yul\":3046:3093   */\n      iszero\n      tag_58\n      jumpi\n      pop\n        /* \"#utility.yul\":3087:3091   */\n      dup1\n        /* \"#utility.yul\":3046:3093   */\n    tag_58:\n        /* \"#utility.yul\":3142:3144   */\n      0x1f\n        /* \"#utility.yul\":3137:3140   */\n      dup5\n        /* \"#utility.yul\":3133:3145   */\n      add\n        /* \"#utility.yul\":3130:3131   */\n      0x05\n        /* \"#utility.yul\":3126:3146   */\n      shr\n        /* \"#utility.yul\":3120:3124   */\n      dup3\n        /* \"#utility.yul\":3116:3147   */\n      add\n        /* \"#utility.yul\":3106:3147   */\n      swap2\n      pop\n        /* \"#utility.yul\":3197:3278   */\n    tag_59:\n        /* \"#utility.yul\":3215:3217   */\n      dup2\n        /* \"#utility.yul\":3208:3213   */\n      dup2\n        /* \"#utility.yul\":3205:3218   */\n      lt\n        /* \"#utility.yul\":3197:3278   */\n      iszero\n      tag_61\n      jumpi\n        /* \"#utility.yul\":3274:3275   */\n      0x00\n        /* \"#utility.yul\":3260:3276   */\n      dup2\n      sstore\n        /* \"#utility.yul\":3241:3242   */\n      0x01\n        /* \"#utility.yul\":3230:3243   */\n      add\n        /* \"#utility.yul\":3197:3278   */\n      jump(tag_59)\n    tag_61:\n        /* \"#utility.yul\":3201:3204   */\n      pop\n      pop\n        /* \"#utility.yul\":2867:3288   */\n    tag_57:\n        /* \"#utility.yul\":2776:3294   */\n      pop\n      pop\n      pop\n      jump\t// out\n        /* \"#utility.yul\":3470:4815   */\n    tag_30:\n        /* \"#utility.yul\":3596:3599   */\n      dup2\n        /* \"#utility.yul\":3590:3600   */\n      mload\n        /* \"#utility.yul\":3623:3641   */\n      0xffffffffffffffff\n        /* \"#utility.yul\":3615:3621   */\n      dup2\n        /* \"#utility.yul\":3612:3642   */\n      gt\n        /* \"#utility.yul\":3609:3665   */\n      iszero\n      tag_65\n      jumpi\n        /* \"#utility.yul\":3645:3663   */\n      tag_65\n      tag_31\n      jump\t// in\n    tag_65:\n        /* \"#utility.yul\":3674:3771   */\n      tag_66\n        /* \"#utility.yul\":3764:3770   */\n      dup2\n        /* \"#utility.yul\":3724:3762   */\n      tag_67\n        /* \"#utility.yul\":3756:3760   */\n      dup5\n        /* \"#utility.yul\":3750:3761   */\n      sload\n        /* \"#utility.yul\":3724:3762   */\n      tag_21\n      jump\t// in\n    tag_67:\n        /* \"#utility.yul\":3718:3722   */\n      dup5\n        /* \"#utility.yul\":3674:3771   */\n      tag_33\n      jump\t// in\n    tag_66:\n        /* \"#utility.yul\":3826:3830   */\n      0x20\n      dup1\n        /* \"#utility.yul\":3883:3885   */\n      0x1f\n        /* \"#utility.yul\":3872:3886   */\n      dup4\n      gt\n        /* \"#utility.yul\":3900:3901   */\n      0x01\n        /* \"#utility.yul\":3895:4558   */\n      dup2\n      eq\n      tag_69\n      jumpi\n        /* \"#utility.yul\":4602:4603   */\n      0x00\n        /* \"#utility.yul\":4619:4625   */\n      dup5\n        /* \"#utility.yul\":4616:4705   */\n      iszero\n      tag_70\n      jumpi\n      pop\n        /* \"#utility.yul\":4671:4690   */\n      dup6\n      dup4\n      add\n        /* \"#utility.yul\":4665:4691   */\n      mload\n        /* \"#utility.yul\":4616:4705   */\n    tag_70:\n      not(0x00)\n        /* \"#utility.yul\":3427:3428   */\n      0x03\n        /* \"#utility.yul\":3423:3434   */\n      dup7\n      swap1\n      shl\n        /* \"#utility.yul\":3419:3443   */\n      shr\n        /* \"#utility.yul\":3415:3444   */\n      not\n        /* \"#utility.yul\":3405:3445   */\n      and\n        /* \"#utility.yul\":3451:3452   */\n      0x01\n        /* \"#utility.yul\":3447:3458   */\n      dup6\n      swap1\n      shl\n        /* \"#utility.yul\":3402:3459   */\n      or\n        /* \"#utility.yul\":4718:4799   */\n      dup6\n      sstore\n        /* \"#utility.yul\":3865:4809   */\n      jump(tag_68)\n        /* \"#utility.yul\":3895:4558   */\n    tag_69:\n        /* \"#utility.yul\":2723:2724   */\n      0x00\n        /* \"#utility.yul\":2716:2730   */\n      dup6\n      dup2\n      mstore\n        /* \"#utility.yul\":2760:2764   */\n      0x20\n        /* \"#utility.yul\":2747:2765   */\n      dup2\n      keccak256\n      not(0x1f)\n        /* \"#utility.yul\":3931:3951   */\n      dup7\n      and\n      swap2\n        /* \"#utility.yul\":4049:4285   */\n    tag_73:\n        /* \"#utility.yul\":4063:4070   */\n      dup3\n        /* \"#utility.yul\":4060:4061   */\n      dup2\n        /* \"#utility.yul\":4057:4071   */\n      lt\n        /* \"#utility.yul\":4049:4285   */\n      iszero\n      tag_75\n      jumpi\n        /* \"#utility.yul\":4152:4171   */\n      dup9\n      dup7\n      add\n        /* \"#utility.yul\":4146:4172   */\n      mload\n        /* \"#utility.yul\":4131:4173   */\n      dup3\n      sstore\n        /* \"#utility.yul\":4244:4271   */\n      swap5\n      dup5\n      add\n      swap5\n        /* \"#utility.yul\":4212:4213   */\n      0x01\n        /* \"#utility.yul\":4200:4214   */\n      swap1\n      swap2\n      add\n      swap1\n        /* \"#utility.yul\":4079:4098   */\n      dup5\n      add\n        /* \"#utility.yul\":4049:4285   */\n      jump(tag_73)\n    tag_75:\n        /* \"#utility.yul\":4053:4056   */\n      pop\n        /* \"#utility.yul\":4313:4319   */\n      dup6\n        /* \"#utility.yul\":4304:4311   */\n      dup3\n        /* \"#utility.yul\":4301:4320   */\n      lt\n        /* \"#utility.yul\":4298:4499   */\n      iszero\n      tag_76\n      jumpi\n        /* \"#utility.yul\":4374:4393   */\n      dup8\n      dup6\n      add\n        /* \"#utility.yul\":4368:4394   */\n      mload\n      not(0x00)\n        /* \"#utility.yul\":4457:4458   */\n      0x03\n        /* \"#utility.yul\":4453:4467   */\n      dup9\n      swap1\n      shl\n        /* \"#utility.yul\":4469:4472   */\n      0xf8\n        /* \"#utility.yul\":4449:4473   */\n      and\n        /* \"#utility.yul\":4445:4482   */\n      shr\n        /* \"#utility.yul\":4441:4483   */\n      not\n        /* \"#utility.yul\":4426:4484   */\n      and\n        /* \"#utility.yul\":4411:4485   */\n      dup2\n      sstore\n        /* \"#utility.yul\":4298:4499   */\n    tag_76:\n      pop\n      pop\n        /* \"#utility.yul\":4545:4546   */\n      0x01\n        /* \"#utility.yul\":4536:4542   */\n      dup5\n        /* \"#utility.yul\":4533:4534   */\n      0x01\n        /* \"#utility.yul\":4529:4543   */\n      shl\n        /* \"#utility.yul\":4525:4547   */\n      add\n        /* \"#utility.yul\":4519:4523   */\n      dup6\n        /* \"#utility.yul\":4512:4548   */\n      sstore\n        /* \"#utility.yul\":3865:4809   */\n    tag_68:\n      pop\n      pop\n      pop\n      pop\n        /* \"#utility.yul\":3470:4815   */\n      pop\n      pop\n      jump\t// out\n\n    auxdata: 0xa2646970667358221220ea164625b59f52cb14cf319e9c077004fa73cc0c18a6976b7dd1bf31bd221cf564736f6c63430008190033\n}\n",
				"bytecode": {
					"linkReferences": {},
					"object": "6080604052348015600e575f80fd5b5061048e8061001c5f395ff3fe608060405234801561000f575f80fd5b506004361061003f575f3560e01c8063907e67fe146100435780639cd282621461005f578063c7f1935514610081575b5f80fd5b61004c60015481565b6040519081526020015b60405180910390f35b61007261006d3660046101cc565b610096565b604051610056939291906101e3565b61009461008f366004610244565b610147565b005b5f602081905290815260409020805481906100b0906102ef565b80601f01602080910402602001604051908101604052809291908181526020018280546100dc906102ef565b80156101275780601f106100fe57610100808354040283529160200191610127565b820191905f5260205f20905b81548152906001019060200180831161010a57829003601f168201915b50505050600183015460029093015491926001600160a01b031691905083565b6001805f8282546101589190610327565b9091555050604080516060810182528281523360208083019190915242828401526001545f9081529081905291909120815181906101969082610398565b5060208201516001820180546001600160a01b0319166001600160a01b0390921691909117905560409091015160029091015550565b5f602082840312156101dc575f80fd5b5035919050565b606081525f84518060608401528060208701608085015e5f60808285018101919091526001600160a01b03959095166020840152604083019390935250601f909101601f19160101919050565b634e487b7160e01b5f52604160045260245ffd5b5f60208284031215610254575f80fd5b813567ffffffffffffffff8082111561026b575f80fd5b818401915084601f83011261027e575f80fd5b81358181111561029057610290610230565b604051601f8201601f19908116603f011681019083821181831017156102b8576102b8610230565b816040528281528760208487010111156102d0575f80fd5b826020860160208301375f928101602001929092525095945050505050565b600181811c9082168061030357607f821691505b60208210810361032157634e487b7160e01b5f52602260045260245ffd5b50919050565b8082018082111561034657634e487b7160e01b5f52601160045260245ffd5b92915050565b601f82111561039357805f5260205f20601f840160051c810160208510156103715750805b601f840160051c820191505b81811015610390575f815560010161037d565b50505b505050565b815167ffffffffffffffff8111156103b2576103b2610230565b6103c6816103c084546102ef565b8461034c565b602080601f8311600181146103f9575f84156103e25750858301515b5f19600386901b1c1916600185901b178555610450565b5f85815260208120601f198616915b8281101561042757888601518255948401946001909101908401610408565b508582101561044457878501515f19600388901b60f8161c191681555b505060018460011b0185555b50505050505056fea2646970667358221220ea164625b59f52cb14cf319e9c077004fa73cc0c18a6976b7dd1bf31bd221cf564736f6c63430008190033",
					"opcodes": "PUSH1 0x80 PUSH1 0x40 MSTORE CALLVALUE DUP1 ISZERO PUSH1 0xE JUMPI PUSH0 DUP1 REVERT JUMPDEST POP PUSH2 0x48E DUP1 PUSH2 0x1C PUSH0 CODECOPY PUSH0 RETURN INVALID PUSH1 0x80 PUSH1 0x40 MSTORE CALLVALUE DUP1 ISZERO PUSH2 0xF JUMPI PUSH0 DUP1 REVERT JUMPDEST POP PUSH1 0x4 CALLDATASIZE LT PUSH2 0x3F JUMPI PUSH0 CALLDATALOAD PUSH1 0xE0 SHR DUP1 PUSH4 0x907E67FE EQ PUSH2 0x43 JUMPI DUP1 PUSH4 0x9CD28262 EQ PUSH2 0x5F JUMPI DUP1 PUSH4 0xC7F19355 EQ PUSH2 0x81 JUMPI JUMPDEST PUSH0 DUP1 REVERT JUMPDEST PUSH2 0x4C PUSH1 0x1 SLOAD DUP2 JUMP JUMPDEST PUSH1 0x40 MLOAD SWAP1 DUP2 MSTORE PUSH1 0x20 ADD JUMPDEST PUSH1 0x40 MLOAD DUP1 SWAP2 SUB SWAP1 RETURN JUMPDEST PUSH2 0x72 PUSH2 0x6D CALLDATASIZE PUSH1 0x4 PUSH2 0x1CC JUMP JUMPDEST PUSH2 0x96 JUMP JUMPDEST PUSH1 0x40 MLOAD PUSH2 0x56 SWAP4 SWAP3 SWAP2 SWAP1 PUSH2 0x1E3 JUMP JUMPDEST PUSH2 0x94 PUSH2 0x8F CALLDATASIZE PUSH1 0x4 PUSH2 0x244 JUMP JUMPDEST PUSH2 0x147 JUMP JUMPDEST STOP JUMPDEST PUSH0 PUSH1 0x20 DUP2 SWAP1 MSTORE SWAP1 DUP2 MSTORE PUSH1 0x40 SWAP1 KECCAK256 DUP1 SLOAD DUP2 SWAP1 PUSH2 0xB0 SWAP1 PUSH2 0x2EF JUMP JUMPDEST DUP1 PUSH1 0x1F ADD PUSH1 0x20 DUP1 SWAP2 DIV MUL PUSH1 0x20 ADD PUSH1 0x40 MLOAD SWAP1 DUP2 ADD PUSH1 0x40 MSTORE DUP1 SWAP3 SWAP2 SWAP1 DUP2 DUP2 MSTORE PUSH1 0x20 ADD DUP3 DUP1 SLOAD PUSH2 0xDC SWAP1 PUSH2 0x2EF JUMP JUMPDEST DUP1 ISZERO PUSH2 0x127 JUMPI DUP1 PUSH1 0x1F LT PUSH2 0xFE JUMPI PUSH2 0x100 DUP1 DUP4 SLOAD DIV MUL DUP4 MSTORE SWAP2 PUSH1 0x20 ADD SWAP2 PUSH2 0x127 JUMP JUMPDEST DUP3 ADD SWAP2 SWAP1 PUSH0 MSTORE PUSH1 0x20 PUSH0 KECCAK256 SWAP1 JUMPDEST DUP2 SLOAD DUP2 MSTORE SWAP1 PUSH1 0x1 ADD SWAP1 PUSH1 0x20 ADD DUP1 DUP4 GT PUSH2 0x10A JUMPI DUP3 SWAP1 SUB PUSH1 0x1F AND DUP3 ADD SWAP2 JUMPDEST POP POP POP POP PUSH1 0x1 DUP4 ADD SLOAD PUSH1 0x2 SWAP1 SWAP4 ADD SLOAD SWAP2 SWAP3 PUSH1 0x1 PUSH1 0x1 PUSH1 0xA0 SHL SUB AND SWAP2 SWAP1 POP DUP4 JUMP JUMPDEST PUSH1 0x1 DUP1 PUSH0 DUP3 DUP3 SLOAD PUSH2 0x158 SWAP2 SWAP1 PUSH2 0x327 JUMP JUMPDEST SWAP1 SWAP2 SSTORE POP POP PUSH1 0x40 DUP1 MLOAD PUSH1 0x60 DUP2 ADD DUP3 MSTORE DUP3 DUP2 MSTORE CALLER PUSH1 0x20 DUP1 DUP4 ADD SWAP2 SWAP1 SWAP2 MSTORE TIMESTAMP DUP3 DUP5 ADD MSTORE PUSH1 0x1 SLOAD PUSH0 SWAP1 DUP2 MSTORE SWAP1 DUP2 SWAP1 MSTORE SWAP2 SWAP1 SWAP2 KECCAK256 DUP2 MLOAD DUP2 SWAP1 PUSH2 0x196 SWAP1 DUP3 PUSH2 0x398 JUMP JUMPDEST POP PUSH1 0x20 DUP3 ADD MLOAD PUSH1 0x1 DUP3 ADD DUP1 SLOAD PUSH1 0x1 PUSH1 0x1 PUSH1 0xA0 SHL SUB NOT AND PUSH1 0x1 PUSH1 0x1 PUSH1 0xA0 SHL SUB SWAP1 SWAP3 AND SWAP2 SWAP1 SWAP2 OR SWAP1 SSTORE PUSH1 0x40 SWAP1 SWAP2 ADD MLOAD PUSH1 0x2 SWAP1 SWAP2 ADD SSTORE POP JUMP JUMPDEST PUSH0 PUSH1 0x20 DUP3 DUP5 SUB SLT ISZERO PUSH2 0x1DC JUMPI PUSH0 DUP1 REVERT JUMPDEST POP CALLDATALOAD SWAP2 SWAP1 POP JUMP JUMPDEST PUSH1 0x60 DUP2 MSTORE PUSH0 DUP5 MLOAD DUP1 PUSH1 0x60 DUP5 ADD MSTORE DUP1 PUSH1 0x20 DUP8 ADD PUSH1 0x80 DUP6 ADD MCOPY PUSH0 PUSH1 0x80 DUP3 DUP6 ADD DUP2 ADD SWAP2 SWAP1 SWAP2 MSTORE PUSH1 0x1 PUSH1 0x1 PUSH1 0xA0 SHL SUB SWAP6 SWAP1 SWAP6 AND PUSH1 0x20 DUP5 ADD MSTORE PUSH1 0x40 DUP4 ADD SWAP4 SWAP1 SWAP4 MSTORE POP PUSH1 0x1F SWAP1 SWAP2 ADD PUSH1 0x1F NOT AND ADD ADD SWAP2 SWAP1 POP JUMP JUMPDEST PUSH4 0x4E487B71 PUSH1 0xE0 SHL PUSH0 MSTORE PUSH1 0x41 PUSH1 0x4 MSTORE PUSH1 0x24 PUSH0 REVERT JUMPDEST PUSH0 PUSH1 0x20 DUP3 DUP5 SUB SLT ISZERO PUSH2 0x254 JUMPI PUSH0 DUP1 REVERT JUMPDEST DUP2 CALLDATALOAD PUSH8 0xFFFFFFFFFFFFFFFF DUP1 DUP3 GT ISZERO PUSH2 0x26B JUMPI PUSH0 DUP1 REVERT JUMPDEST DUP2 DUP5 ADD SWAP2 POP DUP5 PUSH1 0x1F DUP4 ADD SLT PUSH2 0x27E JUMPI PUSH0 DUP1 REVERT JUMPDEST DUP2 CALLDATALOAD DUP2 DUP2 GT ISZERO PUSH2 0x290 JUMPI PUSH2 0x290 PUSH2 0x230 JUMP JUMPDEST PUSH1 0x40 MLOAD PUSH1 0x1F DUP3 ADD PUSH1 0x1F NOT SWAP1 DUP2 AND PUSH1 0x3F ADD AND DUP2 ADD SWAP1 DUP4 DUP3 GT DUP2 DUP4 LT OR ISZERO PUSH2 0x2B8 JUMPI PUSH2 0x2B8 PUSH2 0x230 JUMP JUMPDEST DUP2 PUSH1 0x40 MSTORE DUP3 DUP2 MSTORE DUP8 PUSH1 0x20 DUP5 DUP8 ADD ADD GT ISZERO PUSH2 0x2D0 JUMPI PUSH0 DUP1 REVERT JUMPDEST DUP3 PUSH1 0x20 DUP7 ADD PUSH1 0x20 DUP4 ADD CALLDATACOPY PUSH0 SWAP3 DUP2 ADD PUSH1 0x20 ADD SWAP3 SWAP1 SWAP3 MSTORE POP SWAP6 SWAP5 POP POP POP POP POP JUMP JUMPDEST PUSH1 0x1 DUP2 DUP2 SHR SWAP1 DUP3 AND DUP1 PUSH2 0x303 JUMPI PUSH1 0x7F DUP3 AND SWAP2 POP JUMPDEST PUSH1 0x20 DUP3 LT DUP2 SUB PUSH2 0x321 JUMPI PUSH4 0x4E487B71 PUSH1 0xE0 SHL PUSH0 MSTORE PUSH1 0x22 PUSH1 0x4 MSTORE PUSH1 0x24 PUSH0 REVERT JUMPDEST POP SWAP2 SWAP1 POP JUMP JUMPDEST DUP1 DUP3 ADD DUP1 DUP3 GT ISZERO PUSH2 0x346 JUMPI PUSH4 0x4E487B71 PUSH1 0xE0 SHL PUSH0 MSTORE PUSH1 0x11 PUSH1 0x4 MSTORE PUSH1 0x24 PUSH0 REVERT JUMPDEST SWAP3 SWAP2 POP POP JUMP JUMPDEST PUSH1 0x1F DUP3 GT ISZERO PUSH2 0x393 JUMPI DUP1 PUSH0 MSTORE PUSH1 0x20 PUSH0 KECCAK256 PUSH1 0x1F DUP5 ADD PUSH1 0x5 SHR DUP2 ADD PUSH1 0x20 DUP6 LT ISZERO PUSH2 0x371 JUMPI POP DUP1 JUMPDEST PUSH1 0x1F DUP5 ADD PUSH1 0x5 SHR DUP3 ADD SWAP2 POP JUMPDEST DUP2 DUP2 LT ISZERO PUSH2 0x390 JUMPI PUSH0 DUP2 SSTORE PUSH1 0x1 ADD PUSH2 0x37D JUMP JUMPDEST POP POP JUMPDEST POP POP POP JUMP JUMPDEST DUP2 MLOAD PUSH8 0xFFFFFFFFFFFFFFFF DUP2 GT ISZERO PUSH2 0x3B2 JUMPI PUSH2 0x3B2 PUSH2 0x230 JUMP JUMPDEST PUSH2 0x3C6 DUP2 PUSH2 0x3C0 DUP5 SLOAD PUSH2 0x2EF JUMP JUMPDEST DUP5 PUSH2 0x34C JUMP JUMPDEST PUSH1 0x20 DUP1 PUSH1 0x1F DUP4 GT PUSH1 0x1 DUP2 EQ PUSH2 0x3F9 JUMPI PUSH0 DUP5 ISZERO PUSH2 0x3E2 JUMPI POP DUP6 DUP4 ADD MLOAD JUMPDEST PUSH0 NOT PUSH1 0x3 DUP7 SWAP1 SHL SHR NOT AND PUSH1 0x1 DUP6 SWAP1 SHL OR DUP6 SSTORE PUSH2 0x450 JUMP JUMPDEST PUSH0 DUP6 DUP2 MSTORE PUSH1 0x20 DUP2 KECCAK256 PUSH1 0x1F NOT DUP7 AND SWAP2 JUMPDEST DUP3 DUP2 LT ISZERO PUSH2 0x427 JUMPI DUP9 DUP7 ADD MLOAD DUP3 SSTORE SWAP5 DUP5 ADD SWAP5 PUSH1 0x1 SWAP1 SWAP2 ADD SWAP1 DUP5 ADD PUSH2 0x408 JUMP JUMPDEST POP DUP6 DUP3 LT ISZERO PUSH2 0x444 JUMPI DUP8 DUP6 ADD MLOAD PUSH0 NOT PUSH1 0x3 DUP9 SWAP1 SHL PUSH1 0xF8 AND SHR NOT AND DUP2 SSTORE JUMPDEST POP POP PUSH1 0x1 DUP5 PUSH1 0x1 SHL ADD DUP6 SSTORE JUMPDEST POP POP POP POP POP POP JUMP INVALID LOG2 PUSH5 0x6970667358 0x22 SLT KECCAK256 0xEA AND CHAINID 0x25 0xB5 SWAP16 MSTORE 0xCB EQ 0xCF BALANCE SWAP15 SWAP13 SMOD PUSH17 0x4FA73CC0C18A6976B7DD1BF31BD221CF5 PUSH5 0x736F6C6343 STOP ADDMOD NOT STOP CALLER "
				},
				"gasEstimates": {
					"creation": {
						"codeDepositCost": "233200",
						"executionCost": "273",
						"totalCost": "233473"
					},
					"external": {
						"IPs(uint256)": "infinite",
						"ipCount()": "2261",
						"registerIP(string)": "infinite"
					}
				},
				"methodIdentifiers": {
					"IPs(uint256)": "9cd28262",
					"ipCount()": "907e67fe",
					"registerIP(string)": "c7f19355"
				}
			},
			"storageLayout": {
				"storage": [
					{
						"astId": 12,
						"contract": "artifacts/Ip.sol:IPManagement",
						"label": "IPs",
						"offset": 0,
						"slot": "0",
						"type": "t_mapping(t_uint256,t_struct(IP)7_storage)"
					},
					{
						"astId": 14,
						"contract": "artifacts/Ip.sol:IPManagement",
						"label": "ipCount",
						"offset": 0,
						"slot": "1",
						"type": "t_uint256"
					}
				],
				"types": {
					"t_address": {
						"encoding": "inplace",
						"label": "address",
						"numberOfBytes": "20"
					},
					"t_mapping(t_uint256,t_struct(IP)7_storage)": {
						"encoding": "mapping",
						"key": "t_uint256",
						"label": "mapping(uint256 => struct IPManagement.IP)",
						"numberOfBytes": "32",
						"value": "t_struct(IP)7_storage"
					},
					"t_string_storage": {
						"encoding": "bytes",
						"label": "string",
						"numberOfBytes": "32"
					},
					"t_struct(IP)7_storage": {
						"encoding": "inplace",
						"label": "struct IPManagement.IP",
						"members": [
							{
								"astId": 2,
								"contract": "artifacts/Ip.sol:IPManagement",
								"label": "name",
								"offset": 0,
								"slot": "0",
								"type": "t_string_storage"
							},
							{
								"astId": 4,
								"contract": "artifacts/Ip.sol:IPManagement",
								"label": "owner",
								"offset": 0,
								"slot": "1",
								"type": "t_address"
							},
							{
								"astId": 6,
								"contract": "artifacts/Ip.sol:IPManagement",
								"label": "registrationDate",
								"offset": 0,
								"slot": "2",
								"type": "t_uint256"
							}
						],
						"numberOfBytes": "96"
					},
					"t_uint256": {
						"encoding": "inplace",
						"label": "uint256",
						"numberOfBytes": "32"
					}
				}
			},
			"userdoc": {
				"kind": "user",
				"methods": {},
				"version": 1
			}
		}
	}
}