{
	"artifacts/Urbangreenmanagement.sol": {
		"UrbanGreenSpaces": {
			"abi": [
				{
					"inputs": [
						{
							"internalType": "uint256",
							"name": "index",
							"type": "uint256"
						}
					],
					"name": "contributeToGreenSpace",
					"outputs": [],
					"stateMutability": "nonpayable",
					"type": "function"
				},
				{
					"inputs": [
						{
							"internalType": "string",
							"name": "name",
							"type": "string"
						}
					],
					"name": "createGreenSpace",
					"outputs": [],
					"stateMutability": "nonpayable",
					"type": "function"
				},
				{
					"inputs": [
						{
							"internalType": "uint256",
							"name": "",
							"type": "uint256"
						}
					],
					"name": "greenSpaces",
					"outputs": [
						{
							"internalType": "string",
							"name": "name",
							"type": "string"
						}
					],
					"stateMutability": "view",
					"type": "function"
				}
			],
			"devdoc": {
				"kind": "dev",
				"methods": {},
				"version": 1
			},
			"evm": {
				"assembly": "    /* \"artifacts/Urbangreenmanagement.sol\":27:478  contract UrbanGreenSpaces {... */\n  mstore(0x40, 0x80)\n  callvalue\n  dup1\n  iszero\n  tag_1\n  jumpi\n  0x00\n  dup1\n  revert\ntag_1:\n  pop\n  dataSize(sub_0)\n  dup1\n  dataOffset(sub_0)\n  0x00\n  codecopy\n  0x00\n  return\nstop\n\nsub_0: assembly {\n        /* \"artifacts/Urbangreenmanagement.sol\":27:478  contract UrbanGreenSpaces {... */\n      mstore(0x40, 0x80)\n      callvalue\n      dup1\n      iszero\n      tag_1\n      jumpi\n      0x00\n      dup1\n      revert\n    tag_1:\n      pop\n      jumpi(tag_2, lt(calldatasize, 0x04))\n      shr(0xe0, calldataload(0x00))\n      dup1\n      0x8489fa97\n      eq\n      tag_3\n      jumpi\n      dup1\n      0xbf6491d3\n      eq\n      tag_4\n      jumpi\n      dup1\n      0xfb6a4171\n      eq\n      tag_5\n      jumpi\n    tag_2:\n      0x00\n      dup1\n      revert\n        /* \"artifacts/Urbangreenmanagement.sol\":149:180  GreenSpace[] public greenSpaces */\n    tag_3:\n      tag_6\n      tag_7\n      calldatasize\n      0x04\n      tag_8\n      jump\t// in\n    tag_7:\n      tag_9\n      jump\t// in\n    tag_6:\n      mload(0x40)\n      tag_10\n      swap2\n      swap1\n      tag_11\n      jump\t// in\n    tag_10:\n      mload(0x40)\n      dup1\n      swap2\n      sub\n      swap1\n      return\n        /* \"artifacts/Urbangreenmanagement.sol\":357:475  function contributeToGreenSpace(uint index) public {... */\n    tag_4:\n      tag_12\n      tag_13\n      calldatasize\n      0x04\n      tag_8\n      jump\t// in\n    tag_13:\n      tag_14\n      jump\t// in\n    tag_12:\n      stop\n        /* \"artifacts/Urbangreenmanagement.sol\":189:349  function createGreenSpace(string memory name) public {... */\n    tag_5:\n      tag_12\n      tag_16\n      calldatasize\n      0x04\n      tag_17\n      jump\t// in\n    tag_16:\n      tag_18\n      jump\t// in\n        /* \"artifacts/Urbangreenmanagement.sol\":149:180  GreenSpace[] public greenSpaces */\n    tag_9:\n      0x00\n      dup2\n      dup2\n      sload\n      dup2\n      lt\n      tag_19\n      jumpi\n      0x00\n      dup1\n      revert\n    tag_19:\n      swap1\n      0x00\n      mstore\n      keccak256(0x00, 0x20)\n      swap1\n      0x02\n      mul\n      add\n      0x00\n      swap2\n      pop\n      swap1\n      pop\n      dup1\n      0x00\n      add\n      dup1\n      sload\n      tag_21\n      swap1\n      tag_22\n      jump\t// in\n    tag_21:\n      dup1\n      0x1f\n      add\n      0x20\n      dup1\n      swap2\n      div\n      mul\n      0x20\n      add\n      mload(0x40)\n      swap1\n      dup2\n      add\n      0x40\n      mstore\n      dup1\n      swap3\n      swap2\n      swap1\n      dup2\n      dup2\n      mstore\n      0x20\n      add\n      dup3\n      dup1\n      sload\n      tag_23\n      swap1\n      tag_22\n      jump\t// in\n    tag_23:\n      dup1\n      iszero\n      tag_24\n      jumpi\n      dup1\n      0x1f\n      lt\n      tag_25\n      jumpi\n      0x0100\n      dup1\n      dup4\n      sload\n      div\n      mul\n      dup4\n      mstore\n      swap2\n      0x20\n      add\n      swap2\n      jump(tag_24)\n    tag_25:\n      dup3\n      add\n      swap2\n      swap1\n      0x00\n      mstore\n      keccak256(0x00, 0x20)\n      swap1\n    tag_26:\n      dup2\n      sload\n      dup2\n      mstore\n      swap1\n      0x01\n      add\n      swap1\n      0x20\n      add\n      dup1\n      dup4\n      gt\n      tag_26\n      jumpi\n      dup3\n      swap1\n      sub\n      0x1f\n      and\n      dup3\n      add\n      swap2\n    tag_24:\n      pop\n      pop\n      pop\n      pop\n      pop\n      swap1\n      pop\n      dup2\n      jump\t// out\n        /* \"artifacts/Urbangreenmanagement.sol\":357:475  function contributeToGreenSpace(uint index) public {... */\n    tag_14:\n        /* \"artifacts/Urbangreenmanagement.sol\":419:430  greenSpaces */\n      0x00\n        /* \"artifacts/Urbangreenmanagement.sol\":431:436  index */\n      dup2\n        /* \"artifacts/Urbangreenmanagement.sol\":419:437  greenSpaces[index] */\n      dup2\n      sload\n      dup2\n      lt\n      tag_29\n      jumpi\n      tag_29\n      tag_30\n      jump\t// in\n    tag_29:\n      0x00\n      swap2\n      dup3\n      mstore\n      0x20\n      dup1\n      dup4\n      keccak256\n        /* \"artifacts/Urbangreenmanagement.sol\":419:450  greenSpaces[index].contributors */\n      0x01\n        /* \"artifacts/Urbangreenmanagement.sol\":419:437  greenSpaces[index] */\n      0x02\n      swap1\n      swap4\n      mul\n      add\n        /* \"artifacts/Urbangreenmanagement.sol\":419:450  greenSpaces[index].contributors */\n      dup3\n      add\n        /* \"artifacts/Urbangreenmanagement.sol\":419:467  greenSpaces[index].contributors.push(msg.sender) */\n      dup1\n      sload\n      swap3\n      dup4\n      add\n      dup2\n      sstore\n      dup4\n      mstore\n      swap1\n      swap2\n      keccak256\n      add\n      dup1\n      sload\n      not(sub(shl(0xa0, 0x01), 0x01))\n      and\n        /* \"artifacts/Urbangreenmanagement.sol\":456:466  msg.sender */\n      caller\n        /* \"artifacts/Urbangreenmanagement.sol\":419:467  greenSpaces[index].contributors.push(msg.sender) */\n      or\n      swap1\n      sstore\n      pop\n        /* \"artifacts/Urbangreenmanagement.sol\":357:475  function contributeToGreenSpace(uint index) public {... */\n      jump\t// out\n        /* \"artifacts/Urbangreenmanagement.sol\":189:349  function createGreenSpace(string memory name) public {... */\n    tag_18:\n        /* \"artifacts/Urbangreenmanagement.sol\":310:340  GreenSpace(name, contributors) */\n      0x40\n      dup1\n      mload\n      dup1\n      dup3\n      add\n      swap1\n      swap2\n      mstore\n      dup2\n      dup2\n      mstore\n        /* \"artifacts/Urbangreenmanagement.sol\":253:282  address[] memory contributors */\n      0x60\n        /* \"artifacts/Urbangreenmanagement.sol\":310:340  GreenSpace(name, contributors) */\n      0x20\n      dup3\n      add\n      dup2\n      swap1\n      mstore\n        /* \"artifacts/Urbangreenmanagement.sol\":293:304  greenSpaces */\n      0x00\n        /* \"artifacts/Urbangreenmanagement.sol\":293:341  greenSpaces.push(GreenSpace(name, contributors)) */\n      dup1\n      sload\n      0x01\n      dup2\n      add\n      dup3\n      sstore\n      swap1\n      dup1\n      mstore\n      dup3\n      mload\n        /* \"artifacts/Urbangreenmanagement.sol\":253:282  address[] memory contributors */\n      swap2\n      swap3\n        /* \"artifacts/Urbangreenmanagement.sol\":310:340  GreenSpace(name, contributors) */\n      swap2\n        /* \"artifacts/Urbangreenmanagement.sol\":293:341  greenSpaces.push(GreenSpace(name, contributors)) */\n      0x02\n      swap1\n      swap2\n      mul\n      0x290decd9548b62a8d60345a988386fc84ba6bc95484008f6362f93160ef3e563\n      add\n      swap1\n      dup2\n      swap1\n      tag_35\n      swap1\n      dup3\n      tag_36\n      jump\t// in\n    tag_35:\n      pop\n      0x20\n      dup3\n      dup2\n      add\n      mload\n      dup1\n      mload\n      tag_37\n      swap3\n      0x01\n      dup6\n      add\n      swap3\n      add\n      swap1\n      tag_38\n      jump\t// in\n    tag_37:\n      pop\n      pop\n      pop\n        /* \"artifacts/Urbangreenmanagement.sol\":242:349  {... */\n      pop\n        /* \"artifacts/Urbangreenmanagement.sol\":189:349  function createGreenSpace(string memory name) public {... */\n      pop\n      jump\t// out\n    tag_38:\n      dup3\n      dup1\n      sload\n      dup3\n      dup3\n      sstore\n      swap1\n      0x00\n      mstore\n      keccak256(0x00, 0x20)\n      swap1\n      dup2\n      add\n      swap3\n      dup3\n      iszero\n      tag_41\n      jumpi\n      swap2\n      0x20\n      mul\n      dup3\n      add\n    tag_40:\n      dup3\n      dup2\n      gt\n      iszero\n      tag_41\n      jumpi\n      dup3\n      mload\n      dup3\n      sload\n      not(sub(shl(0xa0, 0x01), 0x01))\n      and\n      sub(shl(0xa0, 0x01), 0x01)\n      swap1\n      swap2\n      and\n      or\n      dup3\n      sstore\n      0x20\n      swap1\n      swap3\n      add\n      swap2\n      0x01\n      swap1\n      swap2\n      add\n      swap1\n      jump(tag_40)\n    tag_41:\n      pop\n      tag_42\n      swap3\n      swap2\n      pop\n      tag_43\n      jump\t// in\n    tag_42:\n      pop\n      swap1\n      jump\t// out\n    tag_43:\n    tag_44:\n      dup1\n      dup3\n      gt\n      iszero\n      tag_42\n      jumpi\n      0x00\n      dup2\n      sstore\n      0x01\n      add\n      jump(tag_44)\n        /* \"#utility.yul\":14:194   */\n    tag_8:\n        /* \"#utility.yul\":73:79   */\n      0x00\n        /* \"#utility.yul\":126:128   */\n      0x20\n        /* \"#utility.yul\":114:123   */\n      dup3\n        /* \"#utility.yul\":105:112   */\n      dup5\n        /* \"#utility.yul\":101:124   */\n      sub\n        /* \"#utility.yul\":97:129   */\n      slt\n        /* \"#utility.yul\":94:146   */\n      iszero\n      tag_52\n      jumpi\n        /* \"#utility.yul\":142:143   */\n      0x00\n        /* \"#utility.yul\":139:140   */\n      dup1\n        /* \"#utility.yul\":132:144   */\n      revert\n        /* \"#utility.yul\":94:146   */\n    tag_52:\n      pop\n        /* \"#utility.yul\":165:188   */\n      calldataload\n      swap2\n        /* \"#utility.yul\":14:194   */\n      swap1\n      pop\n      jump\t// out\n        /* \"#utility.yul\":199:617   */\n    tag_11:\n        /* \"#utility.yul\":348:350   */\n      0x20\n        /* \"#utility.yul\":337:346   */\n      dup2\n        /* \"#utility.yul\":330:351   */\n      mstore\n        /* \"#utility.yul\":311:315   */\n      0x00\n        /* \"#utility.yul\":380:386   */\n      dup3\n        /* \"#utility.yul\":374:387   */\n      mload\n        /* \"#utility.yul\":423:429   */\n      dup1\n        /* \"#utility.yul\":418:420   */\n      0x20\n        /* \"#utility.yul\":407:416   */\n      dup5\n        /* \"#utility.yul\":403:421   */\n      add\n        /* \"#utility.yul\":396:430   */\n      mstore\n        /* \"#utility.yul\":482:488   */\n      dup1\n        /* \"#utility.yul\":477:479   */\n      0x20\n        /* \"#utility.yul\":469:475   */\n      dup6\n        /* \"#utility.yul\":465:480   */\n      add\n        /* \"#utility.yul\":460:462   */\n      0x40\n        /* \"#utility.yul\":449:458   */\n      dup6\n        /* \"#utility.yul\":445:463   */\n      add\n        /* \"#utility.yul\":439:489   */\n      mcopy\n        /* \"#utility.yul\":538:539   */\n      0x00\n        /* \"#utility.yul\":533:535   */\n      0x40\n        /* \"#utility.yul\":524:530   */\n      dup3\n        /* \"#utility.yul\":513:522   */\n      dup6\n        /* \"#utility.yul\":509:531   */\n      add\n        /* \"#utility.yul\":505:536   */\n      add\n        /* \"#utility.yul\":498:540   */\n      mstore\n        /* \"#utility.yul\":608:610   */\n      0x40\n        /* \"#utility.yul\":601:603   */\n      0x1f\n        /* \"#utility.yul\":597:604   */\n      not\n        /* \"#utility.yul\":592:594   */\n      0x1f\n        /* \"#utility.yul\":584:590   */\n      dup4\n        /* \"#utility.yul\":580:595   */\n      add\n        /* \"#utility.yul\":576:605   */\n      and\n        /* \"#utility.yul\":565:574   */\n      dup5\n        /* \"#utility.yul\":561:606   */\n      add\n        /* \"#utility.yul\":557:611   */\n      add\n        /* \"#utility.yul\":549:611   */\n      swap2\n      pop\n      pop\n        /* \"#utility.yul\":199:617   */\n      swap3\n      swap2\n      pop\n      pop\n      jump\t// out\n        /* \"#utility.yul\":622:749   */\n    tag_46:\n        /* \"#utility.yul\":683:693   */\n      0x4e487b71\n        /* \"#utility.yul\":678:681   */\n      0xe0\n        /* \"#utility.yul\":674:694   */\n      shl\n        /* \"#utility.yul\":671:672   */\n      0x00\n        /* \"#utility.yul\":664:695   */\n      mstore\n        /* \"#utility.yul\":714:718   */\n      0x41\n        /* \"#utility.yul\":711:712   */\n      0x04\n        /* \"#utility.yul\":704:719   */\n      mstore\n        /* \"#utility.yul\":738:742   */\n      0x24\n        /* \"#utility.yul\":735:736   */\n      0x00\n        /* \"#utility.yul\":728:743   */\n      revert\n        /* \"#utility.yul\":754:1676   */\n    tag_17:\n        /* \"#utility.yul\":823:829   */\n      0x00\n        /* \"#utility.yul\":876:878   */\n      0x20\n        /* \"#utility.yul\":864:873   */\n      dup3\n        /* \"#utility.yul\":855:862   */\n      dup5\n        /* \"#utility.yul\":851:874   */\n      sub\n        /* \"#utility.yul\":847:879   */\n      slt\n        /* \"#utility.yul\":844:896   */\n      iszero\n      tag_56\n      jumpi\n        /* \"#utility.yul\":892:893   */\n      0x00\n        /* \"#utility.yul\":889:890   */\n      dup1\n        /* \"#utility.yul\":882:894   */\n      revert\n        /* \"#utility.yul\":844:896   */\n    tag_56:\n        /* \"#utility.yul\":932:941   */\n      dup2\n        /* \"#utility.yul\":919:942   */\n      calldataload\n        /* \"#utility.yul\":961:979   */\n      0xffffffffffffffff\n        /* \"#utility.yul\":1002:1004   */\n      dup1\n        /* \"#utility.yul\":994:1000   */\n      dup3\n        /* \"#utility.yul\":991:1005   */\n      gt\n        /* \"#utility.yul\":988:1022   */\n      iszero\n      tag_57\n      jumpi\n        /* \"#utility.yul\":1018:1019   */\n      0x00\n        /* \"#utility.yul\":1015:1016   */\n      dup1\n        /* \"#utility.yul\":1008:1020   */\n      revert\n        /* \"#utility.yul\":988:1022   */\n    tag_57:\n        /* \"#utility.yul\":1056:1062   */\n      dup2\n        /* \"#utility.yul\":1045:1054   */\n      dup5\n        /* \"#utility.yul\":1041:1063   */\n      add\n        /* \"#utility.yul\":1031:1063   */\n      swap2\n      pop\n        /* \"#utility.yul\":1101:1108   */\n      dup5\n        /* \"#utility.yul\":1094:1098   */\n      0x1f\n        /* \"#utility.yul\":1090:1092   */\n      dup4\n        /* \"#utility.yul\":1086:1099   */\n      add\n        /* \"#utility.yul\":1082:1109   */\n      slt\n        /* \"#utility.yul\":1072:1127   */\n      tag_58\n      jumpi\n        /* \"#utility.yul\":1123:1124   */\n      0x00\n        /* \"#utility.yul\":1120:1121   */\n      dup1\n        /* \"#utility.yul\":1113:1125   */\n      revert\n        /* \"#utility.yul\":1072:1127   */\n    tag_58:\n        /* \"#utility.yul\":1159:1161   */\n      dup2\n        /* \"#utility.yul\":1146:1162   */\n      calldataload\n        /* \"#utility.yul\":1181:1183   */\n      dup2\n        /* \"#utility.yul\":1177:1179   */\n      dup2\n        /* \"#utility.yul\":1174:1184   */\n      gt\n        /* \"#utility.yul\":1171:1207   */\n      iszero\n      tag_60\n      jumpi\n        /* \"#utility.yul\":1187:1205   */\n      tag_60\n      tag_46\n      jump\t// in\n    tag_60:\n        /* \"#utility.yul\":1262:1264   */\n      0x40\n        /* \"#utility.yul\":1256:1265   */\n      mload\n        /* \"#utility.yul\":1230:1232   */\n      0x1f\n        /* \"#utility.yul\":1316:1329   */\n      dup3\n      add\n      not(0x1f)\n        /* \"#utility.yul\":1312:1334   */\n      swap1\n      dup2\n      and\n        /* \"#utility.yul\":1336:1338   */\n      0x3f\n        /* \"#utility.yul\":1308:1339   */\n      add\n        /* \"#utility.yul\":1304:1344   */\n      and\n        /* \"#utility.yul\":1292:1345   */\n      dup2\n      add\n      swap1\n        /* \"#utility.yul\":1360:1378   */\n      dup4\n      dup3\n      gt\n        /* \"#utility.yul\":1380:1402   */\n      dup2\n      dup4\n      lt\n        /* \"#utility.yul\":1357:1403   */\n      or\n        /* \"#utility.yul\":1354:1426   */\n      iszero\n      tag_62\n      jumpi\n        /* \"#utility.yul\":1406:1424   */\n      tag_62\n      tag_46\n      jump\t// in\n    tag_62:\n        /* \"#utility.yul\":1446:1456   */\n      dup2\n        /* \"#utility.yul\":1442:1444   */\n      0x40\n        /* \"#utility.yul\":1435:1457   */\n      mstore\n        /* \"#utility.yul\":1481:1483   */\n      dup3\n        /* \"#utility.yul\":1473:1479   */\n      dup2\n        /* \"#utility.yul\":1466:1484   */\n      mstore\n        /* \"#utility.yul\":1521:1528   */\n      dup8\n        /* \"#utility.yul\":1516:1518   */\n      0x20\n        /* \"#utility.yul\":1511:1513   */\n      dup5\n        /* \"#utility.yul\":1507:1509   */\n      dup8\n        /* \"#utility.yul\":1503:1514   */\n      add\n        /* \"#utility.yul\":1499:1519   */\n      add\n        /* \"#utility.yul\":1496:1529   */\n      gt\n        /* \"#utility.yul\":1493:1546   */\n      iszero\n      tag_63\n      jumpi\n        /* \"#utility.yul\":1542:1543   */\n      0x00\n        /* \"#utility.yul\":1539:1540   */\n      dup1\n        /* \"#utility.yul\":1532:1544   */\n      revert\n        /* \"#utility.yul\":1493:1546   */\n    tag_63:\n        /* \"#utility.yul\":1598:1600   */\n      dup3\n        /* \"#utility.yul\":1593:1595   */\n      0x20\n        /* \"#utility.yul\":1589:1591   */\n      dup7\n        /* \"#utility.yul\":1585:1596   */\n      add\n        /* \"#utility.yul\":1580:1582   */\n      0x20\n        /* \"#utility.yul\":1572:1578   */\n      dup4\n        /* \"#utility.yul\":1568:1583   */\n      add\n        /* \"#utility.yul\":1555:1601   */\n      calldatacopy\n        /* \"#utility.yul\":1643:1644   */\n      0x00\n        /* \"#utility.yul\":1621:1636   */\n      swap3\n      dup2\n      add\n        /* \"#utility.yul\":1638:1640   */\n      0x20\n        /* \"#utility.yul\":1617:1641   */\n      add\n        /* \"#utility.yul\":1610:1645   */\n      swap3\n      swap1\n      swap3\n      mstore\n      pop\n        /* \"#utility.yul\":1625:1631   */\n      swap6\n        /* \"#utility.yul\":754:1676   */\n      swap5\n      pop\n      pop\n      pop\n      pop\n      pop\n      jump\t// out\n        /* \"#utility.yul\":1681:2061   */\n    tag_22:\n        /* \"#utility.yul\":1760:1761   */\n      0x01\n        /* \"#utility.yul\":1756:1768   */\n      dup2\n      dup2\n      shr\n      swap1\n        /* \"#utility.yul\":1803:1815   */\n      dup3\n      and\n      dup1\n        /* \"#utility.yul\":1824:1885   */\n      tag_65\n      jumpi\n        /* \"#utility.yul\":1878:1882   */\n      0x7f\n        /* \"#utility.yul\":1870:1876   */\n      dup3\n        /* \"#utility.yul\":1866:1883   */\n      and\n        /* \"#utility.yul\":1856:1883   */\n      swap2\n      pop\n        /* \"#utility.yul\":1824:1885   */\n    tag_65:\n        /* \"#utility.yul\":1931:1933   */\n      0x20\n        /* \"#utility.yul\":1923:1929   */\n      dup3\n        /* \"#utility.yul\":1920:1934   */\n      lt\n        /* \"#utility.yul\":1900:1918   */\n      dup2\n        /* \"#utility.yul\":1897:1935   */\n      sub\n        /* \"#utility.yul\":1894:2055   */\n      tag_66\n      jumpi\n        /* \"#utility.yul\":1977:1987   */\n      0x4e487b71\n        /* \"#utility.yul\":1972:1975   */\n      0xe0\n        /* \"#utility.yul\":1968:1988   */\n      shl\n        /* \"#utility.yul\":1965:1966   */\n      0x00\n        /* \"#utility.yul\":1958:1989   */\n      mstore\n        /* \"#utility.yul\":2012:2016   */\n      0x22\n        /* \"#utility.yul\":2009:2010   */\n      0x04\n        /* \"#utility.yul\":2002:2017   */\n      mstore\n        /* \"#utility.yul\":2040:2044   */\n      0x24\n        /* \"#utility.yul\":2037:2038   */\n      0x00\n        /* \"#utility.yul\":2030:2045   */\n      revert\n        /* \"#utility.yul\":1894:2055   */\n    tag_66:\n      pop\n        /* \"#utility.yul\":1681:2061   */\n      swap2\n      swap1\n      pop\n      jump\t// out\n        /* \"#utility.yul\":2066:2193   */\n    tag_30:\n        /* \"#utility.yul\":2127:2137   */\n      0x4e487b71\n        /* \"#utility.yul\":2122:2125   */\n      0xe0\n        /* \"#utility.yul\":2118:2138   */\n      shl\n        /* \"#utility.yul\":2115:2116   */\n      0x00\n        /* \"#utility.yul\":2108:2139   */\n      mstore\n        /* \"#utility.yul\":2158:2162   */\n      0x32\n        /* \"#utility.yul\":2155:2156   */\n      0x04\n        /* \"#utility.yul\":2148:2163   */\n      mstore\n        /* \"#utility.yul\":2182:2186   */\n      0x24\n        /* \"#utility.yul\":2179:2180   */\n      0x00\n        /* \"#utility.yul\":2172:2187   */\n      revert\n        /* \"#utility.yul\":2324:2842   */\n    tag_48:\n        /* \"#utility.yul\":2426:2428   */\n      0x1f\n        /* \"#utility.yul\":2421:2424   */\n      dup3\n        /* \"#utility.yul\":2418:2429   */\n      gt\n        /* \"#utility.yul\":2415:2836   */\n      iszero\n      tag_70\n      jumpi\n        /* \"#utility.yul\":2462:2467   */\n      dup1\n        /* \"#utility.yul\":2459:2460   */\n      0x00\n        /* \"#utility.yul\":2452:2468   */\n      mstore\n        /* \"#utility.yul\":2506:2510   */\n      0x20\n        /* \"#utility.yul\":2503:2504   */\n      0x00\n        /* \"#utility.yul\":2493:2511   */\n      keccak256\n        /* \"#utility.yul\":2576:2578   */\n      0x1f\n        /* \"#utility.yul\":2564:2574   */\n      dup5\n        /* \"#utility.yul\":2560:2579   */\n      add\n        /* \"#utility.yul\":2557:2558   */\n      0x05\n        /* \"#utility.yul\":2553:2580   */\n      shr\n        /* \"#utility.yul\":2547:2551   */\n      dup2\n        /* \"#utility.yul\":2543:2581   */\n      add\n        /* \"#utility.yul\":2612:2616   */\n      0x20\n        /* \"#utility.yul\":2600:2610   */\n      dup6\n        /* \"#utility.yul\":2597:2617   */\n      lt\n        /* \"#utility.yul\":2594:2641   */\n      iszero\n      tag_71\n      jumpi\n      pop\n        /* \"#utility.yul\":2635:2639   */\n      dup1\n        /* \"#utility.yul\":2594:2641   */\n    tag_71:\n        /* \"#utility.yul\":2690:2692   */\n      0x1f\n        /* \"#utility.yul\":2685:2688   */\n      dup5\n        /* \"#utility.yul\":2681:2693   */\n      add\n        /* \"#utility.yul\":2678:2679   */\n      0x05\n        /* \"#utility.yul\":2674:2694   */\n      shr\n        /* \"#utility.yul\":2668:2672   */\n      dup3\n        /* \"#utility.yul\":2664:2695   */\n      add\n        /* \"#utility.yul\":2654:2695   */\n      swap2\n      pop\n        /* \"#utility.yul\":2745:2826   */\n    tag_72:\n        /* \"#utility.yul\":2763:2765   */\n      dup2\n        /* \"#utility.yul\":2756:2761   */\n      dup2\n        /* \"#utility.yul\":2753:2766   */\n      lt\n        /* \"#utility.yul\":2745:2826   */\n      iszero\n      tag_37\n      jumpi\n        /* \"#utility.yul\":2822:2823   */\n      0x00\n        /* \"#utility.yul\":2808:2824   */\n      dup2\n      sstore\n        /* \"#utility.yul\":2789:2790   */\n      0x01\n        /* \"#utility.yul\":2778:2791   */\n      add\n        /* \"#utility.yul\":2745:2826   */\n      jump(tag_72)\n        /* \"#utility.yul\":2415:2836   */\n    tag_70:\n        /* \"#utility.yul\":2324:2842   */\n      pop\n      pop\n      pop\n      jump\t// out\n        /* \"#utility.yul\":3018:4363   */\n    tag_36:\n        /* \"#utility.yul\":3144:3147   */\n      dup2\n        /* \"#utility.yul\":3138:3148   */\n      mload\n        /* \"#utility.yul\":3171:3189   */\n      0xffffffffffffffff\n        /* \"#utility.yul\":3163:3169   */\n      dup2\n        /* \"#utility.yul\":3160:3190   */\n      gt\n        /* \"#utility.yul\":3157:3213   */\n      iszero\n      tag_78\n      jumpi\n        /* \"#utility.yul\":3193:3211   */\n      tag_78\n      tag_46\n      jump\t// in\n    tag_78:\n        /* \"#utility.yul\":3222:3319   */\n      tag_79\n        /* \"#utility.yul\":3312:3318   */\n      dup2\n        /* \"#utility.yul\":3272:3310   */\n      tag_80\n        /* \"#utility.yul\":3304:3308   */\n      dup5\n        /* \"#utility.yul\":3298:3309   */\n      sload\n        /* \"#utility.yul\":3272:3310   */\n      tag_22\n      jump\t// in\n    tag_80:\n        /* \"#utility.yul\":3266:3270   */\n      dup5\n        /* \"#utility.yul\":3222:3319   */\n      tag_48\n      jump\t// in\n    tag_79:\n        /* \"#utility.yul\":3374:3378   */\n      0x20\n      dup1\n        /* \"#utility.yul\":3431:3433   */\n      0x1f\n        /* \"#utility.yul\":3420:3434   */\n      dup4\n      gt\n        /* \"#utility.yul\":3448:3449   */\n      0x01\n        /* \"#utility.yul\":3443:4106   */\n      dup2\n      eq\n      tag_82\n      jumpi\n        /* \"#utility.yul\":4150:4151   */\n      0x00\n        /* \"#utility.yul\":4167:4173   */\n      dup5\n        /* \"#utility.yul\":4164:4253   */\n      iszero\n      tag_83\n      jumpi\n      pop\n        /* \"#utility.yul\":4219:4238   */\n      dup6\n      dup4\n      add\n        /* \"#utility.yul\":4213:4239   */\n      mload\n        /* \"#utility.yul\":4164:4253   */\n    tag_83:\n      not(0x00)\n        /* \"#utility.yul\":2975:2976   */\n      0x03\n        /* \"#utility.yul\":2971:2982   */\n      dup7\n      swap1\n      shl\n        /* \"#utility.yul\":2967:2991   */\n      shr\n        /* \"#utility.yul\":2963:2992   */\n      not\n        /* \"#utility.yul\":2953:2993   */\n      and\n        /* \"#utility.yul\":2999:3000   */\n      0x01\n        /* \"#utility.yul\":2995:3006   */\n      dup6\n      swap1\n      shl\n        /* \"#utility.yul\":2950:3007   */\n      or\n        /* \"#utility.yul\":4266:4347   */\n      dup6\n      sstore\n        /* \"#utility.yul\":3413:4357   */\n      jump(tag_81)\n        /* \"#utility.yul\":3443:4106   */\n    tag_82:\n        /* \"#utility.yul\":2271:2272   */\n      0x00\n        /* \"#utility.yul\":2264:2278   */\n      dup6\n      dup2\n      mstore\n        /* \"#utility.yul\":2308:2312   */\n      0x20\n        /* \"#utility.yul\":2295:2313   */\n      dup2\n      keccak256\n      not(0x1f)\n        /* \"#utility.yul\":3479:3499   */\n      dup7\n      and\n      swap2\n        /* \"#utility.yul\":3597:3833   */\n    tag_86:\n        /* \"#utility.yul\":3611:3618   */\n      dup3\n        /* \"#utility.yul\":3608:3609   */\n      dup2\n        /* \"#utility.yul\":3605:3619   */\n      lt\n        /* \"#utility.yul\":3597:3833   */\n      iszero\n      tag_88\n      jumpi\n        /* \"#utility.yul\":3700:3719   */\n      dup9\n      dup7\n      add\n        /* \"#utility.yul\":3694:3720   */\n      mload\n        /* \"#utility.yul\":3679:3721   */\n      dup3\n      sstore\n        /* \"#utility.yul\":3792:3819   */\n      swap5\n      dup5\n      add\n      swap5\n        /* \"#utility.yul\":3760:3761   */\n      0x01\n        /* \"#utility.yul\":3748:3762   */\n      swap1\n      swap2\n      add\n      swap1\n        /* \"#utility.yul\":3627:3646   */\n      dup5\n      add\n        /* \"#utility.yul\":3597:3833   */\n      jump(tag_86)\n    tag_88:\n        /* \"#utility.yul\":3601:3604   */\n      pop\n        /* \"#utility.yul\":3861:3867   */\n      dup6\n        /* \"#utility.yul\":3852:3859   */\n      dup3\n        /* \"#utility.yul\":3849:3868   */\n      lt\n        /* \"#utility.yul\":3846:4047   */\n      iszero\n      tag_89\n      jumpi\n        /* \"#utility.yul\":3922:3941   */\n      dup8\n      dup6\n      add\n        /* \"#utility.yul\":3916:3942   */\n      mload\n      not(0x00)\n        /* \"#utility.yul\":4005:4006   */\n      0x03\n        /* \"#utility.yul\":4001:4015   */\n      dup9\n      swap1\n      shl\n        /* \"#utility.yul\":4017:4020   */\n      0xf8\n        /* \"#utility.yul\":3997:4021   */\n      and\n        /* \"#utility.yul\":3993:4030   */\n      shr\n        /* \"#utility.yul\":3989:4031   */\n      not\n        /* \"#utility.yul\":3974:4032   */\n      and\n        /* \"#utility.yul\":3959:4033   */\n      dup2\n      sstore\n        /* \"#utility.yul\":3846:4047   */\n    tag_89:\n      pop\n      pop\n        /* \"#utility.yul\":4093:4094   */\n      0x01\n        /* \"#utility.yul\":4084:4090   */\n      dup5\n        /* \"#utility.yul\":4081:4082   */\n      0x01\n        /* \"#utility.yul\":4077:4091   */\n      shl\n        /* \"#utility.yul\":4073:4095   */\n      add\n        /* \"#utility.yul\":4067:4071   */\n      dup6\n        /* \"#utility.yul\":4060:4096   */\n      sstore\n        /* \"#utility.yul\":3413:4357   */\n    tag_81:\n      pop\n      pop\n      pop\n      pop\n        /* \"#utility.yul\":3018:4363   */\n      pop\n      pop\n      jump\t// out\n\n    auxdata: 0xa2646970667358221220e4ffbe671232032a7cddd255fd9519ef47a4eefacd5db7ddc84c29911bb5da2b64736f6c63430008190033\n}\n",
				"bytecode": {
					"linkReferences": {},
					"object": "6080604052348015600e575f80fd5b5061050f8061001c5f395ff3fe608060405234801561000f575f80fd5b506004361061003f575f3560e01c80638489fa9714610043578063bf6491d31461006c578063fb6a417114610081575b5f80fd5b610056610051366004610279565b610094565b6040516100639190610290565b60405180910390f35b61007f61007a366004610279565b610142565b005b61007f61008f3660046102d9565b610187565b5f81815481106100a2575f80fd5b905f5260205f2090600202015f91509050805f0180546100c190610384565b80601f01602080910402602001604051908101604052809291908181526020018280546100ed90610384565b80156101385780601f1061010f57610100808354040283529160200191610138565b820191905f5260205f20905b81548152906001019060200180831161011b57829003601f168201915b5050505050905081565b5f8181548110610154576101546103bc565b5f9182526020808320600160029093020182018054928301815583529091200180546001600160a01b0319163317905550565b604080518082019091528181526060602082018190525f8054600181018255908052825191929160029091027f290decd9548b62a8d60345a988386fc84ba6bc95484008f6362f93160ef3e563019081906101e29082610419565b5060208281015180516101fb9260018501920190610202565b5050505050565b828054828255905f5260205f20908101928215610255579160200282015b8281111561025557825182546001600160a01b0319166001600160a01b03909116178255602090920191600190910190610220565b50610261929150610265565b5090565b5b80821115610261575f8155600101610266565b5f60208284031215610289575f80fd5b5035919050565b602081525f82518060208401528060208501604085015e5f604082850101526040601f19601f83011684010191505092915050565b634e487b7160e01b5f52604160045260245ffd5b5f602082840312156102e9575f80fd5b813567ffffffffffffffff80821115610300575f80fd5b818401915084601f830112610313575f80fd5b813581811115610325576103256102c5565b604051601f8201601f19908116603f0116810190838211818310171561034d5761034d6102c5565b81604052828152876020848701011115610365575f80fd5b826020860160208301375f928101602001929092525095945050505050565b600181811c9082168061039857607f821691505b6020821081036103b657634e487b7160e01b5f52602260045260245ffd5b50919050565b634e487b7160e01b5f52603260045260245ffd5b601f82111561041457805f5260205f20601f840160051c810160208510156103f55750805b601f840160051c820191505b818110156101fb575f8155600101610401565b505050565b815167ffffffffffffffff811115610433576104336102c5565b610447816104418454610384565b846103d0565b602080601f83116001811461047a575f84156104635750858301515b5f19600386901b1c1916600185901b1785556104d1565b5f85815260208120601f198616915b828110156104a857888601518255948401946001909101908401610489565b50858210156104c557878501515f19600388901b60f8161c191681555b505060018460011b0185555b50505050505056fea2646970667358221220e4ffbe671232032a7cddd255fd9519ef47a4eefacd5db7ddc84c29911bb5da2b64736f6c63430008190033",
					"opcodes": "PUSH1 0x80 PUSH1 0x40 MSTORE CALLVALUE DUP1 ISZERO PUSH1 0xE JUMPI PUSH0 DUP1 REVERT JUMPDEST POP PUSH2 0x50F DUP1 PUSH2 0x1C PUSH0 CODECOPY PUSH0 RETURN INVALID PUSH1 0x80 PUSH1 0x40 MSTORE CALLVALUE DUP1 ISZERO PUSH2 0xF JUMPI PUSH0 DUP1 REVERT JUMPDEST POP PUSH1 0x4 CALLDATASIZE LT PUSH2 0x3F JUMPI PUSH0 CALLDATALOAD PUSH1 0xE0 SHR DUP1 PUSH4 0x8489FA97 EQ PUSH2 0x43 JUMPI DUP1 PUSH4 0xBF6491D3 EQ PUSH2 0x6C JUMPI DUP1 PUSH4 0xFB6A4171 EQ PUSH2 0x81 JUMPI JUMPDEST PUSH0 DUP1 REVERT JUMPDEST PUSH2 0x56 PUSH2 0x51 CALLDATASIZE PUSH1 0x4 PUSH2 0x279 JUMP JUMPDEST PUSH2 0x94 JUMP JUMPDEST PUSH1 0x40 MLOAD PUSH2 0x63 SWAP2 SWAP1 PUSH2 0x290 JUMP JUMPDEST PUSH1 0x40 MLOAD DUP1 SWAP2 SUB SWAP1 RETURN JUMPDEST PUSH2 0x7F PUSH2 0x7A CALLDATASIZE PUSH1 0x4 PUSH2 0x279 JUMP JUMPDEST PUSH2 0x142 JUMP JUMPDEST STOP JUMPDEST PUSH2 0x7F PUSH2 0x8F CALLDATASIZE PUSH1 0x4 PUSH2 0x2D9 JUMP JUMPDEST PUSH2 0x187 JUMP JUMPDEST PUSH0 DUP2 DUP2 SLOAD DUP2 LT PUSH2 0xA2 JUMPI PUSH0 DUP1 REVERT JUMPDEST SWAP1 PUSH0 MSTORE PUSH1 0x20 PUSH0 KECCAK256 SWAP1 PUSH1 0x2 MUL ADD PUSH0 SWAP2 POP SWAP1 POP DUP1 PUSH0 ADD DUP1 SLOAD PUSH2 0xC1 SWAP1 PUSH2 0x384 JUMP JUMPDEST DUP1 PUSH1 0x1F ADD PUSH1 0x20 DUP1 SWAP2 DIV MUL PUSH1 0x20 ADD PUSH1 0x40 MLOAD SWAP1 DUP2 ADD PUSH1 0x40 MSTORE DUP1 SWAP3 SWAP2 SWAP1 DUP2 DUP2 MSTORE PUSH1 0x20 ADD DUP3 DUP1 SLOAD PUSH2 0xED SWAP1 PUSH2 0x384 JUMP JUMPDEST DUP1 ISZERO PUSH2 0x138 JUMPI DUP1 PUSH1 0x1F LT PUSH2 0x10F JUMPI PUSH2 0x100 DUP1 DUP4 SLOAD DIV MUL DUP4 MSTORE SWAP2 PUSH1 0x20 ADD SWAP2 PUSH2 0x138 JUMP JUMPDEST DUP3 ADD SWAP2 SWAP1 PUSH0 MSTORE PUSH1 0x20 PUSH0 KECCAK256 SWAP1 JUMPDEST DUP2 SLOAD DUP2 MSTORE SWAP1 PUSH1 0x1 ADD SWAP1 PUSH1 0x20 ADD DUP1 DUP4 GT PUSH2 0x11B JUMPI DUP3 SWAP1 SUB PUSH1 0x1F AND DUP3 ADD SWAP2 JUMPDEST POP POP POP POP POP SWAP1 POP DUP2 JUMP JUMPDEST PUSH0 DUP2 DUP2 SLOAD DUP2 LT PUSH2 0x154 JUMPI PUSH2 0x154 PUSH2 0x3BC JUMP JUMPDEST PUSH0 SWAP2 DUP3 MSTORE PUSH1 0x20 DUP1 DUP4 KECCAK256 PUSH1 0x1 PUSH1 0x2 SWAP1 SWAP4 MUL ADD DUP3 ADD DUP1 SLOAD SWAP3 DUP4 ADD DUP2 SSTORE DUP4 MSTORE SWAP1 SWAP2 KECCAK256 ADD DUP1 SLOAD PUSH1 0x1 PUSH1 0x1 PUSH1 0xA0 SHL SUB NOT AND CALLER OR SWAP1 SSTORE POP JUMP JUMPDEST PUSH1 0x40 DUP1 MLOAD DUP1 DUP3 ADD SWAP1 SWAP2 MSTORE DUP2 DUP2 MSTORE PUSH1 0x60 PUSH1 0x20 DUP3 ADD DUP2 SWAP1 MSTORE PUSH0 DUP1 SLOAD PUSH1 0x1 DUP2 ADD DUP3 SSTORE SWAP1 DUP1 MSTORE DUP3 MLOAD SWAP2 SWAP3 SWAP2 PUSH1 0x2 SWAP1 SWAP2 MUL PUSH32 0x290DECD9548B62A8D60345A988386FC84BA6BC95484008F6362F93160EF3E563 ADD SWAP1 DUP2 SWAP1 PUSH2 0x1E2 SWAP1 DUP3 PUSH2 0x419 JUMP JUMPDEST POP PUSH1 0x20 DUP3 DUP2 ADD MLOAD DUP1 MLOAD PUSH2 0x1FB SWAP3 PUSH1 0x1 DUP6 ADD SWAP3 ADD SWAP1 PUSH2 0x202 JUMP JUMPDEST POP POP POP POP POP JUMP JUMPDEST DUP3 DUP1 SLOAD DUP3 DUP3 SSTORE SWAP1 PUSH0 MSTORE PUSH1 0x20 PUSH0 KECCAK256 SWAP1 DUP2 ADD SWAP3 DUP3 ISZERO PUSH2 0x255 JUMPI SWAP2 PUSH1 0x20 MUL DUP3 ADD JUMPDEST DUP3 DUP2 GT ISZERO PUSH2 0x255 JUMPI DUP3 MLOAD DUP3 SLOAD PUSH1 0x1 PUSH1 0x1 PUSH1 0xA0 SHL SUB NOT AND PUSH1 0x1 PUSH1 0x1 PUSH1 0xA0 SHL SUB SWAP1 SWAP2 AND OR DUP3 SSTORE PUSH1 0x20 SWAP1 SWAP3 ADD SWAP2 PUSH1 0x1 SWAP1 SWAP2 ADD SWAP1 PUSH2 0x220 JUMP JUMPDEST POP PUSH2 0x261 SWAP3 SWAP2 POP PUSH2 0x265 JUMP JUMPDEST POP SWAP1 JUMP JUMPDEST JUMPDEST DUP1 DUP3 GT ISZERO PUSH2 0x261 JUMPI PUSH0 DUP2 SSTORE PUSH1 0x1 ADD PUSH2 0x266 JUMP JUMPDEST PUSH0 PUSH1 0x20 DUP3 DUP5 SUB SLT ISZERO PUSH2 0x289 JUMPI PUSH0 DUP1 REVERT JUMPDEST POP CALLDATALOAD SWAP2 SWAP1 POP JUMP JUMPDEST PUSH1 0x20 DUP2 MSTORE PUSH0 DUP3 MLOAD DUP1 PUSH1 0x20 DUP5 ADD MSTORE DUP1 PUSH1 0x20 DUP6 ADD PUSH1 0x40 DUP6 ADD MCOPY PUSH0 PUSH1 0x40 DUP3 DUP6 ADD ADD MSTORE PUSH1 0x40 PUSH1 0x1F NOT PUSH1 0x1F DUP4 ADD AND DUP5 ADD ADD SWAP2 POP POP SWAP3 SWAP2 POP POP JUMP JUMPDEST PUSH4 0x4E487B71 PUSH1 0xE0 SHL PUSH0 MSTORE PUSH1 0x41 PUSH1 0x4 MSTORE PUSH1 0x24 PUSH0 REVERT JUMPDEST PUSH0 PUSH1 0x20 DUP3 DUP5 SUB SLT ISZERO PUSH2 0x2E9 JUMPI PUSH0 DUP1 REVERT JUMPDEST DUP2 CALLDATALOAD PUSH8 0xFFFFFFFFFFFFFFFF DUP1 DUP3 GT ISZERO PUSH2 0x300 JUMPI PUSH0 DUP1 REVERT JUMPDEST DUP2 DUP5 ADD SWAP2 POP DUP5 PUSH1 0x1F DUP4 ADD SLT PUSH2 0x313 JUMPI PUSH0 DUP1 REVERT JUMPDEST DUP2 CALLDATALOAD DUP2 DUP2 GT ISZERO PUSH2 0x325 JUMPI PUSH2 0x325 PUSH2 0x2C5 JUMP JUMPDEST PUSH1 0x40 MLOAD PUSH1 0x1F DUP3 ADD PUSH1 0x1F NOT SWAP1 DUP2 AND PUSH1 0x3F ADD AND DUP2 ADD SWAP1 DUP4 DUP3 GT DUP2 DUP4 LT OR ISZERO PUSH2 0x34D JUMPI PUSH2 0x34D PUSH2 0x2C5 JUMP JUMPDEST DUP2 PUSH1 0x40 MSTORE DUP3 DUP2 MSTORE DUP8 PUSH1 0x20 DUP5 DUP8 ADD ADD GT ISZERO PUSH2 0x365 JUMPI PUSH0 DUP1 REVERT JUMPDEST DUP3 PUSH1 0x20 DUP7 ADD PUSH1 0x20 DUP4 ADD CALLDATACOPY PUSH0 SWAP3 DUP2 ADD PUSH1 0x20 ADD SWAP3 SWAP1 SWAP3 MSTORE POP SWAP6 SWAP5 POP POP POP POP POP JUMP JUMPDEST PUSH1 0x1 DUP2 DUP2 SHR SWAP1 DUP3 AND DUP1 PUSH2 0x398 JUMPI PUSH1 0x7F DUP3 AND SWAP2 POP JUMPDEST PUSH1 0x20 DUP3 LT DUP2 SUB PUSH2 0x3B6 JUMPI PUSH4 0x4E487B71 PUSH1 0xE0 SHL PUSH0 MSTORE PUSH1 0x22 PUSH1 0x4 MSTORE PUSH1 0x24 PUSH0 REVERT JUMPDEST POP SWAP2 SWAP1 POP JUMP JUMPDEST PUSH4 0x4E487B71 PUSH1 0xE0 SHL PUSH0 MSTORE PUSH1 0x32 PUSH1 0x4 MSTORE PUSH1 0x24 PUSH0 REVERT JUMPDEST PUSH1 0x1F DUP3 GT ISZERO PUSH2 0x414 JUMPI DUP1 PUSH0 MSTORE PUSH1 0x20 PUSH0 KECCAK256 PUSH1 0x1F DUP5 ADD PUSH1 0x5 SHR DUP2 ADD PUSH1 0x20 DUP6 LT ISZERO PUSH2 0x3F5 JUMPI POP DUP1 JUMPDEST PUSH1 0x1F DUP5 ADD PUSH1 0x5 SHR DUP3 ADD SWAP2 POP JUMPDEST DUP2 DUP2 LT ISZERO PUSH2 0x1FB JUMPI PUSH0 DUP2 SSTORE PUSH1 0x1 ADD PUSH2 0x401 JUMP JUMPDEST POP POP POP JUMP JUMPDEST DUP2 MLOAD PUSH8 0xFFFFFFFFFFFFFFFF DUP2 GT ISZERO PUSH2 0x433 JUMPI PUSH2 0x433 PUSH2 0x2C5 JUMP JUMPDEST PUSH2 0x447 DUP2 PUSH2 0x441 DUP5 SLOAD PUSH2 0x384 JUMP JUMPDEST DUP5 PUSH2 0x3D0 JUMP JUMPDEST PUSH1 0x20 DUP1 PUSH1 0x1F DUP4 GT PUSH1 0x1 DUP2 EQ PUSH2 0x47A JUMPI PUSH0 DUP5 ISZERO PUSH2 0x463 JUMPI POP DUP6 DUP4 ADD MLOAD JUMPDEST PUSH0 NOT PUSH1 0x3 DUP7 SWAP1 SHL SHR NOT AND PUSH1 0x1 DUP6 SWAP1 SHL OR DUP6 SSTORE PUSH2 0x4D1 JUMP JUMPDEST PUSH0 DUP6 DUP2 MSTORE PUSH1 0x20 DUP2 KECCAK256 PUSH1 0x1F NOT DUP7 AND SWAP2 JUMPDEST DUP3 DUP2 LT ISZERO PUSH2 0x4A8 JUMPI DUP9 DUP7 ADD MLOAD DUP3 SSTORE SWAP5 DUP5 ADD SWAP5 PUSH1 0x1 SWAP1 SWAP2 ADD SWAP1 DUP5 ADD PUSH2 0x489 JUMP JUMPDEST POP DUP6 DUP3 LT ISZERO PUSH2 0x4C5 JUMPI DUP8 DUP6 ADD MLOAD PUSH0 NOT PUSH1 0x3 DUP9 SWAP1 SHL PUSH1 0xF8 AND SHR NOT AND DUP2 SSTORE JUMPDEST POP POP PUSH1 0x1 DUP5 PUSH1 0x1 SHL ADD DUP6 SSTORE JUMPDEST POP POP POP POP POP POP JUMP INVALID LOG2 PUSH5 0x6970667358 0x22 SLT KECCAK256 0xE4 SELFDESTRUCT 0xBE PUSH8 0x1232032A7CDDD255 REVERT SWAP6 NOT 0xEF SELFBALANCE LOG4 0xEE STATICCALL 0xCD TSTORE 0xB7 0xDD 0xC8 0x4C 0x29 SWAP2 SHL 0xB5 0xDA 0x2B PUSH5 0x736F6C6343 STOP ADDMOD NOT STOP CALLER "
				},
				"gasEstimates": {
					"creation": {
						"codeDepositCost": "259000",
						"executionCost": "298",
						"totalCost": "259298"
					},
					"external": {
						"contributeToGreenSpace(uint256)": "50929",
						"createGreenSpace(string)": "infinite",
						"greenSpaces(uint256)": "infinite"
					}
				},
				"methodIdentifiers": {
					"contributeToGreenSpace(uint256)": "bf6491d3",
					"createGreenSpace(string)": "fb6a4171",
					"greenSpaces(uint256)": "8489fa97"
				}
			},
			"storageLayout": {
				"storage": [
					{
						"astId": 11,
						"contract": "artifacts/Urbangreenmanagement.sol:UrbanGreenSpaces",
						"label": "greenSpaces",
						"offset": 0,
						"slot": "0",
						"type": "t_array(t_struct(GreenSpace)7_storage)dyn_storage"
					}
				],
				"types": {
					"t_address": {
						"encoding": "inplace",
						"label": "address",
						"numberOfBytes": "20"
					},
					"t_array(t_address)dyn_storage": {
						"base": "t_address",
						"encoding": "dynamic_array",
						"label": "address[]",
						"numberOfBytes": "32"
					},
					"t_array(t_struct(GreenSpace)7_storage)dyn_storage": {
						"base": "t_struct(GreenSpace)7_storage",
						"encoding": "dynamic_array",
						"label": "struct UrbanGreenSpaces.GreenSpace[]",
						"numberOfBytes": "32"
					},
					"t_string_storage": {
						"encoding": "bytes",
						"label": "string",
						"numberOfBytes": "32"
					},
					"t_struct(GreenSpace)7_storage": {
						"encoding": "inplace",
						"label": "struct UrbanGreenSpaces.GreenSpace",
						"members": [
							{
								"astId": 3,
								"contract": "artifacts/Urbangreenmanagement.sol:UrbanGreenSpaces",
								"label": "name",
								"offset": 0,
								"slot": "0",
								"type": "t_string_storage"
							},
							{
								"astId": 6,
								"contract": "artifacts/Urbangreenmanagement.sol:UrbanGreenSpaces",
								"label": "contributors",
								"offset": 0,
								"slot": "1",
								"type": "t_array(t_address)dyn_storage"
							}
						],
						"numberOfBytes": "64"
					}
				}
			},
			"userdoc": {
				"kind": "user",
				"methods": {},
				"version": 1
			}
		}
	}
}