{
	"artifacts/Supplychainverification.sol": {
		"SupplyChain": {
			"abi": [
				{
					"inputs": [
						{
							"internalType": "uint256",
							"name": "_id",
							"type": "uint256"
						},
						{
							"internalType": "string",
							"name": "_name",
							"type": "string"
						}
					],
					"name": "addProduct",
					"outputs": [],
					"stateMutability": "nonpayable",
					"type": "function"
				},
				{
					"inputs": [
						{
							"internalType": "uint256",
							"name": "",
							"type": "uint256"
						}
					],
					"name": "products",
					"outputs": [
						{
							"internalType": "string",
							"name": "name",
							"type": "string"
						},
						{
							"internalType": "address",
							"name": "currentOwner",
							"type": "address"
						},
						{
							"internalType": "bool",
							"name": "verified",
							"type": "bool"
						}
					],
					"stateMutability": "view",
					"type": "function"
				},
				{
					"inputs": [
						{
							"internalType": "uint256",
							"name": "_id",
							"type": "uint256"
						},
						{
							"internalType": "address",
							"name": "_newOwner",
							"type": "address"
						}
					],
					"name": "transferOwnership",
					"outputs": [],
					"stateMutability": "nonpayable",
					"type": "function"
				}
			],
			"devdoc": {
				"kind": "dev",
				"methods": {},
				"version": 1
			},
			"evm": {
				"assembly": "    /* \"artifacts/Supplychainverification.sol\":60:567  contract SupplyChain {... */\n  mstore(0x40, 0x80)\n  callvalue\n  dup1\n  iszero\n  tag_1\n  jumpi\n  0x00\n  dup1\n  revert\ntag_1:\n  pop\n  dataSize(sub_0)\n  dup1\n  dataOffset(sub_0)\n  0x00\n  codecopy\n  0x00\n  return\nstop\n\nsub_0: assembly {\n        /* \"artifacts/Supplychainverification.sol\":60:567  contract SupplyChain {... */\n      mstore(0x40, 0x80)\n      callvalue\n      dup1\n      iszero\n      tag_1\n      jumpi\n      0x00\n      dup1\n      revert\n    tag_1:\n      pop\n      jumpi(tag_2, lt(calldatasize, 0x04))\n      shr(0xe0, calldataload(0x00))\n      dup1\n      0x23cd950a\n      eq\n      tag_3\n      jumpi\n      dup1\n      0x29507f73\n      eq\n      tag_4\n      jumpi\n      dup1\n      0x7acc0b20\n      eq\n      tag_5\n      jumpi\n    tag_2:\n      0x00\n      dup1\n      revert\n        /* \"artifacts/Supplychainverification.sol\":245:370  function addProduct(uint _id, string memory _name) public {... */\n    tag_3:\n      tag_6\n      tag_7\n      calldatasize\n      0x04\n      tag_8\n      jump\t// in\n    tag_7:\n      tag_9\n      jump\t// in\n    tag_6:\n      stop\n        /* \"artifacts/Supplychainverification.sol\":378:564  function transferOwnership(uint _id, address _newOwner) public {... */\n    tag_4:\n      tag_6\n      tag_11\n      calldatasize\n      0x04\n      tag_12\n      jump\t// in\n    tag_11:\n      tag_13\n      jump\t// in\n        /* \"artifacts/Supplychainverification.sol\":196:236  mapping(uint => Product) public products */\n    tag_5:\n      tag_14\n      tag_15\n      calldatasize\n      0x04\n      tag_16\n      jump\t// in\n    tag_15:\n      tag_17\n      jump\t// in\n    tag_14:\n      mload(0x40)\n      tag_18\n      swap4\n      swap3\n      swap2\n      swap1\n      tag_19\n      jump\t// in\n    tag_18:\n      mload(0x40)\n      dup1\n      swap2\n      sub\n      swap1\n      return\n        /* \"artifacts/Supplychainverification.sol\":245:370  function addProduct(uint _id, string memory _name) public {... */\n    tag_9:\n        /* \"artifacts/Supplychainverification.sol\":330:362  Product(_name, msg.sender, true) */\n      0x40\n      dup1\n      mload\n      0x60\n      dup2\n      add\n      dup3\n      mstore\n      dup3\n      dup2\n      mstore\n        /* \"artifacts/Supplychainverification.sol\":345:355  msg.sender */\n      caller\n        /* \"artifacts/Supplychainverification.sol\":330:362  Product(_name, msg.sender, true) */\n      0x20\n      dup1\n      dup4\n      add\n      swap2\n      swap1\n      swap2\n      mstore\n        /* \"artifacts/Supplychainverification.sol\":357:361  true */\n      0x01\n        /* \"artifacts/Supplychainverification.sol\":330:362  Product(_name, msg.sender, true) */\n      dup3\n      dup5\n      add\n      mstore\n      0x00\n        /* \"artifacts/Supplychainverification.sol\":314:327  products[_id] */\n      dup6\n      dup2\n      mstore\n      swap1\n      dup2\n      swap1\n      mstore\n      swap2\n      swap1\n      swap2\n      keccak256\n        /* \"artifacts/Supplychainverification.sol\":314:362  products[_id] = Product(_name, msg.sender, true) */\n      dup2\n      mload\n        /* \"artifacts/Supplychainverification.sol\":314:327  products[_id] */\n      dup2\n      swap1\n        /* \"artifacts/Supplychainverification.sol\":314:362  products[_id] = Product(_name, msg.sender, true) */\n      tag_21\n      swap1\n        /* \"artifacts/Supplychainverification.sol\":314:327  products[_id] */\n      dup3\n        /* \"artifacts/Supplychainverification.sol\":314:362  products[_id] = Product(_name, msg.sender, true) */\n      tag_22\n      jump\t// in\n    tag_21:\n      pop\n      0x20\n      dup3\n      add\n      mload\n      0x01\n      swap1\n      swap2\n      add\n      dup1\n      sload\n      0x40\n      swap1\n      swap4\n      add\n      mload\n      iszero\n      iszero\n      shl(0xa0, 0x01)\n      mul\n      not(sub(shl(0xa8, 0x01), 0x01))\n      swap1\n      swap4\n      and\n      sub(shl(0xa0, 0x01), 0x01)\n      swap1\n      swap3\n      and\n      swap2\n      swap1\n      swap2\n      or\n      swap2\n      swap1\n      swap2\n      or\n      swap1\n      sstore\n      pop\n      pop\n        /* \"artifacts/Supplychainverification.sol\":245:370  function addProduct(uint _id, string memory _name) public {... */\n      jump\t// out\n        /* \"artifacts/Supplychainverification.sol\":378:564  function transferOwnership(uint _id, address _newOwner) public {... */\n    tag_13:\n        /* \"artifacts/Supplychainverification.sol\":460:468  products */\n      0x00\n        /* \"artifacts/Supplychainverification.sol\":460:473  products[_id] */\n      dup3\n      dup2\n      mstore\n      0x20\n      dup2\n      swap1\n      mstore\n      0x40\n      swap1\n      keccak256\n        /* \"artifacts/Supplychainverification.sol\":460:482  products[_id].verified */\n      0x01\n      add\n      sload\n      shl(0xa0, 0x01)\n      swap1\n      div\n      0xff\n      and\n        /* \"artifacts/Supplychainverification.sol\":452:507  require(products[_id].verified, \"Product not verified\") */\n      tag_24\n      jumpi\n      mload(0x40)\n      shl(0xe5, 0x461bcd)\n      dup2\n      mstore\n        /* \"#utility.yul\":5050:5052   */\n      0x20\n        /* \"artifacts/Supplychainverification.sol\":452:507  require(products[_id].verified, \"Product not verified\") */\n      0x04\n      dup3\n      add\n        /* \"#utility.yul\":5032:5053   */\n      mstore\n        /* \"#utility.yul\":5089:5091   */\n      0x14\n        /* \"#utility.yul\":5069:5087   */\n      0x24\n      dup3\n      add\n        /* \"#utility.yul\":5062:5092   */\n      mstore\n      shl(0x62, 0x141c9bd91d58dd081b9bdd081d995c9a599a5959)\n        /* \"#utility.yul\":5108:5126   */\n      0x44\n      dup3\n      add\n        /* \"#utility.yul\":5101:5151   */\n      mstore\n        /* \"#utility.yul\":5168:5186   */\n      0x64\n      add\n        /* \"artifacts/Supplychainverification.sol\":452:507  require(products[_id].verified, \"Product not verified\") */\n      mload(0x40)\n      dup1\n      swap2\n      sub\n      swap1\n      revert\n    tag_24:\n        /* \"artifacts/Supplychainverification.sol\":518:526  products */\n      0x00\n        /* \"artifacts/Supplychainverification.sol\":518:531  products[_id] */\n      swap2\n      dup3\n      mstore\n      0x20\n      dup3\n      swap1\n      mstore\n      0x40\n      swap1\n      swap2\n      keccak256\n        /* \"artifacts/Supplychainverification.sol\":518:544  products[_id].currentOwner */\n      0x01\n      add\n        /* \"artifacts/Supplychainverification.sol\":518:556  products[_id].currentOwner = _newOwner */\n      dup1\n      sload\n      not(sub(shl(0xa0, 0x01), 0x01))\n      and\n      sub(shl(0xa0, 0x01), 0x01)\n      swap1\n      swap3\n      and\n      swap2\n      swap1\n      swap2\n      or\n      swap1\n      sstore\n        /* \"artifacts/Supplychainverification.sol\":378:564  function transferOwnership(uint _id, address _newOwner) public {... */\n      jump\t// out\n        /* \"artifacts/Supplychainverification.sol\":196:236  mapping(uint => Product) public products */\n    tag_17:\n      0x00\n      0x20\n      dup2\n      swap1\n      mstore\n      swap1\n      dup2\n      mstore\n      0x40\n      swap1\n      keccak256\n      dup1\n      sload\n      dup2\n      swap1\n      tag_27\n      swap1\n      tag_28\n      jump\t// in\n    tag_27:\n      dup1\n      0x1f\n      add\n      0x20\n      dup1\n      swap2\n      div\n      mul\n      0x20\n      add\n      mload(0x40)\n      swap1\n      dup2\n      add\n      0x40\n      mstore\n      dup1\n      swap3\n      swap2\n      swap1\n      dup2\n      dup2\n      mstore\n      0x20\n      add\n      dup3\n      dup1\n      sload\n      tag_29\n      swap1\n      tag_28\n      jump\t// in\n    tag_29:\n      dup1\n      iszero\n      tag_30\n      jumpi\n      dup1\n      0x1f\n      lt\n      tag_31\n      jumpi\n      0x0100\n      dup1\n      dup4\n      sload\n      div\n      mul\n      dup4\n      mstore\n      swap2\n      0x20\n      add\n      swap2\n      jump(tag_30)\n    tag_31:\n      dup3\n      add\n      swap2\n      swap1\n      0x00\n      mstore\n      keccak256(0x00, 0x20)\n      swap1\n    tag_32:\n      dup2\n      sload\n      dup2\n      mstore\n      swap1\n      0x01\n      add\n      swap1\n      0x20\n      add\n      dup1\n      dup4\n      gt\n      tag_32\n      jumpi\n      dup3\n      swap1\n      sub\n      0x1f\n      and\n      dup3\n      add\n      swap2\n    tag_30:\n      pop\n      pop\n      pop\n      0x01\n      swap1\n      swap4\n      add\n      sload\n      swap2\n      swap3\n      pop\n      pop\n      sub(shl(0xa0, 0x01), 0x01)\n      dup2\n      and\n      swap1\n      0xff\n      shl(0xa0, 0x01)\n      swap1\n      swap2\n      div\n      and\n      dup4\n      jump\t// out\n        /* \"#utility.yul\":14:141   */\n    tag_33:\n        /* \"#utility.yul\":75:85   */\n      0x4e487b71\n        /* \"#utility.yul\":70:73   */\n      0xe0\n        /* \"#utility.yul\":66:86   */\n      shl\n        /* \"#utility.yul\":63:64   */\n      0x00\n        /* \"#utility.yul\":56:87   */\n      mstore\n        /* \"#utility.yul\":106:110   */\n      0x41\n        /* \"#utility.yul\":103:104   */\n      0x04\n        /* \"#utility.yul\":96:111   */\n      mstore\n        /* \"#utility.yul\":130:134   */\n      0x24\n        /* \"#utility.yul\":127:128   */\n      0x00\n        /* \"#utility.yul\":120:135   */\n      revert\n        /* \"#utility.yul\":146:1136   */\n    tag_8:\n        /* \"#utility.yul\":224:230   */\n      0x00\n        /* \"#utility.yul\":232:238   */\n      dup1\n        /* \"#utility.yul\":285:287   */\n      0x40\n        /* \"#utility.yul\":273:282   */\n      dup4\n        /* \"#utility.yul\":264:271   */\n      dup6\n        /* \"#utility.yul\":260:283   */\n      sub\n        /* \"#utility.yul\":256:288   */\n      slt\n        /* \"#utility.yul\":253:305   */\n      iszero\n      tag_40\n      jumpi\n        /* \"#utility.yul\":301:302   */\n      0x00\n        /* \"#utility.yul\":298:299   */\n      dup1\n        /* \"#utility.yul\":291:303   */\n      revert\n        /* \"#utility.yul\":253:305   */\n    tag_40:\n        /* \"#utility.yul\":337:346   */\n      dup3\n        /* \"#utility.yul\":324:347   */\n      calldataload\n        /* \"#utility.yul\":314:347   */\n      swap2\n      pop\n        /* \"#utility.yul\":398:400   */\n      0x20\n        /* \"#utility.yul\":387:396   */\n      dup4\n        /* \"#utility.yul\":383:401   */\n      add\n        /* \"#utility.yul\":370:402   */\n      calldataload\n        /* \"#utility.yul\":421:439   */\n      0xffffffffffffffff\n        /* \"#utility.yul\":462:464   */\n      dup1\n        /* \"#utility.yul\":454:460   */\n      dup3\n        /* \"#utility.yul\":451:465   */\n      gt\n        /* \"#utility.yul\":448:482   */\n      iszero\n      tag_41\n      jumpi\n        /* \"#utility.yul\":478:479   */\n      0x00\n        /* \"#utility.yul\":475:476   */\n      dup1\n        /* \"#utility.yul\":468:480   */\n      revert\n        /* \"#utility.yul\":448:482   */\n    tag_41:\n        /* \"#utility.yul\":516:522   */\n      dup2\n        /* \"#utility.yul\":505:514   */\n      dup6\n        /* \"#utility.yul\":501:523   */\n      add\n        /* \"#utility.yul\":491:523   */\n      swap2\n      pop\n        /* \"#utility.yul\":561:568   */\n      dup6\n        /* \"#utility.yul\":554:558   */\n      0x1f\n        /* \"#utility.yul\":550:552   */\n      dup4\n        /* \"#utility.yul\":546:559   */\n      add\n        /* \"#utility.yul\":542:569   */\n      slt\n        /* \"#utility.yul\":532:587   */\n      tag_42\n      jumpi\n        /* \"#utility.yul\":583:584   */\n      0x00\n        /* \"#utility.yul\":580:581   */\n      dup1\n        /* \"#utility.yul\":573:585   */\n      revert\n        /* \"#utility.yul\":532:587   */\n    tag_42:\n        /* \"#utility.yul\":619:621   */\n      dup2\n        /* \"#utility.yul\":606:622   */\n      calldataload\n        /* \"#utility.yul\":641:643   */\n      dup2\n        /* \"#utility.yul\":637:639   */\n      dup2\n        /* \"#utility.yul\":634:644   */\n      gt\n        /* \"#utility.yul\":631:667   */\n      iszero\n      tag_44\n      jumpi\n        /* \"#utility.yul\":647:665   */\n      tag_44\n      tag_33\n      jump\t// in\n    tag_44:\n        /* \"#utility.yul\":722:724   */\n      0x40\n        /* \"#utility.yul\":716:725   */\n      mload\n        /* \"#utility.yul\":690:692   */\n      0x1f\n        /* \"#utility.yul\":776:789   */\n      dup3\n      add\n      not(0x1f)\n        /* \"#utility.yul\":772:794   */\n      swap1\n      dup2\n      and\n        /* \"#utility.yul\":796:798   */\n      0x3f\n        /* \"#utility.yul\":768:799   */\n      add\n        /* \"#utility.yul\":764:804   */\n      and\n        /* \"#utility.yul\":752:805   */\n      dup2\n      add\n      swap1\n        /* \"#utility.yul\":820:838   */\n      dup4\n      dup3\n      gt\n        /* \"#utility.yul\":840:862   */\n      dup2\n      dup4\n      lt\n        /* \"#utility.yul\":817:863   */\n      or\n        /* \"#utility.yul\":814:886   */\n      iszero\n      tag_46\n      jumpi\n        /* \"#utility.yul\":866:884   */\n      tag_46\n      tag_33\n      jump\t// in\n    tag_46:\n        /* \"#utility.yul\":906:916   */\n      dup2\n        /* \"#utility.yul\":902:904   */\n      0x40\n        /* \"#utility.yul\":895:917   */\n      mstore\n        /* \"#utility.yul\":941:943   */\n      dup3\n        /* \"#utility.yul\":933:939   */\n      dup2\n        /* \"#utility.yul\":926:944   */\n      mstore\n        /* \"#utility.yul\":981:988   */\n      dup9\n        /* \"#utility.yul\":976:978   */\n      0x20\n        /* \"#utility.yul\":971:973   */\n      dup5\n        /* \"#utility.yul\":967:969   */\n      dup8\n        /* \"#utility.yul\":963:974   */\n      add\n        /* \"#utility.yul\":959:979   */\n      add\n        /* \"#utility.yul\":956:989   */\n      gt\n        /* \"#utility.yul\":953:1006   */\n      iszero\n      tag_47\n      jumpi\n        /* \"#utility.yul\":1002:1003   */\n      0x00\n        /* \"#utility.yul\":999:1000   */\n      dup1\n        /* \"#utility.yul\":992:1004   */\n      revert\n        /* \"#utility.yul\":953:1006   */\n    tag_47:\n        /* \"#utility.yul\":1058:1060   */\n      dup3\n        /* \"#utility.yul\":1053:1055   */\n      0x20\n        /* \"#utility.yul\":1049:1051   */\n      dup7\n        /* \"#utility.yul\":1045:1056   */\n      add\n        /* \"#utility.yul\":1040:1042   */\n      0x20\n        /* \"#utility.yul\":1032:1038   */\n      dup4\n        /* \"#utility.yul\":1028:1043   */\n      add\n        /* \"#utility.yul\":1015:1061   */\n      calldatacopy\n        /* \"#utility.yul\":1103:1104   */\n      0x00\n        /* \"#utility.yul\":1098:1100   */\n      0x20\n        /* \"#utility.yul\":1093:1095   */\n      dup5\n        /* \"#utility.yul\":1085:1091   */\n      dup4\n        /* \"#utility.yul\":1081:1096   */\n      add\n        /* \"#utility.yul\":1077:1101   */\n      add\n        /* \"#utility.yul\":1070:1105   */\n      mstore\n        /* \"#utility.yul\":1124:1130   */\n      dup1\n        /* \"#utility.yul\":1114:1130   */\n      swap6\n      pop\n      pop\n      pop\n      pop\n      pop\n      pop\n        /* \"#utility.yul\":146:1136   */\n      swap3\n      pop\n      swap3\n      swap1\n      pop\n      jump\t// out\n        /* \"#utility.yul\":1141:1495   */\n    tag_12:\n        /* \"#utility.yul\":1209:1215   */\n      0x00\n        /* \"#utility.yul\":1217:1223   */\n      dup1\n        /* \"#utility.yul\":1270:1272   */\n      0x40\n        /* \"#utility.yul\":1258:1267   */\n      dup4\n        /* \"#utility.yul\":1249:1256   */\n      dup6\n        /* \"#utility.yul\":1245:1268   */\n      sub\n        /* \"#utility.yul\":1241:1273   */\n      slt\n        /* \"#utility.yul\":1238:1290   */\n      iszero\n      tag_49\n      jumpi\n        /* \"#utility.yul\":1286:1287   */\n      0x00\n        /* \"#utility.yul\":1283:1284   */\n      dup1\n        /* \"#utility.yul\":1276:1288   */\n      revert\n        /* \"#utility.yul\":1238:1290   */\n    tag_49:\n        /* \"#utility.yul\":1309:1332   */\n      dup3\n      calldataload\n      swap2\n      pop\n        /* \"#utility.yul\":1382:1384   */\n      0x20\n        /* \"#utility.yul\":1367:1385   */\n      dup4\n      add\n        /* \"#utility.yul\":1354:1386   */\n      calldataload\n      sub(shl(0xa0, 0x01), 0x01)\n        /* \"#utility.yul\":1415:1446   */\n      dup2\n      and\n        /* \"#utility.yul\":1405:1447   */\n      dup2\n      eq\n        /* \"#utility.yul\":1395:1465   */\n      tag_50\n      jumpi\n        /* \"#utility.yul\":1461:1462   */\n      0x00\n        /* \"#utility.yul\":1458:1459   */\n      dup1\n        /* \"#utility.yul\":1451:1463   */\n      revert\n        /* \"#utility.yul\":1395:1465   */\n    tag_50:\n        /* \"#utility.yul\":1484:1489   */\n      dup1\n        /* \"#utility.yul\":1474:1489   */\n      swap2\n      pop\n      pop\n        /* \"#utility.yul\":1141:1495   */\n      swap3\n      pop\n      swap3\n      swap1\n      pop\n      jump\t// out\n        /* \"#utility.yul\":1500:1680   */\n    tag_16:\n        /* \"#utility.yul\":1559:1565   */\n      0x00\n        /* \"#utility.yul\":1612:1614   */\n      0x20\n        /* \"#utility.yul\":1600:1609   */\n      dup3\n        /* \"#utility.yul\":1591:1598   */\n      dup5\n        /* \"#utility.yul\":1587:1610   */\n      sub\n        /* \"#utility.yul\":1583:1615   */\n      slt\n        /* \"#utility.yul\":1580:1632   */\n      iszero\n      tag_52\n      jumpi\n        /* \"#utility.yul\":1628:1629   */\n      0x00\n        /* \"#utility.yul\":1625:1626   */\n      dup1\n        /* \"#utility.yul\":1618:1630   */\n      revert\n        /* \"#utility.yul\":1580:1632   */\n    tag_52:\n      pop\n        /* \"#utility.yul\":1651:1674   */\n      calldataload\n      swap2\n        /* \"#utility.yul\":1500:1680   */\n      swap1\n      pop\n      jump\t// out\n        /* \"#utility.yul\":1685:2288   */\n    tag_19:\n        /* \"#utility.yul\":1884:1886   */\n      0x60\n        /* \"#utility.yul\":1873:1882   */\n      dup2\n        /* \"#utility.yul\":1866:1887   */\n      mstore\n        /* \"#utility.yul\":1847:1851   */\n      0x00\n        /* \"#utility.yul\":1916:1922   */\n      dup5\n        /* \"#utility.yul\":1910:1923   */\n      mload\n        /* \"#utility.yul\":1959:1965   */\n      dup1\n        /* \"#utility.yul\":1954:1956   */\n      0x60\n        /* \"#utility.yul\":1943:1952   */\n      dup5\n        /* \"#utility.yul\":1939:1957   */\n      add\n        /* \"#utility.yul\":1932:1966   */\n      mstore\n        /* \"#utility.yul\":2021:2027   */\n      dup1\n        /* \"#utility.yul\":2014:2018   */\n      0x20\n        /* \"#utility.yul\":2006:2012   */\n      dup8\n        /* \"#utility.yul\":2002:2019   */\n      add\n        /* \"#utility.yul\":1996:1999   */\n      0x80\n        /* \"#utility.yul\":1985:1994   */\n      dup6\n        /* \"#utility.yul\":1981:2000   */\n      add\n        /* \"#utility.yul\":1975:2028   */\n      mcopy\n        /* \"#utility.yul\":2078:2079   */\n      0x00\n        /* \"#utility.yul\":2072:2075   */\n      0x80\n        /* \"#utility.yul\":2048:2070   */\n      dup3\n      dup6\n      add\n        /* \"#utility.yul\":2044:2076   */\n      dup2\n      add\n        /* \"#utility.yul\":2037:2080   */\n      swap2\n      swap1\n      swap2\n      mstore\n      sub(shl(0xa0, 0x01), 0x01)\n        /* \"#utility.yul\":2190:2222   */\n      swap6\n      swap1\n      swap6\n      and\n        /* \"#utility.yul\":2183:2187   */\n      0x20\n        /* \"#utility.yul\":2168:2188   */\n      dup5\n      add\n        /* \"#utility.yul\":2161:2223   */\n      mstore\n        /* \"#utility.yul\":2266:2280   */\n      swap3\n      iszero\n        /* \"#utility.yul\":2259:2281   */\n      iszero\n        /* \"#utility.yul\":2254:2256   */\n      0x40\n        /* \"#utility.yul\":2239:2257   */\n      dup4\n      add\n        /* \"#utility.yul\":2232:2282   */\n      mstore\n      pop\n        /* \"#utility.yul\":2141:2143   */\n      0x1f\n        /* \"#utility.yul\":2120:2135   */\n      swap1\n      swap2\n      add\n      not(0x1f)\n        /* \"#utility.yul\":2116:2145   */\n      and\n        /* \"#utility.yul\":2101:2146   */\n      add\n        /* \"#utility.yul\":2097:2152   */\n      add\n      swap2\n      swap1\n      pop\n        /* \"#utility.yul\":1685:2288   */\n      jump\t// out\n        /* \"#utility.yul\":2293:2673   */\n    tag_28:\n        /* \"#utility.yul\":2372:2373   */\n      0x01\n        /* \"#utility.yul\":2368:2380   */\n      dup2\n      dup2\n      shr\n      swap1\n        /* \"#utility.yul\":2415:2427   */\n      dup3\n      and\n      dup1\n        /* \"#utility.yul\":2436:2497   */\n      tag_55\n      jumpi\n        /* \"#utility.yul\":2490:2494   */\n      0x7f\n        /* \"#utility.yul\":2482:2488   */\n      dup3\n        /* \"#utility.yul\":2478:2495   */\n      and\n        /* \"#utility.yul\":2468:2495   */\n      swap2\n      pop\n        /* \"#utility.yul\":2436:2497   */\n    tag_55:\n        /* \"#utility.yul\":2543:2545   */\n      0x20\n        /* \"#utility.yul\":2535:2541   */\n      dup3\n        /* \"#utility.yul\":2532:2546   */\n      lt\n        /* \"#utility.yul\":2512:2530   */\n      dup2\n        /* \"#utility.yul\":2509:2547   */\n      sub\n        /* \"#utility.yul\":2506:2667   */\n      tag_56\n      jumpi\n        /* \"#utility.yul\":2589:2599   */\n      0x4e487b71\n        /* \"#utility.yul\":2584:2587   */\n      0xe0\n        /* \"#utility.yul\":2580:2600   */\n      shl\n        /* \"#utility.yul\":2577:2578   */\n      0x00\n        /* \"#utility.yul\":2570:2601   */\n      mstore\n        /* \"#utility.yul\":2624:2628   */\n      0x22\n        /* \"#utility.yul\":2621:2622   */\n      0x04\n        /* \"#utility.yul\":2614:2629   */\n      mstore\n        /* \"#utility.yul\":2652:2656   */\n      0x24\n        /* \"#utility.yul\":2649:2650   */\n      0x00\n        /* \"#utility.yul\":2642:2657   */\n      revert\n        /* \"#utility.yul\":2506:2667   */\n    tag_56:\n      pop\n        /* \"#utility.yul\":2293:2673   */\n      swap2\n      swap1\n      pop\n      jump\t// out\n        /* \"#utility.yul\":2804:3322   */\n    tag_35:\n        /* \"#utility.yul\":2906:2908   */\n      0x1f\n        /* \"#utility.yul\":2901:2904   */\n      dup3\n        /* \"#utility.yul\":2898:2909   */\n      gt\n        /* \"#utility.yul\":2895:3316   */\n      iszero\n      tag_59\n      jumpi\n        /* \"#utility.yul\":2942:2947   */\n      dup1\n        /* \"#utility.yul\":2939:2940   */\n      0x00\n        /* \"#utility.yul\":2932:2948   */\n      mstore\n        /* \"#utility.yul\":2986:2990   */\n      0x20\n        /* \"#utility.yul\":2983:2984   */\n      0x00\n        /* \"#utility.yul\":2973:2991   */\n      keccak256\n        /* \"#utility.yul\":3056:3058   */\n      0x1f\n        /* \"#utility.yul\":3044:3054   */\n      dup5\n        /* \"#utility.yul\":3040:3059   */\n      add\n        /* \"#utility.yul\":3037:3038   */\n      0x05\n        /* \"#utility.yul\":3033:3060   */\n      shr\n        /* \"#utility.yul\":3027:3031   */\n      dup2\n        /* \"#utility.yul\":3023:3061   */\n      add\n        /* \"#utility.yul\":3092:3096   */\n      0x20\n        /* \"#utility.yul\":3080:3090   */\n      dup6\n        /* \"#utility.yul\":3077:3097   */\n      lt\n        /* \"#utility.yul\":3074:3121   */\n      iszero\n      tag_60\n      jumpi\n      pop\n        /* \"#utility.yul\":3115:3119   */\n      dup1\n        /* \"#utility.yul\":3074:3121   */\n    tag_60:\n        /* \"#utility.yul\":3170:3172   */\n      0x1f\n        /* \"#utility.yul\":3165:3168   */\n      dup5\n        /* \"#utility.yul\":3161:3173   */\n      add\n        /* \"#utility.yul\":3158:3159   */\n      0x05\n        /* \"#utility.yul\":3154:3174   */\n      shr\n        /* \"#utility.yul\":3148:3152   */\n      dup3\n        /* \"#utility.yul\":3144:3175   */\n      add\n        /* \"#utility.yul\":3134:3175   */\n      swap2\n      pop\n        /* \"#utility.yul\":3225:3306   */\n    tag_61:\n        /* \"#utility.yul\":3243:3245   */\n      dup2\n        /* \"#utility.yul\":3236:3241   */\n      dup2\n        /* \"#utility.yul\":3233:3246   */\n      lt\n        /* \"#utility.yul\":3225:3306   */\n      iszero\n      tag_63\n      jumpi\n        /* \"#utility.yul\":3302:3303   */\n      0x00\n        /* \"#utility.yul\":3288:3304   */\n      dup2\n      sstore\n        /* \"#utility.yul\":3269:3270   */\n      0x01\n        /* \"#utility.yul\":3258:3271   */\n      add\n        /* \"#utility.yul\":3225:3306   */\n      jump(tag_61)\n    tag_63:\n        /* \"#utility.yul\":3229:3232   */\n      pop\n      pop\n        /* \"#utility.yul\":2895:3316   */\n    tag_59:\n        /* \"#utility.yul\":2804:3322   */\n      pop\n      pop\n      pop\n      jump\t// out\n        /* \"#utility.yul\":3498:4843   */\n    tag_22:\n        /* \"#utility.yul\":3624:3627   */\n      dup2\n        /* \"#utility.yul\":3618:3628   */\n      mload\n        /* \"#utility.yul\":3651:3669   */\n      0xffffffffffffffff\n        /* \"#utility.yul\":3643:3649   */\n      dup2\n        /* \"#utility.yul\":3640:3670   */\n      gt\n        /* \"#utility.yul\":3637:3693   */\n      iszero\n      tag_67\n      jumpi\n        /* \"#utility.yul\":3673:3691   */\n      tag_67\n      tag_33\n      jump\t// in\n    tag_67:\n        /* \"#utility.yul\":3702:3799   */\n      tag_68\n        /* \"#utility.yul\":3792:3798   */\n      dup2\n        /* \"#utility.yul\":3752:3790   */\n      tag_69\n        /* \"#utility.yul\":3784:3788   */\n      dup5\n        /* \"#utility.yul\":3778:3789   */\n      sload\n        /* \"#utility.yul\":3752:3790   */\n      tag_28\n      jump\t// in\n    tag_69:\n        /* \"#utility.yul\":3746:3750   */\n      dup5\n        /* \"#utility.yul\":3702:3799   */\n      tag_35\n      jump\t// in\n    tag_68:\n        /* \"#utility.yul\":3854:3858   */\n      0x20\n      dup1\n        /* \"#utility.yul\":3911:3913   */\n      0x1f\n        /* \"#utility.yul\":3900:3914   */\n      dup4\n      gt\n        /* \"#utility.yul\":3928:3929   */\n      0x01\n        /* \"#utility.yul\":3923:4586   */\n      dup2\n      eq\n      tag_71\n      jumpi\n        /* \"#utility.yul\":4630:4631   */\n      0x00\n        /* \"#utility.yul\":4647:4653   */\n      dup5\n        /* \"#utility.yul\":4644:4733   */\n      iszero\n      tag_72\n      jumpi\n      pop\n        /* \"#utility.yul\":4699:4718   */\n      dup6\n      dup4\n      add\n        /* \"#utility.yul\":4693:4719   */\n      mload\n        /* \"#utility.yul\":4644:4733   */\n    tag_72:\n      not(0x00)\n        /* \"#utility.yul\":3455:3456   */\n      0x03\n        /* \"#utility.yul\":3451:3462   */\n      dup7\n      swap1\n      shl\n        /* \"#utility.yul\":3447:3471   */\n      shr\n        /* \"#utility.yul\":3443:3472   */\n      not\n        /* \"#utility.yul\":3433:3473   */\n      and\n        /* \"#utility.yul\":3479:3480   */\n      0x01\n        /* \"#utility.yul\":3475:3486   */\n      dup6\n      swap1\n      shl\n        /* \"#utility.yul\":3430:3487   */\n      or\n        /* \"#utility.yul\":4746:4827   */\n      dup6\n      sstore\n        /* \"#utility.yul\":3893:4837   */\n      jump(tag_70)\n        /* \"#utility.yul\":3923:4586   */\n    tag_71:\n        /* \"#utility.yul\":2751:2752   */\n      0x00\n        /* \"#utility.yul\":2744:2758   */\n      dup6\n      dup2\n      mstore\n        /* \"#utility.yul\":2788:2792   */\n      0x20\n        /* \"#utility.yul\":2775:2793   */\n      dup2\n      keccak256\n      not(0x1f)\n        /* \"#utility.yul\":3959:3979   */\n      dup7\n      and\n      swap2\n        /* \"#utility.yul\":4077:4313   */\n    tag_75:\n        /* \"#utility.yul\":4091:4098   */\n      dup3\n        /* \"#utility.yul\":4088:4089   */\n      dup2\n        /* \"#utility.yul\":4085:4099   */\n      lt\n        /* \"#utility.yul\":4077:4313   */\n      iszero\n      tag_77\n      jumpi\n        /* \"#utility.yul\":4180:4199   */\n      dup9\n      dup7\n      add\n        /* \"#utility.yul\":4174:4200   */\n      mload\n        /* \"#utility.yul\":4159:4201   */\n      dup3\n      sstore\n        /* \"#utility.yul\":4272:4299   */\n      swap5\n      dup5\n      add\n      swap5\n        /* \"#utility.yul\":4240:4241   */\n      0x01\n        /* \"#utility.yul\":4228:4242   */\n      swap1\n      swap2\n      add\n      swap1\n        /* \"#utility.yul\":4107:4126   */\n      dup5\n      add\n        /* \"#utility.yul\":4077:4313   */\n      jump(tag_75)\n    tag_77:\n        /* \"#utility.yul\":4081:4084   */\n      pop\n        /* \"#utility.yul\":4341:4347   */\n      dup6\n        /* \"#utility.yul\":4332:4339   */\n      dup3\n        /* \"#utility.yul\":4329:4348   */\n      lt\n        /* \"#utility.yul\":4326:4527   */\n      iszero\n      tag_78\n      jumpi\n        /* \"#utility.yul\":4402:4421   */\n      dup8\n      dup6\n      add\n        /* \"#utility.yul\":4396:4422   */\n      mload\n      not(0x00)\n        /* \"#utility.yul\":4485:4486   */\n      0x03\n        /* \"#utility.yul\":4481:4495   */\n      dup9\n      swap1\n      shl\n        /* \"#utility.yul\":4497:4500   */\n      0xf8\n        /* \"#utility.yul\":4477:4501   */\n      and\n        /* \"#utility.yul\":4473:4510   */\n      shr\n        /* \"#utility.yul\":4469:4511   */\n      not\n        /* \"#utility.yul\":4454:4512   */\n      and\n        /* \"#utility.yul\":4439:4513   */\n      dup2\n      sstore\n        /* \"#utility.yul\":4326:4527   */\n    tag_78:\n      pop\n      pop\n        /* \"#utility.yul\":4573:4574   */\n      0x01\n        /* \"#utility.yul\":4564:4570   */\n      dup5\n        /* \"#utility.yul\":4561:4562   */\n      0x01\n        /* \"#utility.yul\":4557:4571   */\n      shl\n        /* \"#utility.yul\":4553:4575   */\n      add\n        /* \"#utility.yul\":4547:4551   */\n      dup6\n        /* \"#utility.yul\":4540:4576   */\n      sstore\n        /* \"#utility.yul\":3893:4837   */\n    tag_70:\n      pop\n      pop\n      pop\n      pop\n        /* \"#utility.yul\":3498:4843   */\n      pop\n      pop\n      jump\t// out\n\n    auxdata: 0xa2646970667358221220d2056c62333609367e37b09ea4a6992272783f590fbdc136ac711455e996aaeb64736f6c63430008190033\n}\n",
				"bytecode": {
					"linkReferences": {},
					"object": "6080604052348015600e575f80fd5b506105368061001c5f395ff3fe608060405234801561000f575f80fd5b506004361061003f575f3560e01c806323cd950a1461004357806329507f73146100585780637acc0b201461006b575b5f80fd5b61005661005136600461026a565b610096565b005b61005661006636600461031f565b61010d565b61007e610079366004610358565b61019f565b60405161008d9392919061036f565b60405180910390f35b60408051606081018252828152336020808301919091526001828401525f8581529081905291909120815181906100cd9082610440565b506020820151600190910180546040909301511515600160a01b026001600160a81b03199093166001600160a01b03909216919091179190911790555050565b5f82815260208190526040902060010154600160a01b900460ff1661016f5760405162461bcd60e51b8152602060048201526014602482015273141c9bd91d58dd081b9bdd081d995c9a599a595960621b604482015260640160405180910390fd5b5f9182526020829052604090912060010180546001600160a01b0319166001600160a01b03909216919091179055565b5f602081905290815260409020805481906101b9906103bc565b80601f01602080910402602001604051908101604052809291908181526020018280546101e5906103bc565b80156102305780601f1061020757610100808354040283529160200191610230565b820191905f5260205f20905b81548152906001019060200180831161021357829003601f168201915b505050600190930154919250506001600160a01b0381169060ff600160a01b9091041683565b634e487b7160e01b5f52604160045260245ffd5b5f806040838503121561027b575f80fd5b82359150602083013567ffffffffffffffff80821115610299575f80fd5b818501915085601f8301126102ac575f80fd5b8135818111156102be576102be610256565b604051601f8201601f19908116603f011681019083821181831017156102e6576102e6610256565b816040528281528860208487010111156102fe575f80fd5b826020860160208301375f6020848301015280955050505050509250929050565b5f8060408385031215610330575f80fd5b8235915060208301356001600160a01b038116811461034d575f80fd5b809150509250929050565b5f60208284031215610368575f80fd5b5035919050565b606081525f84518060608401528060208701608085015e5f60808285018101919091526001600160a01b03959095166020840152921515604083015250601f909101601f19160101919050565b600181811c908216806103d057607f821691505b6020821081036103ee57634e487b7160e01b5f52602260045260245ffd5b50919050565b601f82111561043b57805f5260205f20601f840160051c810160208510156104195750805b601f840160051c820191505b81811015610438575f8155600101610425565b50505b505050565b815167ffffffffffffffff81111561045a5761045a610256565b61046e8161046884546103bc565b846103f4565b602080601f8311600181146104a1575f841561048a5750858301515b5f19600386901b1c1916600185901b1785556104f8565b5f85815260208120601f198616915b828110156104cf578886015182559484019460019091019084016104b0565b50858210156104ec57878501515f19600388901b60f8161c191681555b505060018460011b0185555b50505050505056fea2646970667358221220d2056c62333609367e37b09ea4a6992272783f590fbdc136ac711455e996aaeb64736f6c63430008190033",
					"opcodes": "PUSH1 0x80 PUSH1 0x40 MSTORE CALLVALUE DUP1 ISZERO PUSH1 0xE JUMPI PUSH0 DUP1 REVERT JUMPDEST POP PUSH2 0x536 DUP1 PUSH2 0x1C PUSH0 CODECOPY PUSH0 RETURN INVALID PUSH1 0x80 PUSH1 0x40 MSTORE CALLVALUE DUP1 ISZERO PUSH2 0xF JUMPI PUSH0 DUP1 REVERT JUMPDEST POP PUSH1 0x4 CALLDATASIZE LT PUSH2 0x3F JUMPI PUSH0 CALLDATALOAD PUSH1 0xE0 SHR DUP1 PUSH4 0x23CD950A EQ PUSH2 0x43 JUMPI DUP1 PUSH4 0x29507F73 EQ PUSH2 0x58 JUMPI DUP1 PUSH4 0x7ACC0B20 EQ PUSH2 0x6B JUMPI JUMPDEST PUSH0 DUP1 REVERT JUMPDEST PUSH2 0x56 PUSH2 0x51 CALLDATASIZE PUSH1 0x4 PUSH2 0x26A JUMP JUMPDEST PUSH2 0x96 JUMP JUMPDEST STOP JUMPDEST PUSH2 0x56 PUSH2 0x66 CALLDATASIZE PUSH1 0x4 PUSH2 0x31F JUMP JUMPDEST PUSH2 0x10D JUMP JUMPDEST PUSH2 0x7E PUSH2 0x79 CALLDATASIZE PUSH1 0x4 PUSH2 0x358 JUMP JUMPDEST PUSH2 0x19F JUMP JUMPDEST PUSH1 0x40 MLOAD PUSH2 0x8D SWAP4 SWAP3 SWAP2 SWAP1 PUSH2 0x36F JUMP JUMPDEST PUSH1 0x40 MLOAD DUP1 SWAP2 SUB SWAP1 RETURN JUMPDEST PUSH1 0x40 DUP1 MLOAD PUSH1 0x60 DUP2 ADD DUP3 MSTORE DUP3 DUP2 MSTORE CALLER PUSH1 0x20 DUP1 DUP4 ADD SWAP2 SWAP1 SWAP2 MSTORE PUSH1 0x1 DUP3 DUP5 ADD MSTORE PUSH0 DUP6 DUP2 MSTORE SWAP1 DUP2 SWAP1 MSTORE SWAP2 SWAP1 SWAP2 KECCAK256 DUP2 MLOAD DUP2 SWAP1 PUSH2 0xCD SWAP1 DUP3 PUSH2 0x440 JUMP JUMPDEST POP PUSH1 0x20 DUP3 ADD MLOAD PUSH1 0x1 SWAP1 SWAP2 ADD DUP1 SLOAD PUSH1 0x40 SWAP1 SWAP4 ADD MLOAD ISZERO ISZERO PUSH1 0x1 PUSH1 0xA0 SHL MUL PUSH1 0x1 PUSH1 0x1 PUSH1 0xA8 SHL SUB NOT SWAP1 SWAP4 AND PUSH1 0x1 PUSH1 0x1 PUSH1 0xA0 SHL SUB SWAP1 SWAP3 AND SWAP2 SWAP1 SWAP2 OR SWAP2 SWAP1 SWAP2 OR SWAP1 SSTORE POP POP JUMP JUMPDEST PUSH0 DUP3 DUP2 MSTORE PUSH1 0x20 DUP2 SWAP1 MSTORE PUSH1 0x40 SWAP1 KECCAK256 PUSH1 0x1 ADD SLOAD PUSH1 0x1 PUSH1 0xA0 SHL SWAP1 DIV PUSH1 0xFF AND PUSH2 0x16F JUMPI PUSH1 0x40 MLOAD PUSH3 0x461BCD PUSH1 0xE5 SHL DUP2 MSTORE PUSH1 0x20 PUSH1 0x4 DUP3 ADD MSTORE PUSH1 0x14 PUSH1 0x24 DUP3 ADD MSTORE PUSH20 0x141C9BD91D58DD081B9BDD081D995C9A599A5959 PUSH1 0x62 SHL PUSH1 0x44 DUP3 ADD MSTORE PUSH1 0x64 ADD PUSH1 0x40 MLOAD DUP1 SWAP2 SUB SWAP1 REVERT JUMPDEST PUSH0 SWAP2 DUP3 MSTORE PUSH1 0x20 DUP3 SWAP1 MSTORE PUSH1 0x40 SWAP1 SWAP2 KECCAK256 PUSH1 0x1 ADD DUP1 SLOAD PUSH1 0x1 PUSH1 0x1 PUSH1 0xA0 SHL SUB NOT AND PUSH1 0x1 PUSH1 0x1 PUSH1 0xA0 SHL SUB SWAP1 SWAP3 AND SWAP2 SWAP1 SWAP2 OR SWAP1 SSTORE JUMP JUMPDEST PUSH0 PUSH1 0x20 DUP2 SWAP1 MSTORE SWAP1 DUP2 MSTORE PUSH1 0x40 SWAP1 KECCAK256 DUP1 SLOAD DUP2 SWAP1 PUSH2 0x1B9 SWAP1 PUSH2 0x3BC JUMP JUMPDEST DUP1 PUSH1 0x1F ADD PUSH1 0x20 DUP1 SWAP2 DIV MUL PUSH1 0x20 ADD PUSH1 0x40 MLOAD SWAP1 DUP2 ADD PUSH1 0x40 MSTORE DUP1 SWAP3 SWAP2 SWAP1 DUP2 DUP2 MSTORE PUSH1 0x20 ADD DUP3 DUP1 SLOAD PUSH2 0x1E5 SWAP1 PUSH2 0x3BC JUMP JUMPDEST DUP1 ISZERO PUSH2 0x230 JUMPI DUP1 PUSH1 0x1F LT PUSH2 0x207 JUMPI PUSH2 0x100 DUP1 DUP4 SLOAD DIV MUL DUP4 MSTORE SWAP2 PUSH1 0x20 ADD SWAP2 PUSH2 0x230 JUMP JUMPDEST DUP3 ADD SWAP2 SWAP1 PUSH0 MSTORE PUSH1 0x20 PUSH0 KECCAK256 SWAP1 JUMPDEST DUP2 SLOAD DUP2 MSTORE SWAP1 PUSH1 0x1 ADD SWAP1 PUSH1 0x20 ADD DUP1 DUP4 GT PUSH2 0x213 JUMPI DUP3 SWAP1 SUB PUSH1 0x1F AND DUP3 ADD SWAP2 JUMPDEST POP POP POP PUSH1 0x1 SWAP1 SWAP4 ADD SLOAD SWAP2 SWAP3 POP POP PUSH1 0x1 PUSH1 0x1 PUSH1 0xA0 SHL SUB DUP2 AND SWAP1 PUSH1 0xFF PUSH1 0x1 PUSH1 0xA0 SHL SWAP1 SWAP2 DIV AND DUP4 JUMP JUMPDEST PUSH4 0x4E487B71 PUSH1 0xE0 SHL PUSH0 MSTORE PUSH1 0x41 PUSH1 0x4 MSTORE PUSH1 0x24 PUSH0 REVERT JUMPDEST PUSH0 DUP1 PUSH1 0x40 DUP4 DUP6 SUB SLT ISZERO PUSH2 0x27B JUMPI PUSH0 DUP1 REVERT JUMPDEST DUP3 CALLDATALOAD SWAP2 POP PUSH1 0x20 DUP4 ADD CALLDATALOAD PUSH8 0xFFFFFFFFFFFFFFFF DUP1 DUP3 GT ISZERO PUSH2 0x299 JUMPI PUSH0 DUP1 REVERT JUMPDEST DUP2 DUP6 ADD SWAP2 POP DUP6 PUSH1 0x1F DUP4 ADD SLT PUSH2 0x2AC JUMPI PUSH0 DUP1 REVERT JUMPDEST DUP2 CALLDATALOAD DUP2 DUP2 GT ISZERO PUSH2 0x2BE JUMPI PUSH2 0x2BE PUSH2 0x256 JUMP JUMPDEST PUSH1 0x40 MLOAD PUSH1 0x1F DUP3 ADD PUSH1 0x1F NOT SWAP1 DUP2 AND PUSH1 0x3F ADD AND DUP2 ADD SWAP1 DUP4 DUP3 GT DUP2 DUP4 LT OR ISZERO PUSH2 0x2E6 JUMPI PUSH2 0x2E6 PUSH2 0x256 JUMP JUMPDEST DUP2 PUSH1 0x40 MSTORE DUP3 DUP2 MSTORE DUP9 PUSH1 0x20 DUP5 DUP8 ADD ADD GT ISZERO PUSH2 0x2FE JUMPI PUSH0 DUP1 REVERT JUMPDEST DUP3 PUSH1 0x20 DUP7 ADD PUSH1 0x20 DUP4 ADD CALLDATACOPY PUSH0 PUSH1 0x20 DUP5 DUP4 ADD ADD MSTORE DUP1 SWAP6 POP POP POP POP POP POP SWAP3 POP SWAP3 SWAP1 POP JUMP JUMPDEST PUSH0 DUP1 PUSH1 0x40 DUP4 DUP6 SUB SLT ISZERO PUSH2 0x330 JUMPI PUSH0 DUP1 REVERT JUMPDEST DUP3 CALLDATALOAD SWAP2 POP PUSH1 0x20 DUP4 ADD CALLDATALOAD PUSH1 0x1 PUSH1 0x1 PUSH1 0xA0 SHL SUB DUP2 AND DUP2 EQ PUSH2 0x34D JUMPI PUSH0 DUP1 REVERT JUMPDEST DUP1 SWAP2 POP POP SWAP3 POP SWAP3 SWAP1 POP JUMP JUMPDEST PUSH0 PUSH1 0x20 DUP3 DUP5 SUB SLT ISZERO PUSH2 0x368 JUMPI PUSH0 DUP1 REVERT JUMPDEST POP CALLDATALOAD SWAP2 SWAP1 POP JUMP JUMPDEST PUSH1 0x60 DUP2 MSTORE PUSH0 DUP5 MLOAD DUP1 PUSH1 0x60 DUP5 ADD MSTORE DUP1 PUSH1 0x20 DUP8 ADD PUSH1 0x80 DUP6 ADD MCOPY PUSH0 PUSH1 0x80 DUP3 DUP6 ADD DUP2 ADD SWAP2 SWAP1 SWAP2 MSTORE PUSH1 0x1 PUSH1 0x1 PUSH1 0xA0 SHL SUB SWAP6 SWAP1 SWAP6 AND PUSH1 0x20 DUP5 ADD MSTORE SWAP3 ISZERO ISZERO PUSH1 0x40 DUP4 ADD MSTORE POP PUSH1 0x1F SWAP1 SWAP2 ADD PUSH1 0x1F NOT AND ADD ADD SWAP2 SWAP1 POP JUMP JUMPDEST PUSH1 0x1 DUP2 DUP2 SHR SWAP1 DUP3 AND DUP1 PUSH2 0x3D0 JUMPI PUSH1 0x7F DUP3 AND SWAP2 POP JUMPDEST PUSH1 0x20 DUP3 LT DUP2 SUB PUSH2 0x3EE JUMPI PUSH4 0x4E487B71 PUSH1 0xE0 SHL PUSH0 MSTORE PUSH1 0x22 PUSH1 0x4 MSTORE PUSH1 0x24 PUSH0 REVERT JUMPDEST POP SWAP2 SWAP1 POP JUMP JUMPDEST PUSH1 0x1F DUP3 GT ISZERO PUSH2 0x43B JUMPI DUP1 PUSH0 MSTORE PUSH1 0x20 PUSH0 KECCAK256 PUSH1 0x1F DUP5 ADD PUSH1 0x5 SHR DUP2 ADD PUSH1 0x20 DUP6 LT ISZERO PUSH2 0x419 JUMPI POP DUP1 JUMPDEST PUSH1 0x1F DUP5 ADD PUSH1 0x5 SHR DUP3 ADD SWAP2 POP JUMPDEST DUP2 DUP2 LT ISZERO PUSH2 0x438 JUMPI PUSH0 DUP2 SSTORE PUSH1 0x1 ADD PUSH2 0x425 JUMP JUMPDEST POP POP JUMPDEST POP POP POP JUMP JUMPDEST DUP2 MLOAD PUSH8 0xFFFFFFFFFFFFFFFF DUP2 GT ISZERO PUSH2 0x45A JUMPI PUSH2 0x45A PUSH2 0x256 JUMP JUMPDEST PUSH2 0x46E DUP2 PUSH2 0x468 DUP5 SLOAD PUSH2 0x3BC JUMP JUMPDEST DUP5 PUSH2 0x3F4 JUMP JUMPDEST PUSH1 0x20 DUP1 PUSH1 0x1F DUP4 GT PUSH1 0x1 DUP2 EQ PUSH2 0x4A1 JUMPI PUSH0 DUP5 ISZERO PUSH2 0x48A JUMPI POP DUP6 DUP4 ADD MLOAD JUMPDEST PUSH0 NOT PUSH1 0x3 DUP7 SWAP1 SHL SHR NOT AND PUSH1 0x1 DUP6 SWAP1 SHL OR DUP6 SSTORE PUSH2 0x4F8 JUMP JUMPDEST PUSH0 DUP6 DUP2 MSTORE PUSH1 0x20 DUP2 KECCAK256 PUSH1 0x1F NOT DUP7 AND SWAP2 JUMPDEST DUP3 DUP2 LT ISZERO PUSH2 0x4CF JUMPI DUP9 DUP7 ADD MLOAD DUP3 SSTORE SWAP5 DUP5 ADD SWAP5 PUSH1 0x1 SWAP1 SWAP2 ADD SWAP1 DUP5 ADD PUSH2 0x4B0 JUMP JUMPDEST POP DUP6 DUP3 LT ISZERO PUSH2 0x4EC JUMPI DUP8 DUP6 ADD MLOAD PUSH0 NOT PUSH1 0x3 DUP9 SWAP1 SHL PUSH1 0xF8 AND SHR NOT AND DUP2 SSTORE JUMPDEST POP POP PUSH1 0x1 DUP5 PUSH1 0x1 SHL ADD DUP6 SSTORE JUMPDEST POP POP POP POP POP POP JUMP INVALID LOG2 PUSH5 0x6970667358 0x22 SLT KECCAK256 0xD2 SDIV PUSH13 0x62333609367E37B09EA4A69922 PUSH19 0x783F590FBDC136AC711455E996AAEB64736F6C PUSH4 0x43000819 STOP CALLER "
				},
				"gasEstimates": {
					"creation": {
						"codeDepositCost": "266800",
						"executionCost": "304",
						"totalCost": "267104"
					},
					"external": {
						"addProduct(uint256,string)": "infinite",
						"products(uint256)": "infinite",
						"transferOwnership(uint256,address)": "26853"
					}
				},
				"methodIdentifiers": {
					"addProduct(uint256,string)": "23cd950a",
					"products(uint256)": "7acc0b20",
					"transferOwnership(uint256,address)": "29507f73"
				}
			},
			"storageLayout": {
				"storage": [
					{
						"astId": 13,
						"contract": "artifacts/Supplychainverification.sol:SupplyChain",
						"label": "products",
						"offset": 0,
						"slot": "0",
						"type": "t_mapping(t_uint256,t_struct(Product)8_storage)"
					}
				],
				"types": {
					"t_address": {
						"encoding": "inplace",
						"label": "address",
						"numberOfBytes": "20"
					},
					"t_bool": {
						"encoding": "inplace",
						"label": "bool",
						"numberOfBytes": "1"
					},
					"t_mapping(t_uint256,t_struct(Product)8_storage)": {
						"encoding": "mapping",
						"key": "t_uint256",
						"label": "mapping(uint256 => struct SupplyChain.Product)",
						"numberOfBytes": "32",
						"value": "t_struct(Product)8_storage"
					},
					"t_string_storage": {
						"encoding": "bytes",
						"label": "string",
						"numberOfBytes": "32"
					},
					"t_struct(Product)8_storage": {
						"encoding": "inplace",
						"label": "struct SupplyChain.Product",
						"members": [
							{
								"astId": 3,
								"contract": "artifacts/Supplychainverification.sol:SupplyChain",
								"label": "name",
								"offset": 0,
								"slot": "0",
								"type": "t_string_storage"
							},
							{
								"astId": 5,
								"contract": "artifacts/Supplychainverification.sol:SupplyChain",
								"label": "currentOwner",
								"offset": 0,
								"slot": "1",
								"type": "t_address"
							},
							{
								"astId": 7,
								"contract": "artifacts/Supplychainverification.sol:SupplyChain",
								"label": "verified",
								"offset": 20,
								"slot": "1",
								"type": "t_bool"
							}
						],
						"numberOfBytes": "64"
					},
					"t_uint256": {
						"encoding": "inplace",
						"label": "uint256",
						"numberOfBytes": "32"
					}
				}
			},
			"userdoc": {
				"kind": "user",
				"methods": {},
				"version": 1
			}
		}
	}
}